:1000000000400020E12D0000212E0000232E0000E2
:1000100000000000000000000000000000000000E0
:10002000000000000000000000000000252E00007D
:100030000000000000000000272E0000292E000014
:100040002B2E00002B2E0000093600002B2E000066
:100050002B2E0000000000002B2E00002B2E000095
:100060002B2E00004D3000002B2E00002B2E000008
:100070002B2E00002B2E00002B2E00002B2E00001C
:100080002B2E0000AD3600002B2E00002B2E000082
:100090002B2E00002B2E00002B2E00002B2E0000FC
:1000A0002B2E00002B2E000000000000000000009E
:1000B0000000000000000000000000000000000040
:1000C000054B0648033310B51B1A062B03D9044B06
:1000D000002B00D0984710BDCC000020CC000020A1
:1000E000000000000648074910B5091A8910CB0F17
:1000F0005918491003D0044B002B00D0984710BD6D
:10010000CC000020CC0000200000000010B5074CFF
:100110002378002B09D1FFF7D3FF054B002B02D02A
:10012000044800E000BF0123237010BDCC00002074
:1001300000000000244B0000094B10B5002B03D039
:100140000849094800E000BF08480368002B02D1B5
:10015000FFF7C8FF10BD064B002BF9D09847F7E713
:1001600000000000D0000020244B0000C800002048
:1001700000000000164B002B00D1144B9D4640227E
:1001800092029A1A924600218B460F461348144A4F
:10019000121A03F0C0FC0F4B002B00D098470E4BF7
:1001A000002B00D098470020002104000D000D48CE
:1001B000002802D00C4800E000BF03F073FC2000D0
:1001C000290003F039FA03F057FCC046000008008C
:1001D000004000200000000000000000CC000020D3
:1001E000C8190020000000000000000001230340A7
:1001F0000200181E04D1082A03D91068000900E083
:10020000002070470122016810B5114201D0002979
:1002100003DA102001F0D8F803E04910082001F0BB
:1002200077F910BD016810B5CB0701D5002903DAB5
:10023000102001F0C9F806E04910033189100022AE
:10024000062001F065F910BD70B50568AB0708D14F
:10025000082D06D90F2302212A6813409A1F8A43CA
:1002600001D00B2012E046680124082B0BD1280096
:10027000FFF7BCFF2300834203DC9A00AE5001333A
:10028000F9E7002014E0264203D1132001F09CF886
:100290000EE07610FF2EF8D82800FFF7A7FF2C1DE0
:1002A0002300800020189842EBD91E700133FAE732
:1002B00070BD70B5012544682C4201D1112026E0A3
:1002C0000668B30722D1082E20D90F2332686410A4
:1002D0001340082B0BD1002C04DD3000FFF786FF04
:1002E000844201DD122012E0A400A05911E0062B87
:1002F0000CD1002CF6DD3000FFF778FF800084423F
:10030000F0DC3419E0784000284302E00B2001F0D3
:100310005BF870BDF8B5012344681C4201D111207F
:100320002FE00325066835402AD1082E28D90F234F
:100330003268641087681340082B0BD1002C04DD51
:100340003000FFF753FF844201DD122019E0A400C2
:10035000A75113E0062B13D1002CF6DD3000FFF778
:1003600045FF80008442F0DC01231F4201D11320AD
:1003700007E07F10FF2FFAD83419E770280002E059
:100380000B2001F021F8F8BD10B5032400680440EB
:1003900006D1082804D90F2302681340052B01D089
:1003A0000E200CE001F0D4F81022210003F09CFD97
:1003B00080239B05C218054B9A4203D9142001F0F3
:1003C00003F802E001234000184310BDFFFFFF3F88
:1003D00010B501240268224202D04368234203D1AF
:1003E0000D2000F0F1FF08E0521011045A100B002C
:1003F00092B2134318684000204310BD01210268E7
:1004000010B50A4205D043680B4202D0806808420A
:1004100003D10D2000F0D8FF08E0521011045A104B
:100420000B0092B2401013431860002010BD000072
:10043000012303400200181E01D0501002E00D22DB
:10044000014B1A707047C046E8000020C368F0B541
:100450009D0083688BB05D19030018330593036911
:10046000059A9C00059B03901C19436902939B000D
:10047000D3180493DD4B1B78002B16D1FF222B6879
:10048000DB491F1213409B005B5804990435089107
:1004900002923DE0221F049B1168BC001951D34B0E
:1004A0001B78002B00D1FBE01400039BCF4E9B6810
:1004B00031780293EA1A039B92109B7812021A4336
:1004C000039B587801F00DFD0023039A33701370DD
:1004D000039B059A9B68ED1A0293039BAD10DD60A8
:1004E000059BE41A039BA4101C61049B9B1A039AAE
:1004F0009B10536100F061FFBC4B1B78002BD4D1E3
:100500002B68029A1F121340B94A9B009B5804356E
:100510009F46039B587801F0DEFCC5E1B34B221DDA
:100520001B782760002BBFD12B6802991F120B404C
:10053000AF499B005B5814000435E9E72968221D88
:100540002160AA492B1D0978002901D0140091E1EE
:100550006B6802991F120B40A5499B005B58140061
:100560000835D5E7A14BBE001B78AE19221D2660C9
:10057000002B99D12B6802991F120B409C499B00BC
:100580005B5814000435C3E79A4BBE00F358221D94
:100590002360964B1B78002B86D12B6802991F1283
:1005A0000B4093499B005B5814000435B0E7221FB1
:1005B000904B1168BC00E1508C4B1B78002B00D095
:1005C00072E72B6802991F120B4089499B005B5808
:1005D000140004359CE7874BBF00F8580123002620
:1005E000184202D0FFF724FF0600043C2068FFF702
:1005F0001FFF0123361876001E437E4BDE517B4BD6
:100600001B78002B00D050E72B68029A1F12134072
:10061000774A9B009B5804357AE7049B221D0C3BCC
:100620001B682360714B1B78002B00D03CE72B68C4
:1006300002991F120B406E499B005B581400043551
:1006400066E7049B6C490C3B1E68221D73107E18E4
:10065000F61A049BB6009B592360644B1B78002B51
:1006600000D021E72B6802991F120B4060499B00C4
:100670005B58140004354BE7049BBE009B59221DB8
:1006800023605A4B1B78002B00D00DE72B68029992
:100690001F120B4056499B005B581400043537E786
:1006A0002B6802991F120B4051499B005B581400A4
:1006B00004352DE7049BBE009E193368043C206876
:1006C0005F10FFF7B5FE01233F187F001F43474B24
:1006D00037601B78002B00D0E7E62B68029A1F12C8
:1006E0001340434A9B009B58043511E7059BBE000D
:1006F000A41B3E4EA3420CD83378002B00D0D4E686
:100700002B68029A1F121340394A9B009B580435EC
:10071000FEE63A4800F0BCFE3378002B00D0C4E679
:100720002B68029A1F121340314A9B009B580435D4
:10073000EEE6BB00ED18002F00DAC9E62B4B1B7864
:10074000002B00D0B1E62B68029A1F121340284AF2
:100750009B009B580435DBE6043C2368042B04D142
:10076000BB00ED18002F00DAB2E6204B1B78002BFF
:1007700000D09AE62B68029A1F1213401C4A9B0075
:100780009B580435C4E6043C2368082B04D1BB0005
:10079000ED18002F00DA9BE6144B1B78002B00D0DD
:1007A00083E62B68029A1F121340114A9B009B5844
:1007B0000435ADE6221F13685B10013B002B06DDFC
:1007C00001215B00BE000B43AD19136080E6074BAF
:1007D00014001B78002B00D067E62B68029A1F12CA
:1007E0001340034A9B009B58043591E6E800002023
:1007F000BC450000E4180020FDFFFF3FC446000098
:10080000FF22FB1152001340FE3AFF3A13432360CC
:10081000039B9B680493ED1A039BAD109B782D02FC
:100820001D43230095400C3315430493059A089B00
:1008300065609B1A01229B105B001343A360029B1F
:100840003C141C402300049A013B02D3012102C244
:10085000FAE7049BA4001C19029E039B3E409F7074
:10086000E14BF600039AF3589360E04A1278002AAD
:1008700002D008331D0018E61D00029A9B680C3553
:100880001F121340DA4A9B009B58049A08923FE6D5
:10089000231F1968059A049B9B1A0333062B07D85C
:1008A000039B587801F02FFB0023039A13700FE687
:1008B000049B049A0C3B1B685B109B005B421C0072
:1008C000D3180C3B19601300083B1B680399083CC4
:1008D00014195A108A7002995B000A40C249D2006A
:1008E00055589B0A039A9B009560ED18049B059A46
:1008F000043B1B685B109B00D3180493BB4B1B7815
:10090000002B00D0D1E52B68029A1F121340B84A81
:100910009B009B58049A04350892F9E5231F186838
:10092000FFF786FD0123039A0600137001F056FCC1
:1009300009E0231F1868FFF77BFD0223039A0600D6
:10094000137001F055FC039B36185E60C0E569200A
:1009500001F02CFA002800D182E3BB0009930023A8
:10096000A44A1370A44A13600793079BA24A9F42AC
:100970003DDD16689F4A079B9219069264220999E9
:100980009B005B1AE358961B633A134202D0134153
:100990009A4A18E09A4A002B02D0042B05D1994AB2
:1009A0003100069803F0AAF919E0974A082BF7D00E
:1009B0000ED90F2219680A40052A0AD1180000F042
:1009C000C7FD0300914A3100069803F097F906E04D
:1009D0000222009231008E4A069803F08FF9854872
:1009E00003F0E8F9844B1860079B0133BCE71368F8
:1009F0008048002B06D0013BC15C202902D1002198
:100A00001360C15401F0E4F9784BBE001B78A41BBD
:100A10000434002B00D048E52B68029A1F121340C3
:100A2000734A9B009B58043572E501F06DF900F0A4
:100A3000C4FCBB00E61A06932300083B1868FFF7C6
:100A4000F7FC231F07001868FFF7F2FC01233F188B
:100A50007F001F43069B3760E41A644B04341B7805
:100A6000002B00D021E52B68029A1F121340604A28
:100A70009B009B5804354BE5BB00E71A0693230007
:100A8000083B1868FFF7D4FC231F06001868FFF71F
:100A9000CFFC0123361A76001E43069B3E60E41A03
:100AA000524B04341B78002B00D0FEE42B68029AD2
:100AB0001F1213404E4A9B009B58043528E5BB008B
:100AC000E61A06932300083B1868FFF7B1FC231FC2
:100AD00007001868FFF7ACFC012347437F001F4362
:100AE000069B3760E41A414B04341B78002B00D07E
:100AF000DBE42B68029A1F1213403D4A9B009B586F
:100B0000043505E52300083B1868FFF791FC231F17
:100B100006901868FFF78CFC0100069802F094FE1E
:100B20000123BF00E61B3400400018432F4B306008
:100B30001B780434002B00D0B7E42B68029A1F12F4
:100B400013402B4A9B009B580435E1E42300083BEB
:100B50001868FFF76DFC231F06901868FFF768FC04
:100B6000069ABF00E61B0423824200DBDB183360D9
:100B70001E4BE41B1B780434002B00D095E42B683B
:100B8000029A1F1213401A4A9B009B580435BFE477
:100B9000BE00A71B3800FFF735FB3C00134B386045
:100BA0001B780434002B00D07FE42B68029A1F12BC
:100BB00013400F4A9B009B580435A9E4BE00A71BB5
:100BC0003800FFF72FFB3C00084B38601B780434DB
:100BD000002B00D069E42B68029A1F121340044ACC
:100BE0009B009B58043593E4E4100020E8000020AB
:100BF000BC450000F4000020F0000020D4460000B6
:100C0000D8460000DD460000E3460000EA4600004A
:100C1000EE460000BE00A71B3800FFF715FB3C00A6
:100C2000EA4B38601B780434002B00D03DE42B687D
:100C3000029A1F121340E64A9B009B58043567E452
:100C4000BE00A71B3800FFF734FB3C00DF4B3860C9
:100C50001B780434002B00D027E42B68029A1F1263
:100C60001340DB4A9B009B58043551E4BE00A71B90
:100C70003800FFF74FFB3C00D44B38601B7804343E
:100C8000002B00D011E42B68029A1F121340D04AA7
:100C90009B009B5804353BE4BE00A71B380001F0C5
:100CA000DFFA3C00C94B38601B780434002B01D0BC
:100CB000FFF7FBFB2B68029A1F121340C44A9B00EC
:100CC0009B58043524E4BE00A71B380001F0E6FA67
:100CD0003C00BE4B38601B780434002B01D0FFF77A
:100CE000E4FB2B68029A1F121340B94A9B009B58E1
:100CF00004350DE4BE00A71B380001F0E7FA3C0004
:100D0000B24B38601B780434002B01D0FFF7CDFBC9
:100D10002B68029A1F121340AD4A9B009B58043562
:100D2000FFF7F6FBBE00A71B380001F0EBFA3C0012
:100D3000A64B38601B780434002B01D0FFF7B5FBBD
:100D40002B68029A1F121340A14A9B009B5804353E
:100D5000FFF7DEFBBE00A71B380001F0EFFA3C00F6
:100D60009A4B38601B780434002B01D0FFF79DFBB1
:100D70002B68029A1F121340954A9B009B5804351A
:100D8000FFF7C6FB01F02AFA924B400018400123FE
:100D900018438E4B261D1B782060002B15D12B6825
:100DA000029A1F1213408A4A9B009B583400043554
:100DB000FFF7AEFB01F01CFA012340001843834B00
:100DC000261D1B782060002B02D03400FFF76DFB3E
:100DD0002B68029A1F1213407D4A9B009B583400D7
:100DE0000435FFF795FBBE00A71B3800FFF7F0FAAC
:100DF0003C00764B38601B780434002B01D0FFF7A1
:100E000054FB2B68029A1F121340714A9B009B5897
:100E10000435FFF77DFBBE00A71B3800FFF7EEFA95
:100E20003C006A4B38601B780434002B01D0FFF77C
:100E30003CFB2B68029A1F121340654A9B009B588B
:100E40000435FFF765FB2300083B1868FFF7F0FA4D
:100E5000231F06901868FFF7EBFA0100069802F0CE
:100E6000D9FD0123BF00E61B340049001943574B4D
:100E700031601B780434002B01D0FFF716FB2B6880
:100E8000029A1F121340524A9B009B580435FFF7E9
:100E90003FFB2300083B1868FFF7CAFA231F0690A0
:100EA0001868FFF7C5FA069ABF00E61B04238242C2
:100EB00000DDDB183360454BE41B1B780434002B4A
:100EC00001D0FFF7F2FA2B68029A1F121340404A32
:100ED0009B009B580435FFF71BFB2300221F083B98
:100EE0001B681268BE00934202D1A31B042208E0D3
:100EF000082B08D8002B02D10F22344B1A7008227D
:100F0000A31B1A6007E001210B4201D00A42F6D16F
:100F10000F222E4B1A702D4BA41B1B780434002B70
:100F200001D0FFF7C2FA2B68029A1F121340284A19
:100F30009B009B580435FFF7EBFA2300083B186829
:100F4000FFF776FA231F06901868FFF771FA069AE2
:100F5000BF00E61B0423824200DADB1833601B4B20
:100F6000E41B1B780434002B01D0FFF79EFA2B689A
:100F7000029A1F121340164A9B009B580435FFF734
:100F8000C7FA2300083B1868FFF752FA231F0690A0
:100F90001868FFF74DFA069ABF00E61B0423824249
:100FA00000DCDB183360094BE41B1B780434002B96
:100FB00001D0FFF77AFA2B68029A1F121340044AF5
:100FC0009B009B580435FFF7A3FAC046E8000020B9
:100FD000BC450000FEFFFF7F231F1B68E14ABE00E7
:100FE000042B02D1A31B082103E0082B03D1042109
:100FF000A31B196001E00C2313701378A41B0434A5
:10100000002B01D0FFF751FA2B68029A1F121340F0
:10101000D54A9B009B580435FFF77AFA0120BE00A1
:10102000A71B3B68184014D19A070DD1082B0BD988
:101030000F2219680A40052A06D1180000F088FA24
:1010400002F0B8FE063007E0042B04D0082B03D1D1
:1010500001E00A2000E0072000F0A8FE002802D1ED
:10106000043DFFF735FA039B3868597800F02CFFF0
:10107000BC4BA41B1B780434002B01D0FFF715FADE
:101080002B68029A1F121340B74A9B009B580435E5
:10109000FFF73EFABE00A71B380001F0DDF83C0068
:1010A000B04B38601B780434002B01D0FFF7FDF9FA
:1010B0002B68029A1F121340AB4A9B009B580435C1
:1010C000FFF726FABE00A71B380001F0C7F83C0066
:1010D000A44B38601B780434002B01D0FFF7E5F9EE
:1010E0002B68029A1F1213409F4A9B009B5804359D
:1010F000FFF70EFABE00A71B3800FFF745F93C00CA
:10110000984B38601B780434002B01D0FFF7CDF9E1
:101110002B68029A1F121340934A9B009B58043578
:10112000FFF7F6F9BE00A71B380001F0E7FB3C0013
:101130008C4B38601B780434002B01D0FFF7B5F9D5
:101140002B68029A1F121340874A9B009B58043554
:10115000FFF7DEF9BE00A71B380001F09FFB3C0043
:10116000804B38601B780434002B01D0FFF79DF9C9
:101170002B68029A1F1213407B4A9B009B58043530
:10118000FFF7C6F9BE00A71B380001F00FFB3C00BB
:10119000744B38601B780434002B01D0FFF785F9BD
:1011A0002B68029A1F1213406F4A9B009B5804350C
:1011B000FFF7AEF9BE00A71B380001F005FB3C00AD
:1011C000684B38601B780434002B01D0FFF76DF9B1
:1011D0002B68029A1F121340634A9B009B580435E8
:1011E000FFF796F9BE00A71B380001F0F3FA3C00A8
:1011F0005C4B38601B780434002B01D0FFF755F9A5
:101200002B68029A1F121340574A9B009B580435C3
:10121000FFF77EF9BE00A71B380001F0F9FA3C0089
:10122000504B38601B780434002B01D0FFF73DF998
:101230002B68029A1F1213404B4A9B009B5804359F
:10124000FFF766F9BE00A71B380001F0D1FB3C0098
:10125000444B38601B780434002B01D0FFF725F98C
:101260002B68029A1F1213403F4A9B009B5804357B
:10127000FFF74EF9BE00A71B380001F0C1FB3C0090
:10128000384B38601B780434002B01D0FFF70DF980
:101290002B68029A1F121340334A9B009B58043557
:1012A000FFF736F9BE00A71B380001F0B1FB3C0088
:1012B0002C4B38601B780434002B01D0FFF7F5F875
:1012C0002B68029A1F121340274A9B009B58043533
:1012D000FFF71EF9BE00A71B380001F0A3FB3C007E
:1012E000204B38601B780434002B01D0FFF7DDF869
:1012F0002B68029A1F1213401B4A9B009B5804350F
:10130000FFF706F9BE00A71B380001F09FFA3C006A
:10131000144B38601B780434002B01D0FFF7C5F85C
:101320002B68029A1F1213400F4A9B009B580435EA
:10133000FFF7EEF8BE00A71B380001F08CFA3C0066
:10134000084B38601B780434002B01D0FFF7ADF850
:101350002B68029A1F121340034A9B009B580435C6
:10136000FFF7D6F8E8000020BC450000231F1868EE
:10137000FFF75EF8061E00DC0126BB00E71A0693A5
:1013800002F06EFC310002F045FB012301314900FF
:101390001943069B3960E41A094B04341B78002B6F
:1013A00001D0FFF782F82B68029A1F121340054AFA
:1013B0009B009B580435FFF7ABF80BB0F0BDC0465F
:1013C000E8000020BC450000014B18700020704769
:1013D000E80000200023F0B587B05A1E0392002BCE
:1013E00005DC00F0D5FF00F0C1FD64230393002667
:1013F00002960196224B19688E4201DB039BECE7B3
:10140000204B1A680132914200DC00221A601B68EE
:101410001D4F9C010493E3190593E35D3D00032BED
:1014200027D0002B29D0012B0AD1019B002B02D100
:1014300000F0D4FE01902D196B68019AD31A0DE0CB
:10144000022B10D1029B002B02D100F0D1FE0290A2
:101450002D196B68029AD31A9B029B0A0B4A93427E
:1014600001D803233B55049B074A9B019B5C032B3C
:1014700003D10598FEF7EAFFC0E70136BAE7C04698
:10148000EC00002000000020E40C00209F860100FA
:1014900000B59BB00200054901A802F061FC01A85B
:1014A00000F096FC00F062FDFCE7C0460847000033
:1014B00013B58400200002F01BFB104B011901AA98
:1014C000521A18600192002801D0FF2A02DC0C4851
:1014D000FFF7DEFF082802D80C3018600C3C1868B3
:1014E000084B04191860084B01211C600023074AAF
:1014F000D1500433642BFBD113BDC04660010020E2
:1015000019470000580100205C010020E418002069
:1015100070B50D4D0D4E2B684C1CA40036681C197F
:10152000B44203D30A20FFF74FFF0BE02C601D00ED
:10153000AC4201D904C5FBE70F2209011040084362
:101540001860180070BDC046580100205C010020E2
:1015500010B5830706D1082804D90F2304C8134007
:10156000052B03D00E20FFF72FFF014810BDC0460A
:101570001348000030B502248025094B094AED00CC
:101580009C505C59002CFCD0A124E400884204D279
:101590008025ED0018514019F8E70021995030BD21
:1015A00000E001400405000010B5002804D190209F
:1015B00092210002890203E0922080218002C90268
:1015C000FFF7D8FF10BD002802D092239B0201E054
:1015D00090231B021B6800201A0E532A01D11B0204
:1015E000180A7047154B1B68002B04D080219223EA
:1015F000C9029B0203E09221902389021B0200286A
:1016000007D1191D5B6802001B0E522B14D10A0072
:1016100012E0002281420FD903681B0E522B0BD11E
:10162000436802339B00C318994205D91A68110E0A
:101630000022522900D11A001000704764030020D4
:1016400030B501248025064A064BED00D45054598C
:10165000002CFCD001600021014AD15030BDC046B1
:1016600000E001400405000010B5002802D09220DF
:10167000800201E090200002A6230902DB05090A8E
:101680001943FFF7DDFF10BDF0B5012480250300ED
:101690000F4F08000F49ED007C507C59002CFCD006
:1016A0009C46002810DD5478167893782402344341
:1016B0001B0423431C00D37801381B0623436446D4
:1016C00008C40432A446ECE700237B50F0BDC046BA
:1016D00000E001400405000070B505004B680A00F9
:1016E0009C1C2100FFF7D0FFA000281870BD00004F
:1016F0008022F0B5520085B00021674802F00BFA55
:10170000802200215200654802F005FA644B1B68F4
:101710001A00029353425A4110000392FFF744FF0C
:10172000029B002B01D15F4C00E05F4C0020FFF7D3
:1017300059FFFF270500002D00D19FE02B681A12EA
:101740001B143A403B4001921A000A3A092A52D827
:10175000514B019A995C002900D08AE0102253482D
:1017600002F0D9F92E00336801991A123A409142D9
:101770001ED1181438400A38092819D801F0D0FFB2
:1017800005080B18181818181813484B1E600FE09E
:10179000464B5E600CE03B40012B09DC0233434AC0
:1017A0009B009E5004E010220021404802F0B3F953
:1017B0003000FFF717FF061ED5D13C4E31680029D7
:1017C00017D02000FFF788FF71680400002902D0BD
:1017D000FFF782FF0400B168002903D02000FFF763
:1017E0007BFF0400F168002903D02000FFF774FF9D
:1017F0000400294B3AE0143B092B3AD8274B019AB5
:10180000995C002935D10822294802F084F92E007C
:10181000336801991A123A40914212D11B143B408D
:10182000152B06D01D2B07D0142B0AD1204B1E6080
:1018300007E01F4B5E6004E0082200211C4802F014
:101840006AF93000FFF7CEFE061EE1D1184B196889
:1018500000290AD02000FFF73FFF154B040059680C
:10186000002902D0FFF738FF04000C4B0121019A38
:1018700099542800FFF7B6FE05005CE70298FFF7D1
:10188000A2FE411C0398FFF7EFFE054B039A1A6076
:10189000084B1C6005B0F0BD64020020640100200C
:1018A000640300200448020004900000481900204E
:1018B000581900206803002070B50020FFF783FE50
:1018C00004000120FFF77FFE844200DA04000A4B87
:1018D0001E687542754128001D60FFF765FE002EE9
:1018E00001D0064B00E0064B064A2800611C13603D
:1018F000FFF7BAFE70BDC0466403002004900000EC
:101900000448020068030020F8B50020FFF75BFEE2
:1019100007000120FFF757FE3E00224D0643224CF0
:101920000CD180219020C9020002FFF723FE012183
:101930003000FFF799FE2E601C4B2FE0874208DD38
:10194000002392212B60194B890223602368002019
:1019500011E0012380212B60154BC9022360F5E7BC
:101960001A68551C18D0120E522A07D101205A6845
:10197000023292009B188B42F2D311E0002800D073
:1019800023600C4C0C49200002F00CFA200000F0FF
:1019900047FCFFF791FF04E0002802D0236000E03D
:1019A0002160F8BD6403002068030020049000005B
:1019B000044802006019002090470000F0B585B08F
:1019C000039203220333DC171440294EE3189C10C2
:1019D000336801900291002B02D08022D20201E0F4
:1019E00092229202234FA51C3B68AD005B199A42DC
:1019F00017D2FFF77DFE3368002B02D08022D2027F
:101A000001E0922292023B685B199A4209D21A4C79
:101A10001A49200002F0C6F9200000F001FC002065
:101A200023E0029B3E681B06190C6B461A7BA4231D
:101A3000DB051343019A0B431104FF2212041140EA
:101A400019433000FFF7FCFD3300301D083321003F
:101A50000193FFF7F5FD01980A9A2100FFF714FEA4
:101A60003000019B083D5D193D6005B0F0BDC046EA
:101A7000640300206803002060190020B9470000BB
:101A800070B59AB0FFF740FF80221B4C1201002175
:101A9000200002F040F80020FFF7A4FDFF250026FB
:101AA00000280DD003681A142A400A2A1BD11A12E2
:101AB0002A40D200A1180B71A050FFF793FDEFE769
:101AC000802102000901235808305D1EAB41D21865
:101AD0008842F8D1094901A802F042F901A800F0B2
:101AE00077F91AB070BD132AE7D11B122B40DB0027
:101AF000E2181671E650E0E7E4100020E04700002D
:101B0000044A05491368C85401339B059B0D1360B3
:101B10007047C0466C0700206C030020114A70B566
:101B20001368114C984211DA015D451CFA390129FC
:101B300006D8AB4206DD2118497801391F2901D9A1
:101B40002800EFE70100251A461C02D1002313608C
:101B500006E0665C6E5401318B42FADC181A1060A4
:101B600070BDC046700700207807002010B500F057
:101B700035FB064B1A68904201D200221A601B689E
:101B8000C01A034B83428041404210BD74070020BD
:101B9000204E000070B505000C00FA20FFF7B0FFE2
:101BA000E8B2FFF7ADFFE0B2FFF7AAFF70BD00009B
:101BB000F8B506000D0014001F1E02D1FFF7EAFF62
:101BC00023E0124B12491B68096805325B1ADB439C
:101BD0009B059B0D9A4218DCFB20FFF791FFF0B2AA
:101BE000FFF78EFFE8B2FFF78BFFE0B2FFF788FF49
:101BF0002012C0B2FFF784FF3D00EB1B9C4204DDC6
:101C00002878FFF77DFF0135F7E7F8BD6C07002066
:101C1000780B0020012370B50400B2B00D001A4209
:101C20000DD0694668460B7053104B7051121B0E55
:101C30005214C270037181706B4605222DE0930728
:101C40001ED1082A1CD90F2311680B40052B17D170
:101C50006946033B10000B70FFF77AFC060002F0A8
:101C6000A9F8C72800DDC7200023834205DA6946AA
:101C700001335A1EB25CCA54F7E7421C6B460CE0B3
:101C8000042A01D0082A0CD103236946043A0B70B8
:101C9000514251416B460222597029002000FFF742
:101CA00087FF32B070BD000070B5050000240C4BFA
:101CB000A001C0184278AA4203D00134102CF7D1F9
:101CC0000DE04022002101F026FF064A1368013B87
:101CD000A34200D1146029001120FFF75BFF70BD03
:101CE000E40C0020EC000020802210B5D20000217E
:101CF000034801F010FF0022024B1A6010BDC046DD
:101D0000E40C0020EC00002010B50024094B1B68F7
:101D10009C420BDA084BA201D3181A78002A03D090
:101D200059781120FFF736FF0134EFE7FFF7DCFFAA
:101D300010BDC046EC000020E40C00201FB50B1EB7
:101D40000392042B06D103AA0092010000220B206B
:101D5000FFF734FE05B000BD37B51578012D07D863
:101D6000541C4B1E009401002A000C20FFF726FE95
:101D700037BD07B50B000092010000221520FFF7C8
:101D80001DFE07BD07B50B000092010000221E20BA
:101D9000FFF714FE07BD07B50B1E042B05D10092FB
:101DA000010000221F20FFF709FE07BD064B074A6E
:101DB0001B6812689B1ADB439B059B0D0122834223
:101DC00000DC0022100070476C070020780B002018
:101DD00010B5B2B002236A460400137001F0EAFFA6
:101DE000C72800DDC7200023834205DA6946013396
:101DF0005A1EA25CCA54F7E7421C6B46002114200D
:101E0000FFF7D6FE32B010BDF7B5204B06001B68B9
:101E10001F4900930023009A934209DA9A018A1815
:101E20005078B04202D11278002A2ED10133F2E765
:101E30000024A3010193164BA2019D182F78002FB7
:101E400006D00134102CF4D11248FFF7C1FF1CE07A
:101E500040223900280001F05EFE03230C4AA10154
:101E600053540D4BF200D3586E70AB600223EB60FD
:101E7000009BAE702F616F61A34202DC034B013403
:101E80001C6031001020FFF785FEF7BDEC0000203C
:101E9000E40C0020A7480000E410002070B5802565
:101EA000FFF732FF00246D00064BE200D3181B79C8
:101EB000043B012B02D8E0B2FFF7A6FF0134AC428D
:101EC000F2D170BDE410002010B50200C9B2142098
:101ED000FFF7A0FE10BD10B501001120FFF75AFE5C
:101EE00010BD07B56B46197069465A7013128B7096
:101EF0001314120ECB700A716B46010005221320D9
:101F0000FFF756FE07BD10B50A0001001220FFF7CB
:101F100081FE10BD10B5182806D8044B8200C1B24E
:101F2000D2581520FFF776FE10BDC046E4180020F9
:101F300010B59CB000F08CF903AC0090094A642104
:101F4000094B200001F0DAFE02232000237001F08B
:101F500031FF2300020000211620FFF729FE1CB0EC
:101F600010BDC046C1480000BC480000F7B5764B24
:101F7000764C1B6822689A420DD000F059F900286F
:101F800009D0734B2268985C00F080FC2368013311
:101F90009B059B0D236080276E4D6F4C2868FF00CA
:101FA000391A201800F05CFC2B680600C3182B605F
:101FB000002B00D1C7E0002E0DDD2868391A20184B
:101FC00000F04EFC2B6806001B182B6000F006F991
:101FD000624B1860EFE72378FA2B6CD12B68022B49
:101FE00006DCFFF7C3FD002800D1ACE00120A8E02B
:101FF0006078A57802380D285BD801F091FB0715B1
:10200000191D20265A5A2A383E5A41582800FFF7EF
:102010004BFE00225249EB005A50CB181A7129008E
:102020000092130013201FE02800FFF7EDFE40E0B0
:102030002800FFF739FE3CE0FFF730FF39E0FFF7FB
:1020400063FE4848FFF7C4FE33E02800FFF762FF55
:102050002FE0182D2DD80121434BAA00D15000228A
:10206000290013001D200092FFF7A8FC21E00022A8
:102070002900009213002720F6E7FFF759FF18E028
:102080008026FFF741FE00257600002429000094F9
:102090002300220013200135FFF790FCB542F4D154
:1020A0008022210012012E4801F035FD01E000F0F0
:1020B000C1F8032045E0FB2B98D12A68042A90DD63
:1020C0002679E07836020643331D9A4289DDE35CC7
:1020D000FE2B8BD16378A578711E1C2B22D008D8DB
:1020E000012B10D01B2B2BD1621D2800FFF726FEE1
:1020F00026E01E2B20D01AD31F2B21D1621D2800D1
:10210000FFF749FE1CE06779A21DB31E009229006B
:102110003A000A20FFF752FC114BED00E8505D1920
:102120002F710DE0621D2800FFF716FE08E0621D0A
:102130002800FFF71EFE03E0621D2800FFF722FEC5
:10214000701DFFF7EBFCF7BD6C070020780B00203B
:102150006C0300207007002078070020740700201F
:10216000E4100020C8480000E418002070B50524E1
:10217000012800D00634094D2B5D002B05D000212D
:10218000200000F0A9FF00232B55200000F0D8FF0D
:102190000823012800D0043B180070BD8C0B0020E0
:1021A00010B50124044001D0441002E00D20FFF7D7
:1021B0000BF9200010BD000001220020054B06494C
:1021C0001A61585003300431585080180831585063
:1021D0001A60704700800040040500000122034B94
:1021E0001A64A822D20098587047C0460080004068
:1021F00010B5FFF7F3FF800A10BD000010B5FFF720
:10220000DBFFFF22044B202C02DCE2540134FAE70E
:10221000024800F0DBFC10BD8C0B0020B40B00204A
:1022200010B50100014801F02FF810BD700C00201E
:1022300001207047BFF34F8F034A044BDA60BFF3AE
:102240004F8FC046FDE7C0460400FA0500ED00E0F0
:1022500000487047DA4800000D207047432070475F
:10226000036870B55B100120052B12D8094A9B004A
:102270009C58094D2B5D002B05D00021200000F05B
:102280002BFF00232B55200000F0D0FD0123400040
:10229000184370BDE44800008C0B0020036870B543
:1022A0005C10202C0ED8084E4568335D012B05D0FC
:1022B0000121200000F010FF012333556910200098
:1022C00000F042FE002070BD8C0B002070B5046849
:1022D00000236410202C10D8094D2B5D002B05D055
:1022E0000021200000F0F8FE00232B55200000F014
:1022F00027FF0423012800D0DB18180070BDC0465A
:102300008C0B002070B545680368043D5C106A4280
:102310006A41D5B2202C0DD8074E335D012B05D074
:102320000121200000F0D8FE0123335529002000B0
:1023300000F0F0FE002070BD8C0B002070B5134C37
:1023400005002379012B05D00121042000F0C4FEF3
:1023500001232371A37E012B05D001211A2000F057
:10236000BBFE0123A3762868042804D1002100F0D5
:10237000D1FE012104E00121042000F0CBFE002168
:102380001A2000F0C7FE002070BDC0468C0B002054
:10239000F8B5D44F3B68002B04D1D34A1268002A09
:1023A00000D100E2D14C2268002A00D0EAE0CE4DF4
:1023B0002A68002A72D1002B00D1E1E0CC4EB37E16
:1023C000012B05D001211A2000F086FE0123B376EF
:1023D000F37E012B05D001211B2000F07DFE01239F
:1023E000F376337F012B05D001211C2000F074FE11
:1023F00001233377F378012B05D00121032000F06E
:102400006BFE0123F3703379012B05D001210420E9
:1024100000F062FE01233371B379012B05D0012155
:10242000062000F059FE0123B371F379012B05D08A
:102430000121072000F050FE0123F371737A012B74
:1024400005D00121092000F047FE01237372B37A01
:10245000012B05D001210A2000F03EFE0123B372BA
:10246000F37D012B05D00121172000F035FE01235B
:10247000F375337E012B05D00121182000F02CFECE
:1024800001233376737E012B05D00121192000F042
:1024900023FE012373762B68002B71D03E68002E3B
:1024A0006ED1934C2E60A37E002B04D031001A20F5
:1024B00000F012FEA676E37E002B05D000211B2043
:1024C00000F00AFE0023E376237F002B05D00021D5
:1024D0001C2000F001FE00232377E378002B05D0B9
:1024E0000021032000F0F8FD0023E3702379002B86
:1024F00005D00021042000F0EFFD00232371A37913
:10250000002B05D00021062000F0E6FD0023A3717A
:10251000E379002B05D00021072000F0DDFD00232A
:10252000E371637A002B05D00021092000F0D4FD6F
:1025300000236372A37A002B05D000210A2000F04B
:10254000CBFD0023A372E37D002B05D000211720D3
:1025500000F0C2FD0023E375237E002B05D000218F
:10256000182000F0B9FD00232376637E002B00D1F4
:1025700019E10021192000F0AFFD0023637612E17C
:102580003B682B6000211A2000F0C4FD00211B20B5
:1025900000F0C0FD00211C2000F0BCFD2668012ECB
:1025A00056D0022E00D1A5E0002E00D0F5E0013675
:1025B00031004D4D03202B68994300F0ABFD042002
:1025C000296801400B005942594100F0A3FD8021C8
:1025D0002B6809010B4059425941062000F09AFD31
:1025E00080212B6809020B4059425941072000F015
:1025F00091FD80212B6849020B4059425941092025
:1026000000F088FD10212B680A200B4059425941E7
:1026100000F080FD80212B6809030B40594259418D
:10262000172000F077FD80212B68C9020B4059422A
:102630005941182000F06EFD802329689B020B4051
:1026400059425941192000F065FD31001A20A2E0DD
:102650008021254DC9012B6803200B405942594167
:1026600000F058FD80212B68C9000B4059425941A8
:10267000042000F04FFD3100062000F04BFD31003A
:10268000072000F047FD80212B6889030B40594249
:102690005941092000F03EFD80212B6849010B4083
:1026A000594259410A2000F035FD02212B681720BC
:1026B0000B405942594100F02DFD08212B6818208C
:1026C0000B405942594100F025FD802329681B0425
:1026D0000B4059425941192000F01CFD31001B20CC
:1026E00059E0C046880B0020840B0020B00B00206E
:1026F0008C0B002080212C4DC9032B6803200B403C
:102700005942594100F006FD80212B6849040B40D5
:1027100059425941042000F0FDFC80212B688901B9
:102720000B4059425941062000F0F4FC80212B68EF
:1027300089000B4059425941072000F0EBFC8021F1
:102740002B6849000B4059425941092000F0E2FC36
:1027500080212B6849030B40594259410A2000F05F
:10276000D9FC20212B6817200B405942594100F019
:10277000D1FC40212B6818200B405942594100F0F0
:10278000C9FC8023296819200B405942594100F0A7
:10279000C1FC01211C2000F0BDFC23680321581C52
:1027A00001F038F92160F8BD840B0020006810B5F5
:1027B000C30705D5FFF7F4FC024B1A6810431860F5
:1027C000002010BD880B00200020014B18607047CE
:1027D000880B002070B505000068FFF7E1FC0400DD
:1027E0006868FFF7DDFC631E042B0CD80138042851
:1027F00009D805225043043AC3189A4013000349EC
:102800000A6813430B60002070BDC046880B00208F
:1028100070B505000068FFF7C3FC04006868FFF7A7
:10282000BFFC631E042B0CD80138042809D80522EC
:102830005043043AC3189A40130003490A689A4364
:102840000A60002070BDC046880B002010B5012032
:10285000FFF78CFC10BD10B50220FFF787FC10BD00
:10286000F8B5094D0700280000F094FD3C00060073
:10287000E31B9E4205DD280000F096FD2070013428
:10288000F6E73000F8BDC046700C002010B501001E
:10289000014800F047FD10BD700C002001220368C4
:1028A00070B5134205D04568154202D084681442C1
:1028B00001D10D2004E05B106D10802B03D9152091
:1028C000FEF782FD17E01620FF2DF9D864101720BF
:1028D000FF2CF5D8084ED9B2300000F005FAE9B265
:1028E000300000F034F9E1B2300000F030F930008F
:1028F00000F064FA002070BDB40B0020F8B501248C
:102900000668264202D04768274201D10D2004E024
:1029100076107F10802E03D91520FEF755FD26E096
:102920001620FF2FF9D8124DF6B23100280000F022
:10293000DBF9F9B2280000F00AF90021280000F0C4
:10294000DFF9002803D04042400020430FE022007E
:102950003100280000F0C3F9280000F0EEF800284C
:10296000FAD0280000F0EEF8012340001843F8BD2B
:10297000B40B002070B51C4E050033681B4C002BB7
:1029800010D11D21200000F0AFF92A21200000F015
:10299000DEF80121200000F0DAF8200000F00EFA45
:1029A000012333601D21200000F09EF9E9B22000D0
:1029B00000F0CDF80021200000F0A2F90300002073
:1029C000834210D101221D21200000F088F920004F
:1029D00000F0B3F80028FAD0200000F0B3F87F2808
:1029E00001DD0138FF3870BD7C0B0020B40B0020E6
:1029F00010B50120FFF7BEFF01234000184310BDB2
:102A000010B50320FFF7B6FF01234000184310BDA7
:102A100010B50520FFF7AEFF0123404240001843E8
:102A200010BD000070B52B4D2B4C2B68002B10D126
:102A30000E21200000F058F91021200000F087F846
:102A40002921200000F083F8200000F0B7F90123CD
:102A50002B600E21200000F047F90121200000F03A
:102A600076F80021200000F04BF9002801D000206A
:102A70002CE001220E21200000F031F9200000F0AE
:102A80005CF80028FAD0200000F05CF80E2120004D
:102A900000F02AF90F21200000F059F80021200051
:102AA00000F02EF90028E2D101220E21200000F0D2
:102AB00016F9200000F041F80028FAD0200000F0BC
:102AC00041F87F2801DD0138FF380530012340003F
:102AD000184370BD800B0020B40B002010B5FEF72A
:102AE00079FC10BDE12110B54902084800F013FC43
:102AF000FFF784FBFA20C000FEF7DAFC0448FFF77A
:102B000067F9FEF7BDFFFFF7C9F910BD700C002093
:102B1000FC480000F8B505000E0017000024BC4278
:102B200008D02B68315D1B6828009847002801D029
:102B30000134F4E72000F8BD704710B51C3000F0F8
:102B4000CFFB10BD10B51C3000F0BCFB10BD70B544
:102B5000437E0D00002B05D06430040000F0CFFB55
:102B6000002801D0002004E02000290000F09BFB99
:102B7000012070BD10B51C3000F0B8FB10BD000086
:102B8000F7B50193FA23002504009B0083600D4BE9
:102B90004560083303601C300F00160000F078FB1E
:102BA0002000643000F074FB074AB600B358276178
:102BB0006375019B20009B009B586576A576A375E5
:102BC000FEBDC04614490000344900000123A02284
:102BD000C375837D0C49C133FF33D2059B009950E7
:102BE000437DC133FF339B009950CC210369074AD1
:102BF000490499500521243A9950817D0832995011
:102C0000417D034A995070470C06000024050000DE
:102C10000C050000F7B5050000200C00019382426E
:102C20005CD0161E402E00D940262F001C373800DD
:102C300000F044FBB1222B69D20080219C5001227C
:102C400089005A50A97E002901D11A621A60002415
:102C5000731E2A69A34206D1019B002B03D0802357
:102C600002219B00D150012313621300FC33D96869
:102C7000002902D1996A0029F9D0996A00290AD15C
:102C8000D960A323DB00D1583800C9B2013400F069
:102C90000AFBA642DCD8019A2B69002A04D11A004B
:102CA000FC32916A00290AD001210022AA765961DA
:102CB0001900FC3188680028FCD08A6007E00121F7
:102CC000A976D961D16C0029FCD00021D164FC33F4
:102CD0009A6A002A01D000229A62E0B2FEBD10B5C5
:102CE0000123FFF797FF10BD0300AC3310B50400BC
:102CF0001970643000F0E2FA0123637610BD000021
:102D0000F8B500220D0001004276AC3103690400E1
:102D10000878B121C9005850802189005A500132E9
:102D20001A629A6026006436300000F0D9FA002852
:102D30000ED03000276900F0C5FA1E4BF850236909
:102D4000FC331A6A002A0CD19A6A002AF9D008E0EA
:102D50002369002D0AD11A00FC32916A002905D19D
:102D60000EE09A6A002AF3D11A62DBE701225A6167
:102D70001A00FC3291680029FCD00021916006E025
:102D80000121D961D16C0029FCD00021D1641A0045
:102D90000020FC32916A81420BD0074990625A5858
:102DA00002305A50824204D0043A53425341023016
:102DB000C01AF8BD1C050000C404000010B50121B4
:102DC000FFF79EFF10BD000010B513231422024927
:102DD0000248FFF7D5FE10BD00400040B40B0020B4
:102DE00003210A4802680A430260094802680A434C
:102DF00002600849084A094B9B1A03DD043BC85886
:102E0000D050FBDC00F0AEF9FDF7B4F9240500402A
:102E100054050040304B000000000020CC00002092
:102E2000FEE7FEE7FEE7FEE7FEE7FEE7F7B5002375
:102E3000202877D83C4B8000C258042A14D006D8EA
:102E4000022A0DD00ED80423012A14D069E0062AE4
:102E50000ED00BD31A2A0DD002231B2A0BD060E010
:102E6000082308E0102306E0202304E0402302E0CA
:102E7000802300E001232D4A1268082A04D9092A78
:102E800005D00A21022404E00821002401E01100F9
:102E90000124A02501261C272548ED004651254D7B
:102EA000254E2D681B02AD003D400195234D2D6838
:102EB00000958559AC466746214D3D401D438551DF
:102EC0008359C0259C46009BAD021D40FF236746E9
:102ED0001B023B402B43019D1D43009B5F01602370
:102EE0001F402B003B431C4301238451154C0360BE
:102EF00063680F48002BFBD00024124B01255C6057
:102F0000A123DB00C3584560A025ED0044511BB24E
:102F1000914207D002D98A1AD34003E0521A934053
:102F200000E000231800FEBD34490000100000201E
:102F3000007000400800002004050000040000208C
:102F4000FF00FFFFFC700040F0B520286CD8374B25
:102F50008000C258364B1E68002E2ED1C224354840
:102F6000A4000759344B03253B40C0273F023B4395
:102F700003518023893C9B00FF3C03512F4F03608A
:102F80002F4B803CD859FF3CA043D8510437D85927
:102F9000A8432043D8510837D8590C35A843083DD9
:102FA0002843D851A820C0001E508026C120760298
:102FB00080001E501C601E4B1C60002314262148FC
:102FC00034005C43255804006F1C0FD11420584373
:102FD0002250A0200325C132FF329200C0051550B7
:102FE000194A08001268082A03D10BE0AA4218D136
:102FF000ECE7082A02D9083AD14002E00820821AF8
:103000009140080014225343E3189A680C49513246
:10301000FF32920058605050DA68C1239B00CA50BA
:1030200002E00133032BCBD1F0BDC0463449000090
:103030006C0C002000E100E0FF00FFFF0405000031
:1030400000900040140000200C0000201E4BF0B542
:10305000596C18001D4A002914D0A025A126002370
:103060000124ED05F600D1584F1C06D0D7187F6813
:10307000002F02D027008F40AF5114333C2BF2D1E8
:1030800000234364131DA0254032944600200124F0
:103090000F4EED05DA680F49920057180A49521889
:1030A000526C002A0CD01A1F1268511C05D01968E6
:1030B000FF2902D021009140A9513A00FC3250640E
:1030C00014339C45E6D1F0BDFC9000401400002074
:1030D0000C0500000090004000B5202816D80C4ACE
:1030E00083009B58032911D8A0220800C133FF3365
:1030F000D2059B0000F014FB02080406002104E046
:103100000C2102E0042100E00321D15000BDC046A3
:103110003449000020280DD8074B8000C058A02259
:103120000123D2058340002901D1044901E0A121F6
:10313000C90053507047C046344900000C050000D8
:1031400003000020202B0AD8A222A021D200C9050A
:103150008858034A9B009B58D84001231840704769
:10316000344900002D4B10B51A78012A19D12C4A88
:103170001268120715D12B4AE0241168F0220800CA
:10318000104021420BD128490968114209D1274931
:10319000274A11608021274A0902116001E0302886
:1031A000F1D01A78012A0DD11D490968090709D102
:1031B000F0201C4909680140402903D11A490968D7
:1031C000014223D01B68DBB2012B25D1144B1B68B5
:1031D0001B0721D1134B1A68F0231A40A02A04D1EF
:1031E000114A12681A4203D016E0D02A14D1F7E728
:1031F000114B1A68012A03D1C022104B1A600BE050
:103200000F4A1A601A68012AFCD1F5E7C121802013
:10321000C900C0054250D5E710BDC046E00F00F020
:10322000E40F00F0E80F00F0EC0F00F0DFFF07C044
:1032300004050040186C004000EC064014EC064009
:1032400075930000F7B506000D000C008B18019374
:10325000019B671B9C4207D0336821781B683000B4
:10326000984701340028F3D13800FEBD70B5050041
:103270000C00081E07D000F09DFD2B6802005B6863
:1032800021002800984770BD10B5FFF7EFFF10BD73
:1032900010B540220021040000F03DFC0023200076
:1032A0002364636410BD3F23026C10B5541C23409B
:1032B000446C9C4201D08154036410BD002303641C
:1032C00043647047436C026C934206D03F21C25C5A
:1032D00001330B404364100001E00120404270477D
:1032E000036C406C181A00D540307047436C026C78
:1032F000934201D0C05C01E0012040427047036C62
:10330000406C5A1C3F231340181A42424241D0B22B
:1033100070470120704710B503681322DB69984796
:1033200010BD70470369054A9950FC331A6A002A98
:10333000FCD0002201201A627047C0461C05000024
:10334000030010B55C331A781F23134001221100CB
:1033500099400D4B0424D967C221036989005C5050
:103360005A60DA60A0220021D20099500122074958
:1033700052425A50064914305A500C395A500831AA
:103380005A50FFF79BFF10BD04E100E00C05000060
:103390001405000010B51430FFF7A2FF10BD10B5E2
:1033A0001430FFF7A3FF10BD10B51430FFF78AFFEC
:1033B00010BD0000030070B55E331C780269604BDD
:1033C000D45003005D331C785E4BD450030061334E
:1033D0001C785D4B012C0CD105005F352E78A225A1
:1033E000ED005651050060352E78A125ED005651AF
:1033F00000E00024D4509623DB00994238D996236C
:103400001B01994237D996235B01994236D99623FD
:103410009B01994234D9E1239B01994232D99623E9
:10342000DB01994231D9E123DB0199422FD996235F
:103430001B0299422DD9E1231B0299422BD99623D5
:103440005B02994229D9E1235B02994227D9E12302
:103450009B02994225D93D4B994224D9E123DB02B5
:10346000994223D9E1231B03994221D8384B21E00B
:103470009E23DB021EE09D231B031BE0354B19E05E
:10348000354B17E0EC239B0314E0344B12E0344B34
:1034900010E0344B0EE0344B0CE0344B0AE0344B7C
:1034A00008E0344B06E08023DB0403E0324B01E00C
:1034B00080235B05314900245350042324395350A1
:1034C0001100FC31CC600C62C12101348900146010
:1034D0005C309460535003781F202200D9B208401A
:1034E000824080342648FF345BB20251002B13DA4D
:1034F0000F230B40083B234C9B089B001B19032404
:103500002140A140FC348C40DD69A543C0248C409F
:1035100021002943D96111E0194C9B089B001B191C
:1035200003242140A140C025FC348C40AD005E59ED
:10353000A643C0248C40210031435951026070BD24
:103540000C050000140500006C05000090D003007D
:1035500000D0BE0E00B013000050270000A04E00A7
:1035600000F0750000509D0000F0EB0000903A0163
:1035700000E0D70100B0AF0300705F072405000032
:1035800000E100E000ED00E0F7B5009308AB1B7828
:1035900000250193FA2304009B0083600E4B4560D5
:1035A0000833036014300F001600FFF771FE23008C
:1035B0005C3327611E70009B084A9B0099582300CA
:1035C0005D331970019B20009B009A5823005E33E5
:1035D000DD701A70FEBDC046B849000034490000D5
:1035E000036910B51A00FC32D2680400002A0AD020
:1035F000A322D20099581430C9B2FFF754FE00221A
:103600002369FC33DA6010BD10B50248FFF7E8FF0C
:1036100010BDC046700C0020162307B5022200938F
:103620000249013B0248FFF7AFFF07BD0020004001
:10363000700C00207047000010B500F047F8FFF74D
:10364000F9FF012000F024F8FFF74CFAFFF746FAE3
:10365000024B002BFAD000E000BFF7E700000000AB
:10366000084A0949094B10B51B688858FA22190AFB
:103670001B0618439200002300F0D2F94904C00B46
:10368000084310BD0405000000100140D40C0020C8
:1036900070B5041E09D0FFF7E3FF050000F014F831
:1036A000FFF7DEFF401B8442F8D870BD0022044BB8
:1036B0009A60044A13680133DBB213607047C04656
:1036C000FC100140D40C002070470000C421114AB6
:1036D00089005058104B0340C02000020343535050
:1036E000802391399B02FF39535013608023A3221A
:1036F0000021DB05D20099500122A1209A60074BDE
:10370000C0001950C12002318000195040301950BA
:103710001A60704700E100E0FF00FFFF0010014069
:1037200002B4714649084900095C49008E4402BC54
:103730007047C046002243088B4274D303098B4272
:103740005FD3030A8B4244D3030B8B4228D3030C71
:103750008B420DD3FF22090212BA030C8B4202D313
:103760001212090265D0030B8B4219D300E0090A3B
:10377000C30B8B4201D3CB03C01A5241830B8B4244
:1037800001D38B03C01A5241430B8B4201D34B032D
:10379000C01A5241030B8B4201D30B03C01A524192
:1037A000C30A8B4201D3CB02C01A5241830A8B4217
:1037B00001D38B02C01A5241430A8B4201D34B0200
:1037C000C01A5241030A8B4201D30B02C01A524164
:1037D000CDD2C3098B4201D3CB01C01A5241830918
:1037E0008B4201D38B01C01A524143098B4201D352
:1037F0004B01C01A524103098B4201D30B01C01A7D
:103800005241C3088B4201D3CB00C01A52418308F6
:103810008B4201D38B00C01A524143088B4201D323
:103820004B00C01A5241411A00D201465241104683
:103830007047FFE701B5002000F0F0F802BDC04678
:103840000029F7D076E7704703460B437FD4002268
:1038500043088B4274D303098B425FD3030A8B4224
:1038600044D3030B8B4228D3030C8B420DD3FF228E
:10387000090212BA030C8B4202D31212090265D05C
:10388000030B8B4219D300E0090AC30B8B4201D30F
:10389000CB03C01A5241830B8B4201D38B03C01A56
:1038A0005241430B8B4201D34B03C01A5241030BCD
:1038B0008B4201D30B03C01A5241C30A8B4201D37E
:1038C000CB02C01A5241830A8B4201D38B02C01A29
:1038D0005241430A8B4201D34B02C01A5241030AA0
:1038E0008B4201D30B02C01A5241CDD2C3098B4285
:1038F00001D3CB01C01A524183098B4201D38B0102
:10390000C01A524143098B4201D34B01C01A5241A4
:1039100003098B4201D30B01C01A5241C3088B42E9
:1039200001D3CB00C01A524183088B4201D38B00D4
:10393000C01A524143088B4201D34B00C01A524176
:10394000411A00D201465241104670475DE0CA0F4D
:1039500000D04942031000D34042534000229C460D
:1039600003098B422DD3030A8B4212D3FC22890117
:1039700012BA030A8B420CD3890192118B4208D3ED
:10398000890192118B4204D389013AD0921100E04F
:103990008909C3098B4201D3CB01C01A5241830963
:1039A0008B4201D38B01C01A524143098B4201D390
:1039B0004B01C01A524103098B4201D30B01C01ABB
:1039C0005241C3088B4201D3CB00C01A5241830835
:1039D0008B4201D38B00C01A5241D9D243088B428B
:1039E00001D34B00C01A5241411A00D2014663462E
:1039F00052415B10104601D34042002B00D5494292
:103A0000704763465B1000D3404201B5002000F0D0
:103A100005F802BD0029F8D016E770477047C04688
:103A2000F0B54F464646C0B41604360C99463300EE
:103A300005042C0C070C150C63437E436F43654350
:103A40001C0CAD1964199C46A64203D980235B0265
:103A5000984647446346250CEF191D044B464A43DC
:103A600043432D0C240464199918C91920000CBC77
:103A700090469946F0BDC046084B10B50400002B97
:103A800002D0002100E000BF054B1868836A002BBC
:103A900000D09847200000F083FDC04600000000E1
:103AA000EC4900000E4B70B500251E000D4CE41AC9
:103AB000A410A54204D0AB00F35898470135F8E7AD
:103AC00000F070FD084B00251E00084CE41AA410FD
:103AD000A54204D0AB00F35898470135F8E770BD14
:103AE000B8000020B8000020B8000020C40000206A
:103AF00010B5034B0100186800F05CF810BDC0461B
:103B0000B0000020002310B59A4203D0CC5CC4540E
:103B10000133F9E710BD03008218934202D01970F7
:103B20000133FAE77047000030B500293ED0043970
:103B30000B68002B00DAC9181D4A13681400002B0B
:103B400002D14B60116031E08B420DD90A688818B0
:103B5000834203D118685B6882180A604B60216059
:103B600024E08A4203D813005A68002AF9D11D685C
:103B70005C198C420BD10968691858181960824287
:103B800014D110685268411819605A600EE08C42D6
:103B900002D90C23036009E008680C18A24203D183
:103BA00014685268201808604A60596030BDC046E9
:103BB000DC0C0020032370B5CD1C9D4308350600A6
:103BC0000C2D01D20C2505E0002D03DA0C2300207A
:103BD000336040E0A942F9D81F4B1C681A0021004D
:103BE000002913D00B685B1B0DD40B2B02D90B6083
:103BF000CC181EE08C4202D1636813601AE04B6857
:103C000063600C0016E00C004968E9E7134C236878
:103C1000002B03D1300000F05FF820602900300055
:103C200000F05AF8431CD1D00323C41C9C43A0428B
:103C30000AD12560200007220B30231D9043C31AB0
:103C400009D05A42E25006E0211A300000F044F850
:103C5000431CEED1BAE770BDDC0C0020D80C00206C
:103C6000154B10B51C68A36B002B15D11820FFF75E
:103C70003FFF124BA0630380114B01224380114B85
:103C80008380114BC380114B03810523438106338D
:103C90008381002302614361A46B0D4A206961693D
:103CA0000C4BFFF7BDFE0122002380185941206113
:103CB00061614800400810BDB00000200E330000D4
:103CC000CDABFFFF341200006DE6FFFFECDEFFFF1F
:103CD0002D7F954C2DF45158002370B5064C0500EE
:103CE0000800236000F04EFC431C03D12368002B26
:103CF00000D02B6070BDC046C41900200CB430B594
:103D0000164B9DB00C1E1D6804DA8B2301202B601E
:103D100040421DE0822302A99B008B810023029078
:103D200008619C4200D0631E8B604B6101235B42A3
:103D3000CB81209A21AB2800019300F043F9431C6A
:103D400001DA8B232B60002C02D00023029A13701F
:103D50001DB030BC08BC02B01847C046B0000020FF
:103D60000EB410B59DB002A9029008610B488224E0
:103D700088604861012040421FABC881084804CBDD
:103D8000A400006801938C8100F01CF90023029AC2
:103D900013701DB010BC08BC03B01847FFFFFF7FB5
:103DA000B0000020031C0A7801311A700133002A88
:103DB000F9D170470023C25C0133002AFBD1581EA1
:103DC00070470000F0B51E00454B87B01B6801929C
:103DD000029308220B00059003911C7802995D1C48
:103DE00009194878104001D02B00F6E72D2C04D19A
:103DF0009D1C5C780123009304E000902B2C01D1E2
:103E00005C789D1C002E02D0102E0AD162E0302C6E
:103E10005ED120222B789343582B54D110266C78F6
:103E20000235009F31007B1E9F412E4BFF1838004A
:103E3000FFF706FD380004913100FFF77BFC0023FB
:103E40000322070094461800029A1219517804229E
:103E5000114201D0303C07E06246114017D03722B2
:103E6000012900D02032A41AA64210DD5A1C0BD022
:103E7000B84207D802D1049B9C4203DC7043012363
:103E8000201801E001235B422C780135DCE75A1C45
:103E90000BD10098059A431E9841124BC01822235B
:103EA0001360019B002B0AD117E0009A002A00D072
:103EB0004042019A002A10D0039A002B00D06A1EBB
:103EC000019B1A6009E03024002EAAD10826A8E739
:103ED0000A26A6E7302C9CD0A3E707B0F0BDC04669
:103EE000B4000020FFFFFF7F10B513000A0001009F
:103EF00002480068FFF766FF10BDC046B000002012
:103F0000F0B58E6885B007000C00039201939E42C5
:103F100043D890238A89DB001A423ED003250969E1
:103F2000236801985B1A029363695D43EB0F5D1987
:103F3000029B6D1001331B18AB4200D91D005305C5
:103F400010D529003800FFF735FE061E14D0029A5E
:103F50002169FFF7D7FDA289194B13408022134333
:103F6000A38112E02A00380000F0DAFA061E0CD114
:103F700021693800FFF7D8FD0C23402201203B6067
:103F8000A38940421343A38117E0029B2661F618E0
:103F900026606561019EED1AA560019BB34200D2C7
:103FA0001E0032000399206800F0A5FA0020A368E3
:103FB0009B1BA36023689E19266005B0F0BDC04618
:103FC0007FFBFFFFF0B59FB0029005938B890F0038
:103FD00016001B0610D50B69002B0DD14021FFF7F1
:103FE000E9FD38603861002804D10C23029A0138B9
:103FF0001360D8E040237B61002306AD6B61203362
:104000006B761033AB7634002378002B03D1A31BDF
:10401000049312D003E0252BF9D00134F4E7A31B5D
:10402000320039000298FFF76BFF431C00D1B4E067
:104030006A69049B944663446B612378002B00D12A
:10404000ABE00122002352426A6002A954325218A6
:1040500001342B60EB60AB601370AB65534E21787D
:104060000522300000F03CFA002807D00123801B15
:1040700083402A68013413432B60EFE72B68DA068C
:1040800004D55322202102A8121811701A0704D552
:1040900053222B2102A81218117022782A2A03D049
:1040A000099B00200A210EE0059A111D1268059156
:1040B000002A01DB099204E05242EA600222134323
:1040C0002B6001340BE02278303A092A04D84B43A4
:1040D00001349B180120F6E7002800D009932378CB
:1040E0002E2B1ED163782A2B0AD1059B02341A1D70
:1040F0001B680592002B01DA01235B42079310E055
:1041000000230A201A0001346B6021783039092914
:1041100004D84243013452180123F6E7002B00D0A3
:104120000792234E21780322300000F0D9F90028AD
:1041300006D04023801B83402A68013413432B6040
:10414000217806221B48661C297600F0C9F9002850
:1041500012D0194B002B06D10722059B073393433E
:104160000833059314E005AB00933A00134B290084
:10417000029800E000BF07E005AB00933A000F4B48
:104180002900029800F08AF80390039B013304D0C1
:104190006B69039A9B186B6135E7BB890B985B06CB
:1041A00001D5012040421FB0F0BDC046F14A0000D9
:1041B000F74A0000FB4A000000000000013F000039
:1041C000F7B5170001938A680B6900900C009342C1
:1041D00000DA130022003B6043321278002A01D03B
:1041E00001333B6023689B0602D53B6802333B608A
:1041F000062523681D401ED0230043331B785A1E1A
:104200009341226892061CD53020E1184331087092
:1042100021005A1C45310978A2184332023311702B
:104220000FE022000123193201990098089EB0473F
:10423000431C0ED00135E3683A689B1A9D42F0DBBF
:10424000DAE72200019943320098089DA847431CF1
:1042500002D10120404220E006232068E1683A684C
:1042600003400025042B03D18D1AEB43DB171D40BF
:10427000A3682269934201DD9B1AED180027BD4215
:104280000AD0220001231A3201990098089EB047F3
:10429000431CDED00137F2E70020FEBDF0B58BB045
:1042A00006920A0043320793059004920A7E0C009E
:1042B000109B6E2A00D1ABE011D8632A22D009D816
:1042C000002A00D1B5E0582A00D0C5E045310A7077
:1042D000814A4FE0642A1DD0692A1BD0BCE0732AB2
:1042E00000D1AAE009D86F2A29D0702A00D0B3E003
:1042F000202209680A43226037E0752A1FD0782AF5
:1043000033D0A9E00E001A684236111D19601368F7
:104310003370A4E021681A68080606D4490604D55B
:10432000111D19600023D55E02E0111D196015688A
:10433000002D3BDA2D23049A6D42137036E021687C
:104340001A68080606D4490604D51568111D1960B7
:10435000ADB202E0111D196015685F4B227E039318
:1043600008276F2A1DD00A271BE02200782145323A
:1043700011705A4A19680392081D226818600D6866
:10438000100602D4500600D5ADB2D30702D52023C3
:104390001A4322601027002D03D1202322689A435C
:1043A00022602300002243331A7002E00A274A4B9E
:1043B00003936368A360002B09DB04222168914307
:1043C0002160002D05D1049E002B11D07BE0002D33
:1043D00079D0049E28003900FFF732FA039B013E92
:1043E0005B5C280033703900FFF7A4F9051EF1D19A
:1043F000082F09D12368DB0706D563682269934239
:1044000002DC3023013E3370049B9B1B23612BE0B5
:1044100009681A68080607D4490605D5111D1960F0
:104420001368A28A1A8004E0111D1960136862697A
:104430001A600023049E236116E01A68111D19609A
:10444000166800216268300000F04AF8002801D0A8
:10445000801B6060636803E02600423632700123EF
:1044600023610023049A1370079B09AA009321007B
:10447000069B0598FFF7A4FE431C02D10120404291
:1044800027E02369320006990598079DA847431C39
:10449000F4D0236800259B070FD4099BE06898425D
:1044A00017DA180015E02200012319320699059841
:1044B000079EB047431CE1D00135E368099A9B1A77
:1044C0009D42F0DBE9E72600039B42361B78337000
:1044D0008EE70BB0F0BDC046024B0000134B00004E
:1044E000C9B28218904204D003788B4202D00130C6
:1044F000F8E70020704710B5884202D98B1898421F
:1045000001D3002305E09B1A013A08D3995C81543A
:10451000FAE7934203D0CC5CC4540133F9E710BDF1
:10452000F8B506000C001500002904D11100FFF7B2
:1045300041FB040018E0002A03D1FFF7F5FA2C0034
:1045400012E000F013F885420ED929003000FFF781
:1045500031FB071E07D021002A00FFF7D3FA210004
:104560003000FFF7E1FA3C002000F8BD0B1F1A688D
:10457000101F002A04DA891804390B68D01804388F
:1045800070470000044A1368002B03D0181810600D
:1045900018007047014BF9E7E00C0020C819002013
:1045A000FEE7C046F8B5C046F8BC08BC9E4670475A
:1045B000F8B5C046F8BC08BC9E467047120500001E
:1045C000F80400001C0500003C0500006405000024
:1045D00088050000AE050000D60500001A060000A0
:1045E000420600007806000094040000B4060000B3
:1045F000EC060000320700005807000086070000A4
:10460000B407000000080000900800001C0900002A
:10461000320900004E0900002A0A0000320A000098
:10462000780A0000BE0A0000040B00004C0B0000DA
:10463000900B0000BC0B0000140C0000400C0000AC
:104640006C0C0000980C0000C60C0000F40C00007C
:10465000240D0000540D0000840D0000B40D000076
:10466000E60D0000160E0000460E0000920E00003F
:10467000DA0E00003A0F0000820F0000D80F000091
:104680001C10000094100000C4100000F410000082
:10469000241100005411000084110000B411000026
:1046A000E411000014120000441200007412000013
:1046B000A4120000D4120000041300003413000000
:1046C0006C130000537461636B20756E64657266D1
:1046D0006C6F7700256420006E696C200074727521
:1046E00065200066616C73652000257320004F42D1
:1046F0004A28616464723A2025642C20636C6173DB
:10470000733A2025642920000D0A564D2050616E11
:1047100069633A2025730D0A00496E7375666669F0
:104720006369656E74206D656D6F727920746F209A
:104730007374617274204D6963726F426C6F636B46
:104740007300626164206F626A6563742061742023
:10475000256C640A0025783A20256420776F7264FE
:10476000732C20636C61737349442025640A0048EC
:1047700065616465723A2025780A000930782578E9
:104780002C0A0025642025642025642025640A0065
:10479000426164207265636F726420666F756E6437
:1047A00020647572696E6720696E697469616C69ED
:1047B0007A6174696F6E210A004E6F7420656E6FA6
:1047C00075676820726F6F6D206576656E20616613
:1047D00074657220636F6D70616374696F6E0A0037
:1047E000526573746F726564202564207363726907
:1047F000707473002D2D2D2D2D0A00506572736974
:104800007374656E74204D656D6F72792054657395
:10481000740A0A000A496E697469616C697A696E82
:1048200067204D656D6F72790A004D656D6F727905
:1048300020696E74697469616C697A65643B20777C
:10484000726974696E67207265636F7264732E2E6D
:104850002E0A005265636F7264206174206F666671
:104860007365742025643A2025642025642025641E
:104870002025642028256420776F726473290A003C
:1048800046696E616C3A2063757272656E7420259C
:1048900064207573656420256420633020256420BE
:1048A00063312025640A004E6F20667265652074AE
:1048B00061736B20656E7472696573007630303792
:1048C0000020257320257300416C6C207461736B8C
:1048D000732073746F70706564006D6963726F3AF2
:1048E0006269740000000000010000000200000086
:1048F00003000000040000000A00000057656C631C
:104900006F6D6520746F204D6963726F426C6F63C9
:104910006B73210000000000000000004F2B00001E
:10492000152B00003B2B0000452B0000752B0000D1
:10493000392B00000300000002000000010000000D
:104940000400000005000000110000000C00000041
:104950000B000000120000000A000000060000002A
:104960001A000000140000001700000016000000EC
:104970001500000010000000FFFFFFFFFFFFFFFF1A
:10498000000000001E0000001900000018000000D8
:104990000700000008000000090000000D000000F2
:1049A0000E0000000F0000001C0000001B000000B3
:1049B0001D000000130000000000000000000000C7
:1049C000253300004532000095330000A933000074
:1049D0009F3300002333000017330000B53300007D
:1049E000413300001333000043000000500000205A
:1049F00000202020202020202020282828282820AF
:104A000020202020202020202020202020202020A6
:104A1000208810101010101010101010101010100E
:104A200010040404040404040404041010101010FE
:104A300010104141414141410101010101010101C8
:104A4000010101010101010101010101101010101A
:104A5000101042424242424202020202020202029A
:104A600002020202020202020202020210101010EE
:104A70002000000000000000000000000000000016
:104A80000000000000000000000000000000000026
:104A90000000000000000000000000000000000016
:104AA0000000000000000000000000000000000006
:104AB00000000000000000000000000000000000F6
:104AC00000000000000000000000000000000000E6
:104AD00000000000000000000000000000000000D6
:104AE00000000000000000000000000000000000C6
:104AF00000232D302B2000686C4C0065666745460E
:104B00004700303132333435363738394142434447
:104B100045460030313233343536373839616263D7
:084B200064656600000000005E
:084B28004CB6FF7F0100000004
:104B3000FFFFFFFF0300000002000000080000006C
:104B40000A000000FFFFFFFF00000000010000005E
:104B50000000020001000000FFFFFFFF0000000056
:104B6000020000000000040002000000FFFFFFFF41
:104B70000000000003000000000008000300000027
:104B80000000000000000000000000000000000025
:104B90000000000000000000000000000000000015
:104BA000E8490000000000000000000000000000D4
:104BB00000000000000000000000000000000000F5
:104BC00000000000000000000000000000000000E5
:104BD00000000000000000000000000000000000D5
:104BE00050000020F049000039010000C92D0000EC
:0C4BF000193600000D010000000000005C
:0400000300002DE1EB
:00000001FF
