:10000000004000205D3800009D3800009F3800004F
:1000100000000000000000000000000000000000E0
:10002000000000000000000000000000A1380000F7
:100030000000000000000000A3380000A538000008
:10004000A7380000A738000091400000A738000042
:10005000A738000000000000A7380000A738000003
:10006000A7380000D53A0000A7380000A7380000E4
:10007000A7380000A7380000A7380000A738000004
:10008000A738000035410000A7380000A73800005D
:10009000A7380000A7380000A7380000A7380000E4
:1000A000A7380000A7380000000000000000000092
:1000B0000000000000000000000000000000000040
:1000C000054B0648033310B51B1A062B03D9044B06
:1000D000002B00D0984710BDDC000020DC00002081
:1000E000000000000648074910B5091A8910CB0F17
:1000F0005918491003D0044B002B00D0984710BD6D
:10010000DC000020DC0000200000000010B5074CDF
:100110002378002B09D1FFF7D3FF054B002B02D02A
:10012000044800E000BF0123237010BDDC00002064
:1001300000000000D4620000094B10B5002B03D072
:100140000849094800E000BF08480368002B02D1B5
:10015000FFF7C8FF10BD064B002BF9D09847F7E713
:1001600000000000E0000020D4620000D800002061
:1001700000000000164B002B00D1144B9D4640227E
:1001800092029A1A924600218B460F461348144A4F
:10019000121A04F034FA0F4B002B00D098470E4B84
:1001A000002B00D098470020002104000D000D48CE
:1001B000002802D00C4800E000BF04F0E7F920005E
:1001C000290003F07DFF04F0BBF9C04600000800E1
:1001D000004000200000000000000000DC000020C3
:1001E0002C1C002000000000000000000123034040
:1001F0000200181E04D1042A03D91068000900E087
:10020000002070470122016810B5114201D0002979
:1002100003DA102001F0E6FB03E04910062001F0AC
:100220008DFC10BD016810B5CB0701D5002903DA9C
:10023000102001F0D7FB06E049100331891000229D
:10024000052001F07BFC10BD70B50568AB0707D138
:10025000042D05D90F232A6813405A1F012A01D9FA
:100260000B2010E046680124062B09D12800FFF777
:10027000BDFF2300834218DC9A00AE500133F9E73A
:10028000264203D1132001F0ADFB0EE07610FF2EC5
:10029000F8D82800FFF7AAFF2C1D230080002018A3
:1002A000984202D91E700133FAE770BD70B501257E
:1002B00044682C4201D1112026E00668B30722D100
:1002C000042E20D90F23326864101340062B0BD163
:1002D000002C04DD3000FFF789FF844201DD12208D
:1002E00012E0A400A05911E0052B0CD1002CF6DD82
:1002F0003000FFF77BFF80008442F0DC3419E078A7
:100300004000284302E00B2001F06CFB70BDF8B503
:10031000012744683C4201D111202CE00568AB075D
:1003200028D1042D26D90F232A686410866813402B
:10033000062B0BD1002C04DD2800FFF757FF844269
:1003400001DD122017E0A400665116E0052B11D143
:10035000002CF6DD2800FFF749FF80008442F0DC26
:100360003E4201D1132006E07610FF2EFAD82C1958
:10037000E67002E00B2001F035FBF8BD006810B517
:10038000830712D1042810D90F2302681340062BCB
:1003900003D1FFF72BFF400004E0052B05D1FFF749
:1003A00025FFC0000123184302E00B2001F01AFBD7
:1003B00010BD000010B503240068044006D10428D5
:1003C00004D90F2302681340042B01D00E200CE047
:1003D00001F0F0FB1022210004F0CEFD80239B05EC
:1003E000C218054B9A4203D9142001F0FBFA02E02F
:1003F00001234000184310BDFFFFFF3F10B501244B
:100400000368234202D04268224203D10D2001F04A
:10041000E9FA08E004495B1052101B070A40134335
:1004200018684000204310BDFCFFFF0F0121036846
:1004300010B50B4205D042680A4202D080680842DB
:1004400003D10D2001F0CEFA07E004495B105210F1
:100450001B070A4013434010186010BDFCFFFF0F3C
:10046000012303400200181E01D0501002E00D22AB
:10047000014B1A707047C046F8000020012310B5E8
:10048000034013D182070CD104280AD90F22016836
:100490000A40042A05D101F08DFB04F0D3FC831D32
:1004A00007E0042804D0002803D101E00A2300E07B
:1004B0000723180010BD0000C368F0B59D008368D5
:1004C00089B05D19030018330593036904909F00F8
:1004D000059BDF1943699E000293059B9E19E34B20
:1004E0001B78002B1AD17F222B68E1491C12134084
:1004F0009B005B5802960435039245E0059B3A1D2C
:10050000D11ADA4B4F2900DD68E128681B78291DD4
:100510003860002B54D017000D00029E049BD34C72
:100520009B6821780293EA1A049B92109B7812022E
:100530001A43049B587802F088F80023049A237029
:1005400013700296049B059A9B68ED1A0393049B13
:10055000AD10DD60059BFF1A049BBF101F61029B5D
:100560009B1A049A9B10536101F036FABF4B1B781B
:10057000002B01D001F023FA2B68039A1C121340C0
:10058000BB4A9B009B5804359F46049B587802F059
:1005900054F84DE2059B3A1DD11AB44B4F2900DDAA
:1005A0001CE11B783C60002B00D020E12B680399F4
:1005B0001C120B40AE499B005B5817000435E3E763
:1005C0006B6803991C120B40A9499B005B581700EC
:1005D0000835D9E7059B3A1DD11AA44B4F2900DDF8
:1005E000FCE0A4001B782C193C60002B00D0FEE03E
:1005F0002B6803991C120B409D499B005B58170008
:100600000435C1E7059B3A1DD11A984B4F2900DDEF
:10061000E4E09849A40061581B783960002B00D0B1
:10062000E5E02B6803991C120B4091499B005B5835
:1006300017000435A8E7043F8E4B3A68A400E25047
:100640008A4B1B78002B01D001F0B9F92B68039A73
:100650001C121340864A9B009B58043594E7854B37
:10066000A600F058FFF7FCFE043F04003868FFF7CF
:10067000F7FE241801207F4B64000443F4507B4BA9
:100680001B78002B01D001F09AF92B68039A1C12F9
:100690001340774A9B009B58043575E7059B3A1D2C
:1006A000D11A724B4F2900DD98E00298059C012178
:1006B000A04202D901000C3909681B783960002B6F
:1006C00000D094E02B6803991C120B4068499B00F2
:1006D0005B581700043557E7059B3A1DD11A634B49
:1006E0004F297BDC0299059881420AD90B000C3B0B
:1006F0001B6861495B106418E41A029BA400E3586C
:1007000002E01821197000233B60584B1B78002B26
:100710006DD12B6803991C120B4055499B005B5807
:100720001700043530E7029B059A93420BD90C3B26
:100730001B68514A043FA2185B10D31A3968029A09
:100740009B00995002E01822484B1A70474B1B78C7
:10075000002B01D001F033F92B68039A1C121340CF
:10076000434A9B009B5804350EE7029B059A93422F
:100770001CD9029E404B0C3EE4183368029A5B1071
:10078000E31A9B009858FFF76BFE043F0690386809
:10079000FFF766FE3368069A5B10E31A012410180F
:1007A0004000029A9B002043985002E018222F4BF1
:1007B0001A702E4B1B78002B01D001F000F92B682A
:1007C000039A1C1213402A4A9B009B580435DBE60F
:1007D000059B3A1DD11A254B4F2901DD1A225AE2F9
:1007E0000299A40061581B783960002B02D0029E48
:1007F000170093E62B6803991C120B401C499B00C1
:100800005B5817000435BFE6043F029B3A68A4001A
:10081000E250164B1B78002B01D001F0D0F82B686A
:10082000039A1C121340124A9B009B580435ABE6F6
:10083000029BA4001C192368043F38685E10FFF770
:100840000FFE36180120094B76001B780643266000
:10085000002B01D001F0B3F82B68039A1C1213404F
:10086000034A9B009B5804358EE6C046F8000020E2
:10087000185B0000481B0020FDFFFF3F059BA40004
:100880003F1BD84CBB420DD82378002B01D001F080
:1008900096F82B68039A1C121340D34A9B009B586E
:1008A000043571E6D14801F007F92378002B01D017
:1008B00001F085F82B68039A1C121340CA4A9B006A
:1008C0009B58043560E6A300ED18002C00DA39E6E9
:1008D000C44B1B78002B01D001F071F82B68039AF0
:1008E0001C121340C04A9B009B5804354CE6043F41
:1008F0003B68042B04D1A300ED18002C00DA21E69C
:10090000B84B1B78002B01D001F059F82B68039AE3
:100910001C121340B44A9B009B58043534E6043F34
:100920003B68002B04D1A300ED18002C00DA09E687
:10093000AC4B1B78002B01D001F041F82B68039AD7
:100940001C121340A84A9B009B5804351CE63A1F12
:1009500013685B10013B002B06DD01215B00A40046
:100960000B432D191360EDE59E4B17001B78002BF0
:1009700001D001F024F82B68039A1C1213409A4A04
:100980009B009B580435FFE53A00059B0C32D31AB7
:100990004F2B00DD7DE1FF2361005B000B40012157
:1009A0000B433B60049B05989B6824120693ED1A49
:1009B000049BAD109B782D021D43029B8D401B1A9A
:1009C0009B108B400B43BB60049B0D437D609C7070
:1009D000E4B2874BE4000499E35816008B60814928
:1009E0000978002903D008331D00170096E51D0083
:1009F00003999B680C351C120B407B499B005B588C
:100A000002921700C0E53B1F1E68059A029B9342A5
:100A100012D13000FFF732FD643001F06FFC002886
:100A200001D100F061FD049B3100587801F01FFEF8
:100A30000023049A137085E5029B029A0C3B1B6805
:100A400004995B109B005B421F00D3180C3B1E6097
:100A50001300083B1B68083FD7195A108A70D2B29E
:100A60006349D2005B0055589B0A049A9B0095602D
:100A7000ED18029B043B1E68059B7610B6009E197C
:100A8000584B1B78002B00D048E52B68039A1C12AA
:100A90001340554A9B009B580296043574E53B1F52
:100AA0001868FFF7DDFCA40006003F1B1E2818DCB9
:100AB00002F056F8083E361802F052F84D4B801BF3
:100AC0009842F9D8474B1B78002B01D000F077FFF4
:100AD0002B68039A1C121340434A9B009B58043511
:100AE00052E50123049A137002F03AF8113812E02B
:100AF0003B1F1868FFF7B4FC3F4BA40006003F1BE8
:100B000098420CDC0123049A137002F029F8FA23AE
:100B10009B005E43113E049B36185E6012E5022383
:100B2000049A137002F026F8F5E7A4003F1B38681A
:100B3000830712D1042810D90F2302681340042B15
:100B40000BD101F037F8040004F07CF9010020001B
:100B500001F042FD200001F091FD224B1B78002B9B
:100B600001D000F02CFF2B68039A1C1213401E4A80
:100B70009B009B58043507E51A4BA4001B783F1BCC
:100B8000002B01D000F01BFF2B68039A1C121340AE
:100B9000154A9B009B580435F6E401F0F5FB00F084
:100BA0001BFF3B1F1B68002B28D13B000C3B1B6825
:100BB000DA0701D55B100EE09A0750D1042B4ED90D
:100BC0000F221B681A40062A01D11B0903E0052ADF
:100BD00045D11B099B00390001205A000839024306
:100BE0000A600DE0F8000020185B0000185D0000AE
:100BF000501300209F860100E70300005B10013BBB
:100C0000002B2EDD01215A000A43381F02603A00F2
:100C1000083A12680A41D31A3A000C3A12680A429A
:100C200004D05B188B40A4000B430CE0900716D156
:100C3000042A14D90F2016683040062806D1013343
:100C40009B009B58A400029AA3500BE0052806D1F4
:100C5000D3181A790B005200A4001343F3E71922AA
:100C600018E00435E74B1B78002B01D000F0A7FEFD
:100C70002B68039A1C121340E34A9B009B580435CF
:100C800082E4A300059AFB189B1A4F2B01DC00227B
:100C900004E01A22DB4B1A7000F091FE631E002C58
:100CA00003DD3A601C000437F8E7D64B1B78002BB5
:100CB00001D000F084FE2B68039A1C121340D24A24
:100CC0009B009B5804355FE43B00083B1868FFF726
:100CD000C7FB3B1F06901868FFF7C2FB069AA600E9
:100CE000BC1B0023824200DA04332360C54BBF1BC8
:100CF0001B780437002B01D000F061FE2B68039AAB
:100D00001C121340C04A9B009B5804353CE4A300CE
:100D1000FE1A06933B00083B1868FFF7A1FB3B1F38
:100D200004001868FFF79CFBE20FC317A042534171
:100D30009B003360069BFF1AB24B04371B78002BD5
:100D400001D000F03CFE2B68039A1C121340AE4AFF
:100D50009B009B58043517E43B003A1F083B106882
:100D60001B68A84AA400834202D13B1B042103E074
:100D7000042B03D800213B1B196006E001210B4224
:100D800001D00842F6D10F23137013783F1B0437AC
:100D9000002B01D000F013FE2B68039A1C121340A5
:100DA000994A9B009B580435FFF7EEFB3B003A1F26
:100DB000083B10681B68934AA400834202D13B1B86
:100DC000002103E0042B03D804213B1B196006E03B
:100DD00001210B4201D00842F6D10F231370137882
:100DE0003F1B0437002B01D000F0E9FD2B68039A6C
:100DF0001C121340844A9B009B580435FFF7C4FB28
:100E0000A300FE1A06933B00083B1868FFF728FB77
:100E10003B1F04001868FFF723FBE217C30F84424F
:100E200053419B003360069BFF1A764B04371B78B7
:100E3000002B01D000F0C3FD2B68039A1C12134055
:100E4000714A9B009B580435FFF79EFB3B00083B13
:100E50001868FFF705FB3B1F06901868FFF700FBBB
:100E6000069AA600BC1B0023824200DD04332360E7
:100E7000644BBF1B1B780437002B01D000F09FFD93
:100E80002B68039A1C1213405F4A9B009B58043541
:100E9000FFF77AFB3B1F1B685A4AA400042B02D1C0
:100EA0003B1B002103E0002B03D104213B1B1960F5
:100EB00001E00C23137013783F1B0437002B01D083
:100EC00000F07DFD2B68039A1C1213404E4A9B00D4
:100ED0009B580435FFF758FBA300FC1A06933B0010
:100EE000083B1868FFF7BCFA3B1F06001868FFF7BD
:100EF000B7FA36180120069B7600FF1A414B0643CD
:100F00001B7826600437002B01D000F058FD2B68B9
:100F1000039A1C1213403C4A9B009B580435FFF770
:100F200033FBA300FE1A06933B00083B1868FFF74B
:100F300097FA3B1F04001868FFF792FA241A012061
:100F4000069B6400FF1A2F4B04431B783460043760
:100F5000002B01D000F033FD2B68039A1C121340C4
:100F6000294A9B009B580435FFF70EFBA300FC1A8F
:100F700006933B00083B1868FFF772FA3B1F060018
:100F80001868FFF76DFA46430120069B7600FF1AAA
:100F90001C4B06431B7826600437002B01D000F061
:100FA0000EFD2B68039A1C121340174A9B009B5896
:100FB0000435FFF7E9FA3B00083B1868FFF750FAE1
:100FC0003B1F06901868FFF74BFA0100069803F0E4
:100FD0007FF90123A4003E1B370040001843094B52
:100FE00030601B780437002B01D000F0E8FC2B6840
:100FF000039A1C121340044A9B009B580435FFF7C8
:10100000C3FAC046F8000020185B00003B00083B14
:101010001868FFF725FA3B1F06901868FFF720FABB
:101020000100069803F03AFA0123A4003E1B3700A2
:1010300049001943F04B31601B780437002B01D075
:1010400000F0BDFC2B68039A1C121340EB4A9B0076
:101050009B580435FFF798FA3B1F1868FFF700FA12
:10106000C317C01858400123A4003E1B370040009E
:101070001843E14B30601B780437002B01D000F09F
:101080009EFC2B68039A1C121340DC4A9B009B5861
:101090000435FFF779FA3B1F1868FFF7E1F9061EE0
:1010A00000DC0126A300FC1A069303F021FE3100A8
:1010B00003F0F4F90123013149001943069B216033
:1010C000FF1ACD4B04371B78002B01D000F077FCC2
:1010D0002B68039A1C121340C84A9B009B58043586
:1010E000FFF752FAA4003E1B3000FFF763F9370008
:1010F000C14B30601B780437002B01D000F05FFC3F
:101100002B68039A1C121340BC4A9B009B58043561
:10111000FFF73AFAA300FE1A06933B00083B186853
:10112000FFF79EF93B1F04001868FFF799F9044088
:101130000120069B6400FF1AAF4B04431B78346008
:101140000437002B01D000F03AFC2B68039A1C12E4
:101150001340AA4A9B009B580435FFF715FAA300D9
:10116000FC1A06933B00083B1868FFF779F93B1F10
:1011700006001868FFF774F906430120069B760005
:10118000FF1A9D4B06431B7826600437002B01D0C5
:1011900000F015FC2B68039A1C121340974A9B0021
:1011A0009B580435FFF7F0F9A300FC1A06933B00A7
:1011B000083B1868FFF754F93B1F06001868FFF753
:1011C0004FF946400120069B7600FF1A8A4B0643E2
:1011D0001B7826600437002B00D0F0E32B68039ABD
:1011E0001C121340854A9B009B580435FFF7CCF92D
:1011F0003B1F1868FFF734F9C0430123A4003E1BCE
:101200003700400018437C4B30601B780437002BBC
:1012100000D0D4E32B68039A1C121340774A9B003A
:101220009B580435FFF7B0F9A300FE1A06933B0064
:10123000083B1868FFF714F93B1F04001868FFF714
:101240000FF98440012364001C43069B3460FF1A9D
:10125000694B04371B78002B00D0B0E32B68039A4E
:101260001C121340654A9B009B580435FFF78CF90C
:10127000A300FE1A06933B00083B1868FFF7F0F83E
:101280003B1F04001868FFF7EBF8044101236400DA
:101290001C43069B3460FF1A574B04371B78002B06
:1012A00000D08CE32B68039A1C121340534A9B0016
:1012B0009B580435FFF768F9A4003E1B3000FEF789
:1012C000A1FF37004C4B30601B780437002B00D057
:1012D00075E32B68039A1C121340484A9B009B58E5
:1012E0000435FFF751F9A4003E1B3000FEF79AFFCA
:1012F0003700414B30601B780437002B00D05EE391
:101300002B68039A1C1213403C4A9B009B580435DF
:10131000FFF73AF9A4003F1B3800FEF795FF364B64
:101320001B78002B00D04AE32B68039A1C12134051
:10133000324A9B009B580435FFF726F9A4003E1B58
:101340003000FEF7B3FF37002B4B30601B780437BB
:10135000002B00D033E32B68039A1C121340274A5A
:101360009B009B580435FFF70FF9A4003F1B380082
:10137000FEF7CDFF204B1B78002B00D01FE32B681E
:10138000039A1C1213401D4A9B009B580435FFF71B
:10139000FBF8A4003E1B3000FEF7F0FF3700164BB1
:1013A00030601B780437002B00D008E32B68039AC9
:1013B0001C121340114A9B009B580435FFF7E4F8B8
:1013C000059A3B1D06930C4C9B1A4F2B1FDC01F01A
:1013D000D1FB01234000184323783860002B6FD1E4
:1013E0002B68039A1C121340044A9B009B58069FCB
:1013F0000435FFF7C9F8C046F8000020185B00006C
:10140000059A3B1D0693E14C9B1A4F2B02DD1A23D4
:101410002370D4E201F0A4FBDD4B4000184001230F
:10142000184323783860002B4AD12B68039A1C128A
:101430001340D84A9B009B58069F0435FFF7A4F839
:10144000A4003E1B3000FEF7D9FF3700CF4B3060C1
:101450001B780437002B00D0B1E22B68039A1C12D2
:101460001340CC4A9B009B580435FFF78DF8A4002D
:101470003F1B3800FEF7DAFFC44B1B78002B00D06F
:101480009DE22B68039A1C121340C24A9B009B5892
:101490000435FFF779F8A4003B1B18680693FEF7A4
:1014A000EDFF643000F02AFF00281DD0049B59781E
:1014B000069B186801F0BAF8B44B1B78002B03D0D8
:1014C000029E069FFFF72AF82B68039A1C1213400E
:1014D000B04A9B009B58069F0435FFF755F8C8207B
:1014E00000F00CFF002802D1043DFFF72BF8A30009
:1014F000FF1A0023A84A1370A84A13600793079B9A
:10150000A64A9C4239DD64211268A34E079BB61897
:101510008A1A069201229B00FB58134202D0134103
:101520009F4A16E09F4A002B02D0042B05D19E4A09
:101530000699300003F02AFC17E0042B0ED90F2285
:1015400019680A40042A0AD1180000F033FB03008E
:10155000964A0699300003F019FC06E00122009239
:101560000699934A300003F011FC8B4803F06AFCA3
:101570008A4B1860079B0133C0E713688648002B2D
:1015800006D0013BC15C202902D100211360C15467
:1015900000F0A2FF7D4B1B78002B00D00FE22B68E0
:1015A000039A1C1213407B4A9B009B580435FEF79C
:1015B000EBFFA4003E1B300001F0FEFA3700734B36
:1015C00030601B780437002B00D0F8E12B68039AB9
:1015D0001C1213406F4A9B009B580435FEF7D4FF42
:1015E000A4003E1B300001F0E9FA3700674B306081
:1015F0001B780437002B00D0E1E12B68039A1C1202
:101600001340644A9B009B580435FEF7BDFFA400BD
:101610003E1B300001F0D4FA37005C4B30601B7881
:101620000437002B00D0CAE12B68039A1C12134028
:10163000584A9B009B580435FEF7A6FFA4003F1BA9
:10164000380001F0DBFA514B1B78002B00D0B6E1DB
:101650002B68039A1C1213404E4A9B009B5804357A
:10166000FEF792FFA4003E1B300001F0E9FA3700BC
:10167000464B30601B780437002B00D09FE12B686D
:10168000039A1C121340434A9B009B580435FEF7F3
:101690007BFFA4003F1B380001F004FB3B4B1B7891
:1016A000002B00D08BE12B68039A1C121340394A9F
:1016B0009B009B580435FEF767FF0121200001F0D5
:1016C000D9FA324B1B78002B00D078E12B68039AB3
:1016D0001C1213402F4A9B009B580435FEF754FF01
:1016E0000021200001F0C6FA284B1B78002B00D007
:1016F00065E12B68039A1C121340264A9B009B58F5
:101700000435FEF741FFA4003E1B300001F0FCFC55
:1017100037001E4B30601B780437002B00D04EE1A1
:101720002B68039A1C1213401A4A9B009B580435DD
:10173000FEF72AFFA4003E1B300001F0EAFC370050
:10174000124B30601B780437002B00D037E12B6838
:10175000039A1C1213400F4A9B009B580435FEF756
:1017600013FFA4003F1B380001F0A8FA074B1B78B9
:10177000002B00D023E12B68039A1C121340054A6A
:101780009B009B580435FEF7FFFEC046F800002082
:10179000FEFFFF7F185B0000040100200001002015
:1017A000285D00002C5D0000335D0000395D000005
:1017B0003D5D0000A4003F1B380001F0DBFC874BBF
:1017C0001B78002B00D0FAE02B68039A1C12134000
:1017D000834A9B009B580435FEF7D6FEA4003E1BAF
:1017E000300001F0FFFC37007C4B30601B78043781
:1017F000002B00D0E3E02B68039A1C121340784AB8
:101800009B009B580435FEF7BFFEA4003F1B380029
:1018100001F07EFA714B1B78002B00D0CFE02B68D3
:10182000039A1C1213406E4A9B009B580435FEF726
:10183000ABFEA4003E1B300001F080FA3700674B7E
:1018400030601B780437002B00D0B8E02B68039A77
:101850001C121340624A9B009B580435FEF794FE0D
:10186000A4003F1B380001F005FC5C4B1B78002BEB
:1018700000D0A4E02B68039A1C121340584A9B0026
:101880009B580435FEF780FEA4003F1B380001F092
:10189000FDFB524B1B78002B00D090E02B68039A85
:1018A0001C1213404E4A9B009B580435FEF76CFEF9
:1018B000A4003F1B380001F0EFFB484B1B78002BC6
:1018C0007DD12B68039A1C121340454A9B009B58FC
:1018D0000435FEF759FEA4003F1B380001F0F8FB69
:1018E0003E4B1B78002B6AD12B68039A1C121340C5
:1018F0003B4A9B009B580435FEF746FEA4003E1B66
:10190000300001F0F9FC3700344B30601B780437AD
:10191000002B54D12B68039A1C121340304A9B00B1
:101920009B580435FEF730FEA4003E1B300001F04A
:10193000EBFC3700294B30601B780437002B3ED17D
:101940002B68039A1C121340254A9B009B580435B0
:10195000FEF71AFEA4003E1B300001F0DDFC37004C
:101960001E4B30601B780437002B28D12B68039A5C
:101970001C1213401A4A9B009B580435FEF704FEC4
:10198000A4003E1B300001F0D1FC3700134B306047
:101990001B780437002B12D12B68039A1C121340BA
:1019A0000F4A9B009B580435FEF7EEFDA4003F1B39
:1019B000380001F031FB094B1B78002B02D0029E4E
:1019C000FEF7ACFD2B68039A1C121340044A9B00DF
:1019D0009B580435FEF7D8FD09B0F0BDF800002093
:1019E000185B0000014B187000207047F8000020C1
:1019F000F0B50023642787B05A1E0492002B05DC43
:101A000001F0AAF900F04CFE64230493002503952D
:101A10000295254B19688D4201DB049BECE7234BB3
:101A20001A680132914200DC00221A601B68204EC5
:101A300001937B439A199B5D05923400032B01D1DE
:101A400010002CE0002B2DD0012B0CD1029B002B81
:101A500002D101F085F80290019A02997A43A41804
:101A60006368CB1A0FE0022B12D1039B002B02D12B
:101A700001F080F80390019A03997A43A4186368EF
:101A8000CB1A9B029B0A0B498B4201D80323B35408
:101A9000019B074A7B439B5C032B03D10598FEF710
:101AA0000BFDBAE70135B4E7FC0000200000002080
:101AB000100D00209F86010000B59BB00200054973
:101AC00001A803F095F901A800F006FD00F0E8FD7B
:101AD000FCE7C046575D000013B58400200002F00B
:101AE0007BFD104B1860002802D10F48FFF7E4FF80
:101AF0000E4A01196A4401928A42F6D3082802D894
:101B00000C3018600C3C1868094B04191860094B1C
:101B100001211C600023084AD1500433642BFBD1FF
:101B200013BDC04670010020685D0000ACFDFFFFE2
:101B3000680100206C010020481B002070B50D4D8D
:101B40000D4E2B684C1CA40036681C19B44203D3FC
:101B50000A20FFF747FF0BE02C601D00AC4201D9C3
:101B600004C5FBE70F220901104008431860180064
:101B700070BDC046680100206C0100200322CB1C10
:101B800070B50C00D9171140C91805008910002242
:101B90000420FFF7D3FF0023A34204DAE95CC21854
:101BA00011710133F8E7E1430023C91721404118BF
:101BB0000B7170BD10B5830706D1042804D90F231B
:101BC00004C81340042B03D00E20FFF70BFF01487D
:101BD00010BDC0466E5E000030B502248025094B62
:101BE000094AED009C505C59002CFCD0A124E40073
:101BF000884204D28025ED0018514019F8E70021F1
:101C0000995030BD00E001400405000010B50028E7
:101C100004D1902092210002890203E092208021C9
:101C20008002C902FFF7D8FF10BD002802D092231E
:101C30009B0201E090231B021B6800201A0E532A0E
:101C400001D11B02180A704730B501248025064ACD
:101C5000064BED00D4505459002CFCD001600021FB
:101C6000014AD15030BDC04600E0014004050000EB
:101C700010B5002802D09220800201E090200002DE
:101C8000A6230902DB05090A1943FFF7DDFF10BD92
:101C9000F0B50124802503000F4F08000F49ED0027
:101CA0007C507C59002CFCD09C46002810DD5478D8
:101CB00016789378240234431B0423431C00D37802
:101CC00001381B062343644608C40432A446ECE7EB
:101CD00000237B50F0BDC04600E001400405000039
:101CE00070B505004B680A009C1C2100FFF7D0FF6F
:101CF000A000281870BD0000154B1B68002B04D0F5
:101D000080219223C9029B0203E092219023890241
:101D10001B02002807D1191D5B6802001B0E522B05
:101D200014D10A0012E0002281420FD903681B0E71
:101D3000522B0BD1436802339B00C318994205D93B
:101D40001A68110E0022522900D11A0010007047A3
:101D5000740300208022F0B5520085B00021604855
:101D600002F04DFC8022002152005E4802F047FC48
:101D70005D4B1B681A00029353425A4110000392B4
:101D8000FFF744FF029B002B01D1584C00E0584C58
:101D90000020FFF7B1FF051E00D192E0FF212B6864
:101DA0001A121140FF221B1413401A000A3A019123
:101DB000092A45D84A4B595C002900D07FE01022FF
:101DC0004C4802F01CFC2E00FF2133681A120A4016
:101DD0000199914219D1FF211A140A400B2A06D009
:101DE000132A0DD00A2A10D1424B1E600DE0FF22AB
:101DF0001340022B09DC3F4A9B00D3185E6004E0CD
:101E0000102200213B4802F0FAFB3000FFF774FF7C
:101E1000061ED9D1374B196800290FD02000FFF7D3
:101E20005FFF0400344E354F3168002903D0200095
:101E3000FFF756FF04000436B742F5D1284B3BE0CC
:101E4000143B092B3BD8274B019A995C002936D1CA
:101E50002B4F0822380002F0D2FB2E00FF213368FE
:101E60001A120A400199914213D1FF221B14134008
:101E7000152B06D01D2B07D0142B0AD1204B1E602A
:101E800007E01F4B5E6004E0082200211C4802F0BE
:101E9000B6FB3000FFF730FF061EDFD1396800299E
:101EA00009D02000FFF71CFF79680400002902D048
:101EB000FFF716FF04000B4B0121019A99542800EB
:101EC00067E70298FFF7B1FE411C0398FFF7D0FEC9
:101ED000054B039A1A600B4B1C6005B0F0BDC04661
:101EE00074020020740100207403002004480200E2
:101EF00004900000AC1B0020B01B0020BC1B002085
:101F0000BC1B00207803002070B50020FFF78DFE79
:101F100004000120FFF789FE844200DA04000A4B26
:101F20001E687542754128001D60FFF76FFE002E88
:101F300001D0064B00E0064B064A2800611C1360E6
:101F4000FFF796FE70BDC0467403002004900000A9
:101F50000448020078030020F8B50020FFF765FE72
:101F600007000120FFF761FE3E00224D0643224C90
:101F70000CD180219020C9020002FFF72DFE012123
:101F80003000FFF775FE2E601C4B2FE0874208DD06
:101F9000002392212B60194B8902236023680020C3
:101FA00011E0012380212B60154BC9022360F5E766
:101FB0001A68551C18D0120E522A07D101205A68EF
:101FC000023292009B188B42F2D311E0002800D01D
:101FD00023600C4C0C49200002F02CFF200000F084
:101FE000CFFDFFF791FF04E0002802D0236000E05E
:101FF0002160F8BD740300207803002004900000E5
:1020000004480200C41B0020DF5D0000F0B585B06D
:10201000039203220333DC171440294EE3189C106B
:10202000336801900291002B02D08022D20201E09D
:1020300092229202234FA51C3B68AD005B199A4285
:1020400017D2FFF787FE3368002B02D08022D2021E
:1020500001E0922292023B685B199A4209D21A4C23
:102060001A49200002F0E6FE200000F089FD002061
:1020700023E0029B3E681B06190C6B461A7BA423C7
:10208000DB051343019A0B431104FF221204114094
:1020900019433000FFF7D8FD3300301D083321000D
:1020A0000193FFF7D1FD01980A9A2100FFF7F0FD97
:1020B0003000019B083D5D193D6005B0F0BDC04694
:1020C0007403002078030020C41B0020085E000079
:1020D00070B59AB0FFF740FFFF22254CD2000021D7
:1020E000200002F08CFA0020FFF706FEFF250026F4
:1020F00000281AD003681A142A400A2A08D11A1292
:102100002A40FF2A0ED0D200A1180B71A05009E07E
:10211000132A07D11B122B40FF2B03D0DB00E21840
:102120001671E650FFF7E8FDE2E7FF210200C90063
:10213000235808305D1EAB41D2188842F8D10D49B2
:1021400001A802F055FE01A800F0C6F900F012FD4A
:10215000040000F00FFD084B001B984202D800F06D
:102160009FFAF6E7054800F0B7F91AB070BDC0460F
:10217000501300202F5E0000CF070000475E0000D4
:10218000044A05491368C85401339B059B0D13602D
:102190007047C0467C0700207C030020114A70B5C0
:1021A0001368114C984211DA015D451CFA39012976
:1021B00006D8AB4206DD2118497801391F2901D91B
:1021C0002800EFE70100251A461C02D10023136006
:1021D00006E0665C6E5401318B42FADC181A10601E
:1021E00070BDC046800700208807002010B500F0B1
:1021F000B7FC064B1A68904201D200221A601B6895
:10220000C01A034B83428041404210BD8407002026
:10221000204E000010B5094A094C12682368934209
:102220000AD0084AD05C00F09DFF012804D1236841
:1022300001339B059B0D236010BDC0467C07002029
:10224000880B00207C03002010B50400064B074AD1
:102250001B6812689B1ADB439B059B0DA34202DAA5
:10226000FFF7D8FFF2E710BD7C070020880B0020A5
:10227000F7B506000191151E2FD05768B800441C11
:102280000630FFF7E1FFFB20FFF77AFF1C20FFF786
:1022900077FFF0B2FFF774FFE0B22412FFF770FF90
:1022A000E0B2FFF76DFF6B461879FFF769FF002674
:1022B000BE4212DAB300EB189C680136E0B2FFF7B9
:1022C0005FFF2012C0B2FFF75BFF2014C0B2FFF720
:1022D00057FF200EFFF754FFEAE7F7BDC82210B5FD
:1022E000D2000021034802F08AF90022024B1A6052
:1022F00010BDC046100D0020FC000020064B074A10
:102300001B6812689B1ADB439B059B0D01228342CD
:1023100000DC0022100070477C070020880B0020A2
:10232000F8B505000C0016001F1E0ED10320FFF7A4
:10233000E5FF002827D0FA20FFF722FFE8B2FFF7D9
:102340001FFFE0B2FFF71CFF1DE0501DFFF7D6FF97
:10235000002818D0FB20FFF713FFE8B2FFF710FFAB
:10236000E0B2FFF70DFFF0B2FFF70AFF3012C0B284
:10237000FFF706FF3C00E31B9E4204DD2078FFF7D9
:10238000FFFE0134F7E7F8BD70B5002464250B4B60
:102390001B689C420EDA2A006243094BD3181A7854
:1023A000002A05D05978002311201A00FFF7B8FF42
:1023B0000134ECE7FFF792FF70BDC046FC0000203F
:1023C000100D0020F0B5040010000122FFB00D0038
:1023D00010420BD001AB41101A7059704212090E15
:1023E00040149A70D870197105224AE00323034003
:1023F0001ED104281CD90F2201680A40042A17D1D3
:10240000023301AE3370FFF7D5FB070002F01AFD6F
:10241000F423FF33984200DD18000023834204DADE
:1024200001335A1EBA5CF254F8E7421C330028E02C
:10243000042801D0002808D1032201AB04381A7007
:10244000424242415A7002221BE0002B1DD1042857
:102450001BD902680F331340052B16D1042101ABA1
:102460001970F4211209FF3192008A4200DD0A003E
:102470000021914204DA01314618F6785E54F8E7FB
:10248000013229002000FFF74BFF7FB0F0BD0000B4
:1024900070B56423050000240D4A180060438018BD
:1024A0004178A94203D00134102CF6D10FE0642208
:1024B000002102F0A4F8074A1368013BA34200D1AF
:1024C0001460002329001A001120FFF729FF70BDB6
:1024D000100D0020FC00002010B5B2B002236A46A7
:1024E0000400137002F0AEFCC72800DDC7200023F3
:1024F000834205DA694601335A1EA25CCA54F7E7E3
:10250000421C6B46FF211420FFF70AFF32B010BDBA
:10251000F7B5234B06001B68642000930023214974
:10252000009A93420ADA02005A438A185478B44255
:1025300002D11278002A32D10133F1E7002464235A
:102540001A00624301920199164A55182F78002FFC
:1025500006D00134102CF3D11348FFF7BDFF1EE065
:1025600064223900280002F04AF803230D4A019939
:102570006E7053540D4BF200D358AE70AB60022313
:10258000EB60009B2F616F61A34202DC044B0134BE
:102590001C60002331001A001020FFF7C1FEF7BDB8
:1025A000FC000020100D0020025F000050130020EE
:1025B00010B5FFF7E9FE0024064BE200D3181B79A3
:1025C000043B012B02D8E0B2FFF7A2FF0134FF2C3D
:1025D000F2D110BD50130020F8B505000E00002404
:1025E0007F27114BE200D3181A79062A18D11868F0
:1025F000C3681A003A40042A12D11B0A01339B0017
:102600000C30C018FFF7D6FA00239E4205DDC15CEE
:10261000EA5C914204D10133F7E7E0B2FFF778FFBB
:102620000134FF2CDDD1F8BD5013002010B502009D
:10263000C9B21420FFF7C6FE10BD002310B501007B
:102640001A001120FFF76CFE10BD07B56B4619701C
:1026500069465A7013128B701314120ECB700A71E4
:102660006B46010005221320FFF75AFE07BD10B587
:102670000A0001001220FFF7A5FE10BD70B505008D
:1026800002F0E0FB04003230FFF738FE002805D0EE
:102690002B00220000211B20FFF742FE70BD00002E
:1026A000F0B580279DB0FFF7B5FDB84DB84C286850
:1026B000FF00391A201800F03FFD2B680600C318F0
:1026C0002B60002B00D190E1002E0DDD2868391A17
:1026D000201800F031FD2B6806001B182B6000F05D
:1026E0003FFAAC4B1860EFE72378FA2B00D0E5E017
:1026F0002B68022B06DCFFF779FD002800D174E17E
:1027000001206DE16078A5780238182800D9D3E05F
:1027100001F04AFD0D1E2226292FD2D23A494F63DD
:10272000B4C9D2D2D2D2D2D2D2D2D2D2CC00FF2D00
:1027300000D1C1E02800FFF7ABFE00229649EB0074
:102740005A50CB181A71290000921300132027E069
:102750002800FFF7DDFEAFE02800FFF799FEABE0B1
:10276000FFF726FFA8E0FFF70FFE8C48FFF7B4FE47
:10277000A2E0182D00D99FE0894BAA00D258290069
:102780001520FFF71FFE97E0182D00D994E00121D6
:10279000834BAA00D1500022290013001D20009273
:1027A000FFF734FC88E00022290000921300272064
:1027B000F6E700F0FDF903AC7A4A642100907A4B09
:1027C000200002F0E3FA02232000237002F03AFB1B
:1027D00023000200002116206CE000246E4AE30072
:1027E000D558002D46D06B689E00701DFFF72CFD5C
:1027F0002B0000253200083321000120FFF790FD57
:102800000020FFF779FA2E002F0000281DD0FF21AD
:1028100003681A120A40A24214D11A140A400B2A61
:1028200007D10B400DD0012B09D0022B00D1DAE0EB
:1028300008E0132A06D100252E002F0002E0060032
:1028400000E00700FFF758FADFE7002E04D032005F
:1028500001212000FFF70CFD002D04D02A000221E9
:102860002000FFF705FD002F04D03A0000212000D2
:10287000FFF7FEFC0134FF2CB0D11DE0FFF784FD13
:102880000025002429000094230022001320013594
:10289000FFF7BCFBFF2DF4D1FF222100D2003E4800
:1028A00001F0ADFE08E000F073F905E000231A2006
:1028B0001A001900FFF734FD032091E0FB2B00D034
:1028C0001EE72A68042A00DC15E72679E07836023C
:1028D0000643331D9A4200DC0DE7E35CFE2B00D07B
:1028E0000EE76078A578731E1C285FD006D80828EC
:1028F0001BD01B2844D0012871D105E01E2868D0C8
:102900005FD31F2863D06AE0FF2D68D06779063453
:10291000B31E290000943A000A20FFF777FB1E4BF4
:10292000ED00E8505D192F7159E0182D57D86079E6
:10293000022813D003281BD0012850D1A71D7A7874
:10294000A479BB78120222431B0413431A00FB78BC
:10295000AD001B0613435B0003430EE0002B3EDD7E
:10296000B11EA01DFFF70AF90D4BAD00E85036E08F
:10297000A379AD005A1E93419B00094AAB502EE04B
:10298000601D1900FFF728FE29E0C04680070020DF
:10299000880700208407002050130020175F0000E4
:1029A000481B00202E5F0000295F0000FF2D16D07D
:1029B0006279022A13D80634B31E009429000B2032
:1029C0000BE00534009400222900152005E0042BBB
:1029D00005D10022290005340094FFF717FB701D74
:1029E000FFF7DCFB01E005002CE71DB0F0BDC046A1
:1029F0008021154BF0B51A68144B8C4613600126E4
:102A00000822134C134D614608420CD021680B601C
:102A1000C046C046C046C046C046C046C046C04686
:102A200029680B600AE0EFF3108186F310882768AD
:102A300031403B602F683B6081F31088013A4000D1
:102A4000002AE0D1F0BDC0460400002004000400CC
:102A5000080000200C00002010B50A2000F024FF20
:102A6000FF22074B192C02DCE2540134FAE71E2442
:102A70000020013CFFF7BCFF002CF9D110BDC0467F
:102A8000940B002070B51424012800D00234094DA5
:102A90002B5D002B05D00021200001F061F8002300
:102AA0002B55200001F090F80138431E984180001A
:102AB00070BDC046940B002010B50124044001D025
:102AC000441002E00D20FEF78DFF200010BD000035
:102AD00010B5034800F0B8FD0122024B1A6010BD8A
:102AE000E00B0020BC0B002010B5124C637B012BC7
:102AF00005D001210D2001F033F801236373A37B7E
:102B0000012B05D001210E2001F02AF80123A37327
:102B1000E37B002B05D000210F2001F021F80023DA
:102B2000E373054C200000F0CBFC1021200000F0E6
:102B3000E3FC10BD940B0020CC0B002001220020F0
:102B4000054B06491A61585003300431585080181B
:102B5000083158501A60704700800040040500009A
:102B60000122034B1A64A822D20098587047C0462D
:102B70000080004010B5FFF7F3FF800A10BD000091
:102B800010B50100014801F0C3F810BD9C0C0020F5
:102B900010B5FFF761FFBFF34F8F034A034BDA60B5
:102BA000BFF34F8FC046FDE70400FA0500ED00E0DB
:102BB00000487047415F00000D2070473520704786
:102BC000036870B55B100120052B12D8094A9B00E1
:102BD0009C58094D2B5D002B05D00021200000F0F2
:102BE000BFFF00232B55200000F064FE01234000AE
:102BF000184370BD4C5F0000940B002070B5036853
:102C000045685C106D1004D40B4B9D4202DD1D0025
:102C100000E00025192C0DD8084E335D012B05D09E
:102C20000121200000F09CFF0123335529002000E2
:102C300000F0CEFE70BDC046FF030000940B0020E4
:102C400070B504686410192C0FD8094D2B5D002B4A
:102C500005D00021200000F083FF00232B55200029
:102C600000F0B2FF0423012800D00023180070BD3B
:102C7000940B002070B504000D0019280ED8084EE2
:102C8000335C012B04D0012100F06AFF012333558E
:102C9000290020004D1EA94100F080FF70BDC046F4
:102CA000940B0020436810B5191F4A424A4100683E
:102CB00011004010FFF7DEFF10BD000070B5134C8F
:102CC00005006379012B05D00121052000F048FFA4
:102CD00001236371637B012B05D001210D2000F0DE
:102CE0003FFF012363732B68042B05D100210520CE
:102CF00000F054FF012104E00121052000F04EFF07
:102D000000210D2000F04AFF70BDC046940B00204A
:102D100010B504680D20E30703D56410FF2C03D918
:102D20001720FEF75FFE06E0FFF7DEFEE1B2024885
:102D300000F004FC002010BDCC0B002010B5FFF704
:102D4000D3FE0021034800F0F9FB012340001843A3
:102D500010BDC046CC0B0020F0B5AA4F87B03B6831
:102D6000002B04D1A84A1268002A00D147E1A74DE0
:102D70002A68002A3BD1A44E3468002C19D1002BBC
:102D800017D00C32A24903A801F030FC03AB1B5D45
:102D90000193019A9F4B9B5C012B07D001211000EE
:102DA00000F0DEFE01239B4A0199535401340C2CA0
:102DB000ECD13368002B18D03C68002C15D134605E
:102DC00003AE0C229249300001F010FC355D914FAA
:102DD0007B5D002B05D00021280000F0C1FE002300
:102DE0007B5501340C2CF1D109E13B6833600021A3
:102DF0000D2000F0D3FE00210E2000F0CFFE0021B8
:102E00000F2000F0CBFE2E68012E56D0022E00D1EE
:102E10009CE0002E00D0ECE0013631007A4C04201A
:102E20002368994300F0BAFE0421236805200B4073
:102E30005942594100F0B2FE1021236806200B4090
:102E40005942594100F0AAFE8021236809010B4034
:102E5000594259410C2000F0A1FE8021236809024B
:102E60000B40594259410B2000F098FE8021236805
:102E700049020B40594259410A2000F08FFE80213F
:102E8000236889020B4059425941092000F086FE0F
:102E900080212368C9020B4059425941082000F0A3
:102EA0007DFE802321681B030B40594259410720B6
:102EB00000F074FE31000D2099E00221524C0720F1
:102EC00023680B405942594100F068FE08202168F0
:102ED00001400B005942594100F060FE80212368F7
:102EE000C9000B4059425941052000F057FE80218E
:102EF000236849010B4059425941062000F04EFE1B
:102F000080212368C9010B4059425941042000F037
:102F100045FE8021236889030B40594259410A200C
:102F200000F03CFE802321681B040B4059425941AC
:102F3000092000F033FE31000C2000F02FFE31009C
:102F40000B2000F02BFE31000E2050E020212E4CF3
:102F5000072023680B405942594100F01FFE4021D1
:102F6000236808200B405942594100F017FE802188
:102F7000236809200B405942594100F00FFE80217F
:102F8000236849000B40594259410A2000F006FECF
:102F90008021236889000B40594259410B2000F0E1
:102FA000FDFD8021236889010B40594259410C20C5
:102FB00000F0F4FD8021236849030B405942594138
:102FC000062000F0EBFD80212368C9030B40594225
:102FD0005941042000F0E2FD802321685B040B408E
:102FE00059425941052000F0D9FD01210F2000F080
:102FF000D5FD2B680321581C01F050FA296007B059
:10300000F0BDC046B40B00208C0B0020B80B002094
:10301000355F0000940B002070B504000068FFF7D6
:103020004BFD05006068FFF747FD0600A068FFF74D
:1030300043FD0400002D03DBFF2D02DDFF2500E032
:103040000025002E03DBFF2E02DDFF2600E0002618
:10305000002C03DBFF2C02DDFF2400E00024300005
:10306000FFF7C6FC2800FFF7C3FC2000FFF7C0FCF9
:1030700070BD0000006810B5C30703D5FFF71CFD45
:10308000014B186010BDC046B40B00200022014B5C
:103090001A607047B40B002070B505000068FFF798
:1030A0000BFD04006868FFF707FD631E042B0CD8B6
:1030B0000138042809D805225043043AC3189A401D
:1030C000130002490A6813430B6070BDB40B002063
:1030D00070B505000068FFF7EFFC04006868FFF7B3
:1030E000EBFC631E042B0CD80138042809D80522F8
:1030F0005043043AC3189A40130002490A689A439D
:103100000A6070BDB40B002010B50120FFF7BAFCB7
:1031100010BD10B50220FFF7B5FC10BD10B5FFF7CC
:103120000DFDFFF799FCE1210248490200F037FE4E
:1031300010BDC0469C0C0020F8B5094D07002800C2
:1031400000F06CFE3C000600E31B9E4205DD2800FB
:1031500000F06EFE20700134F6E73000F8BDC04686
:103160009C0C002010B50100014800F01FFE10BDAE
:103170009C0C0020F8B5012306681E4205D0456866
:103180001D4202D084681C4201D10D2004E076105B
:103190006D10802E03D91520FEF724FC1DE01620AB
:1031A000FF2DF9D864101720FF2CF5D80B4B1B68A6
:1031B000002B01D1FFF78CFC094FF1B2380000F071
:1031C000D1FAE9B2380000F000FAE1B2380000F0BC
:1031D000FCF9380000F030FB0020F8BDBC0B0020EB
:1031E000E00B0020012370B505681D4202D046683F
:1031F0001E4201D10D2004E06D107610802D03D900
:103200001520FEF7EFFB2AE01620FF2EF9D8144B0D
:103210001B68002B01D1FFF75BFC124CEDB22900BB
:10322000200000F09FFAF1B2200000F0CEF900215A
:10323000200000F0A3FA002801D040420CE0012257
:103240002900200000F089FA200000F0B4F90028DD
:10325000FAD0200000F0B4F901234000184370BDFB
:10326000BC0B0020E00B0020204B70B51A68060054
:103270001D001F4C002A16D11E4B1B68002B01D1CC
:10328000FFF726FC1821200000F06CFA2A2120000C
:1032900000F09BF90121200000F097F9200000F0D8
:1032A000CBFA01232B601821200000F05BFAF1B269
:1032B000200000F08AF90021200000F05FFA0300EE
:1032C0000020834210D101221821200000F045FA8D
:1032D000200000F070F90028FAD0200000F070F90A
:1032E0007F2801DD0138FF3870BDC046B00B0020DB
:1032F000E00B0020BC0B002010B50120FFF7B4FF4D
:1033000001234000184310BD10B50320FFF7ACFFA8
:1033100001234000184310BD10B50520FFF7A4FF9E
:10332000012340424000184310BD00002F4B70B5F0
:103330001A681D002E4C002A16D12E4B1B68002B3C
:1033400001D1FFF7C5FB1821200000F00BFA102176
:10335000200000F03AF92921200000F036F9200081
:1033600000F06AFA01232B601821200000F0FAF91E
:103370000121200000F029F90021200000F0FEF9D1
:10338000002801D000202CE001221821200000F0AC
:10339000E4F9200000F00FF90028FAD0200000F036
:1033A0000FF91821200000F0DDF90F21200000F0B6
:1033B0000CF90021200000F0E1F90028E2D10122FF
:1033C0001821200000F0C9F9200000F0F4F80028CE
:1033D000FAD0200000F0F4F87F2801DD0138FF3832
:1033E000053001234000184370BDC046900B0020FB
:1033F000E00B0020BC0B002010B5FFF78FFEFA2079
:10340000C000FEF769FB0448FFF766F8FEF760FEB0
:10341000FFF7CEF810BDC046645F000010B5FEF7A0
:10342000E7FA10BD70B5002504AC24780573A942F5
:1034300005D10A4B0A4A23210A4801F061F80160CC
:103440000949920052589B0002715B588371A30096
:103450005B58856043710223C37170BDB95F000082
:103460007C5F0000C75F000050600000037B002B02
:1034700004D1437383730361013303737047000006
:103480001FB50191A02100240068C900D2B24450A8
:10349000012A07D0A24203D0032A05D1042202E068
:1034A000022200E006221343034A8350034B019A91
:1034B000C250012343501FBD5405000024050000E5
:1034C00010B50400FFF7D2FFA1222368A179D20032
:1034D00099506179064A2000995021790432995017
:1034E000044B19685A689B68FFF7CAFF10BDC046B5
:1034F0000C050000C00B00204BB2002B0CDB80231E
:103500003F290CD81F290CD80F290CD807290CD813
:1035100003290CD81B060BE080239B0408E0DB0486
:1035200006E01B0504E05B0502E09B0500E0DB050F
:103530000168014A8B507047240500000368074A60
:1035400099501A00FC32D1680029FCD0A321C9008F
:1035500058580023C0B2D3607047C0461C05000015
:1035600007B58022074BD2051A6000229A6002320A
:103570001A7111230E320093034905330348FFF7F4
:1035800051FF07BDC00B002000300040CC0B0020D5
:10359000F8B505000E0017000024BC4208D02B68C7
:1035A000315D1B6828009847002801D00134F4E7FA
:1035B0002000F8BD704710B51C3000F0D5FB10BDE1
:1035C00010B51C3000F0C2FB10BD70B5437E0D007D
:1035D000002B05D06430040000F0D5FB002801D09A
:1035E000002004E02000290000F0A1FB012070BDB4
:1035F00010B51C3000F0BEFB10BD0000F7B5019304
:10360000FA23002504009B0083600D4B45600833BE
:1036100003601C300F00160000F07EFB20006430B9
:1036200000F07AFB074AB600B35827616375019B27
:1036300020009B009B586576A576A375FEBDC0460D
:1036400030600000506000000123A022C375837D1C
:103650000C49C133FF33D2059B009950437DC133E0
:10366000FF339B009950CC210369074A49049950C4
:103670000521243A9950817D08329950417D034AB1
:10368000995070470C060000240500000C0500004E
:10369000F7B5050000200C00019382425CD0161E95
:1036A000402E00D940262F001C37380000F04AFB7E
:1036B000B1222B69D20080219C50012289005A50EE
:1036C000A97E002901D11A621A600024731E2A699A
:1036D000A34206D1019B002B03D0802302219B0033
:1036E000D150012313621300FC33D968002902D1A1
:1036F000996A0029F9D0996A00290AD1D960A323CF
:10370000DB00D1583800C9B2013400F010FBA642EA
:10371000DCD8019A2B69002A04D11A00FC32916A84
:1037200000290AD001210022AA7659611900FC3132
:1037300088680028FCD08A6007E00121A976D96159
:10374000D16C0029FCD00021D164FC339A6A002A94
:1037500001D000229A62E0B2FEBD10B50123FFF74E
:1037600097FF10BD0300AC3310B50400197064302E
:1037700000F0E8FA0123637610BD0000F8B50022DE
:103780000D0001004276AC31036904000878B121D4
:10379000C9005850802189005A5001321A629A603B
:1037A00026006436300000F0DFFA00280ED030002A
:1037B000276900F0CBFA1E4BF8502369FC331A6AD4
:1037C000002A0CD19A6A002AF9D008E02369002D5A
:1037D0000AD11A00FC32916A002905D10EE09A6ADA
:1037E000002AF3D11A62DBE701225A611A00FC3287
:1037F00091680029FCD00021916006E00121D96187
:10380000D16C0029FCD00021D1641A000020FC32C8
:10381000916A81420BD0074990625A5802305A503F
:10382000824204D0043A534253410230C01AF8BDD8
:103830001C050000C404000010B50121FFF79EFF25
:1038400010BD000010B51323122202490248FFF7F1
:10385000D5FE10BD00400040E00B002003210A48C7
:1038600002680A430260094802680A430260084984
:10387000084A094B9B1A03DD043BC858D050FBDCB7
:1038800000F0B4F9FCF776FC240500405405004034
:10389000E062000000000020DC000020FEE7FEE700
:1038A000FEE7FEE7FEE7FEE7014B18607047C04603
:1038B00018000020F7B500231E2877D83C4B800065
:1038C000C258042A14D006D8022A0DD00ED80423D8
:1038D000012A14D069E0062A0ED00BD31A2A0DD083
:1038E00002231B2A0BD060E0082308E0102306E027
:1038F000202304E0402302E0802300E001232D4A3E
:103900001268082A04D9092A05D00A21022404E0F1
:103910000821002401E011000124A02501261C2714
:103920002548ED004651254D254E2D681B02AD0062
:103930003D400195234D2D6800958559AC4667465D
:10394000214D3D401D4385518359C0259C46009B18
:10395000AD021D40FF2367461B023B402B43019DE8
:103960001D43009B5F0160231F402B003B431C4312
:1039700001238451154C036063680F48002BFBD072
:103980000024124B01255C60A123DB00C358456075
:10399000A025ED0044511BB2914207D002D98A1AEA
:1039A000D34003E0521A934000E000231800FEBD0C
:1039B000506000001C000020007000401400002037
:1039C0000405000010000020FF00FFFFFC70004015
:1039D000F0B51E286CD8374B8000C258364B1E6895
:1039E000002E2ED1C2243548A4000759344B03259C
:1039F0003B40C0273F023B4303518023893C9B004F
:103A0000FF3C03512F4F03602F4B803CD859FF3CA4
:103A1000A043D8510437D859A8432043D851083778
:103A2000D8590C35A843083D2843D851A820C000D8
:103A30001E508026C120760280001E501C601E4B46
:103A40001C6000231426214834005C4325580400E0
:103A50006F1C0FD1142058432250A0200325C132DF
:103A6000FF329200C0051550194A08001268082A52
:103A700003D10BE0AA4218D1ECE7082A02D9083A90
:103A8000D14002E00820821A9140080014225343DA
:103A9000E3189A680C495132FF3292005860505036
:103AA000DA68C1239B00CA5002E00133032BCBD15B
:103AB000F0BDC04650600000980C002000E100E01E
:103AC000FF00FFFF040500000090004020000020E0
:103AD000180000201E4BF0B5596C18001D4A002933
:103AE00014D0A025A12600230124ED05F600D1580D
:103AF0004F1C06D0D7187F68002F02D027008F40B8
:103B0000AF5114333C2BF2D100234364131DA02585
:103B100040329446002001240F4EED05DA680F492B
:103B2000920057180A495218526C002A0CD01A1FDA
:103B30001268511C05D01968FF2902D0210091405C
:103B4000A9513A00FC32506414339C45E6D1F0BDD3
:103B5000FC900040200000200C0500000090004078
:103B600000B51E2816D80C4A83009B58032911D88B
:103B7000A0220800C133FF33D2059B0000F014FBE4
:103B800002080406002104E00C2102E0042100E008
:103B90000321D15000BDC046506000001E280DD842
:103BA000074B8000C058A0220123D2058340002982
:103BB00001D1044901E0A121C90053507047C0461A
:103BC000506000000C050000030000201E2B0AD8E6
:103BD000A222A021D200C9058858034A9B009B5805
:103BE000D840012318407047506000002D4B10B59D
:103BF0001A78012A19D12C4A1268120715D12B4ABA
:103C0000E0241168F0220800104021420BD128491D
:103C10000968114209D12749274A11608021274AA2
:103C20000902116001E03028F1D01A78012A0DD183
:103C30001D490968090709D1F0201C49096801409C
:103C4000402903D11A490968014223D01B68DBB21D
:103C5000012B25D1144B1B681B0721D1134B1A686C
:103C6000F0231A40A02A04D1114A12681A4203D044
:103C700016E0D02A14D1F7E7114B1A68012A03D1B4
:103C8000C022104B1A600BE00F4A1A601A68012A12
:103C9000FCD1F5E7C1218020C900C0054250D5E71D
:103CA00010BDC046E00F00F0E40F00F0E80F00F098
:103CB000EC0F00F0DFFF07C004050040186C004067
:103CC00000EC064014EC064075930000F7B50600C2
:103CD0000D000C008B180193019B671B9C4207D0C1
:103CE000336821781B683000984701340028F3D1ED
:103CF0003800FEBD70B505000C00081E07D001F0AD
:103D0000A1F82B6802005B6821002800984770BD6D
:103D100010B5FFF7EFFF10BD10B5402200210400E1
:103D200000F06DFC002320002364636410BD3F237A
:103D3000026C10B5541C2340446C9C4201D0815449
:103D4000036410BD0023036443647047436C026C3A
:103D5000934206D03F21C25C01330B404364100004
:103D600001E0012040427047036C406C181A00D5F6
:103D700040307047436C026C934201D0C05C01E05C
:103D8000012040427047036C406C5A1C3F23134093
:103D9000181A42424241D0B270470120704710B514
:103DA00003681322DB69984710BD70470369054A11
:103DB0009950FC331A6A002AFCD0002201201A62B2
:103DC0007047C0461C050000030010B55C331A782C
:103DD0001F2313400122110099400D4B0424D96781
:103DE000C221036989005C505A60DA60A022002178
:103DF000D20099500122074952425A5006491430C4
:103E00005A500C395A5008315A50FFF79BFF10BDD9
:103E100004E100E00C0500001405000010B51430AA
:103E2000FFF7A2FF10BD10B51430FFF7A3FF10BDC0
:103E300010B51430FFF78AFF10BD0000030070B505
:103E40005E331C780269604BD45003005D331C78EC
:103E50005E4BD450030061331C785D4B012C0CD1B8
:103E600005005F352E78A225ED005651050060351E
:103E70002E78A125ED00565100E00024D450962361
:103E8000DB00994238D996231B01994237D99623F2
:103E90005B01994236D996239B01994234D9E1239B
:103EA0009B01994232D99623DB01994231D9E12312
:103EB000DB0199422FD996231B0299422DD9E12388
:103EC0001B0299422BD996235B02994229D9E123FF
:103ED0005B02994227D9E1239B02994225D93D4BA8
:103EE000994224D9E123DB02994223D9E1231B0320
:103EF000994221D8384B21E09E23DB021EE09D230E
:103F00001B031BE0354B19E0354B17E0EC239B03FB
:103F100014E0344B12E0344B10E0344B0EE0344BE1
:103F20000CE0344B0AE0344B08E0344B06E08023CD
:103F3000DB0403E0324B01E080235B0531490024C0
:103F400053500423243953501100FC31CC600C62CF
:103F5000C1210134890014605C30946053500378AF
:103F60001F202200D9B20840824080342648FF3406
:103F70005BB20251002B13DA0F230B40083B234C9A
:103F80009B089B001B1903242140A140FC348C405A
:103F9000DD69A543C0248C4021002943D96111E08B
:103FA000194C9B089B001B1903242140A140C025EC
:103FB000FC348C40AD005E59A643C0248C402100E7
:103FC00031435951026070BD0C050000140500001A
:103FD0006C05000090D0030000D0BE0E00B01300AE
:103FE0000050270000A04E0000F0750000509D001A
:103FF00000F0EB0000903A0100E0D70100B0AF0301
:1040000000705F072405000000E100E000ED00E023
:10401000F7B5009308AB1B7800250193FA23040041
:104020009B0083600E4B45600833036014300F0023
:104030001600FFF771FE23005C3327611E70009BA2
:10404000084A9B00995823005D331970019B20009A
:104050009B009A5823005E33DD701A70FEBDC04687
:10406000CC60000050600000036910B51A00FC32FB
:10407000D2680400002A0AD0A322D2009958143032
:10408000C9B2FFF754FE00222369FC33DA6010BD89
:1040900010B50248FFF7E8FF10BDC0469C0C002099
:1040A0001D2307B502220093024901330248FFF79E
:1040B000AFFF07BD002000409C0C002070470000AF
:1040C00010B500F047F8FFF7F9FF012000F024F8E1
:1040D000FFF792F9FFF7A2F9024B002BFAD000E0AC
:1040E00000BFF7E700000000084A0949094B10B576
:1040F0001B688858FA22190A1B06184392000023ED
:1041000000F0D2F94904C00B084310BD04050000BB
:1041100000100140000D002070B5041E09D0FFF70B
:10412000E3FF050000F014F8FFF7DEFF401B8442B8
:10413000F8D870BD0022044B9A60044A136801331A
:10414000DBB213607047C046FC100140000D002038
:1041500070470000C421114A89005058104B034099
:10416000C020000203435350802391399B02FF3942
:10417000535013608023A3220021DB05D200995005
:104180000122A1209A60074BC0001950C1200231C2
:1041900080001950403019501A60704700E100E06B
:1041A000FF00FFFF0010014002B4714649084900BA
:1041B000095C49008E4402BC7047C0460022430897
:1041C0008B4274D303098B425FD3030A8B4244D3DF
:1041D000030B8B4228D3030C8B420DD3FF22090221
:1041E00012BA030C8B4202D31212090265D0030BE0
:1041F0008B4219D300E0090AC30B8B4201D3CB03D6
:10420000C01A5241830B8B4201D38B03C01A524117
:10421000430B8B4201D34B03C01A5241030B8B4219
:1042200001D30B03C01A5241C30A8B4201D3CB0204
:10423000C01A5241830A8B4201D38B02C01A5241E9
:10424000430A8B4201D34B02C01A5241030A8B42EC
:1042500001D30B02C01A5241CDD2C3098B4201D304
:10426000CB01C01A524183098B4201D38B01C01A82
:10427000524143098B4201D34B01C01A52410309F9
:104280008B4201D30B01C01A5241C3088B4201D3A8
:10429000CB00C01A524183088B4201D38B00C01A55
:1042A000524143088B4201D34B00C01A5241411A7C
:1042B00000D20146524110467047FFE701B5002089
:1042C00000F0F0F802BDC0460029F7D076E770474D
:1042D00003460B437FD4002243088B4274D3030967
:1042E0008B425FD3030A8B4244D3030B8B4228D308
:1042F000030C8B420DD3FF22090212BA030C8B422E
:1043000002D31212090265D0030B8B4219D300E0CD
:10431000090AC30B8B4201D3CB03C01A5241830B52
:104320008B4201D38B03C01A5241430B8B4201D302
:104330004B03C01A5241030B8B4201D30B03C01A2B
:104340005241C30A8B4201D3CB02C01A5241830AA5
:104350008B4201D38B02C01A5241430A8B4201D3D4
:104360004B02C01A5241030A8B4201D30B02C01AFE
:104370005241CDD2C3098B4201D3CB01C01A524165
:1043800083098B4201D38B01C01A524143098B42EE
:1043900001D34B01C01A524103098B4201D30B01D7
:1043A000C01A5241C3088B4201D3CB00C01A5241FC
:1043B00083088B4201D38B00C01A524143088B42C1
:1043C00001D34B00C01A5241411A00D2014652415A
:1043D000104670475DE0CA0F00D04942031000D379
:1043E0004042534000229C4603098B422DD3030ACE
:1043F0008B4212D3FC22890112BA030A8B420CD3DE
:10440000890192118B4208D3890192118B4204D306
:1044100089013AD0921100E08909C3098B4201D386
:10442000CB01C01A524183098B4201D38B01C01AC0
:10443000524143098B4201D34B01C01A5241030937
:104440008B4201D30B01C01A5241C3088B4201D3E6
:10445000CB00C01A524183088B4201D38B00C01A93
:104460005241D9D243088B4201D34B00C01A52416A
:10447000411A00D20146634652415B10104601D3F7
:104480004042002B00D54942704763465B1000D381
:10449000404201B5002000F005F802BD0029F8D027
:1044A00016E770477047C046F0B54F464646C0B461
:1044B0001604360C9946330005042C0C070C150C19
:1044C00063437E436F4365431C0CAD1964199C46DE
:1044D000A64203D980235B02984647446346250CD5
:1044E000EF191D044B464A4343432D0C2404641921
:1044F0009918C91920000CBC90469946F0BDC046D9
:104500007FB51D000A4B06001B68D868002A02D13F
:10451000084C230001E01300074C02930091330084
:104520002A000649019400F021F800F0FDFDC04684
:10453000BC0000206E5E0000FC600000096100000D
:10454000084B10B50400002B02D0002100E000BF92
:10455000054B1868836A002B00D09847200001F0B3
:10456000CDFAC046000000003C6100000EB403B567
:10457000010003AB044804CB0068019300F00CF980
:1045800002B008BC03B01847BC0000200E4B70B549
:1045900000251E000D4CE41AA410A54204D0AB0067
:1045A000F35898470135F8E701F0AAFA084B0025BF
:1045B0001E00084CE41AA410A54204D0AB00F35826
:1045C00098470135F8E770BDC4000020C400002002
:1045D000C4000020D400002010B5034B010018686F
:1045E00000F05CF810BDC046BC000020002310B5F0
:1045F0009A4203D0CC5CC4540133F9E710BD0300E8
:104600008218934202D019700133FAE77047000014
:1046100030B500293ED004390B68002B00DAC918E8
:104620001D4A13681400002B02D14B60116031E069
:104630008B420DD90A688818834203D118685B68D9
:1046400082180A604B60216024E08A4203D813007C
:104650005A68002AF9D11D685C198C420BD109688F
:10466000691858181960824214D1106852684118AC
:1046700019605A600EE08C4202D90C23036009E0F5
:1046800008680C18A24203D1146852682018086008
:104690004A60596030BDC046080D0020032370B544
:1046A000CD1C9D43083506000C2D01D20C2505E0DC
:1046B000002D03DA0C230020336040E0A942F9D832
:1046C0001F4B1C681A002100002913D00B685B1BCC
:1046D0000DD40B2B02D90B60CC181EE08C4202D1FA
:1046E000636813601AE04B6863600C0016E00C000E
:1046F0004968E9E7134C2368002B03D1300000F030
:1047000033FB20602900300000F02EFB431CD1D089
:104710000323C41C9C43A0420AD125602000072229
:104720000B30231D9043C31A09D05A42E25006E0D1
:10473000211A300000F018FB431CEED1BAE770BD1F
:10474000080D0020040D0020936810B5013B936014
:10475000002B05DA9469A34208DBCBB20A2B05D003
:104760001368581C10601970C8B201E000F010FC0A
:1047700010BDF8B506000F001400D518AC4208D0E3
:1047800021783A003000FFF7DFFF0134431CF5D1F8
:1047900000E00020F8BD0000F0B59FB006000F005B
:1047A00002920593002804D08369002B01D100F008
:1047B000B7FD7F4B9F4201D1776808E07D4B9F4258
:1047C00001D1B76803E07C4B9F4200D1F768BB89F9
:1047D0001B070AD53B69002B07D0002306AD6B6190
:1047E00020336B761033AB763DE03900300000F0BB
:1047F00027FC0028F1D001204042D6E0059A111D87
:1048000012680591002A00DA7FE0099201342378CA
:104810002E2B00D18DE021780322684800F066FE3F
:10482000002807D0654B2A68C01A402383401343F1
:104830002B6001342178631C06226148029329769B
:1048400000F054FE002800D19DE05E4B002B00D00C
:1048500090E00722059B07339343083305936B6968
:10486000039A9B186B61029C2378002B04D1029B56
:10487000E31A049312D003E0252BF8D00134F3E7B8
:10488000049B029A39003000FFF773FF431C00D1EC
:1048900086E06A69049B944663446B612378002B2D
:1048A0007ED00122002352426A6002A9543252187B
:1048B00001342B60EB60AB601370AB65217805228F
:1048C000414800F013FE002808D03F4B2A68C01A68
:1048D0000123834013432B600134EFE72B68DA0692
:1048E00004D55322202102A8121811701A0704D5EA
:1048F00053222B2102A81218117022782A2A00D1E3
:104900007CE7099B00200A2105E05242EA6002226E
:1049100013432B607AE72278303A092A04D84B43B4
:1049200001349B180120F6E7002800D16FE70993B6
:104930006DE763782A2B0AD1059B02341A1D1B6888
:104940000592002B01DA01235B42079363E7002302
:104950000A201A0001346B6021783039092904D803
:104960004243013452180123F6E7002B00D152E7ED
:10497000079250E705AB00933A00144B2900300032
:1049800000E000BF07E005AB00933A000F4B2900A1
:10499000300000F08BF80390039B013300D05EE7FA
:1049A000BB895B0600D526E70B981FB0F0BDC0465B
:1049B0007462000094620000B4620000466100006E
:1049C0004A610000000000004061000073470000E1
:1049D000F7B5170001938A680B6900900C009342A9
:1049E00000DA130022003B6043321278002A01D023
:1049F00001333B6023689B0602D53B6802333B6072
:104A0000062523681D401ED0230043331B785A1E01
:104A10009341226892061CD53020E118433108707A
:104A200021005A1C45310978A21843320233117013
:104A30000FE022000123193201990098089EB04727
:104A4000431C0ED00135E3683A689B1A9D42F0DBA7
:104A5000DAE72200019943320098089DA847431CD9
:104A600002D10120404220E006232068E1683A6834
:104A700003400025042B03D18D1AEB43DB171D40A7
:104A8000A3682269934201DD9B1AED180027BD42FD
:104A90000AD0220001231A3201990098089EB047DB
:104AA000431CDED00137F2E70020FEBDF0B58BB02D
:104AB00006920A0043320793059004920A7E0C0086
:104AC000109B6E2A00D1ABE011D8632A22D009D8FE
:104AD000002A00D1B5E0582A00D0C5E045310A705F
:104AE000814A4FE0642A1DD0692A1BD0BCE0732A9A
:104AF00000D1AAE009D86F2A29D0702A00D0B3E0EB
:104B0000202209680A43226037E0752A1FD0782ADC
:104B100033D0A9E00E001A684236111D19601368DF
:104B20003370A4E021681A68080606D4490604D543
:104B3000111D19600023D55E02E0111D1960156872
:104B4000002D3BDA2D23049A6D42137036E0216864
:104B50001A68080606D4490604D51568111D19609F
:104B6000ADB202E0111D196015685F4B227E039300
:104B700008276F2A1DD00A271BE022007821453222
:104B800011705A4A19680392081D226818600D684E
:104B9000100602D4500600D5ADB2D30702D52023AB
:104BA0001A4322601027002D03D1202322689A4344
:104BB00022602300002243331A7002E00A274A4B86
:104BC00003936368A360002B09DB042221689143EF
:104BD0002160002D05D1049E002B11D07BE0002D1B
:104BE00079D0049E28003900FFF76EFB039B013E3D
:104BF0005B5C280033703900FFF7E0FA051EF1D145
:104C0000082F09D12368DB0706D563682269934220
:104C100002DC3023013E3370049B9B1B23612BE09D
:104C200009681A68080607D4490605D5111D1960D8
:104C30001368A28A1A8004E0111D19601368626962
:104C40001A600023049E236116E01A68111D196082
:104C5000166800216268300000F048FC002801D08E
:104C6000801B6060636803E02600423632700123D7
:104C700023610023049A1370079B09AA0093210063
:104C8000069B0598FFF7A4FE431C02D10120404279
:104C900027E02369320006990598079DA847431C21
:104CA000F4D0236800259B070FD4099BE068984245
:104CB00017DA180015E02200012319320699059829
:104CC000079EB047431CE1D00135E368099A9B1A5F
:104CD0009D42F0DBE9E72600039B42361B783370E8
:104CE0008EE70BB0F0BDC04651610000626100006C
:104CF000154B10B51C68A36B002B15D11820FFF7BE
:104D00006BFC124BA0630380114B01224380114BBB
:104D10008380114BC380114B0381052343810633EC
:104D20008381002302614361A46B0D4A206961699C
:104D30000C4BFFF7B9FB0122002380185941206179
:104D400061614800400810BDBC0000200E33000027
:104D5000CDABFFFF341200006DE6FFFFECDEFFFF7E
:104D60002D7F954C2DF45158002370B5064C05004D
:104D70000800236000F0ACFE431C03D12368002B25
:104D800000D02B6070BDC046281C00200CB430B58C
:104D9000164B9DB00C1E1D6804DA8B2301202B607E
:104DA00040421DE0822302A99B008B8100230290D8
:104DB00008619C4200D0631E8B604B6101235B4203
:104DC000CB81209A21AB2800019300F037FC431CD3
:104DD00001DA8B232B60002C02D00023029A13707F
:104DE0001DB030BC08BC02B01847C046BC00002053
:104DF0000EB410B59DB002A9029008610B48822440
:104E000088604861012040421FABC881084804CB3C
:104E1000A400006801938C8100F010FC0023029A2A
:104E200013701DB010BC08BC03B01847FFFFFF7F14
:104E3000BC000020031C0A7801311A700133002ADB
:104E4000F9D170470023C25C0133002AFBD1581E00
:104E500070470000F0B51E00454B87B01B680192FB
:104E6000029308220B00059003911C7802995D1CA7
:104E700009194878104001D02B00F6E72D2C04D1F9
:104E80009D1C5C780123009304E000902B2C01D141
:104E90005C789D1C002E02D0102E0AD162E0302CCE
:104EA0005ED120222B789343582B54D110266C7856
:104EB0000235009F31007B1E9F412E4BFF183800AA
:104EC000FFF702FA380004913100FFF777F9002369
:104ED0000322070094461800029A121951780422FE
:104EE000114201D0303C07E06246114017D0372212
:104EF000012900D02032A41AA64210DD5A1C0BD082
:104F0000B84207D802D1049B9C4203DC70430123C2
:104F1000201801E001235B422C780135DCE75A1CA4
:104F20000BD10098059A431E9841124BC0182223BA
:104F30001360019B002B0AD117E0009A002A00D0D1
:104F40004042019A002A10D0039A002B00D06A1E1A
:104F5000019B1A6009E03024002EAAD10826A8E798
:104F60000A26A6E7302C9CD0A3E707B0F0BDC046C8
:104F7000C0000020FFFFFF7F10B513000A000100F2
:104F800002480068FFF766FF10BDC046BC00002065
:104F9000F8B505000F001400002804D08369002B29
:104FA00001D100F0BDF9234B9C4201D16C6808E0AF
:104FB000214B9C4201D1AC6803E0204B9C4200D1C4
:104FC000EC68A369A360A3891B070AD52369002B9A
:104FD00007D023682269FEB2981A636998420FDBF2
:104FE00008E02100280000F02BF80028F1D0012073
:104FF00040421DE02100280000F024F90028F6D1ED
:10500000A3680130013BA36023685A1C22601F7013
:105010006369984205D0A3893000DB0708D50A2EC2
:1050200006D12100280000F00DF90028DFD1300062
:10503000F8BDC0467462000094620000B4620000D3
:10504000354B70B51D6806000C00002D05D0AB690E
:10505000002B02D1280000F063F9304B9C4201D1B3
:105060006C6808E02E4B9C4201D1AC6803E02D4BEC
:105070009C4200D1EC68A3899AB2110723D4D106CF
:1050800007D409220120326037321343A381404202
:1050900040E0530713D5616B002908D02300443347
:1050A000994202D03000FFF7B3FA00236363242251
:1050B000A3899343A38100236360236923600822AB
:1050C000A3891343A3812369002B0BD1A023A289B9
:1050D0009B00134080229200934203D021003000B5
:1050E00000F0B2F90123A289134005D00023A36088
:1050F00063695B42A36103E0910700D46369A36025
:1051000000202369834205D1130603D540231A43A7
:10511000A281013870BDC046BC000020746200004E
:1051200094620000B462000010B5062000F0AEFBEF
:10513000012000F0E3FC0000F7B58A8905000C00AF
:1051400013075AD44B68002B02DC0B6C002B19DDC3
:10515000E76A002F16D000232E682B6080235B01A6
:105160001A4001D0606D14E00123216A2800B8477D
:10517000431C0ED12B68002B0BD01D2B01D0162BFE
:1051800002D12E6000205AE04022A3891343A3815C
:1051900055E0A3895B0706D56368C01A636B002BD3
:1051A00001D0236CC01A00230200216A2800E76A9C
:1051B000B847A389421C06D129681D293AD8204A3C
:1051C000CA40D20736D50022626022692260DB0421
:1051D00005D5431C02D12B68002B00D16065616BA3
:1051E0002E600029CED023004433994202D02800FB
:1051F000FFF70EFA0020606321E00F69002FC1D095
:105200000B680F60DB1B01930023920700D14B69F1
:10521000A36003E0019B3F181B1A0193019B002B25
:10522000B0DD019B3A00216A2800A66AB047002839
:10523000F0DCA389402201201343A3814042FEBD3C
:10524000010040200B6970B505000C00002B01D156
:1052500000201CE0002804D08369002B01D100F05D
:105260005FF80B4B9C4201D16C6808E0094B9C42F3
:1052700001D1AC6803E0084B9C4200D1EC680C22E1
:10528000A35E002BE4D021002800FFF755FF70BD7E
:105290007462000094620000B462000010B502491C
:1052A00000F0B0F810BDC04645520000002310B514
:1052B000040003604360836081814366C2810361AF
:1052C00043618361190008225C30FFF798F9054BB0
:1052D00024626362044BA362044BE362044B2363C6
:1052E00010BDC046CD580000F55800002D590000F3
:1052F0005959000070B568254B1E5D430E0029000A
:105300007431FFF7CBF9041E08D000212A00016098
:1053100046600C30A0606832FFF771F9200070BD64
:10532000836913B50400002B28D18364C36403652B
:10533000134B144A1B6882620193984201D10123E6
:105340008361200000F020F86060200000F01CF86D
:10535000A060200000F018F80022E06004216068DE
:10536000FFF7A4FF01220921A068FFF79FFF022297
:105370001221E068FFF79AFF0123A36113BDC04625
:105380003C6100009D520000F8B51D4B06001D68F1
:10539000AB69002B02D12800FFF7C2FF4835AC688B
:1053A0006B68013B05D40C22A75E002F10D0683437
:1053B000F7E72B68002B01D02D68F0E704213000BF
:1053C000FFF798FF28600028F6D10C23336016E021
:1053D000012320005B42E3810233A38167662760DB
:1053E000A760676027616761A7615C3008223900A8
:1053F000FFF705F920006763A763A764E764F8BDBA
:105400003C610000F7B50400070000260191483414
:10541000002C16D06368A5680093009B013B0093A5
:105420000DD4AB89012B08D90E22AB5E013304D019
:1054300029003800019B984706436835EDE724684A
:10544000E6E73000FEBD0000F0B58B8991B00600A4
:105450000C009B0726D40E23C95E002904DA8023A2
:10546000A5891D4010D10CE001AA00F0A1FA002886
:10547000F5DBF023029D1B021D401A4BED186B4219
:105480005D418027FF0001E0002540273900300002
:10549000FFF704F900280CD1A3899A051FD4022232
:1054A0001343A381230047332360236101236361F6
:1054B00015E080220C4BB362A38920601343A381C3
:1054C00020616761002D0AD00E23E15E300000F0FC
:1054D00081FA002803D00122A3891343A38111B0CC
:1054E000F0BDC04600E0FFFF9D520000C9B2821827
:1054F000904204D003788B4202D00130F8E70020BC
:10550000704710B5884202D98B18984201D3002306
:1055100005E09B1A013A08D3995C8154FAE793425B
:1055200003D0CC5CC4540133F9E710BDF8B50600D4
:105530000C001500002904D11100FFF7AFF804009A
:1055400018E0002A03D1FFF763F82C0012E000F006
:1055500067FA85420ED929003000FFF79FF8071E31
:1055600007D021002A00FFF741F821003000FFF7A3
:105570004FF83C002000F8BDF0B58E6885B00700FC
:105580000C00039201939E4243D890238A89DB004A
:105590001A423ED003250969236801985B1A0293D9
:1055A00063695D43EB0F5D19029B6D1001331B189E
:1055B000AB4200D91D00530510D529003800FFF774
:1055C0006DF8061E14D0029A2169FFF70FF8A28920
:1055D000194B134080221343A38112E02A003800A4
:1055E000FFF7A4FF061E0CD121693800FFF710F861
:1055F0000C23402201203B60A38940421343A38136
:1056000017E0029B2661F61826606561019EED1A7F
:10561000A560019BB34200D21E00320003992068AE
:10562000FFF76FFF0020A3689B1BA36023689E19F0
:10563000266005B0F0BDC0467FFBFFFFF0B59FB010
:10564000029005938B890F0016001B0610D50B697D
:10565000002B0DD14021FFF721F838603861002878
:1056600004D10C23029A01381360D8E040237B61F7
:10567000002306AD6B6120336B761033AB763400BC
:105680002378002B03D1A31B049312D003E0252B16
:10569000F9D00134F4E7A31B320039000298FFF778
:1056A0006BFF431C00D1B4E06A69049B94466344D9
:1056B0006B612378002B00D1ABE001220023524222
:1056C0006A6002A95432521801342B60EB60AB605F
:1056D0001370AB65534E217805223000FFF706FFAB
:1056E000002807D00123801B83402A68013413431C
:1056F0002B60EFE72B68DA0604D55322202102A89D
:10570000121811701A0704D553222B2102A812185F
:10571000117022782A2A03D0099B00200A210EE06A
:10572000059A111D12680591002A01DB099204E017
:105730005242EA60022213432B6001340BE02278CC
:10574000303A092A04D84B4301349B180120F6E76C
:10575000002800D0099323782E2B1ED163782A2BA2
:105760000AD1059B02341A1D1B680592002B01DA31
:1057700001235B42079310E000230A201A00013442
:105780006B6021783039092904D84243013452181A
:105790000123F6E7002B00D00792234E2178032245
:1057A0003000FFF7A3FE002806D04023801B834073
:1057B0002A68013413432B60217806221B48661C9B
:1057C0002976FFF793FE002812D0194B002B06D143
:1057D0000722059B073393430833059314E005AB79
:1057E00000933A00134B2900029800E000BF07E045
:1057F00005AB00933A000F4B29000298FFF756F9CA
:105800000390039B013304D06B69039A9B186B616F
:1058100035E7BB890B985B0601D5012040421FB0DC
:10582000F0BDC04640610000466100004A610000D2
:10583000000000007955000070B504000D1E1F2DFA
:1058400004D916230360012040421EE0426C002A66
:1058500004D08B00D2181368002B08D1200000F070
:1058600031F82A000100200000F01AF80DE00020B5
:10587000012B0AD0591C03D117332360013004E0F7
:105880000024280014609847200070BD10B5034B19
:1058900001001868FFF7D0FF10BDC046BC00002013
:1058A000002370B5064C050008001100236000F0CD
:1058B000F7F8431C03D12368002B00D02B6070BD88
:1058C000281C002010B500F0DBF810BD70B50C00EE
:1058D0000E25495F00F0B0F8002803DB636D1B184C
:1058E000636503E0A289024B1340A38170BDC046EB
:1058F000FFEFFFFFF8B51F008B8905000C001600B5
:10590000DB0505D50E23C95E0022022300F074F8E2
:10591000A289054B28001340A38132000E23E15ECB
:105920003B0000F01FF8F8BDFFEFFFFF70B50C0063
:105930000E25495F00F060F8A389421C03D1054A97
:105940001340A38104E0802252011343A3816065C8
:1059500070BDC046FFEFFFFF10B50E23C95E00F01B
:1059600015F810BD70B50500080011000022064CA6
:1059700022601A0000F0BAF8431C03D12368002B00
:1059800000D02B6070BDC046281C0020002370B5DD
:10599000064C05000800236000F062F8431C03D1A8
:1059A0002368002B00D02B6070BDC046281C00204F
:1059B000002370B5064C050008001100236000F0BC
:1059C00057F8431C03D12368002B00D02B6070BD17
:1059D000281C0020002370B5064C05000800236039
:1059E00000F056F8431C03D12368002B00D02B6035
:1059F00070BDC046281C002070B5050008001100CD
:105A00000022064C22601A0000F052F8431C03D119
:105A10002368002B00D02B6070BDC046281C0020DE
:105A20000B1F1A68101F002A04DA891804390B6842
:105A3000D01804387047000070B505000800110048
:105A40000022064C22601A0000F03AF8431C03D1F1
:105A50002368002B00D02B6070BDC046281C00209E
:105A600058220120014B40421A607047281C002038
:105A700058220120014B40421A607047281C002028
:105A800058220120014B40421A607047281C002018
:105A90005822024B00201A607047C046281C002084
:105AA00058220120014B40421A607047281C0020F8
:105AB00058220120014B40421A607047281C0020E8
:105AC00058220120014B40421A607047281C0020D8
:105AD000044A1368002B03D0181810601800704790
