:1000000000400020A55B0000E55B0000E75B00000E
:1000100000000000000000000000000000000000E0
:10002000000000000000000000000000E95B00008C
:100030000000000000000000EB5B0000ED5B000032
:10004000EF5B0000EF5B0000D9630000EF5B000096
:10005000EF5B000000000000EF5B0000EF5B0000C2
:10006000EF5B00001D5E0000EF5B0000EF5B000037
:10007000EF5B0000EF5B0000EF5B0000EF5B000058
:10008000EF5B00007D640000EF5B0000EF5B0000B1
:10009000EF5B0000EF5B0000EF5B0000EF5B000038
:1000A000EF5B0000EF5B00000000000000000000BC
:1000B0000000000000000000000000000000000040
:1000C000054B0648033310B51B1A062B03D9044B06
:1000D000002B00D0984710BD54020020540200208D
:1000E000000000000648074910B5091A8910CB0F17
:1000F0005918491003D0044B002B00D0984710BD6D
:1001000054020020540200200000000010B5074CEB
:100110002378002B09D1FFF7D3FF054B002B02D02A
:10012000044800E000BF0123237010BD54020020EA
:1001300000000000F8A70000094B10B5002B03D009
:100140000849094800E000BF08480368002B02D1B5
:10015000FFF7C8FF10BD064B002BF9D09847F7E713
:100160000000000058020020F8A700005002002004
:1001700000000000164B002B00D1144B9D4640227E
:1001800092029A1A924600218B460F461348144A4F
:10019000121A08F086F80F4B002B00D098470E4B30
:1001A000002B00D098470020002104000D000D48CE
:1001B000002802D00C4800E000BF08F02FF8200013
:1001C000290006F021F908F003F8C04600000800F5
:1001D0000040002000000000000000005402002049
:1001E00098250020000000000000000001230340CB
:1001F0000200181E04D1042A03D91068000900E087
:100200000020704710B50400FFF7F0FF0300002046
:1002100083420BD0013B9B00181DE2181279002A83
:1002200003D001338342F8D100E0180010BD012251
:10023000016810B5114201D0002903DA102000F046
:10024000AFF903E04910062001F0F8FE10BD016887
:1002500010B5CB0701D5002903DA102000F0A0F972
:1002600006E04910033189100022052001F0E6FE66
:1002700010BD70B50568AB0728D1042D26D90F2312
:100280002A6846681340062B09D12800FFF7AEFF05
:10029000012383421DDC9A00AE500133F9E7052BA0
:1002A00014D1F30703D4132000F07AF912E076108A
:1002B000FF2EF8D82800FFF799FF2C1D230080009F
:1002C0002018984205D91E700133FAE70B2000F080
:1002D00067F9002070BD70B50468E30701D41120F0
:1002E0002DE04568AB0729D1042D27D90F262B68AF
:1002F00064101E40062E0BD1002C04DD2800FFF7F1
:1003000075FF844201DD122019E0A400605918E055
:10031000331F012B12D82800FFF768FF8000042E3E
:1003200002D12800FFF76EFF002CECDDA042EADBD3
:1003300001232C19E0784000184302E00B2000F064
:100340002FF970BDF8B5012304681C4201D11120BA
:100350002FE00325466835402AD1042E28D90F23E3
:100360003268641087681340062B0BD1002C04DD23
:100370003000FFF73BFF844201DD122019E0A400AA
:10038000A75113E0052B13D1002CF6DD3000FFF749
:100390002DFF80008442F0DC01231F4201D1132095
:1003A00007E07F10FF2FFAD83419E770280002E029
:1003B0000B2000F0F5F8F8BD006810B5830717D1E1
:1003C000042815D90F2302681340062B02D1FFF72A
:1003D0000DFF0BE0052B05D1FFF708FFC00001233F
:1003E000184308E0042B03D1FFF70CFF4000F6E7A9
:1003F0000B2000F0D5F810BD10B5032400680440B0
:1004000006D1042804D90F2302681340042B01D01D
:100410000E2011E001F04EFE0378233B5942594172
:1004200010224018210008F015FC80239B05C218FB
:10043000054B9A4203D9142000F0B2F802E00123E0
:100440004000184310BDC046FFFFFF3F012303409B
:100450000200181E01D0501002E00D22014B1A704C
:100460007047C04670020020012303400200181E9E
:1004700004D1042A03D91068000900E00020704765
:1004800070B50D000400FFF7EFFF86002800FFF7AE
:10049000EBFF830000209E420ED1231D9E190435E0
:1004A0001A009E4207D929781278013301358A4211
:1004B000F6D0002000E0012070BD0000F0B585B04E
:1004C0000393019002912D4E2D4B002A02D002225F
:1004D0003270013A00251A601B68F554019B9D4259
:1004E0004ADA029AAB00D058254B1C68C8239B00FF
:1004F00037191C1B0123184202D04310214A1FE068
:10050000214A002802D0042805D1204A21003800C1
:1005100008F08EFA18E0042810D90F23026813405F
:10052000042B04D101F0C6FD194A030008E0062B94
:1005300005D1FFF799FF174A030001E00123164A8E
:100540002100380008F074FA300008F0D7FA039B55
:100550000B4A002B01D110600CE0019B013B9D4236
:10056000F9DA0E4B9842F6DC431C13602022325419
:100570000022F2540135B1E705B0F0BD7C02002045
:1005800078020020219A0000F4990000FA990000F6
:10059000979D0000FF990000109A00001F030000C3
:1005A000014B1870002070477002002070B502F0F7
:1005B000CFFF094C0100251D1F22280008F0A5FAD5
:1005C000280008F09BFA0423043080080001184337
:1005D0002060200070BDC0469C050020C368F0B5B7
:1005E0009D00836889B05D19030018330693036981
:1005F00003909F00069BDF1943699E000193069BB1
:100600009E19D24B1B78002B0FD17F222B68D0492B
:100610001C1213409B005B5801960435029235E092
:10062000CA4B1B78002B29D0019E039BC74C9B68AB
:1006300021780193EA1A039B92109B7812021A43C5
:10064000039B587802F0FEFC0023039A237013707A
:1006500001960497039B069A9B68ED1A0293039BED
:10066000AD10DD60049B9F1A039BBF101F61019BAF
:100670009B1A039A9B10536101F02EFC2B68029A7F
:100680001C121340B24A9B009B5804359F46039BA3
:10069000587802F0CFFC0023039A1370D9E7069B29
:1006A0003A1DD11AA94BDB2903DD1A22019E1A70CB
:1006B000BBE71B783C60002B02D0019E1700B4E71B
:1006C0002B6802991C120B40A1499B005B58170034
:1006D0000435DBE7069B3A1DD11A9C4BDB2903DD71
:1006E0001A22019E1A70A0E728681B78291D38601D
:1006F000002B03D0019E17000D0096E76B6802994E
:100700001C120B4092499B005B5817000835BDE74F
:10071000069B3A1DD11A8D4BDB2903DD1A22019E5F
:100720001A7082E7A4001B782C193C60002B02D0C1
:10073000019E170079E72B6802991C120B4084492F
:100740009B005B5817000435A0E7069B3A1DD11AA1
:100750007E4BDB2903DD1A22019E1A7065E77D4876
:10076000A40021581B783960002B02D0019E17008D
:100770005BE72B6802991C120B4075499B005B5884
:100780001700043582E7043F724B3A68A400E25038
:100790006E4B1B78002B01D0019E46E72B68029A16
:1007A0001C1213406A4A9B009B5804356EE7694B44
:1007B000A600F058FFF74AFE043F04003868FFF730
:1007C00045FE24180120634B64000443F4505F4B42
:1007D0001B78002B01D0019E27E72B68029A1C1280
:1007E00013405B4A9B009B5804354FE7069B3A1D1C
:1007F000D11A564BDB2903DD1A22019E1A7014E729
:100800000198069C0121A04202D901000C39096817
:100810001B783960002B02D0019E170005E72B687A
:1008200002991C120B404A499B005B581700043583
:100830002CE7069B3A1DD11A444BDB2903DD1A2213
:10084000019E1A70F1E60199069881420AD90B00BF
:100850000C3B1B6840495B106418E41A019BA40020
:10086000E35802E01821197000233B60374B1B78D6
:10087000002B02D0019E1700D7E62B6802991C12AC
:100880000B4033499B005B5817000435FEE6019B83
:10089000069A93420BD90C3B19682F4B043FE3187F
:1008A0004910591A3A68019B8900CA5002E018227F
:1008B000264B1A70254B1B78002B01D0019EB4E605
:1008C0002B68029A1C121340214A9B009B58043546
:1008D000DCE6019B069A93421CD9019E1E4B0C3EFE
:1008E000E4183368019A5B10E31A9B009858FFF7ED
:1008F000ADFD043F04903868FFF7A8FD3168049B04
:100900004910611A012418184000019B89002043F6
:10091000C85002E018220D4B1A700C4B1B78002BAC
:1009200001D0019E81E62B68029A1C121340084AEE
:100930009B009B580435A9E6069B3A1DD11A034B30
:10094000DB290BDD1A22019E1A706EE67002002070
:10095000F4970000DC220020FDFFFF3F0199A40076
:1009600061581B783960002B02D0019E17005CE6AD
:100970002B6802991C120B40D0499B005B58170052
:10098000043583E6043F019B3A68A400E250CC4B57
:100990001B78002B01D0019E47E62B68029A1C129F
:1009A0001340C64A9B009B5804356FE6019BA40088
:1009B0001C192368043F38685E10FFF747FD36189E
:1009C0000120BF4B76001B7806432660002B01D028
:1009D000019E2AE62B68029A1C121340B74A9B001C
:1009E0009B58043552E6069BA4003F1BB44CBB4207
:1009F0000DD82378002B01D0019E16E62B68029AB1
:100A00001C121340AD4A9B009B5804353EE6AD488E
:100A100001F0C4FA2378002B01D0019E05E62B6873
:100A2000029A1C121340A54A9B009B5804352DE6E0
:100A3000A300ED18002C00DA0BE6A14B1B78002B6D
:100A400001D0019EF1E52B68029A1C1213409B4ACB
:100A50009B009B58043519E63B1F04931B680793C2
:100A6000042B04D1A300ED18002C00DAF2E5944B1E
:100A70001B78002B02D0019E049FD6E52B68029ABA
:100A80001C1213408D4A9B009B58049F0435FDE5C2
:100A90003B1F04931B68042B06D0A200AD18002C4A
:100AA00002DA002B00D1D5E5854B1B78002B02D054
:100AB000019E049FB9E52B68029A1C1213407F4ADD
:100AC0009B009B58049F0435E0E53A1F13685B10B8
:100AD000013B002B07DD01215B00A4000B430497C1
:100AE0002D191360B6E5764B17001B78002B01D04B
:100AF000019E9AE52B68029A1C1213406F4A9B00D4
:100B00009B580435C2E53A00069B0C32D31ADB2B06
:100B100004DD1A226A4B019E1A7086E5FF236100EC
:100B20005B000B4001210B433B60039B06989B68D5
:100B300024120493ED1A039BAD109B782D021D43E4
:100B4000019B8D401B1A9B108B400B43BB60039B8A
:100B50000D437D609C70E4B25B4BE4000399E35865
:100B600016008B6056490978002903D008331D0010
:100B700017005AE51D0002999B680C351C120B40AA
:100B80004E499B005B58019217007FE53B1F1E6892
:100B9000069A019B93422AD104970A20F30716D4A0
:100BA000B3070DD1042E0BD90F2332681340042B49
:100BB00006D1300001F07EFA07F0A0FF063006E013
:100BC0000720042E03D0002E01D080208000643046
:100BD00001F0E0FF002801D1043D3BE5039B31001B
:100BE000587802F041FA0023039A137032E5019B12
:100BF000019A0C3B1B6803995B109B005B421F0032
:100C0000D3180C3B1E601300083B1B68083FD71924
:100C10005A108A70D2B22C49D2005B0055589B0AF8
:100C2000039A9B009560ED18019B043B1E68069B90
:100C30007610B6009E19224B1B78002B00D0F4E4EE
:100C40002B68029A1C1213401C4A9B009B58019669
:100C500004351BE53B1F1868FFF7F8FBA4000600EE
:100C60003F1B1E2834DC00280EDC154B1B78002BA4
:100C700001D0019ED9E42B68029A1C1213400F4A3E
:100C80009B009B58043501E502F048FC033E3618F2
:100C900002F044FC0D4B801B9842F9D8084B1B789E
:100CA000002B01D0019EC0E42B68029A1C12134055
:100CB000024A9B009B580435E8E4C046F4970000C4
:100CC00070020020249A0000E41A00209F86010090
:100CD0000123039A137002F021FC039B0A38861942
:100CE0005E60B6E43B1F1868FFF7B0FBA4000490F9
:100CF0003F1B00280EDCCF4B1B78002B01D0019E40
:100D000093E42B68029A1C121340CB4A9B009B5819
:100D10000435BBE4C94B049A019E9A4203DD1D22AF
:100D2000C44B1A7081E40123039A137002F0F6FB9E
:100D3000FA23049A9B005343039A0A3B1B185360FF
:100D400087E4A300FF1A002320001A003900FFF7F0
:100D5000B5FBBB4EBB4C3168200002F0D7F83168C0
:100D6000200002F088F9B34B1B78002B01D0019EC4
:100D70005BE42B68029A1C121340AF4A9B009B58FD
:100D8000043583E4AB4BA4001B783F1B002B01D040
:100D9000019E4AE42B68029A1C121340A64A9B004B
:100DA0009B58043572E401F03BFF01F095F83B1FBE
:100DB0001868002823D1083B1868C30701D54010E4
:100DC00016E083070FD104280DD90F2302681340C2
:100DD000062B02D1FFF748FB0AE0052B03D1FFF7F2
:100DE00043FB800004E01922924B019E1A701CE420
:100DF0003A0001214300083A0B43136001E0401020
:100E00000138002832DD012243001343391F0B60F3
:100E10003B00083B1B681341181A3B000C3B1B6846
:100E2000134203D08018A400904015E0990717D111
:100E3000042B15D90F211E683140062906D1013037
:100E40008000C358019AA400A35010E0052907D1DF
:100E500018180079A4004000019B1043E05006E000
:100E60001922744B019E1A70FFF7DFFB0435714B9A
:100E70001B78002B02D0019EFFF7D7FB2B68029A4C
:100E80001C1213406C4A9B009B580435FFF7FEFB75
:100E9000A300069AFB189B1ADB2B01DC012205E05C
:100EA0001A22644B019E1A70FFF7BFFB631E002CD1
:100EB00003DD3A601C000437F8E75E4B1B78002B1B
:100EC00002D0019EFFF7B1FB2B68029A1C1213405F
:100ED000594A9B009B580435FFF7D8FBA3009C465A
:100EE000F81A002C04DC1C22524B00261A7015E064
:100EF000002103685B1001268A008258164003D146
:100F00000D224C4B1A7009E05210934200DD130081
:100F100001318C42EFDC01265B001E436346FF1A61
:100F2000444B06601B780437002B02D0019EFFF76C
:100F30007CFB2B68029A1C1213403F4A9B009B5873
:100F40000435FFF7A3FBA3009C46F81A002C04DC31
:100F50001C22384B00261A7015E0002103685B1034
:100F600001268A008258164003D10D22314B1A7097
:100F700009E05210934200DA130001318C42EFDC99
:100F800001265B001E436346FF1A2A4B06601B784E
:100F90000437002B02D0019EFFF747FB2B68029A13
:100FA0001C121340244A9B009B580435FFF76EFB2C
:100FB0003B00083B1868FFF749FA3B1F049018688C
:100FC000FFF744FA049AA600BC1B0023824200DA11
:100FD00004332360174BBF1B1B780437002B02D050
:100FE000019EFFF722FB2B68029A1C121340124A43
:100FF0009B009B580435FFF749FBA300FE1A04939E
:101000003B00083B1868FFF721FA3B1F04001868F3
:10101000FFF71CFAE20FC317A04253419B00336055
:10102000049BFF1A034B04371B78002B0CD0019E46
:10103000FFF7FBFA70020020F497000080EE360004
:10104000780200207C0200202B68029A1C121340B8
:10105000D14A9B009B580435FFF718FB3B00083B27
:1010600018683B1F1968A300884202D1FB1A0422AA
:1010700022E004281ED90122104201D0114219D1C8
:101080000326304215D10F2302681A40042A10D1DA
:1010900031420ED104290CD90A681340042B08D11F
:1010A000FFF7EEF9431E9841A600BE1B800030609A
:1010B00003E0A3000022FB1A1A60B84BA4001B78BF
:1010C0003F1B0437002B02D0019EFFF7AEFA2B68BE
:1010D000029A1C121340B04A9B009B580435FFF73C
:1010E000D5FA3B00083B18683B1F1968A3008842EB
:1010F00002D1FB1A002223E004281FD9012210424A
:1011000001D011421AD10326304216D10F230268B2
:101110001A40042A11D131420FD104290DD90A688D
:101120001340042B09D1FFF7ABF903005842584193
:10113000A600BE1B8000306003E0A3000422FB1A5F
:101140001A60964BA4001B783F1B0437002B02D07B
:10115000019EFFF76AFA2B68029A1C1213408E4A0E
:101160009B009B580435FFF791FAA300FE1A0493E5
:101170003B00083B1868FFF769F93B1F040018683B
:10118000FFF764F9E217C30F844253419B003360B9
:10119000049BFF1A814B04371B78002B02D0019E61
:1011A000FFF743FA2B68029A1C1213407A4A9B00FD
:1011B0009B580435FFF76AFA3B00083B1868FFF7B5
:1011C00045F93B1F04901868FFF740F9049AA60000
:1011D000BC1B0023824200DD043323606F4BBF1B26
:1011E0001B780437002B02D0019EFFF71EFA2B68F4
:1011F000029A1C121340684A9B009B580435FFF763
:1012000045FA3B1F1B68A400043B591E8B413A1B47
:1012100017009B001360614B04371B78002B02D032
:10122000019EFFF702FA2B68029A1C1213405A4AD9
:101230009B009B580435FFF729FAA300FC1A04937E
:101240003B00083B1868FFF701F93B1F06001868D0
:10125000FFF7FCF836180120049B7600FF1A4F4B6D
:1012600006431B7826600437002B02D0019EFFF74F
:10127000DCF92B68029A1C121340474A9B009B58CA
:101280000435FFF703FAA300FE1A04933B00083B62
:101290001868FFF7DBF83B1F04001868FFF7D6F863
:1012A000241A0120049B6400FF1A3C4B04431B7862
:1012B00034600437002B02D0019EFFF7B6F92B688B
:1012C000029A1C121340344A9B009B580435FFF7C6
:1012D000DDF9A300FC1A04933B00083B1868FFF7F4
:1012E000B5F83B1F06001868FFF7B0F84643012029
:1012F000049B7600FF1A294B06431B7826600437AF
:10130000002B02D0019EFFF790F92B68029A1C1265
:101310001340214A9B009B580435FFF7B7F93B1F48
:101320001868FFF793F8A30006000493FC1A00283E
:1013300003D11F22194B1A700AE03B00083B1868C2
:10134000FFF784F8310005F071F9012640000643EB
:10135000049B2660FF1A114B04371B78002B02D028
:10136000019EFFF762F92B68029A1C1213400A4A89
:101370009B009B580435FFF789F93B1F1868FFF75E
:1013800065F8A30006000493FC1A002808D11F2268
:10139000024B1A700FE0C046F49700007002002064
:1013A0003B00083B1868FFF751F8310005F024FABC
:1013B000012649000E43049B2660FF1AEC4B0437BC
:1013C0001B78002B02D0019EFFF72FF92B68029AA1
:1013D0001C121340E74A9B009B580435FFF756F94F
:1013E0003B1F1868FFF732F8C317C0185840012395
:1013F000A4003E1B370040001843DD4B30601B78D3
:101400000437002B02D0019EFFF70FF92B68029AD8
:101410001C121340D74A9B009B580435FFF736F93E
:10142000A300FE1A07933068012C03D1FFF70EF8D2
:10143000049008E0FFF70AF804007068FFF706F868
:101440000130031B0493049B002B01DC0123049354
:1014500007F0A0FA049905F0CFF90C190121079BB8
:101460006400FF1AC24B0C431B7834600437002B16
:1014700002D0019EFFF7D9F82B68029A1C12134084
:10148000BC4A9B009B580435FFF700F9A4003E1BA3
:101490003000FEF7B1FF3700B54B30601B780437E2
:1014A000002B02D0019EFFF7C0F82B68029A1C1295
:1014B0001340B04A9B009B580435FFF7E7F8A300A0
:1014C000FE1A04933B00083B1868FEF7BFFF3B1F62
:1014D00004001868FEF7BAFF04400120049B640072
:1014E000FF1AA34B04431B7834600437002B02D04F
:1014F000019EFFF79AF82B68029A1C1213409D4A2E
:101500009B009B580435FFF7C1F8A300FC1A049315
:101510003B00083B1868FEF799FF3B1F0600186860
:10152000FEF794FF06430120049B7600FF1A904BC0
:1015300006431B7826600437002B02D0019EFFF77C
:1015400074F82B68029A1C1213408A4A9B009B581D
:101550000435FFF79BF8A300FC1A04933B00083BFB
:101560001868FEF773FF3B1F06001868FEF76EFF52
:1015700046400120049B7600FF1A7D4B06431B78F2
:1015800026600437002B02D0019EFFF74EF82B682F
:10159000029A1C121340774A9B009B580435FFF7B0
:1015A00075F83B1F1868FEF751FFC0430123A400E4
:1015B0003E1B3700400018436D4B30601B780437EA
:1015C000002B02D0019EFFF730F82B68029A1C1204
:1015D0001340684A9B009B580435FFF757F8A30057
:1015E000FE1A04933B00083B1868FEF72FFF3B1FD1
:1015F00004001868FEF72AFF8440012364001C439E
:10160000049B3460FF1A5A4B04371B78002B02D01E
:10161000019EFFF70AF82B68029A1C121340554AE4
:101620009B009B580435FFF731F8A300FE1A049382
:101630003B00083B1868FEF709FF3B1F04001868D1
:10164000FEF704FF0441012364001C43049B346043
:10165000FF1A474B04371B78002B02D0019EFEF780
:10166000E4FF2B68029A1C121340424A9B009B58CD
:101670000435FFF70BF83B000C3B1868FEF7E6FE5D
:101680003B00083B06001868FEF7E0FEF117020079
:10169000C317300005F002F93B1F0490059118684C
:1016A000FEF7D4FE02000498059905F0ABF801237B
:1016B000A4003E1B3700400018432D4B30601B78C0
:1016C0000437002B02D0019EFEF7AFFF2B68029A71
:1016D0001C121340274A9B009B580435FEF7D6FF87
:1016E000A4003E1B3000FEF7A2FD3700204B306007
:1016F0001B780437002B02D0019EFEF796FF2B6863
:10170000029A1C1213401B4A9B009B580435FEF79B
:10171000BDFFA4003E1B3000FEF799FD3700144BBF
:1017200030601B780437002B02D0019EFEF77DFF4E
:101730002B68029A1C1213400E4A9B009B580435DA
:10174000FEF7A4FFA4003F1B3800FEF792FD084BF4
:101750001B78002B02D0019EFEF767FF2B68029AD0
:101760001C121340034A9B009B580435FEF78EFF62
:1017700070020020F4970000A4003E1B3000FEF72A
:10178000AAFD3700E74B30601B780437002B02D0EE
:10179000019EFEF74AFF2B68029A1C121340E24A90
:1017A0009B009B580435FEF771FFA4003F1B3800D7
:1017B000FEF7C8FDDB4B1B78002B02D0019EFEF725
:1017C00034FF2B68029A1C121340D74A9B009B5887
:1017D0000435FEF75BFFA4003E1B3000FEF7ECFD76
:1017E0003700D04B30601B780437002B02D0019EAD
:1017F000FEF71BFF2B68029A1C121340CA4A9B007B
:101800009B580435FEF742FF069A3B1D0493C54CD6
:101810009B1ADB2B04DD1A23019E2370FEF705FFC4
:1018200001F086FE01234000184323783860002B26
:1018300003D0019E049FFEF7F8FE2B68029A1C124B
:101840001340B94A9B009B58049F0435FEF71EFFC6
:10185000069A3B1D0493B34C9B1ADB2B04DD1A2321
:10186000019E2370FEF7E1FE01F058FEAF4B4000F1
:1018700018400123184323783860002B03D0019EC1
:10188000049FFEF7D2FE2B68029A1C121340A64A50
:101890009B009B58049F0435FEF7F8FEA300FB1A3B
:1018A0000493012320001A000499FEF707FEA04CC0
:1018B0002068643001F06EF9002816D0039B21687F
:1018C0005A789C4801F0E5FB15E0A300FB1A04934D
:1018D0002000012300220499FEF7F0FD944C2068BB
:1018E000643001F057F9002802D1043DFEF7B1FE43
:1018F000904801F069FA0123039A137001F00EFE7B
:10190000C8222368D200063353431818039B58603B
:10191000FEF7A0FEA4003E1BFEF748FE3700814BF9
:1019200030601B780437002B02D0019EFEF77DFE4D
:101930002B68029A1C1213407B4A9B009B5804356B
:10194000FEF7A4FEA4003E1B300001F025FE370088
:10195000744B30601B780437002B02D0019EFEF7D9
:1019600064FE2B68029A1C1213406F4A9B009B581E
:101970000435FEF78BFEA4003E1B300001F00EFE86
:101980003700684B30601B780437002B02D0019E73
:10199000FEF74BFE2B68029A1C121340624A9B0012
:1019A0009B580435FEF772FEA4003E1B300001F088
:1019B000F7FD37005B4B30601B780437002B02D0FB
:1019C000019EFEF732FE2B68029A1C121340564A03
:1019D0009B009B580435FEF759FEA4003F1B3800BE
:1019E00001F0FCFD4F4B1B78002B02D0019EFEF74F
:1019F0001CFE2B68029A1C1213404B4A9B009B58FA
:101A00000435FEF743FEA300FE1A310020000493C4
:101A100001F006FE049B3060FF1A424B04371B782E
:101A2000002B02D0019EFEF700FE2B68029A1C12CA
:101A300013403D4A9B009B580435FEF727FEA40047
:101A40003F1B380001F026FE364B1B78002B02D0DE
:101A5000019EFEF7EAFD2B68029A1C121340324ADF
:101A60009B009B580435FEF711FE0121200001F078
:101A7000F9FD2C4B1B78002B02D0019EFEF7D5FD03
:101A80002B68029A1C121340274A9B009B5804356E
:101A9000FEF7FCFD0021200001F0E4FD214B1B7846
:101AA000002B02D0019EFEF7C0FD2B68029A1C128B
:101AB00013401D4A9B009B580435FEF7E7FDA40028
:101AC0003E1B300001F004FE3700164B30601B78DF
:101AD0000437002B02D0019EFEF7A7FD2B68029A67
:101AE0001C121340104A9B009B580435FEF7CEFD94
:101AF000A4003E1B300001F0FFFD3700094B3060B1
:101B00001B780437002B02D0019EFEF78EFD2B6858
:101B1000029A1C121340044A9B009B580435FEF79E
:101B2000B5FDC04670020020F4970000FEFFFF7F65
:101B3000780200207C020020A4003F1B380001F046
:101B4000B5FDE34B1B78002B02D0019EFEF76DFD27
:101B50002B68029A1C121340DE4A9B009B580435E6
:101B6000FEF794FDA4003F1B380002F0D3FAD84BD7
:101B70001B78002B02D0019EFEF757FD2B68029ABE
:101B80001C121340D34A9B009B580435FEF77EFD80
:101B9000A4003E1B300002F067FB3700CC4B3060E6
:101BA0001B780437002B02D0019EFEF73EFD2B6808
:101BB000029A1C121340C74A9B009B580435FEF73B
:101BC00065FDA4003F1B380002F074FAC04B1B787F
:101BD000002B02D0019EFEF728FD2B68029A1C12F2
:101BE0001340BC4A9B009B580435FEF74FFDA400F0
:101BF0003E1B300002F074FA3700B54B30601B78A2
:101C00000437002B02D0019EFEF70FFD2B68029ACD
:101C10001C121340AF4A9B009B580435FEF736FD5B
:101C2000A4003F1B380002F06BF8A94B1B78002B77
:101C300002D0019EFEF7F9FC2B68029A1C12134099
:101C4000A44A9B009B580435FEF720FDA4003F1BCF
:101C5000380002F06BF89E4B1B78002B02D0019EDF
:101C6000FEF7E3FC2B68029A1C121340994A9B0072
:101C70009B580435FEF70AFDA4003F1B380002F014
:101C800065F8934B1B78002B02D0019EFEF7CDFC2C
:101C90002B68029A1C1213408E4A9B009B580435F5
:101CA000FEF7F4FCA4003F1B380002F077F8884BE5
:101CB0001B78002B02D0019EFEF7B7FC2B68029A1E
:101CC0001C121340834A9B009B580435FEF7DEFC30
:101CD000A300FE1A31002000049302F006FB049BCF
:101CE0003060FF1A7A4B04371B78002B02D0019E1C
:101CF000FEF79BFC2B68029A1C121340754A9B004E
:101D00009B580435FEF7C2FCA300FE1A31002000E8
:101D1000049302F002FB049B3060FF1A6C4B043703
:101D20001B78002B02D0019EFEF77FFC2B68029AE5
:101D30001C121340674A9B009B580435FEF7A6FC13
:101D4000A300FE1A31002000049302F0A8FA049BBD
:101D50003060FF1A5E4B04371B78002B02D0019EC7
:101D6000FEF763FC2B68029A1C121340594A9B0031
:101D70009B580435FEF78AFCA300FE1A31002000B0
:101D8000049302F0A5FA049B3060FF1A504B04370D
:101D90001B78002B02D0019EFEF747FC2B68029AAD
:101DA0001C1213404B4A9B009B580435FEF76EFCF7
:101DB000A4003F1B380002F019F8454B1B78002B9C
:101DC00002D0019EFEF731FC2B68029A1C121340D0
:101DD000404A9B009B580435FEF758FCA300FF1AAD
:101DE0003900200002F0B8F8394B1B78002B02D0E4
:101DF000019EFEF71AFC2B68029A1C121340354A0A
:101E00009B009B580435FEF741FCA4003E1B3000AC
:101E100002F06EF837002E4B30601B780437002B31
:101E200002D0019EFEF701FC2B68029A1C1213409F
:101E3000284A9B009B580435FEF728FCA300FF1A94
:101E40003900200002F032F8214B1B78002B02D021
:101E5000019EFEF7EAFB2B68029A1C1213401D4AF2
:101E60009B009B580435FEF711FCA300FF1A3900B4
:101E7000200000F011FE164B1B78002B02D0019EB3
:101E8000FEF7D3FB2B68029A1C121340114A9B00E9
:101E90009B580435FEF7FAFBA300FE1A3100200020
:101EA000049300F0F9FD049B3060FF1A084B0437DF
:101EB0001B78002B02D0019EFEF7B7FB2B68029A1D
:101EC0001C121340034A9B009B580435FEF7DEFBAF
:101ED00070020020F497000009B0F0BD0023F7B5B0
:101EE0005A1E0192002B07DA01F0B6FD01F048F806
:101EF00001F0F4F86423019300263000194B1968AF
:101F00008E4201DB019BEBE7174B1A6801329142CD
:101F100000DC0022F0241A601D68144F6C43E35D5E
:101F2000002B1DD0E419022B16D0012B0ED1002856
:101F300001D101F0F3FAF0226A430C4B0C499B18D3
:101F40005B68C31A8B4201D80223BB54F0235D4364
:101F5000064BEB5C022B03D12000FEF73FFBD1E7E1
:101F60000136CBE77402002000000020841100201D
:101F70009F860100064B01201A68064B06491A602D
:101F8000C82200235200C85004339342FBD170474B
:101F9000C8050020C0050020DC22002000B59BB051
:101FA0000200054901A806F075FD01A800F028FF10
:101FB00001F094F8FCE7C046349A000037B5184D9C
:101FC00004002868002801D006F058F9A400200079
:101FD00006F04AF92860002801D1124809E001AB57
:101FE000984208D2104B02196B440193934202D2DB
:101FF0000E48FFF7D3FF042802D808302860083CB9
:102000002B680B4A1C1913600A4BC8221C60012064
:10201000002309495200C85004339342FBD137BD15
:10202000C8050020459A00001CFCFFFF759A0000BF
:10203000C0050020C4050020DC22002070B50D4D35
:102040000D4E2B684C1CA40036681C19B44203D9F1
:102050000A20FEF7A5FA0BE02C601D00AC4201D966
:1020600004C5FBE70F22090110400843186018005F
:1020700070BDC046C0050020C40500200322CB1C53
:1020800070B50C00D9171140C9180500891000223D
:102090000420FFF7D3FF0023A34204DAE95CC2184F
:1020A00011710133F8E7E1430023C91721404118BA
:1020B0000B7170BD10B5830706D1042804D90F2316
:1020C00004C81340042B03D00E20FEF769FA014820
:1020D00010BDC046049C000070B501240B680D00C3
:1020E0001C4001D05C1002E00D20FEF759FA2000E0
:1020F00004F014FD264904F0FDFB05F0D7FF02F0C3
:10210000E1FB0022234B05F08BF90023002204F0B1
:10211000BBFB01242B681C40002819D0002C01D0E7
:102120005C1002E00D20FEF73BFA200004F0F6FC04
:10213000174904F0DFFB05F0B9FF02F0C3FB0022F2
:10214000144B05F06DF90022134B04F02FFD18E03D
:10215000002C01D05C1002E00D20FEF721FA2000D7
:1021600004F0DCFC0A4904F0C5FB05F09FFF02F017
:10217000A9FB0022074B05F053F90022064B05F09E
:10218000C9FB05F01BFF01234000184370BDC0468A
:10219000D30237390000D0400000E03F10B5034AB9
:1021A0000121034800F064FC10BDC046040000207B
:1021B000E09A000030B502248025094B094AED0061
:1021C0009C505C59002CFCD0A124E400884204D22D
:1021D0008025ED0018514019F8E70021995030BDD5
:1021E00000E001400405000010B5002804D1E02003
:1021F0009C210002890203E09C2080218002C90208
:10220000FFF7D8FF10BD002802D09C239B0201E0FD
:10221000E0231B021B6800201A0E532A01D11B0267
:10222000180A704730B501248025064A064BED0098
:10223000D4505459002CFCD001600021014AD150E7
:1022400030BDC04600E001400405000010B5002884
:1022500002D09C20800201E0E0200002A6230902B7
:10226000DB05090A1943FFF7DDFF10BDF0B50124B6
:10227000802503000F4F08000F49ED007C507C596A
:10228000002CFCD09C46002810DD547816789378FA
:10229000240234431B0423431C00D37801381B065B
:1022A0002343644608C40432A446ECE700237B5071
:1022B000F0BDC04600E001400405000070B5050017
:1022C0004B680A009C1C2100FFF7D0FFA0002818D3
:1022D00070BD0000154B1B68002B04D080219C238F
:1022E000C9029B0203E09C21E02389021B02002813
:1022F00007D1191D5B6802001B0E522B14D10A0076
:1023000012E0002281420FD903681B0E522B0BD121
:10231000436802339B00C318994205D91A68110E0D
:102320000022522900D11A0010007047CC0700206B
:1023300070B50020FFF7CEFFFF260500002808D06B
:1023400003681C143440FFF7C5FFDA2CF6D10500F2
:10235000F4E7280070BD0000F0B50020B7B00024FD
:10236000FFF7B8FF270005002600002D20D0FF2230
:102370006B6828689C460233FF180312013613402D
:1023800011009C4200DA1C0002140A4003926246CB
:10239000014001920091039A1B4904A806F07AFBC0
:1023A00004A800F02DFD2800FFF794FF0500DCE7EE
:1023B000164D2868FFF727FF3B00320001901449B3
:1023C000009404A806F066FB04A800F019FD114B68
:1023D0002A681B68002A02D09C22920201E0E022B7
:1023E0001202C8219A1AD3179B059B0D9B1849020C
:1023F0009B12009104A8084906F04CFB04A800F0C9
:10240000FFFC37B0F0BDC046F69A0000CC070020B4
:102410000A9B0000D00700204E9B00008022F0B5F0
:102420005200A1B00021744805F03BFF802200213A
:102430005200724805F035FF714C23681A0003936F
:1024400053425A4110000492FFF7CEFE039B0594BD
:10245000002B01D16B4C00E06B4C0020FFF768FFB4
:10246000051E00D19DE0FF212A6813140B401212B3
:1024700011401A000A3A0291092A45D85E4B595C6C
:10248000002900D089E01022604805F00AFF2E00E4
:10249000FF2133681A120A400299914219D1FF2193
:1024A0001A140A400B2A06D0132A0DD00A2A10D17A
:1024B000564B1E600DE0FF221340022B09DC534AED
:1024C0009B00D3185E6004E0102200214F4805F005
:1024D000E8FE3000FFF7FEFE061ED9D14B4B19680F
:1024E00000290FD02000FFF7E9FE0400484E494FB5
:1024F0003168002903D02000FFF7E0FE0400043615
:10250000B742F5D13C4B45E01A00143A092A44D8A9
:102510003A4A0299525C002A3FD1142B04D0152B61
:1025200005D12E00170004E02F00160001E0160070
:1025300017002800FF2103681A140A40152A0FD03B
:102540001D2A02D0142A12D102E0002637000EE024
:10255000FF221B121340029A9A4208D1070006E09C
:10256000FF221B121340029A9A4200D10600FFF785
:10257000B1FE0028DED1002F04D020003900FFF783
:102580009DFE0400002E04D020003100FFF796FECF
:1025900004001A4B0121029A99542800FFF79AFE71
:1025A0005EE70398FFF72FFE411C0498FFF74EFEED
:1025B000059B049A184D1A602C6001F0FBF8059AEF
:1025C0002B681268002A02D09C22920201E0E022CD
:1025D0001202C8219A1AD3179B059B0D9B1849021A
:1025E0009B12009107A80D4906F054FA07A800F0C5
:1025F00007FC21B0F0BDC046CC060020CC05002071
:10260000CC0700200470020004E000006C240020CD
:10261000702400207C240020D00700203F9B000075
:1026200070B50020FFF7EFFD04000120FFF7EBFD80
:10263000844200DA04000A4B1E6875427541280086
:102640001D60FFF7D1FD002E01D0064B00E0064BC8
:10265000064A2800611C1360FFF7F8FD70BDC046F4
:10266000CC07002004E0000004700200D007002026
:10267000F8B50020FFF7C7FD07000120FFF7C3FDF5
:102680003E00224D0643224C0CD18021E020C9029D
:102690000002FFF78FFD01213000FFF7D7FD2E600C
:1026A0001C4B2FE0874208DD00239C212B60194B37
:1026B000890223602368002011E0012380212B6020
:1026C000154BC9022360F5E71A68551C18D0120E85
:1026D000522A07D101205A68023292009B188B427D
:1026E000F2D311E0002800D023600C4C0C492000EC
:1026F00006F0FCF9200000F023FFFFF791FF04E053
:10270000002802D0236000E02160F8BDCC07002043
:10271000D007002004E0000004700200B82400206C
:10272000699B0000F0B585B0039203220333DC17E8
:1027300014402A4EE3189C10336801900291002B3C
:1027400002D08022D20201E09C229202244FA51CDA
:102750003B68AD005B199A4217D2FFF75FFE336802
:10276000002B02D08022D20201E09C2292023B6820
:102770005B199A4209D21B4C1B49200006F0B6F99E
:10278000200000F0DDFE002026E0029B3E681B06D4
:10279000190C6B461A7BA423DB051343019A0B43E8
:1027A0001104FF221204114019433000FFF73AFDD3
:1027B0003300301D0833210001933B60FFF732FDE9
:1027C000002C04D00A9A21000198FFF74FFD300039
:1027D000019B083D5D193D6005B0F0BDCC070020B0
:1027E000D0070020B8240020929B000070B59AB05A
:1027F000FFF73EFFFF22264CD2000021200005F00B
:1028000050FD002000F064FF042804D1002000F0F7
:1028100073FF042831D00020FFF78AFDFF25002632
:1028200000281AD003681A142A400A2A08D11A125A
:102830002A40FF2A0ED0D200A1180B71A05009E047
:10284000132A07D11B122B40FF2B03D0DB00E21809
:102850001671E650FFF73EFDE2E7FF210200C900D6
:10286000235808305D1EAB41D2188842F8D109497F
:1028700001A806F00FF901A802E0FFF7D1FE064813
:1028800000F0BEFA054800F0BBFA1AB070BDC046B1
:10289000E41A0020B99B0000D59B0000CD9B0000EE
:1028A00000207047012070470048704794240020A2
:1028B0000048704733F8FFFF10B50449044806F09C
:1028C00015F924230348036010BDC046989C0000FE
:1028D000802400207C2400200020704700207047C6
:1028E000002070470020704700207047002070478C
:1028F00000207047002070470020704710B5034A41
:102900000E21034800F0B4F810BDC0460C000020B2
:102910009D9C0000044A05491368C85401339B0577
:102920009B0D13607047C046D80B0020D4070020D1
:10293000114A70B51368114C984211DA015D451CBB
:10294000FA39012906D8AB4206DD21184978013948
:102950001F2901D92800EFE70100251A461C02D1E2
:102960000023136006E0665C6E5401318B42FADC92
:10297000181A106070BDC046DC0B0020E40B00206C
:1029800010B500F0CBFD064B1A68904201D2002230
:102990001A601B68C01A034B83428041404210BD3D
:1029A000E00B0020204E000010B5094C094A2368B6
:1029B000126893420BD0084AD05C00F0F3FE002866
:1029C00005D0236801339B059B0D2360EDE710BD07
:1029D000E40F0020D80B0020D407002010B504001D
:1029E000064B074A1B6812689B1ADB439B059B0D2D
:1029F000A34202DAFFF7D8FFF2E710BDD80B0020A0
:102A0000E40F0020F7B506000191151E2FD057687E
:102A1000B800441C0630FFF7E1FFFB20FFF77AFF08
:102A20001C20FFF777FFF0B2FFF774FFE0B224122B
:102A3000FFF770FFE0B2FFF76DFF6B461879FFF705
:102A400069FF0026BE4212DAB300EB189C6801361B
:102A5000E0B2FFF75FFF2012C0B2FFF75BFF201468
:102A6000C0B2FFF757FF200EFFF754FFEAE7F7BDAC
:102A700070B5074D2C68092C08DC0C236343054E08
:102A800001349851F31859609A602C6070BDC046AB
:102A9000E80F00201C250020F0B589B004900E003E
:102AA00001284BDD284B08680293830709D10428CD
:102AB00007D90F2302681340042B02D1FFF7FAFA5B
:102AC0000290214B70680393830709D1042807D92A
:102AD0000F2302681340042B02D1FFF7EBFA039097
:102AE00000271A4B1A4D1B680593059B9F4225DA58
:102AF0002B1F0299186805F0EFFF00281BD12B68E7
:102B00006C6806930190019B069A934213DA206841
:102B10000399079405F0E0FF0834002807D131003D
:102B20000498079B08315B680238984709E0019BCD
:102B300001330193E7E701370C35D6E71B20FDF79A
:102B40002FFD09B0F0BDC046049C0000E80F002036
:102B50002025002010B501F073FA00F0E3FDFFF727
:102B60001DFB00F061FEFFF7C9FE01F0C7FA01F09E
:102B70004BFC10BD962210B512010021034805F050
:102B800090FB0022024B1A6010BDC0468411002049
:102B900074020020064B074A1B6812689B1ADB432D
:102BA0009B059B0D0122834200DC00221000704730
:102BB000D80B0020E40F0020F8B505000C0016002B
:102BC0001F1E0ED10320FFF7E5FF002827D0FA20B3
:102BD000FFF7A0FEE8B2FFF79DFEE0B2FFF79AFE16
:102BE0001DE0501DFFF7D6FF002818D0FB20FFF78F
:102BF00091FEE8B2FFF78EFEE0B2FFF78BFEF0B277
:102C0000FFF788FE3012C0B2FFF784FE3C00E31BE2
:102C10009E4204DD2078FFF77DFE0134F7E7F8BD22
:102C200070B50024F0250B4B1B689C420EDA2A007D
:102C30006243094BD3181A78002A05D0597800232B
:102C400011201A00FFF7B8FF0134ECE7FFF792FFFD
:102C500070BDC04674020020841100200123F3B52A
:102C60000400FFB00D0010001A420DD002AA13702C
:102C7000431002A9537042121B0E40148A700B714C
:102C8000C8700B00052273E0032313401ED1042AF1
:102C90001CD90F2201680A40042A17D1023302AA64
:102CA0001370FFF707FA060005F028FFF823FF333B
:102CB000984200DD18000023834205DA01335A1ED2
:102CC000B25C02A9CA54F7E7421C50E0042801D0C4
:102CD000002809D1032302AA043813704342434158
:102CE00053701300022243E0002B45D1042843D93E
:102CF0000F2102681140052912D1043302A90B707B
:102D0000F8231209FF3392009A4200DD1A000023D3
:102D100093422BDA0133C118C97802AEF154F7E7B8
:102D2000062929D101390E00120956430196F826C9
:102D3000019FFF36B7421FDC02AE3170013693426D
:102D400013DA0127013399004158394201D0394142
:102D500000E00A49012737700F127170B7700F1425
:102D6000090EF77031710536E9E7019A013202ABBD
:102D700029002000FFF720FF7FB0F3BD19FCFFFF03
:102D800070B5F023050000240D4A18006043801838
:102D90004178A94203D001340A2CF6D10FE0F02289
:102DA000002105F07EFA074A1368013BA34200D1D7
:102DB0001460002329001A001120FFF7FDFE70BDEA
:102DC000841100207402002010B5B2B002236A46BC
:102DD0000400137005F092FEC72800DDC720002311
:102DE000834205DA694601335A1EA25CCA54F7E7EA
:102DF000421C6B46FE211420FFF7DEFE32B010BDF0
:102E000030B5B3B002236A460500137005F076FEB4
:102E1000041EC72C00DDC7240023A34205DA69463F
:102E200001335A1EAA5CCA54F7E720003230FFF77C
:102E3000D5FD621C6B46FF211420FFF7BDFE33B0A9
:102E400030BD0000F7B5234B06001B68F02000934F
:102E500000232149009A93420ADA02005A438A1851
:102E60005478B44202D11278002A31D10133F1E70B
:102E70000024F0231A00624301920199164A551862
:102E80002F78002F06D001340A2CF3D11348FFF716
:102E9000B7FF1DE0F0223900280005F002FA0223F6
:102EA0000D4A0199EB6053540D4AF1008A58009B7A
:102EB0006E70AE70AA602F616F61A34202DC054B99
:102EC00001341C60002331001A001020FFF774FE4B
:102ED000F7BDC0467402002084110020589D0000F8
:102EE000E41A002010B5FFF79BFE0024064BE20019
:102EF000D3181B79043B012B02D8E0B2FFF7A2FFE5
:102F00000134FF2CF2D110BDE41A0020F7B50E00F9
:102F100000247F250190194BE200D1180979062978
:102F200001D0032926D1985883682B401C2B21D12E
:102F3000C3681A002A40042A1CD102692A40192AAF
:102F400018D11B0A01339B000C30C018FFF7B2F8F0
:102F5000070005F0D3FD0023B0420BD19E4206DDF1
:102F6000019AF95CD25C914204D10133F6E7E0B2F8
:102F7000FFF768FF0134FF2CCDD1F7BDE41A002024
:102F800070B500F0CBFA184B1A68904201D20022BB
:102F90001A601A681549821A8A4223D918600020DB
:102FA00000F096FB44424441604207240443002061
:102FB00000F0A2FB002810D0082600250C4BEA00E8
:102FC000D3181B799C4201D0B34202D1E8B2FFF77B
:102FD00039FF0135FF2DF1D104E0631C02D0012639
:102FE0007642EAE770BDC046D40B00200F270000F0
:102FF000E41A002037B500240500FFF711FE01A8F0
:10300000019400F053FB200000F090FE00F024FD3E
:1030100000F086FB00F085FB00F060FF00F0AAFAEC
:10302000A54204D0FEF7A6FF0148FFF7E9FE37BD31
:103030006D9D0000002310B501001A001120FFF75C
:10304000BBFD10BD07B56B46197069465A70131267
:103050008B701314120ECB700A716B46010005229F
:103060001320FFF7A9FD07BD10B50A0001001220CB
:10307000FFF7F4FD10BD70B5050008000C003230FC
:10308000FFF7ACFC2B00220000211B20FFF794FD72
:1030900070BD10B50C000300110014202200FFF7D2
:1030A0008BFD10BD70B506000020FFF713F900245A
:1030B000FF25002810D003681A142A40152A05D1CC
:1030C0001B122B40B34204D1040002E01D2A00D1A0
:1030D0000024FFF7FFF8ECE7200070BDF0B5802773
:1030E0009DB0FFF761FCC24DC24C2868FF00391A41
:1030F000201800F03DFB2B680600C3182B60002B46
:1031000000D1EDE1002E0DDD2868391A201800F0FD
:103110002FFB2B6806001B182B6000F0FFF9B64B45
:103120001860EFE72378FA2B00D01EE12B68022B02
:1031300006DCFFF725FC002800D1D1E10120CAE11F
:103140006078A5780238182800D90CE103F0DAF984
:1031500019002A002E00320035003E000B01490004
:1031600073007B0081009500E600F7000B010B0166
:103170000B010B010B010B010B010B010B010B01EF
:103180000501FF2D00D1EEE02800FFF7F9FD002238
:103190009A49EB005A50CB181A712900009213007B
:1031A00013204DE02800FFF74DFEDCE02800FFF77C
:1031B000E7FDD8E0FFF796FED5E0FFF731FD0020F0
:1031C000FFF718FF8E48FFF71BFECCE0632D00D9F8
:1031D000C9E08C4BAA00D25829001520FFF73EFD0C
:1031E000C1E000242000FFF75DFF071E03D101347A
:1031F000642CF7D1B7E0083005F080FC06000530FC
:10320000FFF7ECFBFB20FFF785FB1D20FFF782FBA0
:10321000E0B2FFF77FFBF0B2FFF77CFB3012C0B2E9
:10322000FFF778FB0025AE42E1DD7B19187AFFF746
:1032300071FB0135F7E700211D200B000A0000910A
:10324000FFF770FA8FE00022290000921300272078
:10325000F6E700F07DF903AC6B4A642100906B4BFC
:10326000200005F0E5FB02232000237005F046FC5A
:10327000230002000021162073E000245F4AE300CF
:10328000D558002D46D06B689E00701DFFF7A6FB39
:103290002B0000253200083321000120FFF78CFCB1
:1032A0000020FFF717F82E002F0000281DD0FF2167
:1032B00003681A120A40A24214D11A140A400B2AB7
:1032C00007D10B400DD0012B09D0022B00D105E115
:1032D00008E0132A06D100252E002F0002E0060088
:1032E00000E00700FEF7F6FFDFE7002E04D0320013
:1032F00001212000FFF786FB002D04D02A000221C7
:103300002000FFF77FFB002F04D03A0000212000AF
:10331000FFF778FB0134FF2CB0D124E00024FFF745
:103320007FFC2200210000942300DA20FFF7FAF945
:10333000FF222100D200314804F0B3FF13E0012D39
:1033400002D1FFF709F80EE0022D02D1FFF766F86F
:1033500009E00120FFF74EFE05E0002329001A00D6
:103360001A20FFF729FC0320B5E0FB2B00D0E5E68F
:103370002A68042A00DCDCE62679E078244B360251
:1033800006439E4200DDD9E6331D9A4200DCD0E6BA
:10339000E35CFE2B00D0D1E66078A578731E1C2874
:1033A00068D007D8082835D01B285ED0012800D067
:1033B00090E007E01E2800D17EE066D31F2800D1F0
:1033C00080E087E0FF2D00D184E02800FFF7D8FCE3
:1033D00067790634B31E290000943A000A20FFF7EB
:1033E000A1F9064BED00E8505D192F7172E0C0465F
:1033F000DC0B0020E40B0020E00B0020E41A00208E
:103400007C9D0000DC220020939D00008E9D00002A
:10341000F6030000632D5DD86079022813D00328DD
:103420001BD0012856D1A71D7A78A479BB78120247
:1034300022431B0413431A00FB78AD001B06134301
:103440005B0003430EE0002B44DDB11EA01DFEF720
:1034500015FE244BAD00E8503CE0A379AD005A1EA8
:1034600093419B001F4AAB5034E0601D1900FFF7E9
:103470004DFD2FE0FF2D2DD06279022A2AD8063487
:10348000B31E009429000B2022E0632B00DD632390
:10349000002203A8934204DDA11849798154013226
:1034A000F7E7D9430022C917194041180A700133C0
:1034B0000090290015200BE005340094002229001B
:1034C0001E2005E0042B05D10022290005340094BC
:1034D000FFF728F9701DFFF72BFA01E0050001E75F
:1034E0001DB0F0BDDC220020002070470020704796
:1034F000002070470020704701220020054B06493C
:103500001A6158500330043158508018083158500F
:103510001A60704700800040040500000122034B40
:103520001A64A822D20098587047C0460080004014
:1035300010B5FFF7F3FFFA21890002F0EDFF10BD8F
:1035400010B50100014802F087FD10BD10110020E8
:1035500000487047A49D000070B5054E0400335C20
:103560000D008B4202D002F09FFC355570BDC04665
:10357000EC0F002070B50024064D635D012B05D1D2
:103580000021200002F090FC0023635501341A2C26
:10359000F2D170BDEC0F00200D2070473520704730
:1035A000036870B55B100120052B12D8094A9B00F7
:1035B0009C58094D2B5D002B05D00021200002F006
:1035C00073FC00232B55200002F018FB0123400060
:1035D000184370BDD09D0000EC0F002070B503684B
:1035E00045685C106D1004D40B4B9D4202DD1D003C
:1035F00000E00025192C0DD8084E335D012B05D0B5
:103600000121200002F050FC012333552900200045
:1036100002F082FB70BDC046FF030000EC0F0020EB
:103620000B6870B55D10192D16D80024012804DD33
:103630004C68043C624262415400094E735D9C42F6
:1036400004D02100280002F02FFC7455280002F05D
:103650005FFC0423012800D00023180070BDC04681
:10366000EC0F002070B504000D0019280ED8084E8C
:10367000335C012B04D0012102F016FC01233355E9
:10368000290020004D1EA94102F02CFC70BDC0464F
:10369000EC0F0020436810B5191F4A424A410068E8
:1036A00011004010FFF7DEFF10BD000037B569467E
:1036B0000200064B684630CB30C11368042B02D1A0
:1036C00000F044FB01E000F069FB37BD9C9D000069
:1036D00010B5084C237D002B05D00021142002F0EA
:1036E000E3FB00232375142002F012FC43425841EF
:1036F000800010BDEC0F002010B5084CA37D002BFE
:1037000005D00021162002F0CFFB0023A375162060
:1037100002F0FEFB43425841800010BDEC0F002038
:103720007047704710B5034A04210348FFF7A0F91A
:1037300010BDC0467C000020AD9C0000E12110B50A
:103740004902094802F0CFFCFFF7D6FE0A2002F03A
:103750004FFA0023FF21054A995401331A2BFBD15C
:1037600000F0BCFB10BDC04610110020EC0F002083
:10377000F8B50B4E070030000D0002F0F3FC041EFC
:10378000AC4200DD2C003D00EB1B9C4205DD30000F
:1037900002F0F2FC28700135F6E72000F8BDC046C3
:1037A0001011002010B50100014802F0A3FC10BD6B
:1037B0001011002010B5054C200002F0A9FCE121F9
:1037C0002000490202F08FFC10BDC04610110020FD
:1037D0000020704710B51E20FCF7E2FE10BD10B5AA
:1037E0001E20FCF7DDFE10BD10B51E20FCF7D8FE34
:1037F000002010BD10B51E20FCF7D2FE002010BD29
:1038000010B51E20FCF7CCFE10BD10B51E20FCF735
:10381000C7FE10BD10B51E20FCF7C2FE10BD10B5CE
:103820001E20FCF7BDFE10BD10B5034A0921034858
:10383000FFF71EF910BDC0469C000020E89D000067
:103840000123034A1360034A1068984018437047E5
:1038500010100020181000201E2800D91A20084B34
:103860008000C25801239340064A07491360074A63
:103870001160074A07491160074A13607047C04644
:103880001CA300000C100020080500502810002088
:10389000201000200C05005018050050F0B5EFF383
:1038A00010810123194083F31088134E134AB44644
:1038B0001268013A9340124A1468124A1568124A73
:1038C000002B15D0166803420BD02660C046C046B8
:1038D000C046C046C046C046C046C04616682E60B8
:1038E00004E067463E601668084F3E605B08E7E705
:1038F00081F31088F0BDC04608050050EC000020A0
:1039000028100020201000200C1000200C05005072
:1039100030B585B001AD0C220649280004F0B8FC92
:103920000024285D01210134FFF716FE0C2CF8D18C
:1039300005B030BD749E0000F0B53B4C85B0210051
:1039400003220C31684604F0A3FC210009220F3148
:1039500001A804F09DFCFFF7EBFD344B344CC0187C
:103960002368984201D2002323602568002D3ED1B0
:103970002E006B4604339F5D01213800FFF7ECFDFC
:1039800001360121380002F0ADFA092EF1D10026EE
:103990006B469F5D01213800FFF7DEFD01360021F7
:1039A000380002F09FFA032EF2D1C82080000138BF
:1039B000C046C046C046C046C046C046C046C046D7
:1039C000C046C046C046C046F1D100210520FFF7E1
:1039D000C3FD00266B460021985D0136FFF7BCFD54
:1039E000032EF7D1FFF7A4FD1330206019E0FFF795
:1039F0009FFD23680025984213D3052002F0FEF8AE
:103A00000C4B0D4EC01801D4306000E035603068BA
:103A1000032102F00BFE00230125084A30602360D9
:103A20001360280005B0F0BD749E00001027000050
:103A300008100020C8FEFFFF181000201010002002
:103A400010B50124044001D0441002E00D20FCF721
:103A5000A7FD200010BD00007FB5A44E3368002BE9
:103A60000BD1A34A1268002A07D1A24B1B68002B76
:103A700000D139E1FFF760FF36E19F4D2A68002A47
:103A80002AD19C4A1268002A07D0FFF755FF002868
:103A900000D129E1FFF73CFF05E0954A1268002AB2
:103AA00001D1002BF6D1924B19681A00002911D0D0
:103AB0003468002C0ED101AD0C22904928001C6006
:103AC00004F0E6FB285D00210134FFF745FD0C2CD6
:103AD000F8D109E13368136000210D2002F002FAE9
:103AE00000210E2002F0FEF900210F2002F0FAF969
:103AF0002E68012E56D0022E00D19CE0002E00D060
:103B0000ECE0013631007A4C04202368994302F03E
:103B1000E9F90421236805200B405942594102F07C
:103B2000E1F91021236806200B405942594102F067
:103B3000D9F98021236809010B40594259410C20D1
:103B400002F0D0F98021236809020B405942594103
:103B50000B2002F0C7F98021236849020B4059422B
:103B600059410A2002F0BEF98021236889020B40E6
:103B700059425941092002F0B5F980212368C90250
:103B80000B4059425941082002F0ACF980232168CA
:103B90001B030B4059425941072002F0A3F93100A1
:103BA0000D2099E00221524C072023680B40594216
:103BB000594102F097F90820216801400B00594251
:103BC000594102F08FF980212368C9000B40594206
:103BD0005941052002F086F98021236849010B40F4
:103BE00059425941062002F07DF980212368C9011C
:103BF0000B4059425941042002F074F98021236896
:103C000089030B40594259410A2002F06BF9802385
:103C100021681B040B4059425941092002F062F906
:103C200031000C2002F05EF931000B2002F05AF94D
:103C300031000E2050E020212D4C072023680B403E
:103C40005942594102F04EF94021236808200B40A7
:103C50005942594102F046F98021236809200B405E
:103C60005942594102F03EF98021236849000B4036
:103C7000594259410A2002F035F980212368890010
:103C80000B40594259410B2002F02CF98021236846
:103C900089010B40594259410C2002F023F980213F
:103CA000236849030B4059425941062002F01AF992
:103CB00080212368C9030B4059425941042002F076
:103CC00011F9802321685B040B40594259410520BA
:103CD00002F008F901210F2002F004F92B680321FA
:103CE000581C02F089FD29607FBDC0461C100020D1
:103CF000141000201010002024100020749E0000DA
:103D0000006810B5C30703D5FFF79AFE054B18608E
:103D1000054B1B68002B03D0024B186800F072FBA8
:103D200010BDC0461C100020301000200022054BA2
:103D300010B51A60044B1B68934201D000F060FB81
:103D400010BDC0461C1000203010002070B50500CA
:103D50000068FFF775FE04006868FFF771FE631ED8
:103D60000100042B14D8451E042D11D805226A43E6
:103D7000D318012215009D402B00064805682B43EF
:103D80000360054B1B68002B02D0200000F039FBBC
:103D900070BDC0461C1000203010002070B505001A
:103DA0000068FFF74DFE04006868FFF749FE631ED8
:103DB0000100042B14D8451E042D11D805226A4396
:103DC000D31801229A401300064802689A43064B12
:103DD00002601B68002B03D00022200000F011FBC2
:103DE00070BDC0461C100020301000202C4BF7B5D1
:103DF0001B680400002B03D101204042FFF72CFD7B
:103E000001262468344219D0FF22631018021204DC
:103E10001040FF22611212020A40DBB21043184325
:103E2000204B1B68202B06D1B4401F4BA40EA400CE
:103E3000E35800021843FFF731FD30E00325254029
:103E40002DD1042C2BD90F2322681340062B26D109
:103E5000FF27130901933F04019B9D421FDAAB002A
:103E6000E3185A68324218D0531018023840FF2124
:103E700084460902501208406146DBB208431843E9
:103E8000084B1B68202B06D15200920E064B920065
:103E9000D35800021843FFF701FD0135DCE7F7BDF9
:103EA0000C100020EC000020A09E00000B6810B554
:103EB0000200D80701D5581001E001204042182324
:103EC000012A03DD4A68042A00D10833024A13603C
:103ED000FFF7C2FC10BDC046EC000020012010B569
:103EE0004042FFF7B9FC0020FFF7D8FC10BD0000EE
:103EF0000068F8B5C30702D5FFF7A2FD0BE0830702
:103F000026D1042824D90F2203681A40042A1FD17D
:103F10001B091DD000790300203B5E2B18D8052219
:103F2000002053430B4E9D18043AAB420CD00521A0
:103F300010249F5D3C4200D080180139520064106B
:103F40000029F7D10133F0E701234000184300E0D6
:103F50000120F8BDA09F0000F0B5050085B00868FD
:103F60000C00FFF76DFD0390022D08DD6068FFF780
:103F700067FD0700A068FFF763FD040001E001246E
:103F8000270005236343053B029301232600019389
:103F9000231D9E4234DC3D003B1D9D422BDC731EE5
:103FA000042B23D86B1E042B20D8029B039A591E86
:103FB000019B49191A40204B0AD001228A401968F6
:103FC0000A431A601D4B01221B68002B0ED009E02A
:103FD000012088400100186888431860174B1B684F
:103FE000002B03D03100280000F00BFA019B0135B3
:103FF0005B000193D0E7029B013605330293C7E7CC
:104000003D1D042D15D8012C13D126003300AB40E3
:10401000094A11689943094B11601B68002B04D0B1
:10402000781D0022210000F0ECF901340535062C42
:10403000ECD105B0F0BDC0461C10002030100020AF
:1040400010B5034A01210348FEF712FD10BDC0461A
:10405000E40000208C9E00000120704710B5064C43
:10406000200000F007FB0549200000F027FB01229B
:10407000034B1A6010BDC04654100020801A060081
:104080002C10002010B501210D20FFF765FA012149
:104090000E20FFF761FA00210F20FFF75DFA044CB4
:1040A000200000F023FA1021200000F03BFA10BDA0
:1040B0004010002010B504680D20E30703D56410FC
:1040C000FF2C03D91720FCF76BFA06E0FFF7DAFFA5
:1040D000E1B2024800F048FA002010BD4010002074
:1040E00010B5FFF7CFFF0021034800F03DFA012390
:1040F0004000184310BDC0464010002010B5034AD0
:1041000007210348FEF7B4FC10BDC046F0000020B4
:104110007BA10000F8B5012306681E4205D0456862
:104120001D4202D084681C4201D10D2004E07610AB
:104130006D10802E03D91520FCF732FA1DE01620F1
:10414000FF2DF9D864101720FF2CF5D80B4B1B68F6
:10415000002B01D1FFF782FF094FF1B2380000F0C8
:1041600035FBE9B2380000F046FAE1B2380000F061
:1041700042FA380000F094FB0020F8BD2C1000201B
:1041800054100020F7B501242300A04237DD0A684F
:10419000144234D01B4B55101B684C68002B01D1C6
:1041A000FFF75CFF0127184EE9B2300000F00EFB6C
:1041B0003C4205D03C413000E1B200F01CFA1AE06C
:1041C0000325254017D1042C15D90F23226813404D
:1041D000062B10D113090193019B9D420BDAAB0012
:1041E000E3185968394204D04910C9B2300000F0D0
:1041F00002FA0135F0E7300000F052FB002318000E
:10420000FEBDC0462C10002054100020144B70B589
:104210001B6805000E00002B01D1FFF71FFF114C9A
:10422000EDB22900200000F0D1FAF1B2200000F038
:10423000E2F90021200000F0D5FA002801D0404228
:104240000CE001222900200000F0BBFA200000F061
:10425000C8F90028FAD0200000F0C8F970BDC046A7
:104260002C1000205410002010B5012403682342B4
:1042700002D04168214201D10D2004E058104910BC
:10428000802803D91520FCF78BF907E0FF2901D915
:104290001620F8E7FFF7BAFF4000204310BD10B525
:1042A00007211820FFF7B2FF7F2801DD0138FF3812
:1042B00003007F3301DA7F20404264237F2158438B
:1042C000494202F0B3F9012340424000184310BDB7
:1042D00010B508211820FFF799FFC30F1818012304
:1042E000401015304000184310BD10B505211820AE
:1042F000FFF78CFF7F2801DD0138FF3803007F3393
:1043000001DA7F20404264237F215843494202F072
:104310008DF901234000184310BD10B5032118206A
:10432000FFF774FF7F2801DD0138FF3803007F337A
:1043300001DA7F20404264237F215843494202F042
:1043400075F901234000184310BD0000F8B501269F
:104350003400B04236DD0F683E4233D04D68AB07C3
:1043600030D1042D2ED90F232A681340062B29D1D2
:10437000154B1B68002B01D1FFF770FE002435425E
:1043800004D12B681C09202C00D920240F4E7F104B
:10439000F9B22200300000F014FAA700EF19AF4282
:1043A0000DD0300000F01DF90028FAD0300000F0E8
:1043B0001DF901234000184368600435EFE7012030
:1043C000640004432000F8BD2C100020541000208D
:1043D0000020704700207047002070470020704781
:1043E0000020704700207047002070470020704771
:1043F0000020704700207047002070470020704761
:10440000704770477047000010B5034A0C210348FD
:10441000FEF72EFB10BDC04628010020BCA1000005
:1044200010B5FFF78BF90648FDF7C8FDFEF792FBC4
:104430000448FEF7E5FCFEF7D9F9FEF753FD10BD81
:104440004605000032A2000010B5FDF747FD10BD83
:1044500070B5002504AC24780573A94205D10A4B38
:104460000A4A23210A4803F093FE01600949920099
:1044700052589B0002715B588371A3005B588560A2
:1044800043710223C37170BD87A200004AA20000DD
:1044900095A200001CA30000037B002B04D14373F2
:1044A0008373036101330373704700001FB50191EB
:1044B000A02100240068C900D2B24450012A07D0CC
:1044C000A24203D0032A05D1042202E0022200E026
:1044D00006221343034A8350034B019AC25001231F
:1044E00043501FBD540500002405000010B5040012
:1044F000FFF7D2FFA1222368A179D20099506179F8
:10450000064A20009950217904329950044B1968C9
:104510005A689B68FFF7CAFF10BDC0460C05000033
:10452000341000204BB2002B0CDB80233F290CD829
:104530001F290CD80F290CD807290CD803290CD80F
:104540001B060BE080239B0408E0DB0406E01B0550
:1045500004E05B0502E09B0500E0DB050168014A21
:104560008B507047240500000368074A99501A00D1
:10457000FC32D1680029FCD0A321C900585800237F
:10458000C0B2D3607047C0461C05000007B580224A
:10459000074BD2051A6000229A6002321A71112369
:1045A0000E320093034905330348FFF751FF07BD5F
:1045B000341000200030004040100020F8B5050005
:1045C0000E0017000024BC4208D02B68315D1B6828
:1045D00028009847002801D00134F4E72000F8BDF6
:1045E000704710B51C3001F063FD10BD10B51C30D4
:1045F00001F050FD10BD70B5437E0D00002B05D0BD
:104600006430040001F063FD002801D0002004E0C4
:104610002000290001F02FFD012070BD10B51C30D5
:1046200001F04CFD10BD0000F7B50193FA23002501
:1046300004009B0083600D4B4560083303601C3011
:104640000F00160001F00CFD2000643001F008FDA1
:10465000074AB600B35827616375019B20009B0091
:104660009B586576A576A375FEBDC046FCA20000EA
:104670001CA300000123A022C375837D0C49C13314
:10468000FF33D2059B009950437DC133FF339B001C
:104690009950CC210369074A490499500521243ACD
:1046A0009950817D08329950417D034A9950704755
:1046B0000C060000240500000C050000A023026980
:1046C0000020DB00D0500948814204D908488142CB
:1046D00004D9CD2103E0CC21490401E08021C904A3
:1046E000044811500521D1507047C046A0860100F2
:1046F00090D0030024050000F7B5050000200C0051
:10470000019382425CD0161E402E00D940262F0015
:104710001C37380001F0BAFCB1222B69D20080218D
:104720009C50012289005A50A97E002901D11A62A9
:104730001A600024731E2A69A34206D1019B002B34
:1047400003D0802302219B00D15001231362130068
:10475000FC33D968002902D1996A0029F9D0996AF5
:1047600000290AD1D960A323DB00D1583800C9B28F
:10477000013401F080FCA642DCD8019A2B69002AA2
:1047800004D11A00FC32916A00290AD001210022CA
:10479000AA7659611900FC3188680028FCD08A602B
:1047A00007E00121A976D961D16C0029FCD0002154
:1047B000D164FC339A6A002A01D000229A62E0B2E6
:1047C000FEBD10B50123FFF797FF10BD0300AC330A
:1047D00010B504001970643001F058FC01236376B1
:1047E00010BD0000F8B500220D0001004276AC318A
:1047F000036904000878B121C9005850802189005C
:104800005A5001321A629A6026006436300001F074
:104810004FFC00280ED03000276901F03BFC1E4BF6
:10482000F8502369FC331A6A002A0CD19A6A002ACC
:10483000F9D008E02369002D0AD11A00FC32916AF0
:10484000002905D10EE09A6A002AF3D11A62DBE74B
:1048500001225A611A00FC3291680029FCD0002123
:10486000916006E00121D961D16C0029FCD00021C2
:10487000D1641A000020FC32916A81420BD00749B2
:1048800090625A5802305A50824204D0043A53423D
:1048900053410230C01AF8BD1C050000C4040000DA
:1048A00010B50121FFF79EFF10BD000010B51323C6
:1048B000122202490248FFF7B7FE10BD0040004037
:1048C0005410002030B5214A4B0087B05B0893425A
:1048D0001EDD1F4A934205DD02000B0003F01AF8AB
:1048E00007B030BD02AA00F035F803231840049A3F
:1048F000059B01281ED0022811D000281FD0029845
:10490000039900F02DFA80231B069C466144E7E7DB
:10491000002300220093002300F088FFE0E7012439
:1049200002980399009400F081FF80231B069C46A7
:104930006144D5E70298039900F012FAD0E7012408
:1049400002980399009400F071FFC9E7FB21E93F49
:10495000FFFFEF7FF0B54E4657464546E0B4DC4BCF
:104960004E0090B01700894676089E4200DC81E038
:10497000D84B9E4220DCD84A002900DC89E1D74B85
:1049800002F0C8FFD54B04000D009E4200D18AE022
:10499000D34AD44B02F0BEFF02000B0020003A6065
:1049A0007B60290002F0B6FFCD4ACE4B02F0B2FF89
:1049B000B860F960012066E0CB4B9E4200DC8DE0E0
:1049C000CA4B9E4265DCCA4932158A469244534618
:1049D0001B05F51A2900040003F0F0FA03F024FB8C
:1049E00002000B00200029000A920B9302F092FFB4
:1049F0000022C04B02F014FD0290039103F0DEFA96
:104A000003F012FB04000D0002000B000298039952
:104A10000C940D9502F07EFF0022B64B02F000FDD3
:104A2000002200230E900F9101F00AFF002800D110
:104A30004CE1002300222000290001F001FF0222A6
:104A4000431E9841131AAC4A3900019202220AA867
:104A50000092524600F09EFA4B46002B13DA802259
:104A6000120694467B68404263447B60FB68634463
:104A7000FB6008E002000B003A607B60002200232C
:104A80000020BA60FB6010B01CBC90469946A2465C
:104A9000F0BD02000B0002F03DFFB860F960386025
:104AA00079600020EFE7D3228E4B520502F032FFEF
:104AB000924A934B04000D0002F02CFF02000B0001
:104AC00020003A607B60290002F024FF8B4A8C4B67
:104AD00002F020FFB860F9600120D4E700F056FF33
:104AE000884A894B04000D0002F09AFC0022874B93
:104AF00002F05CF803F062FA804603F095FA764A19
:104B0000764B0690079102F08BFC02000B00200010
:104B1000290002F0FFFE734B02900391069807995B
:104B20006F4A02F07DFC434604000D000494059595
:104B30001F2B30DC013B764A9B009B589E422AD0BB
:104B400002000B000298039902F0E4FE02000B0041
:104B500005000C003A607B60029803992A0023004C
:104B600002F0D8FE049A059B02F0D4FE06000B006A
:104B70003200BA60FB604B464046002B00DB82E708
:104B800080231B069C46644461443D607C60BE609B
:104B9000F960404277E7049A059B0298039902F076
:104BA000B9FE0B0002003A607B604B0036155B0DCE
:104BB00005000C00F31A102BCEDD06980799D322BE
:104BC000484B520502F02CFC04000D0002000B00C3
:104BD0000298039902F09EFE02000B0002980399CE
:104BE0000892099302F096FE22002B0002F092FE3A
:104BF00004000D0006980799404A414B02F010FC52
:104C000022002B0002F086FE02000B0004900591AA
:104C10000898099902F07EFE02000B003A607B6062
:104C20004B005B0DF61A0500089A099B0C000292D6
:104C30000393312E90DD06980799B822304B9205E8
:104C400002F0EEFB04000D0002000B000298039935
:104C500002F060FE0A0001001300029103920200BC
:104C60000898099902F056FE22002B0002F052FE2D
:104C700004000D0006980799264A274B02F0D0FB46
:104C800022002B0002F046FE02000B000492059366
:104C900058E7124B01F08AFF104B04000D009E42B2
:104CA0003CD00F4A0F4B01F081FF02000B002000A7
:104CB0003A607B60290002F02DFE094A094B01F0A1
:104CC00075FFB860F96001204042DCE60323BAE6D4
:104CD000FB21E93F7BD9024000004054FB21F93F12
:104CE0003163621A61B4D03DFB213941FFFFEF7F90
:104CF000EAFBFFFF0000704118A400007370032E50
:104D00008A19A33B83C8C96D305FE43F0000E03FD0
:104D100098A30000C14920259A837B39D3220D4BEB
:104D2000520501F043FF0C4A0C4B04000D0001F04A
:104D30003DFF02000B0020003A607B60290002F07A
:104D4000E9FD054A054B01F031FFB860F96001202B
:104D5000404298E661B4D03D7370032E8A19A33B9C
:104D6000F0B54F464646C0B487B000920193754BEC
:104D70004F00814688467F089F4263DC03F01EF99E
:104D8000002800D1DAE04A4643464846414602F050
:104D900047FB04000D006C4A6C4B02F041FB6C4A6F
:104DA0006C4B01F003FF22002B0002F039FB6A4A32
:104DB0006A4B02F0AFFD22002B0002F031FB684A83
:104DC000684B01F0F3FE22002B0002F029FB664A3B
:104DD000664B02F09FFD22002B0002F021FB644A8B
:104DE000644B01F0E3FE22002B0002F019FB02905D
:104DF00003910022604B2000290002F011FB029A6F
:104E0000039B06000F002000290002F009FB009A16
:104E1000019B04000D004846414602F001FB0200E0
:104E20000B002000290002F075FD02000B0030008D
:104E3000390002F06FFD02000B0000204F4902F024
:104E400069FD70E002000B0002F0EAFA04000D00B8
:104E50003D4A3E4B02F0E4FA3D4A3E4B01F0A6FECD
:104E600022002B0002F0DCFA3B4A3C4B02F052FDE0
:104E700022002B0002F0D4FA394A3A4B01F096FE98
:104E800022002B0002F0CCFA374A384B02F042FDE8
:104E900022002B0002F0C4FA354A364B01F086FEA0
:104EA0002B00220002F0BCFA354B029003919F4286
:104EB0009FDD344B00229F423ADC334900207B18AF
:104EC0002E4916001F0002F025FD049005910022D6
:104ED000294B2000290002F0A3FA32003B0002F027
:104EE00019FD029A039B06000F002000290002F022
:104EF00097FA009A019B04000D004846414602F0D3
:104F00008FFA02000B002000290002F003FD0200CE
:104F10000B003000390002F0FDFC02000B00049889
:104F2000059902F0F7FC07B00CBC90469946F0BD1D
:104F3000164B002604920593154FC8E700200F4931
:104F4000F1E7C046FFFF3F3ED43888BEE9FAA8BD6E
:104F5000C4B1B4BD9EEE213EAD529C804F7E923EC8
:104F60009015CB19A001FA3E7751C1166CC1563F7E
:104F70004C5555555555A53F0000E03F0000F03F0A
:104F80003233D33F0000E93F0000E0FF0000E73F7D
:104F90000000D23FF0B556464D4644465F46F0B459
:104FA0008E4CA544099119001400A89A0B938C4BC0
:104FB0009200D2580B000290013BE01E18211D0008
:104FC00016000892009301F031FBC3430200DB1787
:104FD0001A401300110001330E929A009B1ADB0055
:104FE0001B1906934C1B761918D4A99BA5009C4647
:104FF000361926AF6544013607E0286803F014F837
:10500000013403C70435B44208D0002CF5DA00207F
:105010000021013403C70435B442F6D1089B002BAC
:1050200001DA00F0F9FB76AB19008B4626AA91460F
:10503000089A0A930132D2009344029A9A46904603
:10504000009BDB00994408339844009B002B00DA56
:10505000B5E14C4600260027029D2268636803CD17
:1050600002F0DEF902000B003000390001F09EFD75
:10507000083C06000F004545EFD15346C0C39A4691
:1050800008239C46E144DA45DFD10899554A0B00D4
:10509000944663449B0012A884461A000298624416
:1050A00083460D920B9A0433D200634493440F93CA
:1050B0000591059A0A98D30019000C938C460300B9
:1050C00063441E685F68002A34DD12AB9946130002
:1050D000454A804694466344DB00984474AB9A4644
:1050E0000022424B3000390002F09AF902F066FFCC
:1050F00002F09AFF00223E4B04000D0002F090F9EE
:1051000002000B003000390002F004FC02F056FFF0
:105110004B4601C39946434620001A685B68290044
:1051200001F044FD08235B429C46E04406000F006A
:10513000D045D5D1069B30001A003900994600F0C1
:10514000C1FCFF2300229B0504000D0002F068F95A
:1051500000F020FC0022274B02F062F902000B0055
:105160002000290002F0D6FB04000D0002F026FF0B
:10517000804602F059FF02000B002000290002F0D7
:10518000C9FB4C4606000F00002C00DCF8E0059B34
:1051900018205A1E920012AB9B58001B19000141A7
:1051A000884481405B1A12A98B501722121B1341AD
:1051B0000793079B002B4BDD01239C46059BE04496
:1051C000002B00DCF2E280251096119712AB002133
:1051D000002409486D04059F19E0C04684FDFFFFC7
:1051E00020A50000FEFFFF3FFFFFFF1F0000703EF5
:1051F0000000704100002040FFFFFF00002A02D0A5
:10520000AA1A1A600134013104338F4209DD1A6889
:10521000002CF3D0821A01311A60012404338F422A
:10522000F5DC109E119F069B002B0EDD012B00D19B
:10523000B1E0022B09D1059B12A95A1E920012ABB4
:105240009B5810939B029B0A8B50079B022B7ED08E
:10525000002300223000390001F0F2FA059B0028FB
:1052600000D16BE208995A1E914210DCBF490F9899
:105270008C4612A963448C4600219B0063441C6841
:10528000043B21438342FAD1002900D0B5E0089BBA
:1052900012AA013B9B00D358002B00D084E20122CC
:1052A0000D9B043B596801320029FAD005990B0087
:1052B0008C46013362440792934242DC0E9A944634
:1052C000A99A634492460B9A9B00944626AA90465C
:1052D0009A44059B0A9A6344DB0098440C9B9446CD
:1052E0009946079BE144DB006344059353461868E5
:1052F00002F09AFE434618605960009B002B23DBA6
:10530000444600260027029D2268636803CD02F010
:1053100087F802000B003000390001F047FC083C20
:1053200006000F005D45EFD14B469E60DF60042311
:105330009C460433E2449C46059BE144E044994585
:10534000D4D1079B0593B4E600260027ECE7320092
:105350003B000020864902F0DDFA06000F00002C19
:1053600000D175E7069A0020814900F0ABFB0200EE
:105370000B003000390002F0CDFA06000F0067E79D
:10538000069B002B12D1059B12AA013B9B00D5580E
:10539000EB1507930DE7059B12A95A1E920012AB5D
:1053A0009B5810935B025B0A8B504EE70022714BB7
:1053B00001F06AFA00280ED10023079348E753460C
:1053C00000260027C0C39A4608239C46E144DA45DC
:1053D00000D03AE659E601239C4601330793059B2A
:1053E000E044002B00DDEEE632003B000020604987
:1053F00002F090FA06000F002AE743460B93069B43
:1054000012A8183B190006939300C3580092002B72
:105410000FD156481300844612A8634484469B006B
:105420006344043B5868013A18390028F9D00092C7
:105430000691069A00204E4900F044FB009B0400B0
:105440000D00002B00DAB3E112AA94469F00DB00A6
:1054500067449C460A9A059362449346160038684E
:1054600002F0E2FD22002B0001F0DAFF424B306037
:10547000716000222000290001F0D2FF083E74ABC9
:1054800004000D00043FB342E9D100239A464EAB1D
:105490000293089B99464B4600260027002B21DBF0
:1054A0008020364B5D469846C005354900260027CA
:1054B000002408E008239C460835E044A24511DB9F
:1054C0004346186859682A686B6801F0A9FF020012
:1054D0000B003000390001F069FB013406000F00B9
:1054E000A145E7DA029A53469446DB0063441E6006
:1054F0005F6001239C46093BE2449C4674ABE34455
:105500009B45C8D1029B9946A89B022B00DD82E0F7
:10551000002B37DC1DD1059B00254B441E000024C9
:10552000326873682800210001F040FB009B0500F1
:105530000C00083E5A1E0092F2D2079B002B03D0AB
:1055400080231B069C4664442A00230009990A60B4
:105550004B6007200B9B18409F239B009D443CBC45
:1055600090469946A246AB46F0BDC046FFFFFF3FBE
:105570000000F03F0000E03F0000703E30A500005A
:10558000FB21F93F059B00204B441E0000214CAF3E
:1055900032687368083E01F009FBBE42F8D1079BF0
:1055A000002B24D08023099A1B06CB18106053606F
:1055B0000B0002004E984F9902F0ACF9009B002BB3
:1055C0000BDD012450AD0CCD01F0F0FA009B01344D
:1055D000A342F8DA079B002B03D080231B069C46CE
:1055E00061440B00020009998A60CB60B1E70200B8
:1055F0000B00099C226063600B0002004E984F99DB
:1056000002F088F9009B002BDBDC0B0002000999FB
:105610008A60CB609DE7A89B032B9AD1009B002B4F
:1056200000DCE3E07E4A059B94464B441E685F68BD
:10563000009B63449A46DB004B4498464CAB9B4628
:1056400043465C681B681800210032003B00029052
:10565000039101F0ABFA04000D0002000B00029868
:10566000039902F057F93B00320001F09FFA4346DC
:105670009860D9601C605D6008235B429C46E044F2
:1056800026002F00C345DBD1009B012B00DCADE0E1
:10569000059BC8464B441E685F685346DB009B462B
:1056A000D844434630005C681B683900009301947D
:1056B0001A00230001F07AFA04000D0002000B002A
:1056C0000098019902F026F93B00320001F06EFAD1
:1056D00043469860D9601C605D6008235B429C462D
:1056E000E04426002F00C145DBD15D4600270024A1
:1056F00008354D4450AE2A686B683800210001F02F
:1057000055FA083D07000C00AE42F4D1079B002B70
:1057100071D0099A4E994B461160802109068C463A
:105720005B684946634453604B46DB688968634461
:1057300064449160D360176154610AE79946434617
:105740000B93069B30005A42390000F0BBF900224F
:10575000344B04000D0001F097F8002832D0324B92
:1057600000222000290001F05BFE02F027FC4A46DF
:105770000600970002F058FC00222A4B01F050FE70
:1057800002000B002000290002F0C4F802F016FC11
:1057900012AAD0514A46069B013218330092069352
:1057A000930012AAD65044E601227FE500243AE590
:1057B000A89B022B14DC002B0FDC00D0C9E60025CF
:1057C0000024BAE64B46200029009E0002F0F6FBBA
:1057D00012AB98514B4600932BE600200021DEE6E9
:1057E0004EAB9946A89B032B00D0B2E6079B00273F
:1057F0000024002B8DD14E9A4F9B09990A604B6073
:105800004B469A68DB68009201938A60CB603A004D
:1058100023000A614B619CE676AB0A9335E4C046EF
:10582000FFFFFF1F000070410000703EF0B54F46C3
:105830004646C0B487B000920193464A4B00814669
:1058400088465B08934205DC02F0B8FB4146031E24
:10585000484666D04A4643464846414601F0E0FD88
:1058600004000D0002000B004846414601F0D8FD3F
:10587000394A3A4B06000F002000290001F0D0FD04
:10588000374A384B02F046F822002B0001F0C8FDE1
:10589000354A364B01F08AF922002B0001F0C0FD99
:1058A000334A344B02F036F822002B0001F0B8FDE9
:1058B000314B324A01F07AF90E9B02900391002B92
:1058C00034D00098019900222D4B01F0A9FD029AD5
:1058D000039B049005913000390001F0A1FD020006
:1058E0000B000498059902F015F822002B0001F036
:1058F00097FD009A019B02F00DF8224A04000D006A
:10590000214B3000390001F08BFD02000B0020001C
:10591000290001F04BF902000B004846414601F016
:10592000F9FF07B00CBC90469946F0BD02000B0091
:105930002000290001F074FD124A134B01F0EAFF28
:1059400032003B0001F06CFD4A46434601F02EF95F
:10595000E7E7C046FFFF3F3E7CD5CF5A3AD9E53D49
:10596000EB9C2B8AE6E55A3E7DFEB157E31DC73E10
:10597000D561C119A0012A3F1111813FA6F810116C
:105980000000E03F495555555555C53F49004B0866
:1059900019007047454AF8B5564692464B005B0DD4
:1059A0009A444D465F4644465246F0B48946050047
:1059B0000C000E000700132A22DC002A47DB5246A7
:1059C0003B4B134198460B0042461340034311D012
:1059D000384A394B01F0EAF80022002300F04AFF70
:1059E000002805D0002C41DB4E46434600279E434D
:1059F000380031003CBC90469946A246AB46F8BD03
:105A00005246332A08DD8023DB009A45F2D102009A
:105A10000B0001F0CBF8EDE7284A944601226344DD
:105A20005242DA4093460242E4D0224A224B01F02D
:105A3000BDF80022002300F01DFF0028D8D0002C64
:105A40001ADB5B464E469F4338003100D2E7194AC5
:105A5000194B01F0ABF80022002300F00BFF0028E7
:105A6000C6D0002C16DB00270026C1E78023524653
:105A70005B0313419944B7E75346142B12D03423E8
:105A8000524601279B1A9F407F19AF429B415B42C0
:105A90009944D6E76400640825430027002DA7D069
:105AA000074EA5E7133B9C46E144CAE701FCFFFF14
:105AB000FFFF0F009C7500883CE4377EEDFBFFFF85
:105AC0000000F0BF4B0070B55B0D14000A00002B06
:105AD0001AD14B005B08034315D00022224B01F082
