:1000000000400020314300007143000073430000B2
:1000100000000000000000000000000000000000E0
:100020000000000000000000000000007543000018
:10003000000000000000000077430000794300004A
:100040007B4300007B430000654B00007B430000C6
:100050007B430000000000007B4300007B43000066
:100060007B430000A94500007B4300007B43000068
:100070007B4300007B4300007B4300007B43000088
:100080007B430000094C00007B4300007B430000E1
:100090007B4300007B4300007B4300007B43000068
:1000A0007B4300007B4300000000000000000000D4
:1000B0000000000000000000000000000000000040
:1000C000054B0648033310B51B1A062B03D9044B06
:1000D000002B00D0984710BD3801002038010020C7
:1000E000000000000648074910B5091A8910CB0F17
:1000F0005918491003D0044B002B00D0984710BD6D
:1001000038010020380100200000000010B5074C25
:100110002378002B09D1FFF7D3FF054B002B02D02A
:10012000044800E000BF0123237010BD3801002007
:1001300000000000B0710000094B10B5002B03D087
:100140000849094800E000BF08480368002B02D1B5
:10015000FFF7C8FF10BD064B002BF9D09847F7E713
:10016000000000003C010020B071000034010020BC
:1001700000000000164B002B00D1144B9D4640227E
:1001800092029A1A924600218B460F461348144A4F
:10019000121A04F0A8FF0F4B002B00D098470E4B0B
:1001A000002B00D098470020002104000D000D48CE
:1001B000002802D00C4800E000BF04F051FF2000EE
:1001C000290004F0E7FC04F025FFC0460000080009
:1001D0000040002000000000000000003801002066
:1001E0009C1F0020000000000000000001230340CD
:1001F0000200181E04D1042A03D91068000900E087
:100200000020704710B50400FFF7F0FF0300002046
:1002100083420BD0013B9B00181DE2181279002A83
:1002200003D001338342F8D100E0180010BD012251
:10023000016810B5114201D0002903DA102001F045
:100240000DFE03E04910062001F0BAFE10BD016862
:1002500010B5CB0701D5002903DA102001F0FEFD0F
:1002600006E04910033189100022052001F0A8FEA4
:1002700010BD70B50568AB0728D1042D26D90F2312
:100280002A6846681340062B09D12800FFF7AEFF05
:10029000012383421DDC9A00AE500133F9E7052BA0
:1002A00014D1F30703D4132001F0D8FD12E0761027
:1002B000FF2EF8D82800FFF799FF2C1D230080009F
:1002C0002018984205D91E700133FAE70B2001F07F
:1002D000C5FD002070BD70B50468E30701D411208E
:1002E0002DE04568AB0729D1042D27D90F262B68AF
:1002F00064101E40062E0BD1002C04DD2800FFF7F1
:1003000075FF844201DD122019E0A400605918E055
:10031000331F012B12D82800FFF768FF8000042E3E
:1003200002D12800FFF76EFF002CECDDA042EADBD3
:1003300001232C19E0784000184302E00B2001F063
:100340008DFD70BDF8B5012304681C4201D1112058
:100350002FE00325466835402AD1042E28D90F23E3
:100360003268641087681340062B0BD1002C04DD23
:100370003000FFF73BFF844201DD122019E0A400AA
:10038000A75113E0052B13D1002CF6DD3000FFF749
:100390002DFF80008442F0DC01231F4201D1132095
:1003A00007E07F10FF2FFAD83419E770280002E029
:1003B0000B2001F053FDF8BD006810B5830717D17D
:1003C000042815D90F2302681340062B02D1FFF72A
:1003D0000DFF0BE0052B05D1FFF708FFC00001233F
:1003E000184308E0042B03D1FFF70CFF4000F6E7A9
:1003F0000B2001F033FD10BD10B50324006804404C
:1004000006D1042804D90F2302681340042B01D01D
:100410000E2011E001F010FE0378233B59425941B0
:1004200010224018210005F025FB80239B05C218EF
:10043000054B9A4203D9142001F010FD02E001237C
:100440004000184310BDC046FFFFFF3F10B5012418
:100450000368234202D04268224203D10D2001F0FA
:10046000FDFC08E004495B1052101B070A401343CF
:1004700018684000204310BDFCFFFF0F01210368F6
:1004800010B50B4205D042680A4202D0806808428B
:1004900003D10D2001F0E2FC08E005495B10521089
:1004A0001B070A40401013431860002010BDC046CF
:1004B000FCFFFF0F012303400200181E01D0501063
:1004C00002E00D22014B1A707047C0465401002013
:1004D000012303400200181E04D1042A03D9106826
:1004E000000900E00020704770B50D000400FFF720
:1004F000EFFF86002800FFF7EBFF830000209E42FD
:100500000ED1231D9E1904351A009E4207D9297861
:100510001278013301358A42F6D0002000E0012034
:1005200070BD0000F0B585B00393019002912D4E8F
:100530002D4B002A02D002223270013A00251A60A7
:100540001B68F554019B9D424ADA029AAB00D058D1
:10055000254B1C68C8239B0037191C1B012318421C
:1005600002D04310214A1FE0214A002802D004286B
:1005700005D1204A2100380005F07CF918E0042854
:1005800010D90F2302681340042B04D101F054FD4D
:10059000194A030008E0062B05D1FFF799FF174A17
:1005A000030001E00123164A2100380005F062F93A
:1005B000300005F0C5F9039B0B4A002B01D11060F8
:1005C0000CE0019B013B9D42F9DA0E4B9842F6DCB0
:1005D000431C1360202232540022F2540135B1E74B
:1005E00005B0F0BD600100205C0100204166000004
:1005F000146600001A660000886A00001F6600008A
:10060000306600001F030000C368F0B59D008368DA
:1006100087B05D19030018330393036902909C00AF
:10062000039B1F1943699E000093039B9E19D64BA1
:100630001B78002B0FD17F222B68D4491C1213404A
:100640009B005B5800960435019235E0CE4B1B7839
:10065000002B29D0009E029BCB4C9B6821780093F5
:10066000EA1A029B92109B7812021A43029B587856
:1006700002F034FB0023029A237013700096049753
:10068000029B039A9B68ED1A0193029BAD10DD60FB
:10069000049B9F1A029BBF101F61009B9B1A029A2A
:1006A0009B10536101F0D4FB2B68019A1C1213407C
:1006B000B64A9B009B5804359F46029B587802F02F
:1006C00005FB0023029A1370D9E7039B3A1DD11A48
:1006D000AD4B8B2903DD1A22009E1A70BBE71B78F5
:1006E0003C60002B02D0009E1700B4E72B680199F4
:1006F0001C120B40A5499B005B5817000435DBE733
:10070000039B3A1DD11AA04B8B2903DD1A22009EB0
:100710001A70A0E728681B78291D3860002B03D0C9
:10072000009E17000D0096E76B6801991C120B40A4
:1007300096499B005B5817000835BDE7039B3A1D9F
:10074000D11A914B8B2903DD1A22009E1A7082E781
:10075000A4001B782C193C60002B02D0009E1700CF
:1007600079E72B6801991C120B4088499B005B5864
:1007700017000435A0E7039B3A1DD11A824B8B2941
:1007800003DD1A22009E1A7065E78148A4002158F3
:100790001B783960002B02D0009E17005BE72B68A6
:1007A00001991C120B4079499B005B5817000435D6
:1007B00082E73A1F764B1168A400E150724B1B7818
:1007C000002B02D0009E170045E72B6801991C12F0
:1007D0000B406E499B005B58170004356CE76C4B6F
:1007E000A600F058FFF766FE043F04003868FFF7E4
:1007F00061FE24180120664B64000443F450624BF0
:100800001B78002B01D0009E25E72B68019A1C1253
:1008100013405E4A9B009B5804354DE7039B3A1DED
:10082000D11A594B8B2903DD1A22009E1A7012E748
:100830000098039C0121A04202D901000C390968EB
:100840001B783960002B02D0009E170003E72B684D
:1008500001991C120B404D499B005B581700043551
:100860002AE7039B3A1DD11A474B8B2903DD1A2235
:10087000009E1A70EFE60099039881420AD90B0096
:100880000C3B1B6843495B106418E41A009BA400EE
:10089000E35802E01821197000233B603A4B1B78A3
:1008A000002B02D0009E1700D5E62B6801991C1280
:1008B0000B4036499B005B5817000435FCE6009B53
:1008C000039A93420CD90C3B1968324B3A1FE31838
:1008D0004910591A1068009B8900C850170002E09F
:1008E0001822294B1A70284B1B78002B01D0009E30
:1008F000B1E62B68019A1C121340244A9B009B58B6
:100900000435D9E6009B039A934220D9009E214BDF
:100910000C3EE31804933368049A5B10D31A009AD0
:100920009B009858FFF7C6FD3C1F05902068FFF715
:10093000C1FD3168049B4910591A059B89001F1895
:1009400001207F00009B0743CF50270002E01822C0
:100950000D4B1A700C4B1B78002B01D0009E7AE6D1
:100960002B68019A1C121340084A9B009B580435BF
:10097000A2E6039B3A1DD11A034B8B290CDD1A22E8
:10098000009E1A7067E6C0465401002054660000BD
:100990007C1E0020FDFFFF3F0099A40061581B78DA
:1009A0003960002B02D0009E170054E62B68019995
:1009B0001C120B40D0499B005B58170004357BE6A6
:1009C0003A1F009B1168A400E150CC4B1B78002B10
:1009D00002D0009E17003EE62B6801991C120B40C6
:1009E000C5499B005B581700043565E6009BA400D1
:1009F0001C192368043F38685E10FFF75BFD36184A
:100A00000120BE4B76001B7806432660002B01D0E8
:100A1000009E20E62B68019A1C121340B64A9B00E8
:100A20009B58043548E6039BA4003F1BB34CBB42D4
:100A30000DD82378002B01D0009E0CE62B68019A7C
:100A40001C121340AC4A9B009B58043534E6AC485A
:100A500001F068FA2378002B01D0009EFBE52B689B
:100A6000019A1C121340A44A9B009B58043523E6AC
:100A7000A300ED18002C00DA01E6A04B1B78002B38
:100A800001D0009EE7E52B68019A1C1213409A4A98
:100A90009B009B5804350FE63B1F04931B6805938E
:100AA000042B04D1A300ED18002C00DAE8E5934BE9
:100AB0001B78002B02D0009E049FCCE52B68019A86
:100AC0001C1213408C4A9B009B58049F0435F3E58D
:100AD0003B1F04931B680593002B04D1A300ED1862
:100AE000002C00DACCE5854B1B78002B02D0009E51
:100AF000049FB0E52B68019A1C1213407E4A9B00AC
:100B00009B58049F0435D7E53A1F13685B10013BDF
:100B1000002B07DD01215B00A4000B4304972D1976
:100B20001360ADE5754B17001B78002B01D0009EBC
:100B300091E52B68019A1C1213406F4A9B009B5849
:100B40000435B9E53A00039B0C32D31A8B2B04DD34
:100B50001A226A4B009E1A707DE5FF2361005B003C
:100B60000B4001210B433B60029B03989B682412BE
:100B70000493ED1A029BAD109B782D021D43009B40
:100B80008D401B1A9B108B400B43BB60029B0D4397
:100B90007D609C70E4B25B4BE4000299E358160060
:100BA0008B6056490978002903D008331D001700CF
:100BB00051E51D0001999B680C351C120B404E49F4
:100BC0009B005B580092170076E53B1F1E68039A56
:100BD000009B93422AD104970A20F30716D4B30747
:100BE0000DD1042E0BD90F2332681340042B06D1EC
:100BF000300001F021FA04F0A3FE063006E00720E1
:100C0000042E03D0002E01D080208000643001F03B
:100C100029FE002801D1043D32E5029B31005878BD
:100C200002F06EF80023029A137029E5009B009AE7
:100C30000C3B1B6802995B109B005B421C00D318A5
:100C40000C3B1E601300083B1B68083C17195A1028
:100C50008A70D2B22B49D2005B0055589B0A029A87
:100C60009B009560ED18009B043B1E68039B76106B
:100C7000B6009E19214B1B78002B00D0EBE42B68AB
:100C8000019A1C1213401C4A9B009B580096043585
:100C900012E53B1F1868FFF70DFCA40006003F1B80
:100CA0001E2833DC00280EDC144B1B78002B01D0EF
:100CB000009ED0E42B68019A1C1213400E4A9B0040
:100CC0009B580435F8E402F063FA033E361802F04C
:100CD0005FFA0D4B801B9842F9D8084B1B78002B0C
:100CE00001D0009EB7E42B68019A1C121340024AFF
:100CF0009B009B580435DFE454660000540100203B
:100D000044660000841600209F8601000123029A99
:100D1000137002F03DFA029B0A3886195E60AEE459
:100D20003B1F1868FFF7C6FBA40004903F1B002878
:100D30000EDCC64B1B78002B01D0009E8BE42B6889
:100D4000019A1C121340C24A9B009B580435B3E41D
:100D5000C04B049A009E9A4203DD2022BB4B1A70BE
:100D600079E40123029A137002F012FAFA23049A2A
:100D70009B005343029A0A3B1B1853607FE4A30075
:100D8000FF1A002320001A003900FFF7CBFBB24EF8
:100D9000B24C3168200001F0FFFE3168200001F004
:100DA000B6FFAA4B1B78002B01D0009E53E42B68A2
:100DB000019A1C121340A64A9B009B5804357BE401
:100DC000A24BA4001B783F1B002B01D0009E42E4E5
:100DD0002B68019A1C1213409D4A9B009B580435B6
:100DE0006AE401F085FD01F033F83B1F1868002824
:100DF00023D1083B1868C30701D5401016E08307CC
:100E00000FD104280DD90F2302681340062B02D1FD
:100E1000FFF75EFB0AE0052B03D1FFF759FB8000CB
:100E200004E01922894B009E1A7014E43A00012153
:100E30004300083A0B43136001E0401001380028DA
:100E400032DD012243001343391F0B603B00083B96
:100E50001B681341181A3B000C3B1B68134203D05C
:100E60008018A400904015E0990717D1042B15D9DC
:100E70000F211E683140062906D101308000C35879
:100E8000009AA400A35010E0052907D11818007992
:100E9000A4004000009B1043E05006E019226B4B79
:100EA000009E1A70FFF7D7FB0435684B1B78002BA8
:100EB00002D0009EFFF7CFFB2B68019A1C12134053
:100EC000634A9B009B580435FFF7F6FBA300039A87
:100ED000FB189B1A8B2B01DC002205E01A225B4BCE
:100EE000009E1A70FFF7B7FB631E002C03DD3A600B
:100EF0001C000437F8E7554B1B78002B02D0009EEE
:100F0000FFF7A9FB2B68019A1C121340504A9B0063
:100F10009B580435FFF7D0FB3B00083B1868FFF7F0
:100F2000C9FA3B1F04901868FFF7C4FA049AA60098
:100F3000BC1B0023824200DA04332360434BBC1BFA
:100F40001B78271D002B02D0009EFFF784FB2B6827
:100F5000019A1C1213403E4A9B009B580435FFF730
:100F6000ABFBA300FE1A04933B00083B1868FFF795
:100F7000A1FA3B1F04001868FFF79CFAE20FC317A1
:100F8000A04253419B003360049BFC1A2F4B271D4A
:100F90001B78002B02D0009EFFF75DFB2B68019AA7
:100FA0001C1213402A4A9B009B580435FFF784FB10
:100FB0003B00083B18683B1F1968A300884202D118
:100FC000FB1A042222E004281ED90122104201D07B
:100FD000114219D10326304215D10F2302681A405D
:100FE000042A10D131420ED104290CD90A681340C9
:100FF000042B08D1FFF778FA431E9841A600BE1BC8
:101000008000306003E0A3000022FB1A1A600F4B3F
:10101000A4001B783C1B271D002B02D0009EFFF76D
:101020001AFB2B68019A1C121340094A9B009B581B
:101030000435FFF741FB3B00083B18683B1F19686C
:10104000A30088420CD1FB1A00222DE0540100209D
:101050005466000080EE36005C0100206001002034
:1010600004281FD90122104201D011421AD10326AF
:10107000304216D10F2302681A40042A11D131429E
:101080000FD104290DD90A681340042B09D1FFF7A9
:101090002BFA030058425841A600BE1B8000306066
:1010A00003E0A3000422FB1A1A60EA4BA4001B7899
:1010B0003C1B271D002B02D0009EFFF7CCFA2B68AB
:1010C000019A1C121340E44A9B009B580435FFF719
:1010D000F3FAA300FE1A04933B00083B1868FFF7DD
:1010E000E9F93B1F04001868FFF7E4F9E217C30FA2
:1010F000844253419B003360049BFC1AD54B271D4F
:101100001B78002B02D0009EFFF7A5FA2B68019AEE
:101110001C121340D04A9B009B580435FFF7CCFAB1
:101120003B00083B1868FFF7C5F93B1F049018689F
:10113000FFF7C0F9049AA600BC1B0023824200DD21
:1011400004332360C34BBC1B1B78271D002B02D02C
:10115000009EFFF780FA2B68019A1C121340BE4ACA
:101160009B009B580435FFF7A7FA3B1F1B68B94A41
:10117000A400042B02D13B1B002103E0002B03D170
:1011800004213B1B196001E00C23137013783C1BF6
:10119000271D002B02D0009EFFF75DFA2B68019AF5
:1011A0001C121340AC4A9B009B580435FFF784FA8D
:1011B000A300FC1A04933B00083B1868FFF77AF978
:1011C0003B1F06001868FFF775F936180120049BCD
:1011D000760006432660FC1A9E4B271D1B78002BC9
:1011E00002D0009EFFF737FA2B68019A1C121340B9
:1011F000994A9B009B580435FFF75EFAA300FE1A3C
:1012000004933B00083B1868FFF754F93B1F0400A8
:101210001868FFF74FF9241A0120049B6400044367
:101220003460FC1A8B4B271D1B78002B02D0009ECC
:10123000FFF711FA2B68019A1C121340864A9B0093
:101240009B580435FFF738FAA300FC1A04933B00BF
:10125000083B1868FFF72EF93B1F06001868FFF7D8
:1012600029F946430120049B760006432660FC1AB8
:10127000784B271D1B78002B02D0009EFFF7EBF95F
:101280002B68019A1C121340734A9B009B5804352B
:10129000FFF712FA3B00083B1868FFF70BF93B1FFA
:1012A00004901868FFF706F90100049803F07AFD2E
:1012B000012340001843674BA4001B783E1B30609D
:1012C000371D002B02D0009EFFF7C5F92B68019A4D
:1012D0001C121340604A9B009B580435FFF7ECF941
:1012E0003B00083B1868FFF7E5F83B1F04901868BF
:1012F000FFF7E0F80100049803F03AFE01234900EB
:101300001943544BA4001B783E1B3160371D002B42
:1013100002D0009EFFF79FF92B68019A1C12134020
:101320004D4A9B009B580435FFF7C6F93B1F1868D0
:10133000FFF7C0F8C317C0185840012340001843F6
:10134000444BA4001B783E1B3060371D002B02D09D
:10135000009EFFF780F92B68019A1C1213403E4A49
:101360009B009B580435FFF7A7F9A300FE1A0593CD
:101370003068012C03D1FFF79DF8049008E0FFF7D7
:1013800099F804007068FFF795F80130031B049387
:10139000049B002B01DC0123049304F01DFA049943
:1013A00003F0E6FD0C190121059B64000C43346039
:1013B000FC1A284B271D1B78002B02D0009EFFF73C
:1013C0004AF92B68019A1C121340234A9B009B5830
:1013D0000435FFF771F9A4003E1B3000FFF70CF84D
:1013E0001C4B30601B78371D002B02D0009EFFF78E
:1013F00032F92B68019A1C121340174A9B009B5824
:101400000435FFF759F9A300FE1A04933B00083B8B
:101410001868FFF74FF83B1F04001868FFF74AF8F9
:1014200004400120049B640004433460FC1A094B0F
:10143000271D1B78002B02D0009EFFF70CF92B68AC
:10144000019A1C121340044A9B009B580435FFF775
:1014500033F9C0465401002054660000A300FC1A72
:1014600004933B00083B1868FFF724F83B1F060075
:101470001868FFF71FF806430120049B7600064317
:101480002660FC1ADE4B271D1B78002B02D0009E25
:10149000FFF7E1F82B68019A1C121340D94A9B0010
:1014A0009B580435FFF708F9A300FC1A04933B008E
:1014B000083B1868FEF7FEFF3B1F06001868FEF7A2
:1014C000F9FF46400120049B760006432660FC1A83
:1014D000CB4B271D1B78002B02D0009EFFF7BBF8DB
:1014E0002B68019A1C121340C64A9B009B58043576
:1014F000FFF7E2F83B1F1868FEF7DCFFC04301234B
:1015000040001843BE4BA4001B783E1B3060371DC3
:10151000002B02D0009EFFF79EF82B68019A1C1248
:101520001340B84A9B009B580435FFF7C5F8A30049
:10153000FE1A04933B00083B1868FEF7BBFF3B1FF5
:1015400004001868FEF7B6FF8440012364001C43C2
:10155000049B3460FC1AAA4B271D1B78002B02D079
:10156000009EFFF778F82B68019A1C121340A54AD9
:101570009B009B580435FFF79FF8A300FE1A0493C5
:101580003B00083B1868FEF795FF3B1F04001868F6
:10159000FEF790FF0441012364001C43049B346068
:1015A000FC1A974B271D1B78002B02D0009EFFF7DB
:1015B00052F82B68019A1C121340924A9B009B58C8
:1015C0000435FFF779F8A4003E1B3000FEF72FFE2C
:1015D0008B4B30601B78371D002B02D0009EFFF72D
:1015E0003AF82B68019A1C121340864A9B009B58BC
:1015F0000435FFF761F8A4003E1B3000FEF727FE1C
:101600007F4B30601B78371D002B02D0009EFFF708
:1016100022F82B68019A1C1213407A4A9B009B58AF
:101620000435FFF749F8A4003F1B3800FEF721FE00
:10163000734B1B78002B02D0009EFFF70CF82B6831
:10164000019A1C1213406F4A9B009B580435FFF708
:1016500033F8A4003E1B3000FEF73DFE684B3060BF
:101660001B78371D002B02D0009EFEF7F4FF2B687D
:10167000019A1C121340634A9B009B580435FFF7E4
:101680001BF8A4003F1B3800FEF75CFE5C4B1B7888
:10169000002B02D0009EFEF7DEFF2B68019A1C1281
:1016A0001340584A9B009B580435FFF705F8A400E7
:1016B0003E1B3000FEF780FE514B30601B78371D1B
:1016C000002B02D0009EFEF7C6FF2B68019A1C1269
:1016D00013404C4A9B009B580435FEF7EDFF039ADC
:1016E0003B1D0493464C9B1A8B2B04DD1A23009E52
:1016F0002370FEF7B0FF01F055FD012340001843B1
:1017000023783860002B03D0009E049FFEF7A3FFD0
:101710002B68019A1C1213403A4A9B009B58049F65
:101720000435FEF7C9FF039A3B1D0493344C9B1A02
:101730008B2B04DD1A23009E2370FEF78CFF01F033
:1017400027FD314B400018400123184323783860AF
:10175000002B03D0009E049FFEF77DFF2B68019AAB
:101760001C121340274A9B009B58049F0435FEF728
:10177000A3FFA4003E1B3000FEF768FE204B306044
:101780001B78371D002B02D0009EFEF764FF2B68EC
:10179000019A1C1213401B4A9B009B580435FEF70C
:1017A0008BFFA4003F1B3800FEF768FE144B1B782C
:1017B000002B02D0009EFEF74EFF2B68019A1C12F0
:1017C0001340104A9B009B580435FEF775FFA30099
:1017D000FB1A0493012320001A000499FEF7A2FECD
:1017E0000A4C2068643001F03DF8002800D1B3E2D3
:1017F000029B21685A78064801F097FA1EE0C0461D
:101800005401002054660000FEFFFF7F5C010020B1
:1018100060010020A300FB1A049320000123002292
:101820000499FEF77FFEE54C2068643001F01AF859
:10183000002800D190E2E24801F02EF90123029A3B
:10184000137001F0A5FC962223685200063353431F
:101850001818029B5860FEF713FFA4003E1B3000CF
:1018600001F0D4FCD74B30601B78371D002B02D021
:10187000009EFEF7F0FE2B68019A1C121340D24A1C
:101880009B009B580435FEF717FFA4003E1B300059
:1018900001F0BEFCCB4B30601B78371D002B02D013
:1018A000009EFEF7D8FE2B68019A1C121340C64A10
:1018B0009B009B580435FEF7FFFEA4003E1B300042
:1018C00001F0A8FCBF4B30601B78371D002B02D005
:1018D000009EFEF7C0FE2B68019A1C121340BA4A04
:1018E0009B009B580435FEF7E7FEA4003F1B380021
:1018F00001F0AEFCB34B1B78002B02D0009EFEF72C
:10190000AAFE2B68019A1C121340AF4A9B009B58F9
:101910000435FEF7D1FEA4003E1B300001F0BAFCF6
:10192000A84B30601B78371D002B02D0009EFEF7BD
:1019300092FE2B68019A1C121340A34A9B009B58ED
:101940000435FEF7B9FEA4003F1B380001F0D4FCBB
:101950009C4B1B78002B02D0009EFEF77CFE2B6870
:10196000019A1C121340984A9B009B580435FEF7BD
:10197000A3FE0121200001F0A7FC924B1B78002B55
:1019800002D0009EFEF767FE2B68019A1C121340DE
:101990008D4A9B009B580435FEF78EFE00212000E7
:1019A00001F092FC874B1B78002B02D0009EFEF7C3
:1019B00052FE2B68019A1C121340834A9B009B58CD
:1019C0000435FEF779FEA4003E1B300001F0B2FCA6
:1019D0007C4B30601B78371D002B02D0009EFEF739
:1019E0003AFE2B68019A1C121340774A9B009B58C1
:1019F0000435FEF761FEA4003E1B300001F0AEFC92
:101A0000704B30601B78371D002B02D0009EFEF714
:101A100022FE2B68019A1C1213406B4A9B009B58B4
:101A20000435FEF749FEA4003F1B380001F070FCAE
:101A3000644B1B78002B02D0009EFEF70CFE2B6837
:101A4000019A1C121340604A9B009B580435FEF714
:101A500033FEA4003F1B380002F042F9594B1B78BB
:101A6000002B02D0009EFEF7F6FD2B68019A1C1297
:101A70001340554A9B009B580435FEF71DFEA400F9
:101A80003E1B300002F07EF94E4B30601B78371D54
:101A9000002B02D0009EFEF7DEFD2B68019A1C127F
:101AA0001340494A9B009B580435FEF705FEA400ED
:101AB0003F1B380002F0B2F8424B1B78002B02D0DB
:101AC000009EFEF7C8FD2B68019A1C1213403E4A87
:101AD0009B009B580435FEF7EFFDA4003E1B300031
:101AE00002F0B2F8374B30601B78371D002B02D064
:101AF000009EFEF7B0FD2B68019A1C121340324A7B
:101B00009B009B580435FEF7D7FDA4003F1B38000F
:101B100001F01EFF2B4B1B78002B02D0009EFEF71E
:101B20009AFD2B68019A1C121340274A9B009B5870
:101B30000435FEF7C1FDA4003F1B380001F014FF7F
:101B4000204B1B78002B02D0009EFEF784FD2B68F3
:101B5000019A1C1213401C4A9B009B580435FEF747
:101B6000ABFDA4003F1B380001F004FF154B1B78B0
:101B7000002B02D0009EFEF76EFD2B68019A1C120E
:101B80001340114A9B009B580435FEF795FDA400B5
:101B90003F1B380001F00AFF0A4B1B78002B02D0D4
:101BA000009EFEF758FD2B68019A1C121340064A4E
:101BB0009B009B580435FEF77FFDC0465C0100206A
:101BC000600100205401002054660000A4003E1B68
:101BD000300002F061F99F4B30601B78371D002BFD
:101BE00002D0009EFEF737FD2B68019A1C121340AD
:101BF000994A9B009B580435FEF75EFDA4003E1BEE
:101C0000300002F051F9934B30601B78371D002BE8
:101C100002D0009EFEF71FFD2B68019A1C12134094
:101C20008D4A9B009B580435FEF746FDA4003E1BE1
:101C3000300002F041F9874B30601B78371D002BD4
:101C400002D0009EFEF707FD2B68019A1C1213407C
:101C5000814A9B009B580435FEF72EFDA4003E1BD5
:101C6000300001F0FFFF7B4B30601B78371D002BED
:101C700002D0009EFEF7EFFC2B68019A1C12134065
:101C8000754A9B009B580435FEF716FDA4003F1BC8
:101C9000380001F0A7FE6F4B1B78002B02D0009E8E
:101CA000FEF7D9FC2B68019A1C1213406A4A9B006C
:101CB0009B580435FEF700FDA300FF1A39002000F1
:101CC00001F042FF634B1B78002B02D0009EFEF711
:101CD000C2FC2B68019A1C1213405F4A9B009B5860
:101CE0000435FEF7E9FCA4003E1B300001F0F8FECD
:101CF000584B30601B78371D002B02D0009EFEF73A
:101D0000AAFC2B68019A1C121340534A9B009B5853
:101D10000435FEF7D1FCA300FF1A3900200001F0C2
:101D2000C1FE4C4B1B78002B02D0009EFEF793FCAB
:101D30002B68019A1C121340474A9B009B5804359C
:101D4000FEF7BAFCA4003B1B1800049301F08AFBC9
:101D500001F086FB002802D1043DFEF790FC3D4BCC
:101D60001B78002B03D0009E049FFEF774FC2B68A9
:101D7000019A1C121340384A9B009B58049F04355B
:101D8000FEF79AFCA300FE1A20003100049301F034
:101D900062FB049B3060FC1A2E4B271D1B78002B26
:101DA00002D0009EFEF757FC2B68019A1C121340CC
:101DB000294A9B009B580435FEF77EFCA300FF1ABE
:101DC0003900200001F053FB224B1B78002B02D07E
:101DD000009EFEF740FC2B68019A1C1213401E4A1D
:101DE0009B009B580435FEF767FCA300FF1A3900DF
:101DF000200000F0C1FC174B1B78002B02D0009E86
:101E0000FEF729FC2B68019A1C121340124A9B0012
:101E10009B580435FEF750FCA300FE1A2000310049
:101E2000049300F0A9FC049B3060FC1A094B271DA9
:101E30001B78002B02D0009EFEF70DFC2B68019A48
:101E40001C121340044A9B009B580435FEF734FCD7
:101E500007B0F0BD5401002054660000014B18701B
:101E600000207047540100200023F7B55A1E01924C
:101E7000002B07DA01F018FC00F0C8FE00F07AFF32
:101E80006423019300263000194B19688E4201DB50
:101E9000019BEBE7174B1A680132914200DC0022EC
:101EA000A0241A601D68144F6C43E35D002B1DD005
:101EB000E419022B16D0012B0ED1002801D101F01C
:101EC00067F9A0226A430C4B0C499B185B68C31A44
:101ED0008B4201D80223BB54A0235D43064BEB5C2D
:101EE000022B03D12000FEF78FFBD1E70136CBE7B1
:101EF0005801002000000020441000209F860100AF
:101F0000054B01211A68054B1A600023044AD15081
:101F10000433642BFBD17047880400208004002028
:101F20007C1E002000B59BB00200054901A803F00B
:101F3000D3FC01A800F0B0FD00F01CFFFCE7C04698
:101F40005468000037B5174D04002868002801D0F8
:101F500003F0B6F8A400200003F0A8F828600028D9
:101F600001D1114809E001AB984208D20F4B021988
:101F70006B440193934202D20D48FFF7D3FF04282C
:101F800002D808302860083C2B680A4A1C191360E4
:101F9000094B01211C600023084AD1500433642BF3
:101FA000FBD137BD88040020656800001CFCFFFFE2
:101FB0009568000080040020840400207C1E00201E
:101FC00070B50D4D0D4E2B684C1CA40036681C19C5
:101FD000B44203D90A20FFF741FF0BE02C601D003B
:101FE000AC4201D904C5FBE70F22090110400843A8
:101FF0001860180070BDC0468004002084040020D2
:102000000322CB1C70B50C00D9171140C91805006C
:10201000891000220420FFF7D3FF0023A34204DA33
:10202000E95CC21811710133F8E7E1430023C917D5
:10203000214041180B7170BD10B5830706D10428EB
:1020400004D90F2304C81340042B03D00E20FFF73C
:1020500005FF014810BDC0469C69000030B5022450
:102060008025094B094AED009C505C59002CFCD09E
:10207000A124E400884204D28025ED0018514019C3
:10208000F8E70021995030BD00E001400405000050
:1020900010B5002804D1902092210002890203E0AB
:1020A000922080218002C902FFF7D8FF10BD0028CE
:1020B00002D092239B0201E090231B021B680020A8
:1020C0001A0E532A01D11B02180A704730B5012499
:1020D0008025064A064BED00D4505459002CFCD004
:1020E00001600021014AD15030BDC04600E00140EE
:1020F0000405000010B5002802D09220800201E003
:1021000090200002A6230902DB05090A1943FFF704
:10211000DDFF10BDF0B50124802503000F4F08003E
:102120000F49ED007C507C59002CFCD09C460028C7
:1021300010DD547816789378240234431B0423432B
:102140001C00D37801381B062343644608C40432BC
:10215000A446ECE700237B50F0BDC04600E0014000
:102160000405000070B505004B680A009C1C2100A6
:10217000FFF7D0FFA000281870BD0000154B1B68AA
:10218000002B04D080219223C9029B0203E09221FC
:10219000902389021B02002807D1191D5B680200E9
:1021A0001B0E522B14D10A0012E0002281420FD9DB
:1021B00003681B0E522B0BD1436802339B00C318DC
:1021C000994205D91A68110E0022522900D11A002D
:1021D000100070478C0600208022F0B5520085B0B8
:1021E0000021624802F07FFF8022002152006048F7
:1021F00002F079FF5F4B1B681A00029353425A4169
:1022000010000392FFF744FF029B002B01D15A4CB0
:1022100000E05A4C0020FFF7B1FFFF270500002D1A
:1022200000D194E02B681A121B143A403B400192F3
:102230001A000A3A092A43D84C4B019A995C0029A2
:1022400000D07FE010224E4802F04DFF2E00336890
:1022500001991A123A40914217D11A143A400B2AA6
:1022600006D0132A0CD00A2A0FD1454B1E600CE071
:102270003B40022B09DC424A9B00D3185E6004E01D
:10228000102200213E4802F02EFF3000FFF776FFBB
:10229000061EDCD13A4B196800290FD02000FFF749
:1022A00061FF0400374E3168002903D02000FFF79A
:1022B00059FF0400344B0436B342F4D12B4B3EE0BB
:1022C000143B092B3ED82A4B019A995C002939D13D
:1022D00008222E4802F007FF2E0033681A143A40F5
:1022E000152A0BD01D2A11D0142A14D1019A1B12C1
:1022F0003B409A420FD1254B1E600CE0019A1B1205
:102300003B409A4207D1214B5E6004E00822002145
:102310001E4802F0E8FE3000FFF730FF061EDCD159
:102320001A4E3168002909D02000FFF71BFF7168A1
:102330000400002902D0FFF715FF04000C4B012117
:10234000019A99542800FFF719FF050067E70298E2
:10235000FFF7ADFE411C0398FFF7CCFE054B039A37
:102360001A600B4B1C6005B0F0BDC0468C05002008
:102370008C0400208C060020044802000490000019
:10238000E01E0020E41E0020F01E0020F01E0020B1
:102390009006002070B50020FFF789FE04000120A0
:1023A000FFF785FE844200DA04000A4B1E6875427E
:1023B000754128001D60FFF76BFE002E01D0064B13
:1023C00000E0064B064A2800611C1360FFF792FEEE
:1023D00070BDC0468C060020049000000448020036
:1023E00090060020F8B50020FFF761FE07000120ED
:1023F000FFF75DFE3E00224D0643224C0CD18021AA
:102400009020C9020002FFF729FE01213000FFF7EA
:1024100071FE2E601C4B2FE0874208DD00239221C5
:102420002B60194B890223602368002011E00123EF
:1024300080212B60154BC9022360F5E71A68551CF3
:1024400018D0120E522A07D101205A680232920087
:102450009B188B42F2D311E0002800D023600C4C73
:102460000C49200003F064FA200000F0A3FEFFF7FF
:1024700091FF04E0002802D0236000E02160F8BD55
:102480008C06002090060020049000000448020002
:10249000F81E00200D690000F0B585B003920322FC
:1024A0000333DC1714402A4EE3189C103368019064
:1024B0000291002B02D08022D20201E092229202ED
:1024C000244FA51C3B68AD005B199A4217D2FFF759
:1024D00083FE3368002B02D08022D20201E09222D8
:1024E00092023B685B199A4209D21B4C1B4920009F
:1024F00003F01EFA200000F05DFE002026E0029BA3
:102500003E681B06190C6B461A7BA423DB0513439C
:10251000019A0B431104FF221204114019433000A9
:10252000FFF7D4FD3300301D0833210001933B60D9
:10253000FFF7CCFD002C04D00A9A21000198FFF788
:10254000E9FD3000019B083D5D193D6005B0F0BD1F
:102550008C06002090060020F81E0020366900003E
:1025600070B59AB0FFF73EFFFF221F4CD20000214A
:10257000200002F0B8FD0020FFF700FEFF25002636
:1025800000281AD003681A142A400A2A08D11A12FD
:102590002A40FF2A0ED0D200A1180B71A05009E0EA
:1025A000132A07D11B122B40FF2B03D0DB00E218AC
:1025B0001671E650FFF7E2FDE2E7FF210200C900D5
:1025C000235808305D1EAB41D2188842F8D1074924
:1025D00001A803F081F901A800F05EFA044800F0B8
:1025E0005BFA1AB070BDC046841600205D69000019
:1025F00075690000044A05491368C85401339B05F6
:102600009B0D13607047C046980A00209406002076
:10261000114A70B51368114C984211DA015D451CDE
:10262000FA39012906D8AB4206DD2118497801396B
:102630001F2901D92800EFE70100251A461C02D105
:102640000023136006E0665C6E5401318B42FADCB5
:10265000181A106070BDC0469C0A0020A40A002011
:1026600010B500F095FD064B1A68904201D2002289
:102670001A601B68C01A034B83428041404210BD60
:10268000A00A0020204E000010B5094C094A23681A
:10269000126893420BD0084AD05C00F0B5FE0028C7
:1026A00005D0236801339B059B0D2360EDE710BD2A
:1026B000A40E0020980A00209406002010B5040003
:1026C000064B074A1B6812689B1ADB439B059B0D50
:1026D000A34202DAFFF7D8FFF2E710BD980A002004
:1026E000A40E0020F7B506000191151E2FD05768E3
:1026F000B800441C0630FFF7E1FFFB20FFF77AFF2C
:102700001C20FFF777FFF0B2FFF774FFE0B224124E
:10271000FFF770FFE0B2FFF76DFF6B461879FFF728
:1027200069FF0026BE4212DAB300EB189C6801363E
:10273000E0B2FFF75FFF2012C0B2FFF75BFF20148B
:10274000C0B2FFF757FF200EFFF754FFEAE7F7BDCF
:1027500070B5074D2C68042C08DC0C236343054E30
:1027600001349851F31859609A602C6070BDC046CE
:10277000A80E00205C1F0020F0B589B004900E0068
:1027800001284BDD284B08680293830709D10428F0
:1027900007D90F2302681340042B02D1FFF74CFC2A
:1027A0000290214B70680393830709D1042807D94D
:1027B0000F2302681340042B02D1FFF73DFC039066
:1027C00000271A4B1A4D1B680593059B9F4225DA7B
:1027D0002B1F0299186803F0A1F800281BD12B6861
:1027E0006C6806930190019B069A934213DA206865
:1027F0000399079403F092F80834002807D13100B8
:102800000498079B08315B680238984709E0019BF0
:1028100001330193E7E701370C35D6E71B20FFF7BB
:102820001DFB09B0F0BDC0469C690000A80E002049
:10283000601F002010B501F0CDF900F0A5FD00F0FB
:102840001BFE10BDC82210B5D2000021034802F0C3
:102850004AFC0022024B1A6010BDC0464410002002
:1028600058010020064B074A1B6812689B1ADB437D
:102870009B059B0D0122834200DC00221000704763
:10288000980A0020A40E0020F8B505000C001600E0
:102890001F1E0ED10320FFF7E5FF002827D0FA20E6
:1028A000FFF7A8FEE8B2FFF7A5FEE0B2FFF7A2FE31
:1028B0001DE0501DFFF7D6FF002818D0FB20FFF7C2
:1028C00099FEE8B2FFF796FEE0B2FFF793FEF0B292
:1028D000FFF790FE3012C0B2FFF78CFE3C00E31B06
:1028E0009E4204DD2078FFF785FE0134F7E7F8BD4E
:1028F00070B50024A0250B4B1B689C420EDA2A0001
:102900006243094BD3181A78002A05D0597800235E
:1029100011201A00FFF7B8FF0134ECE7FFF792FF30
:1029200070BDC04658010020441000200123F3B5BB
:102930000400FFB00D0010001A420DD002AA13705F
:10294000431002A9537042121B0E40148A700B717F
:10295000C8700B00052273E0032313401ED1042A24
:102960001CD90F2201680A40042A17D1023302AA97
:102970001370FFF761FB060002F0E2FFF823FF335C
:10298000984200DD18000023834205DA01335A1E05
:10299000B25C02A9CA54F7E7421C50E0042801D0F7
:1029A000002809D1032302AA04381370434243418B
:1029B00053701300022243E0002B45D1042843D971
:1029C0000F2102681140052912D1043302A90B70AE
:1029D000F8231209FF3392009A4200DD1A00002307
:1029E00093422BDA0133C118C97802AEF154F7E7EC
:1029F000062929D101390E00120956430196F826FD
:102A0000019FFF36B7421FDC02AE317001369342A0
:102A100013DA0127013399004158394201D0394175
:102A200000E00A49012737700F127170B7700F1458
:102A3000090EF77031710536E9E7019A013202ABF0
:102A400029002000FFF720FF7FB0F3BD19FCFFFF36
:102A500070B5A023050000240D4A180060438018BB
:102A60004178A94203D001340A2CF6D10FE0A0220C
:102A7000002102F038FB074A1368013BA34200D152
:102A80001460002329001A001120FFF7FDFE70BD1D
:102A9000441000205801002010B5B2B002236A464D
:102AA0000400137002F04CFFC72800DDC72000238C
:102AB000834205DA694601335A1EA25CCA54F7E71D
:102AC000421C6B46FF211420FFF7DEFE32B010BD22
:102AD000F7B5234B06001B68A02000930023214973
:102AE000009A93420ADA02005A438A185478B44290
:102AF00002D11278002A31D10133F1E70024A0235A
:102B00001A00624301920199164A55182F78002F36
:102B100006D001340A2CF3D11348FFF7BDFF1DE0A6
:102B2000A0223900280002F0DEFA02230D4A0199A2
:102B3000EB6053540D4AF1008A58009B6E70AE70E2
:102B4000AA602F616F61A34202DC054B01341C6057
:102B5000002331001A001020FFF796FEF7BDC04693
:102B60005801002044100020306A00008416002024
:102B700010B5FFF7BDFE0024064BE200D3181B7909
:102B8000043B012B02D8E0B2FFF7A2FF0134FF2C77
:102B9000F2D110BD84160020F7B50E0000247F2569
:102BA0000190194BE200D1180979062901D00329B7
:102BB00026D1985883682B401C2B21D1C3681A005A
:102BC0002A40042A1CD102692A40192A18D11B0A5A
:102BD00001339B000C30C018FFF72EFA070002F0FB
:102BE000AFFE0023B0420BD19E4206DD019AF95C94
:102BF000D25C914204D10133F6E7E0B2FFF768FFFF
:102C00000134FF2CCDD1F7BD8416002070B500F043
:102C1000BFFA184B1A68904201D200221A601A6853
:102C20001549821A8A4223D91860002000F082FBDD
:102C300044424441604207240443002000F08EFBDC
:102C4000002810D0082600250C4BEA00D3181B7969
:102C50009C4201D0B34202D1E8B2FFF739FF0135FF
:102C6000FF2DF1D104E0631C02D001267642EAE791
:102C700070BDC046940A00200F2700008416002073
:102C800037B500240500FFF733FE01A8019400F0DA
:102C90003FFB200000F068FE00F006FD00F072FB34
:102CA00000F071FB00F016FF00F09EFA0548FFF7F8
:102CB000F3FEA54204D0FFF723F90348FFF7ECFE2B
:102CC00037BDC046456A00005D6A0000002310B5AC
:102CD00001001A001120FFF7D7FD10BD07B56B46A4
:102CE000197069465A7013128B701314120ECB7040
:102CF0000A716B46010005221320FFF7C5FD07BDD1
:102D000010B50A0001001220FFF710FE10BD70B5CB
:102D1000050008000C003230FFF7D0FC2B00220029
:102D200000211B20FFF7B0FD70BD10B50C000300A3
:102D3000110014202200FFF7A7FD10BD70B506009A
:102D40000020FFF71BFA0024FF25002810D003689D
:102D50001A142A40152A05D11B122B40B34204D164
:102D6000040002E01D2A00D10024FFF707FAECE777
:102D7000200070BDF0B580279DB0FFF785FCB94DF0
:102D8000B94C2868FF00391A201800F023FB2B6883
:102D90000600C3182B60002B00D1DBE1002E0DDDF7
:102DA0002868391A201800F015FB2B6806001B183C
:102DB0002B6000F0EDF9AD4B1860EFE72378FA2BAC
:102DC00000D00CE12B68022B06DCFFF749FC002841
:102DD00000D1BFE10120B8E16078A5780238182859
:102DE00000D9FAE001F04AFF0D1E22262932F93DF2
:102DF000676F7589DAEFF9F9F9F9F9F9F9F9F9F97C
:102E0000F300FF2D00D1E8E02800FFF721FE0022AB
:102E10009749EB005A50CB181A7129000092130001
:102E200013204DE02800FFF753FED6E02800FFF7FF
:102E30000FFED2E0FFF79CFECFE0FFF759FD002028
:102E4000FFF71EFF8B48FFF727FEC6E0182D00D9BD
:102E5000C3E0894BAA00D25829001520FFF766FD70
:102E6000BBE000242000FFF769FF071E03D10134F7
:102E7000192CF7D1B1E0083002F062FD06000530F0
:102E8000FFF71CFCFB20FFF7B5FB1D20FFF7B2FB93
:102E9000E0B2FFF7AFFBF0B2FFF7ACFB3012C0B20D
:102EA000FFF7A8FB0025AE42E1DD7B19187AFFF79A
:102EB000A1FB0135F7E700211D200B000A0000915E
:102EC000FFF7EAFA89E00022290000921300272088
:102ED000F6E700F077F903AC684A64210090684B8C
:102EE000200002F0C7FC02232000237002F028FD1E
:102EF00023000200002116206DE000245C4AE3005C
:102F0000D558002D46D06B689E00701DFFF7D6FB8C
:102F10002B0000253200083321000120FFF7B4FC0C
:102F20000020FFF72BF92E002F0000281DD0FF21D5
:102F300003681A120A40A24214D11A140A400B2A3A
:102F400007D10B400DD0012B09D0022B00D1FFE09F
:102F500008E0132A06D100252E002F0002E006000B
:102F600000E00700FFF70AF9DFE7002E04D0320087
:102F700001212000FFF7B6FB002D04D02A0002211A
:102F80002000FFF7AFFB002F04D03A000021200003
:102F9000FFF7A8FB0134FF2CB0D11EE0FFF7A8FC1F
:102FA000002500242900009423002200132001356D
:102FB000FFF772FAFF2DF4D1FF222100D2002C4836
:102FC00002F091F809E00120FFF75AFE05E0002326
:102FD0001A201A001900FFF757FC0320B5E0FB2B5D
:102FE00000D0F7E62A68042A00DCEEE62679E078CD
:102FF000244B360206439E4200DDEBE6331D9A4227
:1030000000DCE2E6E35CFE2B00D0E3E66078A57826
:10301000731E1C2868D007D8082835D01B285ED01E
:10302000012800D090E007E01E2800D17EE066D3A2
:103030001F2800D180E087E0FF2D00D184E0280028
:10304000FFF706FD67790634B31E290000943A00A5
:103050000A20FFF721FA064BED00E8505D192F71A9
:1030600072E0C0469C0A0020A40A0020A00A0020AA
:10307000841600206D6A00007C1E0020846A000017
:103080007F6A0000F6030000182D5DD860790228E1
:1030900013D003281BD0012856D1A71D7A78A47914
:1030A000BB78120222431B0413431A00FB78AD00C5
:1030B0001B0613435B0003430EE0002B44DDB11EEF
:1030C000A01DFEF79DFF244BAD00E8503CE0A37926
:1030D000AD005A1E93419B001F4AAB5034E0601D67
:1030E0001900FFF759FD2FE0FF2D2DD06279022A3C
:1030F0002AD80634B31E009429000B2022E0632B4B
:1031000000DD6323002203A8934204DDA11849795E
:1031100081540132F7E7D9430022C91719404118F9
:103120000A7001330090290015200BE0053400944B
:10313000002229001E2005E0042B05D100222900D1
:1031400005340094FFF7A8F9701DFFF761FA01E05C
:10315000050007E71DB0F0BD7C1E00200020704771
:103160000020704700207047002070470122002097
:10317000054B06491A6158500330043158508018E5
:10318000083158501A607047008000400405000064
:103190000122034B1A64A822D20098587047C046F7
:1031A0000080004010B5FFF7F3FFFA21890001F01D
:1031B0006FFD10BD10B50100014801F013FB10BDFB
:1031C000D00F002000487047946A000070B5054E8B
:1031D0000400335C0D008B4202D001F02BFA355510
:1031E00070BDC046AC0E002070B50024064D635D76
:1031F000012B05D10021200001F01CFA00236355AA
:1032000001341D2CF2D170BDAC0E00200D20704792
:103210003B207047036870B55B100120052B12D866
:10322000094A9B009C58094D2B5D002B05D00021BD
:10323000200001F0FFF900232B55200001F0A4F835
:1032400001234000184370BDC46A0000AC0E00208A
:1032500070B5036845685C106D1004D40B4B9D423B
:1032600002DD1D0000E000251C2C0DD8084E335D4A
:10327000012B05D00121200001F0DCF90123335599
:103280002900200001F00EF970BDC046FF030000C8
:10329000AC0E002070B5046864101C2C0FD8094DCA
:1032A0002B5D002B05D00021200001F0C3F9002385
:1032B0002B55200001F0F2F90423012800D000234F
:1032C000180070BDAC0E002070B504000D001C2865
:1032D0000ED8084E335C012B04D0012101F0AAF96D
:1032E00001233355290020004D1EA94101F0C0F9EA
:1032F00070BDC046AC0E0020436810B5191F4A428D
:103300004A41006811004010FFF7DEFF10BD0000C9
:1033100037B569460200064B684630CB30C11368AA
:10332000042B02D100F026FB01E000F03FFB37BD8B
:103330008C6A000010B5084C6379002B05D0002181
:10334000052001F077F900236371052001F0A6F94B
:1033500043425841800010BDAC0E002010B5084C0F
:10336000E37A002B05D000210B2001F063F9002344
:10337000E3720B2001F092F943425841800010BDE6
:10338000AC0E00207047704710B5034A0421034873
:10339000FFF7DEF910BDC046040000209E6A000061
:1033A000E12110B54902094801F063FAFFF7DEFE9A
:1033B0000A2000F0E3FF0023FF21054A995401335E
:1033C0001D2BFBD100F086FB10BDC046D00F0020A6
:1033D000AC0E0020F8B50B4E070030000D0001F0D8
:1033E00087FA041EAC4200DD2C003D00EB1B9C4222
:1033F00005DD300001F086FA28700135F6E720007F
:10340000F8BDC046D00F002010B50100014801F002
:1034100037FA10BDD00F002010B51D20FEF71EFD9D
:1034200010BD10B51D20FEF719FD10BD10B51D20F3
:10343000FEF714FD002010BD10B51D20FEF70EFD97
:1034400010BD10B51D20FEF709FD10BD10B51D20E3
:10345000FEF704FD10BD10B51D20FEF7FFFC10BDEA
:103460000420704710B51D20FEF7F8FC10BD10B504
:103470001D20FEF7F3FC10BD10B5034A07210348D9
:10348000FFF766F910BDC04624000020DC6A00008A
:103490000123034A1360034A106898401843704799
:1034A000D40E0020DC0E0020202800D90020084B7C
:1034B0008000C25801239340064A07491360074A17
:1034C0001160074A07491160074A13607047C046F8
:1034D000246F0000D00E002008050050EC0E0020E4
:1034E000E40E00200C05005018050050F0B5EFF375
:1034F00010810123194083F31088134E134AB446F8
:103500001268013A9340124A1468124A1568124A26
:10351000002B15D0166803420BD02660C046C0466B
:10352000C046C046C046C046C046C04616682E606B
:1035300004E067463E601668084F3E605B08E7E7B8
:1035400081F31088F0BDC0460805005064000020DB
:10355000EC0E0020E40E0020D00E00200C050050E0
:1035600030B585B001AD0C220649280001F0B2FD4E
:103570000024285D01210134FFF728FE0C2CF8D12E
:1035800005B030BD4A6B0000F0B53B4C85B0210062
:1035900003220C31684601F09DFD210009220F3104
:1035A00001A801F097FDFFF7FDFD344B344CC01826
:1035B0002368984201D2002323602568002D3ED164
:1035C0002E006B4604339F5D01213800FFF7FEFD9E
:1035D00001360121380001F04BF8092EF1D1002607
:1035E0006B469F5D01213800FFF7F0FD0136002199
:1035F000380001F03DF8032EF2D1C82080000138D8
:10360000C046C046C046C046C046C046C046C0468A
:10361000C046C046C046C046F1D100210420FFF795
:10362000D5FD00266B460021985D0136FFF7CEFDE3
:10363000032EF7D1FFF7B6FD1330206019E0FFF736
:10364000B1FD23680025984213D3042000F09CFEAE
:103650000C4B0D4EC01801D4306000E0356030686E
:10366000032101F09FFB00230125084A30602360FD
:103670001360280005B0F0BD4A6B00001027000061
:10368000CC0E0020C8FEFFFFDC0E0020D40E002070
:1036900010B50124044001D0441002E00D20FEF7D3
:1036A000DDFB200010BD00007FB5A44E3368002B69
:1036B0000BD1A34A1268002A07D1A24B1B68002B2A
:1036C00000D139E1FFF760FF36E19F4D2A68002AFB
:1036D0002AD19C4A1268002A07D0FFF755FF00281C
:1036E00000D129E1FFF73CFF05E0954A1268002A66
:1036F00001D1002BF6D1924B19681A00002911D084
:103700003468002C0ED101AD0C22904928001C60B9
:1037100001F0E0FC285D00210134FFF757FD0C2C7F
:10372000F8D109E13368136000211A2000F0A0FFEE
:1037300000211B2000F09CFF00211C2000F098FFBE
:103740002E68012E56D0022E00D19CE0002E00D013
:10375000ECE0013631007A4C03202368994300F0F5
:1037600087FF0420216801400B005942594100F0B5
:103770007FFF102123680A200B405942594100F075
:1037800077FF8021236809010B40594259410620E7
:1037900000F06EFF8021236809020B405942594115
:1037A000072000F065FF8021236849020B40594241
:1037B0005941092000F05CFF8021236889020B40F9
:1037C00059425941192000F053FF80212368C90252
:1037D0000B4059425941182000F04AFF80232168CC
:1037E0001B030B4059425941172000F041FF3100A3
:1037F0001A2099E00221524C172023680B405942AD
:10380000594100F035FF0821236818200B40594228
:10381000594100F02DFF80212368C9000B40594217
:103820005941042000F024FF8021236849010B4006
:10383000594259410A2000F01BFF80212368C90129
:103840000B4059425941032000F012FF80212368A8
:1038500089030B4059425941092000F009FF802398
:1038600021681B040B4059425941192000F000FF08
:103870003100062000F0FCFE3100072000F0F8FEC9
:1038800031001B2050E020212D4C172023680B40D5
:103890005942594100F0ECFE4021236818200B40AA
:1038A0005942594100F0E4FE8021236819200B4061
:1038B0005942594100F0DCFE8021236849000B4049
:1038C00059425941092000F0D3FE80212368890024
:1038D0000B4059425941072000F0CAFE802123685D
:1038E00089010B4059425941062000F0C1FE802158
:1038F000236849030B40594259410A2000F0B8FEA1
:1039000080212368C9030B4059425941032000F02C
:10391000AFFE802321685B040B40594259410420CB
:1039200000F0A6FE01211C2000F0A2FE2B6803215E
:10393000581C01F01DFB29607FBDC046E00E002031
:10394000D80E0020D40E0020E80E00204A6B0000A4
:10395000006810B5C30703D5FFF79AFE014B186046
:1039600010BDC046E00E00200022014B1A607047D7
:10397000E00E002070B505000068FFF789FE040026
:103980006868FFF785FE631E042B0CD801380428F5
:1039900009D805225043043AC3189A40130002493B
:1039A0000A6813430B6070BDE00E002070B505007F
:1039B0000068FFF76DFE04006868FFF769FE631E8C
:1039C000042B0CD80138042809D805225043043AA6
:1039D000C3189A40130002490A689A430A6070BDEE
:1039E000E00E00202C4BF7B51B680400002B03D120
:1039F00001204042FFF758FD01262468344219D0C7
:103A0000FF226310180212041040FF2261121202FA
:103A10000A40DBB210431843204B1B68202B06D111
:103A2000B4401F4BA40EA400E35800021843FFF754
:103A30005DFD30E0032525402DD1042C2BD90F232B
:103A400022681340062B26D1FF27130901933F0458
:103A5000019B9D421FDAAB00E3185A68324218D02E
:103A6000531018023840FF218446090250120840C2
:103A70006146DBB208431843084B1B68202B06D174
:103A80005200920E064B9200D35800021843FFF7E3
:103A90002DFD0135DCE7F7BDEC0E002064000020B1
:103AA000786B00000B6810B50200D80701D55810DC
:103AB00001E0012040421823012A03DD4A68042A5C
:103AC00000D10833024A1360FFF7EEFC10BDC04678
:103AD00064000020012010B54042FFF7E5FC10BD56
:103AE0000068F8B5C30702D5FFF7D2FD0BE08307E6
:103AF00026D1042824D90F2203681A40042A1FD192
:103B00001B091DD000790300203B5E2B18D805222D
:103B1000002053430B4E9D18043AAB420CD00521B4
:103B200010249F5D3C4200D080180139520064107F
:103B30000029F7D10133F0E701234000184300E0EA
:103B40000120F8BD786C0000F0B5040085B008686D
:103B50000E00FFF79DFD0190022C07DD7068FFF756
:103B600097FD0400B068FFF793FD01E00120040019
:103B7000174B011D1A680523461E434301200027E9
:103B800084460291211D053B039102998E4219D072
:103B9000611E039DA94212D0042E0DD804290BD812
:103BA000019D5F18054203D06546BD402A4302E0EF
:103BB0006546BD40AA43012740000131E9E70136CF
:103BC0000533E2E7002F01D0014B1A6005B0F0BDCC
:103BD000E00E002010B5034A01210348FEF7B8FDAE
:103BE00010BDC0465C000020626B000010B50121D2
:103BF0000D20FFF7EBFA01210E20FFF7E7FA002175
:103C00000F20FFF7E3FA044C200000F0C3F9102165
:103C1000200000F0DBF910BD000F002010B5046893
:103C20000D20E30703D56410FF2C03D91720FEF7FE
:103C300015F906E0FFF7DAFFE1B2024800F0E8F913
:103C4000002010BD000F002010B5FFF7CFFF0021AE
:103C5000034800F0DDF901234000184310BDC046C1
:103C6000000F00200122094B1A60094A1368002B3B
:103C7000FCD00322074B1B68D8171040C018012343
:103C800080100638400018437047C04600C000400E
:103C900000C1004008C50040F7B50F4F06003B6863
:103CA0000D0001920D4C002B04D1200000F036FADB
:103CB00001233B60F1B2200000F0BEFAE9B220001F
:103CC00000F0EDF96B462000197900F0E8F92000CA
:103CD00000F01CFBF7BDC046F00E0020140F0020C2
:103CE00010B501240368234205D04168214202D067
:103CF0008268224201D10D2004E05810491080282A
:103D000003D91520FEF7AAF80BE0FF2901D91620E8
:103D1000F8E75210FF2A01D91720F3E7FFF7BCFF9D
:103D2000002010BDF8B5154F05003B680E00144C7F
:103D3000002B04D1200000F0F1F901233B60EDB22B
:103D40002900200000F078FAF1B2200000F0A7F975
:103D50000021200000F07CFA002801D040420CE055
:103D600001222900200000F062FA200000F08DF905
:103D70000028FAD0200000F08DF9F8BDF00E0020E8
:103D8000140F002010B501240368234202D04168BB
:103D9000214201D10D2004E058104910802803D998
:103DA0001520FEF75BF807E0FF2901D91620F8E798
:103DB000FFF7B8FF4000204310BD0000002370B59E
:103DC000344D0400EB5601332BD10D211D20FFF79C
:103DD000A9FF5A2804D101222A212A703D380AE07D
:103DE0000F211920FFF79EFF332807D102235F22FE
:103DF00020212B701A38FFF74FFF12E00D211E20F3
:103E0000FFF790FFC7280AD1032300222A21A938EF
:103E10002B70FFF741FF1B222A211E20EBE7002316
:103E20002B700023EB56022B06D0032B13D0012B53
:103E300026D121001D2010E0012C04D129211920B8
:103E4000FFF770FF0DE0032C15D12B211920FFF790
:103E500069FF043C05E021001E200124FFF762FFFA
:103E600064427F2801DD0138FF3803007F330ADA1E
:103E70007F20404207E0052C02D12D211920ECE7DC
:103E800001240020644264237F21584300F08AFF0C
:103E9000604370BD6800002010B50120FFF78EFF61
:103EA00001234000184310BD10B50320FFF786FF23
:103EB00001234000184310BD10B50520FFF77EFF19
:103EC00001234000184310BD10B5FFF769FAE12047
:103ED000C000FEF737F8FEF7ADFC0448FEF7DCFD46
:103EE000FEF73EFBFEF744FE10BDC046456A0000EB
:103EF00010B5FDF7B9FF10BD70B5002504AC2478EE
:103F00000573A94205D10A4B0A4A23210A4801F048
:103F100061F801600949920052589B0002715B5898
:103F20008371A3005B58856043710223C37170BD28
:103F3000906E0000536E00009E6E0000246F000023
:103F4000037B002B04D14373837303610133037339
:103F5000704700001FB50191A02100240068C9002E
:103F6000D2B24450012A07D0A24203D0032A05D17D
:103F7000042202E0022200E006221343034A835097
:103F8000034B019AC250012343501FBD540500004A
:103F90002405000010B50400FFF7D2FFA12223681A
:103FA000A179D20099506179064A2000995021796F
:103FB00004329950044B19685A689B68FFF7CAFF8E
:103FC00010BDC0460C050000F40E00204BB2002BC3
:103FD0000CDB80233F290CD81F290CD80F290CD8C3
:103FE00007290CD803290CD81B060BE080239B045F
:103FF00008E0DB0406E01B0504E05B0502E09B052E
:1040000000E0DB050168014A8B5070472405000081
:104010000368074A99501A00FC32D1680029FCD085
:10402000A321C90058580023C0B2D3607047C046CE
:104030001C05000007B58022074BD2051A6000223C
:104040009A6002321A710F230C3200930349023B2B
:104050000348FFF751FF07BDF40E00200030004079
:10406000000F0020F8B505000E0017000024BC4228
:1040700008D02B68315D1B6828009847002801D0C4
:104080000134F4E72000F8BD704710B51C3000F093
:10409000D5FB10BD10B51C3000F0C2FB10BD70B5D3
:1040A000437E0D00002B05D06430040000F0D5FBEA
:1040B000002801D0002004E02000290000F0A1FB2E
:1040C000012070BD10B51C3000F0BEFB10BD00001B
:1040D000F7B50193FA23002504009B0083600D4B84
:1040E0004560083303601C300F00160000F07EFBB3
:1040F0002000643000F07AFB074AB600B35827610D
:104100006375019B20009B009B586576A576A3757F
:10411000FEBDC046046F0000246F00000123A022F2
:10412000C375837D0C49C133FF33D2059B00995081
:10413000437DC133FF339B009950CC210369074A6B
:10414000490499500521243A9950817D08329950AB
:10415000417D034A995070470C0600002405000079
:104160000C050000F7B5050000200C000193824209
:104170005CD0161E402E00D940262F001C37380078
:1041800000F04AFBB1222B69D20080219C50012211
:1041900089005A50A97E002901D11A621A600024B0
:1041A000731E2A69A34206D1019B002B03D08023F2
:1041B00002219B00D150012313621300FC33D96804
:1041C000002902D1996A0029F9D0996A00290AD1F7
:1041D000D960A323DB00D1583800C9B2013400F004
:1041E00010FBA642DCD8019A2B69002A04D11A00E0
:1041F000FC32916A00290AD001210022AA76596175
:104200001900FC3188680028FCD08A6007E0012191
:10421000A976D961D16C0029FCD00021D164FC338E
:104220009A6A002A01D000229A62E0B2FEBD10B55F
:104230000123FFF797FF10BD0300AC3310B5040056
:104240001970643000F0E8FA0123637610BD0000B5
:10425000F8B500220D0001004276AC31036904007C
:104260000878B121C9005850802189005A50013284
:104270001A629A6026006436300000F0DFFA0028E7
:104280000ED03000276900F0CBFA1E4BF85023699E
:10429000FC331A6A002A0CD19A6A002AF9D008E085
:1042A0002369002D0AD11A00FC32916A002905D138
:1042B0000EE09A6A002AF3D11A62DBE701225A6102
:1042C0001A00FC3291680029FCD00021916006E0C0
:1042D0000121D961D16C0029FCD00021D1641A00E0
:1042E0000020FC32916A81420BD0074990625A58F3
:1042F00002305A50824204D0043A534253410230B1
:10430000C01AF8BD1C050000C404000010B501214E
:10431000FFF79EFF10BD000010B5132314220249C1
:104320000248FFF7D5FE10BD00400040140F0020EA
:1043300003210A4802680A430260094802680A43E6
:1043400002600849084A094B9B1A03DD043BC85820
:10435000D050FBDC00F0B4F9FBF70CFF2405004063
:1043600054050040BC71000000000020380100200E
:10437000FEE7FEE7FEE7FEE7FEE7FEE7014B18601B
:104380007047C04674000020F7B50023202877D876
:104390003C4B8000C258042A14D006D8022A0DD003
:1043A0000ED80423012A14D069E0062A0ED00BD3BC
:1043B0001A2A0DD002231B2A0BD060E0082308E044
:1043C000102306E0202304E0402302E0802300E0E5
:1043D00001232D4A1268082A04D9092A05D00A2186
:1043E000022404E00821002401E011000124A0259A
:1043F00001261C272548ED004651254D254E2D68E8
:104400001B02AD003D400195234D2D680095855957
:10441000AC466746214D3D401D4385518359C0251B
:104420009C46009BAD021D40FF2367461B023B409C
:104430002B43019D1D43009B5F0160231F402B0008
:104440003B431C4301238451154C036063680F48B0
:10445000002BFBD00024124B01255C60A123DB0064
:10446000C3584560A025ED0044511BB2914207D0CE
:1044700002D98A1AD34003E0521A934000E0002385
:104480001800FEBD246F000078000020007000407E
:1044900070000020040500006C000020FF00FFFFFA
:1044A000FC700040F0B520286CD8374B8000C25813
:1044B000364B1E68002E2ED1C2243548A400075961
:1044C000344B03253B40C0273F023B43035180232D
:1044D000893C9B00FF3C03512F4F03602F4B803CD6
:1044E000D859FF3CA043D8510437D859A84320439A
:1044F000D8510837D8590C35A843083D2843D8511E
:10450000A820C0001E508026C120760280001E50C8
:104510001C601E4B1C6000231426214834005C43A1
:10452000255804006F1C0FD1142058432250A0209E
:104530000325C132FF329200C0051550194A080008
:104540001268082A03D10BE0AA4218D1ECE7082A26
:1045500002D9083AD14002E00820821A91400800AE
:1045600014225343E3189A680C495132FF329200E7
:1045700058605050DA68C1239B00CA5002E00133F2
:10458000032BCBD1F0BDC046246F0000CC0F002020
:1045900000E100E0FF00FFFF040500000090004084
:1045A0007C000020740000201E4BF0B5596C1800F0
:1045B0001D4A002914D0A025A12600230124ED05C1
:1045C000F600D1584F1C06D0D7187F68002F02D0B4
:1045D00027008F40AF5114333C2BF2D100234364AA
:1045E000131DA02540329446002001240F4EED05F6
:1045F000DA680F49920057180A495218526C002A7B
:104600000CD01A1F1268511C05D01968FF2902D05E
:1046100021009140A9513A00FC32506414339C456A
:10462000E6D1F0BDFC9000407C0000200C050000AD
:104630000090004000B5202816D80C4A83009B58F3
:10464000032911D8A0220800C133FF33D2059B00F3
:1046500000F014FB02080406002104E00C2102E033
:10466000042100E00321D15000BDC046246F0000AA
:1046700020280DD8074B8000C058A0220123D20566
:104680008340002901D1044901E0A121C900535010
:104690007047C046246F00000C0500000300002096
:1046A000202B0AD8A222A021D200C9058858034A8B
:1046B0009B009B58D840012318407047246F00008E
:1046C0002D4B10B51A78012A19D12C4A12681207FD
:1046D00015D12B4AE0241168F02208001040214235
:1046E0000BD128490968114209D12749274A11608D
:1046F0008021274A0902116001E03028F1D01A78A0
:10470000012A0DD11D490968090709D1F0201C496A
:1047100009680140402903D11A490968014223D0A0
:104720001B68DBB2012B25D1144B1B681B0721D161
:10473000134B1A68F0231A40A02A04D1114A1268B8
:104740001A4203D016E0D02A14D1F7E7114B1A68A9
:10475000012A03D1C022104B1A600BE00F4A1A60E5
:104760001A68012AFCD1F5E7C1218020C900C005E3
:104770004250D5E710BDC046E00F00F0E40F00F056
:10478000E80F00F0EC0F00F0DFFF07C00405004069
:10479000186C004000EC064014EC064075930000D5
:1047A000F7B506000D000C008B180193019B671BE9
:1047B0009C4207D0336821781B6830009847013449
:1047C0000028F3D13800FEBD70B505000C00081EAE
:1047D00007D001F0B5F82B6802005B6821002800C3
:1047E000984770BD10B5FFF7EFFF10BD10B5402220
:1047F0000021040000F077FC0023200023646364A0
:1048000010BD3F23026C10B5541C2340446C9C42E5
:1048100001D08154036410BD0023036443647047D6
:10482000436C026C934206D03F21C25C01330B40C3
:104830004364100001E0012040427047036C406C6B
:10484000181A00D540307047436C026C934201D077
:10485000C05C01E0012040427047036C406C5A1C70
:104860003F231340181A42424241D0B27047012000
:10487000704710B503681322DB69984710BD704775
:104880000369054A9950FC331A6A002AFCD00022B9
:1048900001201A627047C0461C050000030010B5D5
:1048A0005C331A781F2313400122110099400D4BED
:1048B0000424D967C221036989005C505A60DA6018
:1048C000A0220021D20099500122074952425A5099
:1048D000064914305A500C395A5008315A50FFF7D3
:1048E0009BFF10BD04E100E00C0500001405000072
:1048F00010B51430FFF7A2FF10BD10B51430FFF74C
:10490000A3FF10BD10B51430FFF78AFF10BD0000E3
:10491000030070B55E331C780269604BD45003000D
:104920005D331C785E4BD450030061331C785D4BC3
:10493000012C0CD105005F352E78A225ED005651D3
:10494000050060352E78A125ED00565100E00024C9
:10495000D4509623DB00994238D996231B01994203
:1049600037D996235B01994236D996239B01994208
:1049700034D9E1239B01994232D99623DB01994234
:1049800031D9E123DB0199422FD996231B029942A9
:104990002DD9E1231B0299422BD996235B02994220
:1049A00029D9E1235B02994227D9E1239B0299424D
:1049B00025D93D4B994224D9E123DB02994223D9E1
:1049C000E1231B03994221D8384B21E09E23DB02CF
:1049D0001EE09D231B031BE0354B19E0354B17E010
:1049E000EC239B0314E0344B12E0344B10E0344BC7
:1049F0000EE0344B0CE0344B0AE0344B08E0344B0F
:104A000006E08023DB0403E0324B01E080235B05FA
:104A10003149002453500423243953501100FC31F0
:104A2000CC600C62C1210134890014605C30946058
:104A3000535003781F202200D9B2084082408034AE
:104A40002648FF345BB20251002B13DA0F230B40D0
:104A5000083B234C9B089B001B1903242140A140C9
:104A6000FC348C40DD69A543C0248C4021002943DF
:104A7000D96111E0194C9B089B001B1903242140AC
:104A8000A140C025FC348C40AD005E59A643C02433
:104A90008C40210031435951026070BD0C0500006B
:104AA000140500006C05000090D0030000D0BE0E7D
:104AB00000B013000050270000A04E0000F0750069
:104AC00000509D0000F0EB0000903A0100E0D7019B
:104AD00000B0AF0300705F072405000000E100E0B4
:104AE00000ED00E0F7B5009308AB1B7800250193BB
:104AF000FA2304009B0083600E4B4560083303607B
:104B000014300F001600FFF771FE23005C3327619D
:104B10001E70009B084A9B00995823005D33197052
:104B2000019B20009B009A5823005E33DD701A70B1
:104B3000FEBDC046A86F0000246F0000036910B5D9
:104B40001A00FC32D2680400002A0AD0A322D20044
:104B500099581430C9B2FFF754FE00222369FC3380
:104B6000DA6010BD10B50248FFF7E8FF10BDC0467F
:104B7000D00F0020162307B5022200930249013B03
:104B80000248FFF7AFFF07BD00200040D00F002014
:104B90007047000010B500F047F8FFF7F9FF01205B
:104BA00000F024F8FFF790F9FFF7A2F9024B002B71
:104BB000FAD000E000BFF7E700000000084A09490A
:104BC000094B10B51B688858FA22190A1B061843AE
:104BD0009200002300F0D2F94904C00B084310BD35
:104BE00004050000001001403410002070B5041EC0
:104BF00009D0FFF7E3FF050000F014F8FFF7DEFF30
:104C0000401B8442F8D870BD0022044B9A60044ACD
:104C100013680133DBB213607047C046FC100140DB
:104C20003410002070470000C421114A89005058F8
:104C3000104B0340C020000203435350802391399E
:104C40009B02FF39535013608023A3220021DB0510
:104C5000D20099500122A1209A60074BC000195040
:104C6000C120023180001950403019501A6070473D
:104C700000E100E0FF00FFFF0010014002B47146B8
:104C800049084900095C49008E4402BC7047C0468F
:104C9000002243088B4274D303098B425FD3030A7B
:104CA0008B4244D3030B8B4228D3030C8B420DD38E
:104CB000FF22090212BA030C8B4202D3121209021C
:104CC00065D0030B8B4219D300E0090AC30B8B425A
:104CD00001D3CB03C01A5241830B8B4201D38B0308
:104CE000C01A5241430B8B4201D34B03C01A5241AD
:104CF000030B8B4201D30B03C01A5241C30A8B42F0
:104D000001D3CB02C01A5241830A8B4201D38B02DA
:104D1000C01A5241430A8B4201D34B02C01A52417E
:104D2000030A8B4201D30B02C01A5241CDD2C309F0
:104D30008B4201D3CB01C01A524183098B4201D36C
:104D40008B01C01A524143098B4201D34B01C01A57
:104D5000524103098B4201D30B01C01A5241C308CF
:104D60008B4201D3CB00C01A524183088B4201D33E
:104D70008B00C01A524143088B4201D34B00C01A2A
:104D80005241411A00D20146524110467047FFE796
:104D900001B5002000F0F0F802BDC0460029F7D0B0
:104DA00076E7704703460B437FD4002243088B42CB
:104DB00074D303098B425FD3030A8B4244D3030BA2
:104DC0008B4228D3030C8B420DD3FF22090212BA67
:104DD000030C8B4202D31212090265D0030B8B42E3
:104DE00019D300E0090AC30B8B4201D3CB03C01ACD
:104DF0005241830B8B4201D38B03C01A5241430BA8
:104E00008B4201D34B03C01A5241030B8B4201D397
:104E10000B03C01A5241C30A8B4201D3CB02C01A02
:104E20005241830A8B4201D38B02C01A5241430A7A
:104E30008B4201D34B02C01A5241030A8B4201D369
:104E40000B02C01A5241CDD2C3098B4201D3CB0110
:104E5000C01A524183098B4201D38B01C01A5241BF
:104E600043098B4201D34B01C01A524103098B42C3
:104E700001D30B01C01A5241C3088B4201D3CB00AE
:104E8000C01A524183088B4201D38B00C01A524191
:104E900043088B4201D34B00C01A5241411A00D241
:104EA00001465241104670475DE0CA0F00D04942AA
:104EB000031000D34042534000229C4603098B421A
:104EC0002DD3030A8B4212D3FC22890112BA030AA2
:104ED0008B420CD3890192118B4208D38901921124
:104EE0008B4204D389013AD0921100E08909C309A9
:104EF0008B4201D3CB01C01A524183098B4201D3AB
:104F00008B01C01A524143098B4201D34B01C01A95
:104F1000524103098B4201D30B01C01A5241C3080D
:104F20008B4201D3CB00C01A524183088B4201D37C
:104F30008B00C01A5241D9D243088B4201D34B0097
:104F4000C01A5241411A00D20146634652415B10D9
:104F5000104601D34042002B00D5494270476346BA
:104F60005B1000D3404201B5002000F005F802BDFF
:104F70000029F8D016E770477047C046F0B54F4695
:104F80004646C0B41604360C9946330005042C0C72
:104F9000070C150C63437E436F4365431C0CAD192E
:104FA00064199C46A64203D980235B029846474475
:104FB0006346250CEF191D044B464A4343432D0C11
:104FC000240464199918C91920000CBC904699460C
:104FD000F0BDC0467FB51D000A4B06001B68D868AF
:104FE000002A02D1084C230001E01300074C029371
:104FF000009133002A000649019400F021F800F0E6
:1050000011FEC046180100209C690000D86F000006
:10501000E56F0000084B10B50400002B02D0002102
:1050200000E000BF054B1868836A002B00D098474A
:10503000200001F0E1FAC0460000000018700000F6
:105040000EB403B5010003AB044804CB0068019320
:1050500000F016F902B008BC03B018471801002090
:105060000E4B70B500251E000D4CE41AA410A5428D
:1050700004D0AB00F35898470135F8E701F0BEFAC9
:10508000084B00251E00084CE41AA410A54204D0C9
:10509000AB00F35898470135F8E770BD20010020B8
:1050A00020010020200100203001002010B5034B1A
:1050B0000100186800F066F810BDC0461801002015
:1050C00010B5034B0100186800F016F810BDC0467B
:1050D00018010020002310B59A4203D0CC5CC454C0
:1050E0000133F9E710BD03008218934202D0197012
:1050F0000133FAE77047000030B500293ED004398B
:105100000B68002B00DAC9181D4A13681400002B25
:1051100002D14B60116031E08B420DD90A688818CA
:10512000834203D118685B6882180A604B60216073
:1051300024E08A4203D813005A68002AF9D11D6876
:105140005C198C420BD109686918581819608242A1
:1051500014D110685268411819605A600EE08C42F0
:1051600002D90C23036009E008680C18A24203D19D
:1051700014685268201808604A60596030BDC04603
:105180003C100020032370B5CD1C9D43083506005C
:105190000C2D01D20C2505E0002D03DA0C23002094
:1051A000336040E0A942F9D81F4B1C681A00210067
:1051B000002913D00B685B1B0DD40B2B02D90B609D
:1051C000CC181EE08C4202D1636813601AE04B6871
:1051D00063600C0016E00C004968E9E7134C236893
:1051E000002B03D1300000F033FB20602900300099
:1051F00000F02EFB431CD1D00323C41C9C43A042CF
:105200000AD12560200007220B30231D9043C31ACA
:1052100009D05A42E25006E0211A300000F018FB93
:10522000431CEED1BAE770BD3C10002038100020BE
:10523000936810B5013B9360002B05DA9469A34293
:1052400008DBCBB20A2B05D01368581C106019700C
:10525000C8B201E000F01AFC10BDF8B506000F005E
:105260001400D518AC4208D021783A003000FFF77E
:10527000DFFF0134431CF5D100E00020F8BD000041
:10528000F0B59FB006000F0002920593002804D0ED
:105290008369002B01D100F0C1FD7F4B9F4201D1FA
:1052A000776808E07D4B9F4201D1B76803E07C4BF3
:1052B0009F4200D1F768BB891B070AD53B69002BC9
:1052C00007D0002306AD6B6120336B761033AB76CD
:1052D0003DE03900300000F031FC0028F1D0012021
:1052E0004042D6E0059A111D12680591002A00DAA5
:1052F0007FE00992013423782E2B00D18DE02178B4
:105300000322684800F070FE002807D0654B2A6829
:10531000C01A4023834013432B6001342178631C5F
:10532000062261480293297600F05EFE002800D133
:105330009DE05E4B002B00D090E00722059B0733D9
:105340009343083305936B69039A9B186B61029C26
:105350002378002B04D1029BE31A049312D003E0BC
:10536000252BF8D00134F3E7049B029A3900300072
:10537000FFF773FF431C00D186E06A69049B9446E3
:1053800063446B612378002B7ED0012200235242BC
:105390006A6002A95432521801342B60EB60AB6092
:1053A0001370AB6521780522414800F01DFE0028EE
:1053B00008D03F4B2A68C01A0123834013432B6057
:1053C0000134EFE72B68DA0604D55322202102A826
:1053D000121811701A0704D553222B2102A8121893
:1053E000117022782A2A00D17CE7099B00200A212B
:1053F00005E05242EA60022213432B607AE72278EA
:10540000303A092A04D84B4301349B180120F6E7AF
:10541000002800D16FE709936DE763782A2B0AD142
:10542000059B02341A1D1B680592002B01DA01232B
:105430005B42079363E700230A201A0001346B6084
:1054400021783039092904D8424301345218012304
:10545000F6E7002B00D152E7079250E705AB009327
:105460003A00144B2900300000E000BF07E005AB14
:1054700000933A000F4B2900300000F08BF80390A6
:10548000039B013300D05EE7BB895B0600D526E7AE
:105490000B981FB0F0BDC046507100007071000045
:1054A00090710000227000002670000000000000D3
:1054B0001C7000005B520000F7B5170001938A686A
:1054C0000B6900900C00934200DA130022003B604D
:1054D00043321278002A01D001333B6023689B06D7
:1054E00002D53B6802333B60062523681D401ED071
:1054F000230043331B785A1E9341226892061CD521
:105500003020E1184331087021005A1C45310978D8
:10551000A2184332023311700FE022000123193226
:1055200001990098089EB047431C0ED00135E368EE
:105530003A689B1A9D42F0DBDAE722000199433278
:105540000098089DA847431C02D10120404220E05A
:1055500006232068E1683A6803400025042B03D144
:105560008D1AEB43DB171D40A3682269934201DDCE
:105570009B1AED180027BD420AD0220001231A32DF
:1055800001990098089EB047431CDED00137F2E72E
:105590000020FEBDF0B58BB006920A00433207939F
:1055A000059004920A7E0C00109B6E2A00D1ABE09D
:1055B00011D8632A22D009D8002A00D1B5E0582A90
:1055C00000D0C5E045310A70814A4FE0642A1DD001
:1055D000692A1BD0BCE0732A00D1AAE009D86F2A3F
:1055E00029D0702A00D0B3E0202209680A43226043
:1055F00037E0752A1FD0782A33D0A9E00E001A6848
:105600004236111D196013683370A4E021681A68CE
:10561000080606D4490604D5111D19600023D55E7D
:1056200002E0111D19601568002D3BDA2D23049A44
:105630006D42137036E021681A68080606D44906E0
:1056400004D51568111D1960ADB202E0111D196075
:1056500015685F4B227E039308276F2A1DD00A2707
:105660001BE022007821453211705A4A19680392D2
:10567000081D226818600D68100602D4500600D577
:10568000ADB2D30702D520231A4322601027002D84
:1056900003D1202322689A4322602300002243334F
:1056A0001A7002E00A274A4B03936368A360002B39
:1056B00009DB0422216891432160002D05D1049E5D
:1056C000002B11D07BE0002D79D0049E28003900FA
:1056D000FFF764FB039B013E5B5C280033703900DD
:1056E000FFF7D6FA051EF1D1082F09D12368DB0791
:1056F00006D563682269934202DC3023013E337091
:10570000049B9B1B23612BE009681A68080607D4D9
:10571000490605D5111D19601368A28A1A8004E094
:10572000111D1960136862691A600023049E2361C9
:1057300016E01A68111D19601668002162683000B1
:1057400000F052FC002801D0801B6060636803E019
:10575000260042363270012323610023049A13701D
:10576000079B09AA00932100069B0598FFF7A4FE5A
:10577000431C02D10120404227E0236932000699F0
:105780000598079DA847431CF4D0236800259B0774
:105790000FD4099BE068984217DA180015E0220040
:1057A0000123193206990598079EB047431CE1D0A2
:1057B0000135E368099A9B1A9D42F0DBE9E7260070
:1057C000039B42361B7833708EE70BB0F0BDC046AA
:1057D0002D7000003E700000154B10B51C68A36BC7
:1057E000002B15D11820FFF761FC124BA06303803A
:1057F000114B01224380114B8380114BC380114B0D
:1058000003810523438106338381002302614361C1
:10581000A46B0D4A206961690C4BFFF7AFFB0122B5
:10582000002380185941206161614800400810BD83
:10583000180100200E330000CDABFFFF3412000032
:105840006DE6FFFFECDEFFFF2D7F954C2DF45158E8
:10585000002370B5064C05000800236000F0B6FE7A
:10586000431C03D12368002B00D02B6070BDC046C1
:10587000981F00200CB430B5164B9DB00C1E1D684F
:1058800004DA8B2301202B6040421DE0822302A911
:105890009B008B810023029008619C4200D0631E14
:1058A0008B604B6101235B42CB81209A21AB2800A6
:1058B000019300F041FC431C01DA8B232B60002C88
:1058C00002D00023029A13701DB030BC08BC02B095
:1058D0001847C046180100200EB410B59DB002A9AB
:1058E000029008610B488224886048610120404290
:1058F0001FABC881084804CBA400006801938C81C9
:1059000000F01AFC0023029A13701DB010BC08BCF2
:1059100003B01847FFFFFF7F1801002002780B78C3
:10592000002A03D0013001319A42F7D0D01A7047D3
:10593000031C0A7801311A700133002AF9D170472B
:105940000023C25C0133002AFBD1581E70470000BF
:10595000F0B51E00454B87B01B68019202930822E8
:105960000B00059003911C7802995D1C0919487879
:10597000104001D02B00F6E72D2C04D19D1C5C7843
:105980000123009304E000902B2C01D15C789D1C36
:10599000002E02D0102E0AD162E0302C5ED12022DF
:1059A0002B789343582B54D110266C780235009FE6
:1059B00031007B1E9F412E4BFF183800FFF7EEF998
:1059C000380004913100FFF763F900230322070038
:1059D00094461800029A121951780422114201D0FB
:1059E000303C07E06246114017D03722012900D031
:1059F0002032A41AA64210DD5A1C0BD0B84207D898
:105A000002D1049B9C4203DC70430123201801E077
:105A100001235B422C780135DCE75A1C0BD100983E
:105A2000059A431E9841124BC01822231360019B14
:105A3000002B0AD117E0009A002A00D04042019AB8
:105A4000002A10D0039A002B00D06A1E019B1A6016
:105A500009E03024002EAAD10826A8E70A26A6E7E6
:105A6000302C9CD0A3E707B0F0BDC0461C0100203D
:105A7000FFFFFF7F10B513000A0001000248006815
:105A8000FFF766FF10BDC04618010020F8B50500FD
:105A90000F001400002804D08369002B01D100F00E
:105AA000BDF9234B9C4201D16C6808E0214B9C421C
:105AB00001D1AC6803E0204B9C4200D1EC68A369A3
:105AC000A360A3891B070AD52369002B07D023688D
:105AD0002269FEB2981A636998420FDB08E0210040
