:1000000000400020793E0000B93E0000BB3E0000E9
:1000100000000000000000000000000000000000E0
:10002000000000000000000000000000BD3E0000D5
:100030000000000000000000BF3E0000C13E0000C4
:10004000C33E0000C33E0000AD460000C33E0000BA
:10005000C33E000000000000C33E0000C33E00009D
:10006000C33E0000F1400000C33E0000C33E00005C
:10007000C33E0000C33E0000C33E0000C33E00007C
:10008000C33E000051470000C33E0000C33E0000D5
:10009000C33E0000C33E0000C33E0000C33E00005C
:1000A000C33E0000C33E000000000000000000004E
:1000B0000000000000000000000000000000000040
:1000C000054B0648033310B51B1A062B03D9044B06
:1000D000002B00D0984710BDD4000020D400002091
:1000E000000000000648074910B5091A8910CB0F17
:1000F0005918491003D0044B002B00D0984710BD6D
:10010000D4000020D40000200000000010B5074CEF
:100110002378002B09D1FFF7D3FF054B002B02D02A
:10012000044800E000BF0123237010BDD40000206C
:1001300000000000246C0000094B10B5002B03D018
:100140000849094800E000BF08480368002B02D1B5
:10015000FFF7C8FF10BD064B002BF9D09847F7E713
:1001600000000000D8000020246C0000D000002017
:1001700000000000164B002B00D1144B9D4640227E
:1001800092029A1A924600218B460F461348144A4F
:10019000121A04F056FD0F4B002B00D098470E4B5F
:1001A000002B00D098470020002104000D000D48CE
:1001B000002802D00C4800E000BF04F0FFFC200043
:1001C000290004F08BFA04F0D3FCC04600000800BC
:1001D000004000200000000000000000D4000020CB
:1001E000E41E002000000000000000000123034086
:1001F0000200181E04D1042A03D91068000900E087
:100200000020704710B50400FFF7F0FF0300012045
:10021000002B0BD0013B9B00181DE2181279002A1D
:1002200003D001338342F8D100E0180010BD012251
:10023000016810B5114201D0002903DA102001F045
:1002400093FD03E04910062001F046FE10BD016851
:1002500010B5CB0701D5002903DA102001F084FD89
:1002600006E04910033189100022052001F034FE18
:1002700010BD70B50568AB0728D1042D26D90F2312
:100280002A6846681340062B09D12800FFF7AEFF05
:10029000012383421DDC9A00AE500133F9E7052BA0
:1002A00014D1F30703D4132001F05EFD12E07610A1
:1002B000FF2EF8D82800FFF799FF2C1D230080009F
:1002C0002018984205D91E700133FAE70B2001F07F
:1002D0004BFD002070BD70B50468E30701D4112008
:1002E0002DE04568AB0729D1042D27D90F262B68AF
:1002F00064101E40062E0BD1002C04DD2800FFF7F1
:1003000075FF844201DD122019E0A400605918E055
:10031000331F012B12D82800FFF768FF8000042E3E
:1003200002D12800FFF76EFF002CECDDA042EADBD3
:1003300001232C19E0784000184302E00B2001F063
:1003400013FD70BDF8B5012304681C4201D11120D2
:100350002FE00325466835402AD1042E28D90F23E3
:100360003268641087681340062B0BD1002C04DD23
:100370003000FFF73BFF844201DD122019E0A400AA
:10038000A75113E0052B13D1002CF6DD3000FFF749
:100390002DFF80008442F0DC01231F4201D1132095
:1003A00007E07F10FF2FFAD83419E770280002E029
:1003B0000B2001F0D9FCF8BD006810B5830717D1F8
:1003C000042815D90F2302681340062B02D1FFF72A
:1003D0000DFF0BE0052B05D1FFF708FFC00001233F
:1003E000184308E0042B03D1FFF70CFF4000F6E7A9
:1003F0000B2001F0B9FC10BD10B5032400680440C7
:1004000006D1042804D90F2302681340042B01D01D
:100410000E200CE001F09CFD1022210005F0CEF82A
:1004200080239B05C218054B9A4203D9142001F082
:100430009BFC02E001234000184310BDFFFFFF3F7B
:1004400010B501240368234202D04268224203D13E
:100450000D2001F089FC08E004495B1052101B07D5
:100460000A40134318684000204310BDFCFFFF0FF3
:100470000121036810B50B4205D042680A4202D040
:100480008068084203D10D2001F06EFC08E00549A8
:100490005B1052101B070A404010134318600020E5
:1004A00010BDC046FCFFFF0F012303400200181ED1
:1004B00001D0501002E00D22014B1A707047C04667
:1004C000F0000020012303400200181E04D1042A7A
:1004D00003D91068000900E00020704770B50D00D6
:1004E0000400FFF7EFFF86002800FFF7EBFF830013
:1004F00000209E420ED1231D9E1904351A009E42F3
:1005000007D929781278013301358A42F6D00020C4
:1005100000E0012070BD0000F0B585B003930190AC
:1005200002912D4E2D4B002A02D002223270013A48
:1005300000251A601B68F554019B9D424ADA029A15
:10054000AB00D058254B1C68C8239B0037191C1BD7
:100550000123184202D04310214A1FE0214A0028FB
:1005600002D0042805D1204A2100380004F030FFD1
:1005700018E0042810D90F2302681340042B04D17B
:1005800001F0E6FC194A030008E0062B05D1FFF74D
:1005900099FF174A030001E00123164A21003800A1
:1005A00004F016FF300004F06FFF039B0B4A002B92
:1005B00001D110600CE0019B013B9D42F9DA0E4B2A
:1005C0009842F6DC431C1360202232540022F2547D
:1005D0000135B1E705B0F0BDFC000020F8000020B7
:1005E000896300005C63000062630000A86500008E
:1005F00067630000786300001F030000C368F0B564
:100600009D00836887B05D19030018330393036965
:1006100002909C00039B1F1943699E000093039B5B
:100620009E19D64B1B78002B0FD17F222B68D44903
:100630001C1213409B005B5800960435019235E074
:10064000CE4B1B78002B29D0009E029BCB4C9B6885
:1006500021780093EA1A029B92109B7812021A43A7
:10066000029B587802F0DEF90023029A237013707F
:1006700000960497029B039A9B68ED1A0193029BD4
:10068000AD10DD60049B9F1A029BBF101F61009B91
:100690009B1A029A9B10536101F060FB2B68019A30
:1006A0001C121340B64A9B009B5804359F46029B80
:1006B000587802F0AFF90023029A1370D9E7039B30
:1006C0003A1DD11AAD4B8B2903DD1A22009E1A70F8
:1006D000BBE71B783C60002B02D0009E1700B4E7FC
:1006E0002B6801991C120B40A5499B005B58170011
:1006F0000435DBE7039B3A1DD11AA04B8B2903DDA0
:100700001A22009E1A70A0E728681B78291D3860FD
:10071000002B03D0009E17000D0096E76B6801992F
:100720001C120B4096499B005B5817000835BDE72B
:10073000039B3A1DD11A914B8B2903DD1A22009E8F
:100740001A7082E7A4001B782C193C60002B02D0A1
:10075000009E170079E72B6801991C120B4088490D
:100760009B005B5817000435A0E7039B3A1DD11A84
:10077000824B8B2903DD1A22009E1A7065E781489F
:10078000A40021581B783960002B02D0009E17006E
:100790005BE72B6801991C120B4079499B005B5861
:1007A0001700043582E73A1F764B1168A400E15028
:1007B000724B1B78002B02D0009E170045E72B6878
:1007C00001991C120B406E499B005B5817000435C1
:1007D0006CE76C4BA600F058FFF766FE043F040080
:1007E0003868FFF761FE24180120664B640004435B
:1007F000F450624B1B78002B01D0009E25E72B683C
:10080000019A1C1213405E4A9B009B5804354DE729
:10081000039B3A1DD11A594B8B2903DD1A22009EE6
:100820001A7012E70098039C0121A04202D901002E
:100830000C3909681B783960002B02D0009E170024
:1008400003E72B6801991C120B404D499B005B5834
:10085000170004352AE7039B3A1DD11A474B8B2911
:1008600003DD1A22009E1A70EFE600990398814278
:100870000AD90B000C3B1B6843495B106418E41A4F
:10088000009BA400E35802E01821197000233B608C
:100890003A4B1B78002B02D0009E1700D5E62B6840
:1008A00001991C120B4036499B005B581700043518
:1008B000FCE6009B039A93420CD90C3B1968324B1F
:1008C0003A1FE3184910591A1068009B8900C85054
:1008D000170002E01822294B1A70284B1B78002BB6
:1008E00001D0009EB1E62B68019A1C121340244AE5
:1008F0009B009B580435D9E6009B039A934220D96C
:10090000009E214B0C3EE31804933368049A5B105D
:10091000D31A009A9B009858FFF7C6FD3C1F05901C
:100920002068FFF7C1FD3168049B4910591A059BE7
:1009300089001F1801207F00009B0743CF5027002C
:1009400002E018220D4B1A700C4B1B78002B01D0C3
:10095000009E7AE62B68019A1C121340084A9B00FD
:100960009B580435A2E6039B3A1DD11A034B8B29F1
:100970000CDD1A22009E1A7067E6C046F0000020C7
:100980005C610000001A0020FDFFFF3F0099A400F9
:1009900061581B783960002B02D0009E170054E686
:1009A0002B6801991C120B40CD499B005B58170026
:1009B00004357BE63A1F009B1168A400E150C94B47
:1009C0001B78002B02D0009E17003EE62B68019991
:1009D0001C120B40C2499B005B581700043565E6AA
:1009E000009BA4001C192368043F38685E10FFF7C1
:1009F0005BFD36180120BB4B76001B780643266052
:100A0000002B01D0009E20E62B68019A1C12134097
:100A1000B34A9B009B58043548E6039BA4003F1B48
:100A2000B04CBB420DD82378002B01D0009E0CE6C1
:100A30002B68019A1C121340A94A9B009B5804354D
:100A400034E6A94801F0FAF92378002B01D0009E82
:100A5000FBE52B68019A1C121340A14A9B009B588E
:100A6000043523E6A300ED18002C00DA01E69D4BC7
:100A70001B78002B01D0009EE7E52B68019A1C1221
:100A80001340974A9B009B5804350FE63B1F049385
:100A90001B680593042B04D1A300ED18002C00DA89
:100AA000E8E5904B1B78002B02D0009E049FCCE51C
:100AB0002B68019A1C121340894A9B009B58049F83
:100AC0000435F3E53B1F04931B680593002B04D109
:100AD000A300ED18002C00DACCE5824B1B78002B2C
:100AE00002D0009E049FB0E52B68019A1C121340AF
:100AF0007B4A9B009B58049F0435D7E53A1F136837
:100B00005B10013B002B07DD01215B00A4000B43C0
:100B100004972D191360ADE5724B17001B78002B5D
:100B200001D0009E91E52B68019A1C1213406C4A7B
:100B30009B009B580435B9E53A00039B0C32D31A4D
:100B40008B2B04DD1A22674B009E1A707DE5FF2374
:100B500061005B000B4001210B433B60029B03984B
:100B60009B6824120493ED1A029BAD109B782D0212
:100B70001D43009B8D401B1A9B108B400B43BB6099
:100B8000029B0D437D609C70E4B2584BE4000299D7
:100B9000E35816008B6053490978002903D00833C5
:100BA0001D00170051E51D0001999B680C351C12B2
:100BB0000B404B499B005B580092170076E53B1FAA
:100BC0001E68039A009B93422AD104970A20F307D8
:100BD00016D4B3070DD1042E0BD90F23326813405E
:100BE000042B06D1300001F0B3F904F04DFC0630BF
:100BF00006E00720042E03D0002E01D080208000C4
:100C0000643001F03FFD002801D1043D32E5029B34
:100C10003100587801F018FF0023029A137029E57B
:100C2000009B009A0C3B1B6802995B109B005B4287
:100C30001C00D3180C3B1E601300083B1B68083CCB
:100C400017195A108A70D2B22849D2005B00555841
:100C50009B0A029A9B009560ED18009B043B1E685E
:100C6000039B7610B6009E191E4B1B78002B00D0FC
:100C7000EBE42B68019A1C121340194A9B009B5805
:100C80000096043512E53B1F1868FFF70DFCA40021
:100C900006003F1B1E2818DC02F04AFC083E3618EE
:100CA00002F046FC124B801B9842F9D80D4B1B7882
:100CB000002B01D0009EC8E42B68019A1C1213403F
:100CC000074A9B009B580435F0E40123029A1370F5
:100CD00002F02EFC029B113886195E60C9E4C04602
:100CE0005C610000F00000208C630000081200200E
:100CF0009F8601003B1F1868FFF7D6FBA4003B1B33
:100D00000493BE4B061E9E4209DC0123029A137017
:100D100002F00EFCFA239B005E43113E04E0022326
:100D2000029A137002F00EFC029B36185E60A1E47A
:100D3000A300FF1A002320001A003900FFF7ECFB84
:100D4000AF4EB04C3168200001F036FE3168200013
:100D500001F081FEAC4B1B78002B01D0009E74E4A7
:100D60002B68019A1C121340A84A9B009B5804351B
:100D70009CE4A54BA4001B783F1B002B01D0009ED8
:100D800063E42B68019A1C121340A04A9B009B58F5
:100D900004358BE401F0BCFC00F0E0FF3B1F186859
:100DA000002823D1083B1868C30701D5401016E07E
:100DB00083070FD104280DD90F2302681340062B97
:100DC00002D1FFF77FFB0AE0052B03D1FFF77AFB87
:100DD000800004E019228C4B009E1A7035E43A0022
:100DE00001214300083A0B43136001E04010013831
:100DF000002832DD012243001343391F0B603B0002
:100E0000083B1B681341181A3B000C3B1B6813423C
:100E100003D08018A400904015E0990717D1042B47
:100E200015D90F211E683140062906D101308000F6
:100E3000C358009AA400A35010E0052907D1181840
:100E40000079A4004000009B1043E05006E0192206
:100E50006D4B009E1A70FFF7F8FB04356A4B1B7848
:100E6000002B02D0009EFFF7F0FB2B68019A1C12AA
:100E70001340664A9B009B58043517E4A300039A6D
:100E8000FB189B1A8B2B01DC002205E01A225E4B1B
:100E9000009E1A70FFF7D9FB631E002C03DD3A6039
:100EA0001C000437F8E7584B1B78002B02D0009E3B
:100EB000FFF7CBFB2B68019A1C121340534A9B008F
:100EC0009B580435FFF7F2FB3B00083B1868FFF71F
:100ED000EBFA3B1F04901868FFF7E6FA049AA600A5
:100EE000BC1B0023824200DA04332360464BBC1B48
:100EF0001B78271D002B02D0009EFFF7A6FB2B6856
:100F0000019A1C121340414A9B009B580435FFF77D
:100F1000CDFBA300FE1A04933B00083B1868FFF7C3
:100F2000C3FA3B1F04001868FFF7BEFAE20FC317AD
:100F3000A04253419B003360049BFC1A324B271D97
:100F40001B78002B02D0009EFFF77FFB2B68019AD5
:100F50001C1213402D4A9B009B580435FFF7A6FB3B
:100F60003B00083B18683B1F1968A300884202D168
:100F7000FB1A042222E004281ED90122104201D0CB
:100F8000114219D10326304215D10F2302681A40AD
:100F9000042A10D131420ED104290CD90A68134019
:100FA000042B08D1FFF79AFA431E9841A600BE1BF6
:100FB0008000306003E0A3000022FB1A1A60124B8D
:100FC000A4001B783C1B271D002B02D0009EFFF7BE
:100FD0003CFB2B68019A1C1213400C4A9B009B5847
:100FE0000435FFF763FB3B00083B18683B1F19689B
:100FF000A30088420CD1FB1A00222DE0E703000079
:10100000F8000020FC000020F00000205C610000DF
:1010100004281FD90122104201D011421AD10326FF
:10102000304216D10F2302681A40042A11D13142EE
:101030000FD104290DD90A681340042B09D1FFF7F9
:101040004DFA030058425841A600BE1B8000306094
:1010500003E0A3000422FB1A1A60EA4BA4001B78E9
:101060003C1B271D002B02D0009EFFF7EEFA2B68D9
:10107000019A1C121340E44A9B009B580435FFF769
:1010800015FBA300FE1A04933B00083B1868FFF70A
:101090000BFA3B1F04001868FFF706FAE217C30FAC
:1010A000844253419B003360049BFC1AD54B271D9F
:1010B0001B78002B02D0009EFFF7C7FA2B68019A1D
:1010C0001C121340D04A9B009B580435FFF7EEFAE0
:1010D0003B00083B1868FFF7E7F93B1F04901868CE
:1010E000FFF7E2F9049AA600BC1B0023824200DD50
:1010F00004332360C34BBC1B1B78271D002B02D07D
:10110000009EFFF7A2FA2B68019A1C121340BE4AF8
:101110009B009B580435FFF7C9FA3B1F1B68B94A6F
:10112000A400042B02D13B1B002103E0002B03D1C0
:1011300004213B1B196001E00C23137013783C1B46
:10114000271D002B02D0009EFFF77FFA2B68019A23
:101150001C121340AC4A9B009B580435FFF7A6FABB
:10116000A300FC1A04933B00083B1868FFF79CF9A6
:101170003B1F06001868FFF797F936180120049BFB
:10118000760006432660FC1A9E4B271D1B78002B19
:1011900002D0009EFFF759FA2B68019A1C121340E7
:1011A000994A9B009B580435FFF780FAA300FE1A6A
:1011B00004933B00083B1868FFF776F93B1F0400D7
:1011C0001868FFF771F9241A0120049B6400044396
:1011D0003460FC1A8B4B271D1B78002B02D0009E1D
:1011E000FFF733FA2B68019A1C121340864A9B00C2
:1011F0009B580435FFF75AFAA300FC1A04933B00EE
:10120000083B1868FFF750F93B1F06001868FFF706
:101210004BF946430120049B760006432660FC1AE6
:10122000784B271D1B78002B02D0009EFFF70DFA8C
:101230002B68019A1C121340734A9B009B5804357B
:10124000FFF734FA3B00083B1868FFF72DF93B1F06
:1012500004901868FFF728F90100049803F050FB88
:10126000012340001843674BA4001B783E1B3060ED
:10127000371D002B02D0009EFFF7E7F92B68019A7B
:101280001C121340604A9B009B580435FFF70EFA6E
:101290003B00083B1868FFF707F93B1F04901868EC
:1012A000FFF702F90100049803F010FC0123490044
:1012B0001943544BA4001B783E1B3160371D002B93
:1012C00002D0009EFFF7C1F92B68019A1C1213404F
:1012D0004D4A9B009B580435FFF7E8F93B1F1868FF
:1012E000FFF7E2F8C317C018584001234000184325
:1012F000444BA4001B783E1B3060371D002B02D0EE
:10130000009EFFF7A2F92B68019A1C1213403E4A77
:101310009B009B580435FFF7C9F9A300FE1A0593FB
:101320003068012C03D1FFF7BFF8049008E0FFF705
:10133000BBF804007068FFF7B7F80130031B049393
:10134000049B002B01DC0123049303F0F3FF0499B9
:1013500003F0BCFB0C190121059B64000C433460B5
:10136000FC1A284B271D1B78002B02D0009EFFF78C
:101370006CF92B68019A1C121340234A9B009B585E
:101380000435FFF793F9A4003E1B3000FFF734F853
:101390001C4B30601B78371D002B02D0009EFFF7DE
:1013A00054F92B68019A1C121340174A9B009B5852
:1013B0000435FFF77BF9A300FE1A04933B00083BBA
:1013C0001868FFF771F83B1F04001868FFF76CF806
:1013D00004400120049B640004433460FC1A094B60
:1013E000271D1B78002B02D0009EFFF72EF92B68DB
:1013F000019A1C121340044A9B009B580435FFF7C6
:1014000055F9C046F00000205C610000A300FC1A02
:1014100004933B00083B1868FFF746F83B1F0600A3
:101420001868FFF741F806430120049B7600064345
:101430002660FC1ADE4B271D1B78002B02D0009E75
:10144000FFF703F92B68019A1C121340D94A9B003D
:101450009B580435FFF72AF9A300FC1A04933B00BC
:10146000083B1868FFF720F83B1F06001868FFF7D5
:101470001BF846400120049B760006432660FC1AB8
:10148000CB4B271D1B78002B02D0009EFFF7DDF809
:101490002B68019A1C121340C64A9B009B580435C6
:1014A000FFF704F93B1F1868FEF7FEFFC043012356
:1014B00040001843BE4BA4001B783E1B3060371D14
:1014C000002B02D0009EFFF7C0F82B68019A1C1277
:1014D0001340B84A9B009B580435FFF7E7F8A30078
:1014E000FE1A04933B00083B1868FEF7DDFF3B1F24
:1014F00004001868FEF7D8FF8440012364001C43F1
:10150000049B3460FC1AAA4B271D1B78002B02D0C9
:10151000009EFFF79AF82B68019A1C121340A54A07
:101520009B009B580435FFF7C1F8A300FE1A0493F3
:101530003B00083B1868FEF7B7FF3B1F0400186824
:10154000FEF7B2FF0441012364001C43049B346096
:10155000FC1A974B271D1B78002B02D0009EFFF72B
:1015600074F82B68019A1C121340924A9B009B58F6
:101570000435FFF79BF8A4003E1B3000FEF757FE32
:101580008B4B30601B78371D002B02D0009EFFF77D
:101590005CF82B68019A1C121340864A9B009B58EA
:1015A0000435FFF783F8A4003E1B3000FEF74FFE22
:1015B0007F4B30601B78371D002B02D0009EFFF759
:1015C00044F82B68019A1C1213407A4A9B009B58DE
:1015D0000435FFF76BF8A4003F1B3800FEF749FE07
:1015E000734B1B78002B02D0009EFFF72EF82B6860
:1015F000019A1C1213406F4A9B009B580435FFF759
:1016000055F8A4003E1B3000FEF765FE684B3060C5
:101610001B78371D002B02D0009EFFF716F82B68B1
:10162000019A1C121340634A9B009B580435FFF734
:101630003DF8A4003F1B3800FEF784FE5C4B1B788E
:10164000002B02D0009EFFF700F82B68019A1C12B5
:101650001340584A9B009B580435FFF727F8A40015
:101660003E1B3000FEF7A8FE514B30601B78371D43
:10167000002B02D0009EFEF7E8FF2B68019A1C1297
:1016800013404C4A9B009B580435FFF70FF8039A10
:101690003B1D0493464C9B1A8B2B04DD1A23009EA2
:1016A0002370FEF7D2FF01F04DFF012340001843E5
:1016B00023783860002B03D0009E049FFEF7C5FFFF
:1016C0002B68019A1C1213403A4A9B009B58049FB6
:1016D0000435FEF7EBFF039A3B1D0493344C9B1A31
:1016E0008B2B04DD1A23009E2370FEF7AEFF01F062
:1016F0001FFF314B40001840012318432378386006
:10170000002B03D0009E049FFEF79FFF2B68019AD9
:101710001C121340274A9B009B58049F0435FEF778
:10172000C5FFA4003E1B3000FEF78AFE204B306050
:101730001B78371D002B02D0009EFEF786FF2B681A
:10174000019A1C1213401B4A9B009B580435FEF75C
:10175000ADFFA4003F1B3800FEF78AFE144B1B7838
:10176000002B02D0009EFEF770FF2B68019A1C121E
:101770001340104A9B009B580435FEF797FFA300C7
:10178000FB1A0493012320001A000499FEF7C4FEFB
:101790000A4C2068643000F075FF002800D1AFE2E9
:1017A000029B21685A78064801F063F91EE0C046A2
:1017B000F00000205C610000FEFFFF7FF8000020C9
:1017C000FC000020A300FB1A049320000123002248
:1017D0000499FEF7A1FEE34C2068643000F052FF4C
:1017E000002800D18CE2E04801F066F80223029A5A
:1017F000137001F0A7FE236805331818029B586088
:10180000FEF738FFA4003E1B300001F0BBFED74BB3
:1018100030601B78371D002B02D0009EFEF715FFAD
:101820002B68019A1C121340D14A9B009B58043527
:10183000FEF73CFFA4003E1B300001F0A5FECB4BA1
:1018400030601B78371D002B02D0009EFEF7FDFE96
:101850002B68019A1C121340C54A9B009B58043503
:10186000FEF724FFA4003E1B300001F08FFEBF4BAB
:1018700030601B78371D002B02D0009EFEF7E5FE7E
:101880002B68019A1C121340B94A9B009B580435DF
:10189000FEF70CFFA4003F1B380001F095FEB34B90
:1018A0001B78002B02D0009EFEF7CFFE2B68019A1A
:1018B0001C121340AE4A9B009B580435FEF7F6FEFF
:1018C000A4003E1B300001F0A1FEA84B30601B7845
:1018D000371D002B02D0009EFEF7B7FE2B68019A41
:1018E0001C121340A24A9B009B580435FEF7DEFEF3
:1018F000A4003F1B380001F0BBFE9C4B1B78002B63
:1019000002D0009EFEF7A1FE2B68019A1C12134024
:10191000974A9B009B580435FEF7C8FE0121200022
:1019200001F08EFE914B1B78002B02D0009EFEF73B
:101930008CFE2B68019A1C1213408D4A9B009B5809
:101940000435FEF7B3FE0021200001F079FE874B3D
:101950001B78002B02D0009EFEF777FE2B68019AC1
:101960001C121340824A9B009B580435FEF79EFED2
:10197000A4003E1B300001F0B1FE7C4B30601B78B0
:10198000371D002B02D0009EFEF75FFE2B68019AE8
:101990001C121340764A9B009B580435FEF786FEC6
:1019A000A4003E1B300001F0ADFE704B30601B7890
:1019B000371D002B02D0009EFEF747FE2B68019AD0
:1019C0001C1213406A4A9B009B580435FEF76EFEBA
:1019D000A4003F1B380001F057FE644B1B78002B1E
:1019E00002D0009EFEF731FE2B68019A1C121340B4
:1019F0005F4A9B009B580435FEF758FEA4003F1B2E
:101A0000380001F00DFF594B1B78002B02D0009ECF
:101A1000FEF71BFE2B68019A1C121340544A9B00D0
:101A20009B580435FEF742FEA4003E1B300001F037
:101A300037FF4E4B30601B78371D002B02D0009EC5
:101A4000FEF703FE2B68019A1C121340484A9B00C4
:101A50009B580435FEF72AFEA4003F1B380001F016
:101A6000BBFE424B1B78002B02D0009EFEF7EDFD23
:101A70002B68019A1C1213403D4A9B009B58043569
:101A8000FEF714FEA4003E1B300001F0BBFE374BF6
:101A900030601B78371D002B02D0009EFEF7D5FD6D
:101AA0002B68019A1C121340314A9B009B58043545
:101AB000FEF7FCFDA4003F1B380001F0A1FB2B4BFF
:101AC0001B78002B02D0009EFEF7BFFD2B68019A09
:101AD0001C121340264A9B009B580435FEF7E6FD76
:101AE000A4003F1B380001F097FB204B1B78002B14
:101AF00002D0009EFEF7A9FD2B68019A1C1213402C
:101B00001B4A9B009B580435FEF7D0FDA4003F1BE9
:101B1000380001F08DFB154B1B78002B02D0009E86
:101B2000FEF793FD2B68019A1C121340104A9B008C
:101B30009B580435FEF7BAFDA4003F1B380001F0A6
:101B400093FB0A4B1B78002B02D0009EFEF77DFD15
:101B50002B68019A1C121340054A9B009B580435C0
:101B6000FEF7A4FDF8000020FC000020F00000209B
:101B70005C610000A4003E1B300001F027FF784BA1
:101B800030601B78371D002B02D0009EFEF75DFDF4
:101B90002B68019A1C121340724A9B009B58043513
:101BA000FEF784FDA4003E1B300001F017FF6C4BD4
:101BB00030601B78371D002B02D0009EFEF745FDDC
:101BC0002B68019A1C121340664A9B009B580435EF
:101BD000FEF76CFDA4003E1B300001F007FF604BD8
:101BE00030601B78371D002B02D0009EFEF72DFDC4
:101BF0002B68019A1C1213405A4A9B009B580435CB
:101C0000FEF754FDA4003E1B300001F0F7FE544BDC
:101C100030601B78371D002B02D0009EFEF715FDAB
:101C20002B68019A1C1213404E4A9B009B580435A6
:101C3000FEF73CFDA4003F1B380001F031FB484B90
:101C40001B78002B02D0009EFEF7FFFC2B68019A48
:101C50001C121340434A9B009B580435FEF726FD97
:101C6000A300FF1A3900200001F0FCFB3C4B1B785D
:101C7000002B02D0009EFEF7E8FC2B68019A1C1294
:101C80001340384A9B009B580435FEF70FFDA40013
:101C90003E1B300001F0B2FB314B30601B78371D2A
:101CA000002B02D0009EFEF7D0FC2B68019A1C127C
:101CB00013402C4A9B009B580435FEF7F7FCA30009
:101CC000FF1A3900200001F05FFB254B1B78002B29
:101CD00002D0009EFEF7B9FC2B68019A1C1213403B
:101CE000204A9B009B580435FEF7E0FCA4003B1BF8
:101CF0001800049301F04AFD01F04DFD022802DCBA
:101D0000043DFEF7B6FC164B1B78002B03D0009E5B
:101D1000049FFEF79AFC2B68019A1C121340114A8B
:101D20009B009B58049F0435FEF7C0FCA4003E1B9B
:101D3000300001F032FD0A4B30601B78371D002B5C
:101D400002D0009EFEF781FC2B68019A1C12134002
:101D5000044A9B009B580435FEF7A8FC07B0F0BD71
:101D6000F00000205C610000014B187000207047FB
:101D7000F0000020F0B50023A02787B05A1E04927F
:101D8000002B05DC01F0F0F800F07CFE1923049331
:101D9000002503950295254B19688D4201DB049BB4
:101DA000ECE7234B1A680132914200DC00221A60F2
:101DB0001B68204E01937B439A199B5D059234006A
:101DC000032B01D110002CE0002B2DD0012B0CD1C6
:101DD000029B002B02D101F0ABFB0290019A029909
:101DE0007A43A4186368CB1A0FE0022B12D1039B2D
:101DF000002B02D101F0A6FB0390019A03997A43CC
:101E0000A4186368CB1A9B029B0A0B498B4201D82A
:101E10000323B354019B074A7B439B5C032B03D1F1
:101E20000598FEF7EBFBBAE70135B4E7F4000020B4
:101E300000000020C80B00209F86010000B59BB069
:101E40000200054901A803F0F5FA01A800F034FDED
:101E500000F018FEFCE7C0469C63000037B5174D44
:101E600004002868002801D002F0D8FEA400200059
:101E700002F0CAFE2860002801D1114809E001AB38
:101E8000984208D20F4B02196B440193934202D23D
:101E90000D48FFF7D3FF042802D808302860083C1B
:101EA0002B680A4A1C191360094B01211C6000238E
:101EB000084AD1500433642BFBD137BD24040020E1
:101EC000AD6300001CFCFFFFDD6300001C0400206C
:101ED00020040020001A002070B50D4D0D4E2B6817
:101EE0004C1CA40036681C19B44203D90A20FFF721
:101EF0003BFF0BE02C601D00AC4201D904C5FBE7A1
:101F00000F220901104008431860180070BDC04638
:101F10001C040020200400200322CB1C70B50C0000
:101F2000D9171140C9180500891000220420FFF7B5
:101F3000D3FF0023A34204DAE95CC2181171013314
:101F4000F8E7E1430023C917214041180B7170BD28
:101F500010B5830706D1042804D90F2304C8134001
:101F6000042B03D00E20FFF7FFFE014810BDC04632
:101F7000E464000030B502248025094B094AED00D5
:101F80009C505C59002CFCD0A124E400884204D26F
:101F90008025ED0018514019F8E70021995030BD17
:101FA00000E001400405000010B5002804D1902095
:101FB00092210002890203E0922080218002C9025E
:101FC000FFF7D8FF10BD002802D092239B0201E04A
:101FD00090231B021B6800201A0E532A01D11B02FA
:101FE000180A704730B501248025064A064BED00DB
:101FF000D4505459002CFCD001600021014AD1502A
:1020000030BDC04600E001400405000010B50028C6
:1020100002D09220800201E090200002A623090253
:10202000DB05090A1943FFF7DDFF10BDF0B50124F8
:10203000802503000F4F08000F49ED007C507C59AC
:10204000002CFCD09C46002810DD5478167893783C
:10205000240234431B0423431C00D37801381B069D
:102060002343644608C40432A446ECE700237B50B3
:10207000F0BDC04600E001400405000070B5050059
:102080004B680A009C1C2100FFF7D0FFA000281815
:1020900070BD0000154B1B68002B04D080219223DB
:1020A000C9029B0203E09221902389021B020028AF
:1020B00007D1191D5B6802001B0E522B14D10A00B8
:1020C00012E0002281420FD903681B0E522B0BD164
:1020D000436802339B00C318994205D91A68110E50
:1020E0000022522900D11A00100070472806002053
:1020F0008022F0B5520085B00021624802F0A1FDB7
:10210000802200215200604802F09BFD5F4B1B685B
:102110001A00029353425A4110000392FFF744FF02
:10212000029B002B01D15A4C00E05A4C0020FFF7D3
:10213000B1FFFF270500002D00D194E02B681A1293
:102140001B143A403B4001921A000A3A092A43D82C
:102150004C4B019A995C002900D07FE010224E4838
:1021600002F06FFD2E00336801991A123A40914235
:1021700017D11A143A400B2A06D0132A0CD00A2A77
:102180000FD1454B1E600CE03B40022B09DC424A5C
:102190009B00D3185E6004E0102200213E4802F04C
:1021A00050FD3000FFF776FF061EDCD13A4B196870
:1021B00000290FD02000FFF761FF0400374E31687F
:1021C000002903D02000FFF759FF0400344B0436E8
:1021D000B342F4D12B4B3EE0143B092B3ED82A4BA3
:1021E000019A995C002939D108222E4802F029FD74
:1021F0002E0033681A143A40152A0BD01D2A11D02C
:10220000142A14D1019A1B123B409A420FD1254B3C
:102210001E600CE0019A1B123B409A4207D1214BF1
:102220005E6004E0082200211E4802F00AFD300032
:10223000FFF730FF061EDCD11A4E3168002909D0A5
:102240002000FFF71BFF71680400002902D0FFF790
:1022500015FF04000C4B0121019A99542800FFF747
:1022600019FF050067E70298FFF7ADFE411C0398D0
:10227000FFF7CCFE054B039A1A600B4B1C6005B0B0
:10228000F0BDC046280500202804002028060020B4
:102290000448020004900000641A0020681A00201C
:1022A000741A0020741A00202C06002070B500203B
:1022B000FFF789FE04000120FFF785FE844200DA63
:1022C00004000A4B1E687542754128001D60FFF727
:1022D0006BFE002E01D0064B00E0064B064A28009C
:1022E000611C1360FFF792FE70BDC04628060020F7
:1022F00004900000044802002C060020F8B50020DD
:10230000FFF761FE07000120FFF75DFE3E00224D52
:102310000643224C0CD180219020C9020002FFF715
:1023200029FE01213000FFF771FE2E601C4B2FE0CB
:10233000874208DD002392212B60194B890223601C
:102340002368002011E0012380212B60154BC90276
:102350002360F5E71A68551C18D0120E522A07D1CF
:1023600001205A68023292009B188B42F2D311E08E
:10237000002800D023600C4C0C49200003F07CF8AE
:10238000200001F0E5F8FFF791FF04E0002802D0FB
:10239000236000E02160F8BD280600202C06002004
:1023A00004900000044802007C1E002055640000D8
:1023B000F0B585B0039203220333DC171440294E95
:1023C000E3189C10336801900291002B02D0802208
:1023D000D20201E092229202234FA51C3B68AD007D
:1023E0005B199A4217D2FFF783FE3368002B02D0A5
:1023F0008022D20201E0922292023B685B199A424B
:1024000009D21A4C1A49200003F036F8200001F0D6
:102410009FF8002023E0029B3E681B06190C6B46C8
:102420001A7BA423DB051343019A0B431104FF22FB
:102430001204114019433000FFF7D4FD3300301D62
:10244000083321000193FFF7CDFD01980A9A21007E
:10245000FFF7ECFD3000019B083D5D193D6005B0C4
:10246000F0BDC046280600202C0600207C1E00205F
:102470007E64000070B59AB0FFF740FFFF221F4C4A
:10248000D2000021200002F0DCFB0020FFF702FE5A
:10249000FF25002600281AD003681A142A400A2AA9
:1024A00008D11A122A40FF2A0ED0D200A1180B71AF
:1024B000A05009E0132A07D11B122B40FF2B03D099
:1024C000DB00E2181671E650FFF7E4FDE2E7FF21BA
:1024D0000200C900235808305D1EAB41D218884263
:1024E000F8D1074901A802F0A5FF01A800F0E4F91E
:1024F000044800F0E1F91AB070BDC046081200208F
:10250000A5640000BD640000044A05491368C8546E
:1025100001339B059B0D13607047C046300A0020B5
:1025200030060020114A70B51368114C984211DA38
:1025300006193178451CFA39012905D8AB4205DD69
:10254000717801391F2901D92800EFE70100251A08
:10255000461C02D10023136006E0665C6E54013114
:102560008B42FADC181A106070BDC046340A002095
:102570007C1A002010B500F0DBFF064B1A68904271
:1025800001D200221A601B68C01A034B83428041AB
:10259000404210BD380A0020204E000010B5094A04
:1025A000094C1268236893420AD0084AD05C01F0B3
:1025B000E5F8012804D1236801339B059B0D2360B6
:1025C00010BDC046300A00203C0A00203006002022
:1025D00010B50400064B074A1B6812689B1ADB43C0
:1025E0009B059B0DA34202DAFFF7D8FFF2E710BD6F
:1025F000300A00203C0A0020F7B506000191151EA4
:102600002FD05768B800441C0630FFF7E1FFFB20CD
:10261000FFF77AFF1C20FFF777FFF0B2FFF774FF98
:10262000E0B22412FFF770FFE0B2FFF76DFF6B46D8
:102630001879FFF769FF0026BE4212DAB300EB18E3
:102640009C680136E0B2FFF75FFF2012C0B2FFF7CF
:102650005BFF2014C0B2FFF757FF200EFFF754FFB7
:10266000EAE7F7BDC82210B5D2000021034802F006
:10267000E8FA0022024B1A6010BDC046C80B0020C9
:10268000F4000020064B074A1B6812689B1ADB43C4
:102690009B059B0D0122834200DC00221000704745
:1026A000300A00203C0A0020F8B505000C00160096
:1026B0001F1E0ED10320FFF7E5FF002827D0FA20C8
:1026C000FFF722FFE8B2FFF71FFFE0B2FFF71CFFA2
:1026D0001DE0501DFFF7D6FF002818D0FB20FFF7A4
:1026E00013FFE8B2FFF710FFE0B2FFF70DFFF0B203
:1026F000FFF70AFF3012C0B2FFF706FF3C00E31BF2
:102700009E4204DD2078FFF7FFFE0134F7E7F8BDB5
:1027100070B50024A0250B4B1B689C420EDA2A00E2
:102720006243094BD3181A78002A05D05978002340
:1027300011201A00FFF7B8FF0134ECE7FFF792FF12
:1027400070BDC046F4000020C80B00200123F3B583
:102750000400FFB00D0010001A420DD002AA137041
:10276000431002A9537042121B0E40148A700B7161
:10277000C8700B00052273E0032313401ED1042A06
:102780001CD90F2201680A40042A17D1023302AA79
:102790001370FFF7DDFB060002F076FEF823FF332F
:1027A000984200DD18000023834205DA01335A1EE7
:1027B000B25C02A9CA54F7E7421C50E0042801D0D9
:1027C000002809D1032302AA04381370434243416D
:1027D00053701300022243E0002B45D1042843D953
:1027E0000F2102681140052912D1043302A90B7090
:1027F000F8231209FF3392009A4200DD1A000023E9
:1028000093422BDA0133C118C97802AEF154F7E7CD
:10281000062929D101390E00120956430196F826DE
:10282000019FFF36B7421FDC02AE31700136934282
:1028300013DA0127013399004158394201D0394157
:1028400000E00A49012737700F127170B7700F143A
:10285000090EF77031710536E9E7019A013202ABD2
:1028600029002000FFF720FF7FB0F3BD19FCFFFF18
:1028700070B5A023050000240D4A1800604380189D
:102880004178A94203D001340A2CF6D10FE0A022EE
:10289000002102F0D6F9074A1368013BA34200D198
:1028A0001460002329001A001120FFF7FDFE70BDFF
:1028B000C80B0020F400002010B5B2B002236A4615
:1028C0000400137002F0E0FDC72800DDC7200023DC
:1028D000834205DA694601335A1EA25CCA54F7E7FF
:1028E000421C6B46FF211420FFF7DEFE32B010BD04
:1028F000F7B5234B06001B68A02000930023214955
:10290000009A93420ADA02005A438A185478B44271
:1029100002D11278002A32D10133F1E70024A0233A
:102920001A00624301920199164A55182F78002F18
:1029300006D001340A2CF3D11348FFF7BDFF1EE087
:10294000A0223900280002F07CF903230D4A0199E6
:102950006E7053540D4BF200D358AE70AB6002232F
:10296000EB60009B2F616F61A34202DC044B0134DA
:102970001C60002331001A001020FFF795FEF7BD00
:10298000F4000020C80B0020786500000812002029
:1029900010B5FFF7BDFE0024064BE200D3181B79EB
:1029A000043B012B02D8E0B2FFF7A2FF0134FF2C59
:1029B000F2D110BD08120020F8B507000D00002468
:1029C000134BE200D3181A79062A1DD11868793200
:1029D000C3681A40042A17D11B0A01339B000C302C
:1029E000C018FFF7B5FA060002F04EFD0023A8421A
:1029F0000AD19D4205DDF15CFA5C914204D10133BC
:102A0000F7E7E0B2FFF774FF0134FF2CD8D1F8BD2F
:102A100008120020002310B501001A001120FFF752
:102A200043FE10BD07B56B46197069465A70131204
:102A30008B701314120ECB700A716B4601000522C5
:102A40001320FFF731FE07BD10B50A000100122068
:102A5000FFF77CFE10BD70B5050008000C00323099
:102A6000FFF7B6FD2B00220000211B20FFF71CFE04
:102A700070BD10B50C000300110014202200FFF7F8
:102A800013FE10BDF0B580279DB0FFF787FDB14C58
:102A9000B14D2068FF00391A401900F055FE236837
:102AA0000600C3182360002B00D10BE2002E0DDDC1
:102AB0002068391A281800F047FE236806001B1802
:102AC000236000F035FDA54B1860EFE72B78FA2B5B
:102AD00000D051E12368022B06DCFFF74BFD0028F4
:102AE00000D1EFE10120E6E16878AC7802381828DF
:102AF00000D92CE101F070FE19002A002E003200EE
:102B0000350039002B014400850094009A00AE0086
:102B1000FF0014012B012B012B012B012B012B0199
:102B20002B012B012B012B012501FF2C00D10EE1E4
:102B30002000FFF79DFE00228949E3005A50CB1880
:102B40001A71210000921300132066E02000FFF7A5
:102B5000CFFEFCE02000FFF78BFEF8E0FFF718FF48
:102B6000F5E0FFF7D5FD7F48E8E0182C00D9EEE04E
:102B70007D4BA200D25821001520FFF7E7FDE6E0CB
:102B800000260020FFF786FA00250400002C12D052
:102B9000FF2123681A140A40152A04D11B120B4086
:102BA000B34203D18AE11D2A00D100252000FFF79E
:102BB00071FA0400EAE7002D03D10136192EE0D1A5
:102BC000C5E02800083002F05FFC07000530FFF781
:102BD000FFFCFB20FFF798FC1D20FFF795FCF0B2EF
:102BE000FFF792FCF8B2FFF78FFC3812C0B2FFF784
:102BF0008BFCA742E1DD2B19187AFFF785FC013425
:102C0000F7E700230121584AD1500433642BFBD14C
:102C100000211D200B000A000091FFF7C9FB96E080
:102C200000222100009213002720F6E700F098FC14
:102C300003AC4E4A642100904D4B200002F0C8FBCB
:102C400002232000237002F01FFC23000200002159
:102C500016207AE00024424AE300D558002D46D0E1
:102C60006B689E00701DFFF7B3FC2B00002532003F
:102C7000083321000120FFF717FD0020FFF70AFAB3
:102C80002E002F0000281DD0FF2103681A120A40D1
:102C9000A24214D11A140A400B2A07D10B400DD0BE
:102CA000012B09D0022B00D10AE108E0132A06D13A
:102CB00000252E002F0002E0060000E00700FFF7CD
:102CC000E9F9DFE7002E04D0320001212000FFF7F0
:102CD00093FC002D04D02A0002212000FFF78CFC79
:102CE000002F04D03A0000212000FFF785FC0134BA
:102CF000FF2CB0D12BE0FFF70BFD002500242900AD
:102D000000942300220013200135FFF751FBFF2D13
:102D1000F4D1FF222100D200114801F092FF16E009
:102D2000FFF7F6FC002000F077FA00F01DF900F044
:102D3000FDFCE120C000FFF791F80E48FFF7BCFD55
:102D400005E000231A201A001900FFF7ADFC03204C
:102D5000B1E0C046340A00207C1A0020380A002066
:102D6000081200208D650000001A0020A4650000F4
:102D70009F650000AB650000FB2B00D0B2E6226827
:102D8000042A00DCA9E62E79E8784F4B3602064388
:102D90009E4200DDA6E6331D9A4200DC9DE6EB5C18
:102DA000FE2B00D09EE66878AC78731E1C2851D0AC
:102DB00006D808281ED01B2847D001287AD105E064
:102DC0001E2869D051D31F286CD073E0FF2C71D01E
:102DD0002000FFF74DFD6D793C4AB31E00922100A3
:102DE0002A000A20FFF7E4FA394BE400E0501C19EE
:102DF00025715FE0182C5DD86879022813D003286C
:102E00001BD0012856D1AF1D7A78AD79BB7812025C
:102E10002A431B0413431A00FB78A4001B06134328
:102E20005B0003430EE0002B44DDB11E2748FFF793
:102E300073F8284BA400E0503CE0AB79A4005A1E84
:102E400093419B00234AA35034E019002248FFF726
:102E5000B3FD2FE0FF2C2DD06A79022A2AD81B4916
:102E6000B31E00910B20210022E0632B00DD6323C1
:102E7000002203A8934204DDA91849798154013244
:102E8000F7E7D9430022C917194041180A700133E6
:102E90000090210015200BE00F4A210000921E2017
:102EA000002205E0042B05D10B4A210000920022EC
:102EB000FFF77EFA701DFFF735FB03E0250075E68E
:102EC0000500FCE61DB0F0BDF6030000821A0020EC
:102ED00008120020001A0020811A0020F0B5EFF33C
:102EE00010810123194083F31088134E134AB4460E
:102EF0001268013A9340124A1468124A1568124A3D
:102F0000002B15D0166803420BD02660C046C04681
:102F1000C046C046C046C046C046C04616682E6081
:102F200004E067463E601668084F3E605B08E7E7CE
:102F300081F31088F0BDC046080500500400002051
:102F4000480A0020500A0020400A00200C050050CA
:102F500010B50124044001D0441002E00D20FEF71A
:102F600003FF200010BD0000F0B5A14F85B03B6805
:102F7000002B04D19F4A1268002A00D136E19E4DF1
:102F80002A68002A2AD19B4E3468002C0FD1002BCE
:102F90000DD00C32994901A801F04AFE6B4604336A
:102FA000185D0121013400F0DFFA0C2CF6D13368F2
:102FB000002B11D03C68002C0ED101AD0C228F49A2
:102FC0002800346001F034FE285D0021013400F057
:102FD000CBFA0C2CF8D109E13B68336000210D20BD
:102FE00001F0EAF800210E2001F0E6F800210F20A0
:102FF00001F0E2F82E68012E56D0022E00D19CE09E
:10300000002E00D0ECE0013631007A4C0420236819
:10301000994301F0D1F80421236805200B4059425F
:10302000594101F0C9F81021236806200B4059428C
:10303000594101F0C1F88021236809010B40594230
:1030400059410C2001F0B8F88021236809020B4097
:10305000594259410B2001F0AFF880212368490201
:103060000B40594259410A2001F0A6F880212368FB
:1030700089020B4059425941092001F09DF88021F5
:103080002368C9020B4059425941082001F094F8C5
:10309000802321681B030B4059425941072001F04E
:1030A0008BF831000D2099E00221524C0720236853
:1030B0000B405942594101F07FF808202168014036
:1030C0000B005942594101F077F880212368C9006B
:1030D0000B4059425941052001F06EF880212368C8
:1030E00049010B4059425941062001F065F8802101
:1030F0002368C9010B4059425941042001F05CF892
:103100008021236889030B40594259410A2001F06C
:1031100053F8802321681B040B4059425941092070
:1031200001F04AF831000C2001F046F831000B2084
:1031300001F042F831000E2050E020212D4C0720F4
:1031400023680B405942594101F036F84021236869
:1031500008200B405942594101F02EF88021236884
:1031600009200B405942594101F026F8802123687B
:1031700049000B40594259410A2001F01DF88021B5
:10318000236889000B40594259410B2001F014F883
:103190008021236889010B40594259410C2001F0DC
:1031A0000BF88021236849030B40594259410620FE
:1031B00001F002F880212368C9030B4059425941AC
:1031C000042000F0F9FF802321685B040B40594282
:1031D0005941052000F0F0FF01210F2000F0ECFF25
:1031E0002B680321581C01F071FC296005B0F0BD6B
:1031F0004C0A0020440A0020540A0020C365000045
:10320000006810B5C30703D5FFF7A2FE014B186095
:1032100010BDC0464C0A002013B5002401A801943B
:1032200000F032FA014B1C6013BDC0464C0A00206E
:1032300070B505000068FFF78BFE04006868FFF7B3
:1032400087FE631E042B0CD80138042809D80522F8
:103250005043043AC3189A40130002490A681343C2
:103260000B6070BD4C0A002070B505000068FFF7C8
:103270006FFE04006868FFF76BFE631E042B0CD81A
:103280000138042809D805225043043AC3189A404B
:10329000130002490A689A430A6070BD4C0A002074
:1032A000F7B5304A1368002B0CD12F4B996E0123D0
:1032B0008B402E490B602E4911602E4A2E49116019
:1032C0002E4A136001260468344219D0FF2263108D
:1032D000180212041040FF22611212020A40DBB2EF
:1032E00010431843264B1B68202B06D1B440254BB6
:1032F000A40EA400E35800021843FFF7EFFD30E0EE
:10330000032525402DD1042C2BD90F2322681340EF
:10331000062B26D1FF27130901933F04019B9D42F1
:103320001FDAAB00E3185A68324218D05310180263
:103330003840FF2184460902501208406146DBB242
:10334000084318430E4B1B68202B06D15200920EE7
:103350000C4B9200D35800021843FFF7BFFD013514
:10336000DCE7F7BD480A0020A0690000400A002001
:1033700008050050500A00200C05005018050050A8
:1033800004000020D06500000B6810B5134ADC076C
:1033900003D55B10012804DC07E001281ADD0123B6
:1033A0005B4248682021042800D0182111601E2BA0
:1033B00000D91A230A4A9B009A5801239340094ACC
:1033C00009491360094A1160094A0A4911600A4A09
:1033D000136010BD182313600233EBE704000020D4
:1033E000A0690000400A002008050050480A00209B
:1033F000500A00200C050050180500500068F8B570
:10340000C30702D5FFF7A4FD0BE0830726D10428EC
:1034100024D90F2203681A40042A1FD11B091DD08A
:1034200000790300203B5E2B18D80522002053436F
:103430000B4E9D18043AAB420CD0052110249F5D21
:103440003C4200D080180139520064100029F7D1A5
:103450000133F0E701234000184300E00120F8BDEC
:10346000D0660000F0B5040085B008680E00FFF7D4
:103470006FFD0190022C07DD7068FFF769FD040005
:10348000B068FFF765FD01E001200400174B011D46
:103490001A680523461E43430120002784460291F3
:1034A000211D053B039102998E4219D0611E039D97
:1034B000A94212D0042E0DD804290BD8019D5F1803
:1034C000054203D06546BD402A4302E06546BD4043
:1034D000AA43012740000131E9E701360533E2E75D
:1034E000002F01D0014B1A6005B0F0BD4C0A00203E
:1034F00010B50A2000F0E6FC0023FF21024A99548F
:1035000001331A2BFBD110BD580A002001220020E4
:10351000054B06491A615850033004315850801841
:10352000083158501A6070470080004004050000C0
:103530000122034B1A64A822D20098587047C04653
:103540000080004010B5FFF7F3FF800A10BD0000B7
:1035500010B50100014800F0E9FE10BD540B002039
:1035600000487047AB68000070B5054E0400335C3E
:103570000D008B4202D000F001FE355570BDC046F3
:10358000580A00200D20704735207047036870B539
:103590005B100120052B12D8094A9B009C58094D4D
:1035A0002B5D002B05D00021200000F0E7FD00235B
:1035B0002B55200000F08CFC01234000184370BD07
:1035C000B4680000580A002070B5036845685C10B4
:1035D0006D1004D40B4B9D4202DD1D0000E0002560
:1035E000192C0DD8084E335D012B05D00121200088
:1035F00000F0C4FD012333552900200000F0F6FC43
:1036000070BDC046FF030000580A002070B5046872
:103610006410192C0FD8094D2B5D002B05D000210B
:10362000200000F0ABFD00232B55200000F0DAFD58
:103630000423012800D00023180070BD580A002080
:1036400070B504000D0019280ED8084E335C012B0C
:1036500004D0012100F092FD012333552900200000
:103660004D1EA94100F0A8FD70BDC046580A0020BB
:10367000436810B5191F4A424A41006811004010C2
:10368000FFF7DEFF10BD000070B5134C0500637B33
:10369000012B05D001210D2000F070FD0123637383
:1036A0006379012B05D00121052000F067FD01237E
:1036B00063712B68042B05D10021052000F07CFDEF
:1036C000012104E00121052000F076FD00210D20FC
:1036D00000F072FD70BDC046580A002010B5084CBD
:1036E000237D002B05D00021142000F047FD00238E
:1036F0002375142000F076FD43425841800010BD30
:10370000580A002010B5084CA37D002B05D00021DD
:10371000162000F033FD0023A375162000F062FD93
:1037200043425841800010BD580A0020E12110B5E5
:103730004902044800F041FEFFF7E8FEFFF7D8FE1B
:1037400010BDC046540B0020F8B50B4E07003000EA
:103750000D0000F071FE041EAC4200DD2C003D00A7
:10376000EB1B9C4205DD300000F070FE2870013537
:10377000F6E72000F8BDC046540B002010B501004C
:10378000014800F021FE10BD540B002010B51B2095
:10379000FEF7EAFA10BD0420704710B51B20FEF7B3
:1037A000E3FA012010BD000010B501210D20FFF744
:1037B000DBFE01210E20FFF7D7FE00210F20FFF7CF
:1037C000D3FE044C200000F089F91021200000F005
:1037D000A1F910BD840A002010B504680D20E3078C
:1037E00003D56410FF2C03D91720FEF7BDFA06E0BD
:1037F000FFF7DAFFE1B2024800F0AEF9002010BD99
:10380000840A002010B5FFF7CFFF0021034800F025
:10381000A3F901234000184310BDC046840A0020CC
:10382000F7B501260468344205D04268324202D01E
:103830008368334201D10D2005E0521064100092DC
:10384000802C03D91520FEF78FFA23E0009A16206A
:10385000FF2AF8D85B1001931720FF2BF3D80E4FE7
:103860000E4D3B68002B03D1280000F0FBF93E60B1
:10387000E1B2280000F084FA6B462800197800F0C5
:10388000B2F96B462800197900F0ADF9280000F074
:10389000E1FA0020FEBDC046740A0020980A00200C
:1038A000F7B501260468344202D04168314201D1A3
:1038B0000D2005E04B1064100193802C03D91520D6
:1038C000FEF752FA2EE0019B1620FF2BF8D8164F78
:1038D000164D3B68002B03D1280000F0C3F93E6071
:1038E000E4B22100280000F04BFA6B462800197959
:1038F00000F079F90021280000F04EFA002801D0EC
:1039000040420CE001222100280000F034FA280097
:1039100000F05FF90028FAD0280000F05FF90123D9
:1039200040001843FEBDC046740A0020980A0020DB
:10393000F8B504000526012805D0061E032E02D086
:10394000052800D107261F4F1F4D3B68002B04D1CF
:10395000280000F087F901233B601821280000F0BF
:103960000FFAF1B2280000F03EF90021280000F023
:1039700013FA03000020834222D1012218212800DB
:1039800000F0F9F9280000F024F90028FAD0280006
:1039900000F024F9031E7F2B01DD013BFF3B1800E3
:1039A000082C0DD01A007F3201DA7F235B4264209D
:1039B0007F215843494200F0A3FF052C00D140422B
:1039C000F8BDC046740A0020980A002010B50120F6
:1039D000FFF7AEFF01234000184310BD10B50320D0
:1039E000FFF7A6FF01234000184310BD10B50520C6
:1039F000FFF79EFF01234000184310BD10B50820BB
:103A0000FFF796FFC30F1818012340101530400030
:103A1000184310BD10B5FFF789FEE120C000FEF786
:103A20001DFA0448FEF748FFFEF724FDFEF7B0FF3D
:103A300010BDC046AB65000010B5FEF79BF910BD88
:103A400070B5002504AC24780573A94205D10A4B52
:103A50000A4A23210A4801F06BF8016009499200E3
:103A600052589B0002715B588371A3005B588560BC
:103A700043710223C37170BD09690000CC68000066
:103A800017690000A0690000037B002B04D1437379
:103A90008373036101330373704700001FB5019105
:103AA000A02100240068C900D2B24450012A07D0E6
:103AB000A24203D0032A05D1042202E0022200E040
:103AC00006221343034A8350034B019AC250012339
:103AD00043501FBD540500002405000010B504002C
:103AE000FFF7D2FFA1222368A179D2009950617912
:103AF000064A20009950217904329950044B1968E4
:103B00005A689B68FFF7CAFF10BDC0460C0500004D
:103B1000780A00204BB2002B0CDB80233F290CD805
:103B20001F290CD80F290CD807290CD803290CD829
:103B30001B060BE080239B0408E0DB0406E01B056A
:103B400004E05B0502E09B0500E0DB050168014A3B
:103B50008B507047240500000368074A99501A00EB
:103B6000FC32D1680029FCD0A321C9005858002399
:103B7000C0B2D3607047C0461C05000007B5802264
:103B8000074BD2051A6000229A6002321A71112383
:103B90000E320093034905330348FFF751FF07BD79
:103BA000780A002000300040840A0020F8B50500A3
:103BB0000E0017000024BC4208D02B68315D1B6842
:103BC00028009847002801D00134F4E72000F8BD10
:103BD000704710B51C3000F0D5FB10BD10B51C307F
:103BE00000F0C2FB10BD70B5437E0D00002B05D068
:103BF0006430040000F0D5FB002801D0002004E070
:103C00002000290000F0A1FB012070BD10B51C3080
:103C100000F0BEFB10BD0000F7B50193FA230025AC
:103C200004009B0083600D4B4560083303601C302B
:103C30000F00160000F07EFB2000643000F07AFBDD
:103C4000074AB600B35827616375019B20009B00AB
:103C50009B586576A576A375FEBDC04680690000B9
:103C6000A06900000123A022C375837D0C49C133E4
:103C7000FF33D2059B009950437DC133FF339B0036
:103C80009950CC210369074A490499500521243AE7
:103C90009950817D08329950417D034A995070476F
:103CA0000C060000240500000C050000F7B5050017
:103CB00000200C00019382425CD0161E402E00D9D9
:103CC00040262F001C37380000F04AFBB1222B6938
:103CD000D20080219C50012289005A50A97E0029DF
:103CE00001D11A621A600024731E2A69A34206D108
:103CF000019B002B03D0802302219B00D150012384
:103D000013621300FC33D968002902D1996A002993
:103D1000F9D0996A00290AD1D960A323DB00D158D0
:103D20003800C9B2013400F010FBA642DCD8019A79
:103D30002B69002A04D11A00FC32916A00290AD0AA
:103D400001210022AA7659611900FC3188680028F7
:103D5000FCD08A6007E00121A976D961D16C0029E5
:103D6000FCD00021D164FC339A6A002A01D00022E1
:103D70009A62E0B2FEBD10B50123FFF797FF10BDB8
:103D80000300AC3310B504001970643000F0E8FA99
:103D90000123637610BD0000F8B500220D0001007C
:103DA0004276AC31036904000878B121C90058504B
:103DB000802189005A5001321A629A6026006436C6
:103DC000300000F0DFFA00280ED03000276900F044
:103DD000CBFA1E4BF8502369FC331A6A002A0CD127
:103DE0009A6A002AF9D008E02369002D0AD11A0046
:103DF000FC32916A002905D10EE09A6A002AF3D1BB
:103E00001A62DBE701225A611A00FC32916800292C
:103E1000FCD00021916006E00121D961D16C00291C
:103E2000FCD00021D1641A000020FC32916A81424A
:103E30000BD0074990625A5802305A50824204D03F
:103E4000043A534253410230C01AF8BD1C05000029
:103E5000C404000010B50121FFF79EFF10BD000053
:103E600010B51323122202490248FFF7D5FE10BDF8
:103E700000400040980A002003210A4802680A43D3
:103E80000260094802680A4302600849084A094B6F
:103E90009B1A03DD043BC858D050FBDC00F0B4F99A
:103EA000FCF768F92405004054050040306C000020
:103EB00000000020D4000020FEE7FEE7FEE7FEE75A
:103EC000FEE7FEE7014B18607047C0461000002077
:103ED000F7B500231E2877D83C4B8000C258042A2F
:103EE00014D006D8022A0DD00ED80423012A14D0EB
:103EF00069E0062A0ED00BD31A2A0DD002231B2A02
:103F00000BD060E0082308E0102306E0202304E043
:103F1000402302E0802300E001232D4A1268082A92
:103F200004D9092A05D00A21022404E0082100242A
:103F300001E011000124A02501261C272548ED00E1
:103F40004651254D254E2D681B02AD003D40019583
:103F5000234D2D6800958559AC466746214D3D405F
:103F60001D4385518359C0259C46009BAD021D40D1
:103F7000FF2367461B023B402B43019D1D43009BD3
:103F80005F0160231F402B003B431C4301238451EE
:103F9000154C036063680F48002BFBD00024124BC4
:103FA00001255C60A123DB00C3584560A025ED001E
:103FB00044511BB2914207D002D98A1AD34003E080
:103FC000521A934000E000231800FEBDA0690000D3
:103FD00014000020007000400C00002004050000C8
:103FE00008000020FF00FFFFFC700040F0B51E2815
:103FF0006CD8374B8000C258364B1E68002E2ED12D
:10400000C2243548A4000759344B03253B40C02740
:104010003F023B4303518023893C9B00FF3C0351FB
:104020002F4F03602F4B803CD859FF3CA043D85101
:104030000437D859A8432043D8510837D8590C35EC
:10404000A843083D2843D851A820C0001E50802610
:10405000C120760280001E501C601E4B1C60002395
:104060001426214834005C43255804006F1C0FD1EE
:10407000142058432250A0200325C132FF32920061
:10408000C0051550194A08001268082A03D10BE030
:10409000AA4218D1ECE7082A02D9083AD14002E036
:1040A0000820821A9140080014225343E3189A68AA
:1040B0000C495132FF32920058605050DA68C123E7
:1040C0009B00CA5002E00133032BCBD1F0BDC046A8
:1040D000A0690000500B002000E100E0FF00FFFF9E
:1040E000040500000090004018000020100000208F
:1040F0001E4BF0B5596C18001D4A002914D0A0259C
:10410000A12600230124ED05F600D1584F1C06D04E
:10411000D7187F68002F02D027008F40AF5114338B
:104120003C2BF2D100234364131DA025403294465A
:10413000002001240F4EED05DA680F499200571850
:104140000A495218526C002A0CD01A1F1268511CCE
:1041500005D01968FF2902D021009140A9513A00E9
:10416000FC32506414339C45E6D1F0BDFC90004015
:10417000180000200C0500000090004000B51E282B
:1041800016D80C4A83009B58032911D8A022080096
:10419000C133FF33D2059B0000F014FB0208040674
:1041A000002104E00C2102E0042100E00321D150B1
:1041B00000BDC046A06900001E280DD8074B800036
:1041C000C058A0220123D2058340002901D104490F
:1041D00001E0A121C90053507047C046A06900000A
:1041E0000C050000030000201E2B0AD8A222A021EB
:1041F000D200C9058858034A9B009B58D840012328
:1042000018407047A06900002D4B10B51A78012A9C
:1042100019D12C4A1268120715D12B4AE0241168D3
:10422000F0220800104021420BD1284909681142B0
:1042300009D12749274A11608021274A09021160C4
:1042400001E03028F1D01A78012A0DD11D49096802
:10425000090709D1F0201C4909680140402903D110
:104260001A490968014223D01B68DBB2012B25D112
:10427000144B1B681B0721D1134B1A68F0231A40FB
:10428000A02A04D1114A12681A4203D016E0D02A9B
:1042900014D1F7E7114B1A68012A03D1C022104B41
:1042A0001A600BE00F4A1A601A68012AFCD1F5E780
:1042B000C1218020C900C0054250D5E710BDC046CD
:1042C000E00F00F0E40F00F0E80F00F0EC0F00F05A
:1042D000DFFF07C004050040186C004000EC0640FA
:1042E00014EC064075930000F7B506000D000C00B5
:1042F0008B180193019B671B9C4207D03368217880
:104300001B683000984701340028F3D13800FEBD07
:1043100070B505000C00081E07D001F0B5F82B6839
:1043200002005B6821002800984770BD10B5FFF7B8
:10433000EFFF10BD10B540220021040000F081FC09
:10434000002320002364636410BD3F23026C10B57A
:10435000541C2340446C9C4201D08154036410BD22
:104360000023036443647047436C026C934206D09D
:104370003F21C25C01330B404364100001E0012087
:1043800040427047036C406C181A00D540307047AB
:10439000436C026C934201D0C05C01E001204042BA
:1043A0007047036C406C5A1C3F231340181A42425A
:1043B0004241D0B270470120704710B50368132204
:1043C000DB69984710BD70470369054A9950FC3373
:1043D0001A6A002AFCD0002201201A627047C046E7
:1043E0001C050000030010B55C331A781F2313402E
:1043F0000122110099400D4B0424D967C2210369A1
:1044000089005C505A60DA60A0220021D2009950E5
:104410000122074952425A50064914305A500C3969
:104420005A5008315A50FFF79BFF10BD04E100E0DD
:104430000C0500001405000010B51430FFF7A2FFB2
:1044400010BD10B51430FFF7A3FF10BD10B5143028
:10445000FFF78AFF10BD0000030070B55E331C78C3
:104460000269604BD45003005D331C785E4BD4501E
:10447000030061331C785D4B012C0CD105005F35C6
:104480002E78A225ED005651050060352E78A12525
:10449000ED00565100E00024D4509623DB009942F1
:1044A00038D996231B01994237D996235B0199424B
:1044B00036D996239B01994234D9E1239B01994235
:1044C00032D99623DB01994231D9E123DB019942AC
:1044D0002FD996231B0299422DD9E1231B02994221
:1044E0002BD996235B02994229D9E1235B02994299
:1044F00027D9E1239B02994225D93D4B994224D9E2
:10450000E123DB02994223D9E1231B03994221D8FD
:10451000384B21E09E23DB021EE09D231B031BE0A2
:10452000354B19E0354B17E0EC239B0314E0344B7B
:1045300012E0344B10E0344B0EE0344B0CE0344BC3
:104540000AE0344B08E0344B06E08023DB0403E050
:10455000324B01E080235B05314900245350042392
:10456000243953501100FC31CC600C62C12101345C
:10457000890014605C309460535003781F2022003F
:10458000D9B20840824080342648FF345BB20251E1
:10459000002B13DA0F230B40083B234C9B089B0096
:1045A0001B1903242140A140FC348C40DD69A54344
:1045B000C0248C4021002943D96111E0194C9B088B
:1045C0009B001B1903242140A140C025FC348C40D2
:1045D000AD005E59A643C0248C402100314359519F
:1045E000026070BD0C050000140500006C050000A1
:1045F00090D0030000D0BE0E00B013000050270082
:1046000000A04E0000F0750000509D0000F0EB008F
:1046100000903A0100E0D70100B0AF0300705F07DF
:104620002405000000E100E000ED00E0F7B5009394
:1046300008AB1B7800250193FA2304009B008360DC
:104640000E4B45600833036014300F001600FFF76F
:1046500071FE23005C3327611E70009B084A9B009B
:10466000995823005D331970019B20009B009A58D4
:1046700023005E33DD701A70FEBDC0461C6A000068
:10468000A0690000036910B51A00FC32D26804006A
:10469000002A0AD0A322D20099581430C9B2FFF7D9
:1046A00054FE00222369FC33DA6010BD10B50248C5
:1046B000FFF7E8FF10BDC046540B00201D2307B5CF
:1046C00002220093024901330248FFF7AFFF07BD02
:1046D00000200040540B00207047000010B500F08F
:1046E00047F8FFF7F9FF012000F024F8FFF792F9EF
:1046F000FFF7A2F9024B002BFAD000E000BFF7E76A
:1047000000000000084A0949094B10B51B68885889
:10471000FA22190A1B0618439200002300F0DCF964
:104720004904C00B084310BD0405000000100140FF
:10473000B80B002070B5041E09D0FFF7E3FF050099
:1047400000F014F8FFF7DEFF401B8442F8D870BD7C
:104750000022044B9A60044A13680133DBB21360F1
:104760007047C046FC100140B80B002070470000A5
:10477000C421114A89005058104B0340C020000248
:1047800003435350802391399B02FF3953501360E8
:104790008023A3220021DB05D20099500122A12011
:1047A0009A60074BC0001950C12002318000195097
:1047B000403019501A60704700E100E0FF00FFFF31
:1047C0000010014002B4714649084900095C4900E3
:1047D0008E4402BC7047C04603B47146490840008D
:1047E0004900095A49008E4403BC7047002243081F
:1047F0008B4274D303098B425FD3030A8B4244D3A9
:10480000030B8B4228D3030C8B420DD3FF220902EA
:1048100012BA030C8B4202D31212090265D0030BA9
:104820008B4219D300E0090AC30B8B4201D3CB039F
:10483000C01A5241830B8B4201D38B03C01A5241E1
:10484000430B8B4201D34B03C01A5241030B8B42E3
:1048500001D30B03C01A5241C30A8B4201D3CB02CE
:10486000C01A5241830A8B4201D38B02C01A5241B3
:10487000430A8B4201D34B02C01A5241030A8B42B6
:1048800001D30B02C01A5241CDD2C3098B4201D3CE
:10489000CB01C01A524183098B4201D38B01C01A4C
:1048A000524143098B4201D34B01C01A52410309C3
:1048B0008B4201D30B01C01A5241C3088B4201D372
:1048C000CB00C01A524183088B4201D38B00C01A1F
:1048D000524143088B4201D34B00C01A5241411A46
:1048E00000D20146524110467047FFE701B5002053
:1048F00000F0F0F802BDC0460029F7D076E7704717
:1049000003460B437FD4002243088B4274D3030930
:104910008B425FD3030A8B4244D3030B8B4228D3D1
:10492000030C8B420DD3FF22090212BA030C8B42F7
:1049300002D31212090265D0030B8B4219D300E097
:10494000090AC30B8B4201D3CB03C01A5241830B1C
:104950008B4201D38B03C01A5241430B8B4201D3CC
:104960004B03C01A5241030B8B4201D30B03C01AF5
:104970005241C30A8B4201D3CB02C01A5241830A6F
:104980008B4201D38B02C01A5241430A8B4201D39E
:104990004B02C01A5241030A8B4201D30B02C01AC8
:1049A0005241CDD2C3098B4201D3CB01C01A52412F
:1049B00083098B4201D38B01C01A524143098B42B8
:1049C00001D34B01C01A524103098B4201D30B01A1
:1049D000C01A5241C3088B4201D3CB00C01A5241C6
:1049E00083088B4201D38B00C01A524143088B428B
:1049F00001D34B00C01A5241411A00D20146524124
:104A0000104670475DE0CA0F00D04942031000D342
:104A10004042534000229C4603098B422DD3030A97
:104A20008B4212D3FC22890112BA030A8B420CD3A7
:104A3000890192118B4208D3890192118B4204D3D0
:104A400089013AD0921100E08909C3098B4201D350
:104A5000CB01C01A524183098B4201D38B01C01A8A
:104A6000524143098B4201D34B01C01A5241030901
:104A70008B4201D30B01C01A5241C3088B4201D3B0
:104A8000CB00C01A524183088B4201D38B00C01A5D
:104A90005241D9D243088B4201D34B00C01A524134
:104AA000411A00D20146634652415B10104601D3C1
:104AB0004042002B00D54942704763465B1000D34B
:104AC000404201B5002000F005F802BD0029F8D0F1
:104AD00016E770477047C046F0B54F464646C0B42B
:104AE0001604360C9946330005042C0C070C150CE3
:104AF00063437E436F4365431C0CAD1964199C46A8
:104B0000A64203D980235B02984647446346250C9E
:104B1000EF191D044B464A4343432D0C24046419EA
:104B20009918C91920000CBC90469946F0BDC046A2
:104B30007FB51D000A4B06001B68D868002A02D109
:104B4000084C230001E01300074C0293009133004E
:104B50002A000649019400F021F800F007FEC04643
:104B6000B4000020E46400004C6A0000596A0000B0
:104B7000084B10B50400002B02D0002100E000BF5C
:104B8000054B1868836A002B00D09847200001F07D
:104B9000D7FAC046000000008C6A00000EB403B5CE
:104BA000010003AB044804CB0068019300F016F940
:104BB00002B008BC03B01847B40000200E4B70B51B
:104BC00000251E000D4CE41AA410A54204D0AB0031
:104BD000F35898470135F8E701F0B4FA084B00257F
:104BE0001E00084CE41AA410A54204D0AB00F358F0
:104BF00098470135F8E770BDBC000020BC000020DC
:104C0000BC000020CC00002010B5034B0100186848
:104C100000F066F810BDC046B400002010B5034B8C
:104C20000100186800F016F810BDC046B40000205E
:104C3000002310B59A4203D0CC5CC4540133F9E789
:104C400010BD03008218934202D019700133FAE7B5
:104C50007047000030B500293ED004390B68002BA6
:104C600000DAC9181D4A13681400002B02D14B60EA
:104C7000116031E08B420DD90A688818834203D154
:104C800018685B6882180A604B60216024E08A42E1
:104C900003D813005A68002AF9D11D685C198C42A8
:104CA0000BD10968691858181960824214D110682C
:104CB0005268411819605A600EE08C4202D90C23E8
:104CC000036009E008680C18A24203D11468526816
:104CD000201808604A60596030BDC046C00B0020F3
:104CE000032370B5CD1C9D43083506000C2D01D261
:104CF0000C2505E0002D03DA0C230020336040E092
:104D0000A942F9D81F4B1C681A002100002913D0B2
:104D10000B685B1B0DD40B2B02D90B60CC181EE06B
:104D20008C4202D1636813601AE04B6863600C0028
:104D300016E00C004968E9E7134C2368002B03D107
:104D4000300000F033FB20602900300000F02EFB23
:104D5000431CD1D00323C41C9C43A0420AD125602C
:104D6000200007220B30231D9043C31A09D05A425A
:104D7000E25006E0211A300000F018FB431CEED18F
:104D8000BAE770BDC00B0020BC0B0020936810B5C3
:104D9000013B9360002B05DA9469A34208DBCBB298
:104DA0000A2B05D01368581C10601970C8B201E0B6
:104DB00000F010FC10BDF8B506000F001400D51867
:104DC000AC4208D021783A003000FFF7DFFF013411
:104DD000431CF5D100E00020F8BD0000F0B59FB005
:104DE00006000F0002920593002804D08369002B6F
:104DF00001D100F0B7FD7F4B9F4201D1776808E0F9
:104E00007D4B9F4201D1B76803E07C4B9F4200D1AC
:104E1000F768BB891B070AD53B69002B07D0002325
:104E200006AD6B6120336B761033AB763DE0390015
:104E3000300000F027FC0028F1D001204042D6E0ED
:104E4000059A111D12680591002A00DA7FE0099287
:104E5000013423782E2B00D18DE02178032268487D
:104E600000F066FE002807D0654B2A68C01A402370
:104E7000834013432B6001342178631C0622614870
:104E80000293297600F054FE002800D19DE05E4B8D
:104E9000002B00D090E00722059B07339343083393
:104EA00005936B69039A9B186B61029C2378002B16
:104EB00004D1029BE31A049312D003E0252BF8D00F
:104EC0000134F3E7049B029A39003000FFF773FFC7
:104ED000431C00D186E06A69049B944663446B617D
:104EE0002378002B7ED00122002352426A6002A95F
:104EF0005432521801342B60EB60AB601370AB6519
:104F000021780522414800F013FE002808D03F4BCD
:104F10002A68C01A0123834013432B600134EFE752
:104F20002B68DA0604D55322202102A8121811702A
:104F30001A0704D553222B2102A8121811702278C7
:104F40002A2A00D17CE7099B00200A2105E0524271
:104F5000EA60022213432B607AE72278303A092A6A
:104F600004D84B4301349B180120F6E7002800D1F8
:104F70006FE709936DE763782A2B0AD1059B02340A
:104F80001A1D1B680592002B01DA01235B4207936F
:104F900063E700230A201A0001346B60217830395E
:104FA000092904D84243013452180123F6E7002BA3
:104FB00000D152E7079250E705AB00933A00144B3B
:104FC0002900300000E000BF07E005AB00933A0085
:104FD0000F4B2900300000F08BF80390039B013346
:104FE00000D05EE7BB895B0600D526E70B981FB0B3
:104FF000F0BDC046C46B0000E46B0000046C000010
:10500000966A00009A6A000000000000906A0000A2
:10501000B74D0000F7B5170001938A680B6900903F
:105020000C00934200DA130022003B6043321278F6
:10503000002A01D001333B6023689B0602D53B6800
:1050400002333B60062523681D401ED023004333F6
:105050001B785A1E9341226892061CD53020E11815
:105060004331087021005A1C45310978A218433297
:10507000023311700FE022000123193201990098C8
:10508000089EB047431C0ED00135E3683A689B1A6E
:105090009D42F0DBDAE72200019943320098089D37
:1050A000A847431C02D10120404220E0062320688B
:1050B000E1683A6803400025042B03D18D1AEB43C5
:1050C000DB171D40A3682269934201DD9B1AED188E
:1050D0000027BD420AD0220001231A32019900980C
:1050E000089EB047431CDED00137F2E70020FEBD2A
:1050F000F0B58BB006920A004332079305900492F4
:105100000A7E0C00109B6E2A00D1ABE011D8632AF6
:1051100022D009D8002A00D1B5E0582A00D0C5E035
:1051200045310A70814A4FE0642A1DD0692A1BD09C
:10513000BCE0732A00D1AAE009D86F2A29D0702ACE
:1051400000D0B3E0202209680A43226037E0752AC4
:105150001FD0782A33D0A9E00E001A684236111DFC
:10516000196013683370A4E021681A68080606D431
:10517000490604D5111D19600023D55E02E0111DFA
:1051800019601568002D3BDA2D23049A6D421370C7
:1051900036E021681A68080606D4490604D5156861
:1051A000111D1960ADB202E0111D196015685F4B49
:1051B000227E039308276F2A1DD00A271BE02200B6
:1051C0007821453211705A4A19680392081D2268E5
:1051D00018600D68100602D4500600D5ADB2D30792
:1051E00002D520231A4322601027002D03D120234B
:1051F00022689A4322602300002243331A7002E09F
:105200000A274A4B03936368A360002B09DB04223F
:10521000216891432160002D05D1049E002B11D0FF
:105220007BE0002D79D0049E28003900FFF764FB55
:10523000039B013E5B5C280033703900FFF7D6FA10
:10524000051EF1D1082F09D12368DB0706D5636855
:105250002269934202DC3023013E3370049B9B1B86
:1052600023612BE009681A68080607D4490605D5AA
:10527000111D19601368A28A1A8004E0111D1960BB
:10528000136862691A600023049E236116E01A689D
:10529000111D1960166800216268300000F048FC9A
:1052A000002801D0801B6060636803E0260042365E
:1052B0003270012323610023049A1370079B09AA0B
:1052C00000932100069B0598FFF7A4FE431C02D122
:1052D0000120404227E02369320006990598079D86
:1052E000A847431CF4D0236800259B070FD4099BD3
:1052F000E068984217DA180015E0220001231932FD
:1053000006990598079EB047431CE1D00135E36834
:10531000099A9B1A9D42F0DBE9E72600039B42367F
:105320001B7833708EE70BB0F0BDC046A16A000059
:10533000B26A0000154B10B51C68A36B002B15D189
:105340001820FFF761FC124BA0630380114B012270
:105350004380114B8380114BC380114B0381052384
:10536000438106338381002302614361A46B0D4AAC
:10537000206961690C4BFFF7AFFB01220023801805
:105380005941206161614800400810BDB40000200F
:105390000E330000CDABFFFF341200006DE6FFFFBF
:1053A000ECDEFFFF2D7F954C2DF45158002370B596
:1053B000064C05000800236000F0ACFE431C03D13E
:1053C0002368002B00D02B6070BDC046E01E00207B
:1053D0000CB430B5164B9DB00C1E1D6804DA8B233F
:1053E00001202B6040421DE0822302A99B008B819B
:1053F0000023029008619C4200D0631E8B604B61C9
:1054000001235B42CB81209A21AB2800019300F05D
:1054100037FC431C01DA8B232B60002C02D00023C5
:10542000029A13701DB030BC08BC02B01847C046C9
:10543000B40000200EB410B59DB002A9029008611E
:105440000B48822488604861012040421FABC8811C
:10545000084804CBA400006801938C8100F010FC84
:105460000023029A13701DB010BC08BC03B018478B
:10547000FFFFFF7FB4000020031C0A7801311A707F
:105480000133002AF9D170470023C25C0133002A9E
:10549000FBD1581E70470000F0B51E00454B87B089
:1054A0001B680192029308220B00059003911C785F
:1054B00002995D1C09194878104001D02B00F6E7CD
:1054C0002D2C04D19D1C5C780123009304E00090F6
:1054D0002B2C01D15C789D1C002E02D0102E0AD1FD
:1054E00062E0302C5ED120222B789343582B54D18C
:1054F00010266C780235009F31007B1E9F412E4B99
:10550000FF183800FFF7F8F9380004913100FFF771
:105510006DF900230322070094461800029A12191D
:1055200051780422114201D0303C07E0624611401C
:1055300017D03722012900D02032A41AA64210DD4C
:105540005A1C0BD0B84207D802D1049B9C4203DC02
:1055500070430123201801E001235B422C780135C0
:10556000DCE75A1C0BD10098059A431E9841124B58
:10557000C01822231360019B002B0AD117E0009A68
:10558000002A00D04042019A002A10D0039A002B32
:1055900000D06A1E019B1A6009E03024002EAAD1B7
:1055A0000826A8E70A26A6E7302C9CD0A3E707B078
:1055B000F0BDC046B8000020FFFFFF7F10B513000C
:1055C0000A00010002480068FFF766FF10BDC046F0
:1055D000B4000020F8B505000F001400002804D026
:1055E0008369002B01D100F0BDF9234B9C4201D10E
:1055F0006C6808E0214B9C4201D1AC6803E0204B71
:105600009C4200D1EC68A369A360A3891B070AD55B
:105610002369002B07D023682269FEB2981A6369B8
:1056200098420FDB08E02100280000F02BF800284A
:10563000F1D0012040421DE02100280000F024F9B3
:105640000028F6D1A3680130013BA36023685A1CEF
:1056500022601F706369984205D0A3893000DB0780
:1056600008D50A2E06D12100280000F00DF90028E7
:10567000DFD13000F8BDC046C46B0000E46B000011
:10568000046C0000354B70B51D6806000C00002D41
:1056900005D0AB69002B02D1280000F063F9304B34
:1056A0009C4201D16C6808E02E4B9C4201D1AC6851
:1056B00003E02D4B9C4200D1EC68A3899AB21107FC
:1056C00023D4D10607D40922012032603732134394
:1056D000A381404240E0530713D5616B002908D0F5
:1056E00023004433994202D03000FFF7B3FA00237D
:1056F00063632422A3899343A38100236360236906
:1057000023600822A3891343A3812369002B0BD1B3
:10571000A023A2899B00134080229200934203D0D1
:105720002100300000F0B2F90123A289134005D016
:105730000023A36063695B42A36103E0910700D487
:105740006369A36000202369834205D1130603D552
:1057500040231A43A281013870BDC046B400002026
:10576000C46B0000E46B0000046C000010B5062060
:1057700000F0AEFB012000F0E3FC0000F7B58A89E1
:1057800005000C0013075AD44B68002B02DC0B6C8D
:10579000002B19DDE76A002F16D000232E682B603E
:1057A00080235B011A4001D0606D14E00123216A5F
:1057B0002800B847431C0ED12B68002B0BD01D2BA3
:1057C00001D0162B02D12E6000205AE04022A3897E
:1057D0001343A38155E0A3895B0706D56368C01A0C
:1057E000636B002B01D0236CC01A00230200216AD6
:1057F0002800E76AB847A389421C06D129681D29F9
:105800003AD8204ACA40D20736D5002262602269BF
:105810002260DB0405D5431C02D12B68002B00D18C
:105820006065616B2E600029CED02300443399421D
:1058300002D02800FFF70EFA0020606321E00F6914
:10584000002FC1D00B680F60DB1B01930023920770
:1058500000D14B69A36003E0019B3F181B1A019321
:10586000019B002BB0DD019B3A00216A2800A66A4B
:10587000B0470028F0DCA389402201201343A38114
:105880004042FEBD010040200B6970B505000C00D0
:10589000002B01D100201CE0002804D08369002BDC
:1058A00001D100F05FF80B4B9C4201D16C6808E01D
:1058B000094B9C4201D1AC6803E0084B9C4200D1EB
:1058C000EC680C22A35E002BE4D021002800FFF737
:1058D00055FF70BDC46B0000E46B0000046C000059
:1058E00010B5024900F0B0F810BDC046895800005C
:1058F000002310B504000360436083608181436628
:10590000C281036143618361190008225C30FFF7A3
:1059100098F9054B24626362044BA362044BE36273
:10592000044B236310BDC046115F0000395F0000C7
:10593000715F00009D5F000070B568254B1E5D43E0
:105940000E0029007431FFF7CBF9041E08D00021A6
:105950002A00016046600C30A0606832FFF771F9E0
:10596000200070BD836913B50400002B28D1836427
:10597000C3640365134B144A1B6882620193984207
:1059800001D101238361200000F020F86060200035
:1059900000F01CF8A060200000F018F80022E06081
:1059A00004216068FFF7A4FF01220921A068FFF726
:1059B0009FFF02221221E068FFF79AFF0123A361F3
:1059C00013BDC0468C6A0000E1580000F8B51D4BBD
:1059D00006001D68AB69002B02D12800FFF7C2FF4B
:1059E0004835AC686B68013B05D40C22A75E002FDC
:1059F00010D06834F7E72B68002B01D02D68F0E752
:105A000004213000FFF798FF28600028F6D10C230E
:105A1000336016E0012320005B42E3810233A3815F
:105A200067662760A760676027616761A7615C3070
:105A300008223900FFF705F920006763A763A76410
:105A4000E764F8BD8C6A0000F7B504000700002683
:105A500001914834002C16D06368A5680093009B20
:105A6000013B00930DD4AB89012B08D90E22AB5E0C
:105A7000013304D029003800019B9847064368355C
:105A8000EDE72468E6E73000FEBD0000F0B58B8945
:105A900091B006000C009B0726D40E23C95E002996
:105AA00004DA8023A5891D4010D10CE001AA00F082
:105AB000A1FA0028F5DBF023029D1B021D401A4BC2
:105AC000ED186B425D418027FF0001E00025402773
:105AD00039003000FFF704F900280CD1A3899A059A
