:1000000000400020C5620000056300000763000097
:1000100000000000000000000000000000000000E0
:100020000000000000000000000000000963000064
:1000300000000000000000000B6300000D630000E2
:100040000F630000252E0000F96A00000F63000016
:100050000F630000000000000F6300000F6300004A
:100060000F6300003D6500000F6300000F63000098
:100070000F6300000F6300000F6300000F630000B8
:100080000F6300009D6B00000F6300000F63000012
:100090000F6300000F6300000F6300000F63000098
:1000A0000F6300000F63000000000000000000006C
:1000B0000000000000000000000000000000000040
:1000C000054B0648033310B51B1A062B03D9044B06
:1000D000002B00D0984710BD3802002038020020C5
:1000E000000000000648074910B5091A8910CB0F17
:1000F0005918491003D0044B002B00D0984710BD6D
:1001000038020020380200200000000010B5074C23
:100110002378002B09D1FFF7D3FF054B002B02D02A
:10012000044800E000BF0123237010BD3802002006
:100130000000000080AE0000094B10B5002B03D07A
:100140000849094800E000BF08480368002B02D1B5
:10015000FFF7C8FF10BD064B002BF9D09847F7E713
:10016000000000003C02002080AE000034020020AD
:1001700000000000164B002B00D1144B9D4640227E
:1001800092029A1A924600218B460F461348144A4F
:10019000121A08F00CFC0F4B002B00D098470E4BA6
:1001A000002B00D098470020002104000D000D48CE
:1001B000002802D00C4800E000BF08F0B5FB20008A
:1001C000290006F0B1FC08F089FBC04600000800D9
:1001D0000040002000000000000000003802002065
:1001E000E82400200000000000000000012303407C
:1001F0000200181E04D1042A03D91068000900E087
:100200000020704710B50400FFF7F0FF0300002046
:1002100083420BD0013B9B00181DE2181279002A83
:1002200003D001338342F8D100E0180010BD012251
:10023000016810B5114201D0002903DA102000F046
:10024000E3F903E04910062001F03AFF10BD016810
:1002500010B5CB0701D5002903DA102000F0D4F93E
:1002600006E04910033189100022052001F028FF23
:1002700010BD70B50568AB0728D1042D26D90F2312
:100280002A6846681340062B09D12800FFF7AEFF05
:10029000012383421DDC9A00AE500133F9E7052BA0
:1002A00014D1F30703D4132000F0AEF912E0761056
:1002B000FF2EF8D82800FFF799FF2C1D230080009F
:1002C0002018984205D91E700133FAE70B2000F080
:1002D0009BF9002070BD70B50468E30701D41120BC
:1002E0002DE04568AB0729D1042D27D90F262B68AF
:1002F00064101E40062E0BD1002C04DD2800FFF7F1
:1003000075FF844201DD122019E0A400605918E055
:10031000331F012B12D82800FFF768FF8000042E3E
:1003200002D12800FFF76EFF002CECDDA042EADBD3
:1003300001232C19E0784000184302E00B2000F064
:1003400063F970BDF8B5012304681C4201D1112086
:100350002FE00325466835402AD1042E28D90F23E3
:100360003268641087681340062B0BD1002C04DD23
:100370003000FFF73BFF844201DD122019E0A400AA
:10038000A75113E0052B13D1002CF6DD3000FFF749
:100390002DFF80008442F0DC01231F4201D1132095
:1003A00007E07F10FF2FFAD83419E770280002E029
:1003B0000B2000F029F9F8BD006810B5830717D1AC
:1003C000042815D90F2302681340062B02D1FFF72A
:1003D0000DFF0BE0052B05D1FFF708FFC00001233F
:1003E000184308E0042B03D1FFF70CFF4000F6E7A9
:1003F0000B2000F009F910BD10B50324006804407B
:1004000006D1042804D90F2302681340042B01D01D
:100410000E2011E001F090FE0378233B5942594130
:1004200010224018210008F09BFF80239B05C21872
:10043000054B9A4203D9142000F0E6F802E00123AC
:100440004000184310BDC046FFFFFF3F10B5012418
:100450000368234202D04268224203D10D2000F0FB
:10046000D3F808E004495B1052101B070A401343FD
:1004700018684000204310BDFCFFFF0F01210368F6
:1004800010B50B4205D042680A4202D0806808428B
:1004900003D10D2000F0B8F808E005495B105210B8
:1004A0001B070A40401013431860002010BDC046CF
:1004B000FCFFFF0F012303400200181E01D0501063
:1004C00002E00D22014B1A707047C0465402002012
:1004D000012303400200181E04D1042A03D9106826
:1004E000000900E00020704770B50D000400FFF720
:1004F000EFFF86002800FFF7EBFF830000209E42FD
:100500000ED1231D9E1904351A009E4207D9297861
:100510001278013301358A42F6D0002000E0012034
:1005200070BD0000F0B585B00393019002912D4E8F
:100530002D4B002A02D002223270013A00251A60A7
:100540001B68F554019B9D424ADA029AAB00D058D1
:10055000254B1C68C8239B0037191C1B012318421C
:1005600002D04310214A1FE0214A002802D004286B
:1005700005D1204A2100380008F0E0FD18E00428E9
:1005800010D90F2302681340042B04D101F0D4FDCD
:10059000194A030008E0062B05D1FFF799FF174A17
:1005A000030001E00123164A2100380008F0C6FDCF
:1005B000300008F029FE039B0B4A002B01D110608C
:1005C0000CE0019B013B9D42F9DA0E4B9842F6DCB0
:1005D000431C1360202232540022F2540135B1E74B
:1005E00005B0F0BD600200205C0200202DA10000DB
:1005F00000A1000006A100005EA400000BA1000005
:100600001CA100001F030000014B18700020704760
:100610005402002070B503F05DFA094C0100251D5D
:100620001F22280008F0F7FD280008F0EDFD042344
:1006300004308008000118432060200070BDC046CF
:1006400080050020C368F0B59D00836889B05D19FE
:10065000030018330693036903909F00069BDF197C
:1006600043699E000193069B9E19D24B1B78002B79
:100670000FD17F222B68D0491C1213409B005B587E
:1006800001960435029235E0CA4B1B78002B29D025
:10069000019E039BC74C9B6821780193EA1A039B38
:1006A00092109B7812021A43039B587802F09EFF27
:1006B0000023039A2370137001960497039B069AF4
:1006C0009B68ED1A0293039BAD10DD60049B9F1A9B
:1006D000039BBF101F61019B9B1A039A9B105361E0
:1006E00001F03EFC2B68029A1C121340B24A9B0098
:1006F0009B5804359F46039B587802F06FFF0023F8
:10070000039A1370D9E7069B3A1DD11AA94BDB292E
:1007100003DD1A22019E1A70BBE71B783C60002B98
:1007200002D0019E1700B4E72B6802991C120B40FF
:10073000A1499B005B5817000435DBE7069B3A1D77
:10074000D11A9C4BDB2903DD1A22019E1A70A0E707
:1007500028681B78291D3860002B03D0019E1700E4
:100760000D0096E76B6802991C120B4092499B00A2
:100770005B5817000835BDE7069B3A1DD11A8D4B13
:10078000DB2903DD1A22019E1A7082E7A4001B7880
:100790002C193C60002B02D0019E170079E72B68D2
:1007A00002991C120B4084499B005B5817000435CA
:1007B000A0E7069B3A1DD11A7E4BDB2903DD1A22E6
:1007C000019E1A7065E77D48A40021581B783960A6
:1007D000002B02D0019E17005BE72B6802991C12C8
:1007E0000B4075499B005B581700043582E7043FB6
:1007F000724B3A68A400E2506E4B1B78002B01D07C
:10080000019E46E72B68029A1C1213406A4A9B001D
:100810009B5804356EE7694BA600F058FFF74AFE77
:10082000043F04003868FFF745FE24180120634B9D
:1008300064000443F4505F4B1B78002B01D0019EF1
:1008400027E72B68029A1C1213405B4A9B009B58B7
:1008500004354FE7069B3A1DD11A564BDB2903DDC1
:100860001A22019E1A7014E70198069C0121A042E9
:1008700002D901000C3909681B783960002B02D0BD
:10088000019E170005E72B6802991C120B404A498C
:100890009B005B58170004352CE7069B3A1DD11AC4
:1008A000444BDB2903DD1A22019E1A70F1E60199FF
:1008B000069881420AD90B000C3B1B6840495B102B
:1008C0006418E41A019BA400E35802E0182119708F
:1008D00000233B60374B1B78002B02D0019E170092
:1008E000D7E62B6802991C120B4033499B005B58DA
:1008F00017000435FEE6019B069A93420BD90C3B88
:1009000019682F4B043FE3184910591A3A68019BA4
:100910008900CA5002E01822264B1A70254B1B781A
:10092000002B01D0019EB4E62B68029A1C121340E2
:10093000214A9B009B580435DCE6019B069A9342B2
:100940001CD9019E1E4B0C3EE4183368019A5B10C3
:10095000E31A9B009858FFF7ADFD043F04903868F8
:10096000FFF7A8FD3168049B4910611A012418188B
:100970004000019B89002043C85002E018220D4B23
:100980001A700C4B1B78002B01D0019E81E62B685E
:10099000029A1C121340084A9B009B580435A9E692
:1009A000069B3A1DD11A034BDB290BDD1A22019E4F
:1009B0001A706EE654020020009F000050230020B1
:1009C000FDFFFF3F0199A40061581B783960002B9F
:1009D00002D0019E17005CE62B6802991C120B40A6
:1009E000CF499B005B581700043583E6043F019B09
:1009F0003A68A400E250CB4B1B78002B01D0019E3B
:100A000047E62B68029A1C121340C54A9B009B586C
:100A100004356FE6019BA4001C192368043F386865
:100A20005E10FFF747FD36180120BE4B76001B789D
:100A300006432660002B01D0019E2AE62B68029A0D
:100A40001C121340B64A9B009B58043552E6069B85
:100A5000A4003F1BB34CBB420DD82378002B01D020
:100A6000019E16E62B68029A1C121340AC4A9B00AA
:100A70009B5804353EE6AC4801F0D4FA2378002BAD
:100A800001D0019E05E62B68029A1C121340A44A6D
:100A90009B009B5804352DE6A300ED18002C00DACE
:100AA0000BE6A04B1B78002B01D0019EF1E52B68D3
:100AB000029A1C1213409A4A9B009B58043519E66F
:100AC0003B1F04931B680793042B04D1A300ED186C
:100AD000002C00DAF2E5934B1B78002B02D0019E2C
:100AE000049FD6E52B68029A1C1213408C4A9B0087
:100AF0009B58049F0435FDE53B1F04931B68079337
:100B0000002B04D1A300ED18002C00DAD6E5854BAC
:100B10001B78002B02D0019E049FBAE52B68029A35
:100B20001C1213407E4A9B009B58049F0435E1E54C
:100B30003A1F13685B10013B002B07DD01215B00AE
:100B4000A4000B4304972D191360B7E5754B1700EC
:100B50001B78002B01D0019E9BE52B68029A1C128A
:100B600013406F4A9B009B580435C3E53A00069B2F
:100B70000C32D31ADB2B04DD1A226A4B019E1A7049
:100B800087E5FF2361005B000B4001210B433B60C5
:100B9000039B06989B6824120493ED1A039BAD10E7
:100BA0009B782D021D43019B8D401B1A9B108B408F
:100BB0000B43BB60039B0D437D609C70E4B25B4BB9
:100BC000E4000399E35816008B6056490978002920
:100BD00003D008331D0017005BE51D0002999B68D8
:100BE0000C351C120B404E499B005B5801921700BC
:100BF00080E53B1F1E68069A019B93422AD1049709
:100C00000A20F30716D4B3070DD1042E0BD90F23F6
:100C100032681340042B06D1300001F08DFA08F041
:100C2000F3FA063006E00720042E03D0002E01D090
:100C300080208000643002F081FA002801D1043D58
:100C40003CE5039B3100587802F0E2FC0023039A54
:100C5000137033E5019B019A0C3B1B6803995B10F1
:100C60009B005B421F00D3180C3B1E601300083B27
:100C70001B68083FD7195A108A70D2B22B49D2008C
:100C80005B0055589B0A039A9B009560ED18019BE9
:100C9000043B1E68069B7610B6009E19214B1B78FC
:100CA000002B00D0F5E42B68029A1C1213401C4A5A
:100CB0009B009B58019604351CE53B1F1868FFF705
:100CC000F9FBA40006003F1B1E2833DC00280EDCC5
:100CD000144B1B78002B01D0019EDAE42B68029A9A
:100CE0001C1213400E4A9B009B58043502E502F08B
:100CF000D7FE033E361802F0D3FE0D4B801B984200
:100D0000F9D8084B1B78002B01D0019EC1E42B6859
:100D1000029A1C121340024A9B009B580435E9E4D6
:100D2000009F00005402002030A10000581B00204A
:100D30009F8601000123039A137002F0B1FE039B0A
:100D40000A3886195E60B8E43B1F1868FFF7B2FBEB
:100D5000A40004903F1B00280EDCCF4B1B78002B17
:100D600001D0019E95E42B68029A1C121340CB4AD5
:100D70009B009B580435BDE4C94B049A019E9A42DE
:100D800003DD1D22C44B1A7083E40123039A137000
:100D900002F086FEFA23049A9B005343039A0A3B0F
:100DA0001B18536089E4A300FF1A002320001A00D7
:100DB0003900FFF7B7FBBB4EBB4C3168200002F097
:100DC00073FB3168200002F02AFCB34B1B78002B28
:100DD00001D0019E5DE42B68029A1C121340AF4AB9
:100DE0009B009B58043585E4AB4BA4001B783F1B4C
:100DF000002B01D0019E4CE42B68029A1C12134078
:100E0000A64A9B009B58043574E402F0DDF901F01A
:100E1000A7F83B1F1868002823D1083B1868C307B0
:100E200001D5401016E083070FD104280DD90F23F8
:100E300002681340062B02D1FFF74AFB0AE0052B9C
:100E400003D1FFF745FB800004E01922924B019E7D
:100E50001A701EE43A0001214300083A0B43136064
:100E600001E040100138002832DD01224300134325
:100E7000391F0B603B00083B1B681341181A3B00ED
:100E80000C3B1B68134203D08018A400904015E06F
:100E9000990717D1042B15D90F211E683140062957
:100EA00006D101308000C358019AA400A35010E07D
:100EB000052907D118180079A4004000019B1043B0
:100EC000E05006E01922744B019E1A70FFF7E1FB17
:100ED0000435714B1B78002B02D0019EFFF7D9FB24
:100EE0002B68029A1C1213406C4A9B009B580435D5
:100EF000FFF700FCA300069AFB189B1ADB2B01DC12
:100F0000002205E01A22644B019E1A70FFF7C1FB14
:100F1000631E002C03DD3A601C000437F8E75E4BCB
:100F20001B78002B02D0019EFFF7B3FB2B68029ABF
:100F30001C121340594A9B009B580435FFF7DAFBFB
:100F4000A3009C46F81A002C04DC1C22524B0026FD
:100F50001A7015E0002103685B1001268A00825890
:100F6000164003D10D224C4B1A7009E052109342E7
:100F700000DD130001318C42EFDC01265B001E43D3
:100F80006346FF1A444B06601B780437002B02D0DF
:100F9000019EFFF77EFB2B68029A1C1213403F4A0A
:100FA0009B009B580435FFF7A5FBA3009C46F81A4D
:100FB000002C04DC1C22384B00261A7015E000219E
:100FC00003685B1001268A008258164003D10D2267
:100FD000314B1A7009E05210934200DA13000131CC
:100FE0008C42EFDC01265B001E436346FF1A2A4B4E
:100FF00006601B780437002B02D0019EFFF749FBE7
:101000002B68029A1C121340244A9B009B580435FB
:10101000FFF770FB3B00083B1868FFF74BFA3B1FDC
:1010200004901868FFF746FA049AA600BC1B002338
:10103000824200DA04332360174BBF1B1B7804374E
:10104000002B02D0019EFFF724FB2B68029A1C1292
:101050001340124A9B009B580435FFF74BFBA3003B
:10106000FE1A04933B00083B1868FFF723FA3B1F66
:1010700004001868FFF71EFAE20FC317A04253419D
:101080009B003360049BFF1A034B04371B78002B33
:101090000CD0019EFFF7FDFA54020020009F0000D3
:1010A00080EE36005C020020600200202B68029A6D
:1010B0001C121340D84A9B009B580435FFF71AFBBB
:1010C0003B00083B18683B1F1968A300884202D107
:1010D000FB1A042222E004281ED90122104201D06A
:1010E000114219D10326304215D10F2302681A404C
:1010F000042A10D131420ED104290CD90A681340B8
:10110000042B08D1FFF7F0F9431E9841A600BE1B3F
:101110008000306003E0A3000022FB1A1A60BF4B7E
:10112000A4001B783F1B0437002B02D0019EFFF761
:10113000B0FA2B68029A1C121340B74A9B009B58C6
:101140000435FFF7D7FA3B00083B18683B1F1968C6
:10115000A300884202D1FB1A002223E004281FD9F1
:101160000122104201D011421AD10326304216D179
:101170000F2302681A40042A11D131420FD10429E9
:101180000DD90A681340042B09D1FFF7ADF903000C
:1011900058425841A600BE1B8000306003E0A30007
:1011A0000422FB1A1A609D4BA4001B783F1B0437D6
:1011B000002B02D0019EFFF76CFA2B68029A1C12DA
:1011C0001340954A9B009B580435FFF793FAA30000
:1011D000FE1A04933B00083B1868FFF76BF93B1FAE
:1011E00004001868FFF766F9E217C30F8442534101
:1011F0009B003360049BFF1A884B04371B78002B3D
:1012000002D0019EFFF745FA2B68029A1C12134088
:10121000814A9B009B580435FFF76CFA3B00083B62
:101220001868FFF747F93B1F04901868FFF742F969
:10123000049AA600BC1B0023824200DD0433236015
:10124000764BBF1B1B780437002B02D0019EFFF7A3
:1012500020FA2B68029A1C1213406F4A9B009B587D
:101260000435FFF747FA3B1F1B686C4AA400042BA8
:1012700002D13B1B002103E0002B03D104213B1BC7
:10128000196001E00C23137013783F1B0437002B07
:1012900002D0019EFFF7FDF92B68029A1C12134041
:1012A0005D4A9B009B580435FFF724FAA300FC1A03
:1012B00004933B00083B1868FFF7FCF83B1F06004F
:1012C0001868FFF7F7F836180120049B7600FF1A1C
:1012D000524B06431B7826600437002B02D0019E38
:1012E000FFF7D7F92B68029A1C1213404A4A9B0059
:1012F0009B580435FFF7FEF9A300FE1A04933B0048
:10130000083B1868FFF7D6F83B1F04001868FFF782
:10131000D1F8241A0120049B6400FF1A3F4B0443B8
:101320001B7834600437002B02D0019EFFF7B1F91F
:101330002B68029A1C121340374A9B009B580435B5
:10134000FFF7D8F9A300FC1A04933B00083B186888
:10135000FFF7B0F83B1F06001868FFF7ABF84643ED
:101360000120049B7600FF1A2C4B06431B78266055
:101370000437002B02D0019EFFF78BF92B68029AED
:101380001C121340244A9B009B580435FFF7B2F906
:101390003B00083B1868FFF78DF83B1F0490186866
:1013A000FFF788F80100049805F0C6FC0123A400AB
:1013B0003E1B370040001843184B30601B78043741
:1013C000002B02D0019EFFF764F92B68029A1C12D1
:1013D0001340114A9B009B580435FFF78BF93B00E3
:1013E000083B1868FFF766F83B1F04901868FFF782
:1013F00061F80100049805F085FD0123A4003E1B5F
:10140000370049001943054B31601B780437002B26
:1014100006D0019EFFF73DF9009F00005402002016
:101420002B68029A1C121340EA4A9B009B58043511
:10143000FFF760F93B1F1868FFF73CF8C317C018A7
:101440005840012340001843E34BA4001B783E1B87
:101450003060371D002B02D0019EFFF71AF92B6870
:10146000029A1C121340DB4A9B009B580435FFF77D
:1014700041F9A300FE1A07933068012C03D1FFF74E
:1014800019F8049008E0FFF715F804007068FFF7FA
:1014900011F80130031B0493049B002B01DC012392
:1014A000049307F0FDFD049905F02CFD0C190121B2
:1014B000079B6400FF1AC84B0C431B783460043749
:1014C000002B02D0019EFFF7E4F82B68029A1C1251
:1014D0001340C04A9B009B580435FFF70BF9A4004A
:1014E0003E1B3000FEF788FFBB4B30601B78371D7A
:1014F000002B02D0019EFFF7CCF82B68029A1C1239
:101500001340B44A9B009B580435FFF7F3F8A3003F
:10151000FE1A04933B00083B1868FEF7CBFF3B1F05
:1015200004001868FEF7C6FF04400120049B640015
:10153000FF1AA94B04431B7834600437002B02D0F8
:10154000019EFFF7A6F82B68029A1C121340A14ACD
:101550009B009B580435FFF7CDF8A300FC1A0493B9
:101560003B00083B1868FEF7A5FF3B1F0600186804
:10157000FEF7A0FF06430120049B7600FF1A964B5E
:1015800006431B7826600437002B02D0019EFFF72C
:1015900080F82B68029A1C1213408E4A9B009B58BD
:1015A0000435FFF7A7F8A300FC1A04933B00083B9F
:1015B0001868FEF77FFF3B1F06001868FEF77AFFEA
:1015C00046400120049B7600FF1A834B06431B789C
:1015D00026600437002B02D0019EFFF75AF82B68D3
:1015E000029A1C1213407B4A9B009B580435FFF75C
:1015F00081F83B1F1868FEF75DFFC04301234000E0
:101600001843754BA4001B783E1B3060371D002B20
:1016100002D0019EFFF73DF82B68029A1C1213407E
:101620006C4A9B009B580435FFF764F8A300FE1A30
:1016300004933B00083B1868FEF73CFF3B1F040087
:101640001868FEF737FF8440012364001C43049BA5
:101650003460FF1A604B04371B78002B02D0019EC8
:10166000FFF717F82B68029A1C121340594A9B0087
:101670009B580435FFF73EF8A300FE1A04933B0085
:10168000083B1868FEF716FF3B1F04001868FEF7BA
:1016900011FF0441012364001C43049B3460FF1AC2
:1016A0004D4B04371B78002B02D0019EFEF7F1FF53
:1016B0002B68029A1C121340464A9B009B58043523
:1016C000FFF718F83B000C3B1868FEF7F3FE3B00F1
:1016D000083B06001868FEF7EDFEF1170200C3177D
:1016E000300005F061FC3B1F049005911868FEF77F
:1016F000E1FE02000498059905F00AFC0123400070
:101700001843354BA4001B783E1B3060371D002B5F
:1017100002D0019EFEF7BDFF2B68029A1C121340F7
:101720002C4A9B009B580435FEF7E4FFA4003E1BA7
:101730003000FEF77CFD284B30601B78371D002BF6
:1017400002D0019EFEF7A5FF2B68029A1C121340DF
:10175000204A9B009B580435FEF7CCFFA4003E1B9B
:101760003000FEF774FD1C4B30601B78371D002BDA
:1017700002D0019EFEF78DFF2B68029A1C121340C7
:10178000144A9B009B580435FEF7B4FFA4003F1B8E
:101790003800FEF76EFD104B1B78002B02D0019E27
:1017A000FEF777FF2B68029A1C121340094A9B0030
:1017B0009B580435FEF79EFFA4003E1B3000FEF749
:1017C0008AFD054B30601B78371D002B06D0019E2B
:1017D000FEF75FFF009F0000540200202B68029A72
:1017E0001C121340E64A9B009B580435FEF782FF0B
:1017F000A4003F1B3800FEF7A5FDE24B1B78002B31
:1018000002D0019EFEF745FF2B68029A1C1213407E
:10181000DB4A9B009B580435FEF76CFFA4003E1B7F
:101820003000FEF7C9FDD74B30601B78371D002B09
:1018300002D0019EFEF72DFF2B68029A1C12134066
:10184000CF4A9B009B580435FEF754FF069A3B1D78
:101850000493CC4C9B1ADB2B04DD1A23019E2370CE
:10186000FEF717FF02F026F9012340001843237802
:101870003860002B03D0019E049FFEF70AFF2B68FF
:10188000029A1C121340BE4A9B009B58049F0435C9
:10189000FEF730FF069A3B1D0493BA4C9B1ADB2BD4
:1018A00004DD1A23019E2370FEF7F3FE02F0F8F820
:1018B000B54B400018400123184323783860002BB3
:1018C00003D0019E049FFEF7E4FE2B68029A1C12CF
:1018D0001340AB4A9B009B58049F0435FEF70AFF58
:1018E000A4003E1B3000FEF7B1FDA64B30601B7814
:1018F000371D002B02D0019EFEF7CBFE2B68029A0B
:101900001C1213409E4A9B009B580435FEF7F2FEC2
:10191000A4003F1B3800FEF7B1FD9A4B1B78002B4B
:1019200002D0019EFEF7B5FE2B68029A1C121340EE
:10193000934A9B009B580435FEF7DCFEA300FB1A7C
:101940000493012320001A000499FEF7EBFD8F4C4D
:101950002068643001F0F2FB002816D0039B216858
:101960005A788B4801F069FE15E0A300FB1A049336
:101970002000012300220499FEF7D4FD834C206847
:10198000643001F0DBFB002802D1043DFEF795FE38
:101990007F4801F0EDFC0123039A137002F080F8F8
:1019A000C8222368D200063353431818039B58609B
:1019B000FEF784FEFEF72EFE724BA4001B783E1B42
:1019C0003060371D002B02D0019EFEF762FE2B68AF
:1019D000029A1C1213406A4A9B009B580435FEF77A
:1019E00089FEA4003E1B300002F098F8654B306081
:1019F0001B78371D002B02D0019EFEF74AFE2B6894
:101A0000029A1C1213405E4A9B009B580435FEF755
:101A100071FEA4003E1B300002F082F8594B30608A
:101A20001B78371D002B02D0019EFEF732FE2B687B
:101A3000029A1C121340524A9B009B580435FEF731
:101A400059FEA4003E1B300002F06CF84D4B306094
:101A50001B78371D002B02D0019EFEF71AFE2B6863
:101A6000029A1C121340464A9B009B580435FEF70D
:101A700041FEA4003F1B380002F072F8414B1B7876
:101A8000002B02D0019EFEF704FE2B68029A1C1266
:101A900013403B4A9B009B580435FEF72BFEA400E5
:101AA0003E1B300002F07EF8364B30601B78371D4D
:101AB000002B02D0019EFEF7ECFD2B68029A1C124F
:101AC00013402F4A9B009B580435FEF713FEA400D9
:101AD0003F1B380002F098F82A4B1B78002B02D0ED
:101AE000019EFEF7D6FD2B68029A1C121340244A71
:101AF0009B009B580435FEF7FDFD0121200002F0FC
:101B00006BF8204B1B78002B02D0019EFEF7C1FD25
:101B10002B68029A1C121340194A9B009B580435EB
:101B2000FEF7E8FD0021200002F056F8154B1B7867
:101B3000002B02D0019EFEF7ACFD2B68029A1C120E
:101B400013400F4A9B009B580435FEF7D3FDA400B9
:101B50003E1B300002F076F80A4B30601B78371DD0
:101B6000002B02D0019EFEF794FD2B68029A1C12F6
:101B70001340034A9B009B580435FEF7BBFDC0464B
:101B8000009F000054020020FEFFFF7F5C02002047
:101B900060020020A4003E1B300002F067F8E94B11
:101BA00030601B78371D002B02D0019EFEF771FDBF
:101BB0002B68029A1C121340E34A9B009B58043581
:101BC000FEF798FDA4003F1B380002F029F8DD4B1A
:101BD0001B78002B02D0019EFEF75BFD2B68029A5A
:101BE0001C121340D84A9B009B580435FEF782FD17
:101BF000A4003F1B380002F069FDD24B1B78002B7C
:101C000002D0019EFEF745FD2B68029A1C1213407C
:101C1000CD4A9B009B580435FEF76CFDA4003E1B8B
:101C2000300002F0E7FDC74B30601B78371D002BFA
:101C300002D0019EFEF72DFD2B68029A1C12134064
:101C4000C14A9B009B580435FEF754FDA4003F1B7E
:101C5000380002F0EBFCBB4B1B78002B02D0019E3E
:101C6000FEF717FD2B68029A1C121340B64A9B0020
:101C70009B580435FEF73EFDA4003E1B300002F0E9
:101C8000EBFCB04B30601B78371D002B02D0019E5F
:101C9000FEF7FFFC2B68029A1C121340AA4A9B0015
:101CA0009B580435FEF726FDA4003F1B380002F0C8
:101CB000CDFAA44B1B78002B02D0019EFEF7E9FC65
:101CC0002B68029A1C1213409F4A9B009B580435B4
:101CD000FEF710FDA4003F1B380002F0CDFA994B2F
:101CE0001B78002B02D0019EFEF7D3FC2B68029AD2
:101CF0001C121340944A9B009B580435FEF7FAFCD3
:101D0000A4003F1B380002F0C7FA8E4B1B78002B53
:101D100002D0019EFEF7BDFC2B68029A1C121340F4
:101D2000894A9B009B580435FEF7E4FCA4003F1B46
:101D3000380002F0D9FA834B1B78002B02D0019EA9
:101D4000FEF7A7FC2B68029A1C1213407E4A9B00E8
:101D50009B580435FEF7CEFCA300FE1A310020008C
:101D6000049302F0D1FD049B3060FF1A754B0437D9
:101D70001B78002B02D0019EFEF78BFC2B68029A89
:101D80001C121340704A9B009B580435FEF7B2FCAE
:101D9000A300FE1A31002000049302F0BDFD049B55
:101DA0003060FF1A674B04371B78002B02D0019E6E
:101DB000FEF76FFC2B68029A1C121340624A9B00CC
:101DC0009B580435FEF796FCA300FE1A3100200054
:101DD000049302F0A9FD049B3060FF1A594B0437AD
:101DE0001B78002B02D0019EFEF753FC2B68029A51
:101DF0001C121340544A9B009B580435FEF77AFC92
:101E0000A300FE1A31002000049302F0C7FB049BDC
:101E10003060FF1A4B4B04371B78002B02D0019E19
:101E2000FEF737FC2B68029A1C121340464A9B00AF
:101E30009B580435FEF75EFCA4003F1B380002F0FF
:101E40007BFA404B1B78002B02D0019EFEF721FC51
:101E50002B68029A1C1213403B4A9B009B58043586
:101E6000FEF748FCA300FF1A3900200002F016FB21
:101E7000344B1B78002B02D0019EFEF70AFC2B6826
:101E8000029A1C121340304A9B009B580435FEF7FF
:101E900031FCA4003E1B300002F0CCFA294B30602C
:101EA0001B78371D002B02D0019EFEF7F2FB2B683A
:101EB000029A1C121340244A9B009B580435FEF7DB
:101EC00019FCA300FF1A3900200002F095FA1D4BFF
:101ED0001B78002B02D0019EFEF7DBFB2B68029AD9
:101EE0001C121340184A9B009B580435FEF702FC55
:101EF000A300FF1A3900200001F0A2F8114B1B7853
:101F0000002B02D0019EFEF7C4FB2B68029A1C1224
:101F100013400D4A9B009B580435FEF7EBFBA300D2
:101F2000FE1A31002000049301F08AF8049B30600F
:101F3000FF1A044B04371B78002B07D0019EFEF7D5
:101F4000A8FBC04654020020009F00002B68029AA4
:101F50001C121340034A9B009B580435FEF7CAFB32
:101F600009B0F0BD009F00000023F7B55A1E019292
:101F7000002B07DA02F016F801F0D0FA01F082FB2C
:101F80006423019300263000194B19688E4201DB4F
:101F9000019BEBE7174B1A680132914200DC0022EB
:101FA000F0241A601D68144F6C43E35D002B1DD0B4
:101FB000E419022B16D0012B0ED1002801D101F01B
:101FC0006FFDF0226A430C4B0C499B185B68C31AE7
:101FD0008B4201D80223BB54F0235D43064BEB5CDC
:101FE000022B03D12000FEF72DFBD1E70136CBE712
:101FF0005802002000000020F81100209F860100F8
:10200000054B01211A68054B1A600023044AD15080
:102010000433642BFBD17047AC050020A4050020DD
:102020005023002000B59BB00200054901A807F02D
:10203000B7F801A801F0B8F901F024FBFCE7C046AD
:1020400040A1000037B5174D04002868002801D0D2
:1020500006F09AFCA400200006F08CFC2860002802
:1020600001D1114809E001AB984208D20F4B021987
:102070006B440193934202D20D48FFF7D3FF04282B
:1020800002D808302860083C2B680A4A1C191360E3
:10209000094B01211C600023084AD1500433642BF2
:1020A000FBD137BDAC05002051A100001CFCFFFF97
:1020B00081A10000A4050020A805002050230020D5
:1020C00070B50D4D0D4E2B684C1CA40036681C19C4
:1020D000B44203D90A20FEF797FA0BE02C601D00EA
:1020E000AC4201D904C5FBE70F22090110400843A7
:1020F0001860180070BDC046A4050020A805002087
:102100000322CB1C70B50C00D9171140C91805006B
:10211000891000220420FFF7D3FF0023A34204DA32
:10212000E95CC21811710133F8E7E1430023C917D4
:10213000214041180B7170BD10B5830706D10428EA
:1021400004D90F2304C81340042B03D00E20FEF73C
:102150005BFA014810BDC04691A2000070B5012491
:102160000B680D001C4001D05C1002E00D20FEF752
:102170004BFA200005F058F8264904F041FF06F01C
:102180001BFB02F02FFF0022234B05F0CFFC0023A6
:10219000002204F0FFFE01242B681C40002819D007
:1021A000002C01D05C1002E00D20FEF72DFA20007B
:1021B00005F03AF8174904F023FF06F0FDFA02F0A3
:1021C00011FF0022144B05F0B1FC0022134B05F067
:1021D00073F818E0002C01D05C1002E00D20FEF72F
:1021E00013FA200005F020F80A4904F009FF06F070
:1021F000E3FA02F0F7FE0022074B05F097FC0022FD
:10220000064B05F00DFF06F05FFA0123400018436E
:1022100070BDC046D30237390000D0400000E03F17
:1022200010B5034A0121034800F0F6FE10BDC04678
:1022300004000020ECA1000030B502248025094BE9
:10224000094AED009C505C59002CFCD0A124E4000C
:10225000884204D28025ED0018514019F8E700218A
:10226000995030BD00E001400405000010B5002881
:1022700004D1E0209C210002890203E09C208021FF
:102280008002C902FFF7D8FF10BD002802D09C23AE
:102290009B0201E0E0231B021B6800201A0E532A58
:1022A00001D11B02180A704730B501248025064A67
:1022B000064BED00D4505459002CFCD00160002195
:1022C000014AD15030BDC04600E001400405000085
:1022D00010B5002802D09C20800201E0E02000021E
:1022E000A6230902DB05090A1943FFF7DDFF10BD2C
:1022F000F0B50124802503000F4F08000F49ED00C1
:102300007C507C59002CFCD09C46002810DD547871
:1023100016789378240234431B0423431C00D3789B
:1023200001381B062343644608C40432A446ECE784
:1023300000237B50F0BDC04600E0014004050000D2
:1023400070B505004B680A009C1C2100FFF7D0FF08
:10235000A000281870BD0000154B1B68002B04D08E
:1023600080219C23C9029B0203E09C21E023890277
:102370001B02002807D1191D5B6802001B0E522B9F
:1023800014D10A0012E0002281420FD903681B0E0B
:10239000522B0BD1436802339B00C318994205D9D5
:1023A0001A68110E0022522900D11A00100070473D
:1023B000B00700208022F0B5520085B000216248AD
:1023C00006F0F5FA802200215200604806F0EFFA8C
:1023D0005F4B1B681A00029353425A41100003924C
:1023E000FFF744FF029B002B01D15A4C00E05A4CEE
:1023F0000020FFF7B1FFFF270500002D00D194E07A
:102400002B681A121B143A403B4001921A000A3AF8
:10241000092A43D84C4B019A995C002900D07FE0EF
:1024200010224E4806F0C3FA2E00336801991A12A2
:102430003A40914217D11A143A400B2A06D0132A77
:102440000CD00A2A0FD1454B1E600CE03B40022BFA
:1024500009DC424A9B00D3185E6004E01022002190
:102460003E4806F0A4FA3000FFF776FF061EDCD1E6
:102470003A4B196800290FD02000FFF761FF0400D4
:10248000374E3168002903D02000FFF759FF0400C0
:10249000344B0436B342F4D12B4B3EE0143B092BB2
:1024A0003ED82A4B019A995C002939D108222E483E
:1024B00006F07DFA2E0033681A143A40152A0BD024
:1024C0001D2A11D0142A14D1019A1B123B409A42A2
:1024D0000FD1254B1E600CE0019A1B123B409A4223
:1024E00007D1214B5E6004E0082200211E4806F05F
:1024F0005EFA3000FFF730FF061EDCD11A4E31685D
:10250000002909D02000FFF71BFF71680400002993
:1025100002D0FFF715FF04000C4B0121019A9954DA
:102520002800FFF719FF050067E70298FFF7ADFEE7
:10253000411C0398FFF7CCFE054B039A1A600B4B26
:102540001C6005B0F0BDC046B0060020B0050020FC
:10255000B00700200470020004E00000B423002053
:10256000B8230020C4230020C4230020B407002087
:1025700070B50020FFF789FE04000120FFF785FEFB
:10258000844200DA04000A4B1E6875427541280037
:102590001D60FFF76BFE002E01D0064B00E0064BDE
:1025A000064A2800611C1360FFF792FE70BDC0460A
:1025B000B007002004E0000004700200B40700200F
:1025C000F8B50020FFF761FE07000120FFF75DFE70
:1025D0003E00224D0643224C0CD18021E020C9024E
:1025E0000002FFF729FE01213000FFF771FE2E6087
:1025F0001C4B2FE0874208DD00239C212B60194BE8
:10260000890223602368002011E0012380212B60D0
:10261000154BC9022360F5E71A68551C18D0120E35
:10262000522A07D101205A68023292009B188B422D
:10263000F2D311E0002800D023600C4C0C4920009C
:1026400006F0DAFD200001F03DFAFFF791FF04E00B
:10265000002802D0236000E02160F8BDB007002010
:10266000B407002004E000000470020008240020E9
:1026700002A20000F0B585B0039203220333DC17F9
:1026800014402A4EE3189C10336801900291002BED
:1026900002D08022D20201E09C229202244FA51C8B
:1026A0003B68AD005B199A4217D2FFF783FE33688F
:1026B000002B02D08022D20201E09C2292023B68D1
:1026C0005B199A4209D21B4C1B49200006F094FD6D
:1026D000200001F0F7F9002026E0029B3E681B066F
:1026E000190C6B461A7BA423DB051343019A0B4399
:1026F0001104FF221204114019433000FFF7D4FDEA
:102700003300301D0833210001933B60FFF7CCFDFF
:10271000002C04D00A9A21000198FFF7E9FD30004F
:10272000019B083D5D193D6005B0F0BDB00700207C
:10273000B4070020082400202BA2000070B59AB036
:10274000FFF73EFFFF221F4CD2000021200006F0C1
:102750002EF90020FFF700FEFF25002600281AD0E2
:1027600003681A142A400A2A08D11A122A40FF2A9A
:102770000ED0D200A1180B71A05009E0132A07D186
:102780001B122B40FF2B03D0DB00E2181671E65022
:10279000FFF7E2FDE2E7FF210200C90023580830FD
:1027A0005D1EAB41D2188842F8D1074901A806F056
:1027B000F7FC01A800F0F8FD044800F0F5FD1AB0A0
:1027C00070BDC046581B002052A200006AA2000043
:1027D00000220121094B5A60094A51605A68002AB7
:1027E000FCD00022C021054B49001A61044B013284
:1027F0009A60044B01325A501A607047FC10004036
:102800000010004000E100E00222064B0121DA67DF
:102810000022054B5A61054A11615A69002AFCD011
:102820007047C04604E100E0FC100040001000408A
:1028300010B5054B1A781C00002A01D0FFF7E4FF01
:102840000023237010BDC04640080020024B1868CA
:1028500001234000184370473C080020004870479F
:10286000F0230020024B18680123400018437047F2
:102870007C00002070B504000D00160001F01AF96C
:102880008023012200215B055B6E6270E270020A08
:10289000A271020CE2711A0A60716372000EA272D8
:1028A0001A0C1B0E267025712072A170E272237320
:1028B00070BD0000124B10B51B68124C5A1C0FD093
:1028C000114C002B0CD0114C012B09D0104C022BB9
:1028D00006D00D4C042B03D00E4C052B00D10B4C15
:1028E00021000D4806F088FC200006F08DFC030056
:1028F000042204339B0809481B011343036010BDE5
:102900008000002034A300002DA300003FA300009E
:1029100044A3000039A30000D0230020CC230020D2
:1029200070B5214C2278002A3DD1204B01215A60FC
:102930008022D20511605A68002AFCD000220720AC
:102940001B4B1C4901255A500439585008315A5024
:1029500019481A4958501A491A485A501A495A508F
:10296000A622D2009D50082218495A5004315850CE
:10297000022017495850174817495850174804392A
:102980005850182016495850C12189005A5005390D
:10299000FF395A58083802435A50124A124999507E
:1029A000FFF716FF257070BD40080020FC000040B6
:1029B000001000400C050000746962751C050000E1
:1029C00024050000200004022C050000140500006E
:1029D00034050000FFFF00003C050000211001004D
:1029E0005405000004050000B807002010B50028B9
:1029F0000EDD0C68E3070BD56410FF2C08D8054BDF
:102A00001B78002B01D1FFF78BFF034B034AD450F7
:102A100010BDC04640080020240500000010004002
:102A200013B5002815DD0C68E30712D50822094903
:102A30006846641005F0B2FF072C0AD8064B1B78D5
:102A4000002B01D1FFF76CFF6B46044A1957044B6A
:102A5000D15016BD25A30000400800200010004002
:102A60000C05000010B5002813DD0C68E30710D535
:102A70006410532C0DD8074B1B78002B01D1FFF7A6
:102A80004FFFFFF7C1FEA123034ADB00D450FFF73D
:102A90009FFE10BD400800200010004070B50E4B96
:102AA00006001B78002B01D1FFF73AFF00200B4DE9
:102AB0002C7884420ED00A4B202219780323091B5C
:102AC0001940084B49015918300005F067FF0120F3
:102AD000013C2C7070BDC046400800204108002019
:102AE00038080020B8070020002330B589B098428C
:102AF00026DD03240D682C409C4221D12300042DA7
:102B00001ED90F212A681140062919D112091F2A3E
:102B100016D96846FFF7C2FF2300002810D06B4685
:102B2000012019780123A14203DB6B461B5D5B008A
:102B30000343A200AA1801345360202CF2D10423CD
:102B4000180009B030BD0000F0B5424B8BB01B78C7
:102B5000002B01D1FFF7E4FE02AD2800FFF79EFF36
:102B6000002870D02B780B2B6DDD6B78012B6AD190
:102B7000EA780023012A66D1374F384C3B60237135
:102B80002B79374A1360002B0ED115256D446A78D6
:102B90002878AB78120202431B0413431A00EB7827
:102BA0001B0613433B6050E0012B10D115266E44E9
:102BB00072783078B378120202431B0413431A0070
:102BC000F3781A261B0613433B606A7C25E0022B30
:102BD00002D16A7B162620E0042B0DD11521082294
:102BE0006944684605F0DAFE0098019902F058F948
:102BF00005F06AFD386028E0052B26D11521082252
:102C00006944684605F0CAFE0098019902F048F947
:102C100005F05AFD1E2638606A7D6E44132A00DDD9
:102C200013220023934204D0F05CE11808710133B1
:102C3000F8E704200021E21804339B101B01034332
:102C40001171236003E0002001E00022E9E70BB0EE
:102C5000F0BDC046400800203C080020F0230020C2
:102C60008000002010B5041E26D0144B1B78002BCA
:102C700001D1FFF755FEFFF7C7FD00201049114AAB
:102C8000114B8C5058600130086059680029FCD005
:102C900000200D4908610A4901308860196900293E
:102CA000FCD00A4B0A491B785B01CB1804498B50B6
:102CB000FFF7AAFDFFF78CFD10BDC04640080020BD
:102CC0000010004004050000FC10004038080020FF
:102CD000B807002030B589B000281EDD03230A683C
:102CE00013401AD1042A18D90F2011680840062869
:102CF00013D109091F2910D9012401339900515812
:102D00000020214201D04910C8B26D46591E6854B6
:102D1000202BF2D16846FFF7A5FF09B030BD30B5D2
:102D200089B0002826DD0868830723D1042821D92B
:102D30000F2302681340042B1CD1FFF7FDF9050097
:102D400006F062FA041E122C00DD12242200022179
:102D50000D326846FFF78EFD6B465C730023A3427D
:102D600005DA1A00E95C6A4491730133F7E76846B3
:102D7000FFF778FF09B030BD70B50C0088B00128AE
:102D800033DD0868830730D104282ED90F23026869
:102D90001340042B29D14B68DB0726D5FFF7CCF96C
:102DA000060006F031FA6468050064100E2800DDA4
:102DB0000E252A00012111326846FFF75BFD6B46A4
:102DC0006A465C73231293732314D3730023240E77
:102DD00014745574AB4205DA1A00F15C6A449174BC
:102DE0000133F7E76846FFF73DFF08B070BD30B527
:102DF00089B0002814DD0C68E30711D510220021EA
:102E00006846FFF737FD6B466A4665105D73684696
:102E100063122D0E64149373D4731574FFF722FF9D
:102E200009B030BD184B10B55A681849002A03D0B4
:102E300000225A6001328A601B691448002B22D09C
:102E40000023114A13618022D2008458104A012CB9
:102E500016D1A923DB00C3585B4213600D4A1378D7
:102E6000032B01D80133137003220B48037801337D
:102E700013400A4A03705B01D318094A8B5000E0E3
:102E8000136001238B6010BDFC1000400010004057
:102E90007C0000204108002038080020B8070020EE
:102EA0000405000010B5034A0E21034800F0B4F8F1
:102EB00010BDC0460C0000204BA30000044A054989
:102EC0001368C85401339B059B0D13607047C046BF
:102ED000480C002042080020114A70B51368114CBC
:102EE000984211DA015D451CFA39012906D8AB4236
:102EF00006DD2118497801391F2901D92800EFE79B
:102F00000100251A461C02D10023136006E0665C0E
:102F10006E5401318B42FADC181A106070BDC04645
:102F20004C0C0020540C002010B500F0B9FD064BED
:102F30001A68904201D200221A601B68C01A034B23
:102F400083428041404210BD500C0020204E0000C2
:102F500010B5094C094A2368126893420BD0084AFD
:102F6000D05C00F0D9FE002805D0236801339B0512
:102F70009B0D2360EDE710BD54100020480C00208D
:102F80004208002010B50400064B074A1B6812686F
:102F90009B1ADB439B059B0DA34202DAFFF7D8FF88
:102FA000F2E710BD480C002054100020F7B50600D1
:102FB0000191151E2FD05768B800441C0630FFF74A
:102FC000E1FFFB20FFF77AFF1C20FFF777FFF0B24D
:102FD000FFF774FFE0B22412FFF770FFE0B2FFF7D3
:102FE0006DFF6B461879FFF769FF0026BE4212DAC3
:102FF000B300EB189C680136E0B2FFF75FFF2012C8
:10300000C0B2FFF75BFF2014C0B2FFF757FF200EDE
:10301000FFF754FFEAE7F7BD70B5074D2C68092CA0
:1030200008DC0C236343054E01349851F3185960B2
:103030009A602C6070BDC046581000206C2400209F
:10304000F0B589B004900E0001284BDD284B0868CC
:103050000293830709D1042807D90F23026813407C
:10306000042B02D1FFF768F80290214B706803939C
:10307000830709D1042807D90F2302681340042BC2
:1030800002D1FFF759F8039000271A4B1A4D1B681D
:103090000593059B9F4225DA2B1F0299186806F0BD
:1030A000A1F800281BD12B686C6806930190019B46
:1030B000069A934213DA20680399079406F092F86F
:1030C0000834002807D131000498079B08315B6859
:1030D0000238984709E0019B01330193E7E7013784
:1030E0000C35D6E71B20FDF78FFA09B0F0BDC046BE
:1030F00091A20000581000207024002010B501F0AB
:1031000041FA00F0C9FDFFF78BF800F033FEFFF73E
:10311000C9FE01F0AFFA01F065FC10BD962210B5B2
:1031200012010021034805F042FC0022024B1A6004
:1031300010BDC046F811002058020020064B074A77
:103140001B6812689B1ADB439B059B0D012283427F
:1031500000DC002210007047480C002054100020B2
:10316000F8B505000C0016001F1E0ED10320FFF756
:10317000E5FF002827D0FA20FFF7A0FEE8B2FFF70E
:103180009DFEE0B2FFF79AFE1DE0501DFFF7D6FF4F
:10319000002818D0FB20FFF791FEE8B2FFF78EFE63
:1031A000E0B2FFF78BFEF0B2FFF788FE3012C0B23C
:1031B000FFF784FE3C00E31B9E4204DD2078FFF70E
:1031C0007DFE0134F7E7F8BD70B50024F0250B4B08
:1031D0001B689C420EDA2A006243094BD3181A7806
:1031E000002A05D05978002311201A00FFF7B8FFF4
:1031F0000134ECE7FFF792FF70BDC0465802002093
:10320000F81100200123F3B50400FFB00D001000F9
:103210001A420DD002AA1370431002A95370421231
:103220001B0E40148A700B71C8700B00052273E0EE
:10323000032313401ED1042A1CD90F2201680A401F
:10324000042A17D1023302AA1370FEF775FF060095
:1032500005F0DAFFF823FF33984200DD1800002361
:10326000834205DA01335A1EB25C02A9CA54F7E759
:10327000421C50E0042801D0002809D1032302AAEF
:10328000043813704342434153701300022243E059
:10329000002B45D1042843D90F210268114005298C
:1032A00012D1043302A90B70F8231209FF339200E4
:1032B0009A4200DD1A00002393422BDA0133C11831
:1032C000C97802AEF154F7E7062929D101390E0079
:1032D000120956430196F826019FFF36B7421FDCBC
:1032E00002AE31700136934213DA0127013399009F
:1032F0004158394201D0394100E00A49012737706D
:103300000F127170B7700F14090EF7703171053616
:10331000E9E7019A013202AB29002000FFF720FF04
:103320007FB0F3BD19FCFFFF70B5F023050000244A
:103330000D4A1800604380184178A94203D0013437
:103340000A2CF6D10FE0F022002105F030FB074AED
:103350001368013BA34200D11460002329001A0026
:103360001120FFF7FDFE70BDF8110020580200206B
:1033700010B5B2B002236A460400137005F044FF92
:10338000C72800DDC7200023834205DA69460133E0
:103390005A1EA25CCA54F7E7421C6B46FE21142059
:1033A000FFF7DEFE32B010BD10B5B2B002236A46A0
:1033B0000400137005F028FFC72800DDC720002394
:1033C000834205DA694601335A1EA25CCA54F7E704
:1033D000421C6B46FF211420FFF7C2FE32B010BD25
:1033E000F7B5234B06001B68F0200093002321490A
:1033F000009A93420ADA02005A438A185478B44277
:1034000002D11278002A31D10133F1E70024F023F0
:103410001A00624301920199164A55182F78002F1D
:1034200006D001340A2CF3D11348FFF7BDFF1DE08D
:10343000F0223900280005F0BAFA02230D4A01995A
:10344000EB6053540D4AF1008A58009B6E70AE70C9
:10345000AA602F616F61A34202DC054B01341C603E
:10346000002331001A001020FFF77AFEF7BDC04696
:1034700058020020F811002006A40000581B00206C
:1034800010B5FFF7A1FE0024064BE200D3181B790C
:10349000043B012B02D8E0B2FFF7A2FF0134FF2C5E
:1034A000F2D110BD581B0020F7B50E0000247F2577
:1034B0000190194BE200D1180979062901D003299E
:1034C00026D1985883682B401C2B21D1C3681A0041
:1034D0002A40042A1CD102692A40192A18D11B0A41
:1034E00001339B000C30C018FEF726FE070005F0E4
:1034F0008BFE0023B0420BD19E4206DD019AF95C9F
:10350000D25C914204D10133F6E7E0B2FFF768FFE5
:103510000134FF2CCDD1F7BD581B002070B500F051
:10352000BFFA184B1A68904201D200221A601A683A
:103530001549821A8A4223D91860002000F082FBC4
:1035400044424441604207240443002000F08EFBC3
:10355000002810D0082600250C4BEA00D3181B7950
:103560009C4201D0B34202D1E8B2FFF739FF0135E6
:10357000FF2DF1D104E0631C02D001267642EAE778
:1035800070BDC046440C00200F270000581B0020CF
:1035900037B500240500FFF717FE01A8019400F0DD
:1035A0003FFB200000F068FE00F0FCFC00F072FB26
:1035B00000F071FB00F038FF00F09EFA0548FFF7BD
:1035C000F3FEA54204D0FEF71BFD0348FFF7ECFE17
:1035D00037BDC0461BA4000033A40000002310B573
:1035E00001001A001120FFF7BBFD10BD07B56B46A7
:1035F000197069465A7013128B701314120ECB7027
:103600000A716B46010005221320FFF7A9FD07BDD3
:1036100010B50A0001001220FFF7F4FD10BD70B5CF
:10362000050008000C003230FFF7ACFC2B00220034
:1036300000211B20FFF794FD70BD10B50C000300A6
:10364000110014202200FFF78BFD10BD70B506009D
:103650000020FEF781FE0024FF25002810D003681B
:103660001A142A40152A05D11B122B40B34204D14B
:10367000040002E01D2A00D10024FEF76DFEECE7F5
:10368000200070BDF0B580279DB0FFF761FCB94DFB
:10369000B94C2868FF00391A201800F023FB2B686A
:1036A0000600C3182B60002B00D1DBE1002E0DDDDE
:1036B0002868391A201800F015FB2B6806001B1823
:1036C0002B6000F0EDF9AD4B1860EFE72378FA2B93
:1036D00000D00CE12B68022B06DCFFF725FC00284C
:1036E00000D1BFE10120B8E16078A5780238182840
:1036F00000D9FAE003F08CFA0D1E22262932F93D9A
:10370000676F7589DAEFF9F9F9F9F9F9F9F9F9F962
:10371000F300FF2D00D1E8E02800FFF705FE0022AE
:103720009749EB005A50CB181A71290000921300E8
:1037300013204DE02800FFF753FED6E02800FFF7E6
:10374000F3FDD2E0FFF79CFECFE0FFF73DFD002048
:10375000FFF71EFF8B48FFF727FEC6E0182D00D9A4
:10376000C3E0894BAA00D25829001520FFF74AFD73
:10377000BBE000242000FFF769FF071E03D10134DE
:10378000192CF7D1B1E0083005F03EFD06000530F8
:10379000FFF7F8FBFB20FFF791FB1D20FFF78EFBE7
:1037A000E0B2FFF78BFBF0B2FFF788FB3012C0B23C
:1037B000FFF784FB0025AE42E1DD7B19187AFFF7A5
:1037C0007DFB0135F7E700211D200B000A00009169
:1037D000FEF750FF89E00022290000921300272005
:1037E000F6E700F077F903AC684A64210090684B73
:1037F000200005F0A3FC02232000237005F004FD47
:1038000023000200002116206DE000245C4AE30042
:10381000D558002D46D06B689E00701DFFF7B2FB97
:103820002B0000253200083321000120FFF798FC0F
:103830000020FEF791FD2E002F0000281DD0FF2153
:1038400003681A120A40A24214D11A140A400B2A21
:1038500007D10B400DD0012B09D0022B00D1FFE086
:1038600008E0132A06D100252E002F0002E00600F2
:1038700000E00700FEF770FDDFE7002E04D0320005
:1038800001212000FFF792FB002D04D02A00022125
:103890002000FFF78BFB002F04D03A00002120000E
:1038A000FFF784FB0134FF2CB0D11EE0FFF78CFC46
:1038B0000025002429000094230022001320013554
:1038C000FEF7D8FEFF2DF4D1FF222100D2002C48B4
:1038D00005F06DF809E00120FFF75AFE05E000232E
:1038E00029001A001A20FFF73BFC0320B5E0FB2B50
:1038F00000D0F7E62A68042A00DCEEE62679E078B4
:10390000244B360206439E4200DDEBE6331D9A420D
:1039100000DCE2E6E35CFE2B00D0E3E66078A5780D
:10392000731E1C2868D007D8082835D01B285ED005
:10393000012800D090E007E01E2800D17EE066D389
:103940001F2800D180E087E0FF2D00D184E028000F
:10395000FFF7EAFC67790634B31E290000943A00A9
:103960000A20FEF787FE064BED00E8505D192F7127
:1039700072E0C0464C0C0020540C0020500C00207B
:10398000581B002043A40000502300205AA400002C
:1039900055A40000F6030000182D5DD860790228B8
:1039A00013D003281BD0012856D1A71D7A78A479FB
:1039B000BB78120222431B0413431A00FB78AD00AC
:1039C0001B0613435B0003430EE0002B44DDB11ED6
:1039D000A01DFEF795FB244BAD00E8503CE0A37919
:1039E000AD005A1E93419B001F4AAB5034E0601D4E
:1039F0001900FFF759FD2FE0FF2D2DD06279022A23
:103A00002AD80634B31E009429000B2022E0632B31
:103A100000DD6323002203A8934204DDA118497945
:103A200081540132F7E7D9430022C91719404118E0
:103A30000A7001330090290015200BE00534009432
:103A4000002229001E2005E0042B05D100222900B8
:103A500005340094FEF70EFE701DFFF73DFA01E0FD
:103A6000050007E71DB0F0BD50230020002070477F
:103A7000002070470020704700207047012200207E
:103A8000054B06491A6158500330043158508018CC
:103A9000083158501A60704700800040040500004B
:103AA0000122034B1A64A822D20098587047C046DE
:103AB0000080004010B5FFF7F3FFFA21890003F002
:103AC000B1F810BD10B50100014802F055FE10BD5F
:103AD00084110020004870476CA4000070B5054EAA
:103AE0000400335C0D008B4202D002F06DFD3555B1
:103AF00070BDC0465C10002070B50024064D635DAB
:103B0000012B05D10021200002F05EFD002363554A
:103B100001341D2CF2D170BD5C1000200D207047C7
:103B20003B207047036870B55B100120052B12D84D
:103B3000094A9B009C58094D2B5D002B05D00021A4
:103B4000200002F041FD00232B55200002F0E6FB8F
:103B500001234000184370BD9CA400005C100020AD
:103B600070B5036845685C106D1004D40B4B9D4222
:103B700002DD1D0000E000251C2C0DD8084E335D31
:103B8000012B05D00121200002F01EFD0123335539
:103B90002900200002F050FC70BDC046FF03000069
:103BA0005C10002070B5046864101C2C0FD8094DFF
:103BB0002B5D002B05D00021200002F005FD002325
:103BC0002B55200002F034FD0423012800D00023EF
:103BD000180070BD5C10002070B504000D001C289A
:103BE0000ED8084E335C012B04D0012102F0ECFC0E
:103BF00001233355290020004D1EA94102F002FD8A
:103C000070BDC0465C100020436810B5191F4A42C1
:103C10004A41006811004010FFF7DEFF10BD0000B0
:103C200037B569460200064B684630CB30C1136891
:103C3000042B02D100F030FB01E000F055FB37BD52
:103C400064A4000010B5084C6379002B05D0002156
:103C5000052002F0B9FC00236371052002F0E8FCA6
:103C600043425841800010BD5C10002010B5084C44
:103C7000E37A002B05D000210B2002F0A5FC0023E5
:103C8000E3720B2002F0D4FC43425841800010BD87
:103C90005C1000207047704710B5034A04210348A8
:103CA000FFF7BAF910BDC046840000205BA30000F6
:103CB000E12110B54902094802F0A5FDFFF7DEFE3B
:103CC0000A2002F025FB0023FF21054A9954013305
:103CD0001D2BFBD100F0A8FB10BDC04684110020B5
:103CE0005C100020F8B50B4E070030000D0002F00C
:103CF000C9FD041EAC4200DD2C003D00EB1B9C42C4
:103D000005DD300002F0C8FD28700135F6E720001F
:103D1000F8BDC0468411002010B50100014802F032
:103D200079FD10BD841100200020704710B51E20C1
:103D3000FCF76AFC10BD10B51E20FCF765FC10BD39
:103D400010B51E20FCF760FC002010BD10B51E2031
:103D5000FCF75AFC10BD10B51E20FCF755FC10BD39
:103D600010B51E20FCF750FC10BD10B51E20FCF74E
:103D70004BFC10BD10B5034A08210348FFF74CF96E
:103D800010BDC046A4000020B4A400000123034AD3
:103D90001360034A1068984018437047841000204D
:103DA0008C100020202800D90020084B8000C25829
:103DB00001239340064A07491360074A1160074AE6
:103DC00007491160074A13607047C0468CA900007C
:103DD00080100020080500509C1000209410002046
:103DE0000C05005018050050F0B5EFF310810123C9
:103DF000194083F31088134E134AB4461268013AEF
:103E00009340124A1468124A1568124A002B15D0C2
:103E1000166803420BD02660C046C046C046C04666
:103E2000C046C046C046C04616682E6004E06746DD
:103E30003E601668084F3E605B08E7E781F3108834
:103E4000F0BDC04608050050EC0000209C1000208A
:103E500094100020801000200C05005030B585B073
:103E600001AD0C220649280004F098FD0024285DCD
:103E700001210134FFF732FE0C2CF8D105B030BD22
:103E80002AA50000F0B53B4C85B0210003220C317F
:103E9000684604F083FD210009220F3101A804F0D7
:103EA0007DFDFFF707FE344B344CC0182368984261
:103EB00001D2002323602568002D3ED12E006B46E1
:103EC00004339F5D01213800FFF708FE0136012110
:103ED000380002F097FB092EF1D100266B469F5D5A
:103EE00001213800FFF7FAFD01360021380002F009
:103EF00089FB032EF2D1C82080000138C046C0469D
:103F0000C046C046C046C046C046C046C046C04681
:103F1000C046C046F1D100210420FFF7DFFD002696
:103F20006B460021985D0136FFF7D8FD032EF7D1CF
:103F3000FFF7C0FD1330206019E0FFF7BBFD2368D9
:103F40000025984213D3042002F0E8F90C4B0D4EE3
:103F5000C01801D4306000E035603068032102F001
:103F6000EBFE00230125084A30602360136028001F
:103F700005B0F0BD2AA50000102700007C1000202D
:103F8000C8FEFFFF8C1000208410002010B5012413
:103F9000044001D0441002E00D20FCF735FB200066
:103FA00010BD00007FB5A44E3368002B0BD1A34A8F
:103FB0001268002A07D1A24B1B68002B00D139E1FF
:103FC000FFF760FF36E19F4D2A68002A2AD19C4AFC
:103FD0001268002A07D0FFF755FF002800D129E119
:103FE000FFF73CFF05E0954A1268002A01D1002B3B
:103FF000F6D1924B19681A00002911D03468002CB0
:104000000ED101AD0C22904928001C6004F0C6FCC2
:10401000285D00210134FFF761FD0C2CF8D109E186
:104020003368136000211A2002F0ECFA00211B20F3
:1040300002F0E8FA00211C2002F0E4FA2E68012EBA
:1040400056D0022E00D19CE0002E00D0ECE00136CC
:1040500031007A4C03202368994302F0D3FA0420FC
:10406000216801400B005942594102F0CBFA10215E
:1040700023680A200B405942594102F0C3FA8021BB
:10408000236809010B4059425941062002F0BAFA4F
:104090008021236809020B4059425941072002F050
:1040A000B1FA8021236849020B4059425941092045
:1040B00002F0A8FA8021236889020B405942594135
:1040C000192002F09FFA80212368C9020B4059424F
:1040D0005941182002F096FA802321681B030B40F7
:1040E00059425941172002F08DFA31001A2099E007
:1040F0000221524C172023680B405942594102F0CB
:1041000081FA0821236818200B405942594102F0D6
:1041100079FA80212368C9000B4059425941042093
:1041200002F070FA8021236849010B40594259413D
:104130000A2002F067FA80212368C9010B40594226
:104140005941032002F05EFA8021236889030B4065
:1041500059425941092002F055FA802321681B0475
:104160000B4059425941192002F04CFA3100062007
:1041700002F048FA3100072002F044FA31001B2017
:1041800050E020212D4C172023680B405942594103
:1041900002F038FA4021236818200B405942594157
:1041A00002F030FA8021236819200B40594259410E
:1041B00002F028FA8021236849000B4059425941F6
:1041C000092002F01FFA8021236889000B40594220
:1041D0005941072002F016FA8021236889010B401B
:1041E00059425941062002F00DFA80212368490303
:1041F0000B40594259410A2002F004FA80212368F9
:10420000C9030B4059425941032002F0FBF98023B6
:1042100021685B040B4059425941042002F0F2F935
:1042200001211C2002F0EEF92B680321581C02F03A
:1042300069FE29607FBDC0469010002088100020D4
:1042400084100020981000202AA50000006810B5F6
:10425000C30703D5FFF79AFE054B1860054B1B6893
:10426000002B03D0024B186800F0BAFB10BDC0460B
:1042700090100020A41000200022054B10B51A60F9
:10428000044B1B68934201D000F0A8FB10BDC04650
:1042900090100020A410002070B505000068FFF702
:1042A00075FE04006868FFF771FE631E0100042BB1
:1042B00014D8451E042D11D805226A43D3180122B3
:1042C00015009D402B00064805682B430360054BF5
:1042D0001B68002B02D0200000F081FB70BDC0469F
:1042E00090100020A410002070B505000068FFF7B2
:1042F0004DFE04006868FFF749FE631E0100042BB1
:1043000014D8451E042D11D805226A43D318012262
:104310009A401300064802689A43064B02601B68E5
:10432000002B03D00022200000F059FB70BDC046D6
:1043300090100020A41000202C4BF7B51B6804003F
:10434000002B03D101204042FFF72CFD01262468F9
:10435000344219D0FF226310180212041040FF22C9
:10436000611212020A40DBB210431843204B1B6853
:10437000202B06D1B4401F4BA40EA400E35800022A
:104380001843FFF731FD30E0032525402DD1042CE3
:104390002BD90F2322681340062B26D1FF271309A0
:1043A00001933F04019B9D421FDAAB00E3185A685A
:1043B000324218D0531018023840FF2184460902B7
:1043C000501208406146DBB208431843084B1B6893
:1043D000202B06D15200920E064B9200D3580002B9
:1043E0001843FFF701FD0135DCE7F7BD8010002021
:1043F000EC00002058A500000B6810B50200D8079B
:1044000001D5581001E0012040421823012A03DDA4
:104410004A68042A00D10833024A1360FFF7C2FC3D
:1044200010BDC046EC000020012010B54042FFF74F
:10443000B9FC10BD0068F8B5C30702D5FFF7A6FDAB
:104440000BE0830726D1042824D90F2203681A40E1
:10445000042A1FD11B091DD000790300203B5E2BCD
:1044600018D80522002053430B4E9D18043AAB4246
:104470000CD0052110249F5D3C4200D080180139EA
:10448000520064100029F7D10133F0E70123400006
:10449000184300E00120F8BD58A60000F0B5050063
:1044A00085B008680C00FFF771FD0390022D08DD50
:1044B0006068FFF76BFD0700A068FFF767FD040069
:1044C00001E00124270005236343053B02930123F8
:1044D00026000193231D9E4234DC3D003B1D9D427E
:1044E0002BDC731E042B23D86B1E042B20D8029BBD
:1044F000039A591E019B49191A40204B0AD00122E8
:104500008A4019680A431A601D4B01221B68002B60
:104510000ED009E001208840010018688843186027
:10452000174B1B68002B03D03100280000F057FA0E
:10453000019B01355B000193D0E7029B01360533F7
:104540000293C7E73D1D042D15D8012C13D1260079
:104550003300AB40094A11689943094B11601B684D
:10456000002B04D0781D0022210000F038FA01341D
:104570000535062CECD105B0F0BDC04690100020EA
:10458000A410002010B5034A01210348FEF744FDA2
:1045900010BDC046E400002042A500000122094BE6
:1045A0001A60094A1368002BFCD00322074B1B68D2
:1045B000D8171040C0180123801006384000184357
:1045C0007047C04600C0004000C1004008C5004020
:1045D0000120704710B5064C200000F039FB05495A
:1045E000200000F059FB0122034B1A6010BDC046A9
:1045F000C8100020801A0600A010002010B501216C
:104600000D20FFF76BFA01210E20FFF767FA00215A
:104610000F20FFF763FA044C200000F055FA102138
:10462000200000F06DFA10BDB410002010B5046831
:104630000D20E30703D56410FF2C03D91720FBF7E7
:10464000E3FF06E0FFF7DAFFE1B2024800F07AFA92
:10465000002010BDB410002010B5FFF7CFFF0021DF
:10466000034800F06FFA01234000184310BDC04614
:10467000B410002010B5034A07210348FEF7CCFC14
:1046800010BDC046F400002033A800000D4B70B5EB
:104690001B6804000E001500002B01D1FFF79AFFE4
:1046A000E1B2094C200000F07FFBF1B2200000F0E5
:1046B00090FAE9B2200000F08CFA200000F0DEFB56
:1046C00070BDC046A0100020C810002010B5012405
:1046D0000368234205D04168214202D08268224209
:1046E00001D10D2004E058104910802803D915206D
:1046F000FBF78AFF0BE0FF2901D91620F8E75210DB
:10470000FF2A01D91720F3E7FFF7C0FF002010BDF3
:10471000F7B501242300A04237DD0A68144234D0E3
:104720001B4B55101B684C68002B01D1FFF752FF43
:104730000127184EE9B2300000F036FB3C4205D0AC
:104740003C413000E1B200F044FA1AE00325254074
:1047500017D1042C15D90F2322681340062B10D132
:1047600013090193019B9D420BDAAB00E3185968D2
:10477000394204D04910C9B2300000F02AFA01359C
:10478000F0E7300000F07AFB00231800FEBDC046C1
:10479000A0100020C8100020144B70B51B68050045
:1047A0000E00002B01D1FFF715FF114CEDB22900CF
:1047B000200000F0F9FAF1B2200000F00AFA00211E
:1047C000200000F0FDFA002801D040420CE0012258
:1047D0002900200000F0E3FA200000F0F0F90028A2
:1047E000FAD0200000F0F0F970BDC046A010002003
:1047F000C810002010B501240368234202D041688C
:10480000214201D10D2004E058104910802803D91D
:104810001520FBF7F9FE07E0FF2901D91620F8E77C
:10482000FFF7BAFF4000204310BD0000002370B521
:10483000344D0400EB5601332BD10D211D20FFF721
:10484000ABFF5A2804D101222A212A703D380AE000
:104850000F211920FFF7A0FF332807D102235F2281
:1048600020212B701A38FFF711FF12E00D211E20B6
:10487000FFF792FFC7280AD1032300222A21A93873
:104880002B70FFF703FF1B222A211E20EBE70023DA
:104890002B700023EB56022B06D0032B13D0012BD9
:1048A00026D121001D2010E0012C04D1292119203E
:1048B000FFF772FF0DE0032C15D12B211920FFF714
:1048C0006BFF043C05E021001E200124FFF764FF7C
:1048D00064427F2801DD0138FF3803007F330ADAA4
:1048E0007F20404207E0052C02D12D211920ECE762
:1048F00001240020644264237F21584302F01CFA03
:10490000604370BDF000002010B50120FFF78EFF5E
:1049100001234000184310BD10B50320FFF786FFA8
:1049200001234000184310BD10B50520FFF77EFF9E
:1049300001234000184310BDF8B501263400B042F1
:1049400036DD0F683E4233D04D68AB0730D1042DC1
:104950002ED90F232A681340062B29D1154B1B682B
:10496000002B01D1FFF736FE0024354204D12B681D
:104970001C09202C00D920240F4E7F10F9B22200F0
:10498000300000F00CFAA700EF19AF420DD0300054
:1049900000F015F90028FAD0300000F015F90123D5
:1049A0004000184368600435EFE7012064000443C9
:1049B0002000F8BDA0100020C81000200020704783
:1049C000002070470020704700207047002070478B
:1049D00000207047002070470020704770477047E4
:1049E0007047000010B5034A08210348FEF714FB86
:1049F00010BDC0462C01002074A8000010B5FFF7C0
:104A000057F9AF20C000FDF71DFBFEF777FB044808
:104A1000FEF7CAFCFDF792FEFEF732FD10BDC04660
:104A20001BA4000010B5FDF79FFA10BD70B500255E
:104A300004AC24780573A94205D10A4B0A4A232104
:104A40000A4803F02BFF01600949920052589B006D
:104A500002715B588371A3005B5885604371022328
:104A6000C37170BDF7A80000BAA8000005A9000036
:104A70008CA90000037B002B04D143738373036173
:104A800001330373704700001FB50191A02100247A
:104A90000068C900D2B24450012A07D0A24203D014
:104AA000032A05D1042202E0022200E00622134379
:104AB000034A8350034B019AC250012343501FBD48
:104AC000540500002405000010B50400FFF7D2FFD4
:104AD000A1222368A179D20099506179064A200069
:104AE0009950217904329950044B19685A689B688F
:104AF000FFF7CAFF10BDC0460C050000A81000203B
:104B00004BB2002B0CDB80233F290CD81F290CD87B
:104B10000F290CD807290CD803290CD81B060BE049
:104B200080239B0408E0DB0406E01B0504E05B0532
:104B300002E09B0500E0DB050168014A8B507047ED
:104B4000240500000368074A99501A00FC32D16816
:104B50000029FCD0A321C90058580023C0B2D3605B
:104B60007047C0461C05000007B58022074BD205E0
:104B70001A6000229A6002321A710F230C320093DD
:104B80000349023B0348FFF751FF07BDA81000206F
:104B900000300040B4100020F8B505000E001700EA
:104BA0000024BC4208D02B68315D1B682800984760
:104BB000002801D00134F4E72000F8BD704710B59B
:104BC0001C3001F005FE10BD10B51C3001F0F2FDE7
:104BD00010BD70B5437E0D00002B05D0643004007D
:104BE00001F005FE002801D0002004E0200029008B
:104BF00001F0D1FD012070BD10B51C3001F0EEFDBB
:104C000010BD0000F7B50193FA23002504009B00B6
:104C100083600D4B4560083303601C300F001600A5
:104C200001F0AEFD2000643001F0AAFD074AB60095
:104C3000B35827616375019B20009B009B586576E4
:104C4000A576A375FEBDC0466CA900008CA9000026
:104C50000123A022C375837D0C49C133FF33D205E4
:104C60009B009950437DC133FF339B009950CC2169
:104C70000369074A490499500521243A9950817DD6
:104C800008329950417D034A995070470C06000044
:104C9000240500000C050000A02302690020DB00B1
:104CA000D0500948814204D90848814204D9CD2115
:104CB00003E0CC21490401E08021C90404481150DB
:104CC0000521D1507047C046A086010090D0030056
:104CD00024050000F7B5050000200C000193824276
:104CE0005CD0161E402E00D940262F001C373800FD
:104CF00001F05CFDB1222B69D20080219C50012281
:104D000089005A50A97E002901D11A621A60002434
:104D1000731E2A69A34206D1019B002B03D0802376
:104D200002219B00D150012313621300FC33D96888
:104D3000002902D1996A0029F9D0996A00290AD17B
:104D4000D960A323DB00D1583800C9B2013401F087
:104D500022FDA642DCD8019A2B69002A04D11A0050
:104D6000FC32916A00290AD001210022AA765961F9
:104D70001900FC3188680028FCD08A6007E0012116
:104D8000A976D961D16C0029FCD00021D164FC3313
:104D90009A6A002A01D000229A62E0B2FEBD10B5E4
:104DA0000123FFF797FF10BD0300AC3310B50400DB
:104DB0001970643001F0FAFC0123637610BD000025
:104DC000F8B500220D0001004276AC310369040001
:104DD0000878B121C9005850802189005A50013209
:104DE0001A629A6026006436300001F0F1FC002857
:104DF0000ED03000276901F0DDFC1E4BF85023690E
:104E0000FC331A6A002A0CD19A6A002AF9D008E009
:104E10002369002D0AD11A00FC32916A002905D1BC
:104E20000EE09A6A002AF3D11A62DBE701225A6186
:104E30001A00FC3291680029FCD00021916006E044
:104E40000121D961D16C0029FCD00021D1641A0064
:104E50000020FC32916A81420BD0074990625A5877
:104E600002305A50824204D0043A53425341023035
:104E7000C01AF8BD1C050000C404000010B50121D3
:104E8000FFF79EFF10BD000010B513231422024946
:104E90000248FFF7B7FE10BD00400040C8100020D8
:104EA000F0B5474680B4CB0F98464A4C4B005B0D9B
:104EB0001E1982B007000A00132E35DC002E57DBC6
:104EC000454B040033411F000F4007430D00002FE6
:104ED00024D05B081C000C4020430027002807D08A
:104EE000132E00D172E08022D202324199430A434C
:104EF0004346DE00394B11009E193468756838004E
:104F000022002B0002F0D8F900900191009801993D
:104F100022002B0003F084F804000D00200029007B
:104F200002B004BC9046F0BD332E0CDD802304009B
:104F30000D00DB009E42F1D102000B0002F0BCF933
:104F400004000D00EAE7264C0D00A446012463444A
:104F50006442DC40A446614604000142DED04908B8
:104F60000142C5D08027FF051F4188430743BFE7A3
:104F70004B005B08034304000D00002BCED00B0355
:104F80001B0B03435A42134380221B0B1203134093
:104F90004A0C5204134319004346104ADB00D3184D
:104FA0001C685D6822002B0002F086F900900191D8
:104FB0000098019922002B0003F032F842464B0082
:104FC0005B08D607334304001D00A7E780273F0690
:104FD00089E7C04601FCFFFFFFFF0F0010AA000099
:104FE000EDFBFFFF30B5214A4B0087B05B089342D1
:104FF0001EDD1F4A934205DD02000B0003F010F88E
:1050000007B030BD02AA00F035F803231840049A17
:10501000059B01281ED0022811D000281FD002981D
:10502000039900F02DFA80231B069C466144E7E7B4
:10503000002300220093002300F088FFE0E7012412
:1050400002980399009400F081FF80231B069C4680
:105050006144D5E70298039900F012FAD0E70124E1
:1050600002980399009400F071FFC9E7FB21E93F22
:10507000FFFFEF7FF0B54E4657464546E0B4DC4BA8
:105080004E0090B01700894676089E4200DC81E011
:10509000D84B9E4220DCD84A002900DC89E1D74B5E
:1050A00002F0BEFFD54B04000D009E4200D18AE005
:1050B000D34AD44B02F0B4FF02000B0020003A6048
:1050C0007B60290002F0ACFFCD4ACE4B02F0A8FF76
:1050D000B860F960012066E0CB4B9E4200DC8DE0B9
:1050E000CA4B9E4265DCCA4932158A4692445346F1
:1050F0001B05F51A2900040003F0E6FA03F01AFB79
:1051000002000B00200029000A920B9302F088FF96
:105110000022C04B02F00AFD0290039103F0D4FA82
:1051200003F008FB04000D0002000B000298039935
:105130000C940D9502F074FF0022B64B02F0F6FCC1
:10514000002200230E900F9101F000FF002800D1F3
:105150004CE1002300222000290001F0F7FE02228A
:10516000431E9841131AAC4A3900019202220AA840
:105170000092524600F09EFA4B46002B13DA802232
:10518000120694467B68404263447B60FB6863443C
:10519000FB6008E002000B003A607B600022002305
:1051A0000020BA60FB6010B01CBC90469946A24635
:1051B000F0BD02000B0002F033FFB860F960386008
:1051C00079600020EFE7D3228E4B520502F028FFD2
:1051D000924A934B04000D0002F022FF02000B00E4
:1051E00020003A607B60290002F01AFF8B4A8C4B4A
:1051F00002F016FFB860F9600120D4E700F056FF16
:10520000884A894B04000D0002F090FC0022874B75
:1052100002F052F803F058FA804603F08BFA764A0F
:10522000764B0690079102F081FC02000B002000F3
:10523000290002F0F5FE734B02900391069807993E
:105240006F4A02F073FC434604000D000494059578
:105250001F2B30DC013B764A9B009B589E422AD094
:1052600002000B000298039902F0DAFE02000B0024
:1052700005000C003A607B60029803992A00230025
:1052800002F0CEFE049A059B02F0CAFE06000B0057
:105290003200BA60FB604B464046002B00DB82E7E1
:1052A00080231B069C46644461443D607C60BE6074
:1052B000F960404277E7049A059B0298039902F04F
:1052C000AFFE0B0002003A607B604B0036155B0DB1
:1052D00005000C00F31A102BCEDD06980799D32297
:1052E000484B520502F022FC04000D0002000B00A6
:1052F0000298039902F094FE02000B0002980399B1
:105300000892099302F08CFE22002B0002F088FE26
:1053100004000D0006980799404A414B02F006FC34
:1053200022002B0002F07CFE02000B00049005918D
:105330000898099902F074FE02000B003A607B6045
:105340004B005B0DF61A0500089A099B0C000292AF
:105350000393312E90DD06980799B822304B9205C1
:1053600002F0E4FB04000D0002000B000298039918
:1053700002F056FE0A00010013000291039202009F
:105380000898099902F04CFE22002B0002F048FE1A
:1053900004000D0006980799264A274B02F0C6FB29
:1053A00022002B0002F03CFE02000B000492059349
:1053B00058E7124B01F080FF104B04000D009E4295
:1053C0003CD00F4A0F4B01F077FF02000B0020008A
:1053D0003A607B60290002F023FE094A094B01F084
:1053E0006BFFB860F96001204042DCE60323BAE6B7
:1053F000FB21E93F7BD9024000004054FB21F93FEB
:105400003163621A61B4D03DFB213941FFFFEF7F68
:10541000EAFBFFFF00007041A0AA00007370032E9A
:105420008A19A33B83C8C96D305FE43F0000E03FA9
:1054300020AA0000C14920259A837B39D3220D4B35
:10544000520501F039FF0C4A0C4B04000D0001F02D
:1054500033FF02000B0020003A607B60290002F05D
:10546000DFFD054A054B01F027FFB860F960012018
:10547000404298E661B4D03D7370032E8A19A33B75
:10548000F0B54F464646C0B487B000920193754BC5
:105490004F00814688467F089F4263DC03F014F981
:1054A000002800D1DAE04A4643464846414602F029
:1054B0003DFB04000D006C4A6C4B02F037FB6C4A5C
:1054C0006C4B01F0F9FE22002B0002F02FFB6A4A20
:1054D0006A4B02F0A5FD22002B0002F027FB684A70
:1054E000684B01F0E9FE22002B0002F01FFB664A28
:1054F000664B02F095FD22002B0002F017FB644A78
:10550000644B01F0D9FE22002B0002F00FFB029049
:1055100003910022604B2000290002F007FB029A51
:10552000039B06000F002000290002F0FFFA009AFA
:10553000019B04000D004846414602F0F7FA0200C4
:105540000B002000290002F06BFD02000B00300070
:10555000390002F065FD02000B0000204F4902F007
:105560005FFD70E002000B0002F0E0FA04000D00A5
:105570003D4A3E4B02F0DAFA3D4A3E4B01F09CFEBA
:1055800022002B0002F0D2FA3B4A3C4B02F048FDCD
:1055900022002B0002F0CAFA394A3A4B01F08CFE85
:1055A00022002B0002F0C2FA374A384B02F038FDD5
:1055B00022002B0002F0BAFA354A364B01F07CFE8D
:1055C0002B00220002F0B2FA354B029003919F4269
:1055D0009FDD344B00229F423ADC334900207B1888
:1055E0002E4916001F0002F01BFD049005910022B9
:1055F000294B2000290002F099FA32003B0002F00A
:105600000FFD029A039B06000F002000290002F004
:105610008DFA009A019B04000D004846414602F0B5
:1056200085FA02000B002000290002F0F9FC0200BC
:105630000B003000390002F0F3FC02000B0004986C
:10564000059902F0EDFC07B00CBC90469946F0BD00
:10565000164B002604920593154FC8E700200F490A
:10566000F1E7C046FFFF3F3ED43888BEE9FAA8BD47
:10567000C4B1B4BD9EEE213EAD529C804F7E923EA1
:105680009015CB19A001FA3E7751C1166CC1563F57
:105690004C5555555555A53F0000E03F0000F03FE3
:1056A0003233D33F0000E93F0000E0FF0000E73F56
:1056B0000000D23FF0B556464D4644465F46F0B432
:1056C0008E4CA544099119001400A89A0B938C4B99
:1056D0009200D2580B000290013BE01E18211D00E1
:1056E00016000892009301F027FBC3430200DB176A
:1056F0001A401300110001330E929A009B1ADB002E
:105700001B1906934C1B761918D4A99BA5009C461F
:10571000361926AF6544013607E0286803F00AF819
:10572000013403C70435B44208D0002CF5DA002058
:105730000021013403C70435B442F6D1089B002B85
:1057400001DA00F0F9FB76AB19008B4626AA9146E8
:10575000089A0A930132D2009344029A9A469046DC
:10576000009BDB00994408339844009B002B00DA2F
:10577000B5E14C4600260027029D2268636803CDF0
:1057800002F0D4F902000B003000390001F094FD62
:10579000083C06000F004545EFD15346C0C39A466A
:1057A00008239C46E144DA45DFD10899554A0B00AD
:1057B000944663449B0012A884461A0002986244EF
:1057C00083460D920B9A0433D200634493440F93A3
:1057D0000591059A0A98D30019000C938C46030092
:1057E00063441E685F68002A34DD12AB99461300DB
:1057F000454A804694466344DB00984474AB9A461D
:105800000022424B3000390002F090F902F05CFFB8
:1058100002F090FF00223E4B04000D0002F086F9DA
:1058200002000B003000390002F0FAFB02F04CFFDE
:105830004B4601C39946434620001A685B6829001D
:1058400001F03AFD08235B429C46E04406000F004D
:10585000D045D5D1069B30001A003900994600F09A
:10586000C1FCFF2300229B0504000D0002F05EF93D
:1058700000F020FC0022274B02F058F902000B0038
:105880002000290002F0CCFB04000D0002F01CFFF8
:10589000804602F04FFF02000B002000290002F0BA
:1058A000BFFB4C4606000F00002C00DCF8E0059B17
:1058B00018205A1E920012AB9B58001B1900014180
:1058C000884481405B1A12A98B501722121B134186
:1058D0000793079B002B4BDD01239C46059BE0446F
:1058E000002B00DCF2E280251096119712AB00210C
:1058F000002409486D04059F19E0C04684FDFFFFA0
:10590000A8AB0000FEFFFF3FFFFFFF1F0000703E3F
:105910000000704100002040FFFFFF00002A02D07D
:10592000AA1A1A600134013104338F4209DD1A6862
:10593000002CF3D0821A01311A60012404338F4203
:10594000F5DC109E119F069B002B0EDD012B00D174
:10595000B1E0022B09D1059B12A95A1E920012AB8D
:105960009B5810939B029B0A8B50079B022B7ED067
:10597000002300223000390001F0E8FA059B0028DE
:1059800000D16BE208995A1E914210DCBF490F9872
:105990008C4612A963448C4600219B0063441C681A
:1059A000043B21438342FAD1002900D0B5E0089B93
:1059B00012AA013B9B00D358002B00D084E20122A5
:1059C0000D9B043B596801320029FAD005990B0060
:1059D0008C46013362440792934242DC0E9A94460D
:1059E000A99A634492460B9A9B00944626AA904635
:1059F0009A44059B0A9A6344DB0098440C9B9446A6
:105A00009946079BE144DB006344059353461868BD
:105A100002F090FE434618605960009B002B23DB88
:105A2000444600260027029D2268636803CD02F0E9
:105A30007DF802000B003000390001F03DFC083C0D
:105A400006000F005D45EFD14B469E60DF600423EA
:105A50009C460433E2449C46059BE144E04499455E
:105A6000D4D1079B0593B4E600260027ECE732006B
:105A70003B000020864902F0D3FA06000F00002CFC
:105A800000D175E7069A0020814900F0ABFB0200C7
:105A90000B003000390002F0C3FA06000F0067E780
:105AA000069B002B12D1059B12AA013B9B00D558E7
:105AB000EB1507930DE7059B12A95A1E920012AB36
:105AC0009B5810935B025B0A8B504EE70022714B90
:105AD00001F060FA00280ED10023079348E75346EF
