:1000000000400020595A0000995A00009B5A0000F5
:1000100000000000000000000000000000000000E0
:100020000000000000000000000000009D5A0000D9
:1000300000000000000000009F5A0000A15A0000CC
:10004000A35A0000A35A00008D620000A35A0000CA
:10005000A35A000000000000A35A0000A35A0000A9
:10006000A35A0000D15C0000A35A0000A35A00006C
:10007000A35A0000A35A0000A35A0000A35A00008C
:10008000A35A000031630000A35A0000A35A0000E5
:10009000A35A0000A35A0000A35A0000A35A00006C
:1000A000A35A0000A35A0000000000000000000056
:1000B0000000000000000000000000000000000040
:1000C000054B0648033310B51B1A062B03D9044B06
:1000D000002B00D0984710BD2C0200202C020020DD
:1000E000000000000648074910B5091A8910CB0F17
:1000F0005918491003D0044B002B00D0984710BD6D
:100100002C0200202C0200200000000010B5074C3B
:100110002378002B09D1FFF7D3FF054B002B02D02A
:10012000044800E000BF0123237010BD2C02002012
:1001300000000000D8A50000094B10B5002B03D02B
:100140000849094800E000BF08480368002B02D1B5
:10015000FFF7C8FF10BD064B002BF9D09847F7E713
:100160000000000030020020D8A500002802002076
:1001700000000000164B002B00D1144B9D4640227E
:1001800092029A1A924600218B460F461348144A4F
:10019000121A07F0D6FF0F4B002B00D098470E4BDA
:1001A000002B00D098470020002104000D000D48CE
:1001B000002802D00C4800E000BF07F07FFF2000BD
:1001C000290006F07BF807F053FFC0460000080046
:1001D0000040002000000000000000002C02002071
:1001E0004C24002000000000000000000123034018
:1001F0000200181E04D1042A03D91068000900E087
:100200000020704710B50400FFF7F0FF0300002046
:1002100083420BD0013B9B00181DE2181279002A83
:1002200003D001338342F8D100E0180010BD012251
:10023000016810B5114201D0002903DA102000F046
:10024000E3F903E04910062001F032FF10BD016818
:1002500010B5CB0701D5002903DA102000F0D4F93E
:1002600006E04910033189100022052001F020FF2B
:1002700010BD70B50568AB0728D1042D26D90F2312
:100280002A6846681340062B09D12800FFF7AEFF05
:10029000012383421DDC9A00AE500133F9E7052BA0
:1002A00014D1F30703D4132000F0AEF912E0761056
:1002B000FF2EF8D82800FFF799FF2C1D230080009F
:1002C0002018984205D91E700133FAE70B2000F080
:1002D0009BF9002070BD70B50468E30701D41120BC
:1002E0002DE04568AB0729D1042D27D90F262B68AF
:1002F00064101E40062E0BD1002C04DD2800FFF7F1
:1003000075FF844201DD122019E0A400605918E055
:10031000331F012B12D82800FFF768FF8000042E3E
:1003200002D12800FFF76EFF002CECDDA042EADBD3
:1003300001232C19E0784000184302E00B2000F064
:1003400063F970BDF8B5012304681C4201D1112086
:100350002FE00325466835402AD1042E28D90F23E3
:100360003268641087681340062B0BD1002C04DD23
:100370003000FFF73BFF844201DD122019E0A400AA
:10038000A75113E0052B13D1002CF6DD3000FFF749
:100390002DFF80008442F0DC01231F4201D1132095
:1003A00007E07F10FF2FFAD83419E770280002E029
:1003B0000B2000F029F9F8BD006810B5830717D1AC
:1003C000042815D90F2302681340062B02D1FFF72A
:1003D0000DFF0BE0052B05D1FFF708FFC00001233F
:1003E000184308E0042B03D1FFF70CFF4000F6E7A9
:1003F0000B2000F009F910BD10B50324006804407B
:1004000006D1042804D90F2302681340042B01D01D
:100410000E2011E001F088FE0378233B5942594138
:1004200010224018210008F065FB80239B05C218AC
:10043000054B9A4203D9142000F0E6F802E00123AC
:100440004000184310BDC046FFFFFF3F10B5012418
:100450000368234202D04268224203D10D2000F0FB
:10046000D3F808E004495B1052101B070A401343FD
:1004700018684000204310BDFCFFFF0F01210368F6
:1004800010B50B4205D042680A4202D0806808428B
:1004900003D10D2000F0B8F808E005495B105210B8
:1004A0001B070A40401013431860002010BDC046CF
:1004B000FCFFFF0F012303400200181E01D0501063
:1004C00002E00D22014B1A707047C046480200201E
:1004D000012303400200181E04D1042A03D9106826
:1004E000000900E00020704770B50D000400FFF720
:1004F000EFFF86002800FFF7EBFF830000209E42FD
:100500000ED1231D9E1904351A009E4207D9297861
:100510001278013301358A42F6D0002000E0012034
:1005200070BD0000F0B585B00393019002912D4E8F
:100530002D4B002A02D002223270013A00251A60A7
:100540001B68F554019B9D424ADA029AAB00D058D1
:10055000254B1C68C8239B0037191C1B012318421C
:1005600002D04310214A1FE0214A002802D004286B
:1005700005D1204A2100380008F0AAF918E0042823
:1005800010D90F2302681340042B04D101F0CCFDD5
:10059000194A030008E0062B05D1FFF799FF174A17
:1005A000030001E00123164A2100380008F090F909
:1005B000300008F0F3F9039B0B4A002B01D11060C7
:1005C0000CE0019B013B9D42F9DA0E4B9842F6DCB0
:1005D000431C1360202232540022F2540135B1E74B
:1005E00005B0F0BD5402002050020020C198000068
:1005F000949800009A980000D19B00009F980000FA
:10060000B09800001F030000014B187000207047D5
:100610004802002070B502F019FF094C0100251DA9
:100620001F22280008F0C1F9280008F0B7F90423B8
:1006300004308008000118432060200070BDC046CF
:1006400074050020C368F0B59E00836889B09E19C8
:100650000300183306930369069A9C00069B0290D8
:100660001D19436901939B00D3180393D74B1B7843
:10067000002B0FD17F223368D5491C1213409B00F9
:100680005B582F000436019233E0D04B1B78002BCF
:1006900027D03D00029BCD4C9B6821780193F21A34
:1006A000029B92109B7812021A43029B587802F028
:1006B00059FC0023029A23701370029B069A9B68D0
:1006C000F61A0193029BB610DE60069BED1A029BA0
:1006D000AD101D61039B9B1A029A9B10536101F0A0
:1006E00034FC3368019A1C121340B94A9B009B5892
:1006F00004369F46029B587802F02CFC0023029A95
:10070000137001F03DF9069B3D1DEA1AAF4BDB2A41
:1007100003DD1A223D001A70BCE71B783C60002BF9
:10072000B8D13368019A1C121340A94A9B009B5808
:100730002F000436DDE7069B3D1DEA1AA34BDB2A9A
:1007400003DD1A223D001A70A4E731681B78321DC0
:100750003960002B01D016009CE77368019A1C12C7
:1007600013409B4A9B009B582F000836C1E7069B0D
:100770003D1DEA1A954BDB2A03DD1A223D001A7053
:1007800088E7A4001B7834193C60002B82D13368C1
:10079000019A1C1213408E4A9B009B582F0004366E
:1007A000A7E7069B3D1DEA1A884BDB2A03DD1A22C8
:1007B0003D001A706EE7874AA400A2581B783A6081
:1007C000002B00D066E73368019A1C121340804A60
:1007D0009B009B582F0004368BE73D1F7D4B2A68FA
:1007E000A400E250794B1B78002B00D052E733680D
:1007F000019A1C121340764A9B009B582F00043626
:1008000077E7A3000493049A724B3D1FD058FFF77B
:1008100051FE04002868FFF74DFE241801206D4B9F
:100820006400049A0443D450684B1B78002B00D01A
:1008300030E73368019A1C121340654A9B009B58AD
:100840002F00043655E7069B3D1DEA1A5F4BDB2A55
:1008500003DD1A223D001A701CE703990698012255
:10086000814202D90A000C3A12681B783A60002BC8
:1008700000D00FE73368019A1C121340544A9B00C2
:100880009B582F00043634E7069B3D1DEA1A4F4B58
:10089000DB2A03DD1A223D001A70FBE6039A069953
:1008A0008A420AD913000C3B1B684B4A5B10A41800
:1008B000E41A039BA400E35802E018221A700023F4
:1008C0003B60424B1B78002B00D0E3E63368019A73
:1008D0001C1213403E4A9B009B582F00043608E729
:1008E000039B069A93420BD90C3B1B683A4A5B1058
:1008F000A4183D1FE41A2A68039BA400E25003E0F9
:1009000018223D00314B1A70304B1B78002B00D061
:10091000C0E63368019A1C1213402D4A9B009B5875
:100920002F000436E5E6039B069A93421FD92A4B13
:100930003D1FE318039C04930C3C2368049A5B104E
:10094000D31A039A9B009858FFF7B4FD07902868C4
:10095000FFF7B0FD2468049B64101C1B079BA400D8
:100960001F1801207F00039B0743E75003E0182274
:100970003D00164B1A70154B1B78002B00D089E6F2
:100980003368019A1C121340114A9B009B582F0098
:100990000436AEE6069B3D1DEA1A0C4BDB2A03DD4E
:1009A0001A223D001A7075E6039AA400A2581B781B
:1009B0003A60002B00D06DE63368019A1C12134098
:1009C000034A9B009B582F00043692E64802002001
:1009D00094960000B4220020FDFFFF3F3D1F039BC3
:1009E0002A68A400E250D34B1B78002B00D051E6BC
:1009F0003368019A1C121340CF4A9B009B582F006A
:100A0000043676E6039BA4001C1923683D1F5B1087
:100A100028680493FFF74EFD049B1F180120C54B67
:100A20007F001B7807432760002B00D032E6336835
:100A3000019A1C121340C04A9B009B582F00043699
:100A400057E6069BA4003D1BBA4CAB420DD8237859
:100A5000002B00D01EE63368019A1C121340B64AE0
:100A60009B009B582F00043643E6B44801F0D2FAAD
:100A70002378002B00D00DE63368019A1C12134036
:100A8000AD4A9B009B582F00043632E6A300F618AF
:100A9000002C01DA00F074FFA64B1B78002B01D06C
:100AA0003D00F7E53368019A1C121340A24A9B00EF
:100AB0009B5804361DE63D1F2B68042B04D1A30070
:100AC000F618002C06DAF8E5002B03D00C22994B1F
:100AD0001A70DFE5974B1B78002B00D0DAE53368FE
:100AE000019A1C121340944A9B009B582F00043615
:100AF000FFE53D1F2B68002B04D1A300F618002C46
:100B000006DADAE5042B03D00C228A4B1A70C1E511
:100B1000884B1B78002B00D0BCE53368019A1C126F
:100B20001340854A9B009B582F000436E1E53A1F8D
:100B300013685B10013B002B07DD01215B00A40063
:100B40000B433D0036191360B7E57A4B15001B784F
:100B5000002B00D09EE5336801991C120B407649AA
:100B60009B005B5817000436C3E53A00069B0C3225
:100B7000D31ADB2B04DD1A226E4B3D001A7089E577
:100B8000FF2361005B000B4001210B433B60029B94
:100B900006989B6824120493F61A029BB6109B7861
:100BA00036021E43039B8E401B1A9B108B400B4347
:100BB000BB60029B0E437E609C70E4B2604BE4001D
:100BC0000299E35815008B605A490978002903D02F
:100BD00008331E0003925DE51E0001999B680C36E8
:100BE0001C120B4054499B005B580392170080E590
:100BF0003B1F1C68069A039B93422AD13D000A20A2
:100C0000E30716D4A3070DD1042C0BD90F232268B8
:100C10001340042B06D1200001F086FA07F0BEFE37
:100C2000063006E00720042C03D0002C01D08020E1
:100C30008000643001F03EFF002801D1043E3CE515
:100C4000029B2100587802F09FF90023029A13704A
:100C500033E5039B03990C3B1B685B109B005B42D5
:100C60001A00CB180C3B1C600B00083B1B68083AB1
:100C70008D1802995A108A70D2B23149D2005B00A5
:100C800056589B0A029A9B009660F618039B069A98
:100C9000043B1B685B109B00D3180393254B1B7808
:100CA000002B00D0F6E43368019A1C121340224A4C
:100CB0009B009B582F0004361BE53B1F1868FFF76D
:100CC000F9FBA40004903D1B1E282ADC00280EDC42
:100CD000184B1B78002B00D0DCE43368019A1C12FF
:100CE0001340154A9B009B582F00043601E502F083
:100CF00093FB049F033F3F1802F08EFB114BC01B78
:100D00009842F9D80B4B1B78002B00D0C2E4336813
:100D1000019A1C121340084A9B009B582F0004366E
:100D2000E7E40123029A137002F076FB049B0A3871
:100D3000C71834E04802002094960000C4980000D0
:100D4000BC1A00209F8601003B1F1868FFF7B2FB0A
:100D5000A40004903D1B00280EDCD44B1B78002B14
:100D600000D097E43368019A1C121340D04A9B00CC
:100D70009B582F000436BCE4CE4B049A9A4203DD04
:100D80001D22CA4B1A7085E40123029A137002F0E7
:100D900043FBFA23049F9B005F430A3F3F18029BDB
:100DA0005F608AE40023A5007D1B1A002000290053
:100DB000FFF7B8FBC04FC14C3968200002F030F893
:100DC0003968200002F0E7F8B84B1B78002B00D000
:100DD00060E43368019A1C121340B54A9B009B588B
:100DE0002F00043685E4B14BA4001B783D1B002B7B
:100DF00000D04FE43368019A1C121340AC4A9B00A8
:100E00009B582F00043674E401F09AFE01F09DF81F
:100E10003B1F1868002823D1083B1868C30701D579
:100E2000401016E083070FD104280DD90F23026864
:100E30001340062B02D1FFF74BFB0AE0052B03D131
:100E4000FFF746FB800004E01922984B3D001A7022
:100E500020E43A0001214300083A0B43136001E00B
:100E600040100138002832DD012243001343391FAE
:100E70000B603B00083B1B681341181A3B000C3BFE
:100E80001B68134203D08018A400904015E0990716
:100E900017D1042B15D90F211D682940062906D129
:100EA00001308000C358039AA400A35010E0052924
:100EB00007D118180079A4004000039B1043E050AC
:100EC00006E01922794B3D001A70FFF7E3FB043668
:100ED000764B1B78002B02D03D00FFF7DBFB33681D
:100EE000019A1C121340724A9B009B580436FFF76C
:100EF00000FCA300069AFB189B1ADB2B02DC3D00CA
:100F0000012205E01A22694B3D001A70FFF7C2FB6F
:100F1000631E002C03DD2A601C000435F8E7634BD8
:100F20001B78002B01D0FFF7B5FB3368019A1C1228
:100F300013405F4A9B009B582F000436FFF7D9FBF4
:100F4000A3009C46F81A002C04DC1C22574B0025F9
:100F50001A7015E0002103685B1001258A00825891
:100F6000154003D10D22514B1A7009E052109342E3
:100F700000DD130001318C42EFDC01255B001D43D5
:100F800063460560FD1A494B04351B78002B01D0E0
:100F9000FFF780FB3368019A1C121340444A9B0000
:100FA0009B582F000436FFF7A4FBA3009C46F81AB9
:100FB000002C04DC1C223D4B00251A7015E000219A
:100FC00003685B1001258A008258154003D10D2269
:100FD000364B1A7009E05210934200DA13000131C7
:100FE0008C42EFDC01255B001D4363460560FD1A62
:100FF0002E4B04351B78002B01D0FFF74BFB3368D9
:10100000019A1C1213402A4A9B009B582F00043659
:10101000FFF76FFB3B00083B1868FFF74BFA3B1FDD
:1010200004901868FFF746FA049AA5007C1B002379
:10103000824200DA043323601C4B7D1B1B7804358D
:10104000002B01D0FFF726FB3368019A1C121340D6
:10105000174A9B009B582F000436FFF74AFBA3005A
:10106000FD1A04933B00083B1868FFF723FA3B1F67
:1010700004001868FFF71EFAE20FC317A04253419D
:101080009B002B60049BFD1A084B04351B78002B3A
:1010900001D0FFF7FFFA3368019A1C121340044A8B
:1010A0009B009B582F000436FFF723FB48020020CB
:1010B0009496000080EE360050020020540200207A
:1010C0003B00083B18683B1F1968A300884202D107
:1010D000FB1A042222E004281ED90122104201D06A
:1010E000114219D10325284215D10F2302681A4055
:1010F000042A10D129420ED104290CD90A681340C0
:10110000042B08D1FFF7F0F9431E9841A5007D1B81
:101110008000286003E0A3000022FB1A1A60D84B6D
:10112000A4001B783D1B0435002B01D0FFF7B2FA59
:101130003368019A1C121340D24A9B009B582F001F
:101140000436FFF7D6FA3B00083B18683B1F1968C6
:10115000A300884202D1FB1A002223E004281FD9F1
:101160000122104201D011421AD10325284216D182
:101170000F2302681A40042A11D129420FD10429F1
:101180000DD90A681340042B09D1FFF7ADF903000C
:1011900058425841A5007D1B8000286003E0A30051
:1011A0000422FB1A1A60B64BA4001B783D1B0435C1
:1011B000002B01D0FFF76EFA3368019A1C1213401E
:1011C000B04A9B009B582F000436FFF792FAA30009
:1011D000FD1A04933B00083B1868FFF76BF93B1FAF
:1011E00004001868FFF766F9E217C30F8442534101
:1011F0009B002B60049BFD1AA14B04351B78002B30
:1012000001D0FFF747FA3368019A1C1213409D4A38
:101210009B009B582F000436FFF76BFA3B00083BFE
:101220001868FFF747F93B1F04901868FFF742F969
:10123000049AA5007C1B0023824200DD0433236056
:101240008F4B7D1B1B780435002B01D0FFF722FA52
:101250003368019A1C1213408A4A9B009B582F0046
:101260000436FFF746FA3B1F1B68854AA400042B8F
:1012700002D13B1B002103E0002B03D104213B1BC7
:10128000196001E00C23137013783D1B0435002B0B
:1012900001D0FFF7FFF93368019A1C121340794A15
:1012A0009B009B582F000436FFF723FAA3000493FA
:1012B000FC1A3B00083B1868FFF7FCF83B1F0500D1
:1012C0001868FFF7F7F82D180120049B6D000543FF
:1012D0002560FD1A6A4B04351B78002B01D0FFF7FF
:1012E000D9F93368019A1C121340664A9B009B5837
:1012F0002F000436FFF7FDF9A300FD1A04933B000D
:10130000083B1868FFF7D6F83B1F04001868FFF782
:10131000D1F8241A0120049B640004432C60FD1AB8
:10132000574B04351B78002B01D0FFF7B3F9336816
:10133000019A1C121340534A9B009B582F000436FD
:10134000FFF7D7F9A3000493FC1A3B00083B186889
:10135000FFF7B0F83B1F05001868FFF7ABF84543EF
:101360000120049B6D0005432560FD1A444B0435A4
:101370001B78002B01D0FFF78DF93368019A1C12FE
:101380001340404A9B009B582F000436FFF7B1F9E9
:101390003B00083B1868FFF78DF83B1F0490186866
:1013A000FFF788F80100049805F090F80123A500E4
:1013B0007C1B250040001843314B20601B7804350E
:1013C000002B01D0FFF766F93368019A1C12134015
:1013D0002C4A9B009B582F000436FFF78AF93B00EC
:1013E000083B1868FFF766F83B1F04901868FFF782
:1013F00061F80100049805F04FF90123A5007C1B5A
:101400002500490019431E4B21601B780435002B31
:1014100001D0FFF73FF93368019A1C121340194AB3
:101420009B009B582F000436FFF763F93B1F186899
:10143000FFF740F8C317C018584001234000184375
:101440000F4BA4001B783D1B28600435002B01D0F6
:10145000FFF720F93368019A1C121340094A9B00D8
:101460009B582F000436FFF744F9A300FD1A079399
:101470002868012C08D1FFF71DF804900DE0C04644
:101480004802002094960000FFF714F804006868F2
:10149000FFF710F80130031B0493049B002B01DCC1
:1014A0000123049307F0C6F9049905F0F5F80C1927
:1014B0000121079B64000C432C60FD1AF84B043596
:1014C0001B78002B01D0FFF7E5F83368019A1C1256
:1014D0001340F44A9B009B582F000436FFF709F98C
:1014E000A4003D1B2800FEF787FFED4B28601B780A
:1014F0000435002B01D0FFF7CDF83368019A1C1298
:101500001340E84A9B009B582F000436FFF7F1F880
:10151000A300FD1A04933B00083B1868FEF7CAFFBE
:101520003B1F04001868FEF7C5FF04400120049B20
:10153000640004432C60FD1AD94B04351B78002B42
:1015400001D0FFF7A7F83368019A1C121340D54A5F
:101550009B009B582F000436FFF7CBF8A3000493A1
:10156000FC1A3B00083B1868FEF7A4FF3B1F050070
:101570001868FEF79FFF05430120049B6D0005439B
:101580002560FD1AC64B04351B78002B01D0FFF7F0
:1015900081F83368019A1C121340C24A9B009B5881
:1015A0002F000436FFF7A5F8A3000493FC1A3B00B4
:1015B000083B1868FEF77EFF3B1F05001868FEF722
:1015C00079FF45400120049B6D0005432560FD1A0D
:1015D000B34B04351B78002B01D0FFF75BF8336861
:1015E000019A1C121340AF4A9B009B582F000436EF
:1015F000FFF77FF83B1F1868FEF75CFFC04301232D
:1016000040001843A64BA4001B783D1B28600435FE
:10161000002B01D0FFF73EF83368019A1C121340EB
:10162000A04A9B009B582F000436FFF762F8A300E6
:10163000FD1A04933B00083B1868FEF73BFF3B1F75
:1016400004001868FEF736FF8440012364001C4341
:10165000049B2C60FD1A924B04351B78002B01D0A3
:10166000FFF718F83368019A1C1213408D4A9B004B
:101670009B582F000436FFF73CF8A300FD1A049393
:101680003B00083B1868FEF715FF3B1F0400186875
:10169000FEF710FF0441012364001C43049B2C60EF
:1016A000FD1A7F4B04351B78002B01D0FEF7F2FFAB
:1016B0003368019A1C1213407A4A9B009B582F00F2
:1016C0000436FFF716F83B000C3B1868FEF7F2FEF5
:1016D0003B00083B05001868FEF7ECFEE917020026
:1016E000C317280005F02AF83B1F049005911868DD
:1016F000FEF7E0FE02000498059904F0D3FF0123F1
:1017000040001843664BA4001B783D1B286004353D
:10171000002B01D0FEF7BEFF3368019A1C12134064
:10172000604A9B009B582F000436FEF7E2FFA4009E
:101730003D1B2800FEF77BFD594B28601B780435C4
:10174000002B01D0FEF7A6FF3368019A1C1213404C
:10175000544A9B009B582F000436FEF7CAFFA40092
:101760003D1B2800FEF773FD4D4B28601B780435A8
:10177000002B01D0FEF78EFF3368019A1C12134034
:10178000484A9B009B582F000436FEF7B2FFA40086
:101790003D1B2800FEF76DFD414B1B78002B01D04F
:1017A000FEF778FF3368019A1C1213403D4A9B00F4
:1017B0009B582F000436FEF79CFFA4003D1B280019
:1017C000FEF789FD364B28601B780435002B01D0CD
:1017D000FEF760FF3368019A1C121340314A9B00E8
:1017E0009B582F000436FEF784FFA4003D1B280001
:1017F000FEF7A8FD2A4B1B78002B01D0FEF74AFF0D
:101800003368019A1C121340264A9B009B582F00F4
:101810000436FEF76EFFA4003D1B2800FEF7CCFD4A
:101820001F4B28601B780435002B01D0FEF732FFD8
:101830003368019A1C1213401A4A9B009B582F00D0
:101840000436FEF756FF069B3D1DEB1A144CDB2BAE
:1018500004DD1A233D002370FEF71CFF01F0E6FDB6
:1018600001234000184323783860002B01D0FEF795
:1018700011FF3368019A1C1213400A4A9B009B58BF
:101880002F000436FEF735FF069B3D1DEB1A044C76
:10189000DB2B09DD1A233D002370FEF7FBFEC0465B
:1018A000480200209496000001F0B6FDF64B40007F
:1018B00018400123184323783860002B01D0FEF72D
:1018C000E9FE3368019A1C121340F04A9B009B58B2
:1018D0002F000436FEF70DFFA4003D1B2800FEF785
:1018E000B5FDEB4B28601B780435002B01D0FEF7CB
:1018F000D1FE3368019A1C121340E44A9B009B58A6
:101900002F000436FEF7F5FEA4003D1B2800FEF76D
:10191000B5FDDF4B1B78002B01D0FEF7BBFE336813
:10192000019A1C121340D94A9B009B582F00043681
:10193000FEF7DFFE0123A5007D1B20001A00290011
:10194000FEF7F0FDD34C2068643001F0B3F80028B6
:1019500015D0029B21685A78CF4801F02AFB15E088
:10196000A5007D1B2000012300222900FEF7DAFDDF
:10197000C84C2068643001F09DF8002803D1043E73
:101980003D00FEF79AFEC44801F0AEF90123029A29
:10199000137001F041FDC8222368D200063353437F
:1019A0001818029B5860FEF788FEFEF733FEB84B0E
:1019B000A4001B783D1B28600435002B01D0FEF7E6
:1019C00069FE3368019A1C121340B04A9B009B5871
:1019D0002F000436FEF78DFEA4003D1B280001F009
:1019E00059FDAB4B28601B780435002B01D0FEF766
:1019F00051FE3368019A1C121340A44A9B009B5865
:101A00002F000436FEF775FEA4003D1B280001F0F0
:101A100043FD9F4B28601B780435002B01D0FEF757
:101A200039FE3368019A1C121340984A9B009B5858
:101A30002F000436FEF75DFEA4003D1B280001F0D8
:101A40002DFD934B28601B780435002B01D0FEF749
:101A500021FE3368019A1C1213408C4A9B009B584C
:101A60002F000436FEF745FEA4003D1B280001F0C0
:101A700033FD874B1B78002B01D0FEF70BFE33683C
:101A8000019A1C121340814A9B009B582F00043678
:101A9000FEF72FFEA4003D1B280001F03FFD7C4B0C
:101AA00028601B780435002B01D0FEF7F3FD336866
:101AB000019A1C121340754A9B009B582F00043654
:101AC000FEF717FEA4003D1B280001F059FD704BE6
:101AD0001B78002B01D0FEF7DDFD3368019A1C1244
:101AE00013406A4A9B009B582F000436FEF701FE04
:101AF0000121200001F02CFD654B1B78002B02D04A
:101B00003D00FEF7C7FD3368019A1C1213405F4A7F
:101B10009B009B580436FEF7ECFD0021200001F0ED
:101B200017FD5B4B1B78002B02D03D00FEF7B2FD8A
:101B30003368019A1C121340544A9B009B58043688
:101B4000FEF7D7FDA4003D1B280001F037FD504BE8
:101B500028601B780435002B01D0FEF79BFD33680D
:101B6000019A1C121340494A9B009B582F000436CF
:101B7000FEF7BFFDA4003D1B280001F033FD444BE0
:101B800028601B780435002B01D0FEF783FD3368F5
:101B9000019A1C1213403D4A9B009B582F000436AB
:101BA000FEF7A7FDA4003D1B280001F0F5FC384B13
:101BB0001B78002B01D0FEF76DFD3368019A1C12D3
:101BC0001340324A9B009B582F000436FEF791FDCC
:101BD000A4003D1B280002F0FFF92D4B1B78002BC1
:101BE00001D0FEF757FD3368019A1C121340274AB3
:101BF0009B009B582F000436FEF77BFDA4003D1B85
:101C0000280002F093FA224B28601B780435002B41
:101C100001D0FEF73FFD3368019A1C1213401B4AA6
:101C20009B009B582F000436FEF763FDA4003D1B6C
:101C3000280002F0A1F9164B1B78002B01D0FEF70B
:101C400029FD3368019A1C121340104A9B009B58CF
:101C50002F000436FEF74DFDA4003D1B280002F0C6
:101C6000A1F90B4B28601B780435002B01D0FEF73F
:101C700011FD3368019A1C121340044A9B009B58C3
:101C80002F000436FEF735FDFEFFFF7F949600001F
:101C9000480200205002002054020020A4003D1BF6
:101CA000280001F08FFFAA4B1B78002B01D0FEF714
:101CB000F1FC3368019A1C121340A64A9B009B5802
:101CC0002F000436FEF715FDA4003D1B280001F08F
:101CD0008FFF9F4B1B78002B01D0FEF7DBFC336896
:101CE000019A1C1213409B4A9B009B582F000436FC
:101CF000FEF7FFFCA4003D1B280001F089FF944B78
:101D00001B78002B01D0FEF7C5FC3368019A1C122A
:101D10001340904A9B009B582F000436FEF7E9FCC5
:101D2000A4003D1B280001F09BFF894B1B78002B72
:101D300001D0FEF7AFFC3368019A1C121340854AAC
:101D40009B009B582F000436FEF7D3FCA300FD1A1E
:101D500029002000049302F02AFA049B2860FD1A4F
:101D60007B4B04351B78002B01D0FEF793FC3368C6
:101D7000019A1C121340774A9B009B582F0004368F
:101D8000FEF7B7FCA300FD1A29002000049302F01F
:101D900026FA049B2860FD1A6D4B04351B78002B36
:101DA00001D0FEF777FC3368019A1C121340694A90
:101DB0009B009B582F000436FEF79BFCA300FD1AE6
:101DC00029002000049302F0CCF9049B2860FD1A3E
:101DD0005F4B04351B78002B01D0FEF75BFC3368AA
:101DE000019A1C1213405B4A9B009B582F0004363B
:101DF000FEF77FFCA300FD1A29002000049302F0E7
:101E0000C9F9049B2860FD1A514B04351B78002B3F
:101E100001D0FEF73FFC3368019A1C1213404D4A73
:101E20009B009B582F000436FEF763FCA4003D1B6B
:101E3000280001F03DFF464B1B78002B01D0FEF738
:101E400029FC3368019A1C121340424A9B009B589C
:101E50002F000436FEF74DFCA5007D1B2900200055
:101E600001F0DCFF3A4B1B78002B01D0FEF712FC8F
:101E70003368019A1C121340364A9B009B582F006E
:101E80000436FEF736FCA4003D1B280001F092FF4B
:101E90002F4B28601B780435002B01D0FEF7FAFB8E
:101EA0003368019A1C1213402A4A9B009B582F004A
:101EB0000436FEF71EFCA5007D1B2900200001F062
:101EC00057FF234B1B78002B01D0FEF7E3FB336851
:101ED000019A1C1213401F4A9B009B582F00043686
:101EE000FEF707FCA5007D1B2900200000F064FD23
:101EF000174B1B78002B01D0FEF7CCFB3368019AFF
:101F00001C121340134A9B009B582F000436FEF707
:101F1000F0FBA300FD1A29002000049300F04CFD03
:101F2000049B2860FD1A0A4B04351B78002B01D056
:101F3000FEF7B0FB3368019A1C121340054A9B0060
:101F40009B582F000436FEF7D4FB09B0F0BDC04605
:101F500048020020949600000023F7B55A1E019213
:101F6000002B07DA01F0DAFC00F094FF01F046F8EC
:101F70006423019300263000194B19688E4201DB5F
:101F8000019BEBE7174B1A680132914200DC0022FB
:101F9000F0241A601D68144F6C43E35D002B1DD0C4
:101FA000E419022B16D0012B0ED1002801D101F02B
:101FB00033FAF0226A430C4B0C499B185B68C31A36
:101FC0008B4201D80223BB54F0235D43064BEB5CEC
:101FD000022B03D12000FEF735FBD1E70136CBE71A
:101FE0004C020020000000205C1100209F860100B0
:101FF000054B01211A68054B1A600023044AD15091
:102000000433642BFBD17047A00500209805002005
:10201000B422002000B59BB00200054901A806F0DB
:1020200089FC01A800F07CFE00F0E8FFFCE7C04658
:10203000D498000037B5174D04002868002801D057
:1020400006F06CF8A400200006F05EF82860002876
:1020500001D1114809E001AB984208D20F4B021997
:102060006B440193934202D20D48FFF7D3FF04283B
:1020700002D808302860083C2B680A4A1C191360F3
:10208000094B01211C600023084AD1500433642B02
:10209000FBD137BDA0050020E59800001CFCFFFF28
:1020A00015990000980500209C050020B42200200E
:1020B00070B50D4D0D4E2B684C1CA40036681C19D4
:1020C000B44203D90A20FEF79FFA0BE02C601D00F2
:1020D000AC4201D904C5FBE70F22090110400843B7
:1020E0001860180070BDC046980500209C050020AF
:1020F0000322CB1C70B50C00D9171140C91805007C
:10210000891000220420FFF7D3FF0023A34204DA42
:10211000E95CC21811710133F8E7E1430023C917E4
:10212000214041180B7170BD10B5830706D10428FA
:1021300004D90F2304C81340042B03D00E20FEF74C
:1021400063FA014810BDC046259A000070B501240D
:102150000B680D001C4001D05C1002E00D20FEF762
:1021600053FA200004F02AFC264904F013FB05F082
:10217000EDFE02F001FB0022234B05F0A1F8002345
:10218000002204F0D1FA01242B681C40002819D049
:10219000002C01D05C1002E00D20FEF735FA200083
:1021A00004F00CFC174904F0F5FA05F0CFFE02F03C
:1021B000E3FA0022144B05F083F80022134B04F0DD
:1021C00045FC18E0002C01D05C1002E00D20FEF769
:1021D0001BFA200004F0F2FB0A4904F0DBFA05F0D8
:1021E000B5FE02F0C9FA0022074B05F069F800229B
:1021F000064B05F0DFFA05F031FE012340001843DD
:1022000070BDC046D30237390000D0400000E03F27
:1022100010B5034A0121034800F0BAFB10BDC046C7
:10222000040000208099000030B502248025094B6D
:10223000094AED009C505C59002CFCD0A124E4001C
:10224000884204D28025ED0018514019F8E700219A
:10225000995030BD00E001400405000010B5002891
:1022600004D1E0209C210002890203E09C2080210F
:102270008002C902FFF7D8FF10BD002802D09C23BE
:102280009B0201E0E0231B021B6800201A0E532A68
:1022900001D11B02180A704730B501248025064A77
:1022A000064BED00D4505459002CFCD001600021A5
:1022B000014AD15030BDC04600E001400405000095
:1022C00010B5002802D09C20800201E0E02000022E
:1022D000A6230902DB05090A1943FFF7DDFF10BD3C
:1022E000F0B50124802503000F4F08000F49ED00D1
:1022F0007C507C59002CFCD09C46002810DD547882
:1023000016789378240234431B0423431C00D378AB
:1023100001381B062343644608C40432A446ECE794
:1023200000237B50F0BDC04600E0014004050000E2
:1023300070B505004B680A009C1C2100FFF7D0FF18
:10234000A000281870BD0000154B1B68002B04D09E
:1023500080219C23C9029B0203E09C21E023890287
:102360001B02002807D1191D5B6802001B0E522BAF
:1023700014D10A0012E0002281420FD903681B0E1B
:10238000522B0BD1436802339B00C318994205D9E5
:102390001A68110E0022522900D11A00100070474D
:1023A000A40700208022F0B5520085B000216248C9
:1023B00005F0C7FE802200215200604805F0C1FEF2
:1023C0005F4B1B681A00029353425A41100003925C
:1023D000FFF744FF029B002B01D15A4C00E05A4CFE
:1023E0000020FFF7B1FFFF270500002D00D194E08A
:1023F0002B681A121B143A403B4001921A000A3A09
:10240000092A43D84C4B019A995C002900D07FE0FF
:1024100010224E4805F095FE2E00336801991A12DD
:102420003A40914217D11A143A400B2A06D0132A87
:102430000CD00A2A0FD1454B1E600CE03B40022B0A
:1024400009DC424A9B00D3185E6004E010220021A0
:102450003E4805F076FE3000FFF776FF061EDCD121
:102460003A4B196800290FD02000FFF761FF0400E4
:10247000374E3168002903D02000FFF759FF0400D0
:10248000344B0436B342F4D12B4B3EE0143B092BC2
:102490003ED82A4B019A995C002939D108222E484E
:1024A00005F04FFE2E0033681A143A40152A0BD05F
:1024B0001D2A11D0142A14D1019A1B123B409A42B2
:1024C0000FD1254B1E600CE0019A1B123B409A4233
:1024D00007D1214B5E6004E0082200211E4805F070
:1024E00030FE3000FFF730FF061EDCD11A4E316897
:1024F000002909D02000FFF71BFF716804000029A4
:1025000002D0FFF715FF04000C4B0121019A9954EA
:102510002800FFF719FF050067E70298FFF7ADFEF7
:10252000411C0398FFF7CCFE054B039A1A600B4B36
:102530001C6005B0F0BDC046A4060020A405002024
:10254000A40700200470020004E00000182300200B
:102550001C2300202823002028230020A807002077
:1025600070B50020FFF789FE04000120FFF785FE0B
:10257000844200DA04000A4B1E6875427541280047
:102580001D60FFF76BFE002E01D0064B00E0064BEE
:10259000064A2800611C1360FFF792FE70BDC0461A
:1025A000A407002004E0000004700200A807002037
:1025B000F8B50020FFF761FE07000120FFF75DFE80
:1025C0003E00224D0643224C0CD18021E020C9025E
:1025D0000002FFF729FE01213000FFF771FE2E6097
:1025E0001C4B2FE0874208DD00239C212B60194BF8
:1025F000890223602368002011E0012380212B60E1
:10260000154BC9022360F5E71A68551C18D0120E45
:10261000522A07D101205A68023292009B188B423D
:10262000F2D311E0002800D023600C4C0C492000AC
:1026300006F0ACF9200000F001FFFFF791FF04E085
:10264000002802D0236000E02160F8BDA40700202C
:10265000A807002004E00000047002006C230020A2
:1026600096990000F0B585B0039203220333DC177E
:1026700014402A4EE3189C10336801900291002BFD
:1026800002D08022D20201E09C229202244FA51C9B
:102690003B68AD005B199A4217D2FFF783FE33689F
:1026A000002B02D08022D20201E09C2292023B68E1
:1026B0005B199A4209D21B4C1B49200006F066F9AF
:1026C000200000F0BBFE002026E0029B3E681B06B7
:1026D000190C6B461A7BA423DB051343019A0B43A9
:1026E0001104FF221204114019433000FFF7D4FDFA
:1026F0003300301D0833210001933B60FFF7CCFD10
:10270000002C04D00A9A21000198FFF7E9FD30005F
:10271000019B083D5D193D6005B0F0BDA407002098
:10272000A80700206C230020BF99000070B59AB064
:10273000FFF73EFFFF221F4CD2000021200005F0D2
:1027400000FD0020FFF700FEFF25002600281AD01C
:1027500003681A142A400A2A08D11A122A40FF2AAA
:102760000ED0D200A1180B71A05009E0132A07D196
:102770001B122B40FF2B03D0DB00E2181671E65032
:10278000FFF7E2FDE2E7FF210200C900235808300D
:102790005D1EAB41D2188842F8D1074901A806F066
:1027A000C9F801A800F0BCFA044800F0B9FA1AB060
:1027B00070BDC046BC1A0020E6990000FE990000DA
:1027C00000207047012070470048704754230020C4
:1027D0000048704733F8FFFF10B50449044806F07D
:1027E000D5F824230348036010BDC046B99A000001
:1027F0003423002030230020002070470020704741
:10280000002070470020704700207047002070476C
:1028100000207047002070470020704710B5034A21
:102820000E21034800F0B4F810BDC0460C00002093
:10283000BE9A0000044A05491368C85401339B0539
:102840009B0D13607047C046B00B0020AC07002002
:10285000114A70B51368114C984211DA015D451C9C
:10286000FA39012906D8AB4206DD21184978013929
:102870001F2901D92800EFE70100251A461C02D1C3
:102880000023136006E0665C6E5401318B42FADC73
:10289000181A106070BDC046B40B0020BC0B00209D
:1028A00010B500F0B9FD064B1A68904201D2002223
:1028B0001A601B68C01A034B83428041404210BD1E
:1028C000B80B0020204E000010B5094C094A2368BF
:1028D000126893420BD0084AD05C00F0D9FE002861
:1028E00005D0236801339B059B0D2360EDE710BDE8
:1028F000BC0F0020B00B0020AC07002010B5040076
:10290000064B074A1B6812689B1ADB439B059B0D0D
:10291000A34202DAFFF7D8FFF2E710BDB00B0020A8
:10292000BC0F0020F7B506000191151E2FD0576887
:10293000B800441C0630FFF7E1FFFB20FFF77AFFE9
:102940001C20FFF777FFF0B2FFF774FFE0B224120C
:10295000FFF770FFE0B2FFF76DFF6B461879FFF7E6
:1029600069FF0026BE4212DAB300EB189C680136FC
:10297000E0B2FFF75FFF2012C0B2FFF75BFF201449
:10298000C0B2FFF757FF200EFFF754FFEAE7F7BD8D
:1029900070B5074D2C68092C08DC0C236343054EE9
:1029A00001349851F31859609A602C6070BDC0468C
:1029B000C00F0020D0230020F0B589B004900E0095
:1029C00001284BDD284B08680293830709D10428AE
:1029D00007D90F2302681340042B02D1FFF7A4FB91
:1029E0000290214B70680393830709D1042807D90B
:1029F0000F2302681340042B02D1FFF795FB0390CD
:102A000000271A4B1A4D1B680593059B9F4225DA38
:102A10002B1F0299186805F0AFFF00281BD12B6807
:102A20006C6806930190019B069A934213DA206822
:102A30000399079405F0A0FF0834002807D131005E
:102A40000498079B08315B680238984709E0019BAE
:102A500001330193E7E701370C35D6E71B20FDF77B
:102A6000D3FD09B0F0BDC046259A0000C00F00207C
:102A7000D423002010B501F045FA00F0C9FDFFF79E
:102A8000C7FB00F033FEFFF7C9FE01F099FA01F031
:102A900015FC10BD962210B512010021034805F067
:102AA00050FB0022024B1A6010BDC0465C11002092
:102AB0004C020020064B074A1B6812689B1ADB4336
:102AC0009B059B0D0122834200DC00221000704711
:102AD000B00B0020BC0F0020F8B505000C0016005C
:102AE0001F1E0ED10320FFF7E5FF002827D0FA2094
:102AF000FFF7A0FEE8B2FFF79DFEE0B2FFF79AFEF7
:102B00001DE0501DFFF7D6FF002818D0FB20FFF76F
:102B100091FEE8B2FFF78EFEE0B2FFF78BFEF0B257
:102B2000FFF788FE3012C0B2FFF784FE3C00E31BC3
:102B30009E4204DD2078FFF77DFE0134F7E7F8BD03
:102B400070B50024F0250B4B1B689C420EDA2A005E
:102B50006243094BD3181A78002A05D0597800230C
:102B600011201A00FFF7B8FF0134ECE7FFF792FFDE
:102B700070BDC0464C0200205C1100200123F3B55B
:102B80000400FFB00D0010001A420DD002AA13700D
:102B9000431002A9537042121B0E40148A700B712D
:102BA000C8700B00052273E0032313401ED1042AD2
:102BB0001CD90F2201680A40042A17D1023302AA45
:102BC0001370FFF7B1FA060005F0E8FEF823FF33B3
:102BD000984200DD18000023834205DA01335A1EB3
:102BE000B25C02A9CA54F7E7421C50E0042801D0A5
:102BF000002809D1032302AA043813704342434139
:102C000053701300022243E0002B45D1042843D91E
:102C10000F2102681140052912D1043302A90B705B
:102C2000F8231209FF3392009A4200DD1A000023B4
:102C300093422BDA0133C118C97802AEF154F7E799
:102C4000062929D101390E00120956430196F826AA
:102C5000019FFF36B7421FDC02AE3170013693424E
:102C600013DA0127013399004158394201D0394123
:102C700000E00A49012737700F127170B7700F1406
:102C8000090EF77031710536E9E7019A013202AB9E
:102C900029002000FFF720FF7FB0F3BD19FCFFFFE4
:102CA00070B5F023050000240D4A18006043801819
:102CB0004178A94203D001340A2CF6D10FE0F0226A
:102CC000002105F03EFA074A1368013BA34200D1F8
:102CD0001460002329001A001120FFF7FDFE70BDCB
:102CE0005C1100204C02002010B5B2B002236A46ED
:102CF0000400137005F052FEC72800DDC720002332
:102D0000834205DA694601335A1EA25CCA54F7E7CA
:102D1000421C6B46FE211420FFF7DEFE32B010BDD0
:102D200010B5B2B002236A460400137005F036FEF7
:102D3000C72800DDC7200023834205DA6946013336
:102D40005A1EA25CCA54F7E7421C6B46FF211420AE
:102D5000FFF7C2FE32B010BDF7B5234B06001B686B
:102D6000F020009300232149009A93420ADA0200DE
:102D70005A438A185478B44202D11278002A31D1C9
:102D80000133F1E70024F0231A0062430192019914
:102D9000164A55182F78002F06D001340A2CF3D18B
:102DA0001348FFF7BDFF1DE0F0223900280005F0B1
:102DB000C8F902230D4A0199EB6053540D4AF10002
:102DC0008A58009B6E70AE70AA602F616F61A3423B
:102DD00002DC054B01341C60002331001A00102076
:102DE000FFF77AFEF7BDC0464C0200205C110020C0
:102DF000799B0000BC1A002010B5FFF7A1FE00244B
:102E0000064BE200D3181B79043B012B02D8E0B239
:102E1000FFF7A2FF0134FF2CF2D110BDBC1A002035
:102E2000F7B50E0000247F250190194BE200D11860
:102E30000979062901D0032926D1985883682B40A7
:102E40001C2B21D1C3681A002A40042A1CD1026914
:102E50002A40192A18D11B0A01339B000C30C018D4
:102E6000FFF762F9070005F099FD0023B0420BD18E
:102E70009E4206DD019AF95CD25C914204D1013395
:102E8000F6E7E0B2FFF768FF0134FF2CCDD1F7BDC4
:102E9000BC1A002070B500F0BFFA184B1A689042B7
:102EA00001D200221A601A681549821A8A4223D96F
:102EB0001860002000F082FB444244416042072435
:102EC0000443002000F08EFB002810D008260025C7
:102ED0000C4BEA00D3181B799C4201D0B34202D1BB
:102EE000E8B2FFF739FF0135FF2DF1D104E0631C93
:102EF00002D001267642EAE770BDC046AC0B002046
:102F00000F270000BC1A002037B500240500FFF78A
:102F100017FE01A8019400F03FFB200000F068FEBE
:102F200000F0FCFC00F072FB00F071FB00F038FFD9
:102F300000F09EFA0548FFF7F3FEA54204D0FFF724
:102F400057F80348FFF7ECFE37BDC0468E9B0000E4
:102F5000A69B0000002310B501001A001120FFF706
:102F6000BBFD10BD07B56B46197069465A70131248
:102F70008B701314120ECB700A716B460100052280
:102F80001320FFF7A9FD07BD10B50A0001001220AC
:102F9000FFF7F4FD10BD70B5050008000C003230DD
:102FA000FFF7ACFC2B00220000211B20FFF794FD53
:102FB00070BD10B50C000300110014202200FFF7B3
:102FC0008BFD10BD70B506000020FFF7BDF9002491
:102FD000FF25002810D003681A142A40152A05D1AD
:102FE0001B122B40B34204D1040002E01D2A00D181
:102FF0000024FFF7A9F9ECE7200070BDF0B58027A9
:103000009DB0FFF761FCB94DB94C2868FF00391A33
:10301000201800F023FB2B680600C3182B60002B40
:1030200000D1DBE1002E0DDD2868391A201800F0F0
:1030300015FB2B6806001B182B6000F0EDF9AD4B5B
:103040001860EFE72378FA2B00D00CE12B68022BF5
:1030500006DCFFF725FC002800D1BFE10120B8E124
:103060006078A5780238182800D9FAE003F09AF9B8
:103070000D1E22262932F93D676F7589DAEFF9F9BD
:10308000F9F9F9F9F9F9F9F9F300FF2D00D1E8E0C0
:103090002800FFF705FE00229749EB005A50CB1895
:1030A0001A7129000092130013204DE02800FFF749
:1030B00053FED6E02800FFF7F3FDD2E0FFF79CFEB9
:1030C000CFE0FFF73DFD0020FFF71EFF8B48FFF725
:1030D00027FEC6E0182D00D9C3E0894BAA00D258BC
:1030E00029001520FFF74AFDBBE000242000FFF770
:1030F00069FF071E03D10134192CF7D1B1E0083064
:1031000005F04CFC06000530FFF7F8FBFB20FFF74D
:1031100091FB1D20FFF78EFBE0B2FFF78BFBF0B2B7
:10312000FFF788FB3012C0B2FFF784FB0025AE42E8
:10313000E1DD7B19187AFFF77DFB0135F7E7002108
:103140001D200B000A000091FFF78CFA89E0002295
:103150002900009213002720F6E700F077F903AC6E
:10316000684A64210090684B200005F0B1FB0223FF
:103170002000237005F012FC23000200002116201D
:103180006DE000245C4AE300D558002D46D06B6802
:103190009E00701DFFF7B2FB2B00002532000833A4
:1031A00021000120FFF798FC0020FFF7CDF82E004A
:1031B0002F0000281DD0FF2103681A120A40A242E6
:1031C00014D11A140A400B2A07D10B400DD0012B41
:1031D00009D0022B00D1FFE008E0132A06D1002518
:1031E0002E002F0002E0060000E00700FFF7ACF819
:1031F000DFE7002E04D0320001212000FFF792FB10
:10320000002D04D02A0002212000FFF78BFB002FA5
:1032100004D03A0000212000FFF784FB0134FF2C8A
:10322000B0D11EE0FFF78CFC00250024290000949B
:103230002300220013200135FFF714FAFF2DF4D1EB
:10324000FF222100D2002C4804F07BFF09E001207E
:10325000FFF75AFE05E0002329001A001A20FFF7A5
:103260003BFC0320B5E0FB2B00D0F7E62A68042ADC
:1032700000DCEEE62679E078244B360206439E42D7
:1032800000DDEBE6331D9A4200DCE2E6E35CFE2B58
:1032900000D0E3E66078A578731E1C2868D007D8B4
:1032A000082835D01B285ED0012800D090E007E028
:1032B0001E2800D17EE066D31F2800D180E087E081
:1032C000FF2D00D184E02800FFF7EAFC677906347F
:1032D000B31E290000943A000A20FFF7C3F9064BF9
:1032E000ED00E8505D192F7172E0C046B40B00206C
:1032F000BC0B0020B80B0020BC1A0020B69B0000BD
:10330000B4220020CD9B0000C89B0000F603000003
:10331000182D5DD86079022813D003281BD001280E
:1033200056D1A71D7A78A479BB78120222431B04D8
:1033300013431A00FB78AD001B0613435B000343E5
:103340000EE0002B44DDB11EA01DFEF7D1FE244B84
:10335000AD00E8503CE0A379AD005A1E93419B00BC
:103360001F4AAB5034E0601D1900FFF759FD2FE0F4
:10337000FF2D2DD06279022A2AD80634B31E00947C
:1033800029000B2022E0632B00DD6323002203A829
:10339000934204DDA118497981540132F7E7D943FA
:1033A0000022C917194041180A7001330090290002
:1033B00015200BE005340094002229001E2005E0B2
:1033C000042B05D10022290005340094FFF74AF9A7
:1033D000701DFFF73DFA01E0050007E71DB0F0BDE5
:1033E000B422002000207047002070470020704762
:1033F0000020704701220020054B06491A615850F1
:103400000330043158508018083158501A60704702
:1034100000800040040500000122034B1A64A8222A
:10342000D20098587047C0460080004010B5FFF7A2
:10343000F3FFFA21890002F0BFFF10BD10B50100B3
:10344000014802F063FD10BDE810002000487047FD
:10345000DC9B000070B5054E0400335C0D008B4210
:1034600002D002F07BFC355570BDC046C40F002071
:1034700070B50024064D635D012B05D100212000AD
:1034800002F06CFC0023635501341A2CF2D170BD9C
:10349000C40F00200D20704735207047036870B5B9
:1034A0005B100120052B12D8094A9B009C58094D3E
:1034B0002B5D002B05D00021200002F04FFC0023E3
:1034C0002B55200002F0F4FA01234000184370BD90
:1034D000089C0000C40F002070B5036845685C10AC
:1034E0006D1004D40B4B9D4202DD1D0000E0002551
:1034F000192C0DD8084E335D012B05D00121200079
:1035000002F02CFC012333552900200002F05EFB61
:1035100070BDC046FF030000C40F002070B50468F2
:103520006410192C0FD8094D2B5D002B05D00021FC
:10353000200002F013FC00232B55200002F042FC77
:103540000423012800D00023180070BDC40F002000
:1035500070B504000D0019280ED8084E335C012BFD
:1035600004D0012102F0FAFB012333552900200089
:103570004D1EA94102F010FC70BDC046C40F0020D2
:10358000436810B5191F4A424A41006811004010B3
:10359000FFF7DEFF10BD000037B569460200064B9D
:1035A000684630CB30C11368042B02D100F030FBE9
:1035B00001E000F055FB37BDD49B000010B5084C6E
:1035C000237D002B05D00021142002F0C7FB00232F
:1035D0002375142002F0F6FB43425841800010BDD1
:1035E000C40F002010B5084CA37D002B05D000218E
:1035F000162002F0B3FB0023A375162002F0E2FBB5
:1036000043425841800010BDC40F002070477047EE
:1036100010B5034A04210348FFF7BAF910BDC046AC
:103620007C000020CE9A0000E12110B54902094833
:1036300002F0B3FCFFF7DEFE0A2002F033FA0023AB
:10364000FF21054A995401331A2BFBD100F0A8FB46
:1036500010BDC046E8100020C40F0020F8B50B4E86
:10366000070030000D0002F0D7FC041EAC4200DD64
:103670002C003D00EB1B9C4205DD300002F0D6FC27
:1036800028700135F6E72000F8BDC046E81000209C
:1036900010B50100014802F087FC10BDE8100020C1
:1036A0000020704710B51E20FCF7AEFF10BD10B50E
:1036B0001E20FCF7A9FF10BD10B51E20FCF7A4FFCB
:1036C000002010BD10B51E20FCF79EFF10BD10B5E8
:1036D0001E20FCF799FF10BD10B51E20FCF794FFCB
:1036E00010BD10B51E20FCF78FFF10BD10B5034AAA
:1036F00008210348FFF74CF910BDC0469C0000208C
:10370000209C00000123034A1360034A106898407C
:1037100018437047E80F0020F00F00201E2800D942
:103720001A20084B8000C25801239340064A0749DB
:103730001360074A1160074A07491160074A13607E
:103740007047C046F8A00000E40F002008050050B4
:1037500000100020F80F00200C0500501805005044
:10376000F0B5EFF310810123194083F31088134E55
:10377000134AB4461268013A9340124A1468124A36
:103780001568124A002B15D0166803420BD026602C
:10379000C046C046C046C046C046C046C046C046F9
:1037A00016682E6004E067463E601668084F3E606B
:1037B0005B08E7E781F31088F0BDC04608050050BC
:1037C000E400002000100020F80F0020E40F00208B
:1037D0000C05005030B585B001AD0C22064928001B
:1037E00004F0A6FC0024285D01210134FFF732FE1D
:1037F0000C2CF8D105B030BD969C0000F0B53B4CC8
:1038000085B0210003220C31684604F091FC2100B0
:1038100009220F3101A804F08BFCFFF707FE344B9F
:10382000344CC0182368984201D2002323602568D5
:10383000002D3ED12E006B4604339F5D01213800E0
:10384000FFF708FE01360121380002F0A5FA092E23
:10385000F1D100266B469F5D01213800FFF7FAFD8C
:1038600001360021380002F097FA032EF2D1C82069
:1038700080000138C046C046C046C046C046C0466B
:10388000C046C046C046C046C046C046F1D1002131
:103890000520FFF7DFFD00266B460021985D01360D
:1038A000FFF7D8FD032EF7D1FFF7C0FD13302060DE
:1038B00019E0FFF7BBFD23680025984213D30520CC
:1038C00002F0F6F80C4B0D4EC01801D4306000E049
:1038D00035603068032102F0F9FD00230125084A14
:1038E000306023601360280005B0F0BD969C000096
:1038F00010270000E00F0020C8FEFFFFF00F00209F
:10390000E80F002010B50124044001D0441002E06B
:103910000D20FCF779FE200010BD00007FB5A44EFD
:103920003368002B0BD1A34A1268002A07D1A24B9F
:103930001B68002B00D139E1FFF760FF36E19F4D96
:103940002A68002A2AD19C4A1268002A07D0FFF769
:1039500055FF002800D129E1FFF73CFF05E0954A1B
:103960001268002A01D1002BF6D1924B19681A0077
:10397000002911D03468002C0ED101AD0C229049E1
:1039800028001C6004F0D4FB285D00210134FFF7FF
:1039900061FD0C2CF8D109E13368136000210D2082
:1039A00002F0FAF900210E2002F0F6F900210F20B2
:1039B00002F0F2F92E68012E56D0022E00D19CE0C2
:1039C000002E00D0ECE0013631007A4C0420236850
:1039D000994302F0E1F90421236805200B40594284
:1039E000594102F0D9F91021236806200B405942B1
:1039F000594102F0D1F98021236809010B40594255
:103A000059410C2002F0C8F98021236809020B40BB
:103A1000594259410B2002F0BFF980212368490225
:103A20000B40594259410A2002F0B6F9802123681F
:103A300089020B4059425941092002F0ADF9802119
:103A40002368C9020B4059425941082002F0A4F9E9
:103A5000802321681B030B4059425941072002F083
:103A60009BF931000D2099E00221524C0720236878
:103A70000B405942594102F08FF90820216801405A
:103A80000B005942594102F087F980212368C9008F
:103A90000B4059425941052002F07EF980212368EC
:103AA00049010B4059425941062002F075F9802125
:103AB0002368C9010B4059425941042002F06CF9B6
:103AC0008021236889030B40594259410A2002F0A2
:103AD00063F9802321681B040B4059425941092096
:103AE00002F05AF931000C2002F056F931000B2097
:103AF00002F052F931000E2050E020212D4C072019
:103B000023680B405942594102F046F9402123688D
:103B100008200B405942594102F03EF980212368A8
:103B200009200B405942594102F036F9802123689F
:103B300049000B40594259410A2002F02DF98021D9
:103B4000236889000B40594259410B2002F024F9A7
:103B50008021236889010B40594259410C2002F011
:103B60001BF98021236849030B4059425941062023
:103B700002F012F980212368C9030B4059425941D0
:103B8000042002F009F9802321685B040B405942AC
:103B90005941052002F000F901210F2002F0FCF844
:103BA0002B680321581C02F077FD29607FBDC046B9
:103BB000F40F0020EC0F0020E80F0020FC0F002085
:103BC000969C0000006810B5C30703D5FFF79AFE66
:103BD000054B1860054B1B68002B03D0024B18687F
:103BE00000F06AFB10BDC046F40F00200810002052
:103BF0000022054B10B51A60044B1B68934201D09C
:103C000000F058FB10BDC046F40F00200810002043
:103C100070B505000068FFF775FE04006868FFF7DF
:103C200071FE631E0100042B14D8451E042D11D80B
:103C300005226A43D318012215009D402B00064837
:103C400005682B430360054B1B68002B02D0200046
:103C500000F031FB70BDC046F40F002008100020BA
:103C600070B505000068FFF74DFE04006868FFF7B7
:103C700049FE631E0100042B14D8451E042D11D8E3
:103C800005226A43D31801229A40130006480268AD
:103C90009A43064B02601B68002B03D000222000D1
:103CA00000F009FB70BDC046F40F00200810002092
:103CB0002C4BF7B51B680400002B03D101204042B8
:103CC000FFF72CFD01262468344219D0FF2263102F
:103CD000180212041040FF22611212020A40DBB2E5
:103CE00010431843204B1B68202B06D1B4401F4BB8
:103CF000A40EA400E35800021843FFF731FD30E0A2
:103D0000032525402DD1042C2BD90F2322681340E5
:103D1000062B26D1FF27130901933F04019B9D42E7
:103D20001FDAAB00E3185A68324218D05310180259
:103D30003840FF2184460902501208406146DBB238
:103D400008431843084B1B68202B06D15200920EE3
:103D5000064B9200D35800021843FFF701FD0135CE
:103D6000DCE7F7BDE40F0020E4000020C49C000065
:103D70000B6810B50200D80701D5581001E00120EA
:103D800040421823012A03DD4A68042A00D108337F
:103D9000024A1360FFF7C2FC10BDC046E4000020D9
:103DA000012010B54042FFF7B9FC0020FFF7D8FC16
:103DB00010BD00000068F8B5C30702D5FFF7A2FDEB
:103DC0000BE0830726D1042824D90F2203681A4068
:103DD000042A1FD11B091DD000790300203B5E2B54
:103DE00018D80522002053430B4E9D18043AAB42CD
:103DF0000CD0052110249F5D3C4200D08018013971
:103E0000520064100029F7D10133F0E7012340008C
:103E1000184300E00120F8BDC49D0000F0B5050086
:103E200085B008680C00FFF76DFD0390022D08DDDA
:103E30006068FFF767FD0700A068FFF763FD0400F7
:103E400001E00124270005236343053B029301237E
:103E500026000193231D9E4234DC3D003B1D9D4204
:103E60002BDC731E042B23D86B1E042B20D8029B43
:103E7000039A591E019B49191A40204B0AD001226E
:103E80008A4019680A431A601D4B01221B68002BE7
:103E90000ED009E0012088400100186888431860AE
:103EA000174B1B68002B03D03100280000F003FAE9
:103EB000019B01355B000193D0E7029B013605337E
:103EC0000293C7E73D1D042D15D8012C13D1260000
:103ED0003300AB40094A11689943094B11601B68D4
:103EE000002B04D0781D0022210000F0E4F90134F9
:103EF0000535062CECD105B0F0BDC046F40F00200E
:103F00000810002010B5034A01210348FEF740FDC8
:103F100010BDC046DC000020AE9C000001207047B0
:103F200010B5064C200000F0FFFA0549200000F013
:103F30001FFB0122034B1A6010BDC0462C1000204D
:103F4000801A06000410002010B501210D20FFF793
:103F500081FA01210E20FFF77DFA00210F20FFF7E3
:103F600079FA044C200000F01BFA1021200000F028
:103F700033FA10BD1810002010B504680D20E307B7
:103F800003D56410FF2C03D91720FCF73DFB06E096
:103F9000FFF7DAFFE1B2024800F040FA002010BD5E
:103FA0001810002010B5FFF7CFFF0021034800F0E4
:103FB00035FA01234000184310BDC04618100020F8
:103FC00010B5034A07210348FEF7E2FC10BDC046C6
:103FD000E80000209F9F0000F8B5012306681E42FC
:103FE00005D045681D4202D084681C4201D10D20D5
:103FF00004E076106D10802E03D91520FCF704FB29
:104000001DE01620FF2DF9D864101720FF2CF5D8DD
:104010000B4B1B68002B01D1FFF782FF094FF1B258
:10402000380000F02DFBE9B2380000F03EFAE1B2B2
:10403000380000F03AFA380000F08CFB0020F8BDA0
:10404000041000202C100020F7B501242300A0420A
:1040500037DD0A68144234D01B4B55101B684C687E
:10406000002B01D1FFF75CFF0127184EE9B23000A9
:1040700000F006FB3C4205D03C413000E1B200F0CC
:1040800014FA1AE00325254017D1042C15D90F2363
:1040900022681340062B10D113090193019B9D4206
:1040A0000BDAAB00E3185968394204D04910C9B2A1
:1040B000300000F0FAF90135F0E7300000F04AFB7B
:1040C00000231800FEBDC046041000202C10002064
:1040D000144B70B51B6805000E00002B01D1FFF7D3
:1040E0001FFF114CEDB22900200000F0C9FAF1B217
:1040F000200000F0DAF90021200000F0CDFA0028BD
:1041000001D040420CE001222900200000F0B3FA67
:10411000200000F0C0F90028FAD0200000F0C0F91B
:1041200070BDC046041000202C10002010B50124E2
:104130000368234202D04168214201D10D2004E0EE
:1041400058104910802803D91520FCF75DFA07E0C4
:10415000FF2901D91620F8E7FFF7BAFF40002043F6
:1041600010BD10B507211820FFF7B2FF7F2801DD31
:104170000138FF3803007F3301DA7F204042642397
:104180007F215843494202F0A1F9012340424000F7
:10419000184310BD10B508211820FFF799FFC30F71
:1041A00018180123401015304000184310BD10B5F9
:1041B00005211820FFF78CFF7F2801DD0138FF382B
:1041C00003007F3301DA7F20404264237F2158437C
:1041D000494202F07BF901234000184310BD10B59D
:1041E00003211820FFF774FF7F2801DD0138FF3815
:1041F00003007F3301DA7F20404264237F2158434C
:10420000494202F063F901234000184310BD000049
:10421000F8B501263400B04236DD0F683E4233D097
:104220004D68AB0730D1042D2ED90F232A681340D7
:10423000062B29D1154B1B68002B01D1FFF770FE0F
:104240000024354204D12B681C09202C00D92024DD
:104250000F4E7F10F9B22200300000F00CFAA700D8
:10426000EF19AF420DD0300000F015F90028FAD058
:10427000300000F015F90123400018436860043550
:10428000EFE70120640004432000F8BD0410002083
:104290002C1000200020704700207047002070473D
:1042A00000207047002070470020704700207047B2
:1042B00000207047704770477047000010B5034AF0
:1042C00008210348FEF764FB10BDC0462001002012
:1042D000E09F000010B5FFF7A7F9AF20C000FDF781
:1042E000A9FEFEF7C7FB0448FEF71AFDFEF71EFA0B
:1042F000FEF782FD10BDC0468E9B000010B5FDF795
:104300002BFE10BD70B5002504AC24780573A942BE
:1043100005D10A4B0A4A23210A4803F089FE0160AD
:104320000949920052589B0002715B588371A300A7
:104330005B58856043710223C37170BD63A00000A8
:1043400026A0000071A00000F8A00000037B002B55
:1043500004D1437383730361013303737047000017
:104360001FB50191A02100240068C900D2B24450B9
:10437000012A07D0A24203D0032A05D1042202E079
:10438000022200E006221343034A8350034B019AA2
:10439000C250012343501FBD5405000024050000F6
:1043A00010B50400FFF7D2FFA1222368A179D20043
:1043B00099506179064A2000995021790432995028
:1043C000044B19685A689B68FFF7CAFF10BDC046C6
:1043D0000C0500000C1000204BB2002B0CDB8023DE
:1043E0003F290CD81F290CD80F290CD807290CD825
:1043F00003290CD81B060BE080239B0408E0DB0498
:1044000006E01B0504E05B0502E09B0500E0DB0520
:104410000168014A8B507047240500000368074A71
:1044200099501A00FC32D1680029FCD0A321C900A0
:1044300058580023C0B2D3607047C0461C05000026
:1044400007B58022074BD2051A6000229A6002321B
:104450001A7111230E320093034905330348FFF705
:1044600051FF07BD0C100020003000401810002044
:10447000F8B505000E0017000024BC4208D02B68D8
:10448000315D1B6828009847002801D00134F4E70B
:104490002000F8BD704710B51C3001F063FD10BD61
:1044A00010B51C3001F050FD10BD70B5437E0D00FD
:1044B000002B05D06430040001F063FD002801D01A
:1044C000002004E02000290001F02FFD012070BD34
:1044D00010B51C3001F04CFD10BD0000F7B5019384
:1044E000FA23002504009B0083600D4B45600833D0
:1044F00003601C300F00160001F00CFD200064303A
:1045000001F008FD074AB600B35827616375019BA7
:1045100020009B009B586576A576A375FEBDC0461E
:10452000D8A00000F8A000000123A022C375837D5D
:104530000C49C133FF33D2059B009950437DC133F1
:10454000FF339B009950CC210369074A49049950D5
:104550000521243A9950817D08329950417D034AC2
:10456000995070470C060000240500000C0500005F
:10457000A02302690020DB00D0500948814204D901
:104580000848814204D9CD2103E0CC21490401E04F
:104590008021C904044811500521D1507047C046FC
:1045A000A086010090D0030024050000F7B50500A7
:1045B00000200C00019382425CD0161E402E00D9D0
:1045C00040262F001C37380001F0BAFCB1222B69BD
:1045D000D20080219C50012289005A50A97E0029D6
:1045E00001D11A621A600024731E2A69A34206D1FF
:1045F000019B002B03D0802302219B00D15001237B
:1046000013621300FC33D968002902D1996A00298A
:10461000F9D0996A00290AD1D960A323DB00D158C7
:104620003800C9B2013401F080FCA642DCD8019AFE
:104630002B69002A04D11A00FC32916A00290AD0A1
:1046400001210022AA7659611900FC3188680028EE
:10465000FCD08A6007E00121A976D961D16C0029DC
:10466000FCD00021D164FC339A6A002A01D00022D8
:104670009A62E0B2FEBD10B50123FFF797FF10BDAF
:104680000300AC3310B504001970643001F058FC1D
:104690000123637610BD0000F8B500220D00010073
:1046A0004276AC31036904000878B121C900585042
:1046B000802189005A5001321A629A6026006436BD
:1046C000300001F04FFC00280ED03000276901F0C7
:1046D0003BFC1E4BF8502369FC331A6A002A0CD1AC
:1046E0009A6A002AF9D008E02369002D0AD11A003D
:1046F000FC32916A002905D10EE09A6A002AF3D1B2
:104700001A62DBE701225A611A00FC329168002923
:10471000FCD00021916006E00121D961D16C002913
:10472000FCD00021D1641A000020FC32916A814241
:104730000BD0074990625A5802305A50824204D036
:10474000043A534253410230C01AF8BD1C05000020
:10475000C404000010B50121FFF79EFF10BD00004A
:1047600010B51323122202490248FFF7B7FE10BD0D
:10477000004000402C10002030B5214A4B0087B08B
:104780005B0893421EDD1F4A934205DD02000B00C9
:1047900003F010F807B030BD02AA00F035F803238B
:1047A0001840049A059B01281ED0022811D0002829
:1047B0001FD00298039900F02DFA80231B069C4617
:1047C0006144E7E7002300220093002300F088FF04
:1047D000E0E7012402980399009400F081FF802310
:1047E0001B069C466144D5E70298039900F012FA33
:1047F000D0E7012402980399009400F071FFC9E703
:10480000FB21E93FFFFFEF7FF0B54E465746454697
:10481000E0B4DC4B4E0090B01700894676089E420B
:1048200000DC81E0D84B9E4220DCD84A002900DC25
:1048300089E1D74B02F0BEFFD54B04000D009E422C
:1048400000D18AE0D34AD44B02F0B4FF02000B003F
:1048500020003A607B60290002F0ACFFCD4ACE4BCD
:1048600002F0A8FFB860F960012066E0CB4B9E42E1
:1048700000DC8DE0CA4B9E4265DCCA4932158A468F
:10488000924453461B05F51A2900040003F0E6FA8A
:1048900003F01AFB02000B00200029000A920B9380
:1048A00002F088FF0022C04B02F00AFD0290039143
:1048B00003F0D4FA03F008FB04000D0002000B0023
:1048C000029803990C940D9502F074FF0022B64BE8
:1048D00002F0F6FC002200230E900F9101F000FF81
:1048E000002800D14CE1002300222000290001F023
:1048F000F7FE0222431E9841131AAC4A3900019276
:1049000002220AA80092524600F09EFA4B46002B63
:1049100013DA8022120694467B68404263447B602F
:10492000FB686344FB6008E002000B003A607B60B8
:10493000002200230020BA60FB6010B01CBC90462F
:104940009946A246F0BD02000B0002F033FFB860AA
:10495000F960386079600020EFE7D3228E4B520572
:1049600002F028FF924A934B04000D0002F022FF50
:1049700002000B0020003A607B60290002F01AFF61
:104980008B4A8C4B02F016FFB860F9600120D4E727
:1049900000F056FF884A894B04000D0002F090FC9D
:1049A0000022874B02F052F803F058FA804603F0D9
:1049B0008BFA764A764B0690079102F081FC020052
:1049C0000B002000290002F0F5FE734B02900391CA
:1049D000069807996F4A02F073FC434604000D00E5
:1049E000049405951F2B30DC013B764A9B009B58B5
:1049F0009E422AD002000B000298039902F0DAFED0
:104A000002000B0005000C003A607B6002980399DD
:104A10002A00230002F0CEFE049A059B02F0CAFE93
:104A200006000B003200BA60FB604B464046002B8C
:104A300000DB82E780231B069C46644461443D60A2
:104A40007C60BE60F960404277E7049A059B02985B
:104A5000039902F0AFFE0B0002003A607B604B004E
:104A600036155B0D05000C00F31A102BCEDD0698F1
:104A70000799D322484B520502F022FC04000D0096
:104A800002000B000298039902F094FE02000B0052
:104A9000029803990892099302F08CFE22002B00E1
:104AA00002F088FE04000D0006980799404A414B29
:104AB00002F006FC22002B0002F07CFE02000B003C
:104AC000049005910898099902F074FE02000B0009
:104AD0003A607B604B005B0DF61A0500089A099B53
:104AE0000C0002920393312E90DD06980799B822AC
:104AF000304B920502F0E4FB04000D0002000B00B5
:104B00000298039902F056FE0A0001001300029178
:104B1000039202000898099902F04CFE22002B0033
:104B200002F048FE04000D0006980799264A274B1C
:104B300002F0C6FB22002B0002F03CFE02000B003C
:104B40000492059358E7124B01F080FF104B0400CC
:104B50000D009E423CD00F4A0F4B01F077FF020040
:104B60000B0020003A607B60290002F023FE094A16
:104B7000094B01F06BFFB860F96001204042DCE6B0
:104B80000323BAE6FB21E93F7BD9024000004054F1
:104B9000FB21F93F3163621A61B4D03DFB213941F9
:104BA000FFFFEF7FEAFBFFFF00007041F4A1000070
:104BB0007370032E8A19A33B83C8C96D305FE43F2D
:104BC0000000E03F74A10000C14920259A837B3991
:104BD000D3220D4B520501F039FF0C4A0C4B040057
:104BE0000D0001F033FF02000B0020003A607B60F3
:104BF000290002F0DFFD054A054B01F027FFB860F0
:104C0000F9600120404298E661B4D03D7370032EF4
:104C10008A19A33BF0B54F464646C0B487B0009210
:104C20000193754B4F00814688467F089F4263DCA5
:104C300003F014F9002800D1DAE04A46434648461A
:104C4000414602F03DFB04000D006C4A6C4B02F043
:104C500037FB6C4A6C4B01F0F9FE22002B0002F08E
:104C60002FFB6A4A6A4B02F0A5FD22002B0002F0DE
:104C700027FB684A684B01F0E9FE22002B0002F096
:104C80001FFB664A664B02F095FD22002B0002F0E6
:104C900017FB644A644B01F0D9FE22002B0002F09E
:104CA0000FFB029003910022604B2000290002F0CC
:104CB00007FB029A039B06000F002000290002F068
:104CC000FFFA009A019B04000D004846414602F09D
:104CD000F7FA02000B002000290002F06BFD020031
:104CE0000B003000390002F065FD02000B000020CF
:104CF0004F4902F05FFD70E002000B0002F0E0FAA5
:104D000004000D003D4A3E4B02F0DAFA3D4A3E4BAC
:104D100001F09CFE22002B0002F0D2FA3B4A3C4BF1
:104D200002F048FD22002B0002F0CAFA394A3A4B41
:104D300001F08CFE22002B0002F0C2FA374A384BF9
:104D400002F038FD22002B0002F0BAFA354A364B49
:104D500001F07CFE2B00220002F0B2FA354B0290EB
:104D600003919F429FDD344B00229F423ADC33493E
:104D700000207B182E4916001F0002F01BFD049036
:104D800005910022294B2000290002F099FA3200F7
:104D90003B0002F00FFD029A039B06000F0020006B
:104DA000290002F08DFA009A019B04000D0048468C
:104DB000414602F085FA02000B002000290002F0B3
:104DC000F9FC02000B003000390002F0F3FC020095
:104DD0000B000498059902F0EDFC07B00CBC90465E
:104DE0009946F0BD164B002604920593154FC8E76F
:104DF00000200F49F1E7C046FFFF3F3ED43888BE90
:104E0000E9FAA8BDC4B1B4BD9EEE213EAD529C806E
:104E10004F7E923E9015CB19A001FA3E7751C116F4
:104E20006CC1563F4C5555555555A53F0000E03FC8
:104E30000000F03F3233D33F0000E93F0000E0FFC5
:104E40000000E73F0000D23FF0B556464D464446CD
:104E50005F46F0B48E4CA544099119001400A89A3D
:104E60000B938C4B9200D2580B000290013BE01E3A
:104E700018211D0016000892009301F027FBC34380
:104E80000200DB171A401300110001330E929A0042
:104E90009B1ADB001B1906934C1B761918D4A99B8F
:104EA000A5009C46361926AF6544013607E0286800
:104EB00003F00AF8013403C70435B44208D0002CCB
:104EC000F5DA00200021013403C70435B442F6D1DD
:104ED000089B002B01DA00F0F9FB76AB19008B463A
:104EE00026AA9146089A0A930132D2009344029A64
:104EF0009A469046009BDB00994408339844009BF7
:104F0000002B00DAB5E14C4600260027029D2268FE
:104F1000636803CD02F0D4F902000B0030003900C1
:104F200001F094FD083C06000F004545EFD15346C3
:104F3000C0C39A4608239C46E144DA45DFD108996C
:104F4000554A0B00944663449B0012A884461A00FD
:104F50000298624483460D920B9A0433D200634454
:104F600093440F930591059A0A98D30019000C9366
:104F70008C46030063441E685F68002A34DD12AB70
:104F800099461300454A804694466344DB009844A2
:104F900074AB9A460022424B3000390002F090F97F
:104FA00002F05CFF02F090FF00223E4B04000D0077
:104FB00002F086F902000B003000390002F0FAFB23
:104FC00002F04CFF4B4601C39946434620001A6845
:104FD0005B68290001F03AFD08235B429C46E044EF
:104FE00006000F00D045D5D1069B30001A003900CD
:104FF000994600F0C1FCFF2300229B0504000D0030
:1050000002F05EF900F020FC0022274B02F058F974
:1050100002000B002000290002F0CCFB04000D0070
:1050200002F01CFF804602F04FFF02000B00200040
:10503000290002F0BFFB4C4606000F00002C00DCEC
:10504000F8E0059B18205A1E920012AB9B58001BDB
:1050500019000141884481405B1A12A98B50172224
:10506000121B13410793079B002B4BDD01239C462A
:10507000059BE044002B00DCF2E28025109611979E
:1050800012AB0021002409486D04059F19E0C046B9
:1050900084FDFFFFFCA20000FEFFFF3FFFFFFF1F9C
:1050A0000000703E0000704100002040FFFFFF0044
:1050B000002A02D0AA1A1A600134013104338F4247
:1050C00009DD1A68002CF3D0821A01311A6001241C
:1050D00004338F42F5DC109E119F069B002B0EDDE2
:1050E000012B00D1B1E0022B09D1059B12A95A1E58
:1050F000920012AB9B5810939B029B0A8B50079B0C
:10510000022B7ED0002300223000390001F0E8FAA3
:10511000059B002800D16BE208995A1E914210DCD1
:10512000BF490F988C4612A963448C4600219B000E
:1051300063441C68043B21438342FAD1002900D018
:10514000B5E0089B12AA013B9B00D358002B00D06E
:1051500084E201220D9B043B596801320029FAD0F8
:1051600005990B008C46013362440792934242DC5E
:105170000E9A9446A99A634492460B9A9B009446D1
:1051800026AA90469A44059B0A9A6344DB009844F9
:105190000C9B94469946079BE144DB0063440593CE
:1051A0005346186802F090FE434618605960009B11
:1051B000002B23DB444600260027029D22686368FB
:1051C00003CD02F07DF802000B003000390001F041
:1051D0003DFC083C06000F005D45EFD14B469E604C
:1051E000DF6004239C460433E2449C46059BE14473
:1051F000E0449945D4D1079B0593B4E600260027E7
:10520000ECE732003B000020864902F0D3FA0600AA
:105210000F00002C00D175E7069A0020814900F0AC
:10522000ABFB02000B003000390002F0C3FA0600AD
:105230000F0067E7069B002B12D1059B12AA013BCA
:105240009B00D558EB1507930DE7059B12A95A1E35
:10525000920012AB9B5810935B025B0A8B504EE797
:105260000022714B01F060FA00280ED10023079351
:1052700048E7534600260027C0C39A4608239C46A9
:10528000E144DA4500D03AE659E601239C46013371
:105290000793059BE044002B00DDEEE632003B0067
:1052A0000020604902F086FA06000F002AE7434614
:1052B0000B93069B12A8183B190006939300C35842
:1052C0000092002B0FD156481300844612A8634465
:1052D00084469B006344043B5868013A183900280F
:1052E000F9D000920691069A00204E4900F044FB46
:1052F000009B04000D00002B00DAB3E112AA9446D3
:105300009F00DB0067449C460A9A059362449346DB
:105310001600386802F0D8FD22002B0001F0D0FF03
:10532000424B3060716000222000290001F0C8FF6C
:10533000083E74AB04000D00043FB342E9D10023E2
:105340009A464EAB0293089B99464B46002600278F
:10535000002B21DB8020364B5D469846C005354941
:1053600000260027002408E008239C460835E04476
:10537000A24511DB4346186859682A686B6801F03A
:105380009FFF02000B003000390001F05FFB013489
:1053900006000F00A145E7DA029A53469446DB0067
:1053A00063441E605F6001239C46093BE2449C46C7
:1053B00074ABE3449B45C8D1029B9946A89B022B42
:1053C00000DD82E0002B37DC1DD1059B00254B441E
:1053D0001E000024326873682800210001F036FBAB
:1053E000009B05000C00083E5A1E0092F2D2079B5B
:1053F000002B03D080231B069C4664442A00230014
:1054000009990A604B6007200B9B18409F239B0063
:105410009D443CBC90469946A246AB46F0BDC04672
:10542000FFFFFF3F0000F03F0000E03F0000703E44
:1054300010A30000FB21F93F059B00204B441E00F8
:1054400000214CAF32687368083E01F0FFFABE429B
:10545000F8D1079B002B24D08023099A1B06CB1878
:10546000106053600B0002004E984F9902F0A2F9B1
:10547000009B002B0BDD012450AD0CCD01F0E6FAB2
:10548000009B0134A342F8DA079B002B03D0802352
:105490001B069C4661440B00020009998A60CB60A0
:1054A000B1E702000B00099C226063600B00020060
:1054B0004E984F9902F07EF9009B002BDBDC0B002D
:1054C000020009998A60CB609DE7A89B032B9AD1C3
:1054D000009B002B00DCE3E07E4A059B94464B4496
:1054E0001E685F68009B63449A46DB004B44984605
:1054F0004CAB9B4643465C681B6818002100320099
:105500003B000290039101F0A1FA04000D0002009B
:105510000B000298039902F04DF93B00320001F0B4
:1055200095FA43469860D9601C605D6008235B4231
:105530009C46E04426002F00C345DBD1009B012B95
:1055400000DCADE0059BC8464B441E685F685346CF
:10555000DB009B46D844434630005C681B6839003A
:10556000009301941A00230001F070FA04000D006A
:1055700002000B000098019902F01CF93B00320078
:1055800001F064FA43469860D9601C605D600823AE
:105590005B429C46E04426002F00C145DBD15D46BE
:1055A0000027002408354D4450AE2A686B68380047
:1055B000210001F04BFA083D07000C00AE42F4D187
:1055C000079B002B71D0099A4E994B4611608021A0
:1055D00009068C465B684946634453604B46DB686A
:1055E0008968634464449160D360176154610AE739
:1055F000994643460B93069B30005A42390000F00F
:10560000BBF90022344B04000D0001F08DF8002896
:1056100032D0324B00222000290001F051FE02F06E
:105620001DFC4A460600970002F04EFC00222A4B61
:1056300001F046FE02000B002000290002F0BAF83B
:1056400002F00CFC12AAD0514A46069B01321833D4
:1056500000920693930012AAD65044E601227FE5F9
:1056600000243AE5A89B022B14DC002B0FDC00D0B1
:10567000C9E600250024BAE64B46200029009E001A
:1056800002F0ECFB12AB98514B4600932BE6002046
:105690000021DEE64EAB9946A89B032B00D0B2E674
:1056A000079B00270024002B8DD14E9A4F9B099910
:1056B0000A604B604B469A68DB68009201938A60EF
:1056C000CB603A0023000A614B619CE676AB0A93FB
:1056D00035E4C046FFFFFF1F000070410000703E30
:1056E000F0B54F464646C0B487B000920193464A93
:1056F0004B00814688465B08934205DC02F0AEFB16
:105700004146031E484666D04A46434648464146FF
:1057100001F0D6FD04000D0002000B004846414692
:1057200001F0CEFD394A3A4B06000F002000290057
:1057300001F0C6FD374A384B02F03CF822002B003E
:1057400001F0BEFD354A364B01F080F922002B00F6
:1057500001F0B6FD334A344B02F02CF822002B0046
:1057600001F0AEFD314B324A01F070F90E9B029010
:105770000391002B34D00098019900222D4B01F0A9
:105780009FFD029A039B049005913000390001F0BF
:1057900097FD02000B000498059902F00BF8220017
:1057A0002B0001F08DFD009A019B02F003F8224AC4
:1057B00004000D00214B3000390001F081FD020092
:1057C0000B002000290001F041F902000B004846BF
:1057D000414601F0EFFF07B00CBC90469946F0BD82
:1057E00002000B002000290001F06AFD124A134B51
:1057F00001F0E0FF32003B0001F062FD4A46434603
:1058000001F024F9E7E7C046FFFF3F3E7CD5CF5AC1
:105810003AD9E53DEB9C2B8AE6E55A3E7DFEB15731
:10582000E31DC73ED561C119A0012A3F1111813F77
:10583000A6F810110000E03F495555555555C53F94
:1058400049004B0819007047454AF8B5564692463C
:105850004B005B0D9A444D465F4644465246F0B4B9
:10586000894605000C000E000700132A22DC002ADE
:1058700047DB52463B4B134198460B0042461340D0
:10588000034311D0384A394B01F0E0F800220023DD
:1058900000F040FF002805D0002C41DB4E46434677
:1058A00000279E43380031003CBC90469946A246F2
:1058B000AB46F8BD5246332A08DD8023DB009A450B
:1058C000F2D102000B0001F0C1F8EDE7284A94463E
:1058D000012263445242DA4093460242E4D0224A13
:1058E000224B01F0B3F80022002300F013FF002840
:1058F000D8D0002C1ADB5B464E469F43380031005F
:10590000D2E7194A194B01F0A1F80022002300F058
:1059100001FF0028C6D0002C16DB00270026C1E7B7
:10592000802352465B0313419944B7E75346142B37
:1059300012D03423524601279B1A9F407F19AF4251
:105940009B415B429944D6E76400640825430027E5
:10595000002DA7D0074EA5E7133B9C46E144CAE7BC
:1059600001FCFFFFFFFF0F009C7500883CE4377EC1
:10597000EDFBFFFF0000F0BF4B0070B55B0D1400A6
:105980000A00002B1AD14B005B08034315D00022FC
:10599000224B01F095FC224B0A009C4222DB4B007B
:1059A0005B0D363B1F4DE318AB4220DC002B0DDDB9
:1059B0001D4C1B0522401A43110070BD1B4DAB420C
:1059C000F0D102000B0001F041F8F6E71D0035357B
:1059D00018DA174B02009C420ADC0B0015481649E6
:1059E00000F032F8134A144B01F06AFCE5E70200BC
:1059F0000B001248124900F027F8104A104B01F032
:105A00005FFCDAE7084C363322401B0513431900CC
:105A100000220C4B01F054FCCFE7C046000050437D
:105A2000B03CFFFFFE070000FFFF0F80FF070000F4
:105A300050C3000059F3F8C21F6EA5019C75008881
:105A40003CE4377E0000903C30B54A00DB0FDB07BA
:105A500052081A43110030BD03210A4802680A4364
:105A60000260094802680A4302600849084A094B73
:105A70009B1A03DD043BC858D050FBDC00F0B4F99E
:105A8000FAF778FB2405004054050040E4A5000027
:105A9000000000202C020020FEE7FEE7FEE7FEE704
:105AA000FEE7FEE7014B18607047C0466801002022
:105AB000F7B500231E2877D83C4B8000C258042A33
:105AC00014D006D8022A0DD00ED80423012A14D0EF
:105AD00069E0062A0ED00BD31A2A0DD002231B2A06
