:1000000000400020E15C0000215D0000235D000055
:1000100000000000000000000000000000000000E0
:10002000000000000000000000000000255D00004E
:100030000000000000000000275D0000295D0000B6
:100040002B5D00002B5D0000056100002B5D0000B2
:100050002B5D0000000000002B5D00002B5D000008
:100060002B5D0000DD6300002B5D00002B5D0000B8
:100070002B5D00002B5D00002B5D00002B5D000060
:100080002B5D0000416500002B5D00002B5D000032
:100090002B5D00002B5D00002B5D00002B5D000040
:1000A0002B5D00002B5D0000000000000000000040
:1000B0000000000000000000000000000000000040
:1000C000054B0648033310B51B1A062B03D9044B06
:1000D000002B00D0984710BDA0020020A0020020F5
:1000E000000000000648074910B5091A8910CB0F17
:1000F0005918491003D0044B002B00D0984710BD6D
:10010000A0020020A00200200000000010B5074C53
:100110002378002B09D1FFF7D3FF054B002B02D02A
:10012000044800E000BF0123237010BDA00200209E
:1001300000000000C8A80000094B10B5002B03D038
:100140000849094800E000BF08480368002B02D1B5
:10015000FFF7C8FF10BD064B002BF9D09847F7E713
:1001600000000000A4020020C8A800009C0200209B
:1001700000000000164B002B00D1144B9D4640227E
:1001800092029A1A924600218B460F461348144A4F
:10019000121A08F0B4F80F4B002B00D098470E4B02
:1001A000002B00D098470020002104000D000D48CE
:1001B000002802D00C4800E000BF08F05DF82000E5
:1001C000290005F0B7FF08F031F8C046000008002C
:1001D000004000200000000000000000A0020020FD
:1001E000E42500200000000000000000012303407F
:1001F0000200181E04D1042A03D91068000900E087
:100200000020704710B50400FFF7F0FF0300002046
:1002100083420BD0013B9B00181DE2181279002A83
:1002200003D001338342F8D100E0180010BD012251
:10023000096810B5114201D0002903DA102000F03E
:1002400083F903E04910062002F09CF810BD09680C
:1002500010B5CB0701D5002903DA102000F074F99E
:1002600006E04910033189100022052002F08AF8C7
:1002700010BD70B50D68AB0728D1042D26D90F230A
:100280002A684E681340062B09D12800FFF7AEFFFD
:10029000012383421DDC9A00AE500133F9E7052BA0
:1002A00014D1F30703D4132000F04EF912E07610B6
:1002B000FF2EF8D82800FFF799FF2C1D230080009F
:1002C0002018984205D91E700133FAE70B2000F080
:1002D0003BF9002070BD70B50C681120E3072DD5E7
:1002E0004D68AB0729D1042D27D90F262B68641040
:1002F0001E40062E0BD1002C04DD2800FFF776FFF0
:10030000844201DD122019E0A400605918E0331F77
:10031000012B12D82800FFF769FF8000042E02D1BC
:100320002800FFF76FFF002CECDDA042EADB012381
:100330002C19E0784000184302E00B2000F004F98B
:1003400070BDF8B501230C6811201C422FD0032585
:100350004E6835402AD1042E28D90F233268641004
:100360008F681340062B0BD1002C04DD3000FFF703
:100370003DFF844201DD122019E0A400A75113E0E3
:10038000052B13D1002CF6DD3000FFF72FFF800086
:100390008442F0DC01231F4201D1132007E07F10CB
:1003A000FF2FFAD83419E770280002E00B2000F084
:1003B000CBF8F8BD086810B5830717D1042815D904
:1003C0000F2302681340062B02D1FFF70FFF0BE04B
:1003D000052B05D1FFF70AFFC0000123184308E0F1
:1003E000042B03D1FFF70EFF4000F6E70B2000F0CF
:1003F000ABF810BD012303400200181E01D05010BD
:1004000002E00D22014B1A707047C046BC0200206A
:10041000012303400200181E04D1042A03D91068E6
:10042000000900E00020704770B50D000400FFF7E0
:10043000EFFF86002800FFF7EBFF830000209E42BD
:100440000ED1231D9E1904351A009E4207D9297822
:100450001278013301358A42F6D0002000E00120F5
:1004600070BD0000F0B585B00393019002912D4E50
:100470002D4B002A02D002223270013A00251A6068
:100480001B68F554019B9D424ADA029AAB00D05892
:10049000254B1C68C8239B0037191C1B01231842DD
:1004A00002D04310214A1FE0214A002802D004282C
:1004B00005D1204A2100380008F0E8FA18E00428A5
:1004C00010D90F2302681340042B04D101F096FFCA
:1004D000194A030008E0062B05D1FFF799FF174AD8
:1004E000030001E00123164A2100380008F0CEFA8B
:1004F000300008F031FB039B0B4A002B01D1106048
:100500000CE0019B013B9D42F9DA0E4B9842F6DC70
:10051000431C1360202232540022F2540135B1E70B
:1005200005B0F0BDC8020020C40200207D98000084
:10053000509800005698000049A200005B98000007
:100540006C9800001F030000014B187000207047DA
:10055000BC02002070B501F071FD094C0100251DA1
:100560001F22280008F0FFFA280008F0F5FA0423FB
:1005700004308008000118432060200070BDC04690
:10058000E8050020C368F0B59D00836889B05D1957
:10059000030018330693036903909E00069B9F197E
:1005A00043699E000193069B9E19D54B1B78002B37
:1005B0000FD17F222B68D3491C1213409B005B583C
:1005C00001960435029235E0CD4B1B78002B29D0E3
:1005D000019E039BCA4C9B6821780193EA1A039BF6
:1005E00092109B7812021A43039B587803F02AFB5F
:1005F0000023039A2370137001960497039B069AB5
:100600009B68ED1A0293039BAD10DD60049B9F1A5B
:10061000039BBF101F61019B9B1A039A9B105361A0
:1006200001F086FC2B68029A1C121340B54A9B000D
:100630009B5804359F46039B587803F0FBFA002330
:10064000039A1370D9E7069B3A1DD11AAC4BDB29EC
:1006500003DD1A22019E1A70BBE71B783C60002B59
:1006600002D0019E1700B4E72B6802991C120B40C0
:10067000A4499B005B5817000435DBE7069B3A1D35
:10068000D11A9F4BDB2903DD1A22019E1A70A0E7C5
:1006900028681B78291D3860002B03D0019E1700A5
:1006A0000D0096E76B6802991C120B4095499B0060
:1006B0005B5817000835BDE7069B3A1DD11A904BD1
:1006C000DB2903DD1A22019E1A7082E7A4001B7841
:1006D0002C193C60002B02D0019E170079E72B6893
:1006E00002991C120B4087499B005B581700043588
:1006F000A0E7069B3A1DD11A814BDB2903DD1A22A4
:10070000019E1A7065E78048A40021581B78396063
:10071000002B02D0019E17005BE72B6802991C1288
:100720000B4078499B005B581700043582E7043F73
:10073000754B3A68A400E250714B1B78002B01D036
:10074000019E46E72B68029A1C1213406D4A9B00DB
:100750009B5804356EE76C4BA600F058FFF74AFE35
:10076000043F04003868FFF745FE24180120664B5B
:1007700064000443F450624B1B78002B01D0019EAF
:1007800027E72B68029A1C1213405E4A9B009B5875
:1007900004354FE7069B3A1DD11A594BDB2903DD7F
:1007A0001A22019E1A7014E70198069C0121A042AA
:1007B00002D901000C3909681B783960002B02D07E
:1007C000019E170005E72B6802991C120B404D494A
:1007D0009B005B58170004352CE7069B3A1DD11A85
:1007E000474BDB2903DD1A22019E1A70F1E60199BD
:1007F000069881420AD90B000C3B1B6843495B10E9
:100800006418E41A019BA400E35802E0182119704F
:1008100000233B603A4B1B78002B02D0019E17004F
:10082000D7E62B6802991C120B4036499B005B5897
:1008300017000435FEE6019B069A93420CD90C3B47
:100840001968324B3E1FE3184910591A3268019B50
:100850008900CA50370002E01822294B1A70284B31
:100860001B78002B01D0019EB3E62B68029A1C1264
:100870001340244A9B009B580435DBE6019B069AF3
:10088000934220D9214B3E1FE318019C04930C3C5A
:100890002368049A5B10D31A019A9B009858FFF7BB
:1008A000A9FD07903068FFF7A5FD2468049B64103C
:1008B0001C1B079BA4001F1801207F00019B0743FE
:1008C000E750370002E018220D4B1A700C4B1B78D2
:1008D000002B01D0019E7CE62B68029A1C1213406B
:1008E000084A9B009B580435A4E6069B3A1DD11A82
:1008F000034BDB290CDD1A22019E1A7069E6C04603
:10090000BC0200209098000028230020FDFFFF3F3C
:100910000199A40061581B783960002B02D0019E18
:10092000170056E62B6802991C120B40D0499B0019
:100930005B58170004357DE6043F019B3A68A4002C
:10094000E250CC4B1B78002B01D0019E41E62B6876
:10095000029A1C121340C64A9B009B58043569E654
:10096000019BA4001C192368043F38685E10FFF740
:1009700041FD36180120BF4B76001B7806432660E8
:10098000002B01D0019E24E62B68029A1C12134012
:10099000B74A9B009B5804354CE6069BA4003F1BBE
:1009A000B44CBB420DD82378002B01D0019E10E639
:1009B0002B68029A1C121340AD4A9B009B580435C9
:1009C00038E6AD4801F08EFC2378002B01D0019E63
:1009D000FFE52B68029A1C121340A54A9B009B5806
:1009E000043527E6A300ED18002C00DA05E6A14B3C
:1009F0001B78002B01D0019EEBE52B68029A1C129C
:100A000013409B4A9B009B58043513E63B1F0493FD
:100A10001B680793042B04D1A300ED18002C00DA07
:100A2000ECE5944B1B78002B02D0019E049FD0E58F
:100A30002B68029A1C1213408D4A9B009B58049FFE
:100A40000435F7E53B1F04931B68042B06D0A20076
:100A5000AD18002C02DA002B00D1CFE5854B1B78B6
:100A6000002B02D0019E049FB3E52B68029A1C1252
:100A700013407F4A9B009B58049F0435DAE53A1FD8
:100A800013685B10013B002B07DD01215B00A40014
:100A90000B4304972D191360B0E5764B17001B78B4
:100AA000002B01D0019E94E52B68029A1C12134082
:100AB0006F4A9B009B580435BCE53A00069B0C32FC
:100AC000D31ADB2B04DD1A226A4B019E1A7080E5D3
:100AD000FF2361005B000B4001210B433B60039B44
:100AE00006989B6824120493ED1A039BAD109B7823
:100AF0002D021D43019B8D401B1A9B108B400B4305
:100B0000BB60039B0D437D609C70E4B25B4BE400D3
:100B10000399E35816008B6056490978002903D0E1
:100B200008331D00170054E51D0002999B680C3521
:100B30001C120B404E499B005B580192170079E54F
:100B40003B1F1C68069A019B93422AD104970A20F6
:100B5000E30716D4A3070DD1042C0BD90F23226869
:100B60001340042B06D1200001F048FC07F0F4FFED
:100B7000063006E00720042C03D0002C01D0802092
:100B80008000643002F004FE002801D1043D35E508
:100B9000039B2100587803F067F80023039A137031
:100BA0002CE5019B019A0C3B1B6803995B109B0091
:100BB0005B421E00D3180C3B1C601300083B1B68F3
:100BC000083E97195A108A70D2B22C49D2005B00A5
:100BD00055589B0A039A9B009560ED18019B043BB6
:100BE0001E68069B7610B6009E19224B1B78002BC0
:100BF00000D0EEE42B68029A1C1213401C4A9B00A2
:100C00009B580196043515E53B1F1868FFF7F2FB6A
:100C1000A40006003F1B1E2834DC00280EDC154B08
:100C20001B78002B01D0019ED3E42B68029A1C1282
:100C300013400F4A9B009B580435FBE401F0E4F994
:100C4000033E361801F0E0F90D4B801B9842F9D8AD
:100C5000084B1B78002B01D0019EBAE42B68029A46
:100C60001C121340024A9B009B580435E2E4C04624
:100C700090980000BC02002080980000301B0020EB
:100C80009F8601000123039A137001F0BDF9039BB5
:100C90000A3886195E60B0E43B1F1868FFF7AAFBAC
:100CA000A40004903F1B00280EDCCA4B1B78002BCD
:100CB00001D0019E8DE42B68029A1C121340C64A93
:100CC0009B009B580435B5E4C44B049A019E9A429C
:100CD00003DD1D22BF4B1A707BE40123039A1370BE
:100CE00001F092F9FA23049A9B005343039A0A3BBA
:100CF0001B18536081E4A300FF1A002320001A0090
:100D00003900FFF7AFFBB64EB64C3168200002F059
:100D1000FBFE3168200002F0AEFF3168200001F0D8
:100D200043FCAC4B1B78002B01D0019E51E42B6897
:100D3000029A1C121340A84A9B009B58043579E480
:100D4000A44BA4001B783F1B002B01D0019E40E464
:100D50002B68029A1C1213409F4A9B009B58043533
:100D600068E402F05BFD01F0E3F83B1F186800281F
:100D700023D1083B1868C30701D5401016E083074C
:100D80000FD104280DD90F2302681340062B02D17E
:100D9000FFF73EFB0AE0052B03D1FFF739FB80008C
:100DA00004E019228B4B019E1A7012E43A000121D3
:100DB0004300083A0B43136001E04010013800285B
:100DC00032DD012243001343391F0B603B00083B17
:100DD0001B681341181A3B000C3B1B68134203D0DD
:100DE0008018A400904015E0990717D1042B15D95D
:100DF0000F211E683140062906D101308000C358FA
:100E0000019AA400A35010E0052907D11818007911
:100E1000A4004000019B1043E05006E019226D4BF6
:100E2000019E1A70FFF7D5FB04356A4B1B78002B27
:100E300002D0019EFFF7CDFB2B68029A1C121340D3
:100E4000654A9B009B580435FFF7F4FBA300069A04
:100E5000FB189B1ADB2B01DC012205E01A225D4BFB
:100E6000019E1A70FFF7B5FB631E002C03DD3A608C
:100E70001C000437F8E7574B1B78002B02D0019E6B
:100E8000FFF7A7FB2B68029A1C121340524A9B00E3
:100E90009B580435FFF7CEFB069A3B1D9B1A4D4E1F
:100EA000DB2B04DD1A233370019EFFF792FB019BBD
:100EB000069AA400934218D93B1F1868FFF79AFAC4
:100EC000002810DD019B0C3B1B685B1098420ADC7C
:100ED0009A07D31A1818444BC018019B8000C258B7
:100EE0003B1B1A6003E0202300E018233370394BCA
:100EF0003E1B1B78371D002B02D0019EFFF769FBBC
:100F00002B68029A1C121340334A9B009B580435ED
:100F1000FFF790FBA3009C46F81A002C04DC1C226F
:100F20002C4B00261A7015E0002103685B10012687
:100F30008A008258164003D10D22264B1A7009E010
:100F40005210934200DD130001318C42EFDC012688
:100F50005B001E4363460660FE1A1E4B371D1B785E
:100F6000002B02D0019EFFF734FB2B68029A1C1263
:100F70001340194A9B009B580435FFF75BFBA30005
:100F80009C46F81A002C04DC1C22124B00261A7016
:100F900015E0002103685B1001268A008258164084
:100FA00003D10D220B4B1A7009E05210934200DA64
:100FB000130001318C42EFDC01265B001E436346C7
:100FC0000660FE1A034B371D1B78002B0ED0019EC6
:100FD000FFF7FFFABC0200209098000080EE360078
:100FE000C4020020C8020020FCFFFF3F2B68029AC9
:100FF0001C121340D84A9B009B580435FFF71AFB7C
:101000003B00083B1868FFF7F5F93B1F0490186890
:10101000FFF7F0F9049AA600BC1B0023824200DA15
:1010200004332360CD4BBE1B1B78371D002B02D031
:10103000019EFFF7CEFA2B68029A1C121340C64A93
:101040009B009B580435FFF7F5FAA300FE1A0493A2
:101050003B00083B1868FFF7CDF93B1F04001868F8
:10106000FFF7C8F9E20FC317A04253419B0033605A
:10107000049BFE1AB94B371D1B78002B02D0019E32
:10108000FFF7A7FA2B68029A1C121340B24A9B0082
:101090009B580435FFF7CEFA3B00083B18683B1F0E
:1010A0001968A300884202D1FB1A042222E0042816
:1010B0001ED90122104201D0114219D1032630421B
:1010C00015D10F2302681A40042A10D131420ED1E3
:1010D00004290CD90A681340042B08D1FFF7A4F99E
:1010E000431E9841A600BE1B8000306003E0A300B1
:1010F0000022FB1A1A60994BA4001B783E1B371D77
:10110000002B02D0019EFFF764FA2B68029A1C1292
:101110001340914A9B009B580435FFF78BFA3B0024
:10112000083B18683B1F1968A300884202D1FB1ACC
:10113000002223E004281FD90122104201D01142CD
:101140001AD10326304216D10F2302681A40042A0E
:1011500011D131420FD104290DD90A681340042B53
:1011600009D1FFF761F9030058425841A600BE1BA0
:101170008000306003E0A3000422FB1A1A60774B62
:10118000A4001B783E1B371D002B02D0019EFFF7E9
:1011900020FA2B68029A1C1213406F4A9B009B583E
:1011A0000435FFF747FAA300FE1A04933B00083BFF
:1011B0001868FFF71FF93B1F04001868FFF71AF9BA
:1011C000E217C30F844253419B003360049BFE1A15
:1011D000624B371D1B78002B02D0019EFFF7F9F9F7
:1011E0002B68029A1C1213405B4A9B009B580435E3
:1011F000FFF720FA3B00083B1868FFF7FBF83B1F9E
:1012000004901868FFF7F6F8049AA600BC1B0023A8
:10121000824200DD04332360504BBE1B1B78371D18
:10122000002B02D0019EFFF7D4F92B68029A1C1202
:101230001340494A9B009B580435FFF7FBF93B1FBD
:101240001B68A400043B591E8B413A1B9B00136092
:10125000424B171D1B78002B02D0019EFFF7B9F9F6
:101260002B68029A1C1213403B4A9B009B58043582
:10127000FFF7E0F9A300FC1A04933B00083B186851
:10128000FFF7B8F83B1F06001868FFF7B3F83618E9
:101290000120049B760006432660FE1A2F4B371D63
:1012A0001B78002B02D0019EFFF793F92B68029A5E
:1012B0001C121340284A9B009B580435FFF7BAF9CB
:1012C000A300FE1A04933B00083B1868FFF792F84E
:1012D0003B1F04001868FFF78DF8241A0120049BB7
:1012E000640004433460FE1A1C4B371D1B78002B2E
:1012F00002D0019EFFF76DF92B68029A1C12134071
:10130000154A9B009B580435FFF794F9A300FC1A7B
:1013100004933B00083B1868FFF76CF83B1F06007E
:101320001868FFF767F846430120049B76000643E0
:101330002660FE1A094B371D1B78002B02D0019E38
:10134000FFF747F92B68029A1C121340024A9B00D0
:101350009B580435FFF76EF990980000BC020020FE
:101360003B1F1868FFF746F8A30006000493FC1A19
:10137000002803D11F22E84B1A700AE03B00083B0B
:101380001868FFF737F8310005F07EF901264000B4
:101390000643049B2660FE1ADF4B371D1B78002B8B
:1013A00002D0019EFFF715F92B68029A1C12134018
:1013B000DA4A9B009B580435FFF73CF93B1F18683D
:1013C000FFF718F8A30006000493FC1A002803D1C5
:1013D0001F22D14B1A700AE03B00083B1868FFF748
:1013E00009F8310005F036FA012649000E43049B46
:1013F0002660FE1AC84B371D1B78002B02D0019EB9
:10140000FFF7E7F82B68029A1C121340C34A9B00AF
:101410009B580435FFF70EF93B1F1868FEF7EAFFEB
:10142000C317C0185840012340001843BA4BA4000A
:101430001B783E1B3060371D002B02D0019EFFF74A
:10144000C8F82B68029A1C121340B44A9B009B58A0
:101450000435FFF7EFF8A300FE1A07933068012C5C
:1014600003D1FEF7C7FF049008E0FEF7C3FF0400B6
:101470007068FEF7BFFF0130031B0493049B002B31
:1014800001DC0123049307F0B3FA049905F0E2F9B3
:101490000C190121079B64000C433460FE1A9E4B1B
:1014A000371D1B78002B02D0019EFFF792F82B68A6
:1014B000029A1C121340994A9B009B580435FFF76F
:1014C000B9F8A300FE1A31002000049300F0A8FF31
:1014D000049B3060FE1A904B371D1B78002B02D006
:1014E000019EFFF776F82B68029A1C1213408B4A74
:1014F0009B009B580435FFF79DF8A300FE1A049348
:101500003B00083B1868FEF775FF3B1F0400186896
:10151000FEF770FF04400120049B64000443346024
:10152000FE1A7D4B371D1B78002B02D0019EFFF762
:1015300050F82B68029A1C121340784A9B009B5863
:101540000435FFF777F8A300FC1A04933B00083B2F
:101550001868FEF74FFF3B1F06001868FEF74AFFAA
:1015600006430120049B760006432660FE1A6A4B60
:10157000371D1B78002B02D0019EFFF72AF82B683D
:10158000029A1C121340654A9B009B580435FFF7D2
:1015900051F8A300FC1A04933B00083B1868FEF7BF
:1015A00029FF3B1F06001868FEF724FF4640012074
:1015B000049B760006432660FE1A574B371D1B78A6
:1015C000002B02D0019EFFF704F82B68029A1C1230
:1015D0001340524A9B009B580435FFF72BF83B1FE2
:1015E0001868FEF707FFC0430123400018434A4B29
:1015F000A4001B783E1B3060371D002B02D0019EDB
:10160000FEF7E7FF2B68029A1C121340434A9B0027
:101610009B580435FFF70EF8A300FE1A04933B0015
:10162000083B1868FEF7E6FE3B1F04001868FEF74B
:10163000E1FE8440012364001C43049B3460FE1AD5
:10164000354B371D1B78002B02D0019EFEF7C1FFE2
:101650002B68029A1C121340304A9B009B58043599
:10166000FEF7E8FFA300FE1A04933B00083B18684E
:10167000FEF7C0FE3B1F04001868FEF7BBFE0441E6
:10168000012364001C43049B3460FE1A224B371D67
:101690001B78002B02D0019EFEF79BFF2B68029A5D
:1016A0001C1213401D4A9B009B580435FEF7C2FFD5
:1016B0003B000C3B1868FEF79DFE3B00083B060014
:1016C0001868FEF797FEF1170200C317300005F007
:1016D00013F93B1F049005911868FEF78BFE02007A
:1016E0000498059905F0BCF80123400018430A4B03
:1016F000A4001B783E1B3060371D002B02D0019EDA
:10170000FEF767FF2B68029A1C121340034A9B00E6
:101710009B580435FEF78EFFBC0200209098000015
:10172000A300FE1A310020000493FEF780FD049B05
:101730003060FE1AE54B371D1B78002B02D0019E4E
:10174000FEF747FF2B68029A1C121340E04A9B00E9
:101750009B580435FEF76EFFA300FE1A31002000EF
:101760000493FEF774FD049B3060FE1AD74B371DBF
:101770001B78002B02D0019EFEF72BFF2B68029AEC
:101780001C121340D24A9B009B580435FEF752FFAF
:10179000A300FF1A39002000FEF76BFDCB4B1B782E
:1017A000002B02D0019EFEF714FF2B68029A1C1238
:1017B0001340C74A9B009B580435FEF73BFFA3002C
:1017C000FE1A310020000493FEF785FD049B306073
:1017D000FE1ABE4B371D1B78002B02D0019EFEF770
:1017E000F8FE2B68029A1C121340B94A9B009B58C2
:1017F0000435FEF71FFFA300FF1A39002000FEF793
:10180000A0FDB24B1B78002B02D0019EFEF7E1FE3B
:101810002B68029A1C121340AD4A9B009B5804355A
:10182000FEF708FFA300FE1A310020000493FEF724
:10183000C1FD049B3060FE1AA44B371D1B78002BA2
:1018400002D0019EFEF7C5FE2B68029A1C121340BF
:101850009F4A9B009B580435FEF7ECFE069A3B1D01
:1018600004939A4C9B1ADB2B04DD1A23019E2370F0
:10187000FEF7AFFE00F0D2FB0123400018432378AF
:101880003860002B03D0019E049FFEF7A2FE2B6858
:10189000029A1C1213408E4A9B009B58049F0435E9
:1018A000FEF7C8FE069A3B1D0493884C9B1ADB2B5F
:1018B00004DD1A23019E2370FEF78BFE00F0A4FBCB
:1018C000844B400018400123184323783860002BD4
:1018D00003D0019E049FFEF77CFE2B68029A1C1227
:1018E00013407B4A9B009B58049F0435FEF7A2FEE1
:1018F000A300FB1A0493012320001A000499FEF7A9
:10190000B1FD754C2068643001F042FF002816D00C
:10191000039B21685A78714802F0BBF915E0A300D7
:10192000FB1A04932000012300220499FEF79AFD7C
:10193000694C2068643001F02BFF002802D1043D7F
:10194000FEF75BFE654802F03DF80123039A137031
:1019500000F05AFB624A2368126806335343181892
:10196000039B5860FEF74AFEFEF7F4FD574BA400B8
:101970001B783E1B3060371D002B02D0019EFEF706
:1019800028FE2B68029A1C121340514A9B009B5858
:101990000435FEF74FFEA4003E1B300000F072FB42
:1019A0004A4B30601B78371D002B02D0019EFEF79A
:1019B00010FE2B68029A1C121340454A9B009B584C
:1019C0000435FEF737FEA4003E1B300000F05CFB40
:1019D0003E4B30601B78371D002B02D0019EFEF776
:1019E000F8FD2B68029A1C121340394A9B009B5841
:1019F0000435FEF71FFEA4003E1B300000F046FB3E
:101A0000324B30601B78371D002B02D0019EFEF751
:101A1000E0FD2B68029A1C1213402D4A9B009B5834
:101A20000435FEF707FEA4003F1B380000F04CFB16
:101A3000264B1B78002B02D0019EFEF7CAFD2B68B7
:101A4000029A1C121340224A9B009B580435FEF751
:101A5000F1FDA300FE1A31002000049300F056FBB4
:101A6000049B3060FE1A194B371D1B78002B02D0E7
:101A7000019EFEF7AEFD2B68029A1C121340144A19
:101A80009B009B580435FEF7D5FDA4003F1B380092
:101A900000F076FB0D4B1B78002B02D0019EFEF769
:101AA00098FD2B68029A1C121340094A9B009B5810
:101AB0000435FEF7BFFD0121200000F049FB034B78
:101AC0001B78002B0ED0019EFEF783FDBC02002088
:101AD00090980000FEFFFF7FC4020020C802002093
:101AE000040000202B68029A1C121340E94A9B0054
:101AF0009B580435FEF79EFD0021200000F028FBD6
:101B0000E54B1B78002B02D0019EFEF762FD2B688F
:101B1000029A1C121340DF4A9B009B580435FEF7C3
:101B200089FDA4003E1B300000F048FBDA4B30601A
:101B30001B78371D002B02D0019EFEF74AFD2B6853
:101B4000029A1C121340D34A9B009B580435FEF79F
:101B500071FDA4003E1B300000F044FBCE4B306012
:101B60001B78371D002B02D0019EFEF732FD2B683B
:101B7000029A1C121340C74A9B009B580435FEF77B
:101B800059FDA4003F1B380000F006FBC24B1B7838
:101B9000002B02D0019EFEF71CFD2B68029A1C123E
:101BA0001340BC4A9B009B580435FEF743FDA4003C
:101BB0003F1B380002F0E4FAB74B1B78002B02D031
:101BC000019EFEF706FD2B68029A1C121340B14AD3
:101BD0009B009B580435FEF72DFDA4003E1B3000F2
:101BE00002F078FBAC4B30601B78371D002B02D025
:101BF000019EFEF7EEFC2B68029A1C121340A54AC8
:101C00009B009B580435FEF715FDA4003F1B3800D0
:101C100002F086FAA04B1B78002B02D0019EFEF743
:101C2000D8FC2B68029A1C1213409A4A9B009B58BE
:101C30000435FEF7FFFCA4003E1B300002F086FADC
:101C4000954B30601B78371D002B02D0019EFEF7AC
:101C5000C0FC2B68029A1C1213408E4A9B009B58B2
:101C60000435FEF7E7FCA300FF1A3900200000F05E
:101C700003FF894B1B78002B02D0019EFEF7A9FCC5
:101C80002B68029A1C121340824A9B009B58043511
:101C9000FEF7D0FCA300FF1A3900200000F0B6FDCB
:101CA0007D4B1B78002B02D0019EFEF792FC2B6827
:101CB000029A1C121340774A9B009B580435FEF78A
:101CC000B9FCA300FF1A3900200000F0AFFD724BF1
:101CD0001B78002B02D0019EFEF77BFC2B68029A3A
:101CE0001C1213406B4A9B009B580435FEF7A2FC64
:101CF000A300FF1A3900200000F0C0FD664B1B78DE
:101D0000002B02D0019EFEF764FC2B68029A1C1285
:101D10001340604A9B009B580435FEF78BFCA300E0
:101D2000FE1A31002000049302F015FB049B306082
:101D3000FE1A594B371D1B78002B02D0019EFEF76F
:101D400048FC2B68029A1C121340524A9B009B5875
:101D50000435FEF76FFCA300FE1A31002000049347
:101D600002F011FB049B3060FE1A4B4B371D1B78B1
:101D7000002B02D0019EFEF72CFC2B68029A1C124D
:101D80001340444A9B009B580435FEF753FCA300C4
:101D9000FE1A31002000049302F0B7FA049B306071
:101DA000FE1A3D4B371D1B78002B02D0019EFEF71B
:101DB00010FC2B68029A1C121340364A9B009B5859
:101DC0000435FEF737FCA300FE1A3100200004930F
:101DD00002F0B4FA049B3060FE1A2F4B371D1B78BB
:101DE000002B02D0019EFEF7F4FB2B68029A1C1216
:101DF0001340284A9B009B580435FEF71BFCA300A8
:101E0000FF1A3900200000F0D5FD234B1B78002B72
:101E100002D0019EFEF7DDFB2B68029A1C121340D4
:101E20001C4A9B009B580435FEF704FCA300FF1AD4
:101E30003900200000F04AFD174B1B78002B02D020
:101E4000019EFEF7C6FB2B68029A1C121340114A32
:101E50009B009B580435FEF7EDFBA300FE1A3100F2
:101E60002000049300F01EFE049B3060FE1A0A4B13
:101E7000371D1B78002B02D0019EFEF7AAFB2B68B2
:101E8000029A1C121340034A9B009B580435FEF72C
:101E9000D1FBC04690980000BC020020A300FF1AAE
:101EA0003900200000F0F6FB224B1B78002B02D0FB
:101EB000019EFEF78EFB2B68029A1C1213401E4AED
:101EC0009B009B580435FEF7B5FBA300FF1A3900B1
:101ED000200001F0DFFB174B1B78002B02D0019E86
:101EE000FEF777FB2B68029A1C121340124A9B00E4
:101EF0009B580435FEF79EFBA300FE1A310020001C
:101F0000049301F0C7FB049B3060FE1A094B371D98
:101F10001B78002B02D0019EFEF75BFB2B68029A18
:101F20001C121340044A9B009B580435FEF782FBA9
:101F300009B0F0BDBC020020909800000023F7B566
:101F40005A1E0192002B07DA00F0E0FD01F016FEA8
:101F500001F0C4FE6423019300263000194B196878
:101F60008E4201DB019BEBE7174B1A68013291426D
:101F700000DC0022F0241A601D68144F6C43E35DFE
:101F8000002B1DD0E419022B16D0012B0ED10028F6
:101F900001D100F039F8F0226A430C4B0C499B1830
:101FA0005B68C31A8B4201D80223BB54F0235D4304
:101FB000064BEB5C022B03D12000FEF7E3FAD1E7DE
:101FC0000136CBE7C002002000000020D011002025
:101FD0009F86010000207047002070470020704756
:101FE0000020704701220020054B06491A61585015
:101FF0000330043158508018083158501A60704727
:1020000000800040040500000122034B1A64A8224E
:10201000D20098587047C0460080004010B5FFF7C6
:10202000F3FFFA21890004F0A5FA10BD10B50100F4
:10203000014803F00FFE10BD581100200048704702
:10204000989A000070B5054E0400335C0D008B4279
:1020500002D004F009FA355570BDC0460C060020C8
:1020600070B50024064D635D012B05D100212000D1
:1020700004F0FAF90023635501341A2CF2D170BD33
:102080000C0600200D20704735207047036870B59E
:102090005B100120052B12D8094A9B009C58094D62
:1020A0002B5D002B05D00021200004F0DDF900237A
:1020B0002B55200004F082F801234000184370BD26
:1020C000C49A00000C06002070B5036845685C10D7
:1020D0006D1004D40B4B9D4202DD1D0000E0002575
:1020E000192C0DD8084E335D012B05D0012120009D
:1020F00004F0BAF9012333552900200004F0ECF86C
:1021000070BDC046FF0300000C0600200B6870B5D0
:102110005D10192D16D80024012804DD4C68043CFC
:10212000624262415400094E735D9C4204D021001A
:10213000280004F099F97455280004F0C9F9042323
:10214000012800D00023180070BDC0460C060020F6
:1021500070B504000D0019280ED8084E335C012B11
:1021600004D0012104F080F9012333552900200017
:102170004D1EA94104F096F970BDC0460C06002022
:10218000436810B5191F4A424A41006811004010C7
:10219000FFF7DEFF10BD000037B56A46064B694603
:1021A00030CB30C203680220042B02D100F03EFB8A
:1021B00001E000F063FB37BD909A000010B5084CB9
:1021C000237D002B05D00021142004F04DF90023BD
:1021D0002375142004F07CF943425841800010BD5F
:1021E0000C06002010B5084CA37D002B05D0002163
:1021F000162004F039F90023A375162004F068F9BD
:1022000043425841800010BD0C06002070477047C3
:1022100010B5034A0421034801F028FA10BDC04656
:10222000080000205FA10000E12110B54902094823
:1022300003F0EEFDFFF7D6FE0A2003F0B9FF0023FE
:10224000FF21054A995401331A2BFBD100F0B2FD4E
:1022500010BDC046581100200C060020F8B50B4EEA
:10226000070030000D0003F013FE041EAC4200DD39
:102270002C003D00EB1B9C4205DD300003F012FEFC
:1022800028700135F6E72000F8BDC046581100203F
:1022900010B50100014803F0C3FD10BD5811002026
:1022A00010B5054C200003F0C9FDE12120004902D2
:1022B00003F0AEFD10BDC04658110020064B0120B2
:1022C0001A68064B06491A60C82200235200C850FB
:1022D00004339342FBD170473006002028060020CB
:1022E0002823002000B59BB00200054901A806F094
:1022F000FFFB01A801F082FB01F0F0FCFCE7C04607
:10230000DC9A000037B5184D04002868002801D079
:1023100005F0E2FFA400200005F0D4FF28600028AB
:1023200001D1124809E001AB984208D2104B0219C2
:102330006B440193934202D20E48FFF7D3FF042867
:1023400002D808302860083C2B680B4A1C1913601F
:102350000A4BC8221C600120002309495200C850C2
:1023600004339342FBD137BD30060020ED9A0000C4
:102370001CFCFFFF1D9B0000280600202C060020EF
:102380002823002070B50D4D0D4E2B684C1CA40069
:1023900036681C19B44203D90A20FEF7D5F80BE0C1
:1023A0002C601D00AC4201D904C5FBE70F220901D6
:1023B000104008431860180070BDC0462806002071
:1023C0002C0600200322CB1C70B50C00D91711403D
:1023D000C9180500891000220420FFF7D3FF00234D
:1023E000A34204DAE95CC21811710133F8E7E14352
:1023F0000023C917214041180B7170BD10B5830728
:1024000006D1042804D90F2304C81340042B03D099
:102410000E20FEF799F8014810BDC046B6A0000096
:1024200010B503240868044006D1042804D90F23FA
:1024300002681340042B01D00E2011E0FFF7DEFFED
:102440000378233B5942594110224018210006F0DD
:102450002FFC80239B05C218054B9A4203D91420F8
:10246000FEF772F802E001234000184310BDC04699
:10247000FFFFFF3F70B501240B680D001C4001D029
:102480005C1002E00D20FEF75FF8200004F074FB02
:10249000264904F05DFA05F037FE02F049FA002201
:1024A000234B04F0EBFF0023002204F01BFA01246D
:1024B0002B681C40002819D0002C01D05C1002E0D1
:1024C0000D20FEF741F8200004F056FB174904F0F8
:1024D0003FFA05F019FE02F02BFA0022144B04F02B
:1024E000CDFF0022134B04F08FFB18E0002C01D02D
:1024F0005C1002E00D20FEF727F8200004F03CFB02
:102500000A4904F025FA05F0FFFD02F011FA002255
:10251000074B04F0B3FF0022064B05F029FA05F043
:102520007BFD01234000184370BDC046D3023739FC
:102530000000D0400000E03F10B5034A02210348EC
:1025400001F094F810BDC04628000020889B0000D0
:102550000020704710B51E20FDF7F6FF10BD10B526
:102560001E20FDF7F1FF10BD10B51E20FDF7ECFF9A
:10257000002010BD10B51E20FDF7E6FF002010BDA5
:1025800010B51E20FDF7E0FF10BD10B51E20FDF7B1
:10259000DBFF10BD10B51E20FDF7D6FF10BD10B536
:1025A0001E20FDF7D1FF10BD7047000010B5034A93
:1025B0000921034801F05AF810BDC0463800002038
:1025C0009A9B00000123034A1360034A1068984055
:1025D000184370473C060020440600201E2800D9FE
:1025E0001A20084B8000C25801239340064A07492D
:1025F0001360074A1160074A07491160074A1360D0
:102600007047C046ECA300003806002008050050C3
:10261000540600204C0600200C0500501805005000
:10262000F0B5EFF310810123194083F31088134EA6
:10263000134AB4461268013A9340124A1468124A87
:102640001568124A002B15D0166803420BD026607D
:10265000C046C046C046C046C046C046C046C0464A
:1026600016682E6004E067463E601668084F3E60BC
:102670005B08E7E781F31088F0BDC046080500500D
:10268000C8000020540600204C0600203806002018
:102690000C0500500B6810B50200D80701D5581082
:1026A00001E0012040421823012A03DD4A68042A80
:1026B00000D10833024A1360FFF790FF002010BDDD
:1026C000C800002030B585B001AD0C2206492800B5
:1026D00005F00CFE0024285D01210134FFF7B2FC57
:1026E0000C2CF8D105B030BD269C0000F0B53B4C59
:1026F00085B0210003220C31684605F0F7FD21006A
:1027000009220F3101A805F0F1FDFFF787FC344BDA
:10271000344CC0182368984201D2002323602568F6
:10272000002D3ED12E006B4604339F5D0121380001
:10273000FFF788FC01360121380003F0B3FE092EB3
:10274000F1D100266B469F5D01213800FFF77AFC2E
:1027500001360021380003F0A5FE032EF2D1C82077
:1027600080000138C046C046C046C046C046C0468C
:10277000C046C046C046C046C046C046F1D1002152
:102780000520FFF75FFC00266B460021985D0136AF
:10279000FFF758FC032EF7D1FFF740FC1330206001
:1027A00019E0FFF73BFC23680025984213D305206E
:1027B00003F004FD0C4B0D4EC01801D4306000E056
:1027C00035603068032103F05FFF00230125084ACC
:1027D000306023601360280005B0F0BD269C000027
:1027E0001027000034060020C8FEFFFF440600202A
:1027F0003C06002010B50124044001D0441002E042
:102800000D20FDF7A1FE200010BD00000022054BA9
:1028100010B51A60044B1B68934201D001F026FEEC
:10282000002010BD480600207C10002070B508680C
:102830000D00FFF7DFFF04006868FFF7DBFF631E92
:102840000100042B14D8451E042D11D805226A431B
:10285000D318012215009D402B00064805682B4324
:102860000360054B1B68002B02D0200001F0FFFD28
:10287000002070BD480600207C10002070B508685C
:102880000D00FFF7B7FF04006868FFF7B3FF631E92
:102890000100042B14D8451E042D11D805226A43CB
:1028A000D31801229A401300064802689A43064B47
:1028B00002601B68002B03D00022200001F0D7FD2E
:1028C000002070BD480600207C100020F0B50500F7
:1028D00085B008680C00FFF78DFF0390022D08DD1E
:1028E0006068FFF787FF0700A068FFF783FF040019
:1028F00001E00124270005236343053B02930123E4
:1029000026000193231D9E4234DC3D003B1D9D4269
:102910002BDC731E042B23D86B1E042B20D8029BA8
:10292000039A591E019B49191A40204B0AD00122D3
:102930008A4019680A431A601D4B01221B68002B4C
:102940000ED009E001208840010018688843186013
:10295000174B1B68002B03D03100280001F087FDC6
:10296000019B01355B000193D0E7029B01360533E3
:102970000293C7E73D1D042D15D8012C13D1260065
:102980003300AB40094A11689943094B11601B6839
:10299000002B04D0781D0022210001F068FD0134D5
:1029A0000535062CECD1002005B0F0BD480600200E
:1029B0007C1000202D4BF7B51B680C00002B03D1B9
:1029C00001204042FFF70AFE01262468344219D054
:1029D000FF226310180212041040FF22611212023B
:1029E0000A40DBB210431843214B1B68202B06D151
:1029F000B440204BA40EA400E35800021843FFF794
:102A00000FFE30E0032525402DD1042C2BD90F23B8
:102A100022681340062B26D1FF27130901933F0498
:102A2000019B9D421FDAAB00E3185A68324218D06E
:102A3000531018023840FF21844609025012084002
:102A40006146DBB208431843094B1B68202B06D1B3
:102A50005200920E074B9200D35800021843FFF722
:102A6000DFFD0135DCE70020FEBDC0463806002052
:102A7000C8000020B49C0000086810B5C30703D547
:102A8000FFF7B8FE054B1860054B1B68002B03D001
:102A9000024B186801F0ECFC002010BD4806002035
:102AA0007C1000200868F8B5C30702D5FFF7A2FE26
:102AB0000BE0830726D1042824D90F2203681A408B
:102AC000042A1FD11B091DD000790300203B5E2B77
:102AD00018D80522002053430B4E9D18043AAB42F0
:102AE0000CD0052110249F5D3C4200D08018013994
:102AF000520064100029F7D10133F0E701234000B0
:102B0000184300E00120F8BDB49D00007FB5A44E3D
:102B10003368002B0BD1A34A1268002A07D1A24BBD
:102B20001B68002B00D139E1FFF7E0FD36E19F4D36
:102B30002A68002A2AD19C4A1268002A07D0FFF787
:102B4000D5FD002800D129E1FFF7BCFD05E0954A3D
:102B50001268002A01D1002BF6D1924B19681A0095
:102B6000002911D03468002C0ED101AD0C229049FF
:102B700028001C6005F0BAFB285D00210134FFF736
:102B800061FA0C2CF8D109E13368136000210D20A3
:102B900003F088FC00210E2003F084FC00210F20AC
:102BA00003F080FC2E68012E56D0022E00D19CE04E
:102BB000002E00D0ECE0013631007A4C042023686E
:102BC000994303F06FFC0421236805200B40594210
:102BD000594103F067FC1021236806200B4059423D
:102BE000594103F05FFC8021236809010B405942E1
:102BF00059410C2003F056FC8021236809020B4048
:102C0000594259410B2003F04DFC802123684902B1
:102C10000B40594259410A2003F044FC80212368AB
:102C200089020B4059425941092003F03BFC8021A5
:102C30002368C9020B4059425941082003F032FC75
:102C4000802321681B030B4059425941072003F0A0
:102C500029FC31000D2099E00221524C0720236805
:102C60000B405942594103F01DFC082021680140E6
:102C70000B005942594103F015FC80212368C9001B
:102C80000B4059425941052003F00CFC8021236878
:102C900049010B4059425941062003F003FC8021B1
:102CA0002368C9010B4059425941042003F0FAFB43
:102CB0008021236889030B40594259410A2003F0BF
:102CC000F1FB802321681B040B4059425941092024
:102CD00003F0E8FB31000C2003F0E4FB31000B2093
:102CE00003F0E0FB31000E2050E020212D4C0720A6
:102CF00023680B405942594103F0D4FB402123681B
:102D000008200B405942594103F0CCFB8021236835
:102D100009200B405942594103F0C4FB802123682C
:102D200049000B40594259410A2003F0BBFB802166
:102D3000236889000B40594259410B2003F0B2FB34
:102D40008021236889010B40594259410C2003F02E
:102D5000A9FB8021236849030B40594259410620B1
:102D600003F0A0FB80212368C9030B40594259415D
:102D7000042003F097FB802321685B040B40594239
:102D80005941052003F08EFB01210F2003F08AFB3F
:102D90002B680321581C03F05DFD29607FBDC046F0
:102DA00048060020400600203C0600205006002077
:102DB000269C0000012010B54042FFF70FFC0020C8
:102DC000FFF72EFC10BD000010B5034A092103488F
:102DD00000F04CFC10BDC046800000203E9C00006E
:102DE00030B502248025094B094AED009C505C59FE
:102DF000002CFCD0A124E400884204D28025ED0000
:102E000018514019F8E70021995030BD00E0014009
:102E10000405000010B5002804D19820A621400226
:102E2000890203E0A62080218002C902FFF7D8FFB3
:102E300010BD002802D0A6239B0201E098235B026C
:102E40001B6800201A0E532A01D11B02180A704772
:102E500030B501248025064A064BED00D450545964
:102E6000002CFCD001600021014AD15030BDC04689
:102E700000E001400405000010B5002802D0A620A3
:102E8000800201E098204002A6230902DB05090A1E
:102E90001943FFF7DDFF10BDF0B5012480250300C5
:102EA0000F4F08000F49ED007C507C59002CFCD0DE
:102EB0009C46002810DD5478167893782402344319
:102EC0001B0423431C00D37801381B0623436446AC
:102ED00008C40432A446ECE700237B50F0BDC04692
:102EE00000E001400405000070B505004B680A00D1
:102EF0009C1C2100FFF7D0FFA000281870BD000027
:102F0000154B1B68002B04D08021A623C9029B020D
:102F100003E0A621982389025B02002807D1191D2E
:102F20005B6802001B0E522B14D10A0012E0002233
:102F300081420FD903681B0E522B0BD14368023319
:102F40009B00C318994205D91A68110E0022522914
:102F500000D11A00100070475808002070B50020FA
:102F6000FFF7CEFFFF260500002808D003681C14D9
:102F70003440FFF7C5FFDA2CF6D10500F4E728004E
:102F800070BD00008022F0B55200A1B0002165485C
:102F900005F0B5F9802200215200634805F0AFF931
:102FA000624C23681A00039353425A411000049262
:102FB000FFF730FF039B0594002B01D15C4C00E030
:102FC0005C4C0020FFF7CAFFFF270500002D7CD0D6
:102FD0002A68131412123A403B4002921A000A3A2D
:102FE000092A42D84F4B029A995C002968D11022D5
:102FF000514805F084F92E00336802991A123A40BC
:10300000914217D11A143A400B2A06D0132A0CD039
:103010000A2A0FD1484B1E600CE03B40022B09DC12
:10302000454A9B00D3185E6004E01022002142480C
:1030300005F065F93000FFF763FF061EDCD13E4B5B
:10304000196800290FD02000FFF74EFF04003B4E07
:103050003168002903D02000FFF746FF0400384BF9
:103060000436B342F4D12F4B27E01A00153A082A50
:1030700026D82D4A0299565C002E21D1152B00D15D
:103080002E00280003681A143A40152A03D01D2A7E
:1030900007D1002605E0029A1B123B409A4200D15C
:1030A0000600FFF72DFF0028ECD1002E04D02000F1
:1030B0003100FFF719FF04001B4B0121029A9954BC
:1030C0002800FFF71DFF050080E70398FFF7B1FE1A
:1030D000411C0498FFF7D0FE059B1A4D049A2C6002
:1030E0001A60FFF7DDF8059B2C681B68002B02D0E7
:1030F000A6239B0201E098235B026420B421E41A1A
:103100006043490203F0C0FAB42252020300009265
:103110000D49220007A805F0EBFC07A800F06EFCA3
:1031200021B0F0BD580700205806002058080020A4
:103130000498020004300100B8240020BC240020C0
:10314000C82400205C0800209C9F0000F0B50020EF
:10315000B7B00024FFF7D4FE270005002600002D9D
:1031600020D0FF226B6828689C460233FF180312A8
:103170000136134011009C4200DA1C0002140A4080
:1031800003926246014001920091039A1C4904A8EF
:1031900005F0AEFC04A800F031FC2800FFF7B0FEFB
:1031A0000500DCE7174D2868FFF743FE3B00019060
:1031B00000943200144904A805F09AFC04A800F019
:1031C0001DFC124B1C682B68002B02D0A6239B020F
:1031D00001E098235B026420B421E41A60434902B1
:1031E00003F052FAB422520203000092084922006E
:1031F00004A805F07DFC04A800F000FC37B0F0BD89
:10320000D29F000058080020E69F00005C080020C4
:10321000B79F000070B50020FFF70BFE04000120EF
:10322000FFF707FE844200DA04000A4B1E6875426D
:10323000754128001D60FFF7EDFD002E01D0064B03
:1032400000E0064B064A2800611C1360FFF714FEDD
:1032500070BDC046580800200430010004980200E8
:103260005C080020F8B50020FFF7E3FD070001200F
:10327000FFF7DFFD3E00224D0643224C0CD180219A
:103280009820C9024002FFF7ABFD01213000FFF793
:10329000F3FD2E601C4B2FE0874208DD0023A621A2
:1032A0002B60194B890223602368002011E0012361
:1032B00080212B60154BC9022360F5E71A68551C65
:1032C00018D0120E522A07D101205A6802329200F9
:1032D0009B188B42F2D311E0002800D023600C4CE5
:1032E0000C49200005F030FC2000FEF79FFEFFF7A0
:1032F00091FF04E0002802D0236000E02160F8BDC7
:10330000580800205C0800200430010004980200E6
:10331000042500201BA00000F0B585B00392032215
:103320000333DC1714402A4EE3189C1033680190D5
:103330000291002B02D08022D20201E0A62292024A
:10334000244FA51C3B68AD005B199A4217D2FFF7CA
:1033500019FE3368002B02D08022D20201E0A6229F
:1033600092023B685B199A4209D21B4C1B49200010
:1033700005F0EAFB2000FEF759FE002026E0029B44
:103380003E681B06190C6B461A7BA423DB0513430E
:10339000019A0B431104FF2212041140194330001B
:1033A000FFF756FD3300301D0833210001933B60C9
:1033B000FFF74EFD002C04D00A9A21000198FFF778
:1033C0006BFD3000019B083D5D193D6005B0F0BD0F
:1033D000580800205C0800200425002044A00000BC
:1033E00010B5FFF7CFFD10BD70B59AB0FFF73AFFEB
:1033F000FF22264CD2000021200004F080FF002094
:10340000FEF7DCFE042804D10020FEF7EBFE0428C2
:1034100031D00020FFF7A2FDFF25002600281AD09A
:1034200003681A142A400A2A08D11A122A40FF2ACD
:103430000ED0D200A1180B71A05009E0132A07D1B9
:103440001B122B40FF2B03D0DB00E2181671E65055
:10345000FFF756FDE2E7FF210200C90023580830BC
:103460005D1EAB41D2188842F8D1094901A805F088
:103470003FFB01A802E0FFF7CDFE064800F0BEFAD0
:10348000054800F0BBFA1AB070BDC046301B0020E2
:103490006BA0000087A000007FA000000020704704
:1034A0000120704700487047E02400200048704722
:1034B00033F8FFFF10B50449044805F045FB242309
:1034C0000348036010BDC0464AA10000CC24002080
:1034D000C82400200020704700207047002070475B
:1034E0000020704700207047002070470020704780
:1034F000002070470020704710B5034A0E21034892
:1035000000F0B4F810BDC046CC0000204FA1000070
:10351000044A05491368C85401339B059B0D136089
:103520007047C046640C002060080020114A70B546
:103530001368114C984211DA015D451CFA390129D2
:1035400006D8AB4206DD2118497801391F2901D977
:103550002800EFE70100251A461C02D10023136062
:1035600006E0665C6E5401318B42FADC181A10607A
:1035700070BDC046680C0020700C002010B5FEF72E
:1035800043FD064B1A68904201D200221A601B6864
:10359000C01A034B83428041404210BD6C0C002096
:1035A000204E000010B5094C094A23681268934266
:1035B0000BD0084AD05CFEF76BFE002805D02368CC
:1035C00001339B059B0D2360EDE710BD70100020BB
:1035D000640C00206008002010B50400064B074A68
:1035E0001B6812689B1ADB439B059B0DA34202DA02
:1035F000FFF7D8FFF2E710BD640C00207010002028
:10360000F7B506000191151E2FD05768B800441C6D
:103610000630FFF7E1FFFB20FFF77AFF1C20FFF7E2
:1036200077FFF0B2FFF774FFE0B22412FFF770FFEC
:10363000E0B2FFF76DFF6B461879FFF769FF0026D0
:10364000BE4212DAB300EB189C680136E0B2FFF715
:103650005FFF2012C0B2FFF75BFF2014C0B2FFF77C
:1036600057FF200EFFF754FFEAE7F7BD70B5074D8F
:103670002C68092C08DC0C236343054E0134985157
:10368000F31859609A602C6070BDC0467410002019
:1036900068250020F0B589B004900E0001284BDDAC
:1036A000284B08680293830709D1042807D90F2300
:1036B00002681340042B02D1FEF7A0FE0290214BBA
:1036C00070680393830709D1042807D90F23026880
:1036D0001340042B02D1FEF791FE039000271A4BF2
:1036E0001A4D1B680593059B9F4225DA2B1F0299F3
:1036F000186805F01FFA00281BD12B686C68069328
:103700000190019B069A934213DA2068039907946B
:1037100005F010FA0834002807D131000498079BFF
:1037200008315B680238984709E0019B0133019337
:10373000E7E701370C35D6E71B20FCF705FF09B09A
:10374000F0BDC046B6A00000741000206C2500201B
:1037500010B5FFF739FBFEF75BFDFEF7EDFEFEF758
:1037600025FFFFF7C9FE00F0FFFC00F083FE10BD4F
:10377000962210B512010021034804F0C0FD00227A
:10378000024B1A6010BDC046D0110020C0020020BC
:10379000064B074A1B6812689B1ADB439B059B0D6F
:1037A0000122834200DC002210007047640C0020DC
:1037B00070100020F8B505000C0016001F1E0ED179
:1037C0000320FFF7E5FF002827D0FA20FFF7A0FE2F
:1037D000E8B2FFF79DFEE0B2FFF79AFE1DE0501D34
:1037E000FFF7D6FF002818D0FB20FFF791FEE8B2C4
:1037F000FFF78EFEE0B2FFF78BFEF0B2FFF788FE18
:103800003012C0B2FFF784FE3C00E31B9E4204DD91
:103810002078FFF77DFE0134F7E7F8BD70B500248E
:10382000F0250B4B1B689C420EDA2A006243094BC1
:10383000D3181A78002A05D05978002311201A00CD
:10384000FFF7B8FF0134ECE7FFF792FF70BDC04609
:10385000C0020020D01100200123F3B50400FFB006
:103860000D0010001A420DD002AA1370431002A9D5
:10387000537042121B0E40148A700B71C8700B00FB
:10388000052273E0032313401ED1042A1CD90F2202
:1038900001680A40042A17D1023302AA1370FEF706
:1038A000ADFD060005F058F9F823FF33984200DD1E
:1038B00018000023834205DA01335A1EB25C02A9C4
:1038C000CA54F7E7421C50E0042801D0002809D16F
:1038D000032302AA04381370434243415370130078
:1038E000022243E0002B45D1042843D90F2102686E
:1038F0001140052912D1043302A90B70F8231209D3
:10390000FF3392009A4200DD1A00002393422BDA23
:103910000133C118C97802AEF154F7E7062929D15D
:1039200001390E00120956430196F826019FFF3611
:10393000B7421FDC02AE31700136934213DA012721
:10394000013399004158394201D0394100E00A4918
:10395000012737700F127170B7700F14090EF770CE
:1039600031710536E9E7019A013202AB29002000E6
:10397000FFF720FF7FB0F3BD19FCFFFF70B5F02308
:10398000050000240D4A1800604380184178A942C0
:1039900003D001340A2CF6D10FE0F022002104F00C
:1039A000AEFC074A1368013BA34200D11460002318
:1039B00029001A001120FFF7FDFE70BDD011002074
:1039C000C002002010B5B2B002236A460400137092
:1039D00005F0C2F8C72800DDC7200023834205DABE
:1039E000694601335A1EA25CCA54F7E7421C6B4673
:1039F000FE211420FFF7DEFE32B010BD30B5B3B0AB
:103A000002236A460500137005F0A6F8041EC72CB1
:103A100000DDC7240023A34205DA694601335A1E9C
:103A2000AA5CCA54F7E720003230FFF7D5FD621CCC
:103A30006B46FF211420FFF7BDFE33B030BD000000
:103A4000F7B5234B06001B68F020009300232149A3
:103A5000009A93420ADA02005A438A185478B44210
:103A600002D11278002A31D10133F1E70024F0238A
:103A70001A00624301920199164A55182F78002FB7
:103A800006D001340A2CF3D11348FFF7B7FF1DE02D
:103A9000F0223900280004F032FC02230D4A01997B
:103AA000EB6053540D4AF1008A58009B6E70AE7063
:103AB000AA602F616F61A34202DC054B01341C60D8
:103AC000002331001A001020FFF774FEF7BDC04636
:103AD000C0020020D01100200AA20000301B0020EC
:103AE00010B5FFF79BFE0024064BE200D3181B79AC
:103AF000043B012B02D8E0B2FFF7A2FF0134FF2CF8
:103B0000F2D110BD301B0020F7B50E0000247F2538
:103B10000190194BE200D1180979062901D0032937
:103B200026D1985883682B401C2B21D1C3681A00DA
:103B30002A40042A1CD102692A40192A18D11B0ADA
:103B400001339B000C30C018FEF758FC070005F04D
:103B500003F80023B0420BD19E4206DD019AF95CC6
:103B6000D25C914204D10133F6E7E0B2FFF768FF7F
:103B70000134FF2CCDD1F7BD301B002070B5FEF70E
:103B800043FA184B1A68904201D200221A601A6850
:103B90001549821A8A4223D918600020FEF70EFBCD
:103BA000444244416042072404430020FEF71AFBCC
:103BB000002810D0082600250C4BEA00D3181B79EA
:103BC0009C4201D0B34202D1E8B2FFF739FF013580
:103BD000FF2DF1D104E0631C02D001267642EAE712
:103BE00070BDC046600C00200F270000301B002075
:103BF00037B500240500FFF711FE01A80194FEF778
:103C0000CBFA21002000FEF701FEFEF77FFFFEF752
:103C1000FDFAFEF7FCFAFFF7CDF8FEF721FAA54210
:103C200004D0FEF74BFB0248FFF7E8FE37BDC04665
:103C30001FA20000002310B501001A001120FFF799
:103C4000B9FD10BD07B56B46197069465A7013125D
:103C50008B701314120ECB700A716B460100052293
:103C60001320FFF7A7FD07BD10B50A0001001220C1
:103C7000FFF7F2FD10BD70B5050008000C003230F2
:103C8000FFF7AAFC2B00220000211B20FFF792FD6A
:103C900070BD10B50C000300110014202200FFF7C6
:103CA00089FD10BD70B506000020FFF729F900243A
:103CB000FF25002810D003681A142A40152A05D1C0
:103CC0001B122B40B34204D1040002E01D2A00D194
:103CD0000024FFF715F9ECE7200070BDF0B5802750
:103CE0009DB0FFF75FFCB64DB64C2868FF00391A4F
:103CF0002018FEF7B3FA2B680600C3182B60002BC0
:103D000000D1D9E1002E0DDD2868391A2018FEF700
:103D1000A5FA2B6806001B182B60FEF775F9AA4B55
:103D20001860EFE72378FA2B00D00CE12B68022B08
:103D300006DCFFF723FC002800D1BDE10120B6E13D
:103D40006078A5780238182800D9FAE002F008FC5B
:103D50000D1E22262932F93D67F96F83D4E5F9F962
:103D6000F9F9F9F9F9F9F9F9F300FF2D00D1E8E0D3
:103D70002800FFF703FE00229449EB005A50CB18AD
:103D80001A7129000092130013204DE02800FFF75C
:103D900057FED6E02800FFF7F1FDD2E0FFF7A0FEC6
:103DA000CFE0FFF73BFD0020FFF722FF8848FFF739
:103DB00025FEC6E0632D00D9C3E0864BAA00D25889
:103DC00029001520FFF748FDBBE000242000FFF785
:103DD00069FF071E03D10134642CF7D1B1E008302C
:103DE00004F0BAFE06000530FFF7F6FBFB20FFF7F4
:103DF0008FFB1D20FFF78CFBE0B2FFF789FBF0B2D1
:103E0000FFF786FB3012C0B2FFF782FB0025AE42FF
:103E1000E1DD7B19187AFFF77BFB0135F7E700211D
:103E20001D200B000A000091FFF776FA89E0FEF7EB
:103E300005F903AC684A64210090684B200004F047
:103E400025FE02232000237004F086FE23000200DA
:103E50000021162073E000245C4AE300D558002DB1
:103E600046D06B689E00701DFFF7B6FB2B00002547
:103E70003200083321000120FFF79CFC0020FFF7EF
:103E80003FF82E002F0000281DD0FF2103681A12D2
:103E90000A40A24214D11A140A400B2A07D10B403F
:103EA0000DD0012B09D0022B00D103E108E0132A29
:103EB00006D100252E002F0002E0060000E00700DA
:103EC000FFF71EF8DFE7002E04D0320001212000AA
:103ED000FFF796FB002D04D02A0002212000FFF7F7
:103EE0008FFB002F04D03A0000212000FFF788FB51
:103EF0000134FF2CB0D124E00024FFF78FFC220016
:103F0000210000942300DA20FFF706FAFF222100A7
:103F1000D2002E4804F0F3F913E0012D02D1FFF78F
:103F200015F90EE0022D02D1FFF75AFA09E001203F
:103F3000FFF75EFE05E0002329001A001A20FFF7B4
:103F400039FC0320B3E0FB2B00D0F7E62A68042AF3
:103F500000DCEEE62679E078214B360206439E42ED
:103F600000DDEBE6331D9A4200DCE2E6E35CFE2B6B
:103F700000D0E3E66378A578711E1B2B5DD004D8D2
:103F8000012B08D0082B2DD090E01D2B64D058D3E6
:103F90001E2B7BD08AE0FF2D00D187E02800FFF7A1
:103FA000EDFC67790634B31E290000943A000A201C
:103FB000FFF7B2F9054BED00E8505D192F7175E080
:103FC000680C0020700C00206C0C0020301B0020BE
:103FD0002EA200002823002045A2000040A20000DD
:103FE000F6030000632D61D86079022813D00328FE
:103FF0001BD001285AD1A71D7A78A479BB78120268
:1040000022431B0413431A00FB78AD001B06134325
:104010005B0003430EE0002948DDB11EA01DFEF742
:10402000D1F9264BAD00E85040E0A379AD005A1E0F
:1040300093419B00214AAB5038E0601DFFF764FDBF
:1040400034E06279FF2D31D0022A2FD80634B31E16
:10405000009429000B2016E00B1E632B00DD632368
:10406000002203A8934204DDA1184979815401324A
:10407000F7E7D9430022C917194041180A70009088
:10408000290015200133FFF747F90FE0012D0DD16D
:1040900000290BDD6379002B03D0322B02DD3223A4
:1040A00000E02B0064225343054A1360701DFFF7A4
:1040B0003DFA01E0050003E71DB0F0BD2823002014
:1040C000040000200120704710B5064C200000F0CD
:1040D00007FB0549200000F027FB0122034B1A6073
:1040E00010BDC046A0100020801A060078100020E5
:1040F00010B501210D20FDF7A5FF01210E20FDF7D0
:10410000A1FF00210F20FDF79DFF044C200000F0CF
:1041100023FA1021200000F03BFA10BD8C10002083
:1041200010B504680D20E30703D56410FF2C03D9F4
:104130001720FCF709FA06E0FFF7DAFFE1B20248C0
:1041400000F048FA002010BD8C10002010B5FFF7D9
:10415000CFFF0021034800F03DFA0123400018433F
:1041600010BDC0468C10002010B5034A072103483B
:10417000FFF77CFA10BDC0463C0100204CA20000B5
:10418000F8B5012306681E4205D045681D4202D0DD
:1041900084681C4201D10D2004E076106D10802E41
:1041A00003D91520FCF7D0F91DE01620FF2DF9D812
:1041B00064101720FF2CF5D80B4B1B68002B01D186
:1041C000FFF782FF094FF1B2380000F035FBE9B28A
:1041D000380000F046FAE1B2380000F042FA380048
:1041E00000F094FB0020F8BD78100020A010002003
:1041F000F7B501242300A04237DD0A68144234D009
:104200001B4B55101B684C68002B01D1FFF75CFF5E
:104210000127184EE9B2300000F00EFB3C4205D0F9
:104220003C413000E1B200F01CFA1AE003252540C1
:1042300017D1042C15D90F2322681340062B10D157
:1042400013090193019B9D420BDAAB00E3185968F7
:10425000394204D04910C9B2300000F002FA0135E9
:10426000F0E7300000F052FB00231800FEBDC0460E
:1042700078100020A0100020144B70B51B680500BA
:104280000E00002B01D1FFF71FFF114CEDB22900EA
:10429000200000F0D1FAF1B2200000F0E2F9002194
:1042A000200000F0D5FA002801D040420CE00122A5
:1042B0002900200000F0BBFA200000F0C8F9002817
:1042C000FAD0200000F0C8F970BDC0467810002078
:1042D000A010002010B501240368234202D04168D9
:1042E000214201D10D2004E058104910802803D943
:1042F0001520FCF729F907E0FF2901D91620F8E776
:10430000FFF7BAFF4000204310BD10B50721182069
:10431000FFF7B2FF7F2801DD0138FF3803007F334C
:1043200001DA7F20404264237F215843494202F052
:10433000ABF9012340424000184310BD10B50821DD
:104340001820FFF799FFC30F1818012340101530EC
:104350004000184310BD10B505211820FFF78CFF51
:104360007F2801DD0138FF3803007F3301DA7F2029
:10437000404264237F215843494202F085F90123DA
:104380004000184310BD10B503211820FFF774FF3B
:104390007F2801DD0138FF3803007F3301DA7F20F9
:1043A000404264237F215843494202F06DF90123C2
:1043B0004000184310BD0000F8B501263400B0429B
:1043C00036DD0F683E4233D04D68AB0730D1042D47
:1043D0002ED90F232A681340062B29D1154B1B68B1
:1043E000002B01D1FFF770FE0024354204D12B6869
:1043F0001C09202C00D920240F4E7F10F9B2220076
:10440000300000F014FAA700EF19AF420DD03000D1
:1044100000F01DF90028FAD0300000F01DF901234A
:104420004000184368600435EFE70120640004434E
:104430002000F8BD78100020A01000200020704758
:104440000020704700207047002070470020704710
:104450000020704700207047002070470020704700
:104460000020704700207047002070477047704759
:104470007047000010B5034A0C210348FFF7F6F817
:1044800010BDC046740100208DA2000010B5FDF7DC
:10449000CBFE0648FDF736FFFFF75AF90448FFF751
:1044A000ADFAFEF7A1FFFFF71BFB10BD46050000AC
:1044B00003A3000010B5FDF741FD10BD70B5002548
:1044C00004AC24780573A94205D10A4B0A4A23217A
:1044D0000A4803F08BFE01600949920052589B0084
:1044E00002715B588371A3005B588560437102239E
:1044F000C37170BD58A300001BA3000066A3000099
:10450000ECA30000037B002B04D14373837303618E
:1045100001330373704700001FB50191A0210024EF
:104520000068C900D2B24450012A07D0A24203D089
:10453000032A05D1042202E0022200E006221343EE
:10454000034A8350034B019AC250012343501FBDBD
:10455000540500002405000010B50400FFF7D2FF49
:10456000A1222368A179D20099506179064A2000DE
:104570009950217904329950044B19685A689B6804
:10458000FFF7CAFF10BDC0460C05000080100020D8
:104590004BB2002B0CDB80233F290CD81F290CD8F1
:1045A0000F290CD807290CD803290CD81B060BE0BF
:1045B00080239B0408E0DB0406E01B0504E05B05A8
:1045C00002E09B0500E0DB050168014A8B50704763
:1045D000240500000368074A99501A00FC32D1688C
:1045E0000029FCD0A321C90058580023C0B2D360D1
:1045F0007047C0461C05000007B58022074BD20556
:104600001A6000229A6002321A7111230E3200934E
:10461000034905330348FFF751FF07BD8010002011
:10462000003000408C100020F8B505000E00170087
:104630000024BC4208D02B68315D1B6828009847D5
:10464000002801D00134F4E72000F8BD704710B510
:104650001C3001F02BFB10BD10B51C3001F018FB15
:1046600010BD70B5437E0D00002B05D064300400F2
:1046700001F02BFB002801D0002004E020002900DD
:1046800001F0F7FA012070BD10B51C3001F014FBE9
:1046900010BD0000F7B50193FA23002504009B002C
:1046A00083600D4B4560083303601C300F0016001B
:1046B00001F0D4FA2000643001F0D0FA074AB600C5
:1046C000B35827616375019B20009B009B5865765A
:1046D000A576A375FEBDC046CCA30000ECA30000E8
:1046E0000123A022C375837D0C49C133FF33D2055A
:1046F0009B009950437DC133FF339B009950CC21DF
:104700000369074A490499500521243A9950817D4B
:1047100008329950417D034A995070470C060000B9
:10472000240500000C050000A02302690020DB0026
:10473000D0500948814204D90848814204D9CD218A
:1047400003E0CC21490401E08021C9040448115050
:104750000521D1507047C046A086010090D00300CB
:1047600024050000F7B5050000200C0001938242EB
:104770005CD0161E402E00D940262F001C37380072
:1047800001F082FAB1222B69D20080219C500122D3
:1047900089005A50A97E002901D11A621A600024AA
:1047A000731E2A69A34206D1019B002B03D08023EC
:1047B00002219B00D150012313621300FC33D968FE
:1047C000002902D1996A0029F9D0996A00290AD1F1
:1047D000D960A323DB00D1583800C9B2013401F0FD
:1047E00048FAA642DCD8019A2B69002A04D11A00A3
:1047F000FC32916A00290AD001210022AA7659616F
:104800001900FC3188680028FCD08A6007E001218B
:10481000A976D961D16C0029FCD00021D164FC3388
:104820009A6A002A01D000229A62E0B2FEBD10B559
:104830000123FFF797FF10BD0300AC3310B5040050
:104840001970643001F020FA0123637610BD000076
:10485000F8B500220D0001004276AC310369040076
:104860000878B121C9005850802189005A5001327E
:104870001A629A6026006436300001F017FA0028A8
:104880000ED03000276901F003FA1E4BF85023695F
:10489000FC331A6A002A0CD19A6A002AF9D008E07F
:1048A0002369002D0AD11A00FC32916A002905D132
:1048B0000EE09A6A002AF3D11A62DBE701225A61FC
:1048C0001A00FC3291680029FCD00021916006E0BA
:1048D0000121D961D16C0029FCD00021D1641A00DA
:1048E0000020FC32916A81420BD0074990625A58ED
:1048F00002305A50824204D0043A534253410230AB
:10490000C01AF8BD1C050000C404000010B5012148
:10491000FFF79EFF10BD000010B5132312220249BD
:104920000248FFF7B7FE10BD00400040A010002075
:1049300030B5214A4B0087B05B0893421EDD1F4A09
:10494000934205DD02000B0003F012F807B030BD02
:1049500002AA00F035F803231840049A059B0128A9
:104960001ED0022811D000281FD00298039900F011
:104970002DFA80231B069C466144E7E700230022B2
:104980000093002300F088FFE0E7012402980399D8
:10499000009400F081FF80231B069C466144D5E70C
:1049A0000298039900F012FAD0E7012402980399C3
:1049B000009400F071FFC9E7FB21E93FFFFFEF7FA3
:1049C000F0B54E4657464546E0B4DC4B4E0090B03D
:1049D0001700894676089E4200DC81E0D84B9E4253
:1049E00020DCD84A002900DC89E1D74B02F0C0FF67
:1049F000D54B04000D009E4200D18AE0D34AD44B2F
:104A000002F0B6FF02000B0020003A607B60290034
:104A100002F0AEFFCD4ACE4B02F0AAFFB860F960BB
:104A2000012066E0CB4B9E4200DC8DE0CA4B9E42EB
:104A300065DCCA4932158A46924453461B05F51A6D
:104A40002900040003F0E8FA03F01CFB02000B004D
:104A5000200029000A920B9302F08AFF0022C04B2B
:104A600002F00CFD0290039103F0D6FA03F00AFB6A
:104A700004000D0002000B00029803990C940D95A0
:104A800002F076FF0022B64B02F0F8FC0022002371
:104A90000E900F9101F002FF002800D14CE100239D
:104AA00000222000290001F0F9FE0222431E984155
:104AB000131AAC4A3900019202220AA80092524607
:104AC00000F09EFA4B46002B13DA80221206944621
:104AD0007B68404263447B60FB686344FB6008E0A2
:104AE00002000B003A607B60002200230020BA60C5
:104AF000FB6010B01CBC90469946A246F0BD020077
:104B00000B0002F035FFB860F96038607960002072
:104B1000EFE7D3228E4B520502F02AFF924A934BC5
:104B200004000D0002F024FF02000B0020003A6098
:104B30007B60290002F01CFF8B4A8C4B02F018FFAF
:104B4000B860F9600120D4E700F056FF884A894B2D
:104B500004000D0002F092FC0022874B02F054F892
:104B600003F05AFA804603F08DFA764A764B0690A7
:104B7000079102F083FC02000B002000290002F0E4
:104B8000F7FE734B02900391069807996F4A02F063
:104B900075FC434604000D00049405951F2B30DC82
:104BA000013B764A9B009B589E422AD002000B0094
:104BB0000298039902F0DCFE02000B0005000C00D5
:104BC0003A607B60029803992A00230002F0D0FE2D
:104BD000049A059B02F0CCFE06000B003200BA607E
:104BE000FB604B464046002B00DB82E780231B0620
:104BF0009C46644461443D607C60BE60F960404214
:104C000077E7049A059B0298039902F0B1FE0B0026
:104C100002003A607B604B0036155B0D05000C000E
:104C2000F31A102BCEDD06980799D322484B520574
:104C300002F024FC04000D0002000B00029803990E
:104C400002F096FE02000B00029803990892099365
:104C500002F08EFE22002B0002F08AFE04000D00FE
:104C600006980799404A414B02F008FC22002B00AD
:104C700002F07EFE02000B0004900591089809994D
:104C800002F076FE02000B003A607B604B005B0D89
:104C9000F61A0500089A099B0C0002920393312E24
:104CA00090DD06980799B822304B920502F0E6FB9A
:104CB00004000D0002000B000298039902F058FE58
:104CC0000A0001001300029103920200089809995A
:104CD00002F04EFE22002B0002F04AFE04000D00FE
:104CE00006980799264A274B02F0C8FB22002B00A2
:104CF00002F03EFE02000B000492059358E7124BAF
:104D000001F082FF104B04000D009E423CD00F4A80
:104D10000F4B01F079FF02000B0020003A607B602E
:104D2000290002F025FE094A094B01F06DFFB86029
:104D3000F96001204042DCE60323BAE6FB21E93FAB
:104D40007BD9024000004054FB21F93F3163621AD5
:104D500061B4D03DFB213941FFFFEF7FEAFBFFFF4C
:104D600000007041E8A400007370032E8A19A33B71
:104D700083C8C96D305FE43F0000E03F68A40000D5
:104D8000C14920259A837B39D3220D4B520501F06E
:104D90003BFF0C4A0C4B04000D0001F035FF0200F4
:104DA0000B0020003A607B60290002F0E1FD054A1B
:104DB000054B01F029FFB860F9600120404298E6F8
:104DC00061B4D03D7370032E8A19A33BF0B54F46F2
:104DD0004646C0B487B000920193754B4F008146A0
:104DE00088467F089F4263DC03F016F9002800D153
:104DF000DAE04A4643464846414602F03FFB04009B
:104E00000D006C4A6C4B02F039FB6C4A6C4B01F0A4
:104E1000FBFE22002B0002F031FB6A4A6A4B02F0D3
:104E2000A7FD22002B0002F029FB684A684B01F025
:104E3000EBFE22002B0002F021FB664A664B02F0DB
:104E400097FD22002B0002F019FB644A644B01F02D
:104E5000DBFE22002B0002F011FB029003910022E6
:104E6000604B2000290002F009FB029A039B060018
:104E70000F002000290002F001FB009A019B0400B2
:104E80000D004846414602F0F9FA02000B002000EE
:104E9000290002F06DFD02000B003000390002F025
:104EA00067FD02000B0000204F4902F061FD70E039
:104EB00002000B0002F0E2FA04000D003D4A3E4BF6
:104EC00002F0DCFA3D4A3E4B01F09EFE22002B0030
:104ED00002F0D4FA3B4A3C4B02F04AFD22002B0080
:104EE00002F0CCFA394A3A4B01F08EFE22002B0038
:104EF00002F0C4FA374A384B02F03AFD22002B0088
:104F000002F0BCFA354A364B01F07EFE2B0022003F
:104F100002F0B4FA354B029003919F429FDD344B6F
:104F200000229F423ADC334900207B182E491600AC
:104F30001F0002F01DFD049005910022294B200066
:104F4000290002F09BFA32003B0002F011FD029AA8
:104F5000039B06000F002000290002F08FFA009A40
:104F6000019B04000D004846414602F087FA02000A
:104F70000B002000290002F0FBFC02000B003000B7
:104F8000390002F0F5FC02000B000498059902F0CC
:104F9000EFFC07B00CBC90469946F0BD164B0026BE
:104FA00004920593154FC8E700200F49F1E7C0466A
:104FB000FFFF3F3ED43888BEE9FAA8BDC4B1B4BDF6
:104FC0009EEE213EAD529C804F7E923E9015CB19B5
:104FD000A001FA3E7751C1166CC1563F4C5555554C
:104FE0005555A53F0000E03F0000F03F3233D33F6E
:104FF0000000E93F0000E0FF0000E73F0000D23F73
:10500000F0B556464D4644465F46F0B48E4CA54436
:10501000099119001400A89A0B938C4B9200D25856
:105020000B000290013BE01E18211D0016000892A3
:10503000009301F029FBC3430200DB171A40130061
:10504000110001330E929A009B1ADB001B19069384
:105050004C1B761918D4A99BA5009C46361926AF7F
:105060006544013607E0286803F00CF8013403C7F3
:105070000435B44208D0002CF5DA002000210134B8
:1050800003C70435B442F6D1089B002B01DA00F0C7
:10509000F9FB76AB19008B4626AA9146089A0A932B
:1050A0000132D2009344029A9A469046009BDB005C
:1050B000994408339844009B002B00DAB5E14C4634
:1050C00000260027029D2268636803CD02F0D6F90E
:1050D00002000B003000390001F096FD083C06008C
:1050E0000F004545EFD15346C0C39A4608239C465E
:1050F000E144DA45DFD10899554A0B0094466344F0
:105100009B0012A884461A000298624483460D92BE
:105110000B9A0433D200634493440F930591059A8C
:105120000A98D30019000C938C46030063441E6850
:105130005F68002A34DD12AB99461300454A804669
:1051400094466344DB00984474AB9A460022424B79
:105150003000390002F092F902F05EFF02F092FF97
:1051600000223E4B04000D0002F088F902000B0003
:105170003000390002F0FCFB02F04EFF4B4601C349
:105180009946434620001A685B68290001F03CFDFF
:1051900008235B429C46E04406000F00D045D5D171
:1051A000069B30001A003900994600F0C1FCFF232D
:1051B00000229B0504000D0002F060F900F020FCC5
:1051C0000022274B02F05AF902000B0020002900B0
:1051D00002F0CEFB04000D0002F01EFF804602F03C
:1051E00051FF02000B002000290002F0C1FB4C46D9
:1051F00006000F00002C00DCF8E0059B18205A1E6A
:10520000920012AB9B58001B190001418844814059
:105210005B1A12A98B501722121B13410793079B8D
:10522000002B4BDD01239C46059BE044002B00DC5A
:10523000F2E280251096119712AB00210024094854
:105240006D04059F19E0C04684FDFFFFF0A5000036
:10525000FEFFFF3FFFFFFF1F0000703E0000704198
:1052600000002040FFFFFF00002A02D0AA1A1A60A7
:105270000134013104338F4209DD1A68002CF3D068
:10528000821A01311A60012404338F42F5DC109E2A
:10529000119F069B002B0EDD012B00D1B1E0022BEC
:1052A00009D1059B12A95A1E920012AB9B5810936C
:1052B0009B029B0A8B50079B022B7ED0002300226F
:1052C0003000390001F0EAFA059B002800D16BE2BA
:1052D00008995A1E914210DCBF490F988C4612A9BA
:1052E00063448C4600219B0063441C68043B2143BB
:1052F0008342FAD1002900D0B5E0089B12AA013BF5
:105300009B00D358002B00D084E201220D9B043B6C
:10531000596801320029FAD005990B008C460133F7
:1053200062440792934242DC0E9A9446A99A6344DF
:1053300092460B9A9B00944626AA90469A44059B57
:105340000A9A6344DB0098440C9B94469946079B59
:10535000E144DB00634405935346186802F092FE73
:10536000434618605960009B002B23DB444600260F
:105370000027029D2268636803CD02F07FF80200D7
:105380000B003000390001F03FFC083C06000F0024
:105390005D45EFD14B469E60DF6004239C4604339D
:1053A000E2449C46059BE144E0449945D4D1079BE7
:1053B0000593B4E600260027ECE732003B0000200E
:1053C000864902F0D5FA06000F00002C00D175E7DF
:1053D000069A0020814900F0ABFB02000B00300070
:1053E000390002F0C5FA06000F0067E7069B002BA4
:1053F00012D1059B12AA013B9B00D558EB150793D0
:105400000DE7059B12A95A1E920012AB9B581093F0
:105410005B025B0A8B504EE70022714B01F062FA8F
:1054200000280ED10023079348E7534600260027A3
:10543000C0C39A4608239C46E144DA4500D03AE6C8
:1054400059E601239C4601330793059BE044002B5A
:1054500000DDEEE632003B000020604902F088FAF1
:1054600006000F002AE743460B93069B12A8183B41
:10547000190006939300C3580092002B0FD1564891
:105480001300844612A8634484469B006344043B93
:105490005868013A18390028F9D000920691069A06
:1054A00000204E4900F044FB009B04000D00002B3F
:1054B00000DAB3E112AA94469F00DB0067449C46E1
:1054C0000A9A0593624493461600386802F0DAFDA2
:1054D00022002B0001F0D2FF424B306071600022AD
:1054E0002000290001F0CAFF083E74AB04000D0043
:1054F000043FB342E9D100239A464EAB0293089B86
:1055000099464B4600260027002B21DB8020364B96
:105510005D469846C005354900260027002408E06E
:1055200008239C460835E044A24511DB4346186831
:1055300059682A686B6801F0A1FF02000B00300077
:10554000390001F061FB013406000F00A145E7DAE4
:10555000029A53469446DB0063441E605F60012359
:105560009C46093BE2449C4674ABE3449B45C8D14E
:10557000029B9946A89B022B00DD82E0002B37DCC2
:105580001DD1059B00254B441E0000243268736822
:105590002800210001F038FB009B05000C00083EAC
:1055A0005A1E0092F2D2079B002B03D080231B06C9
:1055B0009C4664442A00230009990A604B60072036
:1055C0000B9B18409F239B009D443CBC90469946F2
:1055D000A246AB46F0BDC046FFFFFF3F0000F03FD4
:1055E0000000E03F0000703E00A60000FB21F93FF4
:1055F000059B00204B441E0000214CAF32687368AD
:10560000083E01F001FBBE42F8D1079B002B24D0DD
:105610008023099A1B06CB18106053600B00020010
:105620004E984F9902F0A4F9009B002B0BDD01244A
:1056300050AD0CCD01F0E8FA009B0134A342F8DA3A
:10564000079B002B03D080231B069C4661440B0064
:10565000020009998A60CB60B1E702000B00099C47
:10566000226063600B0002004E984F9902F080F9AF
:10567000009B002BDBDC0B00020009998A60CB60E9
:105680009DE7A89B032B9AD1009B002B00DCE3E055
:105690007E4A059B94464B441E685F68009B6344AA
:1056A0009A46DB004B4498464CAB9B4643465C68AD
:1056B0001B681800210032003B000290039101F0AA
:1056C000A3FA04000D0002000B000298039902F0F7
:1056D0004FF93B00320001F097FA43469860D960D9
:1056E0001C605D6008235B429C46E04426002F005E
:1056F000C345DBD1009B012B00DCADE0059BC84618
:105700004B441E685F685346DB009B46D8444346C3
:1057100030005C681B683900009301941A00230074
:1057200001F072FA04000D0002000B0000980199CC
:1057300002F01EF93B00320001F066FA4346986021
:10574000D9601C605D6008235B429C46E0442600F3
:105750002F00C145DBD15D460027002408354D44AC
:1057600050AE2A686B683800210001F04DFA083D00
:1057700007000C00AE42F4D1079B002B71D0099AB0
:105780004E994B461160802109068C465B6849465C
:10579000634453604B46DB688968634464449160AA
:1057A000D360176154610AE7994643460B93069B01
:1057B00030005A42390000F0BBF90022344B04009B
:1057C0000D0001F08FF8002832D0324B002220006B
:1057D000290001F053FE02F01FFC4A460600970024
:1057E00002F050FC00222A4B01F048FE02000B00A0
:1057F0002000290002F0BCF802F00EFC12AAD051E1
:105800004A46069B0132183300920693930012AA6F
:10581000D65044E601227FE500243AE5A89B022BFE
:1058200014DC002B0FDC00D0C9E600250024BAE60A
:105830004B46200029009E0002F0EEFB12AB98516F
:105840004B4600932BE600200021DEE64EAB994646
:10585000A89B032B00D0B2E6079B00270024002B57
:105860008DD14E9A4F9B09990A604B604B469A68BE
:10587000DB68009201938A60CB603A0023000A61E2
:105880004B619CE676AB0A9335E4C046FFFFFF1FF1
:10589000000070410000703EF0B54F464646C0B46F
:1058A00087B000920193464A4B00814688465B08C8
:1058B000934205DC02F0B0FB4146031E484666D029
:1058C0004A4643464846414601F0D8FD04000D00D3
:1058D00002000B004846414601F0D0FD394A3A4BE0
:1058E00006000F002000290001F0C8FD374A384BA0
:1058F00002F03EF822002B0001F0C0FD354A364B85
:1059000001F082F922002B0001F0B8FD334A344B3C
:1059100002F02EF822002B0001F0B0FD314B324A8C
:1059200001F072F90E9B02900391002B34D0009885
:10593000019900222D4B01F0A1FD029A039B0490D6
:1059400005913000390001F099FD02000B00049828
:10595000059902F00DF822002B0001F08FFD009A4E
:10596000019B02F005F8224A04000D00214B300093
:10597000390001F083FD02000B002000290001F036
:1059800043F902000B004846414601F0F1FF07B021
:105990000CBC90469946F0BD02000B002000290087
:1059A00001F06CFD124A134B01F0E2FF32003B00A4
:1059B00001F064FD4A46434601F026F9E7E7C04698
:1059C000FFFF3F3E7CD5CF5A3AD9E53DEB9C2B8A71
:1059D000E6E55A3E7DFEB157E31DC73ED561C119CC
:1059E000A0012A3F1111813FA6F810110000E03FED
:1059F000495555555555C53F49004B081900704745
:105A0000454AF8B5564692464B005B0D9A444D46C2
:105A10005F4644465246F0B4894605000C000E002D
:105A20000700132A22DC002A47DB52463B4B134176
:105A300098460B0042461340034311D0384A394B75
:105A400001F0E2F80022002300F042FF002805D018
:105A5000002C41DB4E46434600279E433800310070
:105A60003CBC90469946A246AB46F8BD5246332A06
:105A700008DD8023DB009A45F2D102000B0001F023
:105A8000C3F8EDE7284A9446012263445242DA40C3
:105A900093460242E4D0224A224B01F0B5F800229C
:105AA000002300F015FF0028D8D0002C1ADB5B463D
:105AB0004E469F4338003100D2E7194A194B01F096
:105AC000A3F80022002300F003FF0028C6D0002C1A
:105AD00016DB00270026C1E7802352465B031341F3
