:1000000000400020F9420000394300003B4300005B
:1000100000000000000000000000000000000000E0
:100020000000000000000000000000003D43000050
:1000300000000000000000003F43000041430000BA
:1000400043430000434300002D4B000043430000A6
:10005000434300000000000043430000434300000E
:100060004343000071450000434300004343000048
:100070004343000043430000434300004343000068
:1000800043430000D14B00004343000043430000C2
:100090004343000043430000434300004343000048
:1000A0004343000043430000000000000000000044
:1000B0000000000000000000000000000000000040
:1000C000054B0648033310B51B1A062B03D9044B06
:1000D000002B00D0984710BD3C0100203C010020BF
:1000E000000000000648074910B5091A8910CB0F17
:1000F0005918491003D0044B002B00D0984710BD6D
:100100003C0100203C0100200000000010B5074C1D
:100110002378002B09D1FFF7D3FF054B002B02D02A
:10012000044800E000BF0123237010BD3C01002003
:10013000000000009C710000094B10B5002B03D09B
:100140000849094800E000BF08480368002B02D1B5
:10015000FFF7C8FF10BD064B002BF9D09847F7E713
:1001600000000000400100209C71000038010020C8
:1001700000000000164B002B00D1144B9D4640227E
:1001800092029A1A924600218B460F461348144A4F
:10019000121A04F08CFF0F4B002B00D098470E4B27
:1001A000002B00D098470020002104000D000D48CE
:1001B000002802D00C4800E000BF04F035FF20000A
:1001C000290004F0CBFC04F009FFC0460000080041
:1001D0000040002000000000000000003C01002062
:1001E000C01F0020000000000000000001230340A9
:1001F0000200181E04D1042A03D91068000900E087
:100200000020704710B50400FFF7F0FF0300002046
:1002100083420BD0013B9B00181DE2181279002A83
:1002200003D001338342F8D100E0180010BD012251
:10023000016810B5114201D0002903DA102000F046
:10024000E3F903E04910062001F0F4FE10BD016857
:1002500010B5CB0701D5002903DA102000F0D4F93E
:1002600006E04910033189100022052001F0E2FE6A
:1002700010BD70B50568AB0728D1042D26D90F2312
:100280002A6846681340062B09D12800FFF7AEFF05
:10029000012383421DDC9A00AE500133F9E7052BA0
:1002A00014D1F30703D4132000F0AEF912E0761056
:1002B000FF2EF8D82800FFF799FF2C1D230080009F
:1002C0002018984205D91E700133FAE70B2000F080
:1002D0009BF9002070BD70B50468E30701D41120BC
:1002E0002DE04568AB0729D1042D27D90F262B68AF
:1002F00064101E40062E0BD1002C04DD2800FFF7F1
:1003000075FF844201DD122019E0A400605918E055
:10031000331F012B12D82800FFF768FF8000042E3E
:1003200002D12800FFF76EFF002CECDDA042EADBD3
:1003300001232C19E0784000184302E00B2000F064
:1003400063F970BDF8B5012304681C4201D1112086
:100350002FE00325466835402AD1042E28D90F23E3
:100360003268641087681340062B0BD1002C04DD23
:100370003000FFF73BFF844201DD122019E0A400AA
:10038000A75113E0052B13D1002CF6DD3000FFF749
:100390002DFF80008442F0DC01231F4201D1132095
:1003A00007E07F10FF2FFAD83419E770280002E029
:1003B0000B2000F029F9F8BD006810B5830717D1AC
:1003C000042815D90F2302681340062B02D1FFF72A
:1003D0000DFF0BE0052B05D1FFF708FFC00001233F
:1003E000184308E0042B03D1FFF70CFF4000F6E7A9
:1003F0000B2000F009F910BD10B50324006804407B
:1004000006D1042804D90F2302681340042B01D01D
:100410000E2011E001F04AFE0378233B5942594176
:1004200010224018210005F01BFB80239B05C218F9
:10043000054B9A4203D9142000F0E6F802E00123AC
:100440004000184310BDC046FFFFFF3F10B5012418
:100450000368234202D04268224203D10D2000F0FB
:10046000D3F808E004495B1052101B070A401343FD
:1004700018684000204310BDFCFFFF0F01210368F6
:1004800010B50B4205D042680A4202D0806808428B
:1004900003D10D2000F0B8F808E005495B105210B8
:1004A0001B070A40401013431860002010BDC046CF
:1004B000FCFFFF0F012303400200181E01D0501063
:1004C00002E00D22014B1A707047C046580100200F
:1004D000012303400200181E04D1042A03D9106826
:1004E000000900E00020704770B50D000400FFF720
:1004F000EFFF86002800FFF7EBFF830000209E42FD
:100500000ED1231D9E1904351A009E4207D9297861
:100510001278013301358A42F6D0002000E0012034
:1005200070BD0000F0B585B00393019002912D4E8F
:100530002D4B002A02D002223270013A00251A60A7
:100540001B68F554019B9D424ADA029AAB00D058D1
:10055000254B1C68C8239B0037191C1B012318421C
:1005600002D04310214A1FE0214A002802D004286B
:1005700005D1204A2100380005F060F918E0042870
:1005800010D90F2302681340042B04D101F08EFD13
:10059000194A030008E0062B05D1FFF799FF174A17
:1005A000030001E00123164A2100380005F046F956
:1005B000300005F0A9F9039B0B4A002B01D1106014
:1005C0000CE0019B013B9D42F9DA0E4B9842F6DCB0
:1005D000431C1360202232540022F2540135B1E74B
:1005E00005B0F0BD64010020600100202D66000010
:1005F0000066000006660000746A00000B660000DA
:100600001C6600001F030000014B1870002070479B
:100610005801002070B502F00FFE094C0100251DA5
:100620001F22280005F077F9280005F06DF9042352
:1006300004308008000118432060200070BDC046CF
:1006400084040020C368F0B59D00836887B05D19FD
:10065000030018330393036902909F00039BDF1983
:1006600043699E000093039B9E19D24B1B78002B7D
:100670000FD17F222B68D0491C1213409B005B587E
:1006800000960435019235E0CA4B1B78002B29D027
:10069000009E029BC74C9B6821780093EA1A029B3C
:1006A00092109B7812021A43029B587802F050FB7A
:1006B0000023029A2370137000960497029B039AFA
:1006C0009B68ED1A0193029BAD10DD60049B9F1A9D
:1006D000029BBF101F61009B9B1A029A9B105361E3
:1006E00001F0F5FB2B68019A1C121340B24A9B00E3
:1006F0009B5804359F46029B587802F021FB00234B
:10070000029A1370D9E7039B3A1DD11AA94B8B2982
:1007100003DD1A22009E1A70BBE71B783C60002B99
:1007200002D0009E1700B4E72B6801991C120B4001
:10073000A1499B005B5817000435DBE7039B3A1D7A
:10074000D11A9C4B8B2903DD1A22009E1A70A0E758
:1007500028681B78291D3860002B03D0009E1700E5
:100760000D0096E76B6801991C120B4092499B00A3
:100770005B5817000835BDE7039B3A1DD11A8D4B16
:100780008B2903DD1A22009E1A7082E7A4001B78D1
:100790002C193C60002B02D0009E170079E72B68D3
:1007A00001991C120B4084499B005B5817000435CB
:1007B000A0E7039B3A1DD11A7E4B8B2903DD1A2239
:1007C000009E1A7065E77D48A40021581B783960A7
:1007D000002B02D0009E17005BE72B6801991C12CA
:1007E0000B4075499B005B581700043582E7043FB6
:1007F000724B3A68A400E2506E4B1B78002B01D07C
:10080000009E46E72B68019A1C1213406A4A9B001F
:100810009B5804356EE7694BA600F058FFF74AFE77
:10082000043F04003868FFF745FE24180120634B9D
:1008300064000443F4505F4B1B78002B01D0009EF2
:1008400027E72B68019A1C1213405B4A9B009B58B8
:1008500004354FE7039B3A1DD11A564B8B2903DD14
:100860001A22009E1A7014E70098039C0121A042EE
:1008700002D901000C3909681B783960002B02D0BD
:10088000009E170005E72B6801991C120B404A498E
:100890009B005B58170004352CE7039B3A1DD11AC7
:1008A000444B8B2903DD1A22009E1A70F1E6009951
:1008B000039881420AD90B000C3B1B6840495B102E
:1008C0006418E41A009BA400E35802E01821197090
:1008D00000233B60374B1B78002B02D0009E170093
:1008E000D7E62B6801991C120B4033499B005B58DB
:1008F00017000435FEE6009B039A93420BD90C3B8C
:1009000019682F4B043FE3184910591A3A68009BA5
:100910008900CA5002E01822264B1A70254B1B781A
:10092000002B01D0009EB4E62B68019A1C121340E4
:10093000214A9B009B580435DCE6009B039A9342B6
:100940001CD9009E1E4B0C3EE4183368009A5B10C5
:10095000E31A9B009858FFF7ADFD043F04903868F8
:10096000FFF7A8FD3168049B4910611A012418188B
:100970004000009B89002043C85002E018220D4B24
:100980001A700C4B1B78002B01D0009E81E62B685F
:10099000019A1C121340084A9B009B580435A9E693
:1009A000039B3A1DD11A034B8B290BDD1A22009EA3
:1009B0001A706EE65801002040660000A01E00205C
:1009C000FDFFFF3F0099A40061581B783960002BA0
:1009D00002D0009E17005CE62B6801991C120B40A8
:1009E000CF499B005B581700043583E6043F009B0A
:1009F0003A68A400E250CB4B1B78002B01D0009E3C
:100A000047E62B68019A1C121340C54A9B009B586D
:100A100004356FE6009BA4001C192368043F386866
:100A20005E10FFF747FD36180120BE4B76001B789D
:100A300006432660002B01D0009E2AE62B68019A0F
:100A40001C121340B64A9B009B58043552E6039B88
:100A5000A4003F1BB34CBB420DD82378002B01D020
:100A6000009E16E62B68019A1C121340AC4A9B00AC
:100A70009B5804353EE6AC4801F08EFA2378002BF3
:100A800001D0009E05E62B68019A1C121340A44A6F
:100A90009B009B5804352DE6A300ED18002C00DACE
:100AA0000BE6A04B1B78002B01D0009EF1E52B68D4
:100AB000019A1C1213409A4A9B009B58043519E670
:100AC0003B1F04931B680593042B04D1A300ED186E
:100AD000002C00DAF2E5934B1B78002B02D0009E2D
:100AE000049FD6E52B68019A1C1213408C4A9B0088
:100AF0009B58049F0435FDE53B1F04931B68059339
:100B0000002B04D1A300ED18002C00DAD6E5854BAC
:100B10001B78002B02D0009E049FBAE52B68019A37
:100B20001C1213407E4A9B009B58049F0435E1E54C
:100B30003A1F13685B10013B002B07DD01215B00AE
:100B4000A4000B4304972D191360B7E5754B1700EC
:100B50001B78002B01D0009E9BE52B68019A1C128C
:100B600013406F4A9B009B580435C3E53A00039B32
:100B70000C32D31A8B2B04DD1A226A4B009E1A709A
:100B800087E5FF2361005B000B4001210B433B60C5
:100B9000029B03989B6824120493ED1A029BAD10EC
:100BA0009B782D021D43009B8D401B1A9B108B4090
:100BB0000B43BB60029B0D437D609C70E4B25B4BBA
:100BC000E4000299E35816008B6056490978002921
:100BD00003D008331D0017005BE51D0001999B68D9
:100BE0000C351C120B404E499B005B5800921700BD
:100BF00080E53B1F1E68039A009B93422AD104970D
:100C00000A20F30716D4B3070DD1042E0BD90F23F6
:100C100032681340042B06D1300001F047FA04F08B
:100C200073FE063006E00720042E03D0002E01D00C
:100C300080208000643001F04FFE002801D1043D87
:100C40003CE5029B3100587802F094F80023029AA8
:100C5000137033E5009B009A0C3B1B6802995B10F4
:100C60009B005B421F00D3180C3B1E601300083B27
:100C70001B68083FD7195A108A70D2B22B49D2008C
:100C80005B0055589B0A029A9B009560ED18009BEB
:100C9000043B1E68039B7610B6009E19214B1B78FF
:100CA000002B00D0F5E42B68019A1C1213401C4A5B
:100CB0009B009B58009604351CE53B1F1868FFF706
:100CC000F9FBA40006003F1B1E2833DC00280EDCC5
:100CD000144B1B78002B01D0009EDAE42B68019A9C
:100CE0001C1213400E4A9B009B58043502E502F08B
:100CF00089FA033E361802F085FA0D4B801B9842A4
:100D0000F9D8084B1B78002B01D0009EC1E42B685A
:100D1000019A1C121340024A9B009B580435E9E4D7
:100D2000406600005801002030660000A816002030
:100D30009F8601000123029A137002F063FA029B5E
:100D40000A3886195E60B8E43B1F1868FFF7B2FBEB
:100D5000A40004903F1B00280EDCCF4B1B78002B17
:100D600001D0009E95E42B68019A1C121340CB4AD7
:100D70009B009B580435BDE4C94B049A009E9A42DF
:100D800003DD1D22C44B1A7083E40123029A137001
:100D900002F038FAFA23049A9B005343029A0A3B62
:100DA0001B18536089E4A300FF1A002320001A00D7
:100DB0003900FFF7B7FBBB4EBB4C3168200001F098
:100DC00025FF3168200001F0DCFFB34B1B78002BBE
:100DD00001D0009E5DE42B68019A1C121340AF4ABB
:100DE0009B009B58043585E4AB4BA4001B783F1B4C
:100DF000002B01D0009E4CE42B68019A1C1213407A
:100E0000A64A9B009B58043574E401F0ABFD01F049
:100E10005EF83B1F1868002823D1083B1868C307F9
:100E200001D5401016E083070FD104280DD90F23F8
:100E300002681340062B02D1FFF74AFB0AE0052B9C
:100E400003D1FFF745FB800004E01922924B009E7E
:100E50001A701EE43A0001214300083A0B43136064
:100E600001E040100138002832DD01224300134325
:100E7000391F0B603B00083B1B681341181A3B00ED
:100E80000C3B1B68134203D08018A400904015E06F
:100E9000990717D1042B15D90F211E683140062957
:100EA00006D101308000C358009AA400A35010E07E
:100EB000052907D118180079A4004000009B1043B1
:100EC000E05006E01922744B009E1A70FFF7E1FB18
:100ED0000435714B1B78002B02D0009EFFF7D9FB25
:100EE0002B68019A1C1213406C4A9B009B580435D6
:100EF000FFF700FCA300039AFB189B1A8B2B01DC65
:100F0000002205E01A22644B009E1A70FFF7C1FB15
:100F1000631E002C03DD3A601C000437F8E75E4BCB
:100F20001B78002B02D0009EFFF7B3FB2B68019AC1
:100F30001C121340594A9B009B580435FFF7DAFBFB
:100F4000A3009C46F81A002C04DC1C22524B0026FD
:100F50001A7015E0002103685B1001268A00825890
:100F6000164003D10D224C4B1A7009E052109342E7
:100F700000DD130001318C42EFDC01265B001E43D3
:100F80006346FF1A444B06601B780437002B02D0DF
:100F9000009EFFF77EFB2B68019A1C1213403F4A0C
:100FA0009B009B580435FFF7A5FBA3009C46F81A4D
:100FB000002C04DC1C22384B00261A7015E000219E
:100FC00003685B1001268A008258164003D10D2267
:100FD000314B1A7009E05210934200DA13000131CC
:100FE0008C42EFDC01265B001E436346FF1A2A4B4E
:100FF00006601B780437002B02D0009EFFF749FBE8
:101000002B68019A1C121340244A9B009B580435FC
:10101000FFF770FB3B00083B1868FFF74BFA3B1FDC
:1010200004901868FFF746FA049AA600BC1B002338
:10103000824200DA04332360174BBF1B1B7804374E
:10104000002B02D0009EFFF724FB2B68019A1C1294
:101050001340124A9B009B580435FFF74BFBA3003B
:10106000FE1A04933B00083B1868FFF723FA3B1F66
:1010700004001868FFF71EFAE20FC317A04253419D
:101080009B003360049BFF1A034B04371B78002B33
:101090000CD0009EFFF7FDFA5801002040660000CA
:1010A00080EE360060010020640100202B68019A68
:1010B0001C121340D84A9B009B580435FFF71AFBBB
:1010C0003B00083B18683B1F1968A300884202D107
:1010D000FB1A042222E004281ED90122104201D06A
:1010E000114219D10326304215D10F2302681A404C
:1010F000042A10D131420ED104290CD90A681340B8
:10110000042B08D1FFF7F0F9431E9841A600BE1B3F
:101110008000306003E0A3000022FB1A1A60BF4B7E
:10112000A4001B783F1B0437002B02D0009EFFF762
:10113000B0FA2B68019A1C121340B74A9B009B58C7
:101140000435FFF7D7FA3B00083B18683B1F1968C6
:10115000A300884202D1FB1A002223E004281FD9F1
:101160000122104201D011421AD10326304216D179
:101170000F2302681A40042A11D131420FD10429E9
:101180000DD90A681340042B09D1FFF7ADF903000C
:1011900058425841A600BE1B8000306003E0A30007
:1011A0000422FB1A1A609D4BA4001B783F1B0437D6
:1011B000002B02D0009EFFF76CFA2B68019A1C12DC
:1011C0001340954A9B009B580435FFF793FAA30000
:1011D000FE1A04933B00083B1868FFF76BF93B1FAE
:1011E00004001868FFF766F9E217C30F8442534101
:1011F0009B003360049BFF1A884B04371B78002B3D
:1012000002D0009EFFF745FA2B68019A1C1213408A
:10121000814A9B009B580435FFF76CFA3B00083B62
:101220001868FFF747F93B1F04901868FFF742F969
:10123000049AA600BC1B0023824200DD0433236015
:10124000764BBF1B1B780437002B02D0009EFFF7A4
:1012500020FA2B68019A1C1213406F4A9B009B587E
:101260000435FFF747FA3B1F1B686C4AA400042BA8
:1012700002D13B1B002103E0002B03D104213B1BC7
:10128000196001E00C23137013783F1B0437002B07
:1012900002D0009EFFF7FDF92B68019A1C12134043
:1012A0005D4A9B009B580435FFF724FAA300FC1A03
:1012B00004933B00083B1868FFF7FCF83B1F06004F
:1012C0001868FFF7F7F836180120049B7600FF1A1C
:1012D000524B06431B7826600437002B02D0009E39
:1012E000FFF7D7F92B68019A1C1213404A4A9B005A
:1012F0009B580435FFF7FEF9A300FE1A04933B0048
:10130000083B1868FFF7D6F83B1F04001868FFF782
:10131000D1F8241A0120049B6400FF1A3F4B0443B8
:101320001B7834600437002B02D0009EFFF7B1F920
:101330002B68019A1C121340374A9B009B580435B6
:10134000FFF7D8F9A300FC1A04933B00083B186888
:10135000FFF7B0F83B1F06001868FFF7ABF84643ED
:101360000120049B7600FF1A2C4B06431B78266055
:101370000437002B02D0009EFFF78BF92B68019AEF
:101380001C121340244A9B009B580435FFF7B2F906
:101390003B00083B1868FFF78DF83B1F0490186866
:1013A000FFF788F80100049803F0E0FC0123A40093
:1013B0003E1B370040001843184B30601B78043741
:1013C000002B02D0009EFFF764F92B68019A1C12D3
:1013D0001340114A9B009B580435FFF78BF93B00E3
:1013E000083B1868FFF766F83B1F04901868FFF782
:1013F00061F80100049803F09FFD0123A4003E1B47
:10140000370049001943054B31601B780437002B26
:1014100006D0009EFFF73DF940660000580100200D
:101420002B68019A1C121340E74A9B009B58043515
:10143000FFF760F93B1F1868FFF73CF8C317C018A7
:101440005840012340001843E04BA4001B783E1B8A
:101450003060371D002B02D0009EFFF71AF92B6871
:10146000019A1C121340D84A9B009B580435FFF781
:1014700041F9A300FE1A05933068012C03D1FFF750
:1014800019F8049008E0FFF715F804007068FFF7FA
:1014900011F80130031B0493049B002B01DC012392
:1014A000049304F07DF9049903F046FD0C19012121
:1014B000059B6400FF1AC54B0C431B78346004374E
:1014C000002B02D0009EFFF7E4F82B68019A1C1253
:1014D0001340BD4A9B009B580435FFF70BF9A4004D
:1014E0003E1B3000FEF788FFB84B30601B78371D7D
:1014F000002B02D0009EFFF7CCF82B68019A1C123B
:101500001340B14A9B009B580435FFF7F3F8A30042
:10151000FE1A04933B00083B1868FEF7CBFF3B1F05
:1015200004001868FEF7C6FF04400120049B640015
:10153000FF1AA64B04431B7834600437002B02D0FB
:10154000009EFFF7A6F82B68019A1C1213409E4AD2
:101550009B009B580435FFF7CDF8A300FC1A0493B9
:101560003B00083B1868FEF7A5FF3B1F0600186804
:10157000FEF7A0FF06430120049B7600FF1A934B61
:1015800006431B7826600437002B02D0009EFFF72D
:1015900080F82B68019A1C1213408B4A9B009B58C1
:1015A0000435FFF7A7F8A300FC1A04933B00083B9F
:1015B0001868FEF77FFF3B1F06001868FEF77AFFEA
:1015C00046400120049B7600FF1A804B06431B789F
:1015D00026600437002B02D0009EFFF75AF82B68D4
:1015E000019A1C121340784A9B009B580435FFF760
:1015F00081F83B1F1868FEF75DFFC04301234000E0
:101600001843724BA4001B783E1B3060371D002B23
:1016100002D0009EFFF73DF82B68019A1C12134080
:10162000694A9B009B580435FFF764F8A300FE1A33
:1016300004933B00083B1868FEF73CFF3B1F040087
:101640001868FEF737FF8440012364001C43049BA5
:101650003460FF1A5D4B04371B78002B02D0009ECC
:10166000FFF717F82B68019A1C121340564A9B008B
:101670009B580435FFF73EF8A300FE1A04933B0085
:10168000083B1868FEF716FF3B1F04001868FEF7BA
:1016900011FF0441012364001C43049B3460FF1AC2
:1016A0004A4B04371B78002B02D0009EFEF7F1FF57
:1016B0002B68019A1C121340434A9B009B58043527
:1016C000FFF718F8A4003E1B3000FEF7B0FD3F4BBB
:1016D00030601B78371D002B02D0009EFEF7D9FF2B
:1016E0002B68019A1C121340374A9B009B58043503
:1016F000FFF700F8A4003E1B3000FEF7A8FD334BB7
:1017000030601B78371D002B02D0009EFEF7C1FF12
:101710002B68019A1C1213402B4A9B009B580435DE
:10172000FEF7E8FFA4003F1B3800FEF7A2FD274BA1
:101730001B78002B02D0009EFEF7ABFF2B68019AAE
:101740001C121340204A9B009B580435FEF7D2FF21
:10175000A4003E1B3000FEF7BEFD1C4B30601B7822
:10176000371D002B02D0009EFEF793FF2B68019AD5
:101770001C121340144A9B009B580435FEF7BAFF15
:10178000A4003F1B3800FEF7DDFD104B1B78002B3B
:1017900002D0009EFEF77DFF2B68019A1C121340B9
:1017A000094A9B009B580435FEF7A4FFA4003E1B8A
:1017B0003000FEF701FE054B30601B78371D002B13
:1017C00006D0009EFEF765FF40660000580100202D
:1017D0002B68019A1C121340E64A9B009B58043563
:1017E000FEF788FF039A3B1D0493E34C9B1A8B2B57
:1017F00004DD1A23009E2370FEF74BFF01F00CFD61
:1018000001234000184323783860002B03D0009E4A
:10181000049FFEF73EFF2B68019A1C121340D54A25
:101820009B009B58049F0435FEF764FF039A3B1D01
:101830000493D14C9B1A8B2B04DD1A23009E23703A
:10184000FEF727FF01F0DEFCCC4B400018400123DF
:10185000184323783860002B03D0009E049FFEF7C6
:1018600018FF2B68019A1C121340C24A9B009B5818
:10187000049F0435FEF73EFFA4003E1B3000FEF738
:10188000E5FDBD4B30601B78371D002B02D0009E5C
:10189000FEF7FFFE2B68019A1C121340B54A9B000D
:1018A0009B580435FEF726FFA4003F1B3800FEF7C7
:1018B000E5FDB14B1B78002B02D0009EFEF7E9FE40
:1018C0002B68019A1C121340AA4A9B009B580435AE
:1018D000FEF710FFA300FB1A0493012320001A0057
:1018E0000499FEF71FFEA64C2068643000F0F4FF58
:1018F000002816D0029B21685A78A24801F04FFABE
:1019000015E0A300FB1A0493200001230022049990
:10191000FEF708FE9A4C2068643000F0DDFF0028D6
:1019200002D1043DFEF7C9FE964801F0EFF801230D
:10193000029A137001F066FC962223685200063367
:1019400053431818029B5860FEF7B8FEFEF762FE7C
:10195000894BA4001B783E1B3060371D002B02D042
:10196000009EFEF796FE2B68019A1C121340814AD6
:101970009B009B580435FEF7BDFEA4003E1B3000C3
:1019800001F07EFC7C4B30601B78371D002B02D0B1
:10199000009EFEF77EFE2B68019A1C121340754ACA
:1019A0009B009B580435FEF7A5FEA4003E1B3000AB
:1019B00001F068FC704B30601B78371D002B02D0A3
:1019C000009EFEF766FE2B68019A1C121340694ABE
:1019D0009B009B580435FEF78DFEA4003E1B300093
:1019E00001F052FC644B30601B78371D002B02D095
:1019F000009EFEF74EFE2B68019A1C1213405D4AB2
:101A00009B009B580435FEF775FEA4003F1B380071
:101A100001F058FC584B1B78002B02D0009EFEF7BB
:101A200038FE2B68019A1C121340524A9B009B58A7
:101A30000435FEF75FFEA4003E1B300001F064FC9D
:101A40004D4B30601B78371D002B02D0009EFEF7F7
:101A500020FE2B68019A1C121340464A9B009B589B
:101A60000435FEF747FEA4003F1B380001F07EFC62
:101A7000414B1B78002B02D0009EFEF70AFE2B681C
:101A8000019A1C1213403B4A9B009B580435FEF7F9
:101A900031FE0121200001F051FC374B1B78002B57
:101AA00002D0009EFEF7F5FD2B68019A1C12134030
:101AB000304A9B009B580435FEF71CFE0021200095
:101AC00001F03CFC2C4B1B78002B02D0009EFEF753
:101AD000E0FD2B68019A1C121340264A9B009B587C
:101AE0000435FEF707FEA4003E1B300001F05CFC4D
:101AF000214B30601B78371D002B02D0009EFEF773
:101B0000C8FD2B68019A1C1213401A4A9B009B586F
:101B10000435FEF7EFFDA4003E1B300001F058FC39
:101B2000154B30601B78371D002B02D0009EFEF74E
:101B3000B0FD2B68019A1C1213400E4A9B009B5863
:101B40000435FEF7D7FDA4003F1B380001F01AFC56
:101B5000094B1B78002B02D0009EFEF79AFD2B68E4
:101B6000019A1C121340034A9B009B580435FEF750
:101B7000C1FDC0464066000058010020FEFFFF7F07
:101B80006001002064010020A4003F1B380002F027
:101B90009DF8D04B1B78002B02D0009EFEF779FDFC
:101BA0002B68019A1C121340CB4A9B009B580435AA
:101BB000FEF7A0FDA4003E1B300002F0F7F8C54B75
:101BC00030601B78371D002B02D0009EFEF761FDB0
:101BD0002B68019A1C121340BF4A9B009B58043586
:101BE000FEF788FDA4003F1B380002F04BF8B94B0C
:101BF0001B78002B02D0009EFEF74BFD2B68019A4C
:101C00001C121340B44A9B009B580435FEF772FD2A
:101C1000A4003E1B300002F04BF8AE4B30601B7846
:101C2000371D002B02D0009EFEF733FD2B68019A72
:101C30001C121340A84A9B009B580435FEF75AFD1E
:101C4000A4003F1B380001F0B3FEA24B1B78002B11
:101C500002D0009EFEF71DFD2B68019A1C12134056
:101C60009D4A9B009B580435FEF744FDA4003F1B92
:101C7000380001F0A9FE974B1B78002B02D0009E84
:101C8000FEF707FD2B68019A1C121340924A9B0035
:101C90009B580435FEF72EFDA4003F1B380001F0D1
:101CA00099FE8C4B1B78002B02D0009EFEF7F1FCB6
:101CB0002B68019A1C121340874A9B009B580435DD
:101CC000FEF718FDA4003F1B380001F09FFE814B7A
:101CD0001B78002B02D0009EFEF7DBFC2B68019ADC
:101CE0001C1213407C4A9B009B580435FEF702FDF2
:101CF000A4003E1B300002F09AF8764B30601B784F
:101D0000371D002B02D0009EFEF7C3FC2B68019A02
:101D10001C121340704A9B009B580435FEF7EAFCE6
:101D2000A4003E1B300002F09AF86A4B30601B782A
:101D3000371D002B02D0009EFEF7ABFC2B68019AEA
:101D40001C121340644A9B009B580435FEF7D2FCDA
:101D5000A4003E1B300002F044F85E4B30601B785C
:101D6000371D002B02D0009EFEF793FC2B68019AD2
:101D70001C121340584A9B009B580435FEF7BAFCCE
:101D8000A4003E1B300002F045F8524B30601B7837
:101D9000371D002B02D0009EFEF77BFC2B68019ABA
:101DA0001C1213404C4A9B009B580435FEF7A2FCC2
:101DB000A4003F1B380001F045FE464B1B78002B6A
:101DC00002D0009EFEF765FC2B68019A1C1213409E
:101DD000414A9B009B580435FEF78CFCA300FF1A78
:101DE0003900200001F0E4FE3A4B1B78002B02D0B2
:101DF000009EFEF74EFC2B68019A1C121340364AD7
:101E00009B009B580435FEF775FCA4003E1B300078
:101E100001F09AFE2F4B30601B78371D002B02D04B
:101E2000009EFEF736FC2B68019A1C1213402A4ACA
:101E30009B009B580435FEF75DFCA300FF1A390098
:101E4000200001F05FFE234B1B78002B02D0009E88
:101E5000FEF71FFC2B68019A1C1213401E4A9B00C0
:101E60009B580435FEF746FCA300FF1A39002000FA
:101E700000F0BCFC174B1B78002B02D0009EFEF735
:101E800008FC2B68019A1C121340134A9B009B58B4
:101E90000435FEF72FFCA300FE1A31002000049346
:101EA00000F0A4FC049B3060FF1A0A4B04371B7837
:101EB000002B02D0009EFEF7ECFB2B68019A1C124F
:101EC0001340054A9B009B580435FEF713FC07B0EE
:101ED000F0BDC04658010020406600000023F7B561
:101EE0005A1E0192002B07DA01F00EFC00F0C8FE2A
:101EF00000F07AFF6423019300263000194B196823
:101F00008E4201DB019BEBE7174B1A6801329142CD
:101F100000DC0022A0241A601D68144F6C43E35DAE
:101F2000002B1DD0E419022B16D0012B0ED1002856
:101F300001D101F067F9A0226A430C4B0C499B18B0
:101F40005B68C31A8B4201D80223BB54A0235D43B4
:101F5000064BEB5C022B03D12000FEF773FBD1E7AD
:101F60000136CBE75C010020000000206810002053
:101F70009F860100054B01211A68054B1A6000235A
:101F8000044AD1500433642BFBD17047B0040020C5
:101F9000A8040020A01E002000B59BB00200054947
:101FA00001A803F07DFC01A800F0B0FD00F01CFFCB
:101FB000FCE7C0464068000037B5174D04002868AC
:101FC000002801D003F060F8A400200003F052F8CC
:101FD0002860002801D1114809E001AB984208D2DD
:101FE0000F4B02196B440193934202D20D48FFF745
:101FF000D3FF042802D808302860083C2B680A4A1E
:102000001C191360094B01211C600023084AD150A0
:102010000433642BFBD137BDB004002051680000AD
:102020001CFCFFFF81680000A8040020AC04002015
:10203000A01E002070B50D4D0D4E2B684C1CA40049
:1020400036681C19B44203D90A20FEF7DDFA0BE00A
:102050002C601D00AC4201D904C5FBE70F22090129
:10206000104008431860180070BDC046A804002046
:10207000AC0400200322CB1C70B50C00D917114012
:10208000C9180500891000220420FFF7D3FF0023A0
:10209000A34204DAE95CC21811710133F8E7E143A5
:1020A0000023C917214041180B7170BD10B583077B
:1020B00006D1042804D90F2304C81340042B03D0ED
:1020C0000E20FEF7A1FA014810BDC0468869000045
:1020D00030B502248025094B094AED009C505C591B
:1020E000002CFCD0A124E400884204D28025ED001D
:1020F00018514019F8E70021995030BD00E0014027
:102100000405000010B5002804D19020922100029F
:10211000890203E0922080218002C902FFF7D8FFE4
:1021200010BD002802D092239B0201E090231B02E5
:102130001B6800201A0E532A01D11B02180A70478F
:1021400030B501248025064A064BED00D450545981
:10215000002CFCD001600021014AD15030BDC046A6
:1021600000E001400405000010B5002802D09220D4
:10217000800201E090200002A6230902DB05090A83
:102180001943FFF7DDFF10BDF0B5012480250300E2
:102190000F4F08000F49ED007C507C59002CFCD0FB
:1021A0009C46002810DD5478167893782402344336
:1021B0001B0423431C00D37801381B0623436446C9
:1021C00008C40432A446ECE700237B50F0BDC046AF
:1021D00000E001400405000070B505004B680A00EE
:1021E0009C1C2100FFF7D0FFA000281870BD000044
:1021F000154B1B68002B04D080219223C9029B023F
:1022000003E09221902389021B02002807D1191DA7
:102210005B6802001B0E522B14D10A0012E0002250
:1022200081420FD903681B0E522B0BD14368023336
:102230009B00C318994205D91A68110E0022522931
:1022400000D11A0010007047B40600208022F0B5BB
:10225000520085B00021624802F029FF802200214F
:102260005200604802F023FF5F4B1B681A00029384
:1022700053425A4110000392FFF744FF029B002B88
:1022800001D15A4C00E05A4C0020FFF7B1FFFF2764
:102290000500002D00D194E02B681A121B143A405F
:1022A0003B4001921A000A3A092A43D84C4B019A42
:1022B000995C002900D07FE010224E4802F0F7FE22
:1022C0002E00336801991A123A40914217D11A141C
:1022D0003A400B2A06D0132A0CD00A2A0FD1454BBC
:1022E0001E600CE03B40022B09DC424A9B00D318E5
:1022F0005E6004E0102200213E4802F0D8FE30006B
:10230000FFF776FF061EDCD13A4B196800290FD083
:102310002000FFF761FF0400374E3168002903D029
:102320002000FFF759FF0400344B0436B342F4D1C8
:102330002B4B3EE0143B092B3ED82A4B019A995C6B
:10234000002939D108222E4802F0B1FE2E00336850
:102350001A143A40152A0BD01D2A11D0142A14D170
:10236000019A1B123B409A420FD1254B1E600CE094
:10237000019A1B123B409A4207D1214B5E6004E058
:10238000082200211E4802F092FE3000FFF730FFC5
:10239000061EDCD11A4E3168002909D02000FFF753
:1023A0001BFF71680400002902D0FFF715FF04002D
:1023B0000C4B0121019A99542800FFF719FF0500E1
:1023C00067E70298FFF7ADFE411C0398FFF7CCFECC
:1023D000054B039A1A600B4B1C6005B0F0BDC0465C
:1023E000B4050020B4040020B40600200448020014
:1023F00004900000041F0020081F0020141F00206C
:10240000141F0020B806002070B50020FFF789FED9
:1024100004000120FFF785FE844200DA04000A4B25
:102420001E687542754128001D60FFF76BFE002E87
:1024300001D0064B00E0064B064A2800611C1360E1
:10244000FFF792FE70BDC046B40600200490000065
:1024500004480200B8060020F8B50020FFF761FE2E
:1024600007000120FFF75DFE3E00224D0643224C8F
:102470000CD180219020C9020002FFF729FE012122
:102480003000FFF771FE2E601C4B2FE0874208DD05
:10249000002392212B60194B8902236023680020BE
:1024A00011E0012380212B60154BC9022360F5E761
:1024B0001A68551C18D0120E522A07D101205A68EA
:1024C000023292009B188B42F2D311E0002800D018
:1024D00023600C4C0C49200003F00EFA200000F0A1
:1024E000A3FEFFF791FF04E0002802D0236000E084
:1024F0002160F8BDB4060020B8060020049000005A
:10250000044802001C1F0020F9680000F0B585B0E7
:10251000039203220333DC1714402A4EE3189C1065
:10252000336801900291002B02D08022D20201E098
:1025300092229202244FA51C3B68AD005B199A427F
:1025400017D2FFF783FE3368002B02D08022D2021D
:1025500001E0922292023B685B199A4209D21B4C1D
:102560001B49200003F0C8F9200000F05DFE0020A8
:1025700026E0029B3E681B06190C6B461A7BA423BF
:10258000DB051343019A0B431104FF22120411408F
:1025900019433000FFF7D4FD3300301D083321000C
:1025A00001933B60FFF7CCFD002C04D00A9A210078
:1025B0000198FFF7E9FD3000019B083D5D193D6082
:1025C00005B0F0BDB4060020B80600201C1F002096
:1025D0002269000070B59AB0FFF73EFFFF221F4C42
:1025E000D2000021200002F062FD0020FFF700FE73
:1025F000FF25002600281AD003681A142A400A2A48
:1026000008D11A122A40FF2A0ED0D200A1180B714D
:10261000A05009E0132A07D11B122B40FF2B03D037
:10262000DB00E2181671E650FFF7E2FDE2E7FF215A
:102630000200C900235808305D1EAB41D218884201
:10264000F8D1074901A803F02BF901A800F05EFAC0
:10265000044800F05BFA1AB070BDC046A81600200E
:102660004969000061690000044A05491368C854BB
:1026700001339B059B0D13607047C046C00A0020C4
:10268000BC060020114A70B51368114C984211DA4B
:10269000015D451CFA39012906D8AB4206DD211837
:1026A000497801391F2901D92800EFE70100251ACF
:1026B000461C02D10023136006E0665C6E540131B3
:1026C0008B42FADC181A106070BDC046C40A0020A4
:1026D000CC0A002010B500F095FD064B1A68904218
:1026E00001D200221A601B68C01A034B834280414A
:1026F000404210BDC80A0020204E000010B5094C11
:10270000094A2368126893420BD0084AD05C00F053
:10271000B5FE002805D0236801339B059B0D23607F
:10272000EDE710BDCC0E0020C00A0020BC06002042
:1027300010B50400064B074A1B6812689B1ADB435E
:102740009B059B0DA34202DAFFF7D8FFF2E710BD0D
:10275000C00A0020CC0E0020F7B506000191151E1E
:102760002FD05768B800441C0630FFF7E1FFFB206C
:10277000FFF77AFF1C20FFF777FFF0B2FFF774FF37
:10278000E0B22412FFF770FFE0B2FFF76DFF6B4677
:102790001879FFF769FF0026BE4212DAB300EB1882
:1027A0009C680136E0B2FFF75FFF2012C0B2FFF76E
:1027B0005BFF2014C0B2FFF757FF200EFFF754FF56
:1027C000EAE7F7BD70B5074D2C68042C08DC0C2334
:1027D0006343054E01349851F31859609A602C6098
:1027E00070BDC046D00E0020801F0020F0B589B01B
:1027F00004900E0001284BDD284B086802938307E4
:1028000009D1042807D90F2302681340042B02D1F1
:10281000FFF74CFC0290214B70680393830709D1AA
:10282000042807D90F2302681340042B02D1FFF7B5
:102830003DFC039000271A4B1A4D1B680593059B1E
:102840009F4225DA2B1F0299186803F04BF80028E5
:102850001BD12B686C6806930190019B069A9342EA
:1028600013DA20680399079403F03CF80834002831
:1028700007D131000498079B08315B6802389847FC
:1028800009E0019B01330193E7E701370C35D6E7F7
:102890001B20FDF7B9FE09B0F0BDC04688690000F5
:1028A000D00E0020841F002010B501F0C7F900F001
:1028B000A5FD00F011FE10BDC82210B5D200002108
:1028C000034802F0F4FB0022024B1A6010BDC04620
:1028D000681000205C010020064B074A1B68126844
:1028E0009B1ADB439B059B0D0122834200DC0022E7
:1028F00010007047C00A0020CC0E0020F8B505007B
:102900000C0016001F1E0ED10320FFF7E5FF002864
:1029100027D0FA20FFF7A8FEE8B2FFF7A5FEE0B245
:10292000FFF7A2FE1DE0501DFFF7D6FF002818D0CC
:10293000FB20FFF799FEE8B2FFF796FEE0B2FFF743
:1029400093FEF0B2FFF790FE3012C0B2FFF78CFE9C
:102950003C00E31B9E4204DD2078FFF785FE013436
:10296000F7E7F8BD70B50024A0250B4B1B689C420F
:102970000EDA2A006243094BD3181A78002A05D0D0
:102980005978002311201A00FFF7B8FF0134ECE753
:10299000FFF792FF70BDC0465C0100206810002068
:1029A0000123F3B50400FFB00D0010001A420DD052
:1029B00002AA1370431002A9537042121B0E401456
:1029C0008A700B71C8700B00052273E0032313405B
:1029D0001ED1042A1CD90F2201680A40042A17D1EB
:1029E000023302AA1370FFF761FB060002F08CFFAE
:1029F000F823FF33984200DD18000023834205DAF4
:102A000001335A1EB25C02A9CA54F7E7421C50E0D7
:102A1000042801D0002809D1032302AA0438137026
:102A20004342434153701300022243E0002B45D13F
:102A3000042843D90F2102681140052912D104331B
:102A400002A90B70F8231209FF3392009A4200DDAD
:102A50001A00002393422BDA0133C118C97802AE61
:102A6000F154F7E7062929D101390E00120956431E
:102A70000196F826019FFF36B7421FDC02AE317087
:102A80000136934213DA0127013399004158394244
:102A900001D0394100E00A49012737700F127170E7
:102AA000B7700F14090EF77031710536E9E7019A16
:102AB000013202AB29002000FFF720FF7FB0F3BDF9
:102AC00019FCFFFF70B5A023050000240D4A180073
:102AD000604380184178A94203D001340A2CF6D112
:102AE0000FE0A022002102F0E2FA074A1368013B3E
:102AF000A34200D11460002329001A001120FFF71F
:102B0000FDFE70BD681000205C01002010B5B2B061
:102B100002236A460400137002F0F6FEC72800DDA7
:102B2000C7200023834205DA694601335A1EA25C9E
:102B3000CA54F7E7421C6B46FF211420FFF7DEFE64
:102B400032B010BDF7B5234B06001B68A0200093E0
:102B500000232149009A93420ADA02005A438A1854
:102B60005478B44202D11278002A31D10133F1E70E
:102B70000024A0231A00624301920199164A5518B5
:102B80002F78002F06D001340A2CF3D11348FFF719
:102B9000BDFF1DE0A0223900280002F088FA0223C0
:102BA0000D4A0199EB6053540D4AF1008A58009B7D
:102BB0006E70AE70AA602F616F61A34202DC054B9C
:102BC00001341C60002331001A001020FFF796FE2C
:102BD000F7BDC0465C010020681000201C6A0000A0
:102BE000A816002010B5FFF7BDFE0024064BE2003A
:102BF000D3181B79043B012B02D8E0B2FFF7A2FFE8
:102C00000134FF2CF2D110BDA8160020F7B50E003C
:102C100000247F250190194BE200D118097906297B
:102C200001D0032926D1985883682B401C2B21D131
:102C3000C3681A002A40042A1CD102692A40192AB2
:102C400018D11B0A01339B000C30C018FFF72EFA75
:102C5000070002F059FE0023B0420BD19E4206DD70
:102C6000019AF95CD25C914204D10133F6E7E0B2FB
:102C7000FFF768FF0134FF2CCDD1F7BDA816002067
:102C800070B500F0BFFA184B1A68904201D20022CA
:102C90001A601A681549821A8A4223D918600020DE
:102CA00000F082FB44424441604207240443002078
:102CB00000F08EFB002810D0082600250C4BEA00FF
:102CC000D3181B799C4201D0B34202D1E8B2FFF77E
:102CD00039FF0135FF2DF1D104E0631C02D001263C
:102CE0007642EAE770BDC046BC0A00200F2700000C
:102CF000A816002037B500240500FFF733FE01A811
:102D0000019400F03FFB200000F05EFE00F0FCFCB0
:102D100000F072FB00F071FB00F00CFF00F09EFA77
:102D20000548FFF7F3FEA54204D0FFF723F9034857
:102D3000FFF7ECFE37BDC046316A0000496A00006B
:102D4000002310B501001A001120FFF7D7FD10BDB8
:102D500007B56B46197069465A7013128B701314BD
:102D6000120ECB700A716B46010005221320FFF78B
:102D7000C5FD07BD10B50A0001001220FFF710FEC7
:102D800010BD70B5050008000C003230FFF7D0FC14
:102D90002B00220000211B20FFF7B0FD70BD10B5F5
:102DA0000C000300110014202200FFF7A7FD10BD46
:102DB00070B506000020FFF71BFA0024FF2500284D
:102DC00010D003681A142A40152A05D11B122B4073
:102DD000B34204D1040002E01D2A00D10024FFF711
:102DE00007FAECE7200070BDF0B580279DB0FFF733
:102DF00085FCB94DB94C2868FF00391A201800F03D
:102E000023FB2B680600C3182B60002B00D1DBE1ED
:102E1000002E0DDD2868391A201800F015FB2B68EC
:102E200006001B182B6000F0EDF9AD4B1860EFE7C2
:102E30002378FA2B00D00CE12B68022B06DCFFF77D
:102E400049FC002800D1BFE10120B8E16078A578F5
:102E50000238182800D9FAE001F0F4FE0D1E2226EF
:102E60002932F93D676F7589DAEFF9F9F9F9F9F95E
:102E7000F9F9F9F9F300FF2D00D1E8E02800FFF798
:102E800021FE00229749EB005A50CB181A712900F5
:102E90000092130013204DE02800FFF753FED6E008
:102EA0002800FFF70FFED2E0FFF79CFECFE0FFF710
:102EB00059FD0020FFF71EFF8B48FFF727FEC6E0F5
:102EC000182D00D9C3E0894BAA00D258290015203B
:102ED000FFF766FDBBE000242000FFF769FF071E37
:102EE00003D10134192CF7D1B1E0083002F00CFD08
:102EF00006000530FFF71CFCFB20FFF7B5FB1D208B
:102F0000FFF7B2FBE0B2FFF7AFFBF0B2FFF7ACFBAD
:102F10003012C0B2FFF7A8FB0025AE42E1DD7B19FD
:102F2000187AFFF7A1FB0135F7E700211D200B0000
:102F30000A000091FFF7EAFA89E0002229000092D6
:102F400013002720F6E700F077F903AC684A642104
:102F50000090684B200002F071FC022320002370D7
:102F600002F0D2FC23000200002116206DE00024B4
:102F70005C4AE300D558002D46D06B689E00701D5A
:102F8000FFF7D6FB2B00002532000833210001207B
:102F9000FFF7B4FC0020FFF72BF92E002F000028CC
:102FA0001DD0FF2103681A120A40A24214D11A143C
:102FB0000A400B2A07D10B400DD0012B09D0022B60
:102FC00000D1FFE008E0132A06D100252E002F00D3
:102FD00002E0060000E00700FFF70AF9DFE7002E35
:102FE00004D0320001212000FFF7B6FB002D04D0F1
:102FF0002A0002212000FFF7AFFB002F04D03A0087
:1030000000212000FFF7A8FB0134FF2CB0D11EE007
:10301000FFF7A8FC002500242900009423002200CB
:1030200013200135FFF772FAFF2DF4D1FF222100A2
:10303000D2002C4802F03BF809E00120FFF75AFECD
:1030400005E0002329001A001A20FFF757FC03208F
:10305000B5E0FB2B00D0F7E62A68042A00DCEEE698
:103060002679E078244B360206439E4200DDEBE6EB
:10307000331D9A4200DCE2E6E35CFE2B00D0E3E67F
:103080006078A578731E1C2868D007D8082835D02A
:103090001B285ED0012800D090E007E01E2800D158
:1030A0007EE066D31F2800D180E087E0FF2D00D1AD
:1030B00084E02800FFF706FD67790634B31E290077
:1030C00000943A000A20FFF721FA064BED00E85081
:1030D0005D192F7172E0C046C40A0020CC0A00209E
:1030E000C80A0020A8160020596A0000A01E00206F
:1030F000706A00006B6A0000F6030000182D5DD8AE
:103100006079022813D003281BD0012856D1A71DAF
:103110007A78A479BB78120222431B0413431A0065
:10312000FB78AD001B0613435B0003430EE0002B4E
:1031300044DDB11EA01DFEF79DFF244BAD00E850FD
:103140003CE0A379AD005A1E93419B001F4AAB504F
:1031500034E0601D1900FFF759FD2FE0FF2D2DD041
:103160006279022A2AD80634B31E009429000B2063
:1031700022E0632B00DD6323002203A8934204DDD9
:10318000A118497981540132F7E7D9430022C917C0
:10319000194041180A7001330090290015200BE0F6
:1031A00005340094002229001E2005E0042B05D1DF
:1031B0000022290005340094FFF7A8F9701DFFF7DD
:1031C00061FA01E0050007E71DB0F0BDA01E002078
:1031D0000020704700207047002070470020704793
:1031E00001220020054B06491A6158500330043172
:1031F00058508018083158501A60704700800040BD
:10320000040500000122034B1A64A822D20098583A
:103210007047C0460080004010B5FFF7F3FFFA2169
:10322000890001F019FD10BD10B50100014801F041
:10323000BDFA10BDF40F002000487047806A0000FE
:1032400070B5054E0400335C0D008B4202D001F0D6
:10325000D5F9355570BDC046D40E002070B5002498
:10326000064D635D012B05D10021200001F0C6F958
:103270000023635501341A2CF2D170BDD40E002006
:103280000D20704735207047036870B55B10012032
:10329000052B12D8094A9B009C58094D2B5D002B29
:1032A00005D00021200001F0A9F900232B552000B2
:1032B00001F04EF801234000184370BDB06A0000D1
:1032C000D40E002070B5036845685C106D1004D4FE
:1032D0000B4B9D4202DD1D0000E00025192C0DD88E
:1032E000084E335D012B05D00121200001F086F945
:1032F000012333552900200001F0B8F870BDC04605
:10330000FF030000D40E002070B504686410192C6F
:103310000FD8094D2B5D002B05D00021200001F0B6
:103320006DF900232B55200001F09CF9042301289E
:1033300000D00023180070BDD40E002070B504002A
:103340000D0019280ED8084E335C012B04D0012142
:1033500001F054F901233355290020004D1EA941E5
:1033600001F06AF970BDC046D40E0020436810B564
:10337000191F4A424A41006811004010FFF7DEFF62
:1033800010BD000037B569460200064B684630CBD9
:1033900030C11368042B02D100F01CFB01E000F0E7
:1033A00035FB37BD786A000010B5084C237D002B33
:1033B00005D00021142001F021F9002323751420E9
:1033C00001F050F943425841800010BDD40E002056
:1033D00010B5084CA37D002B05D00021162001F06C
:1033E0000DF90023A375162001F03CF94342584122
:1033F000800010BDD40E00207047704710B5034AFE
:1034000004210348FFF7DEF910BDC0460400002088
:10341000896A0000E12110B54902094801F00DFA5E
:10342000FFF7DEFE0A2000F08DFF0023FF21054A92
:10343000995401331A2BFBD100F07CFB10BDC04620
:10344000F40F0020D40E0020F8B50B4E070030001A
:103450000D0001F031FA041EAC4200DD2C003D00ED
:10346000EB1B9C4205DD300001F030FA287001357D
:10347000F6E72000F8BDC046F40F002010B50100AB
:10348000014801F0E1F910BDF40F00200020704761
:1034900010B51E20FDF7B8F810BD10B51E20FDF7C1
:1034A000B3F810BD10B51E20FDF7AEF8002010BD1A
:1034B00010B51E20FDF7A8F810BD10B51E20FDF7B1
:1034C000A3F810BD10B51E20FDF79EF810BD10B575
:1034D0001E20FDF799F810BD10B5034A08210348D6
:1034E000FFF770F910BDC04624000020C86A000034
:1034F0000123034A1360034A106898401843704739
:10350000F80E0020000F00201E2800D91A20084BBA
:103510008000C25801239340064A07491360074AB6
:103520001160074A07491160074A13607047C04697
:10353000186F0000F40E002008050050100F002046
:10354000080F00200C05005018050050F0B5EFF3EF
:1035500010810123194083F31088134E134AB44697
:103560001268013A9340124A1468124A1568124AC6
:10357000002B15D0166803420BD02660C046C0460B
:10358000C046C046C046C046C046C04616682E600B
:1035900004E067463E601668084F3E605B08E7E758
:1035A00081F31088F0BDC046080500506C00002073
:1035B000100F0020080F0020F40E00200C05005012
:1035C00030B585B001AD0C220649280001F066FD3A
:1035D0000024285D01210134FFF732FE0C2CF8D1C4
:1035E00005B030BD3E6B0000F0B53B4C85B021000E
:1035F00003220C31684601F051FD210009220F31F0
:1036000001A801F04BFDFFF707FE344B344CC01806
:103610002368984201D2002323602568002D3ED103
:103620002E006B4604339F5D01213800FFF708FE32
:1036300001360121380000F0FFFF092EF1D10026EC
:103640006B469F5D01213800FFF7FAFD013600212E
:10365000380000F0F1FF032EF2D1C82080000138BD
:10366000C046C046C046C046C046C046C046C0462A
:10367000C046C046C046C046F1D100210520FFF734
:10368000DFFD00266B460021985D0136FFF7D8FD6F
:10369000032EF7D1FFF7C0FD1330206019E0FFF7CC
:1036A000BBFD23680025984213D3052000F050FE8F
:1036B0000C4B0D4EC01801D4306000E0356030680E
:1036C000032101F053FB00230125084A30602360E9
:1036D0001360280005B0F0BD3E6B0000102700000D
:1036E000F00E0020C8FEFFFF000F0020F80E0020A3
:1036F00010B50124044001D0441002E00D20FCF775
:1037000083FF200010BD00007FB5A44E3368002B5E
:103710000BD1A34A1268002A07D1A24B1B68002BC9
:1037200000D139E1FFF760FF36E19F4D2A68002A9A
:103730002AD19C4A1268002A07D0FFF755FF0028BB
:1037400000D129E1FFF73CFF05E0954A1268002A05
:1037500001D1002BF6D1924B19681A00002911D023
:103760003468002C0ED101AD0C22904928001C6059
:1037700001F094FC285D00210134FFF761FD0C2C61
:10378000F8D109E13368136000210D2000F054FFE7
:1037900000210E2000F050FF00210F2000F04CFF10
:1037A0002E68012E56D0022E00D19CE0002E00D0B3
:1037B000ECE0013631007A4C04202368994300F094
:1037C0003BFF0421236805200B405942594100F07A
:1037D00033FF1021236806200B405942594100F065
:1037E0002BFF8021236809010B40594259410C20CD
:1037F00000F022FF8021236809020B405942594101
:103800000B2000F019FF8021236849020B40594228
:1038100059410A2000F010FF8021236889020B40E3
:1038200059425941092000F007FF80212368C9024D
:103830000B4059425941082000F0FEFE80232168C8
:103840001B030B4059425941072000F0F5FE31009F
:103850000D2099E00221524C072023680B40594269
:10386000594100F0E9FE0820216801400B0059424F
:10387000594100F0E1FE80212368C9000B40594204
:103880005941052000F0D8FE8021236849010B40F2
:1038900059425941062000F0CFFE80212368C9011A
:1038A0000B4059425941042000F0C6FE8021236894
:1038B00089030B40594259410A2000F0BDFE802384
:1038C00021681B040B4059425941092000F0B4FE05
:1038D00031000C2000F0B0FE31000B2000F0ACFEF7
:1038E00031000E2050E020212D4C072023680B4092
:1038F0005942594100F0A0FE4021236808200B40A6
:103900005942594100F098FE8021236809200B405C
:103910005942594100F090FE8021236849000B4034
:10392000594259410A2000F087FE8021236889000E
:103930000B40594259410B2000F07EFE8021236844
:1039400089010B40594259410C2000F075FE80213D
:10395000236849030B4059425941062000F06CFE90
:1039600080212368C9030B4059425941042000F0CB
:1039700063FE802321685B040B40594259410520B6
:1039800000F05AFE01210F2000F056FE2B680321A3
:10399000581C01F0D1FA29607FBDC046040F0020F9
:1039A000FC0E0020F80E00200C0F00203E6B0000E3
:1039B000006810B5C30703D5FFF79AFE014B1860E6
:1039C00010BDC046040F00200022014B1A60704752
:1039D000040F002070B505000068FFF789FE0400A1
:1039E0006868FFF785FE631E042B0CD80138042895
:1039F00009D805225043043AC3189A4013000249DB
:103A00000A6813430B6070BD040F002070B50500F9
:103A10000068FFF76DFE04006868FFF769FE631E2B
:103A2000042B0CD80138042809D805225043043A45
:103A3000C3189A40130002490A689A430A6070BD8D
:103A4000040F00202C4BF7B51B680400002B03D19A
:103A500001204042FFF758FD01262468344219D066
:103A6000FF226310180212041040FF22611212029A
:103A70000A40DBB210431843204B1B68202B06D1B1
:103A8000B4401F4BA40EA400E35800021843FFF7F4
:103A90005DFD30E0032525402DD1042C2BD90F23CB
:103AA00022681340062B26D1FF27130901933F04F8
:103AB000019B9D421FDAAB00E3185A68324218D0CE
:103AC000531018023840FF21844609025012084062
:103AD0006146DBB208431843084B1B68202B06D114
:103AE0005200920E064B9200D35800021843FFF783
:103AF0002DFD0135DCE7F7BD100F00206C00002024
:103B00006C6B00000B6810B50200D80701D5581087
:103B100001E0012040421823012A03DD4A68042AFB
:103B200000D10833024A1360FFF7EEFC10BDC04617
:103B30006C000020012010B54042FFF7E5FC00209A
:103B4000FFF704FD10BD00000068F8B5C30702D5FB
:103B5000FFF7CEFD0BE0830726D1042824D90F22DE
:103B600003681A40042A1FD11B091DD000790300E5
:103B7000203B5E2B18D80522002053430B4E9D1886
:103B8000043AAB420CD0052110249F5D3C4200D08A
:103B900080180139520064100029F7D10133F0E791
:103BA00001234000184300E00120F8BD6C6C0000C8
:103BB000F0B5040085B008680E00FFF799FD01908C
:103BC000022C07DD7068FFF793FD0400B068FFF773
:103BD0008FFD01E001200400174B011D1A68052329
:103BE000461E43430120002784460291211D053BC8
:103BF000039102998E4219D0611E039DA94212D0F1
:103C0000042E0DD804290BD8019D5F18054203D05E
:103C10006546BD402A4302E06546BD40AA430127F0
:103C200040000131E9E701360533E2E7002F01D01A
:103C3000014B1A6005B0F0BD040F002010B5034A17
:103C400001210348FEF7BEFD10BDC0466400002000
:103C5000566B000010B501210D20FFF7F1FA01218C
:103C60000E20FFF7EDFA00210F20FFF7E9FA044CD0
:103C7000200000F073F91021200000F08BF910BD36
:103C8000240F002010B504680D20E30703D564104D
:103C9000FF2C03D91720FCF7B7FC06E0FFF7DAFF8B
:103CA000E1B2024800F098F9002010BD240F002076
:103CB00010B5FFF7CFFF0021034800F08DF9012375
:103CC0004000184310BDC046240F0020F7B5012660
:103CD0000468344205D04268324202D083683342DD
:103CE00001D10D2005E0521064100092802C03D900
:103CF0001520FCF789FC23E0009A1620FF2AF8D84B
:103D00005B1001931720FF2BF3D80E4F0E4D3B682D
:103D1000002B03D1280000F0E5F93E60E1B2280055
:103D200000F06EFA6B462800197800F09CF96B469B
:103D30002800197900F097F9280000F0CBFA00204C
:103D4000FEBDC046140F0020380F0020F8B5154FF7
:103D500005003B680E00144C002B04D1200000F03D
:103D6000C1F901233B60EDB22900200000F048FAC0
:103D7000F1B2200000F077F90021200000F04CFAA9
:103D8000002801D040420CE001222900200000F070
:103D900032FA200000F05DF90028FAD0200000F08F
:103DA0005DF9F8BD140F0020380F002010B5012474
:103DB0000368234202D04168214201D10D2004E072
:103DC00058104910802803D91520FCF71DFC07E086
:103DD000FF2901D91620F8E7FFF7B8FF400020437C
:103DE00010BD10B507211820FFF7B0FF7F2801DDB7
:103DF0000138FF3803007F3301DA7F20404264231B
:103E00007F215843494200F0B1FF01234042400066
:103E1000184310BD10B508211820FFF797FFC30FF6
:103E200018180123401015304000184310BD10B57C
:103E300005211820FFF78AFF7F2801DD0138FF38B0
:103E400003007F3301DA7F20404264237F215843FF
:103E5000494200F08BFF01234000184310BD10B50C
:103E600003211820FFF772FF7F2801DD0138FF389A
:103E700003007F3301DA7F20404264237F215843CF
:103E8000494200F073FF01234000184310BD0000B9
:103E900010B5FFF7BFFAE120C000FEF78DF8FEF77E
:103EA00003FD0448FEF732FEFEF794FBFEF79AFE90
:103EB00010BDC046316A000010B5FEF70FF810BD06
:103EC00070B5002504AC24780573A94205D10A4BCE
:103ED0000A4A23210A4801F061F801600949920069
:103EE00052589B0002715B588371A3005B58856038
:103EF00043710223C37170BD846E0000476E0000E1
:103F0000926E0000186F0000037B002B04D14373F6
:103F10008373036101330373704700001FB5019180
:103F2000A02100240068C900D2B24450012A07D061
:103F3000A24203D0032A05D1042202E0022200E0BB
:103F400006221343034A8350034B019AC2500123B4
:103F500043501FBD540500002405000010B50400A7
:103F6000FFF7D2FFA1222368A179D200995061798D
:103F7000064A20009950217904329950044B19685F
:103F80005A689B68FFF7CAFF10BDC0460C050000C9
:103F9000180F00204BB2002B0CDB80233F290CD8DC
:103FA0001F290CD80F290CD807290CD803290CD8A5
:103FB0001B060BE080239B0408E0DB0406E01B05E6
:103FC00004E05B0502E09B0500E0DB050168014AB7
:103FD0008B507047240500000368074A99501A0067
:103FE000FC32D1680029FCD0A321C9005858002315
:103FF000C0B2D3607047C0461C05000007B58022E0
:10400000074BD2051A6000229A6002321A711123FE
:104010000E320093034905330348FFF751FF07BDF4
:10402000180F002000300040240F0020F8B50500D4
:104030000E0017000024BC4208D02B68315D1B68BD
:1040400028009847002801D00134F4E72000F8BD8B
:10405000704710B51C3000F0D5FB10BD10B51C30FA
:1040600000F0C2FB10BD70B5437E0D00002B05D0E3
:104070006430040000F0D5FB002801D0002004E0EB
:104080002000290000F0A1FB012070BD10B51C30FC
:1040900000F0BEFB10BD0000F7B50193FA23002528
:1040A00004009B0083600D4B4560083303601C30A7
:1040B0000F00160000F07EFB2000643000F07AFB59
:1040C000074AB600B35827616375019B20009B0027
:1040D0009B586576A576A375FEBDC046F86E0000B8
:1040E000186F00000123A022C375837D0C49C133E2
:1040F000FF33D2059B009950437DC133FF339B00B2
:104100009950CC210369074A490499500521243A62
:104110009950817D08329950417D034A99507047EA
:104120000C060000240500000C050000F7B5050092
:1041300000200C00019382425CD0161E402E00D954
:1041400040262F001C37380000F04AFBB1222B69B3
:10415000D20080219C50012289005A50A97E00295A
:1041600001D11A621A600024731E2A69A34206D183
:10417000019B002B03D0802302219B00D1500123FF
:1041800013621300FC33D968002902D1996A00290F
:10419000F9D0996A00290AD1D960A323DB00D1584C
:1041A0003800C9B2013400F010FBA642DCD8019AF5
:1041B0002B69002A04D11A00FC32916A00290AD026
:1041C00001210022AA7659611900FC318868002873
:1041D000FCD08A6007E00121A976D961D16C002961
:1041E000FCD00021D164FC339A6A002A01D000225D
:1041F0009A62E0B2FEBD10B50123FFF797FF10BD34
:104200000300AC3310B504001970643000F0E8FA14
:104210000123637610BD0000F8B500220D000100F7
:104220004276AC31036904000878B121C9005850C6
:10423000802189005A5001321A629A602600643641
:10424000300000F0DFFA00280ED03000276900F0BF
:10425000CBFA1E4BF8502369FC331A6A002A0CD1A2
:104260009A6A002AF9D008E02369002D0AD11A00C1
:10427000FC32916A002905D10EE09A6A002AF3D136
:104280001A62DBE701225A611A00FC3291680029A8
:10429000FCD00021916006E00121D961D16C002998
:1042A000FCD00021D1641A000020FC32916A8142C6
:1042B0000BD0074990625A5802305A50824204D0BB
:1042C000043A534253410230C01AF8BD1C050000A5
:1042D000C404000010B50121FFF79EFF10BD0000CF
:1042E00010B51323122202490248FFF7D5FE10BD74
:1042F00000400040380F002003210A4802680A43AA
:104300000260094802680A4302600849084A094BEA
:104310009B1A03DD043BC858D050FBDC00F0B4F915
:10432000FBF728FF2405004054050040A871000059
:10433000000000203C010020FEE7FEE7FEE7FEE76C
:10434000FEE7FEE7014B18607047C046780000208A
:10435000F7B500231E2877D83C4B8000C258042AAA
:1043600014D006D8022A0DD00ED80423012A14D066
:1043700069E0062A0ED00BD31A2A0DD002231B2A7D
:104380000BD060E0082308E0102306E0202304E0BF
:10439000402302E0802300E001232D4A1268082A0E
:1043A00004D9092A05D00A21022404E008210024A6
:1043B00001E011000124A02501261C272548ED005D
:1043C0004651254D254E2D681B02AD003D400195FF
:1043D000234D2D6800958559AC466746214D3D40DB
:1043E0001D4385518359C0259C46009BAD021D404D
:1043F000FF2367461B023B402B43019D1D43009B4F
:104400005F0160231F402B003B431C430123845169
:10441000154C036063680F48002BFBD00024124B3F
:1044200001255C60A123DB00C3584560A025ED0099
:1044300044511BB2914207D002D98A1AD34003E0FB
:10444000521A934000E000231800FEBD186F0000D0
:104450007C00002000700040740000200405000073
:1044600070000020FF00FFFFFC700040F0B51E2828
:104470006CD8374B8000C258364B1E68002E2ED1A8
:10448000C2243548A4000759344B03253B40C027BC
:104490003F023B4303518023893C9B00FF3C035177
:1044A0002F4F03602F4B803CD859FF3CA043D8517D
:1044B0000437D859A8432043D8510837D8590C3568
:1044C000A843083D2843D851A820C0001E5080268C
:1044D000C120760280001E501C601E4B1C60002311
:1044E0001426214834005C43255804006F1C0FD16A
:1044F000142058432250A0200325C132FF329200DD
:10450000C0051550194A08001268082A03D10BE0AB
:10451000AA4218D1ECE7082A02D9083AD14002E0B1
:104520000820821A9140080014225343E3189A6825
:104530000C495132FF32920058605050DA68C12362
:104540009B00CA5002E00133032BCBD1F0BDC04623
:10455000186F0000F00F002000E100E0FF00FFFFF7
:10456000040500000090004080000020780000203A
:104570001E4BF0B5596C18001D4A002914D0A02517
:10458000A12600230124ED05F600D1584F1C06D0CA
:10459000D7187F68002F02D027008F40AF51143307
:1045A0003C2BF2D100234364131DA02540329446D6
:1045B000002001240F4EED05DA680F4992005718CC
:1045C0000A495218526C002A0CD01A1F1268511C4A
:1045D00005D01968FF2902D021009140A9513A0065
:1045E000FC32506414339C45E6D1F0BDFC90004091
:1045F000800000200C0500000090004000B51E283F
:1046000016D80C4A83009B58032911D8A022080011
:10461000C133FF33D2059B0000F014FB02080406EF
:10462000002104E00C2102E0042100E00321D1502C
:1046300000BDC046186F00001E280DD8074B800033
:10464000C058A0220123D2058340002901D104498A
:1046500001E0A121C90053507047C046186F000007
:104660000C050000030000201E2B0AD8A222A02166
:10467000D200C9058858034A9B009B58D8400123A3
:1046800018407047186F00002D4B10B51A78012A9A
:1046900019D12C4A1268120715D12B4AE02411684F
:1046A000F0220800104021420BD12849096811422C
:1046B00009D12749274A11608021274A0902116040
:1046C00001E03028F1D01A78012A0DD11D4909687E
:1046D000090709D1F0201C4909680140402903D18C
:1046E0001A490968014223D01B68DBB2012B25D18E
:1046F000144B1B681B0721D1134B1A68F0231A4077
:10470000A02A04D1114A12681A4203D016E0D02A16
:1047100014D1F7E7114B1A68012A03D1C022104BBC
:104720001A600BE00F4A1A601A68012AFCD1F5E7FB
:10473000C1218020C900C0054250D5E710BDC04648
:10474000E00F00F0E40F00F0E80F00F0EC0F00F0D5
:10475000DFFF07C004050040186C004000EC064075
:1047600014EC064075930000F7B506000D000C0030
:104770008B180193019B671B9C4207D033682178FB
:104780001B683000984701340028F3D13800FEBD83
:1047900070B505000C00081E07D001F0B5F82B68B5
:1047A00002005B6821002800984770BD10B5FFF734
:1047B000EFFF10BD10B540220021040000F077FC8F
:1047C000002320002364636410BD3F23026C10B5F6
:1047D000541C2340446C9C4201D08154036410BD9E
:1047E0000023036443647047436C026C934206D019
:1047F0003F21C25C01330B404364100001E0012003
:1048000040427047036C406C181A00D54030704726
:10481000436C026C934201D0C05C01E00120404235
:104820007047036C406C5A1C3F231340181A4242D5
:104830004241D0B270470120704710B5036813227F
:10484000DB69984710BD70470369054A9950FC33EE
:104850001A6A002AFCD0002201201A627047C04662
:104860001C050000030010B55C331A781F231340A9
:104870000122110099400D4B0424D967C22103691C
:1048800089005C505A60DA60A0220021D200995061
:104890000122074952425A50064914305A500C39E5
:1048A0005A5008315A50FFF79BFF10BD04E100E059
:1048B0000C0500001405000010B51430FFF7A2FF2E
:1048C00010BD10B51430FFF7A3FF10BD10B51430A4
:1048D000FFF78AFF10BD0000030070B55E331C783F
:1048E0000269604BD45003005D331C785E4BD4509A
:1048F000030061331C785D4B012C0CD105005F3542
:104900002E78A225ED005651050060352E78A125A0
:10491000ED00565100E00024D4509623DB0099426C
:1049200038D996231B01994237D996235B019942C6
:1049300036D996239B01994234D9E1239B019942B0
:1049400032D99623DB01994231D9E123DB01994227
:104950002FD996231B0299422DD9E1231B0299429C
:104960002BD996235B02994229D9E1235B02994214
:1049700027D9E1239B02994225D93D4B994224D95D
:10498000E123DB02994223D9E1231B03994221D879
:10499000384B21E09E23DB021EE09D231B031BE01E
:1049A000354B19E0354B17E0EC239B0314E0344BF7
:1049B00012E0344B10E0344B0EE0344B0CE0344B3F
:1049C0000AE0344B08E0344B06E08023DB0403E0CC
:1049D000324B01E080235B0531490024535004230E
:1049E000243953501100FC31CC600C62C1210134D8
:1049F000890014605C309460535003781F202200BB
:104A0000D9B20840824080342648FF345BB202515C
:104A1000002B13DA0F230B40083B234C9B089B0011
:104A20001B1903242140A140FC348C40DD69A543BF
:104A3000C0248C4021002943D96111E0194C9B0806
:104A40009B001B1903242140A140C025FC348C404D
:104A5000AD005E59A643C0248C402100314359511A
:104A6000026070BD0C050000140500006C0500001C
:104A700090D0030000D0BE0E00B0130000502700FD
:104A800000A04E0000F0750000509D0000F0EB000B
:104A900000903A0100E0D70100B0AF0300705F075B
:104AA0002405000000E100E000ED00E0F7B5009310
:104AB00008AB1B7800250193FA2304009B00836058
:104AC0000E4B45600833036014300F001600FFF7EB
:104AD00071FE23005C3327611E70009B084A9B0017
:104AE000995823005D331970019B20009B009A5850
:104AF00023005E33DD701A70FEBDC046946F000067
:104B0000186F0000036910B51A00FC32D268040067
:104B1000002A0AD0A322D20099581430C9B2FFF754
:104B200054FE00222369FC33DA6010BD10B5024840
:104B3000FFF7E8FF10BDC046F40F00201D2307B5A6
:104B400002220093024901330248FFF7AFFF07BD7D
:104B500000200040F40F00207047000010B500F066
:104B600047F8FFF7F9FF012000F024F8FFF790F96C
:104B7000FFF7A2F9024B002BFAD000E000BFF7E7E5
:104B800000000000084A0949094B10B51B68885805
:104B9000FA22190A1B0618439200002300F0D2F9EA
:104BA0004904C00B084310BD04050000001001407B
:104BB0005810002070B5041E09D0FFF7E3FF050070
:104BC00000F014F8FFF7DEFF401B8442F8D870BDF8
:104BD0000022044B9A60044A13680133DBB213606D
:104BE0007047C046FC10014058100020704700007C
:104BF000C421114A89005058104B0340C0200002C4
:104C000003435350802391399B02FF395350136063
:104C10008023A3220021DB05D20099500122A1208C
:104C20009A60074BC0001950C12002318000195012
:104C3000403019501A60704700E100E0FF00FFFFAC
:104C40000010014002B4714649084900095C49005E
:104C50008E4402BC7047C046002243088B4274D386
:104C600003098B425FD3030A8B4244D3030B8B426D
:104C700028D3030C8B420DD3FF22090212BA030C76
:104C80008B4202D31212090265D0030B8B4219D357
:104C900000E0090AC30B8B4201D3CB03C01A524177
:104CA000830B8B4201D38B03C01A5241430B8B42BF
:104CB00001D34B03C01A5241030B8B4201D30B03A8
:104CC000C01A5241C30A8B4201D3CB02C01A5241CF
:104CD000830A8B4201D38B02C01A5241430A8B4292
:104CE00001D34B02C01A5241030A8B4201D30B027B
:104CF000C01A5241CDD2C3098B4201D3CB01C01A95
:104D0000524183098B4201D38B01C01A524143099E
:104D10008B4201D34B01C01A524103098B4201D38C
:104D20000B01C01A5241C3088B4201D3CB00C01AF9
:104D3000524183088B4201D38B00C01A5241430871
:104D40008B4201D34B00C01A5241411A00D2014696
:104D5000524110467047FFE701B5002000F0F0F81F
:104D600002BDC0460029F7D076E7704703460B43E3
:104D70007FD4002243088B4274D303098B425FD354
:104D8000030A8B4244D3030B8B4228D3030C8B4280
:104D90000DD3FF22090212BA030C8B4202D3121266
:104DA000090265D0030B8B4219D300E0090AC30B3B
:104DB0008B4201D3CB03C01A5241830B8B4201D3E8
:104DC0008B03C01A5241430B8B4201D34B03C01AD1
:104DD0005241030B8B4201D30B03C01A5241C30A49
:104DE0008B4201D3CB02C01A5241830A8B4201D3BA
:104DF0008B02C01A5241430A8B4201D34B02C01AA4
:104E00005241030A8B4201D30B02C01A5241CDD248
:104E1000C3098B4201D3CB01C01A524183098B4293
:104E200001D38B01C01A524143098B4201D34B017C
:104E3000C01A524103098B4201D30B01C01A5241DF
:104E4000C3088B4201D3CB00C01A524183088B4266
:104E500001D38B00C01A524143088B4201D34B004F
:104E6000C01A5241411A00D20146524110467047C1
:104E70005DE0CA0F00D04942031000D340425340C6
:104E800000229C4603098B422DD3030A8B4212D386
:104E9000FC22890112BA030A8B420CD389019211B8
:104EA0008B4208D3890192118B4204D389013AD0F5
:104EB000921100E08909C3098B4201D3CB01C01ACA
:104EC000524183098B4201D38B01C01A52414309DD
:104ED0008B4201D34B01C01A524103098B4201D3CB
:104EE0000B01C01A5241C3088B4201D3CB00C01A38
:104EF000524183088B4201D38B00C01A5241D9D250
:104F000043088B4201D34B00C01A5241411A00D2D0
:104F10000146634652415B10104601D34042002BCC
:104F200000D54942704763465B1000D3404201B54B
:104F3000002000F005F802BD0029F8D016E7704700
:104F40007047C046F0B54F464646C0B41604360C0E
:104F50009946330005042C0C070C150C63437E4363
:104F60006F4365431C0CAD1964199C46A64203D9D6
:104F700080235B02984647446346250CEF191D04C5
:104F80004B464A4343432D0C240464199918C9190C
:104F900020000CBC90469946F0BDC0467FB51D0070
:104FA0000A4B06001B68D868002A02D1084C23006F
:104FB00001E01300074C0293009133002A000649D8
:104FC000019400F021F800F023FEC0461C010020EF
:104FD00088690000C46F0000D16F0000084B10B555
:104FE0000400002B02D0002100E000BF054B186830
:104FF000836A002B00D09847200001F0F3FAC046E6
:1050000000000000047000000EB403B5010003AB03
:10501000044804CB0068019300F016F902B008BC04
:1050200003B018471C0100200E4B70B500251E0070
:105030000D4CE41AA410A54204D0AB00F3589847D5
:105040000135F8E701F0D0FA084B00251E00084CA6
:10505000E41AA410A54204D0AB00F35898470135D8
:10506000F8E770BD24010020240100202401002065
:105070003401002010B5034B0100186800F066F8F9
:1050800010BDC0461C01002010B5034B010018687C
:1050900000F016F810BDC0461C010020002310B51A
:1050A0009A4203D0CC5CC4540133F9E710BD03002D
:1050B0008218934202D019700133FAE7704700005A
:1050C00030B500293ED004390B68002B00DAC9182E
:1050D0001D4A13681400002B02D14B60116031E0AF
:1050E0008B420DD90A688818834203D118685B681F
:1050F00082180A604B60216024E08A4203D81300C2
:105100005A68002AF9D11D685C198C420BD10968D4
:10511000691858181960824214D1106852684118F1
:1051200019605A600EE08C4202D90C23036009E03A
:1051300008680C18A24203D114685268201808604D
:105140004A60596030BDC04660100020032370B52E
:10515000CD1C9D43083506000C2D01D20C2505E021
:10516000002D03DA0C230020336040E0A942F9D877
:105170001F4B1C681A002100002913D00B685B1B11
:105180000DD40B2B02D90B60CC181EE08C4202D13F
:10519000636813601AE04B6863600C0016E00C0053
:1051A0004968E9E7134C2368002B03D1300000F075
:1051B00033FB20602900300000F02EFB431CD1D0CF
:1051C0000323C41C9C43A0420AD12560200007226F
:1051D0000B30231D9043C31A09D05A42E25006E017
:1051E000211A300000F018FB431CEED1BAE770BD65
:1051F000601000205C100020936810B5013B9360A4
:10520000002B05DA9469A34208DBCBB20A2B05D048
:105210001368581C10601970C8B201E000F02CFC33
:1052200010BDF8B506000F001400D518AC4208D028
:1052300021783A003000FFF7DFFF0134431CF5D13D
:1052400000E00020F8BD0000F0B59FB006000F00A0
:1052500002920593002804D08369002B01D100F04D
:10526000D3FD7F4B9F4201D1776808E07D4B9F4281
:1052700001D1B76803E07C4B9F4200D1F768BB893E
:105280001B070AD53B69002B07D0002306AD6B61D5
:1052900020336B761033AB763DE03900300000F000
:1052A00043FC0028F1D001204042D6E0059A111DB0
:1052B00012680591002A00DA7FE009920134237810
:1052C0002E2B00D18DE021780322684800F082FE69
:1052D000002807D0654B2A68C01A40238340134337
:1052E0002B6001342178631C0622614802932976E1
:1052F00000F070FE002800D19DE05E4B002B00D036
:1053000090E00722059B07339343083305936B69AD
:10531000039A9B186B61029C2378002B04D1029B9B
:10532000E31A049312D003E0252BF8D00134F3E7FD
:10533000049B029A39003000FFF773FF431C00D131
:1053400086E06A69049B944663446B612378002B72
:105350007ED00122002352426A6002A954325218C0
:1053600001342B60EB60AB601370AB6521780522D4
:10537000414800F02FFE002808D03F4B2A68C01A91
:105380000123834013432B600134EFE72B68DA06D7
:1053900004D55322202102A8121811701A0704D52F
:1053A00053222B2102A81218117022782A2A00D128
:1053B0007CE7099B00200A2105E05242EA600222B4
:1053C00013432B607AE72278303A092A04D84B43FA
:1053D00001349B180120F6E7002800D16FE70993FC
:1053E0006DE763782A2B0AD1059B02341A1D1B68CE
:1053F0000592002B01DA01235B42079363E7002348
:105400000A201A0001346B6021783039092904D848
:105410004243013452180123F6E7002B00D152E732
:10542000079250E705AB00933A00144B2900300077
:1054300000E000BF07E005AB00933A000F4B2900E6
:10544000300000F08BF80390039B013300D05EE73F
:10545000BB895B0600D526E70B981FB0F0BDC046A0
:105460003C7100005C7100007C7100000E70000057
:1054700012700000000000000870000023520000BD
:10548000F7B5170001938A680B6900900C009342EE
:1054900000DA130022003B6043321278002A01D068
:1054A00001333B6023689B0602D53B6802333B60B7
:1054B000062523681D401ED0230043331B785A1E47
:1054C0009341226892061CD53020E11843310870C0
:1054D00021005A1C45310978A21843320233117059
:1054E0000FE022000123193201990098089EB0476D
:1054F000431C0ED00135E3683A689B1A9D42F0DBED
:10550000DAE72200019943320098089DA847431C1E
:1055100002D10120404220E006232068E1683A6879
:1055200003400025042B03D18D1AEB43DB171D40EC
:10553000A3682269934201DD9B1AED180027BD4242
:105540000AD0220001231A3201990098089EB04720
:10555000431CDED00137F2E70020FEBDF0B58BB072
:1055600006920A0043320793059004920A7E0C00CB
:10557000109B6E2A00D1ABE011D8632A22D009D843
:10558000002A00D1B5E0582A00D0C5E045310A70A4
:10559000814A4FE0642A1DD0692A1BD0BCE0732ADF
:1055A00000D1AAE009D86F2A29D0702A00D0B3E030
:1055B000202209680A43226037E0752A1FD0782A22
:1055C00033D0A9E00E001A684236111D1960136825
:1055D0003370A4E021681A68080606D4490604D589
:1055E000111D19600023D55E02E0111D19601568B8
:1055F000002D3BDA2D23049A6D42137036E02168AA
:105600001A68080606D4490604D51568111D1960E4
:10561000ADB202E0111D196015685F4B227E039345
:1056200008276F2A1DD00A271BE022007821453267
:1056300011705A4A19680392081D226818600D6893
:10564000100602D4500600D5ADB2D30702D52023F0
:105650001A4322601027002D03D1202322689A4389
:1056600022602300002243331A7002E00A274A4BCB
:1056700003936368A360002B09DB04222168914334
:105680002160002D05D1049E002B11D07BE0002D60
:1056900079D0049E28003900FFF764FB039B013E8C
:1056A0005B5C280033703900FFF7D6FA051EF1D194
:1056B000082F09D12368DB0706D563682269934266
:1056C00002DC3023013E3370049B9B1B23612BE0E3
:1056D00009681A68080607D4490605D5111D19601E
:1056E0001368A28A1A8004E0111D196013686269A8
:1056F0001A600023049E236116E01A68111D1960C8
:10570000166800216268300000F064FC002801D0B7
:10571000801B6060636803E026004236327001231C
:1057200023610023049A1370079B09AA00932100A8
:10573000069B0598FFF7A4FE431C02D101204042BE
:1057400027E02369320006990598079DA847431C66
:10575000F4D0236800259B070FD4099BE06898428A
:1057600017DA180015E0220001231932069905986E
:10577000079EB047431CE1D00135E368099A9B1AA4
:105780009D42F0DBE9E72600039B42361B7833702D
:105790008EE70BB0F0BDC046197000002A70000003
:1057A000154B10B51C68A36B002B15D11820FFF703
:1057B00061FC124BA0630380114B01224380114B0B
:1057C0008380114BC380114B038105234381063332
:1057D0008381002302614361A46B0D4A20696169E2
:1057E0000C4BFFF7AFFB01220023801859412061C9
:1057F00061614800400810BD1C0100200E3300000C
:10580000CDABFFFF341200006DE6FFFFECDEFFFFC3
:105810002D7F954C2DF45158002370B5064C050092
:105820000800236000F0C8FE431C03D12368002B4E
:1058300000D02B6070BDC046BC1F00200CB430B53A
:10584000164B9DB00C1E1D6804DA8B2301202B60C3
:1058500040421DE0822302A99B008B81002302901D
:1058600008619C4200D0631E8B604B6101235B4248
:10587000CB81209A21AB2800019300F053FC431CFC
:1058800001DA8B232B60002C02D00023029A1370C4
:105890001DB030BC08BC02B01847C0461C01002037
:1058A0000EB410B59DB002A9029008610B48822485
:1058B00088604861012040421FABC881084804CB82
:1058C000A400006801938C8100F02CFC0023029A54
:1058D00013701DB010BC08BC03B01847FFFFFF7F5A
:1058E0001C01002002780B78002A03D0013001311E
:1058F0009A42F7D0D01A7047031C0A7801311A7007
:105900000133002AF9D170470023C25C0133002A19
:10591000FBD1581E7047030030B5002A0DD00C781B
:1059200001335D1E013A2C700131002CF5D19A181B
:105930009A4202D01C700133FAE730BDF0B51E0068
:10594000454B87B01B680192029308220B0005901B
:1059500003911C7802995D1C09194878104001D008
:105960002B00F6E72D2C04D19D1C5C7801230093BD
:1059700004E000902B2C01D15C789D1C002E02D0FD
:10598000102E0AD162E0302C5ED120222B78934376
:10599000582B54D110266C780235009F31007B1EA5
:1059A0009F412E4BFF183800FFF7DCF938000491B7
:1059B0003100FFF751F90023032207009446180035
:1059C000029A121951780422114201D0303C07E0AA
:1059D0006246114017D03722012900D02032A41A84
:1059E000A64210DD5A1C0BD0B84207D802D1049B46
:1059F0009C4203DC70430123201801E001235B4239
:105A00002C780135DCE75A1C0BD10098059A431E0F
:105A10009841124BC01822231360019B002B0AD11E
:105A200017E0009A002A00D04042019A002A10D0C4
:105A3000039A002B00D06A1E019B1A6009E03024F3
:105A4000002EAAD10826A8E70A26A6E7302C9CD06B
:105A5000A3E707B0F0BDC04620010020FFFFFF7F95
:105A600010B513000A00010002480068FFF766FF46
:105A700010BDC0461C010020F8B505000F00140041
:105A8000002804D08369002B01D100F0BDF9234B1D
:105A90009C4201D16C6808E0214B9C4201D1AC686A
:105AA00003E0204B9C4200D1EC68A369A360A3896A
:105AB0001B070AD52369002B07D023682269FEB291
:105AC000981A636998420FDB08E02100280000F073
:105AD0002BF80028F1D0012040421DE021002800D1
