:1000000000400020016400004164000043640000DF
:1000100000000000000000000000000000000000E0
:100020000000000000000000000000004564000027
:100030000000000000000000476400004964000068
:100040004B640000F52E0000356C00004B6400008E
:100050004B640000000000004B6400004B64000093
:100060004B640000796600004B6400004B640000A4
:100070004B6400004B6400004B6400004B640000C4
:100080004B640000D96C00004B6400004B6400001E
:100090004B6400004B6400004B6400004B640000A4
:1000A0004B6400004B6400000000000000000000F2
:1000B0000000000000000000000000000000000040
:1000C000054B0648033310B51B1A062B03D9044B06
:1000D000002B00D0984710BD600200206002002075
:1000E000000000000648074910B5091A8910CB0F17
:1000F0005918491003D0044B002B00D0984710BD6D
:1001000060020020600200200000000010B5074CD3
:100110002378002B09D1FFF7D3FF054B002B02D02A
:10012000044800E000BF0123237010BD60020020DE
:100130000000000090B00000094B10B5002B03D068
:100140000849094800E000BF08480368002B02D1B5
:10015000FFF7C8FF10BD064B002BF9D09847F7E713
:10016000000000006402002090B000005C0200204B
:1001700000000000164B002B00D1144B9D4640227E
:1001800092029A1A924600218B460F461348144A4F
:10019000121A08F0B4FC0F4B002B00D098470E4BFE
:1001A000002B00D098470020002104000D000D48CE
:1001B000002802D00C4800E000BF08F05DFC2000E1
:1001C000290006F04FFD08F031FCC0460000080091
:1001D000004000200000000000000000600200203D
:1001E000342600200000000000000000012303402E
:1001F0000200181E04D1042A03D91068000900E087
:100200000020704710B50400FFF7F0FF0300002046
:1002100083420BD0013B9B00181DE2181279002A83
:1002200003D001338342F8D100E0180010BD012251
:10023000016810B5114201D0002903DA102000F046
:10024000AFF903E04910062001F0F8FE10BD016887
:1002500010B5CB0701D5002903DA102000F0A0F972
:1002600006E04910033189100022052001F0E6FE66
:1002700010BD70B50568AB0728D1042D26D90F2312
:100280002A6846681340062B09D12800FFF7AEFF05
:10029000012383421DDC9A00AE500133F9E7052BA0
:1002A00014D1F30703D4132000F07AF912E076108A
:1002B000FF2EF8D82800FFF799FF2C1D230080009F
:1002C0002018984205D91E700133FAE70B2000F080
:1002D00067F9002070BD70B50468E30701D41120F0
:1002E0002DE04568AB0729D1042D27D90F262B68AF
:1002F00064101E40062E0BD1002C04DD2800FFF7F1
:1003000075FF844201DD122019E0A400605918E055
:10031000331F012B12D82800FFF768FF8000042E3E
:1003200002D12800FFF76EFF002CECDDA042EADBD3
:1003300001232C19E0784000184302E00B2000F064
:100340002FF970BDF8B5012304681C4201D11120BA
:100350002FE00325466835402AD1042E28D90F23E3
:100360003268641087681340062B0BD1002C04DD23
:100370003000FFF73BFF844201DD122019E0A400AA
:10038000A75113E0052B13D1002CF6DD3000FFF749
:100390002DFF80008442F0DC01231F4201D1132095
:1003A00007E07F10FF2FFAD83419E770280002E029
:1003B0000B2000F0F5F8F8BD006810B5830717D1E1
:1003C000042815D90F2302681340062B02D1FFF72A
:1003D0000DFF0BE0052B05D1FFF708FFC00001233F
:1003E000184308E0042B03D1FFF70CFF4000F6E7A9
:1003F0000B2000F0D5F810BD10B5032400680440B0
:1004000006D1042804D90F2302681340042B01D01D
:100410000E2011E001F04EFE0378233B5942594172
:1004200010224018210009F043F880239B05C218D0
:10043000054B9A4203D9142000F0B2F802E00123E0
:100440004000184310BDC046FFFFFF3F012303409B
:100450000200181E01D0501002E00D22014B1A704C
:100460007047C0467C020020012303400200181E92
:1004700004D1042A03D91068000900E00020704765
:1004800070B50D000400FFF7EFFF86002800FFF7AE
:10049000EBFF830000209E420ED1231D9E190435E0
:1004A0001A009E4207D929781278013301358A4211
:1004B000F6D0002000E0012070BD0000F0B585B04E
:1004C0000393019002912D4E2D4B002A02D002225F
:1004D0003270013A00251A601B68F554019B9D4259
:1004E0004ADA029AAB00D058254B1C68C8239B00FF
:1004F00037191C1B0123184202D04310214A1FE068
:10050000214A002802D0042805D1204A21003800C1
:1005100008F0BCFE18E0042810D90F23026813402D
:10052000042B04D101F0C6FD194A030008E0062B94
:1005300005D1FFF799FF174A030001E00123164A8E
:100540002100380008F0A2FE300008F005FF039BF0
:100550000B4A002B01D110600CE0019B013B9D4236
:10056000F9DA0E4B9842F6DC431C13602022325419
:100570000022F2540135B1E705B0F0BD8802002039
:10058000840200207DA2000050A2000056A20000BC
:1005900014A600005BA200006CA200001F03000074
:1005A000014B1870002070477C02002070B503F0EA
:1005B0000BFB094C0100251D1F22280008F0D3FE6B
:1005C000280008F0C9FE0423043080080001184305
:1005D0002060200070BDC046A8050020C368F0B5AB
:1005E0009D00836889B05D19030018330693036981
:1005F00003909F00069BDF1943699E000193069BB1
:100600009E19D24B1B78002B0FD17F222B68D0492B
:100610001C1213409B005B5801960435029235E092
:10062000CA4B1B78002B29D0019E039BC74C9B68AB
:1006300021780193EA1A039B92109B7812021A43C5
:10064000039B587803F03AF80023039A2370137041
:1006500001960497039B069A9B68ED1A0293039BED
:10066000AD10DD60049B9F1A039BBF101F61019BAF
:100670009B1A039A9B10536101F02EFC2B68029A7F
:100680001C121340B24A9B009B5804359F46039BA3
:10069000587803F00BF80023039A1370D9E7069BF0
:1006A0003A1DD11AA94BDB2903DD1A22019E1A70CB
:1006B000BBE71B783C60002B02D0019E1700B4E71B
:1006C0002B6802991C120B40A1499B005B58170034
:1006D0000435DBE7069B3A1DD11A9C4BDB2903DD71
:1006E0001A22019E1A70A0E728681B78291D38601D
:1006F000002B03D0019E17000D0096E76B6802994E
:100700001C120B4092499B005B5817000835BDE74F
:10071000069B3A1DD11A8D4BDB2903DD1A22019E5F
:100720001A7082E7A4001B782C193C60002B02D0C1
:10073000019E170079E72B6802991C120B4084492F
:100740009B005B5817000435A0E7069B3A1DD11AA1
:100750007E4BDB2903DD1A22019E1A7065E77D4876
:10076000A40021581B783960002B02D0019E17008D
:100770005BE72B6802991C120B4075499B005B5884
:100780001700043582E7043F724B3A68A400E25038
:100790006E4B1B78002B01D0019E46E72B68029A16
:1007A0001C1213406A4A9B009B5804356EE7694B44
:1007B000A600F058FFF74AFE043F04003868FFF730
:1007C00045FE24180120634B64000443F4505F4B42
:1007D0001B78002B01D0019E27E72B68029A1C1280
:1007E00013405B4A9B009B5804354FE7069B3A1D1C
:1007F000D11A564BDB2903DD1A22019E1A7014E729
:100800000198069C0121A04202D901000C39096817
:100810001B783960002B02D0019E170005E72B687A
:1008200002991C120B404A499B005B581700043583
:100830002CE7069B3A1DD11A444BDB2903DD1A2213
:10084000019E1A70F1E60199069881420AD90B00BF
:100850000C3B1B6840495B106418E41A019BA40020
:10086000E35802E01821197000233B60374B1B78D6
:10087000002B02D0019E1700D7E62B6802991C12AC
:100880000B4033499B005B5817000435FEE6019B83
:10089000069A93420BD90C3B19682F4B043FE3187F
:1008A0004910591A3A68019B8900CA5002E018227F
:1008B000264B1A70254B1B78002B01D0019EB4E605
:1008C0002B68029A1C121340214A9B009B58043546
:1008D000DCE6019B069A93421CD9019E1E4B0C3EFE
:1008E000E4183368019A5B10E31A9B009858FFF7ED
:1008F000ADFD043F04903868FFF7A8FD3168049B04
:100900004910611A012418184000019B89002043F6
:10091000C85002E018220D4B1A700C4B1B78002BAC
:1009200001D0019E81E62B68029A1C121340084AEE
:100930009B009B580435A9E6069B3A1DD11A034B30
:10094000DB290BDD1A22019E1A706EE67C02002064
:1009500050A0000078230020FDFFFF3F0199A40074
:1009600061581B783960002B02D0019E17005CE6AD
:100970002B6802991C120B40D0499B005B58170052
:10098000043583E6043F019B3A68A400E250CC4B57
:100990001B78002B01D0019E47E62B68029A1C129F
:1009A0001340C64A9B009B5804356FE6019BA40088
:1009B0001C192368043F38685E10FFF747FD36189E
:1009C0000120BF4B76001B7806432660002B01D028
:1009D000019E2AE62B68029A1C121340B74A9B001C
:1009E0009B58043552E6069BA4003F1BB44CBB4207
:1009F0000DD82378002B01D0019E16E62B68029AB1
:100A00001C121340AD4A9B009B5804353EE6AD488E
:100A100001F0C4FA2378002B01D0019E05E62B6873
:100A2000029A1C121340A54A9B009B5804352DE6E0
:100A3000A300ED18002C00DA0BE6A14B1B78002B6D
:100A400001D0019EF1E52B68029A1C1213409B4ACB
:100A50009B009B58043519E63B1F04931B680793C2
:100A6000042B04D1A300ED18002C00DAF2E5944B1E
:100A70001B78002B02D0019E049FD6E52B68029ABA
:100A80001C1213408D4A9B009B58049F0435FDE5C2
:100A90003B1F04931B68042B06D0A200AD18002C4A
:100AA00002DA002B00D1D5E5854B1B78002B02D054
:100AB000019E049FB9E52B68029A1C1213407F4ADD
:100AC0009B009B58049F0435E0E53A1F13685B10B8
:100AD000013B002B07DD01215B00A4000B430497C1
:100AE0002D191360B6E5764B17001B78002B01D04B
:100AF000019E9AE52B68029A1C1213406F4A9B00D4
:100B00009B580435C2E53A00069B0C32D31ADB2B06
:100B100004DD1A226A4B019E1A7086E5FF236100EC
:100B20005B000B4001210B433B60039B06989B68D5
:100B300024120493ED1A039BAD109B782D021D43E4
:100B4000019B8D401B1A9B108B400B43BB60039B8A
:100B50000D437D609C70E4B25B4BE4000399E35865
:100B600016008B6056490978002903D008331D0010
:100B700017005AE51D0002999B680C351C120B40AA
:100B80004E499B005B58019217007FE53B1F1E6892
:100B9000069A019B93422AD104970A20F30716D4A0
:100BA000B3070DD1042E0BD90F2332681340042B49
:100BB00006D1300001F07EFA08F0CEFB063006E0E8
:100BC0000720042E03D0002E01D080208000643046
:100BD00002F01CFB002801D1043D3BE5039B3100E2
:100BE000587802F07DFD0023039A137032E5019BD3
:100BF000019A0C3B1B6803995B109B005B421F0032
:100C0000D3180C3B1E601300083B1B68083FD71924
:100C10005A108A70D2B22C49D2005B0055589B0AF8
:100C2000039A9B009560ED18019B043B1E68069B90
:100C30007610B6009E19224B1B78002B00D0F4E4EE
:100C40002B68029A1C1213401C4A9B009B58019669
:100C500004351BE53B1F1868FFF7F8FBA4000600EE
:100C60003F1B1E2834DC00280EDC154B1B78002BA4
:100C700001D0019ED9E42B68029A1C1213400F4A3E
:100C80009B009B58043501E502F084FF033E3618B3
:100C900002F080FF0D4B801B9842F9D8084B1B785F
:100CA000002B01D0019EC0E42B68029A1C12134055
:100CB000024A9B009B580435E8E4C04650A000005F
:100CC0007C02002080A20000801B00209F86010083
:100CD0000123039A137002F05DFF039B0A38861903
:100CE0005E60B6E43B1F1868FFF7B0FBA4000490F9
:100CF0003F1B00280EDCCF4B1B78002B01D0019E40
:100D000093E42B68029A1C121340CB4A9B009B5819
:100D10000435BBE4C94B049A019E9A4203DD1D22AF
:100D2000C44B1A7081E40123039A137002F032FF5E
:100D3000FA23049A9B005343039A0A3B1B185360FF
:100D400087E4A300FF1A002320001A003900FFF7F0
:100D5000B5FBBB4EBB4C3168200002F013FC316880
:100D6000200002F0C4FCB34B1B78002B01D0019E85
:100D70005BE42B68029A1C121340AF4A9B009B58FD
:100D8000043583E4AB4BA4001B783F1B002B01D040
:100D9000019E4AE42B68029A1C121340A64A9B004B
:100DA0009B58043572E402F077FA01F095F83B1F86
:100DB0001868002823D1083B1868C30701D54010E4
:100DC00016E083070FD104280DD90F2302681340C2
:100DD000062B02D1FFF748FB0AE0052B03D1FFF7F2
:100DE00043FB800004E01922924B019E1A701CE420
:100DF0003A0001214300083A0B43136001E0401020
:100E00000138002832DD012243001343391F0B60F3
:100E10003B00083B1B681341181A3B000C3B1B6846
:100E2000134203D08018A400904015E0990717D111
:100E3000042B15D90F211E683140062906D1013037
:100E40008000C358019AA400A35010E0052907D1DF
:100E500018180079A4004000019B1043E05006E000
:100E60001922744B019E1A70FFF7DFFB0435714B9A
:100E70001B78002B02D0019EFFF7D7FB2B68029A4C
:100E80001C1213406C4A9B009B580435FFF7FEFB75
:100E9000A300069AFB189B1ADB2B01DC012205E05C
:100EA0001A22644B019E1A70FFF7BFFB631E002CD1
:100EB00003DD3A601C000437F8E75E4B1B78002B1B
:100EC00002D0019EFFF7B1FB2B68029A1C1213405F
:100ED000594A9B009B580435FFF7D8FBA3009C465A
:100EE000F81A002C04DC1C22524B00261A7015E064
:100EF000002103685B1001268A008258164003D146
:100F00000D224C4B1A7009E05210934200DD130081
:100F100001318C42EFDC01265B001E436346FF1A61
:100F2000444B06601B780437002B02D0019EFFF76C
:100F30007CFB2B68029A1C1213403F4A9B009B5873
:100F40000435FFF7A3FBA3009C46F81A002C04DC31
:100F50001C22384B00261A7015E0002103685B1034
:100F600001268A008258164003D10D22314B1A7097
:100F700009E05210934200DA130001318C42EFDC99
:100F800001265B001E436346FF1A2A4B06601B784E
:100F90000437002B02D0019EFFF747FB2B68029A13
:100FA0001C121340244A9B009B580435FFF76EFB2C
:100FB0003B00083B1868FFF749FA3B1F049018688C
:100FC000FFF744FA049AA600BC1B0023824200DA11
:100FD00004332360174BBF1B1B780437002B02D050
:100FE000019EFFF722FB2B68029A1C121340124A43
:100FF0009B009B580435FFF749FBA300FE1A04939E
:101000003B00083B1868FFF721FA3B1F04001868F3
:10101000FFF71CFAE20FC317A04253419B00336055
:10102000049BFF1A034B04371B78002B0CD0019E46
:10103000FFF7FBFA7C02002050A0000080EE360093
:1010400084020020880200202B68029A1C121340A0
:10105000D14A9B009B580435FFF718FB3B00083B27
:1010600018683B1F1968A300884202D1FB1A0422AA
:1010700022E004281ED90122104201D0114219D1C8
:101080000326304215D10F2302681A40042A10D1DA
:1010900031420ED104290CD90A681340042B08D11F
:1010A000FFF7EEF9431E9841A600BE1B800030609A
:1010B00003E0A3000022FB1A1A60B84BA4001B78BF
:1010C0003F1B0437002B02D0019EFFF7AEFA2B68BE
:1010D000029A1C121340B04A9B009B580435FFF73C
:1010E000D5FA3B00083B18683B1F1968A3008842EB
:1010F00002D1FB1A002223E004281FD9012210424A
:1011000001D011421AD10326304216D10F230268B2
:101110001A40042A11D131420FD104290DD90A688D
:101120001340042B09D1FFF7ABF903005842584193
:10113000A600BE1B8000306003E0A3000422FB1A5F
:101140001A60964BA4001B783F1B0437002B02D07B
:10115000019EFFF76AFA2B68029A1C1213408E4A0E
:101160009B009B580435FFF791FAA300FE1A0493E5
:101170003B00083B1868FFF769F93B1F040018683B
:10118000FFF764F9E217C30F844253419B003360B9
:10119000049BFF1A814B04371B78002B02D0019E61
:1011A000FFF743FA2B68029A1C1213407A4A9B00FD
:1011B0009B580435FFF76AFA3B00083B1868FFF7B5
:1011C00045F93B1F04901868FFF740F9049AA60000
:1011D000BC1B0023824200DD043323606F4BBF1B26
:1011E0001B780437002B02D0019EFFF71EFA2B68F4
:1011F000029A1C121340684A9B009B580435FFF763
:1012000045FA3B1F1B68A400043B591E8B413A1B47
:1012100017009B001360614B04371B78002B02D032
:10122000019EFFF702FA2B68029A1C1213405A4AD9
:101230009B009B580435FFF729FAA300FC1A04937E
:101240003B00083B1868FFF701F93B1F06001868D0
:10125000FFF7FCF836180120049B7600FF1A4F4B6D
:1012600006431B7826600437002B02D0019EFFF74F
:10127000DCF92B68029A1C121340474A9B009B58CA
:101280000435FFF703FAA300FE1A04933B00083B62
:101290001868FFF7DBF83B1F04001868FFF7D6F863
:1012A000241A0120049B6400FF1A3C4B04431B7862
:1012B00034600437002B02D0019EFFF7B6F92B688B
:1012C000029A1C121340344A9B009B580435FFF7C6
:1012D000DDF9A300FC1A04933B00083B1868FFF7F4
:1012E000B5F83B1F06001868FFF7B0F84643012029
:1012F000049B7600FF1A294B06431B7826600437AF
:10130000002B02D0019EFFF790F92B68029A1C1265
:101310001340214A9B009B580435FFF7B7F93B1F48
:101320001868FFF793F8A30006000493FC1A00283E
:1013300003D11F22194B1A700AE03B00083B1868C2
:10134000FFF784F8310005F09FFD012640000643B9
:10135000049B2660FF1A114B04371B78002B02D028
:10136000019EFFF762F92B68029A1C1213400A4A89
:101370009B009B580435FFF789F93B1F1868FFF75E
:1013800065F8A30006000493FC1A002808D11F2268
:10139000024B1A700FE0C04650A000007C020020F3
:1013A0003B00083B1868FFF751F8310005F052FE8A
:1013B000012649000E43049B2660FF1AEC4B0437BC
:1013C0001B78002B02D0019EFFF72FF92B68029AA1
:1013D0001C121340E74A9B009B580435FFF756F94F
:1013E0003B1F1868FFF732F8C317C0185840012395
:1013F000A4003E1B370040001843DD4B30601B78D3
:101400000437002B02D0019EFFF70FF92B68029AD8
:101410001C121340D74A9B009B580435FFF736F93E
:10142000A300FE1A07933068012C03D1FFF70EF8D2
:10143000049008E0FFF70AF804007068FFF706F868
:101440000130031B0493049B002B01DC0123049354
:1014500007F0CEFE049905F0FDFD0C190121079B54
:101460006400FF1AC24B0C431B7834600437002B16
:1014700002D0019EFFF7D9F82B68029A1C12134084
:10148000BC4A9B009B580435FFF700F9A4003E1BA3
:101490003000FEF7B1FF3700B54B30601B780437E2
:1014A000002B02D0019EFFF7C0F82B68029A1C1295
:1014B0001340B04A9B009B580435FFF7E7F8A300A0
:1014C000FE1A04933B00083B1868FEF7BFFF3B1F62
:1014D00004001868FEF7BAFF04400120049B640072
:1014E000FF1AA34B04431B7834600437002B02D04F
:1014F000019EFFF79AF82B68029A1C1213409D4A2E
:101500009B009B580435FFF7C1F8A300FC1A049315
:101510003B00083B1868FEF799FF3B1F0600186860
:10152000FEF794FF06430120049B7600FF1A904BC0
:1015300006431B7826600437002B02D0019EFFF77C
:1015400074F82B68029A1C1213408A4A9B009B581D
:101550000435FFF79BF8A300FC1A04933B00083BFB
:101560001868FEF773FF3B1F06001868FEF76EFF52
:1015700046400120049B7600FF1A7D4B06431B78F2
:1015800026600437002B02D0019EFFF74EF82B682F
:10159000029A1C121340774A9B009B580435FFF7B0
:1015A00075F83B1F1868FEF751FFC0430123A400E4
:1015B0003E1B3700400018436D4B30601B780437EA
:1015C000002B02D0019EFFF730F82B68029A1C1204
:1015D0001340684A9B009B580435FFF757F8A30057
:1015E000FE1A04933B00083B1868FEF72FFF3B1FD1
:1015F00004001868FEF72AFF8440012364001C439E
:10160000049B3460FF1A5A4B04371B78002B02D01E
:10161000019EFFF70AF82B68029A1C121340554AE4
:101620009B009B580435FFF731F8A300FE1A049382
:101630003B00083B1868FEF709FF3B1F04001868D1
:10164000FEF704FF0441012364001C43049B346043
:10165000FF1A474B04371B78002B02D0019EFEF780
:10166000E4FF2B68029A1C121340424A9B009B58CD
:101670000435FFF70BF83B000C3B1868FEF7E6FE5D
:101680003B00083B06001868FEF7E0FEF117020079
:10169000C317300005F030FD3B1F0490059118681A
:1016A000FEF7D4FE02000498059905F0D9FC012349
:1016B000A4003E1B3700400018432D4B30601B78C0
:1016C0000437002B02D0019EFEF7AFFF2B68029A71
:1016D0001C121340274A9B009B580435FEF7D6FF87
:1016E000A4003E1B3000FEF7A2FD3700204B306007
:1016F0001B780437002B02D0019EFEF796FF2B6863
:10170000029A1C1213401B4A9B009B580435FEF79B
:10171000BDFFA4003E1B3000FEF799FD3700144BBF
:1017200030601B780437002B02D0019EFEF77DFF4E
:101730002B68029A1C1213400E4A9B009B580435DA
:10174000FEF7A4FFA4003F1B3800FEF792FD084BF4
:101750001B78002B02D0019EFEF767FF2B68029AD0
:101760001C121340034A9B009B580435FEF78EFF62
:101770007C02002050A00000A4003E1B3000FEF7B9
:10178000AAFD3700E74B30601B780437002B02D0EE
:10179000019EFEF74AFF2B68029A1C121340E24A90
:1017A0009B009B580435FEF771FFA4003F1B3800D7
:1017B000FEF7C8FDDB4B1B78002B02D0019EFEF725
:1017C00034FF2B68029A1C121340D74A9B009B5887
:1017D0000435FEF75BFFA4003E1B3000FEF7ECFD76
:1017E0003700D04B30601B780437002B02D0019EAD
:1017F000FEF71BFF2B68029A1C121340CA4A9B007B
:101800009B580435FEF742FF069A3B1D0493C54CD6
:101810009B1ADB2B04DD1A23019E2370FEF705FFC4
:1018200002F0C2F901234000184323783860002BEE
:1018300003D0019E049FFEF7F8FE2B68029A1C124B
:101840001340B94A9B009B58049F0435FEF71EFFC6
:10185000069A3B1D0493B34C9B1ADB2B04DD1A2321
:10186000019E2370FEF7E1FE02F094F9AF4B4000B9
:1018700018400123184323783860002B03D0019EC1
:10188000049FFEF7D2FE2B68029A1C121340A64A50
:101890009B009B58049F0435FEF7F8FEA300FB1A3B
:1018A0000493012320001A000499FEF707FEA04CC0
:1018B0002068643001F0AAFC002816D0039B216840
:1018C0005A789C4801F021FF15E0A300FB1A04930D
:1018D0002000012300220499FEF7F0FD944C2068BB
:1018E000643001F093FC002802D1043DFEF7B1FE04
:1018F000904801F0A5FD0123039A137002F04AF904
:10190000C8222368D200063353431818039B58603B
:10191000FEF7A0FEA4003E1BFEF748FE3700814BF9
:1019200030601B780437002B02D0019EFEF77DFE4D
:101930002B68029A1C1213407B4A9B009B5804356B
:10194000FEF7A4FEA4003E1B300002F061F9370050
:10195000744B30601B780437002B02D0019EFEF7D9
:1019600064FE2B68029A1C1213406F4A9B009B581E
:101970000435FEF78BFEA4003E1B300002F04AF94E
:101980003700684B30601B780437002B02D0019E73
:10199000FEF74BFE2B68029A1C121340624A9B0012
:1019A0009B580435FEF772FEA4003E1B300002F087
:1019B00033F937005B4B30601B780437002B02D0C3
:1019C000019EFEF732FE2B68029A1C121340564A03
:1019D0009B009B580435FEF759FEA4003F1B3800BE
:1019E00002F038F94F4B1B78002B02D0019EFEF716
:1019F0001CFE2B68029A1C1213404B4A9B009B58FA
:101A00000435FEF743FEA300FE1A310020000493C4
:101A100002F042F9049B3060FF1A424B04371B78F6
:101A2000002B02D0019EFEF700FE2B68029A1C12CA
:101A300013403D4A9B009B580435FEF727FEA40047
:101A40003F1B380002F062F9364B1B78002B02D0A6
:101A5000019EFEF7EAFD2B68029A1C121340324ADF
:101A60009B009B580435FEF711FE0121200002F077
:101A700035F92C4B1B78002B02D0019EFEF7D5FDCB
:101A80002B68029A1C121340274A9B009B5804356E
:101A9000FEF7FCFD0021200002F020F9214B1B780D
:101AA000002B02D0019EFEF7C0FD2B68029A1C128B
:101AB00013401D4A9B009B580435FEF7E7FDA40028
:101AC0003E1B300002F040F93700164B30601B78A7
:101AD0000437002B02D0019EFEF7A7FD2B68029A67
:101AE0001C121340104A9B009B580435FEF7CEFD94
:101AF000A4003E1B300002F03BF93700094B306078
:101B00001B780437002B02D0019EFEF78EFD2B6858
:101B1000029A1C121340044A9B009B580435FEF79E
:101B2000B5FDC0467C02002050A00000FEFFFF7FF4
:101B30008402002088020020A4003F1B380002F02D
:101B4000F1F8E34B1B78002B02D0019EFEF76DFDF0
:101B50002B68029A1C121340DE4A9B009B580435E6
:101B6000FEF794FDA4003F1B380002F045FED84B61
:101B70001B78002B02D0019EFEF757FD2B68029ABE
:101B80001C121340D34A9B009B580435FEF77EFD80
:101B9000A4003E1B300002F0C3FE3700CC4B306087
:101BA0001B780437002B02D0019EFEF73EFD2B6808
:101BB000029A1C121340C74A9B009B580435FEF73B
:101BC00065FDA4003F1B380002F0C6FDC04B1B782A
:101BD000002B02D0019EFEF728FD2B68029A1C12F2
:101BE0001340BC4A9B009B580435FEF74FFDA400F0
:101BF0003E1B300002F0C6FD3700B54B30601B784D
:101C00000437002B02D0019EFEF70FFD2B68029ACD
:101C10001C121340AF4A9B009B580435FEF736FD5B
:101C2000A4003F1B380002F0A7FBA94B1B78002B38
:101C300002D0019EFEF7F9FC2B68029A1C12134099
:101C4000A44A9B009B580435FEF720FDA4003F1BCF
:101C5000380002F0A7FB9E4B1B78002B02D0019EA0
:101C6000FEF7E3FC2B68029A1C121340994A9B0072
:101C70009B580435FEF70AFDA4003F1B380002F014
:101C8000A1FB934B1B78002B02D0019EFEF7CDFCED
:101C90002B68029A1C1213408E4A9B009B580435F5
:101CA000FEF7F4FCA4003F1B380002F0B3FB884BA6
:101CB0001B78002B02D0019EFEF7B7FC2B68029A1E
:101CC0001C121340834A9B009B580435FEF7DEFC30
:101CD000A300FE1A31002000049302F0ABFE049B27
:101CE0003060FF1A7A4B04371B78002B02D0019E1C
:101CF000FEF79BFC2B68029A1C121340754A9B004E
:101D00009B580435FEF7C2FCA300FE1A31002000E8
:101D1000049302F097FE049B3060FF1A6C4B04376B
:101D20001B78002B02D0019EFEF77FFC2B68029AE5
:101D30001C121340674A9B009B580435FEF7A6FC13
:101D4000A300FE1A31002000049302F083FE049BDE
:101D50003060FF1A5E4B04371B78002B02D0019EC7
:101D6000FEF763FC2B68029A1C121340594A9B0031
:101D70009B580435FEF78AFCA300FE1A31002000B0
:101D8000049302F0A1FC049B3060FF1A504B04370F
:101D90001B78002B02D0019EFEF747FC2B68029AAD
:101DA0001C1213404B4A9B009B580435FEF76EFCF7
:101DB000A4003F1B380002F055FB454B1B78002B5D
:101DC00002D0019EFEF731FC2B68029A1C121340D0
:101DD000404A9B009B580435FEF758FCA300FF1AAD
:101DE0003900200002F0F0FB394B1B78002B02D0A9
:101DF000019EFEF71AFC2B68029A1C121340354A0A
:101E00009B009B580435FEF741FCA4003E1B3000AC
:101E100002F0A6FB37002E4B30601B780437002BF6
:101E200002D0019EFEF701FC2B68029A1C1213409F
:101E3000284A9B009B580435FEF728FCA300FF1A94
:101E40003900200002F06EFB214B1B78002B02D0E2
:101E5000019EFEF7EAFB2B68029A1C1213401D4AF2
:101E60009B009B580435FEF711FCA300FF1A3900B4
:101E7000200001F04DF9164B1B78002B02D0019E7B
:101E8000FEF7D3FB2B68029A1C121340114A9B00E9
:101E90009B580435FEF7FAFBA300FE1A3100200020
:101EA000049301F035F9049B3060FF1A084B0437A6
:101EB0001B78002B02D0019EFEF7B7FB2B68029A1D
:101EC0001C121340034A9B009B580435FEF7DEFBAF
:101ED0007C02002050A0000009B0F0BD0023F7B53F
:101EE0005A1E0192002B07DA02F0F2F801F084FB8F
:101EF00001F030FC6423019300263000194B19686F
:101F00008E4201DB019BEBE7174B1A6801329142CD
:101F100000DC0022F0241A601D68144F6C43E35D5E
:101F2000002B1DD0E419022B16D0012B0ED1002856
:101F300001D101F02FFEF0226A430C4B0C499B1893
:101F40005B68C31A8B4201D80223BB54F0235D4364
:101F5000064BEB5C022B03D12000FEF73FFBD1E7E1
:101F60000136CBE780020020000000202012002074
:101F70009F860100064B01201A68064B06491A602D
:101F8000C82200235200C85004339342FBD170474B
:101F9000D4050020CC0500207823002000B59BB09C
:101FA0000200054901A807F0A3F901A801F064FAAD
:101FB00001F0D0FBFCE7C04690A2000037B5184DF9
:101FC00004002868002801D006F086FDA400200047
:101FD00006F078FD2860002801D1124809E001AB25
:101FE000984208D2104B02196B440193934202D2DB
:101FF0000E48FFF7D3FF042802D808302860083CB9
:102000002B680B4A1C1913600A4BC8221C60012064
:10201000002309495200C85004339342FBD137BD15
:10202000D4050020A1A200001CFCFFFFD1A20000EB
:10203000CC050020D00500207823002070B50D4D80
:102040000D4E2B684C1CA40036681C19B44203D9F1
:102050000A20FEF7A5FA0BE02C601D00AC4201D966
:1020600004C5FBE70F22090110400843186018005F
:1020700070BDC046CC050020D00500200322CB1C3B
:1020800070B50C00D9171140C9180500891000223D
:102090000420FFF7D3FF0023A34204DAE95CC2184F
:1020A00011710133F8E7E1430023C91721404118BA
:1020B0000B7170BD10B5830706D1042804D90F2316
:1020C00004C81340042B03D00E20FEF769FA014820
:1020D00010BDC04660A4000070B501240B680D005F
:1020E0001C4001D05C1002E00D20FEF759FA2000E0
:1020F00005F042F9264905F02BF806F005FC03F03F
:102100000FF80022234B05F0B9FD0023002204F054
:10211000E9FF01242B681C40002819D0002C01D0B5
:102120005C1002E00D20FEF73BFA200005F024F9D8
:10213000174905F00DF806F0E7FB02F0F1FF002269
:10214000144B05F09BFD0022134B05F05DF918E0E0
:10215000002C01D05C1002E00D20FEF721FA2000D7
:1021600005F00AF90A4904F0F3FF06F0CDFB02F08E
:10217000D7FF0022074B05F081FD0022064B05F03A
:10218000F7FF06F049FB01234000184370BDC0462D
:10219000D30237390000D0400000E03F10B5034AB9
:1021A0000121034800F0A0FF10BDC046040000203C
:1021B0003CA3000030B502248025094B094AED00FC
:1021C0009C505C59002CFCD0A124E400884204D22D
:1021D0008025ED0018514019F8E70021995030BDD5
:1021E00000E001400405000010B5002804D1E02003
:1021F0009C210002890203E09C2080218002C90208
:10220000FFF7D8FF10BD002802D09C239B0201E0FD
:10221000E0231B021B6800201A0E532A01D11B0267
:10222000180A704730B501248025064A064BED0098
:10223000D4505459002CFCD001600021014AD150E7
:1022400030BDC04600E001400405000010B5002884
:1022500002D09C20800201E0E0200002A6230902B7
:10226000DB05090A1943FFF7DDFF10BDF0B50124B6
:10227000802503000F4F08000F49ED007C507C596A
:10228000002CFCD09C46002810DD547816789378FA
:10229000240234431B0423431C00D37801381B065B
:1022A0002343644608C40432A446ECE700237B5071
:1022B000F0BDC04600E001400405000070B5050017
:1022C0004B680A009C1C2100FFF7D0FFA0002818D3
:1022D00070BD0000154B1B68002B04D080219C238F
:1022E000C9029B0203E09C21E02389021B02002813
:1022F00007D1191D5B6802001B0E522B14D10A0076
:1023000012E0002281420FD903681B0E522B0BD121
:10231000436802339B00C318994205D91A68110E0D
:102320000022522900D11A0010007047D80700205F
:1023300070B50020FFF7CEFFFF260500002808D06B
:1023400003681C143440FFF7C5FFDA2CF6D10500F2
:10235000F4E7280070BD0000F0B50020B7B00024FD
:10236000FFF7B8FF270005002600002D20D0FF2230
:102370006B6828689C460233FF180312013613402D
:1023800011009C4200DA1C0002140A4003926246CB
:10239000014001920091039A1B4904A806F0A8FF8E
:1023A00004A801F069F82800FFF794FF0500DCE7B6
:1023B000164D2868FFF727FF3B00320001901449B3
:1023C000009404A806F094FF04A801F055F8114BFE
:1023D0002A681B68002A02D09C22920201E0E022B7
:1023E0001202C8219A1AD3179B059B0D9B1849020C
:1023F0009B12009104A8084906F07AFF04A801F096
:102400003BF837B0F0BDC04652A30000D80700200B
:1024100066A30000DC070020AAA300008022F0B51C
:102420005200A1B00021744806F069FB802200210F
:102430005200724806F063FB714C23681A00039344
:1024400053425A4110000492FFF7CEFE039B0594BD
:10245000002B01D16B4C00E06B4C0020FFF768FFB4
:10246000051E00D19DE0FF212A6813140B401212B3
:1024700011401A000A3A0291092A45D85E4B595C6C
:10248000002900D089E01022604806F038FB2E00B9
:10249000FF2133681A120A400299914219D1FF2193
:1024A0001A140A400B2A06D0132A0DD00A2A10D17A
:1024B000564B1E600DE0FF221340022B09DC534AED
:1024C0009B00D3185E6004E0102200214F4806F004
:1024D00016FB3000FFF7FEFE061ED9D14B4B1968E4
:1024E00000290FD02000FFF7E9FE0400484E494FB5
:1024F0003168002903D02000FFF7E0FE0400043615
:10250000B742F5D13C4B45E01A00143A092A44D8A9
:102510003A4A0299525C002A3FD1142B04D0152B61
:1025200005D12E00170004E02F00160001E0160070
:1025300017002800FF2103681A140A40152A0FD03B
:102540001D2A02D0142A12D102E0002637000EE024
:10255000FF221B121340029A9A4208D1070006E09C
:10256000FF221B121340029A9A4200D10600FFF785
:10257000B1FE0028DED1002F04D020003900FFF783
:102580009DFE0400002E04D020003100FFF796FECF
:1025900004001A4B0121029A99542800FFF79AFE71
:1025A0005EE70398FFF72FFE411C0498FFF74EFEED
:1025B000059B049A184D1A602C6001F037FC059AAF
:1025C0002B681268002A02D09C22920201E0E022CD
:1025D0001202C8219A1AD3179B059B0D9B1849021A
:1025E0009B12009107A80D4906F082FE07A800F093
:1025F00043FF21B0F0BDC046D8060020D80500201A
:10260000D80700200470020004E000000825002024
:102610000C25002018250020DC0700209BA30000CB
:1026200070B50020FFF7EFFD04000120FFF7EBFD80
:10263000844200DA04000A4B1E6875427541280086
:102640001D60FFF7D1FD002E01D0064B00E0064BC8
:10265000064A2800611C1360FFF7F8FD70BDC046F4
:10266000D807002004E0000004700200DC0700200E
:10267000F8B50020FFF7C7FD07000120FFF7C3FDF5
:102680003E00224D0643224C0CD18021E020C9029D
:102690000002FFF78FFD01213000FFF7D7FD2E600C
:1026A0001C4B2FE0874208DD00239C212B60194B37
:1026B000890223602368002011E0012380212B6020
:1026C000154BC9022360F5E71A68551C18D0120E85
:1026D000522A07D101205A68023292009B188B427D
:1026E000F2D311E0002800D023600C4C0C492000EC
:1026F00006F02AFE200001F05FFAFFF791FF04E0E8
:10270000002802D0236000E02160F8BDD807002037
:10271000DC07002004E000000470020054250020C3
:10272000C5A30000F0B585B0039203220333DC1784
:1027300014402A4EE3189C10336801900291002B3C
:1027400002D08022D20201E09C229202244FA51CDA
:102750003B68AD005B199A4217D2FFF75FFE336802
:10276000002B02D08022D20201E09C2292023B6820
:102770005B199A4209D21B4C1B49200006F0E4FD6C
:10278000200001F019FA002026E0029B3E681B069B
:10279000190C6B461A7BA423DB051343019A0B43E8
:1027A0001104FF221204114019433000FFF73AFDD3
:1027B0003300301D0833210001933B60FFF732FDE9
:1027C000002C04D00A9A21000198FFF74FFD300039
:1027D000019B083D5D193D6005B0F0BDD8070020A4
:1027E000DC07002054250020EEA3000070B59AB04D
:1027F000FFF73EFFFF22264CD2000021200006F00A
:102800007EF9002001F0A0FA042804D1002001F094
:10281000AFFA042831D00020FFF78AFDFF250026FB
:1028200000281AD003681A142A400A2A08D11A125A
:102830002A40FF2A0ED0D200A1180B71A05009E047
:10284000132A07D11B122B40FF2B03D0DB00E21809
:102850001671E650FFF73EFDE2E7FF210200C900D6
:10286000235808305D1EAB41D2188842F8D109497F
:1028700001A806F03DFD01A802E0FFF7D1FE0648E1
:1028800000F0FAFD054800F0F7FD1AB070BDC04633
:10289000801B002015A4000031A4000029A4000022
:1028A00000220121094B5A60094A51605A68002AE6
:1028B000FCD00022C021054B49001A61044B0132B3
:1028C0009A60044B01325A501A607047FC10004065
:1028D0000010004000E100E00222064B0121DA670F
:1028E0000022054B5A61054A11615A69002AFCD041
:1028F0007047C04604E100E0FC10004000100040BA
:1029000010B5054B1A781C00002A01D0FFF7E4FF30
:102910000023237010BDC04668080020024B1868D1
:1029200001234000184370476408002000487047A6
:1029300030250020024B18680123400018437047DF
:102940007C00002070B504000D00160001F02CF989
:102950008023012200215B055B6E6270E270020A37
:10296000A271020CE2711A0A60716372000EA27207
:102970001A0C1B0E267025712072A170E27223734F
:1029800070BD0000124B10B51B68124C5A1C0FD0C2
:10299000114C002B0CD0114C012B09D0104C022BE8
:1029A00006D00D4C042B03D00E4C052B00D10B4C44
:1029B00021000D4806F0C8FC200006F0CDFC030005
:1029C000042204339B0809481B011343036010BD14
:1029D0008000002003A50000FCA400000EA500005C
:1029E00013A5000008A500001C25002018250020C4
:1029F00070B5214C2278002A3DD1204B01215A602C
:102A00008022D20511605A68002AFCD000220720DB
:102A10001B4B1C4901255A500439585008315A5053
:102A200019481A4958501A491A485A501A495A50BE
:102A3000A622D2009D50082218495A5004315850FD
:102A40000220174958501748174958501748043959
:102A50005850182016495850C12189005A5005393C
:102A6000FF395A58083802435A50124A12499950AD
:102A7000FFF716FF257070BD68080020FC000040BD
:102A8000001000400C050000746962751C05000010
:102A900024050000200004022C050000140500009D
:102AA00034050000FFFF00003C050000211001007C
:102AB0005405000004050000E007002010B50028C0
:102AC0000EDD0C68E3070BD56410FF2C08D8054B0E
:102AD0001B78002B01D1FFF78BFF034B034AD45027
:102AE00010BDC0466808002024050000001000400A
:102AF00013B5002815DD0C68E30712D50822094933
:102B00006846641005F0F2FF072C0AD8064B1B78C4
:102B1000002B01D1FFF76CFF6B46044A1957044B99
:102B2000D15016BDF4A40000680800200010004039
:102B30000C05000010B5002813DD0C68E30710D564
:102B40006410532C0DD8074B1B78002B01D1FFF7D5
:102B50004FFFFFF7C1FEA123034ADB00D450FFF76C
:102B60009FFE10BD680800200010004070B50E4B9D
:102B700006001B78002B01D1FFF73AFF00200B4D18
:102B80002C7884420ED00A4B202219780323091B8B
:102B90001940084B49015918300005F0A7FF0120E2
:102BA000013C2C7070BDC0466808002069080020F8
:102BB00060080020E0070020002330B589B098426B
:102BC00026DD03240D682C409C4221D12300042DD6
:102BD0001ED90F212A681140062919D112091F2A6E
:102BE00016D96846FFF7C2FF2300002810D06B46B5
:102BF000012019780123A14203DB6B461B5D5B00BA
:102C00000343A200AA1801345360202CF2D10423FC
:102C1000180009B030BD0000F0B5424B8BB01B78F6
:102C2000002B01D1FFF7E4FE02AD2800FFF79EFF65
:102C3000002870D02B780B2B6DDD6B78012B6AD1BF
:102C4000EA780023012A66D1374F384C3B60237164
:102C50002B79374A1360002B0ED115256D446A7805
:102C60002878AB78120202431B0413431A00EB7856
:102C70001B0613433B6050E0012B10D115266E4418
:102C800072783078B378120202431B0413431A009F
:102C9000F3781A261B0613433B606A7C25E0022B5F
:102CA00002D16A7B162620E0042B0DD115210822C3
:102CB0006944684605F01AFF0098019902F08EF900
:102CC00005F0AAFD386028E0052B26D11521082241
:102CD0006944684605F00AFF0098019902F07EF900
:102CE00005F09AFD1E2638606A7D6E44132A00DDC9
:102CF00013220023934204D0F05CE11808710133E1
:102D0000F8E704200021E21804339B101B01034361
:102D10001171236003E0002001E00022E9E70BB01D
:102D2000F0BDC0466808002064080020302500205F
:102D30008000002010B5041E26D0144B1B78002BF9
:102D400001D1FFF755FEFFF7C7FD00201049114ADA
:102D5000114B8C5058600130086059680029FCD034
:102D600000200D4908610A4901308860196900296D
:102D7000FCD00A4B0A491B785B01CB1804498B50E5
:102D8000FFF7AAFDFFF78CFD10BDC04668080020C4
:102D90000010004004050000FC1000406008002006
:102DA000E007002030B589B000281EDD03230A6843
:102DB00013401AD1042A18D90F2011680840062898
:102DC00013D109091F2910D9012401339900515841
:102DD0000020214201D04910C8B26D46591E6854E6
:102DE000202BF2D16846FFF7A5FF09B030BD30B502
:102DF00089B0002826DD0868830723D1042821D95B
:102E00000F2302681340042B1CD1FFF753F9050070
:102E100006F0A2FA041E122C00DD12242200022168
:102E20000D326846FFF78EFD6B465C730023A342AC
:102E300005DA1A00E95C6A4491730133F7E76846E2
:102E4000FFF778FF09B030BD70B50C0088B00128DD
:102E500033DD0868830730D104282ED90F23026898
:102E60001340042B29D14B68DB0726D5FFF722F945
:102E7000060006F071FA6468050064100E2800DD93
:102E80000E252A00012111326846FFF75BFD6B46D3
:102E90006A465C73231293732314D3730023240EA6
:102EA00014745574AB4205DA1A00F15C6A449174EB
:102EB0000133F7E76846FFF73DFF08B070BD30B556
:102EC00089B0002814DD0C68E30711D51022002119
:102ED0006846FFF737FD6B466A4665105D736846C6
:102EE00063122D0E64149373D4731574FFF722FFCD
:102EF00009B030BD184B10B55A681849002A03D0E4
:102F000000225A6001328A601B691448002B22D0CB
:102F10000023114A13618022D2008458104A012CE8
:102F200016D1A923DB00C3585B4213600D4A137806
:102F3000032B01D80133137003220B4803780133AC
:102F400013400A4A03705B01D318094A8B5000E012
:102F5000136001238B6010BDFC1000400010004086
:102F60007C0000206908002060080020E0070020A5
:102F70000405000010B5034A0E21034800F0B4F820
:102F800010BDC0460C0000201AA50000044A0549E7
:102F90001368C85401339B059B0D13607047C046EE
:102FA000700C00206A080020114A70B51368114C9B
:102FB000984211DA015D451CFA39012906D8AB4265
:102FC00006DD2118497801391F2901D92800EFE7CA
:102FD0000100251A461C02D10023136006E0665C3E
:102FE0006E5401318B42FADC181A106070BDC04675
:102FF000740C00207C0C002010B500F0CBFD064BBB
:103000001A68904201D200221A601B68C01A034B52
:1030100083428041404210BD780C0020204E0000C9
:1030200010B5094C094A2368126893420BD0084A2C
:10303000D05C00F0F3FE002805D0236801339B0527
:103040009B0D2360EDE710BD7C100020700C00206C
:103050006A08002010B50400064B074A1B68126876
:103060009B1ADB439B059B0DA34202DAFFF7D8FFB7
:10307000F2E710BD700C00207C100020F7B50600B0
:103080000191151E2FD05768B800441C0630FFF779
:10309000E1FFFB20FFF77AFF1C20FFF777FFF0B27C
:1030A000FFF774FFE0B22412FFF770FFE0B2FFF702
:1030B0006DFF6B461879FFF769FF0026BE4212DAF2
:1030C000B300EB189C680136E0B2FFF75FFF2012F7
:1030D000C0B2FFF75BFF2014C0B2FFF757FF200E0E
:1030E000FFF754FFEAE7F7BD70B5074D2C68092CD0
:1030F00008DC0C236343054E01349851F3185960E2
:103100009A602C6070BDC04680100020B825002059
:10311000F0B589B004900E0001284BDD284B0868FB
:103120000293830709D1042807D90F2302681340AB
:10313000042B02D1FEF7BEFF0290214B706803936F
:10314000830709D1042807D90F2302681340042BF1
:1031500002D1FEF7AFFF039000271A4B1A4D1B68F0
:103160000593059B9F4225DA2B1F0299186806F0EC
:10317000E1F800281BD12B686C6806930190019B35
:10318000069A934213DA20680399079406F0D2F85E
:103190000834002807D131000498079B08315B6888
:1031A0000238984709E0019B01330193E7E70137B3
:1031B0000C35D6E71B20FDF7F3F909B0F0BDC0468A
:1031C00060A4000080100020BC25002010B501F094
:1031D0006FFA00F0E3FDFEF7E1FF00F061FEFFF79C
:1031E000C9FE01F0DDFA01F09BFC10BD962210B57E
:1031F00012010021034805F082FC0022024B1A60F4
:1032000010BDC0462012002080020020064B074A55
:103210001B6812689B1ADB439B059B0D01228342AE
:1032200000DC002210007047700C00207C10002091
:10323000F8B505000C0016001F1E0ED10320FFF785
:10324000E5FF002827D0FA20FFF7A0FEE8B2FFF73D
:103250009DFEE0B2FFF79AFE1DE0501DFFF7D6FF7E
:10326000002818D0FB20FFF791FEE8B2FFF78EFE92
:10327000E0B2FFF78BFEF0B2FFF788FE3012C0B26B
:10328000FFF784FE3C00E31B9E4204DD2078FFF73D
:103290007DFE0134F7E7F8BD70B50024F0250B4B37
:1032A0001B689C420EDA2A006243094BD3181A7835
:1032B000002A05D05978002311201A00FFF7B8FF23
:1032C0000134ECE7FFF792FF70BDC046800200209A
:1032D000201200200123F3B50400FFB00D00100000
:1032E0001A420DD002AA1370431002A95370421261
:1032F0001B0E40148A700B71C8700B00052273E01E
:10330000032313401ED1042A1CD90F2201680A404E
:10331000042A17D1023302AA1370FEF7CBFE06006F
:1033200006F01AF8F823FF33984200DD1800002356
:10333000834205DA01335A1EB25C02A9CA54F7E788
:10334000421C50E0042801D0002809D1032302AA1E
:10335000043813704342434153701300022243E088
:10336000002B45D1042843D90F21026811400529BB
:1033700012D1043302A90B70F8231209FF33920013
:103380009A4200DD1A00002393422BDA0133C11860
:10339000C97802AEF154F7E7062929D101390E00A8
:1033A000120956430196F826019FFF36B7421FDCEB
:1033B00002AE31700136934213DA012701339900CE
:1033C0004158394201D0394100E00A49012737709C
:1033D0000F127170B7700F14090EF7703171053646
:1033E000E9E7019A013202AB29002000FFF720FF34
:1033F0007FB0F3BD19FCFFFF70B5F023050000247A
:103400000D4A1800604380184178A94203D0013466
:103410000A2CF6D10FE0F022002105F070FB074ADC
:103420001368013BA34200D11460002329001A0055
:103430001120FFF7FDFE70BD201200208002002049
:1034400010B5B2B002236A460400137005F084FF81
:10345000C72800DDC7200023834205DA694601330F
:103460005A1EA25CCA54F7E7421C6B46FE21142088
:10347000FFF7DEFE32B010BD30B5B3B002236A46AE
:103480000500137005F068FF041EC72C00DDC7247B
:103490000023A34205DA694601335A1EAA5CCA54C6
:1034A000F7E720003230FFF7D5FD621C6B46FF21A5
:1034B0001420FFF7BDFE33B030BD0000F7B5234B3D
:1034C00006001B68F020009300232149009A9342D4
:1034D0000ADA02005A438A185478B44202D11278A8
:1034E000002A31D10133F1E70024F0231A006243AE
:1034F00001920199164A55182F78002F06D00134F1
:103500000A2CF3D11348FFF7B7FF1DE0F022390072
:10351000280005F0F4FA02230D4A0199EB60535498
:103520000D4AF1008A58009B6E70AE70AA602F6140
:103530006F61A34202DC054B01341C6000233100A3
:103540001A001020FFF774FEF7BDC046800200206D
:1035500020120020D5A50000801B002010B5FFF729
:103560009BFE0024064BE200D3181B79043B012B81
:1035700002D8E0B2FFF7A2FF0134FF2CF2D110BD58
:10358000801B0020F7B50E0000247F250190194B09
:10359000E200D1180979062901D0032926D19858CB
:1035A00083682B401C2B21D1C3681A002A40042AAF
:1035B0001CD102692A40192A18D11B0A01339B0029
:1035C0000C30C018FEF776FD070005F0C5FE00239D
:1035D000B0420BD19E4206DD019AF95CD25C914269
:1035E00004D10133F6E7E0B2FFF768FF0134FF2CA6
:1035F000CDD1F7BD801B002070B500F0CBFA184B81
:103600001A68904201D200221A601A681549821A7B
:103610008A4223D91860002000F096FB44424441BE
:10362000604207240443002000F0A2FB002810D0D1
:10363000082600250C4BEA00D3181B799C4201D0C8
:10364000B34202D1E8B2FFF739FF0135FF2DF1D1C6
:1036500004E0631C02D001267642EAE770BDC04652
:103660006C0C00200F270000801B002037B50024C1
:103670000500FFF711FE01A8019400F053FB2000A4
:1036800000F090FE00F024FD00F086FB00F085FBCA
:1036900000F060FF00F0AAFAA54204D0FEF76AFC31
:1036A0000148FFF7E9FE37BDEAA50000002310B589
:1036B00001001A001120FFF7BBFD10BD07B56B46D6
:1036C000197069465A7013128B701314120ECB7056
:1036D0000A716B46010005221320FFF7A9FD07BD03
:1036E00010B50A0001001220FFF7F4FD10BD70B5FF
:1036F000050008000C003230FFF7ACFC2B00220064
:1037000000211B20FFF794FD70BD10B50C000300D5
:10371000110014202200FFF78BFD10BD70B50600CC
:103720000020FEF7D7FD0024FF25002810D00368F5
:103730001A142A40152A05D11B122B40B34204D17A
:10374000040002E01D2A00D10024FEF7C3FDECE7CF
:10375000200070BDF0B580279DB0FFF761FCC24D21
:10376000C24C2868FF00391A201800F03DFB2B6876
:103770000600C3182B60002B00D1EDE1002E0DDDFB
:103780002868391A201800F02FFB2B6806001B1838
:103790002B6000F0FFF9B64B1860EFE72378FA2BA7
:1037A00000D01EE12B68022B06DCFFF725FC002869
:1037B00000D1D1E10120CAE16078A578023818284B
:1037C00000D90CE103F0CCFA19002A002E003200D7
:1037D00035003E000B01490073007B00810095001D
:1037E000E600F7000B010B010B010B010B010B01B4
:1037F0000B010B010B010B010501FF2D00D1EEE0C8
:103800002800FFF7F9FD00229A49EB005A50CB1827
:103810001A7129000092130013204DE02800FFF7D1
:103820004DFEDCE02800FFF7E7FDD8E0FFF796FE4D
:10383000D5E0FFF731FD0020FFF718FF8E48FFF7B6
:103840001BFECCE0632D00D9C9E08C4BAA00D258F6
:1038500029001520FFF73EFDC1E000242000FFF7FE
:103860005DFF071E03D10134642CF7D1B7E00830A7
:1038700005F072FD06000530FFF7ECFBFB20FFF7BB
:1038800085FB1D20FFF782FBE0B2FFF77FFBF0B264
:10389000FFF77CFB3012C0B2FFF778FB0025AE4289
:1038A000E1DD7B19187AFFF771FB0135F7E700219D
:1038B0001D200B000A000091FEF734FF8FE000226C
:1038C0002900009213002720F6E700F07DF903ACF1
:1038D0006B4A642100906B4B200005F0D7FC02235B
:1038E0002000237005F038FD23000200002116207F
:1038F00073E000245F4AE300D558002D46D06B6882
:103900009E00701DFFF7A6FB2B0000253200083338
:1039100021000120FFF78CFC0020FEF7DBFC2E00CD
:103920002F0000281DD0FF2103681A120A40A2426E
:1039300014D11A140A400B2A07D10B400DD0012BC9
:1039400009D0022B00D105E108E0132A06D1002599
:103950002E002F0002E0060000E00700FEF7BAFC90
:10396000DFE7002E04D0320001212000FFF786FBA4
:10397000002D04D02A0002212000FFF77FFB002F3A
:1039800004D03A0000212000FFF778FB0134FF2C1F
:10399000B0D124E00024FFF77FFC22002100009436
:1039A0002300DA20FEF7BEFEFF222100D2003148BC
:1039B00005F0A5F813E0012D02D1FEF7CDFC0EE0D5
:1039C000022D02D1FEF72AFD09E00120FFF74EFE8D
:1039D00005E0002329001A001A20FFF729FC032024
:1039E000B5E0FB2B00D0E5E62A68042A00DCDCE623
:1039F0002679E078244B360206439E4200DDD9E664
:103A0000331D9A4200DCD0E6E35CFE2B00D0D1E609
:103A10006078A578731E1C2868D007D8082835D090
:103A20001B285ED0012800D090E007E01E2800D1BE
:103A30007EE066D31F2800D180E087E0FF2D00D113
:103A400084E02800FFF7D8FC67790634B31E29000C
:103A500000943A000A20FEF765FE064BED00E850A0
:103A60005D192F7172E0C046740C00207C0C0020A0
:103A7000780C0020801B0020F9A50000782300208E
:103A800010A600000BA60000F6030000632D5DD811
:103A90006079022813D003281BD0012856D1A71D16
:103AA0007A78A479BB78120222431B0413431A00CC
:103AB000FB78AD001B0613435B0003430EE0002BB5
:103AC00044DDB11EA01DFEF7D9FA244BAD00E8502D
:103AD0003CE0A379AD005A1E93419B001F4AAB50B6
:103AE00034E0601D1900FFF74DFD2FE0FF2D2DD0B4
:103AF0006279022A2AD80634B31E009429000B20CA
:103B000022E0632B00DD6323002203A8934204DD3F
:103B1000A118497981540132F7E7D9430022C91726
:103B2000194041180A7001330090290015200BE05C
:103B300005340094002229001E2005E0042B05D145
:103B40000022290005340094FEF7ECFD701DFFF7FC
:103B50002BFA01E0050001E71DB0F0BD782300203D
:103B600000207047002070470020704700207047F9
:103B700001220020054B06491A61585003300431D8
:103B800058508018083158501A6070470080004023
:103B9000040500000122034B1A64A822D2009858A1
:103BA0007047C0460080004010B5FFF7F3FFFA21D0
:103BB000890003F0DFF810BD10B50100014802F0E4
:103BC00079FE10BDAC1100200048704720A600000F
:103BD00070B5054E0400335C0D008B4202D002F03C
:103BE00091FD355570BDC0468410002070B500248D
:103BF000064D635D012B05D10021200002F082FDFE
:103C00000023635501341D2CF2D170BD84100020B7
:103C10000D2070473B207047036870B55B10012092
:103C2000052B12D8094A9B009C58094D2B5D002B8F
:103C300005D00021200002F065FD00232B55200057
:103C400002F00AFC01234000184370BD50A600009A
:103C50008410002070B5036845685C106D1004D4B2
:103C60000B4B9D4202DD1D0000E000251C2C0DD8F1
:103C7000084E335D012B05D00121200002F042FDEA
:103C8000012333552900200002F074FC70BDC046AA
:103C9000FF030000841000200B6870B55D101C2D20
:103CA00016D80024012804DD4C68043C62426241BD
:103CB0005400094E735D9C4204D02100280002F09C
:103CC00021FD7455280002F051FD0423012800D085
:103CD0000023180070BDC0468410002070B5040099
:103CE0000D001C280ED8084E335C012B04D0012196
:103CF00002F008FD01233355290020004D1EA94183
:103D000002F01EFD70BDC04684100020436810B54F
:103D1000191F4A424A41006811004010FFF7DEFFB8
:103D200010BD000037B569460200064B684630CB2F
:103D300030C11368042B02D100F044FB01E000F015
:103D400069FB37BD18A6000010B5084C6379002B3D
:103D500005D00021052002F0D5FC00236371052069
:103D600002F004FD43425841800010BD8410002041
:103D700010B5084CE37A002B05D000210B2002F08F
:103D8000C1FC0023E3720B2002F0F0FC43425841D7
:103D9000800010BD841000207047704710B5034AA2
:103DA00004210348FFF7A0F910BDC046840000209D
:103DB0002AA50000E12110B54902094802F0C1FD21
:103DC000FFF7D6FE0A2002F041FB0023FF21054A3F
:103DD000995401331D2BFBD100F0BCFB10BDC04634
:103DE000AC11002084100020F8B50B4E0700300005
:103DF0000D0002F0E5FD041EAC4200DD2C003D008C
:103E0000EB1B9C4205DD300002F0E4FD287001351B
:103E1000F6E72000F8BDC046AC11002010B5010047
:103E2000014802F095FD10BDAC11002010B5054C05
:103E3000200002F09BFDE1212000490202F081FDFB
:103E400010BDC046AC1100200020704710B51E20E8
:103E5000FCF7A6FB10BD10B51E20FCF7A1FB10BDA2
:103E600010B51E20FCF79CFB002010BD10B51E20D5
:103E7000FCF796FB002010BD10B51E20FCF790FB50
:103E800010BD10B51E20FCF78BFB10BD10B51E2019
:103E9000FCF786FB10BD10B51E20FCF781FB10BDA2
:103EA00010B5034A09210348FFF71EF910BDC046AB
:103EB000A400002068A600000123034A1360034AFF
:103EC0001068984018437047AC100020B4100020D0
:103ED000202800D90020084B8000C25801239340BD
:103EE000064A07491360074A1160074A07491160EB
:103EF000074A13607047C0469CAB0000A810002022
:103F000008050050C4100020BC1000200C05005013
:103F100018050050F0B5EFF310810123194083F329
:103F20001088134E134AB4461268013A9340124A5D
:103F30001468124A1568124A002B15D016680342FD
:103F40000BD02660C046C046C046C046C046C046EC
:103F5000C046C04616682E6004E067463E6016689C
:103F6000084F3E605B08E7E781F31088F0BDC0466C
:103F700008050050F4000020C4100020BC100020F0
:103F8000A81000200C05005030B585B001AD0C2202
:103F90000649280004F0AAFD0024285D012101340F
:103FA000FFF716FE0C2CF8D105B030BDF4A60000CA
:103FB000F0B53B4C85B0210003220C31684604F07B
:103FC00095FD210009220F3101A804F08FFDFFF7B4
:103FD000EBFD344B344CC0182368984201D20023C7
:103FE00023602568002D3ED12E006B4604339F5D73
:103FF00001213800FFF7ECFD01360121380002F005
:104000009FFB092EF1D100266B469F5D01213800F0
:10401000FFF7DEFD01360021380002F091FB032E90
:10402000F2D1C82080000138C046C046C046C04614
:10403000C046C046C046C046C046C046C046C04650
:10404000F1D100210420FFF7C3FD00266B460021BB
:10405000985D0136FFF7BCFD032EF7D1FFF7A4FDF5
:104060001330206019E0FFF79FFD23680025984278
:1040700013D3042002F0F0F90C4B0D4EC01801D4FC
:10408000306000E035603068032102F0FDFE00235F
:104090000125084A306023601360280005B0F0BD98
:1040A000F4A6000010270000A4100020C8FEFFFFA7
:1040B000B4100020AC10002010B50124044001D041
:1040C000441002E00D20FCF76BFA200010BD000048
:1040D0007FB5A44E3368002B0BD1A34A1268002A87
:1040E00007D1A24B1B68002B00D139E1FFF760FF1D
:1040F00036E19F4D2A68002A2AD19C4A1268002A7C
:1041000007D0FFF755FF002800D129E1FFF73CFF5A
:1041100005E0954A1268002A01D1002BF6D1924B96
:1041200019681A00002911D03468002C0ED101AD95
:104130000C22904928001C6004F0D8FC285D002166
:104140000134FFF745FD0C2CF8D109E13368136009
:1041500000211A2002F0F4FA00211B2002F0F0FAEC
:1041600000211C2002F0ECFA2E68012E56D0022EFF
:1041700000D19CE0002E00D0ECE0013631007A4CFA
:1041800003202368994302F0DBFA042021680140F0
:104190000B005942594102F0D3FA102123680A203A
:1041A0000B405942594102F0CBFA802123680901A2
:1041B0000B4059425941062002F0C2FA802123687F
:1041C00009020B4059425941072002F0B9FA8021F7
:1041D000236849020B4059425941092002F0B0FAC4
:1041E0008021236889020B4059425941192002F06D
:1041F000A7FA80212368C9020B405942594118206F
:1042000002F09EFA802321681B030B40594259415A
:10421000172002F095FA31001A2099E00221524C41
:10422000172023680B405942594102F089FA0821AE
:10423000236818200B405942594102F081FA80212D
:104240002368C9000B4059425941042002F078FA12
:104250008021236849010B40594259410A2002F04C
:104260006FFA80212368C9010B405942594103204C
:1042700002F066FA8021236889030B4059425941B4
:10428000092002F05DFA802321681B040B4059428B
:104290005941192002F054FA3100062002F050FA78
:1042A0003100072002F04CFA31001B2050E02021A1
:1042B0002D4C172023680B405942594102F040FA17
:1042C0004021236818200B405942594102F038FA26
:1042D0008021236819200B405942594102F030FADD
:1042E0008021236849000B4059425941092002F0BE
:1042F00027FA8021236889000B4059425941072041
:1043000002F01EFA8021236889010B40594259416D
:10431000062002F015FA8021236849030B40594218
:1043200059410A2002F00CFA80212368C9030B408E
:1043300059425941032002F003FA802321685B04AB
:104340000B4059425941042002F0FAF901211C2086
:1043500002F0F6F92B680321581C02F07BFE29605D
:104360007FBDC046B8100020B0100020AC10002067
:10437000C0100020F4A60000006810B5C30703D5E4
:10438000FFF79AFE054B1860054B1B68002B03D006
:10439000024B186800F0C2FB10BDC046B8100020E8
:1043A000CC1000200022054B10B51A60044B1B688E
:1043B000934201D000F0B0FB10BDC046B810002001
:1043C000CC10002070B505000068FFF775FE0400F2
:1043D0006868FFF771FE631E0100042B14D8451EA8
:1043E000042D11D805226A43D318012215009D40DF
:1043F0002B00064805682B430360054B1B68002B08
:1044000002D0200000F089FB70BDC046B81000202B
:10441000CC10002070B505000068FFF74DFE0400C9
:104420006868FFF749FE631E0100042B14D8451E7F
:10443000042D11D805226A43D31801229A40130093
:10444000064802689A43064B02601B68002B03D0A3
:104450000022200000F061FB70BDC046B8100020B3
:10446000CC1000202C4BF7B51B680400002B03D1A7
:1044700001204042FFF72CFD01262468344219D068
:10448000FF226310180212041040FF226112120270
:104490000A40DBB210431843204B1B68202B06D187
:1044A000B4401F4BA40EA400E35800021843FFF7CA
:1044B00031FD30E0032525402DD1042C2BD90F23CD
:1044C00022681340062B26D1FF27130901933F04CE
:1044D000019B9D421FDAAB00E3185A68324218D0A4
:1044E000531018023840FF21844609025012084038
:1044F0006146DBB208431843084B1B68202B06D1EA
:104500005200920E064B9200D35800021843FFF758
:1045100001FD0135DCE7F7BDA8100020F400002004
:1045200020A700000B6810B50200D80701D558106D
:1045300001E0012040421823012A03DD4A68042AD1
:1045400000D10833024A1360FFF7C2FC10BDC04619
:10455000F4000020012010B54042FFF7B9FC10BD67
:104560000068F8B5C30702D5FFF7A6FD0BE0830787
:1045700026D1042824D90F2203681A40042A1FD107
:104580001B091DD000790300203B5E2B18D80522A3
:10459000002053430B4E9D18043AAB420CD005212A
:1045A00010249F5D3C4200D08018013952006410F5
:1045B0000029F7D10133F0E701234000184300E060
:1045C0000120F8BD20A80000F0B5050085B00868FE
:1045D0000C00FFF771FD0390022D08DD6068FFF706
:1045E0006BFD0700A068FFF767FD040001E00124F0
:1045F000270005236343053B029301232600019313
:10460000231D9E4234DC3D003B1D9D422BDC731E6E
:10461000042B23D86B1E042B20D8029B039A591E0F
:10462000019B49191A40204B0AD001228A4019687F
:104630000A431A601D4B01221B68002B0ED009E0B3
:10464000012088400100186888431860174B1B68D8
:10465000002B03D03100280000F05FFA019B0135E8
:104660005B000193D0E7029B013605330293C7E755
:104670003D1D042D15D8012C13D126003300AB406D
:10468000094A11689943094B11601B68002B04D03B
:10469000781D0022210000F040FA01340535062C77
:1046A000ECD105B0F0BDC046B8100020CC10002001
:1046B00010B5034A01210348FEF716FD10BDC046A0
:1046C000EC0000200CA700000122094B1A60094AE7
:1046D0001368002BFCD00322074B1B68D81710402F
:1046E000C018012380100638400018437047C046A8
:1046F00000C0004000C1004008C5004001207047D4
:1047000010B5064C200000F041FB0549200000F0E8
:1047100061FB0122034B1A6010BDC046F01000205F
:10472000801A0600C810002010B501210D20FFF7E7
:104730004FFA01210E20FFF74BFA00210F20FFF75F
:1047400047FA044C200000F05DFA1021200000F030
:1047500075FA10BDDC10002010B504680D20E307C9
:1047600003D56410FF2C03D91720FBF719FF06E0CF
:10477000FFF7DAFFE1B2024800F082FA002010BD34
:10478000DC10002010B5FFF7CFFF0021034800F038
:1047900077FA01234000184310BDC046DC1000200A
:1047A00010B5034A07210348FEF79EFC10BDC04622
:1047B000FC000020FBA900000D4B70B51B68040035
:1047C0000E001500002B01D1FFF79AFFE1B2094C52
:1047D000200000F087FBF1B2200000F098FAE9B267
:1047E000200000F094FA200000F0E6FB70BDC04607
:1047F000C8100020F010002010B5012403682342E7
:1048000005D04168214202D08268224201D10D20A8
:1048100004E058104910802803D91520FBF7C0FE8A
:104820000BE0FF2901D91620F8E75210FF2A01D921
:104830001720F3E7FFF7C0FF002010BDF7B50124F4
:104840002300A04237DD0A68144234D01B4B5510B8
:104850001B684C68002B01D1FFF752FF0127184E4F
:10486000E9B2300000F03EFB3C4205D03C41300054
:10487000E1B200F04CFA1AE00325254017D1042CD0
:1048800015D90F2322681340062B10D11309019369
:10489000019B9D420BDAAB00E3185968394204D002
:1048A0004910C9B2300000F032FA0135F0E73000AB
:1048B00000F082FB00231800FEBDC046C810002097
:1048C000F0100020144B70B51B6805000E00002B83
:1048D00001D1FFF715FF114CEDB22900200000F0C7
:1048E00001FBF1B2200000F012FA0021200000F0DC
:1048F00005FB002801D040420CE0012229002000E5
:1049000000F0EBFA200000F0F8F90028FAD02000BF
:1049100000F0F8F970BDC046C8100020F01000206B
:1049200010B501240368234202D04168214201D11D
:104930000D2004E058104910802803D91520FBF7FA
:104940002FFE07E0FF2901D91620F8E7FFF7BAFF8D
:104950004000204310BD0000002370B5344D04001A
:10496000EB5601332BD10D211D20FFF7ABFF5A2849
:1049700004D101222A212A703D380AE00F21192092
:10498000FFF7A0FF332807D102235F2220212B70DD
:104990001A38FFF711FF12E00D211E20FFF792FFDA
:1049A000C7280AD1032300222A21A9382B70FFF738
:1049B00003FF1B222A211E20EBE700232B7000237C
:1049C000EB56022B06D0032B13D0012B26D121004E
:1049D0001D2010E0012C04D129211920FFF772FFBE
:1049E0000DE0032C15D12B211920FFF76BFF043CA0
:1049F00005E021001E200124FFF764FF64427F28A8
:104A000001DD0138FF3803007F330ADA7F2040429E
:104A100007E0052C02D12D211920ECE7012400200C
:104A2000644264237F21584302F02EFA604370BD34
:104A3000F800002010B50120FFF78EFF0123400091
:104A4000184310BD10B50320FFF786FF0123400077
:104A5000184310BD10B50520FFF77EFF012340006D
:104A6000184310BDF8B501263400B04236DD0F689A
:104A70003E4233D04D68AB0730D1042D2ED90F23E1
:104A80002A681340062B29D1154B1B68002B01D136
:104A9000FFF736FE0024354204D12B681C09202C78
:104AA00000D920240F4E7F10F9B22200300000F010
:104AB00014FAA700EF19AF420DD0300000F01DF935
:104AC0000028FAD0300000F01DF9012340001843FF
:104AD00068600435EFE70120640004432000F8BD5E
:104AE000C8100020F0100020002070470020704700
:104AF000002070470020704700207047002070475A
:104B00000020704700207047002070470020704749
:104B100000207047002070477047704770470000C2
:104B200010B5034A0C210348FEF7DEFA10BDC0465B
:104B3000340100203CAA000010B5FFF73BF90648FD
:104B4000FDF73CFAFEF742FB0448FEF795FCFDF743
:104B50004DFEFEF703FD10BD46050000B2AA0000A1
:104B600010B5FDF7BBF910BD70B5002504AC247875
:104B70000573A94205D10A4B0A4A23210A4803F0CA
:104B800035FF01600949920052589B0002715B5841
:104B90008371A3005B58856043710223C37170BDAC
:104BA00007AB0000CAAA000015AB00009CAB0000D8
:104BB000037B002B04D143738373036101330373BD
:104BC000704700001FB50191A02100240068C900B2
:104BD000D2B24450012A07D0A24203D0032A05D101
:104BE000042202E0022200E006221343034A83501B
:104BF000034B019AC250012343501FBD54050000CE
:104C00002405000010B50400FFF7D2FFA12223689D
:104C1000A179D20099506179064A200099502179F2
:104C200004329950044B19685A689B68FFF7CAFF11
:104C300010BDC0460C050000D01000204BB2002B68
:104C40000CDB80233F290CD81F290CD80F290CD846
:104C500007290CD803290CD81B060BE080239B04E2
:104C600008E0DB0406E01B0504E05B0502E09B05B1
:104C700000E0DB050168014A8B5070472405000005
:104C80000368074A99501A00FC32D1680029FCD009
:104C9000A321C90058580023C0B2D3607047C04652
:104CA0001C05000007B58022074BD2051A600022C0
:104CB0009A6002321A710F230C3200930349023BAF
:104CC0000348FFF751FF07BDD0100020003000401F
:104CD000DC100020F8B505000E0017000024BC42CF
:104CE00008D02B68315D1B6828009847002801D048
:104CF0000134F4E72000F8BD704710B51C3001F016
:104D000005FE10BD10B51C3001F0F2FD10BD70B5F0
:104D1000437E0D00002B05D06430040001F005FE39
:104D2000002801D0002004E02000290001F0D1FD7E
:104D3000012070BD10B51C3001F0EEFD10BD00006B
:104D4000F7B50193FA23002504009B0083600D4B07
:104D50004560083303601C300F00160001F0AEFD03
:104D60002000643001F0AAFD074AB600B35827615D
:104D70006375019B20009B009B586576A576A37503
:104D8000FEBDC0467CAB00009CAB00000123A0220E
:104D9000C375837D0C49C133FF33D2059B00995005
:104DA000437DC133FF339B009950CC210369074AEF
:104DB000490499500521243A9950817D083299502F
:104DC000417D034A995070470C06000024050000FD
:104DD0000C050000A02302690020DB00D050094828
:104DE000814204D90848814204D9CD2103E0CC2175
:104DF000490401E08021C904044811500521D15023
:104E00007047C046A086010090D003002405000032
:104E1000F7B5050000200C00019382425CD0161EFD
:104E2000402E00D940262F001C37380001F05CFDD1
:104E3000B1222B69D20080219C50012289005A5056
:104E4000A97E002901D11A621A600024731E2A6902
:104E5000A34206D1019B002B03D0802302219B009B
:104E6000D150012313621300FC33D968002902D109
:104E7000996A0029F9D0996A00290AD1D960A32337
:104E8000DB00D1583800C9B2013401F022FDA6423E
:104E9000DCD8019A2B69002A04D11A00FC32916AED
:104EA00000290AD001210022AA7659611900FC319B
:104EB00088680028FCD08A6007E00121A976D961C2
:104EC000D16C0029FCD00021D164FC339A6A002AFD
:104ED00001D000229A62E0B2FEBD10B50123FFF7B7
:104EE00097FF10BD0300AC3310B504001970643097
:104EF00001F0FAFC0123637610BD0000F8B5002232
:104F00000D0001004276AC31036904000878B1213C
:104F1000C9005850802189005A5001321A629A60A3
:104F200026006436300001F0F1FC00280ED030007D
:104F3000276901F0DDFC1E4BF8502369FC331A6A27
:104F4000002A0CD19A6A002AF9D008E02369002DC2
:104F50000AD11A00FC32916A002905D10EE09A6A42
:104F6000002AF3D11A62DBE701225A611A00FC32EF
:104F700091680029FCD00021916006E00121D961EF
:104F8000D16C0029FCD00021D1641A000020FC3231
:104F9000916A81420BD0074990625A5802305A50A8
:104FA000824204D0043A534253410230C01AF8BD41
:104FB0001C050000C404000010B50121FFF79EFF8E
:104FC00010BD000010B51323142202490248FFF758
:104FD000B7FE10BD00400040F0100020F0B547467D
:104FE00080B4CB0F98464A4C4B005B0D1E1982B023
:104FF00007000A00132E35DC002E57DB454B04005A
:1050000033411F000F4007430D00002F24D05B08E1
:105010001C000C4020430027002807D0132E00D18D
:1050200072E08022D202324199430A434346DE00B5
:10503000394B11009E1934687568380022002B0026
:1050400002F0E2F9009001910098019922002B00F2
:1050500003F08EF804000D002000290002B004BC0B
:105060009046F0BD332E0CDD802304000D00DB00E4
:105070009E42F1D102000B0002F0C6F904000D00BF
:10508000EAE7264C0D00A446012463446442DC4058
:10509000A446614604000142DED049080142C5D061
:1050A0008027FF051F4188430743BFE74B005B088C
:1050B000034304000D00002BCED00B031B0B034356
:1050C0005A42134380221B0B120313404A0C520412
:1050D000134319004346104ADB00D3181C685D686F
:1050E00022002B0002F090F90090019100980199A4
:1050F00022002B0003F03CF842464B005B08D60729
:10510000334304001D00A7E780273F0689E7C04618
:1051100001FCFFFFFFFF0F0020AC0000EDFBFFFFD5
:1051200030B5214A4B0087B05B0893421EDD1F4A11
:10513000934205DD02000B0003F01AF807B030BD02
:1051400002AA00F035F803231840049A059B0128B1
:105150001ED0022811D000281FD00298039900F019
:105160002DFA80231B069C466144E7E700230022BA
:105170000093002300F088FFE0E7012402980399E0
:10518000009400F081FF80231B069C466144D5E714
:105190000298039900F012FAD0E7012402980399CB
:1051A000009400F071FFC9E7FB21E93FFFFFEF7FAB
:1051B000F0B54E4657464546E0B4DC4B4E0090B045
:1051C0001700894676089E4200DC81E0D84B9E425B
:1051D00020DCD84A002900DC89E1D74B02F0C8FF67
:1051E000D54B04000D009E4200D18AE0D34AD44B37
:1051F00002F0BEFF02000B0020003A607B60290035
:1052000002F0B6FFCD4ACE4B02F0B2FFB860F960B3
:10521000012066E0CB4B9E4200DC8DE0CA4B9E42F3
:1052200065DCCA4932158A46924453461B05F51A75
:105230002900040003F0F0FA03F024FB02000B0045
:10524000200029000A920B9302F092FF0022C04B2B
:1052500002F014FD0290039103F0DEFA03F012FB5A
:1052600004000D0002000B00029803990C940D95A8
:1052700002F07EFF0022B64B02F000FD0022002368
:105280000E900F9101F00AFF002800D14CE100239D
:1052900000222000290001F001FF0222431E984154
:1052A000131AAC4A3900019202220AA8009252460F
:1052B00000F09EFA4B46002B13DA80221206944629
:1052C0007B68404263447B60FB686344FB6008E0AA
:1052D00002000B003A607B60002200230020BA60CD
:1052E000FB6010B01CBC90469946A246F0BD02007F
:1052F0000B0002F03DFFB860F96038607960002073
:10530000EFE7D3228E4B520502F032FF924A934BC5
:1053100004000D0002F02CFF02000B0020003A6098
:105320007B60290002F024FF8B4A8C4B02F020FFA7
:10533000B860F9600120D4E700F056FF884A894B35
:1053400004000D0002F09AFC0022874B02F05CF88A
:1053500003F062FA804603F095FA764A764B06909F
:10536000079102F08BFC02000B002000290002F0E4
:10537000FFFE734B02900391069807996F4A02F063
:105380007DFC434604000D00049405951F2B30DC82
:10539000013B764A9B009B589E422AD002000B009C
:1053A0000298039902F0E4FE02000B0005000C00D5
:1053B0003A607B60029803992A00230002F0D8FE2D
:1053C000049A059B02F0D4FE06000B003200BA607E
:1053D000FB604B464046002B00DB82E780231B0628
:1053E0009C46644461443D607C60BE60F96040421C
:1053F00077E7049A059B0298039902F0B9FE0B0027
:1054000002003A607B604B0036155B0D05000C0016
:10541000F31A102BCEDD06980799D322484B52057C
:1054200002F02CFC04000D0002000B00029803990E
:1054300002F09EFE02000B00029803990892099365
:1054400002F096FE22002B0002F092FE04000D00F6
:1054500006980799404A414B02F010FC22002B00AD
:1054600002F086FE02000B0004900591089809994D
:1054700002F07EFE02000B003A607B604B005B0D89
:10548000F61A0500089A099B0C0002920393312E2C
:1054900090DD06980799B822304B920502F0EEFB9A
:1054A00004000D0002000B000298039902F060FE58
:1054B0000A00010013000291039202000898099962
:1054C00002F056FE22002B0002F052FE04000D00F6
:1054D00006980799264A274B02F0D0FB22002B00A2
:1054E00002F046FE02000B000492059358E7124BAF
:1054F00001F08AFF104B04000D009E423CD00F4A81
:105500000F4B01F081FF02000B0020003A607B602E
:10551000290002F02DFE094A094B01F075FFB86021
:10552000F96001204042DCE60323BAE6FB21E93FB3
:105530007BD9024000004054FB21F93F3163621ADD
:1055400061B4D03DFB213941FFFFEF7FEAFBFFFF54
:1055500000007041B0AC00007370032E8A19A33BA9
:1055600083C8C96D305FE43F0000E03F30AC00000D
:10557000C14920259A837B39D3220D4B520501F076
:1055800043FF0C4A0C4B04000D0001F03DFF0200EC
:105590000B0020003A607B60290002F0E9FD054A1B
:1055A000054B01F031FFB860F9600120404298E6F8
:1055B00061B4D03D7370032E8A19A33BF0B54F46FA
:1055C0004646C0B487B000920193754B4F008146A8
:1055D00088467F089F4263DC03F01EF9002800D153
:1055E000DAE04A4643464846414602F047FB04009B
:1055F0000D006C4A6C4B02F041FB6C4A6C4B01F0A5
:1056000003FF22002B0002F039FB6A4A6A4B02F0CA
:10561000AFFD22002B0002F031FB684A684B01F01D
:10562000F3FE22002B0002F029FB664A664B02F0D3
:105630009FFD22002B0002F021FB644A644B01F025
:10564000E3FE22002B0002F019FB029003910022DE
:10565000604B2000290002F011FB029A039B060018
:105660000F002000290002F009FB009A019B0400B2
:105670000D004846414602F001FB02000B002000ED
:10568000290002F075FD02000B003000390002F025
:105690006FFD02000B0000204F4902F069FD70E031
:1056A00002000B0002F0EAFA04000D003D4A3E4BF6
:1056B00002F0E4FA3D4A3E4B01F0A6FE22002B0028
:1056C00002F0DCFA3B4A3C4B02F052FD22002B0078
:1056D00002F0D4FA394A3A4B01F096FE22002B0030
:1056E00002F0CCFA374A384B02F042FD22002B0080
:1056F00002F0C4FA354A364B01F086FE2B00220038
:1057000002F0BCFA354B029003919F429FDD344B6F
:1057100000229F423ADC334900207B182E491600B4
:105720001F0002F025FD049005910022294B200066
:10573000290002F0A3FA32003B0002F019FD029AA0
:10574000039B06000F002000290002F097FA009A40
:10575000019B04000D004846414602F08FFA02000A
:105760000B002000290002F003FD02000B003000B6
:10577000390002F0FDFC02000B000498059902F0CC
:10578000F7FC07B00CBC90469946F0BD164B0026BE
:1057900004920593154FC8E700200F49F1E7C04672
:1057A000FFFF3F3ED43888BEE9FAA8BDC4B1B4BDFE
:1057B0009EEE213EAD529C804F7E923E9015CB19BD
:1057C000A001FA3E7751C1166CC1563F4C55555554
:1057D0005555A53F0000E03F0000F03F3233D33F76
:1057E0000000E93F0000E0FF0000E73F0000D23F7B
:1057F000F0B556464D4644465F46F0B48E4CA5443F
:10580000099119001400A89A0B938C4B9200D2585E
:105810000B000290013BE01E18211D0016000892AB
:10582000009301F031FBC3430200DB171A40130061
:10583000110001330E929A009B1ADB001B1906938C
:105840004C1B761918D4A99BA5009C46361926AF87
:105850006544013607E0286803F014F8013403C7F3
:105860000435B44208D0002CF5DA002000210134C0
:1058700003C70435B442F6D1089B002B01DA00F0CF
:10588000F9FB76AB19008B4626AA9146089A0A9333
:105890000132D2009344029A9A469046009BDB0064
:1058A000994408339844009B002B00DAB5E14C463C
:1058B00000260027029D2268636803CD02F0DEF90E
:1058C00002000B003000390001F09EFD083C06008C
:1058D0000F004545EFD15346C0C39A4608239C4666
:1058E000E144DA45DFD10899554A0B0094466344F8
:1058F0009B0012A884461A000298624483460D92C7
:105900000B9A0433D200634493440F930591059A94
:105910000A98D30019000C938C46030063441E6858
:105920005F68002A34DD12AB99461300454A804671
:1059300094466344DB00984474AB9A460022424B81
:105940003000390002F09AF902F066FF02F09AFF87
:1059500000223E4B04000D0002F090F902000B0003
:105960003000390002F004FC02F056FF4B4601C340
:105970009946434620001A685B68290001F044FDFF
:1059800008235B429C46E04406000F00D045D5D179
:10599000069B30001A003900994600F0C1FCFF2335
:1059A00000229B0504000D0002F068F900F020FCC5
:1059B0000022274B02F062F902000B0020002900B0
:1059C00002F0D6FB04000D0002F026FF804602F034
:1059D00059FF02000B002000290002F0C9FB4C46D1
:1059E00006000F00002C00DCF8E0059B18205A1E72
:1059F000920012AB9B58001B190001418844814062
:105A00005B1A12A98B501722121B13410793079B95
:105A1000002B4BDD01239C46059BE044002B00DC62
:105A2000F2E280251096119712AB0021002409485C
:105A30006D04059F19E0C04684FDFFFFB8AD00006E
:105A4000FEFFFF3FFFFFFF1F0000703E00007041A0
:105A500000002040FFFFFF00002A02D0AA1A1A60AF
:105A60000134013104338F4209DD1A68002CF3D070
:105A7000821A01311A60012404338F42F5DC109E32
:105A8000119F069B002B0EDD012B00D1B1E0022BF4
:105A900009D1059B12A95A1E920012AB9B58109374
:105AA0009B029B0A8B50079B022B7ED00023002277
:105AB0003000390001F0F2FA059B002800D16BE2BA
:105AC00008995A1E914210DCBF490F988C4612A9C2
:105AD00063448C4600219B0063441C68043B2143C3
