:1000000000400020DD3800001D3900001F390000CD
:1000100000000000000000000000000000000000E0
:100020000000000000000000000000002139000076
:100030000000000000000000233900002539000006
:10004000273900002739000011410000273900003E
:100050002739000000000000273900002739000080
:1000600027390000553B00002739000027390000E0
:100070002739000027390000273900002739000000
:1000800027390000B541000027390000273900005A
:1000900027390000273900002739000027390000E0
:1000A0002739000027390000000000000000000090
:1000B0000000000000000000000000000000000040
:1000C000054B0648033310B51B1A062B03D9044B06
:1000D000002B00D0984710BDD0000020D000002099
:1000E000000000000648074910B5091A8910CB0F17
:1000F0005918491003D0044B002B00D0984710BD6D
:10010000D0000020D00000200000000010B5074CF7
:100110002378002B09D1FFF7D3FF054B002B02D02A
:10012000044800E000BF0123237010BDD000002070
:1001300000000000AC630000094B10B5002B03D099
:100140000849094800E000BF08480368002B02D1B5
:10015000FFF7C8FF10BD064B002BF9D09847F7E713
:1001600000000000D4000020AC630000CC000020A0
:1001700000000000164B002B00D1144B9D4640227E
:1001800092029A1A924600218B460F461348144A4F
:10019000121A04F088FA0F4B002B00D098470E4B30
:1001A000002B00D098470020002104000D000D48CE
:1001B000002802D00C4800E000BF04F031FA200013
:1001C000290003F0BDFF04F005FAC0460000080056
:1001D000004000200000000000000000D0000020CF
:1001E000E41E002000000000000000000123034086
:1001F0000200181E04D1042A03D91068000900E087
:10020000002070470122016810B5114201D0002979
:1002100003DA102001F014FC03E04910062001F07D
:10022000C7FC10BD016810B5CB0701D5002903DA62
:10023000102001F005FC06E049100331891000226E
:10024000052001F0B5FC10BD70B50568AB0707D1FE
:10025000042D05D90F232A6813405A1F012A01D9FA
:100260000B2012E046680124062B0BD12800FFF773
:10027000BDFF2300834203DC9A00AE500133F9E74F
:10028000002014E0264203D1132001F0D9FB0EE038
:100290007610FF2EF8D82800FFF7A8FF2C1D2300AA
:1002A000800020189842EBD91E700133FAE770BD28
:1002B00070B5012544682C4201D1112026E0066862
:1002C000B30722D1042E20D90F23326864101340C3
:1002D000062B0BD1002C04DD3000FFF787FF844292
:1002E00001DD122012E0A400A05911E0052B0CD171
:1002F000002CF6DD3000FFF779FF80008442F0DC4F
:100300003419E0784000284302E00B2001F098FB0C
:1003100070BDF8B5012344681C4201D111202FE0C3
:100320000325066835402AD1042E28D90F233268C8
:10033000641087681340062B0BD1002C04DD3000BD
:10034000FFF754FF844201DD122019E0A400A751F9
:1003500013E0052B13D1002CF6DD3000FFF746FF2C
:1003600080008442F0DC01231F4201D1132007E00A
:100370007F10FF2FFAD83419E770280002E00B2015
:1003800001F05EFBF8BD006810B5830712D10428A8
:1003900010D90F2302681340062B03D1FFF726FF65
:1003A000400004E0052B05D1FFF720FFC00001232A
:1003B000184302E00B2001F043FB10BD10B50324ED
:1003C0000068044006D1042804D90F2302681340B2
:1003D000042B01D00E200CE001F026FC102221009D
:1003E00004F01EFE80239B05C218054B9A4203D9D8
:1003F000142001F025FB02E001234000184310BD4A
:10040000FFFFFF3F10B501240368234202D042687A
:10041000224203D10D2001F013FB08E004495B10D8
:1004200052101B070A40134318684000204310BDB8
:10043000FCFFFF0F0121036810B50B4205D0426895
:100440000A4202D08068084203D10D2001F0F8FA78
:1004500008E005495B1052101B070A404010134387
:100460001860002010BDC046FCFFFF0F01230340B1
:100470000200181E01D0501002E00D22014B1A702C
:100480007047C046EC000020F7B5C824194E1A4F3B
:100490003368A400FD18E41A0123184202D0431067
:1004A000164A15E0164A002802D0042805D1154A3C
:1004B0002100280004F0BEFC16E004280DD90F230B
:1004C00002681340042B08D101F0AEFB03000E4A72
:1004D0002100280004F0AEFC06E000930B4A030064
:1004E0002100280004F0A6FC380004F0FFFC306076
:1004F000F7BDC046F4000020F8000020C05D0000F9
:10050000C35D0000C95D000003600000CE5D000017
:10051000012310B5034013D182070CD104280AD956
:100520000F2201680A40042A05D101F07DFB04F086
:10053000DDFC831D07E0042804D0002803D101E07E
:100540000A2300E00723180010BD0000C368F0B5BF
:100550009D00836887B05D19030018330493036915
:1005600003909F00049BDF1943699E000193049B45
:100570009E19E34B1B78002B1AD17F222B68E1498F
:100580001C1213409B005B5801960435029245E013
:10059000049B3A1DD11ADA4B8B2900DD68E12868EB
:1005A0001B78291D3860002B54D017000D00019EC8
:1005B000039BD34C9B6821780193EA1A039B92100A
:1005C0009B7812021A43039B587802F072F80023BA
:1005D000039A237013700196039B049A9B68ED1A8B
:1005E0000293039BAD10DD60049BFF1A039BBF10B9
:1005F0001F61019B9B1A039A9B10536101F019FA2A
:10060000BF4B1B78002B01D001F006FA2B68029A31
:100610001C121340BB4A9B009B5804359F46039B0A
:10062000587802F03EF84DE2049B3A1DD11AB44BC3
:100630008B2900DD1CE11B783C60002B00D020E101
:100640002B6802991C120B40AE499B005B581700A7
:100650000435E3E76B6802991C120B40A9499B0023
:100660005B5817000835D9E7049B3A1DD11AA44BF3
:100670008B2900DDFCE0A4001B782C193C60002BCA
:1006800000D0FEE02B6802991C120B409D499B0094
:100690005B5817000435C1E7049B3A1DD11A984BEB
:1006A0008B2900DDE4E09849A40061581B7839608B
:1006B000002B00D0E5E02B6802991C120B409149F9
:1006C0009B005B5817000435A8E7043F8E4B3A683F
:1006D000A400E2508A4B1B78002B01D001F09CF95A
:1006E0002B68029A1C121340864A9B009B580435C3
:1006F00094E7854BA600F058FFF7B8FE043F0400CE
:100700003868FFF7B3FE241801207F4B64000443D0
:10071000F4507B4B1B78002B01D001F07DF92B6846
:10072000029A1C121340774A9B009B58043575E7C8
:10073000049B3A1DD11A724B8B2900DD98E0019879
:10074000049C0121A04202D901000C3909681B78E0
:100750003960002B00D094E02B6802991C120B40EA
:1007600068499B005B581700043557E7049B3A1D06
:10077000D11A634B8B297BDC0199049881420AD9F9
:100780000B000C3B1B6861495B106418E41A019B69
:10079000A400E35802E01821197000233B60584B75
:1007A0001B78002B6DD12B6802991C120B40554908
:1007B0009B005B581700043530E7019B049A934275
:1007C0000BD90C3B1B68514A043FA2185B10D31A8B
:1007D0003968019A9B00995002E01822484B1A7020
:1007E000474B1B78002B01D001F016F92B68029AB9
:1007F0001C121340434A9B009B5804350EE7019B93
:10080000049A93421CD9019E404B0C3EE418336875
:10081000019A5B10E31A9B009858FFF727FE043FEC
:1008200005903868FFF722FE3368059A5B10E31ADB
:10083000012410184000019A9B002043985002E0C8
:1008400018222F4B1A702E4B1B78002B01D001F071
:10085000E3F82B68029A1C1213402A4A9B009B580B
:100860000435DBE6049B3A1DD11A254B8B2901DDAB
:100870001A227CE20199A40061581B783960002B90
:1008800002D0019E170093E62B6802991C120B40C0
:100890001C499B005B5817000435BFE6043F019BD1
:1008A0003A68A400E250164B1B78002B01D001F0EF
:1008B000B3F82B68029A1C121340124A9B009B58F3
:1008C0000435ABE6019BA4001C192368043F38687B
:1008D0005E10FFF7CBFD36180120094B76001B7820
:1008E00006432660002B01D001F096F82B68029A8F
:1008F0001C121340034A9B009B5804358EE6C046E9
:10090000EC000020C05B0000001E0020FDFFFF3F48
:10091000049BA4003F1BDC4CBB420DD82378002B6A
:1009200001D001F079F82B68029A1C121340D74AC3
:100930009B009B58043571E6D54801F0EBF823780D
:10094000002B01D001F068F82B68029A1C121340AA
:10095000CE4A9B009B58043560E6A300ED18002C9E
:1009600000DA39E6C84B1B78002B01D001F054F8AF
:100970002B68029A1C121340C44A9B009B580435F2
:100980004CE6043F3B68042B04D1A300ED18002C77
:1009900000DA21E6BC4B1B78002B01D001F03CF8BB
:1009A0002B68029A1C121340B84A9B009B580435CE
:1009B00034E6043F3B68002B04D1A300ED18002C63
:1009C00000DA09E6B04B1B78002B01D001F024F8C7
:1009D0002B68029A1C121340AC4A9B009B580435AA
:1009E0001CE63A1F13685B10013B002B06DD01215A
:1009F0005B00A4000B432D191360EDE5A24B17001B
:100A00001B78002B01D001F007F82B68029A1C120A
:100A100013409E4A9B009B580435FFE53A00049B17
:100A20000C32D31A8B2B00DD9FE1FF2361005B00AA
:100A30000B4001210B433B60039B04989B682412ED
:100A40000593ED1A039BAD109B782D021D43019B6E
:100A50008D401B1A9B108B400B43BB60039B0D43C7
:100A60007D609C70E4B28B4BE4000399E358160060
:100A70008B6085490978002903D008331D001700D1
:100A800096E51D0002999B680C351C120B407F49AE
:100A90009B005B5801921700C0E53B1F1E68049A3B
:100AA000019B934212D13000FFF732FD643001F018
:100AB00055FC002801D100F082FD039B31005878DD
:100AC00001F009FE0023039A137085E5019B019A4A
:100AD0000C3B1B6803995B109B005B421F00D31803
:100AE0000C3B1E601300083B1B68083FD7195A10C7
:100AF0008A70D2B26749D2005B0055589B0A039AAC
:100B00009B009560ED18019B043B1E68049B7610CA
:100B1000B6009E195C4B1B78002B00D048E52B6873
:100B2000029A1C121340594A9B009B5801960435A7
:100B300074E53B1F1868FFF799FCA40006003F1BF3
:100B40001E2818DC02F07AF8083E361802F076F813
:100B5000514B801B9842F9D84B4B1B78002B01D08E
:100B600000F05AFF2B68029A1C121340474A9B0060
:100B70009B58043552E50123039A137002F05EF886
:100B8000113812E03B1F1868FFF770FC434BA400BC
:100B900006003F1B98420CDC0123039A137002F0FD
:100BA0004DF8FA239B005E43113E039B36185E60AE
:100BB00012E50223039A137002F04AF8F5E70326C0
:100BC000A300FF1A3B681E4006D1042B04D91A6803
:100BD0000F231340042B03D00E222B4B1A7023E05B
:100BE0002F4B1E702F4B1E60B44205DDB300F8582A
:100BF000FFF74AFC0136F7E72A4B1B68002B09D0A8
:100C0000274A013BD25C202A04D100222449CA543D
:100C1000244A1360234E224C3168200001F00CFD61
:100C20003168200001F05EFD174B1B78002B01D0CE
:100C300000F0F2FE2B68029A1C121340134A9B002C
:100C40009B580435EAE4104BA4001B783F1B002B93
:100C500001D000F0E1FE2B68029A1C1213400B4AEF
:100C60009B009B580435D9E401F0BEFB00F0E1FE87
:100C70003B1F1B68002B2DD13B000C3B1B68DA0788
:100C800012D55B101FE0C046EC000020C05B0000E6
:100C9000E75D0000081600209F860100E7030000C2
:100CA000F8000020F40000209A0744D1042B42D918
:100CB0000F221B681A40062A01D11B0903E0052AEE
:100CC00039D11B099B00390001205A000839024321
:100CD0000A6001E05B10013B002B2EDD01215A0070
:100CE0000A43381F02603A00083A12680A41D31AD0
:100CF0003A000C3A12680A4204D05B188B40A400F8
:100D00000B430CE0900716D1042A14D90F20166863
:100D10003040062806D101339B009B58A400019A5D
:100D2000A3500BE0052806D1D3181A790B00520006
:100D3000A4001343F3E7192218E00435E74B1B78AE
:100D4000002B01D000F068FE2B68029A1C121340A1
:100D5000E34A9B009B58043560E4A300049AFB1807
:100D60009B1A8B2B01DC002204E01A22DB4B1A7049
:100D700000F052FE631E002C03DD3A601C000437B5
:100D8000F8E7D64B1B78002B01D000F045FE2B680E
:100D9000029A1C121340D24A9B009B5804353DE432
:100DA0003B00083B1868FFF761FB3B1F0590186884
:100DB000FFF75CFB059AA4003E1B0023824200DA89
:100DC00004333360C54B3F1B1B780437002B01D025
:100DD00000F022FE2B68029A1C121340C04A9B00AE
:100DE0009B5804351AE4A300FE1A05933B00083B08
:100DF0001868FFF73BFB3B1F04001868FFF736FB42
:100E0000E20FC317A04253419B003360059BFF1ABA
:100E1000B24B04371B78002B01D000F0FDFD2B688E
:100E2000029A1C121340AE4A9B009B580435FFF7F0
:100E3000F5FB3B003A1F083B10681B68A74AA4005B
:100E4000834202D13B1B042103E0042B03D8002181
:100E50003B1B196006E001210B4201D00842F6D18C
:100E60000F23137013783F1B0437002B01D000F0C1
:100E7000D3FD2B68029A1C121340994A9B009B5881
:100E80000435FFF7CBFB3B003A1F083B10681B689B
:100E9000924AA400834202D13B1B002103E0042BB1
:100EA00003D804213B1B196006E001210B4201D04D
:100EB0000842F6D10F23137013783F1B0437002B21
:100EC00001D000F0A9FD2B68029A1C121340844A3D
:100ED0009B009B580435FFF7A1FBA300FE1A059366
:100EE0003B00083B1868FFF7C1FA3B1F0400186875
:100EF000FFF7BCFAE217C30F844253419B003360F3
:100F0000059BFF1A754B04371B78002B01D000F0AE
:100F100083FD2B68029A1C121340714A9B009B5858
:100F20000435FFF77BFB3B00083B1868FFF79EFA90
:100F30003B1F05901868FFF799FA059AA4003E1B1D
:100F40000023824200DD04333360644B3F1B1B7877
:100F50000437002B01D000F05FFD2B68029A1C12B1
:100F600013405F4A9B009B580435FFF757FB3B1F1C
:100F70001B685A4AA400042B02D13B1B002103E04A
:100F8000002B03D104213B1B196001E00C231370DB
:100F900013783F1B0437002B01D000F03DFD2B6878
:100FA000029A1C1213404E4A9B009B580435FFF7CF
:100FB00035FBA300FE1A05933B00083B1868FFF7BA
:100FC00055FA3B1F04001868FFF750FA2418012057
:100FD000059B6400FF1A414B04431B7834600437BF
:100FE000002B01D000F018FD2B68029A1C12134050
:100FF0003B4A9B009B580435FFF710FBA300FE1AE9
:1010000005933B00083B1868FFF730FA3B1F0400CC
:101010001868FFF72BFA241A0120059B6400FF1AB9
:101020002E4B04431B7834600437002B01D000F0B2
:10103000F3FC2B68029A1C121340294A9B009B5810
:101040000435FFF7EBFAA300FE1A05933B00083BBB
:101050001868FFF70BFA3B1F04001868FFF706FA41
:1010600044430120059B6400FF1A1C4B04431B787A
:1010700034600437002B01D000F0CEFC2B68029ABC
:101080001C121340164A9B009B580435FFF7C6FA02
:101090003B00083B1868FFF7E9F93B1F059018680B
:1010A000FFF7E4F90100059803F05CF90123A400BF
:1010B0003E1B370040001843084B30601B78043754
:1010C000002B01D000F0A8FC2B68029A1C121340E0
:1010D000034A9B009B580435FFF7A0FAEC00002060
:1010E000C05B00003B00083B1868FFF7BFF93B1FDF
:1010F00005901868FFF7BAF90100059803F018FA8F
:101100000123A4003E1B370049001943EF4B316017
:101110001B780437002B01D000F07EFC2B68029A6C
:101120001C121340EA4A9B009B580435FFF776FADD
:101130003B1F1868FFF79AF9C317C01858400123DE
:10114000A4003E1B370040001843E04B30601B7882
:101150000437002B01D000F05FFC2B68029A1C12B0
:101160001340DB4A9B009B580435FFF757FA3B1F9F
:101170001868FFF77BF9061E00DC0126A300FC1AA5
:10118000059303F009FE310003F0D2F90123013188
:1011900049001943059B2160FF1ACC4B04371B788B
:1011A000002B01D000F038FC2B68029A1C1213406F
:1011B000C74A9B009B580435FFF730FAA4003E1B3A
:1011C0003000FFF7FBF83700C04B30601B78043766
:1011D000002B01D000F020FC2B68029A1C12134057
:1011E000BB4A9B009B580435FFF718FAA300FE1A70
:1011F00005933B00083B1868FFF738F93B1F0400D4
:101200001868FFF733F904400120059B6400FF1ABA
:10121000AE4B04431B7834600437002B01D000F040
:10122000FBFB2B68029A1C121340A94A9B009B5897
:101230000435FFF7F3F9A300FE1A05933B00083BC2
:101240001868FFF713F93B1F04001868FFF70EF941
:1012500004430120059B6400FF1A9C4B04431B7848
:1012600034600437002B00D0D6E32B68029A1C129E
:101270001340974A9B009B580435FFF7CFF9A30012
:10128000FE1A05933B00083B1868FFF7EFF83B1F79
:1012900004001868FFF7EAF844400120059B640049
:1012A000FF1A8A4B04431B7834600437002B00D0AC
:1012B000B2E32B68029A1C121340854A9B009B588C
:1012C0000435FFF7ABF93B1F1868FFF7CFF8C043B1
:1012D0000123A4003E1B3700400018437B4B3060C5
:1012E0001B780437002B00D096E32B68029A1C125F
:1012F0001340774A9B009B580435FFF78FF9A300F2
:10130000FE1A05933B00083B1868FFF7AFF83B1F38
:1013100004001868FFF7AAF88440012364001C4306
:10132000059B3460FF1A694B04371B78002B00D0F3
:1013300072E32B68029A1C121340654A9B009B586B
:101340000435FFF76BF9A300FE1A05933B00083B39
:101350001868FFF78BF83B1F04001868FFF786F842
:101360000441012364001C43059B3460FF1A574B62
:1013700004371B78002B00D04EE32B68029A1C1216
:101380001340534A9B009B580435FFF747F9A400CC
:101390003E1B3000FEF736FF37004C4B30601B78A9
:1013A0000437002B00D037E32B68029A1C1213403D
:1013B000474A9B009B580435FFF730F9A4003E1BB9
:1013C0003000FEF72FFF3700404B30601B780437AA
:1013D000002B00D020E32B68029A1C1213403C4AD9
:1013E0009B009B580435FFF719F9A4003F1B3800F8
:1013F000FEF72AFF354B1B78002B00D00CE32B683F
:10140000029A1C121340324A9B009B580435FFF786
:1014100005F9A4003E1B3000FEF74AFF37002B4BB6
:1014200030601B780437002B00D0F5E22B68029A5D
:101430001C121340264A9B009B580435FFF7EEF818
:10144000A4003F1B3800FEF764FF204B1B78002BE5
:1014500000D0E1E22B68029A1C1213401C4A9B0048
:101460009B580435FFF7DAF8A4003E1B3000FEF766
:101470008AFF3700154B30601B780437002B00D0F3
:10148000CAE22B68029A1C121340114A9B009B5817
:101490000435FFF7C3F8049A3B1D05930B4C9B1AC8
:1014A0008B2B1EDC01F0D4FB012340001843237872
:1014B0003860002B6ED12B68029A1C121340044A2C
:1014C0009B009B58059F0435FFF7A8F8EC0000200F
:1014D000C05B0000049A3B1D0593E74C9B1A8B2BC5
:1014E00002DD1A23237097E201F0A8FBE34B4000D2
:1014F00018400123184323783860002B4AD12B6809
:10150000029A1C121340DE4A9B009B58059F04352B
:10151000FFF784F8A4003E1B3000FEF773FF37008E
:10152000D54B30601B780437002B00D074E22B6859
:10153000029A1C121340D24A9B009B580435FFF7B5
:101540006DF8A4003F1B3800FEF774FFCA4B1B78F0
:10155000002B00D060E22B68029A1C121340C84A8C
:101560009B009B580435FFF759F8A4003B1B1868F3
:101570000593FEF7CDFF643000F0F0FE00281ED08A
:10158000039B5978059B186801F084F8BA4B1B78C7
:10159000002B03D0019E059FFFF70AF82B68029AE3
:1015A0001C121340B64A9B009B58059F0435FFF759
:1015B00035F8E120800000F0D1FE002802D1043D82
:1015C000FFF70AF80026A300AE4AFF1AAE4B1670CA
:1015D0001E600592B44211DDB300F858FEF754FFC7
:1015E000631E9E4208DA2020A74A11684B1C136034
:1015F000A44A50540021D1540136EBE7059800F07D
:101600009BFF9D4B1B78002B00D005E22B68029AB4
:101610001C1213409A4A9B009B580435FEF7FEFFAC
:10162000A4003E1B300001F025FB3700924B3060D8
:101630001B780437002B00D0EEE12B68029A1C12B5
:1016400013408F4A9B009B580435FEF7E7FFA40028
:101650003E1B300001F010FB3700874B30601B78D9
:101660000437002B00D0D7E12B68029A1C121340DC
:10167000834A9B009B580435FEF7D0FFA4003E1B15
:10168000300001F0FBFA37007B4B30601B780437E9
:10169000002B00D0C0E12B68029A1C121340784A3C
:1016A0009B009B580435FEF7B9FFA4003F1B380090
:1016B00001F002FB704B1B78002B00D0ACE12B68D3
:1016C000029A1C1213406E4A9B009B580435FEF789
:1016D000A5FFA4003E1B300001F010FB3700664B55
:1016E00030601B780437002B00D095E12B68029AFC
:1016F0001C121340624A9B009B580435FEF78EFF74
:10170000A4003F1B380001F02BFB5B4B1B78002B28
:1017100000D081E12B68029A1C121340584A9B00AA
:101720009B580435FEF77AFF0121200001F000FBF1
:10173000514B1B78002B00D06EE12B68029A1C12D3
:1017400013404F4A9B009B580435FEF767FF00216A
:10175000200001F0EDFA484B1B78002B00D05BE134
:101760002B68029A1C121340454A9B009B58043573
:10177000FEF754FFA4003E1B300001F005FD3700CA
:101780003D4B30601B780437002B00D044E12B68C0
:10179000029A1C1213403A4A9B009B580435FEF7EC
:1017A0003DFFA4003E1B300001F0F3FC3700324B3C
:1017B00030601B780437002B00D02DE12B68029A93
:1017C0001C1213402E4A9B009B580435FEF726FF3F
:1017D000A4003F1B380001F0CFFA274B1B78002BE9
:1017E00000D019E12B68029A1C121340244A9B0076
:1017F0009B580435FEF712FFA4003F1B380001F090
:10180000F9FC1D4B1B78002B00D005E12B68029AD8
:101810001C1213401A4A9B009B580435FEF7FEFE2B
:10182000A4003E1B300001F01DFD3700124B30605C
:101830001B780437002B00D0EEE02B68029A1C12B4
:1018400013400F4A9B009B580435FEF7E7FEA400A7
:101850003F1B380001F0B8FA074B1B78002B00D073
:10186000DAE02B68029A1C121340054A9B009B5831
:101870000435FEF7D3FEC046EC000020FEFFFF7FDC
:10188000C05B0000F8000020F4000020A4003E1B14
:10189000300001F0AFFA3700674B30601B78043737
:1018A000002B00D0B8E02B68029A1C121340634A48
:1018B0009B009B580435FEF7B1FEA4003F1B380087
:1018C00001F012FC5C4B1B78002B00D0A4E02B68CD
:1018D000029A1C121340594A9B009B580435FEF78C
:1018E0009DFEA4003F1B380001F00AFC524B1B7800
:1018F000002B00D090E02B68029A1C1213404F4A34
:101900009B009B580435FEF789FEA4003F1B38005E
:1019100001F002FC484B1B78002B7DD12B68029A0A
:101920001C121340454A9B009B580435FEF776FE77
:10193000A4003F1B380001F00BFC3F4B1B78002B31
:101940006AD12B68029A1C1213403C4A9B009B5898
:101950000435FEF763FEA4003E1B300001F00CFDD1
:101960003700354B30601B780437002B54D12B687F
:10197000029A1C121340314A9B009B580435FEF713
:101980004DFEA4003E1B300001F0FEFC37002A4B48
:1019900030601B780437002B3ED12B68029A1C1252
:1019A0001340264A9B009B580435FEF737FEA400DF
:1019B0003E1B300001F0F0FC37001F4B30601B78FD
:1019C0000437002B28D12B68029A1C1213401B4AA3
:1019D0009B009B580435FEF721FEA4003E1B3000FF
:1019E00001F0E4FC3700144B30601B780437002B07
:1019F00012D12B68029A1C121340104A9B009B586C
:101A00000435FEF70BFEA4003F1B380001F060FB1D
:101A1000094B1B78002B02D0019EFEF7C9FD2B68F5
:101A2000029A1C121340054A9B009B580435FEF78E
:101A3000F5FD07B0F0BDC046EC000020C05B000023
:101A4000014B187000207047EC000020F0B5002317
:101A5000A02787B05A1E0492002B05DC01F0D8F9AC
:101A600000F04EFE64230493002503950295254B58
:101A700019688D4201DB049BECE7234B1A680132A5
:101A8000914200DC00221A601B68204E01937B43C8
:101A90009A199B5D05923400032B01D110002CE0B4
:101AA000002B2DD0012B0CD1029B002B02D101F079
:101AB000C5F80290019A02997A43A4186368CB1A78
:101AC0000FE0022B12D1039B002B02D101F0C0F8D2
:101AD0000390019A03997A43A4186368CB1A9B0276
:101AE0009B0A0B498B4201D80323B354019B074A3D
:101AF0007B439B5C032B03D10598FEF727FDBAE7D8
:101B00000135B4E7F000002000000020C80F0020DD
:101B10009F86010000B59BB00200054901A803F0B3
:101B2000BBF901A800F008FD00F0EAFDFCE7C046A3
:101B3000F75D000037B5174D04002868002801D074
:101B400002F09EFDA400200002F090FD2860002815
:101B500001D1114809E001AB984208D20F4B02199C
:101B60006B440193934202D20D48FFF7D3FF042840
:101B700002D808302860083C2B680A4A1C191360F8
:101B8000094B01211C600023084AD1500433642B07
:101B9000FBD137BD20040020085E00001CFCFFFFC5
:101BA000385E0000180400201C040020001E0020E5
:101BB00070B50D4D0D4E2B684C1CA40036681C19D9
:101BC000B44203D90A20FFF73BFF0BE02C601D0055
:101BD000AC4201D904C5FBE70F22090110400843BC
:101BE0001860180070BDC046180400201C040020B6
:101BF0000322CB1C70B50C00D9171140C918050081
:101C0000891000220420FFF7D3FF0023A34204DA47
:101C1000E95CC21811710133F8E7E1430023C917E9
:101C2000214041180B7170BD10B5830706D10428FF
:101C300004D90F2304C81340042B03D00E20FFF750
:101C4000FFFE014810BDC0463F5F000030B50224D2
:101C50008025094B094AED009C505C59002CFCD0B2
:101C6000A124E400884204D28025ED0018514019D7
:101C7000F8E70021995030BD00E001400405000064
:101C800010B5002804D1902092210002890203E0BF
:101C9000922080218002C902FFF7D8FF10BD0028E2
:101CA00002D092239B0201E090231B021B680020BC
:101CB0001A0E532A01D11B02180A704730B50124AD
:101CC0008025064A064BED00D4505459002CFCD018
:101CD00001600021014AD15030BDC04600E0014002
:101CE0000405000010B5002802D09220800201E017
:101CF00090200002A6230902DB05090A1943FFF719
:101D0000DDFF10BDF0B50124802503000F4F080052
:101D10000F49ED007C507C59002CFCD09C460028DB
:101D200010DD547816789378240234431B0423433F
:101D30001C00D37801381B062343644608C40432D0
:101D4000A446ECE700237B50F0BDC04600E0014014
:101D50000405000070B505004B680A009C1C2100BA
:101D6000FFF7D0FFA000281870BD0000154B1B68BE
:101D7000002B04D080219223C9029B0203E0922110
:101D8000902389021B02002807D1191D5B680200FD
:101D90001B0E522B14D10A0012E0002281420FD9EF
:101DA00003681B0E522B0BD1436802339B00C318F0
:101DB000994205D91A68110E0022522900D11A0041
:101DC00010007047240600208022F0B5520085B034
:101DD0000021624802F067FC802200215200604826
:101DE00002F061FC5F4B1B681A00029353425A4198
:101DF00010000392FFF744FF029B002B01D15A4CC5
:101E000000E05A4C0020FFF7B1FFFF270500002D2E
:101E100000D194E02B681A121B143A403B40019207
:101E20001A000A3A092A43D84C4B019A995C0029B6
:101E300000D07FE010224E4802F035FC2E003368BF
:101E400001991A123A40914217D11A143A400B2ABA
:101E500006D0132A0CD00A2A0FD1454B1E600CE085
:101E60003B40022B09DC424A9B00D3185E6004E031
:101E7000102200213E4802F016FC3000FFF776FFEA
:101E8000061EDCD13A4B196800290FD02000FFF75D
:101E900061FF0400374E3168002903D02000FFF7AE
:101EA00059FF0400344B0436B342F4D12B4B3EE0CF
:101EB000143B092B3ED82A4B019A995C002939D151
:101EC00008222E4802F0EFFB2E0033681A143A4025
:101ED000152A0BD01D2A11D0142A14D1019A1B12D5
:101EE0003B409A420FD1254B1E600CE0019A1B1219
:101EF0003B409A4207D1214B5E6004E0082200215A
:101F00001E4802F0D0FB3000FFF730FF061EDCD188
:101F10001A4E3168002909D02000FFF71BFF7168B5
:101F20000400002902D0FFF715FF04000C4B01212B
:101F3000019A99542800FFF719FF050067E70298F6
:101F4000FFF7ADFE411C0398FFF7CCFE054B039A4B
:101F50001A600B4B1C6005B0F0BDC0462405002084
:101F600024040020240600200448020004900000FD
:101F7000641E0020681E0020741E0020741E0020B5
:101F80002806002070B50020FFF789FE040001201C
:101F9000FFF785FE844200DA04000A4B1E68754292
:101FA000754128001D60FFF76BFE002E01D0064B27
:101FB00000E0064B064A2800611C1360FFF792FE02
:101FC00070BDC046240600200490000004480200B2
:101FD00028060020F8B50020FFF761FE0700012069
:101FE000FFF75DFE3E00224D0643224C0CD18021BE
:101FF0009020C9020002FFF729FE01213000FFF7FF
:1020000071FE2E601C4B2FE0874208DD00239221D9
:102010002B60194B890223602368002011E0012303
:1020200080212B60154BC9022360F5E71A68551C07
:1020300018D0120E522A07D101205A68023292009B
:102040009B188B42F2D311E0002800D023600C4C87
:102050000C49200002F042FF200000F0FFFDFFF7D6
:1020600091FF04E0002802D0236000E02160F8BD69
:1020700024060020280600200490000004480200E6
:102080007C1E0020B05E0000F0B585B003920322F4
:102090000333DC171440294EE3189C103368019079
:1020A0000291002B02D08022D20201E09222920201
:1020B000234FA51C3B68AD005B199A4217D2FFF76E
:1020C00083FE3368002B02D08022D20201E09222EC
:1020D00092023B685B199A4209D21A4C1A492000B5
:1020E00002F0FCFE200000F0B9FD002023E0029B7E
:1020F0003E681B06190C6B461A7BA423DB051343B1
:10210000019A0B431104FF221204114019433000BD
:10211000FFF7D4FD3300301D083321000193FFF792
:10212000CDFD01980A9A2100FFF7ECFD3000019BDC
:10213000083D5D193D6005B0F0BDC0462406002095
:10214000280600207C1E0020D95E000070B59AB0E1
:10215000FFF740FFFF221F4CD2000021200002F0B9
:10216000A2FA0020FFF702FEFF25002600281AD061
:1021700003681A142A400A2A08D11A122A40FF2A90
:102180000ED0D200A1180B71A05009E0132A07D17C
:102190001B122B40FF2B03D0DB00E2181671E65018
:1021A000FFF7E4FDE2E7FF210200C90023580830F1
:1021B0005D1EAB41D2188842F8D1074901A802F050
:1021C0006BFE01A800F0B8F9044800F0B5F91AB0A8
:1021D00070BDC04608160020005F0000185F0000B8
:1021E000044A05491368C85401339B059B0D1360CD
:1021F0007047C0462C0A00202C060020114A70B5FA
:102200001368114C984211DA015D451CFA39012915
:1022100006D8AB4206DD2118497801391F2901D9BA
:102220002800EFE70100251A461C02D100231360A5
:1022300006E0665C6E5401318B42FADC181A1060BD
:1022400070BDC046300A0020380A002010B500F0EA
:10225000F5FC064B1A68904201D200221A601B68F6
:10226000C01A034B83428041404210BD340A002013
:10227000204E000010B5094A094C126823689342A9
:102280000AD0084AD05C00F0ADFF012804D12368D1
:1022900001339B059B0D236010BDC0462C0A002016
:1022A000380E00202C06002010B50400064B074A0B
:1022B0001B6812689B1ADB439B059B0DA34202DA45
:1022C000FFF7D8FFF2E710BD2C0A0020380E0020DF
:1022D000F7B506000191151E2FD05768B800441CB1
:1022E0000630FFF7E1FFFB20FFF77AFF1C20FFF726
:1022F00077FFF0B2FFF774FFE0B22412FFF770FF30
:10230000E0B2FFF76DFF6B461879FFF769FF002613
:10231000BE4212DAB300EB189C680136E0B2FFF758
:102320005FFF2012C0B2FFF75BFF2014C0B2FFF7BF
:1023300057FF200EFFF754FFEAE7F7BDC82210B59C
:10234000D2000021034802F0AEF90022024B1A60CD
:1023500010BDC046C80F0020F0000020064B074A01
:102360001B6812689B1ADB439B059B0D012283426D
:1023700000DC0022100070472C0A0020380E0020DC
:10238000F8B505000C0016001F1E0ED10320FFF744
:10239000E5FF002827D0FA20FFF722FFE8B2FFF779
:1023A0001FFFE0B2FFF71CFF1DE0501DFFF7D6FF37
:1023B000002818D0FB20FFF713FFE8B2FFF710FF4B
:1023C000E0B2FFF70DFFF0B2FFF70AFF3012C0B224
:1023D000FFF706FF3C00E31B9E4204DD2078FFF779
:1023E000FFFE0134F7E7F8BD70B50024A0250B4BC4
:1023F0001B689C420EDA2A006243094BD3181A78F4
:10240000002A05D05978002311201A00FFF7B8FFE1
:102410000134ECE7FFF792FF70BDC046F0000020EA
:10242000C80F0020F0B5040010000122FFB00D001D
:1024300010420BD001AB41101A7059704212090EB4
:1024400040149A70D870197105224AE003230340A2
:102450001ED104281CD90F2201680A40042A17D172
:10246000023301AE3370FFF7DFFB070002F03EFDE1
:10247000F423FF33984200DD18000023834204DA7E
:1024800001335A1EBA5CF254F8E7421C330028E0CC
:10249000042801D0002808D1032201AB04381A70A7
:1024A000424242415A7002221BE0002B1DD10428F7
:1024B0001BD902680F331340052B16D1042101AB41
:1024C0001970F4211209FF3192008A4200DD0A00DE
:1024D0000021914204DA01314618F6785E54F8E79B
:1024E000013229002000FFF74BFF7FB0F0BD000054
:1024F00070B5A023050000240D4A18006043801821
:102500004178A94203D001340A2CF6D10FE0A02271
:10251000002102F0C8F8074A1368013BA34200D12A
:102520001460002329001A001120FFF729FF70BD55
:10253000C80F0020F000002010B5B2B002236A4698
:102540000400137002F0D2FCC72800DDC72000236E
:10255000834205DA694601335A1EA25CCA54F7E782
:10256000421C6B46FF211420FFF70AFF32B010BD5A
:10257000F7B5234B06001B68A020009300232149D8
:10258000009A93420ADA02005A438A185478B442F5
:1025900002D11278002A32D10133F1E70024A023BE
:1025A0001A00624301920199164A55182F78002F9C
:1025B00006D001340A2CF3D11348FFF7BDFF1EE00B
:1025C000A0223900280002F06EF803230D4A019979
:1025D0006E7053540D4BF200D358AE70AB600223B3
:1025E000EB60009B2F616F61A34202DC044B01345E
:1025F0001C60002331001A001020FFF7C1FEF7BD58
:10260000F0000020C80F0020D35F00000816002053
:1026100010B5FFF7E9FE0024064BE200D3181B7942
:10262000043B012B02D8E0B2FFF7A2FF0134FF2CDC
:10263000F2D110BD08160020F8B507000D000024E7
:10264000134BE200D3181A79062A1DD11868793283
:10265000C3681A40042A17D11B0A01339B000C30AF
:10266000C018FFF7E1FA060002F040FC0023A84280
:102670000AD19D4205DDF15CFA5C914204D101333F
:10268000F7E7E0B2FFF774FF0134FF2CD8D1F8BDB3
:102690000816002010B50200C9B21420FFF7C2FED0
:1026A00010BD002310B501001A001120FFF768FECD
:1026B00010BD07B56B46197069465A7013128B70BE
:1026C0001314120ECB700A716B4601000522132001
:1026D000FFF756FE07BD10B50A0001001220FFF7F4
:1026E000A1FE10BD70B5050008000C003230FFF7E8
:1026F000DBFD2B00220000211B20FFF741FE70BDF7
:10270000F0B580279DB0FFF7B5FDC14DC14C2868DD
:10271000FF00391A201800F04FFD2B680600C3187F
:102720002B60002B00D1FEE1002E0DDD2868391A48
:10273000201800F041FD2B6806001B182B6000F0EC
:102740007DFAB54B1860EFE72378FA2B00D03EE115
:102750002B68022B06DCFFF779FD002800D1E2E1AF
:102760000120D9E16078A5780238182800D92CE139
:1027700001F064FD19002A002E00320035003900F6
:102780002B014400850094009A00AE00FF00140164
:102790002B012B012B012B012B012B012B012B01D9
:1027A0002B012B012501FF2D00D10EE12800FFF7A1
:1027B0009FFE00229949EB005A50CB181A7129004C
:1027C00000921300132066E02800FFF7D1FEFCE022
:1027D0002800FFF78DFEF8E0FFF71AFFF5E0FFF79E
:1027E00003FE8F48E8E0182D00D9EEE08D4BAA00DB
:1027F000D25829001520FFF715FEE6E0002600203C
:10280000FFF7B4FA00250400002C12D0FF21236842
:102810001A140A40152A04D11B120B40B34203D1EB
:102820007DE11D2A00D100252000FFF79FFA04005A
:10283000EAE7002D03D10136192EE0D1C5E02800CA
:10284000083002F053FB07000530FFF72DFDFB2099
:10285000FFF7C6FC1D20FFF7C3FCF0B2FFF7C0FC7A
:10286000F8B2FFF7BDFC3812C0B2FFF7B9FCA742BF
:10287000E1DD2B19187AFFF7B3FC0134F7E70023E9
:102880000121684AD1500433642BFBD100211D2063
:102890000B000A000091FFF7F7FB96E000222900E9
:1028A000009213002720F6E700F0E0F903AC5E4A3F
:1028B000642100905D4B200002F0BCFA022320004E
:1028C000237002F013FB23000200002116207AE09F
:1028D0000024524AE300D558002D46D06B689E0074
:1028E000701DFFF7E1FC2B000025320008332100AA
:1028F0000120FFF745FD0020FFF738FA2E002F00DA
:1029000000281DD0FF2103681A120A40A24214D1E8
:102910001A140A400B2A07D10B400DD0012B09D005
:10292000022B00D1FDE008E0132A06D100252E007D
:102930002F0002E0060000E00700FFF717FADFE7CC
:10294000002E04D0320001212000FFF7C1FC002D31
:1029500004D02A0002212000FFF7BAFC002F04D087
:102960003A0000212000FFF7B3FC0134FF2CB0D166
:102970002BE0FFF739FD00250024290000942300F7
:10298000220013200135FFF77FFBFF2DF4D1FF223A
:102990002100D200214801F086FE16E0FFF724FD59
:1029A000002000F0ADFB00F033FA00F0F7FBE1206F
:1029B000C000FFF7BFF81E48FFF7BEFD05E000238B
:1029C0001A201A001900FFF7DBFC0320A4E0FB2B00
:1029D00000D0C5E62A68042A00DCBCE62679E07847
:1029E00036020643331D9A4200DCB4E6E35CFE2B5C
:1029F00000D0B5E66078A578731E1C2861D019D880
:102A000008282ED01B2857D0012800D083E017E0DB
:102A1000300A0020380A0020340A0020081600205E
:102A2000E85F0000001E0020FF5F0000FA5F00006A
:102A3000066000001E2868D04ED31F2863D06AE0CD
:102A4000FF2D68D067790634B31E290000943A0040
:102A50000A20FFF719FB354BED00E8505D192F7187
:102A600059E0182D57D86079022813D003281BD0BD
:102A7000012850D1A71D7A78A479BB78120222438D
:102A80001B0413431A00FB78AD001B0613435B00C5
:102A900003430EE0002B3EDDB11EA01DFFF7A8F89A
:102AA000234BAD00E85036E0A379AD005A1E9341A8
:102AB0009B001F4AAB502EE0601D1900FFF7BCFDC4
:102AC00029E0FF2D27D06279022A24D80634B31ECC
:102AD000009429000B201CE0632B00DD63230022FF
:102AE00003A8934204DDA118497981540132F7E724
:102AF000D9430022C917194041180A7001330090C8
:102B00002900152005E0042B05D1002229000534F9
:102B10000094FFF7B9FA701DFFF770FB03E0250082
:102B200082E6050009E71DB0F0BDC046081600208A
:102B3000001E002070B50A2000F0F6FE0024FF25DC
:102B40002000002101F06AF82000002101F048F87F
:102B5000024BE5540134212CF2D170BD4C0E002003
:102B600070B50524012800D00634094D2B5D002BDB
:102B700005D00021200001F033F800232B55200060
:102B800001F062F80138431E9841800070BDC046D4
:102B90004C0E002010B50124044001D0441002E086
:102BA0000D20FEF74DFF200010BD000010B50348BA
:102BB00000F08AFD0122024B1A6010BD980E002021
:102BC000740E002010B5124C637B012B05D001213F
:102BD0000D2001F005F801236373A37B012B05D0C1
:102BE00001210E2000F0FCFF0123A373E37B002BE7
:102BF00005D000210F2000F0F3FF0023E373054C04
:102C0000200000F09DFC1021200000F0B5FC10BD5C
:102C10004C0E0020840E002001220020054B0649A6
:102C20001A615850033004315850801808315850F8
:102C30001A60704700800040040500000122034B29
:102C40001A64A822D20098587047C04600800040FD
:102C500010B5FFF7F3FF800A10BD000010B50100AA
:102C6000014801F095F810BD540F0020004870474E
:102C70002A6000000D20704743207047036870B53C
:102C80005B100120052B12D8094A9B009C58094D66
:102C90002B5D002B05D00021200000F0A1FF0023B8
:102CA0002B55200000F046FE01234000184370BD64
:102CB000346000004C0E002070B5036845685C105D
:102CC0006D1004D40B4B9D4202DD1D0000E0002579
:102CD000202C0DD8084E335D012B05D0012120009A
:102CE00000F07EFF012333552900200000F0B0FEE4
:102CF00070BDC046FF0300004C0E002070B5046894
:102D00006410202C0FD8094D2B5D002B05D000211D
:102D1000200000F065FF00232B55200000F094FFF9
:102D20000423012800D00023180070BD4C0E0020A1
:102D300070B504000D0020280ED8084E335C012B1E
:102D400004D0012100F04CFF01233355290020005D
:102D50004D1EA94100F062FF70BDC0464C0E002020
:102D6000436810B5191F4A424A41006811004010DB
:102D7000FFF7DEFF10BD000070B5124C050023798F
:102D8000012B05D00121042000F02AFF012323712B
:102D9000A37E012B05D001211A2000F021FF012381
:102DA000A3762868042804D1002100F037FF012110
:102DB00004E00121042000F031FF00211A2000F07E
:102DC0002DFF70BD4C0E002010B504680D20E307E8
:102DD00003D56410FF2C03D91720FEF731FE06E05F
:102DE000FFF7F0FEE1B2024800F0E8FB002010BD62
:102DF000840E002010B5FFF7E5FE0021034800F027
:102E0000DDFB01234000184310BDC046840E0020A6
:102E1000F0B5AA4F87B03B68002B04D1A84A1268CE
:102E2000002A00D147E1A74D2A68002A3BD1A44ED1
:102E30003468002C19D1002B17D00C32A24903A8FA
:102E400001F028FC03AB1B5D0193019A9F4B9B5C37
:102E5000012B07D00121100000F0C2FE01239B4A84
:102E60000199535401340C2CECD13368002B18D049
:102E70003C68002C15D1346003AE0C22924930001E
:102E800001F008FC355D914F7B5D002B05D00021E2
:102E9000280000F0A5FE00237B5501340C2CF1D155
:102EA00009E13B68336000211A2000F0B7FE0021E1
:102EB0001B2000F0B3FE00211C2000F0AFFE2E68A6
:102EC000012E56D0022E00D19CE0002E00D0ECE066
:102ED000013631007A4C03202368994300F09EFEAE
:102EE0000420216801400B005942594100F096FE30
:102EF000102123680A200B405942594100F08EFEF0
:102F00008021236809010B4059425941062000F0F5
:102F100085FE8021236809020B4059425941072050
:102F200000F07CFE8021236849020B405942594140
:102F3000092000F073FE8021236889020B4059426A
:102F40005941192000F06AFE80212368C9020B4014
:102F500059425941182000F061FE802321681B036B
:102F60000B4059425941172000F058FE31001A20F9
:102F700099E00221524C172023680B4059425941D5
:102F800000F04CFE0821236818200B40594259419B
:102F900000F044FE80212368C9000B40594259418A
:102FA000042000F03BFE8021236849010B40594278
:102FB00059410A2000F032FE80212368C9010B40EC
:102FC00059425941032000F029FE802123688903DA
:102FD0000B4059425941092000F020FE802321680E
:102FE0001B040B4059425941192000F017FE3100D3
:102FF000062000F013FE3100072000F00FFE310024
:103000001B2050E020212E4C172023680B405942F2
:10301000594100F003FE4021236818200B4059421B
:10302000594100F0FBFD8021236819200B405942D3
:10303000594100F0F3FD8021236849000B405942BB
:103040005941092000F0EAFD8021236889000B40E6
:1030500059425941072000F0E1FD80212368890190
:103060000B4059425941062000F0D8FD80212368C9
:1030700049030B40594259410A2000F0CFFD8021FD
:103080002368C9030B4059425941032000F0C6FD93
:10309000802321685B040B4059425941042000F011
:1030A000BDFD01211C2000F0B9FD2B680321581C37
:1030B00001F03EFA296007B0F0BDC046480E00207E
:1030C000400E0020700E00201E6000004C0E0020FC
:1030D00010B504000068FFF75DFD6068FFF75AFD5A
:1030E000A068FFF757FD10BD006810B5C30703D5F2
:1030F000FFF750FD014B186010BDC046480E002080
:1031000013B5002401A80194FFF736FE014B1C60A3
:1031100013BDC046480E002070B505000068FFF7DB
:1031200039FD04006868FFF735FD631E042B0CD8D9
:103130000138042809D805225043043AC3189A409C
:10314000130002490A6813430B6070BD480E00204B
:1031500070B505000068FFF71DFD04006868FFF703
:1031600019FD631E042B0CD80138042809D8052248
:103170005043043AC3189A40130002490A689A431C
:103180000A6070BD480E002010B50120FFF7E8FC72
:1031900010BD10B50220FFF7E3FC10BD10B5FFF71E
:1031A0003BFDFFF7C7FCE1210248490200F037FE72
:1031B00010BDC046540F0020F8B5094D0700280087
:1031C00000F06CFE3C000600E31B9E4205DD28007B
:1031D00000F06EFE20700134F6E73000F8BDC04606
:1031E000540F002010B50100014800F01FFE10BD73
:1031F000540F0020F8B5012306681E4205D045682B
:103200001D4202D084681C4201D10D2004E07610DA
:103210006D10802E03D91520FEF712FC1DE016203C
:10322000FF2DF9D864101720FF2CF5D80B4B1B6825
:10323000002B01D1FFF7BAFC094FF1B2380000F0C2
:10324000D1FAE9B2380000F000FAE1B2380000F03B
:10325000FCF9380000F030FB0020F8BD740E0020AF
:10326000980E0020012370B505681D4202D0466803
:103270001E4201D10D2004E06D107610802D03D97F
:103280001520FEF7DDFB2AE01620FF2EF9D8144B9F
:103290001B68002B01D1FFF789FC124CEDB229000D
:1032A000200000F09FFAF1B2200000F0CEF90021DA
:1032B000200000F0A3FA002801D040420CE00122D7
:1032C0002900200000F089FA200000F0B4F900285D
:1032D000FAD0200000F0B4F901234000184370BD7B
:1032E000740E0020980E0020204B70B51A6806005E
:1032F0001D001F4C002A16D11E4B1B68002B01D14C
:10330000FFF754FC1D21200000F06CFA2A21200058
:1033100000F09BF90121200000F097F9200000F057
:10332000CBFA01232B601D21200000F05BFAF1B2E3
:10333000200000F08AF90021200000F05FFA03006D
:103340000020834210D101221D21200000F045FA07
:10335000200000F070F90028FAD0200000F070F989
:103360007F2801DD0138FF3870BDC046440E0020C3
:10337000980E0020740E002010B50120FFF7B4FF56
:1033800001234000184310BD10B50320FFF7ACFF28
:1033900001234000184310BD10B50520FFF7A4FF1E
:1033A000012340424000184310BD00002F4B70B570
:1033B0001A681D002E4C002A16D12E4B1B68002BBC
:1033C00001D1FFF7F3FB0E21200000F00BFA1021D2
:1033D000200000F03AF92921200000F036F9200001
:1033E00000F06AFA01232B600E21200000F0FAF9A8
:1033F0000121200000F029F90021200000F0FEF951
:10340000002801D000202CE001220E21200000F035
:10341000E4F9200000F00FF90028FAD0200000F0B5
:103420000FF90E21200000F0DDF90F21200000F03F
:103430000CF90021200000F0E1F90028E2D101227E
:103440000E21200000F0C9F9200000F0F4F8002857
:10345000FAD0200000F0F4F87F2801DD0138FF38B1
:10346000053001234000184370BDC0463C0E0020CB
:10347000980E0020740E002010B5FFF78FFEE1209B
:10348000C000FEF757FB0448FFF756F8FEF75EFE54
:10349000FFF7BEF810BDC0460660000010B5FEF78D
:1034A000D5FA10BD70B5002504AC24780573A94287
:1034B00005D10A4B0A4A23210A4801F06BF8016042
:1034C0000949920052589B0002715B588371A30016
:1034D0005B58856043710223C37170BD8960000031
:1034E0004C6000009760000020610000037B002B0F
:1034F00004D1437383730361013303737047000086
:103500001FB50191A02100240068C900D2B2445027
:10351000012A07D0A24203D0032A05D1042202E0E7
:10352000022200E006221343034A8350034B019A10
:10353000C250012343501FBD540500002405000064
:1035400010B50400FFF7D2FFA1222368A179D200B1
:1035500099506179064A2000995021790432995096
:10356000044B19685A689B68FFF7CAFF10BDC04634
:103570000C050000780E00204BB2002B0CDB8023E2
:103580003F290CD81F290CD80F290CD807290CD893
:1035900003290CD81B060BE080239B0408E0DB0406
:1035A00006E01B0504E05B0502E09B0500E0DB058F
:1035B0000168014A8B507047240500000368074AE0
:1035C00099501A00FC32D1680029FCD0A321C9000F
:1035D00058580023C0B2D3607047C0461C05000095
:1035E00007B58022074BD2051A6000229A6002328A
:1035F0001A710F230C3200930349023B0348FFF773
:1036000051FF07BD780E002000300040840E0020DE
:10361000F8B505000E0017000024BC4208D02B6846
:10362000315D1B6828009847002801D00134F4E779
:103630002000F8BD704710B51C3000F0D5FB10BD60
:1036400010B51C3000F0C2FB10BD70B5437E0D00FC
:10365000002B05D06430040000F0D5FB002801D019
:10366000002004E02000290000F0A1FB012070BD33
:1036700010B51C3000F0BEFB10BD0000F7B5019383
:10368000FA23002504009B0083600D4B456008333E
:1036900003601C300F00160000F07EFB2000643039
:1036A00000F07AFB074AB600B35827616375019BA7
:1036B00020009B009B586576A576A375FEBDC0468D
:1036C00000610000206100000123A022C375837DFA
:1036D0000C49C133FF33D2059B009950437DC13360
:1036E000FF339B009950CC210369074A4904995044
:1036F0000521243A9950817D08329950417D034A31
:10370000995070470C060000240500000C050000CD
:10371000F7B5050000200C00019382425CD0161E14
:10372000402E00D940262F001C37380000F04AFBFD
:10373000B1222B69D20080219C50012289005A506D
:10374000A97E002901D11A621A600024731E2A6919
:10375000A34206D1019B002B03D0802302219B00B2
:10376000D150012313621300FC33D968002902D120
:10377000996A0029F9D0996A00290AD1D960A3234E
:10378000DB00D1583800C9B2013400F010FBA6426A
:10379000DCD8019A2B69002A04D11A00FC32916A04
:1037A00000290AD001210022AA7659611900FC31B2
:1037B00088680028FCD08A6007E00121A976D961D9
:1037C000D16C0029FCD00021D164FC339A6A002A14
:1037D00001D000229A62E0B2FEBD10B50123FFF7CE
:1037E00097FF10BD0300AC3310B5040019706430AE
:1037F00000F0E8FA0123637610BD0000F8B500225E
:103800000D0001004276AC31036904000878B12153
:10381000C9005850802189005A5001321A629A60BA
:1038200026006436300000F0DFFA00280ED03000A9
:10383000276900F0CBFA1E4BF8502369FC331A6A53
:10384000002A0CD19A6A002AF9D008E02369002DD9
:103850000AD11A00FC32916A002905D10EE09A6A59
:10386000002AF3D11A62DBE701225A611A00FC3206
:1038700091680029FCD00021916006E00121D96106
:10388000D16C0029FCD00021D1641A000020FC3248
:10389000916A81420BD0074990625A5802305A50BF
:1038A000824204D0043A534253410230C01AF8BD58
:1038B0001C050000C404000010B50121FFF79EFFA5
:1038C00010BD000010B51323142202490248FFF76F
:1038D000D5FE10BD00400040980E002003210A488C
:1038E00002680A430260094802680A430260084904
:1038F000084A094B9B1A03DD043BC858D050FBDC37
:1039000000F0B4F9FCF736FC2405004054050040F3
:10391000B863000000000020D0000020FEE7FEE7B2
:10392000FEE7FEE7FEE7FEE7014B18607047C04682
:103930000C000020F7B50023202877D83C4B8000EE
:10394000C258042A14D006D8022A0DD00ED8042357
:10395000012A14D069E0062A0ED00BD31A2A0DD002
:1039600002231B2A0BD060E0082308E0102306E0A6
:10397000202304E0402302E0802300E001232D4ABD
:103980001268082A04D9092A05D00A21022404E071
:103990000821002401E011000124A02501261C2794
:1039A0002548ED004651254D254E2D681B02AD00E2
:1039B0003D400195234D2D6800958559AC466746DD
:1039C000214D3D401D4385518359C0259C46009B98
:1039D000AD021D40FF2367461B023B402B43019D68
:1039E0001D43009B5F0160231F402B003B431C4392
:1039F00001238451154C036063680F48002BFBD0F2
:103A00000024124B01255C60A123DB00C3584560F4
:103A1000A025ED0044511BB2914207D002D98A1A69
:103A2000D34003E0521A934000E000231800FEBD8B
:103A300020610000100000200070004008000020FD
:103A40000405000004000020FF00FFFFFC700040A0
:103A5000F0B520286CD8374B8000C258364B1E6812
:103A6000002E2ED1C2243548A4000759344B03251B
:103A70003B40C0273F023B4303518023893C9B00CE
:103A8000FF3C03512F4F03602F4B803CD859FF3C24
:103A9000A043D8510437D859A8432043D8510837F8
:103AA000D8590C35A843083D2843D851A820C00058
:103AB0001E508026C120760280001E501C601E4BC6
:103AC0001C6000231426214834005C432558040060
:103AD0006F1C0FD1142058432250A0200325C1325F
:103AE000FF329200C0051550194A08001268082AD2
:103AF00003D10BE0AA4218D1ECE7082A02D9083A10
:103B0000D14002E00820821A914008001422534359
:103B1000E3189A680C495132FF32920058605050B5
:103B2000DA68C1239B00CA5002E00133032BCBD1DA
:103B3000F0BDC04620610000500F002000E100E011
:103B4000FF00FFFF0405000000900040140000206B
:103B50000C0000201E4BF0B5596C18001D4A0029BE
:103B600014D0A025A12600230124ED05F600D1588C
:103B70004F1C06D0D7187F68002F02D027008F4037
:103B8000AF5114333C2BF2D100234364131DA02505
:103B900040329446002001240F4EED05DA680F49AB
:103BA000920057180A495218526C002A0CD01A1F5A
:103BB0001268511C05D01968FF2902D021009140DC
:103BC000A9513A00FC32506414339C45E6D1F0BD53
:103BD000FC900040140000200C0500000090004004
:103BE00000B5202816D80C4A83009B58032911D809
:103BF000A0220800C133FF33D2059B0000F014FB64
:103C000002080406002104E00C2102E0042100E087
:103C10000321D15000BDC0462061000020280DD8EE
:103C2000074B8000C058A0220123D2058340002901
:103C300001D1044901E0A121C90053507047C04699
:103C4000206100000C05000003000020202B0AD892
:103C5000A222A021D200C9058858034A9B009B5884
:103C6000D840012318407047206100002D4B10B54B
:103C70001A78012A19D12C4A1268120715D12B4A39
:103C8000E0241168F0220800104021420BD128499D
:103C90000968114209D12749274A11608021274A22
:103CA0000902116001E03028F1D01A78012A0DD103
:103CB0001D490968090709D1F0201C49096801401C
:103CC000402903D11A490968014223D01B68DBB29D
:103CD000012B25D1144B1B681B0721D1134B1A68EC
:103CE000F0231A40A02A04D1114A12681A4203D0C4
:103CF00016E0D02A14D1F7E7114B1A68012A03D134
:103D0000C022104B1A600BE00F4A1A601A68012A91
:103D1000FCD1F5E7C1218020C900C0054250D5E79C
:103D200010BDC046E00F00F0E40F00F0E80F00F017
:103D3000EC0F00F0DFFF07C004050040186C0040E6
:103D400000EC064014EC064075930000F7B5060041
:103D50000D000C008B180193019B671B9C4207D040
:103D6000336821781B683000984701340028F3D16C
:103D70003800FEBD70B505000C00081E07D001F02C
:103D8000B5F82B6802005B6821002800984770BDD9
:103D900010B5FFF7EFFF10BD10B540220021040061
:103DA00000F081FC002320002364636410BD3F23E6
:103DB000026C10B5541C2340446C9C4201D08154C9
:103DC000036410BD0023036443647047436C026CBA
:103DD000934206D03F21C25C01330B404364100084
:103DE00001E0012040427047036C406C181A00D576
:103DF00040307047436C026C934201D0C05C01E0DC
:103E0000012040427047036C406C5A1C3F23134012
:103E1000181A42424241D0B270470120704710B593
:103E200003681322DB69984710BD70470369054A90
:103E30009950FC331A6A002AFCD0002201201A6231
:103E40007047C0461C050000030010B55C331A78AB
:103E50001F2313400122110099400D4B0424D96700
:103E6000C221036989005C505A60DA60A0220021F7
:103E7000D20099500122074952425A500649143043
:103E80005A500C395A5008315A50FFF79BFF10BD59
:103E900004E100E00C0500001405000010B514302A
:103EA000FFF7A2FF10BD10B51430FFF7A3FF10BD40
:103EB00010B51430FFF78AFF10BD0000030070B585
:103EC0005E331C780269604BD45003005D331C786C
:103ED0005E4BD450030061331C785D4B012C0CD138
:103EE00005005F352E78A225ED005651050060359E
:103EF0002E78A125ED00565100E00024D4509623E1
:103F0000DB00994238D996231B01994237D9962371
:103F10005B01994236D996239B01994234D9E1231A
:103F20009B01994232D99623DB01994231D9E12391
:103F3000DB0199422FD996231B0299422DD9E12307
:103F40001B0299422BD996235B02994229D9E1237E
:103F50005B02994227D9E1239B02994225D93D4B27
:103F6000994224D9E123DB02994223D9E1231B039F
:103F7000994221D8384B21E09E23DB021EE09D238D
:103F80001B031BE0354B19E0354B17E0EC239B037B
:103F900014E0344B12E0344B10E0344B0EE0344B61
:103FA0000CE0344B0AE0344B08E0344B06E080234D
:103FB000DB0403E0324B01E080235B053149002440
:103FC00053500423243953501100FC31CC600C624F
:103FD000C1210134890014605C309460535003782F
:103FE0001F202200D9B20840824080342648FF3486
:103FF0005BB20251002B13DA0F230B40083B234C1A
:104000009B089B001B1903242140A140FC348C40D9
:10401000DD69A543C0248C4021002943D96111E00A
:10402000194C9B089B001B1903242140A140C0256B
:10403000FC348C40AD005E59A643C0248C40210066
:1040400031435951026070BD0C0500001405000099
:104050006C05000090D0030000D0BE0E00B013002D
:104060000050270000A04E0000F0750000509D0099
:1040700000F0EB0000903A0100E0D70100B0AF0380
:1040800000705F072405000000E100E000ED00E0A3
:10409000F7B5009308AB1B7800250193FA230400C1
:1040A0009B0083600E4B45600833036014300F00A3
:1040B0001600FFF771FE23005C3327611E70009B22
:1040C000084A9B00995823005D331970019B20001A
:1040D0009B009A5823005E33DD701A70FEBDC04607
:1040E000A461000020610000036910B51A00FC32D1
:1040F000D2680400002A0AD0A322D20099581430B2
:10410000C9B2FFF754FE00222369FC33DA6010BD08
:1041100010B50248FFF7E8FF10BDC046540F00205D
:10412000162307B5022200930249013B0248FFF71C
:10413000AFFF07BD00200040540F00207047000073
:1041400010B500F047F8FFF7F9FF012000F024F860
:10415000FFF792F9FFF7A2F9024B002BFAD000E02B
:1041600000BFF7E700000000084A0949094B10B5F5
:104170001B688858FA22190A1B061843920000236C
:1041800000F0DCF94904C00B084310BD0405000031
:1041900000100140B80F002070B5041E09D0FFF7D1
:1041A000E3FF050000F014F8FFF7DEFF401B844238
:1041B000F8D870BD0022044B9A60044A136801339A
:1041C000DBB213607047C046FC100140B80F0020FE
:1041D00070470000C421114A89005058104B034019
:1041E000C020000203435350802391399B02FF39C2
:1041F000535013608023A3220021DB05D200995085
:104200000122A1209A60074BC0001950C120023141
:1042100080001950403019501A60704700E100E0EA
:10422000FF00FFFF0010014002B471464908490039
:10423000095C49008E4402BC7047C04603B4714615
:10424000490840004900095A49008E4403BC7047A0
:10425000002243088B4274D303098B425FD3030AC5
:104260008B4244D3030B8B4228D3030C8B420DD3D8
:10427000FF22090212BA030C8B4202D31212090266
:1042800065D0030B8B4219D300E0090AC30B8B42A4
:1042900001D3CB03C01A5241830B8B4201D38B0352
:1042A000C01A5241430B8B4201D34B03C01A5241F7
:1042B000030B8B4201D30B03C01A5241C30A8B423A
:1042C00001D3CB02C01A5241830A8B4201D38B0225
:1042D000C01A5241430A8B4201D34B02C01A5241C9
:1042E000030A8B4201D30B02C01A5241CDD2C3093B
:1042F0008B4201D3CB01C01A524183098B4201D3B7
:104300008B01C01A524143098B4201D34B01C01AA1
:10431000524103098B4201D30B01C01A5241C30819
:104320008B4201D3CB00C01A524183088B4201D388
:104330008B00C01A524143088B4201D34B00C01A74
:104340005241411A00D20146524110467047FFE7E0
:1043500001B5002000F0F0F802BDC0460029F7D0FA
:1043600076E7704703460B437FD4002243088B4215
:1043700074D303098B425FD3030A8B4244D3030BEC
:104380008B4228D3030C8B420DD3FF22090212BAB1
:10439000030C8B4202D31212090265D0030B8B422D
:1043A00019D300E0090AC30B8B4201D3CB03C01A17
:1043B0005241830B8B4201D38B03C01A5241430BF2
:1043C0008B4201D34B03C01A5241030B8B4201D3E2
:1043D0000B03C01A5241C30A8B4201D3CB02C01A4D
:1043E0005241830A8B4201D38B02C01A5241430AC5
:1043F0008B4201D34B02C01A5241030A8B4201D3B4
:104400000B02C01A5241CDD2C3098B4201D3CB015A
:10441000C01A524183098B4201D38B01C01A524109
:1044200043098B4201D34B01C01A524103098B420D
:1044300001D30B01C01A5241C3088B4201D3CB00F8
:10444000C01A524183088B4201D38B00C01A5241DB
:1044500043088B4201D34B00C01A5241411A00D28B
:1044600001465241104670475DE0CA0F00D04942F4
:10447000031000D34042534000229C4603098B4264
:104480002DD3030A8B4212D3FC22890112BA030AEC
:104490008B420CD3890192118B4208D3890192116E
:1044A0008B4204D389013AD0921100E08909C309F3
:1044B0008B4201D3CB01C01A524183098B4201D3F5
:1044C0008B01C01A524143098B4201D34B01C01AE0
:1044D000524103098B4201D30B01C01A5241C30858
:1044E0008B4201D3CB00C01A524183088B4201D3C7
:1044F0008B00C01A5241D9D243088B4201D34B00E2
:10450000C01A5241411A00D20146634652415B1023
:10451000104601D34042002B00D549427047634604
:104520005B1000D3404201B5002000F005F802BD49
:104530000029F8D016E770477047C046F0B54F46DF
:104540004646C0B41604360C9946330005042C0CBC
:10455000070C150C63437E436F4365431C0CAD1978
:1045600064199C46A64203D980235B0298464744BF
:104570006346250CEF191D044B464A4343432D0C5B
:10458000240464199918C91920000CBC9046994656
:10459000F0BDC0467FB51D000A4B06001B68D868F9
:1045A000002A02D1084C230001E01300074C0293BB
:1045B000009133002A000649019400F021F800F030
:1045C00007FEC046B00000203F5F0000D46100003D
:1045D000E1610000084B10B50400002B02D000215F
:1045E00000E000BF054B1868836A002B00D0984795
:1045F000200001F0D7FAC04600000000146200005D
:104600000EB403B5010003AB044804CB006801936A
:1046100000F016F902B008BC03B01847B000002043
:104620000E4B70B500251E000D4CE41AA410A542D7
:1046300004D0AB00F35898470135F8E701F0B4FA1D
:10464000084B00251E00084CE41AA410A54204D013
:10465000AB00F35898470135F8E770BDB80000206B
:10466000B8000020B8000020C800002010B5034B9F
:104670000100186800F066F810BDC046B0000020C8
:1046800010B5034B0100186800F016F810BDC046C5
:10469000B0000020002310B59A4203D0CC5CC45473
:1046A0000133F9E710BD03008218934202D019705C
:1046B0000133FAE77047000030B500293ED00439D5
:1046C0000B68002B00DAC9181D4A13681400002B70
:1046D00002D14B60116031E08B420DD90A68881815
:1046E000834203D118685B6882180A604B602160BE
:1046F00024E08A4203D813005A68002AF9D11D68C1
:104700005C198C420BD109686918581819608242EB
:1047100014D110685268411819605A600EE08C423A
:1047200002D90C23036009E008680C18A24203D1E7
:1047300014685268201808604A60596030BDC0464D
:10474000C00F0020032370B5CD1C9D430835060023
:104750000C2D01D20C2505E0002D03DA0C230020DE
:10476000336040E0A942F9D81F4B1C681A002100B1
:10477000002913D00B685B1B0DD40B2B02D90B60E7
:10478000CC181EE08C4202D1636813601AE04B68BB
:1047900063600C0016E00C004968E9E7134C2368DD
:1047A000002B03D1300000F033FB206029003000E3
:1047B00000F02EFB431CD1D00323C41C9C43A04219
:1047C0000AD12560200007220B30231D9043C31A15
:1047D00009D05A42E25006E0211A300000F018FBDE
:1047E000431CEED1BAE770BDC00F0020BC0F002003
:1047F000936810B5013B9360002B05DA9469A342DE
:1048000008DBCBB20A2B05D01368581C1060197056
:10481000C8B201E000F010FC10BDF8B506000F00B2
:104820001400D518AC4208D021783A003000FFF7C8
:10483000DFFF0134431CF5D100E00020F8BD00008B
:10484000F0B59FB006000F0002920593002804D037
:104850008369002B01D100F0B7FD7F4B9F4201D14E
:10486000776808E07D4B9F4201D1B76803E07C4B3D
:104870009F4200D1F768BB891B070AD53B69002B13
:1048800007D0002306AD6B6120336B761033AB7617
:104890003DE03900300000F027FC0028F1D0012075
:1048A0004042D6E0059A111D12680591002A00DAEF
:1048B0007FE00992013423782E2B00D18DE02178FE
:1048C0000322684800F066FE002807D0654B2A687E
:1048D000C01A4023834013432B6001342178631CAA
:1048E000062261480293297600F054FE002800D188
:1048F0009DE05E4B002B00D090E00722059B073324
:104900009343083305936B69039A9B186B61029C70
:104910002378002B04D1029BE31A049312D003E006
:10492000252BF8D00134F3E7049B029A39003000BC
:10493000FFF773FF431C00D186E06A69049B94462D
:1049400063446B612378002B7ED001220023524206
:104950006A6002A95432521801342B60EB60AB60DC
:104960001370AB6521780522414800F013FE002842
:1049700008D03F4B2A68C01A0123834013432B60A1
:104980000134EFE72B68DA0604D55322202102A870
:10499000121811701A0704D553222B2102A81218DD
:1049A000117022782A2A00D17CE7099B00200A2175
:1049B00005E05242EA60022213432B607AE7227834
:1049C000303A092A04D84B4301349B180120F6E7FA
:1049D000002800D16FE709936DE763782A2B0AD18D
:1049E000059B02341A1D1B680592002B01DA012376
:1049F0005B42079363E700230A201A0001346B60CF
:104A000021783039092904D842430134521801234E
:104A1000F6E7002B00D152E7079250E705AB009371
:104A20003A00144B2900300000E000BF07E005AB5E
:104A300000933A000F4B2900300000F08BF80390F0
:104A4000039B013300D05EE7BB895B0600D526E7F8
:104A50000B981FB0F0BDC0464C6300006C630000B3
:104A60008C6300001E620000226200000000000053
:104A7000186200001B480000F7B5170001938A6810
:104A80000B6900900C00934200DA130022003B6097
:104A900043321278002A01D001333B6023689B0621
:104AA00002D53B6802333B60062523681D401ED0BB
:104AB000230043331B785A1E9341226892061CD56B
:104AC0003020E1184331087021005A1C4531097823
:104AD000A2184332023311700FE022000123193271
:104AE00001990098089EB047431C0ED00135E36839
:104AF0003A689B1A9D42F0DBDAE7220001994332C3
:104B00000098089DA847431C02D10120404220E0A4
:104B100006232068E1683A6803400025042B03D18E
:104B20008D1AEB43DB171D40A3682269934201DD18
:104B30009B1AED180027BD420AD0220001231A3229
:104B400001990098089EB047431CDED00137F2E778
:104B50000020FEBDF0B58BB006920A0043320793E9
:104B6000059004920A7E0C00109B6E2A00D1ABE0E7
:104B700011D8632A22D009D8002A00D1B5E0582ADA
:104B800000D0C5E045310A70814A4FE0642A1DD04B
:104B9000692A1BD0BCE0732A00D1AAE009D86F2A89
:104BA00029D0702A00D0B3E0202209680A4322608D
:104BB00037E0752A1FD0782A33D0A9E00E001A6892
:104BC0004236111D196013683370A4E021681A6819
:104BD000080606D4490604D5111D19600023D55EC8
:104BE00002E0111D19601568002D3BDA2D23049A8F
:104BF0006D42137036E021681A68080606D449062B
:104C000004D51568111D1960ADB202E0111D1960BF
:104C100015685F4B227E039308276F2A1DD00A2751
:104C20001BE022007821453211705A4A196803921C
:104C3000081D226818600D68100602D4500600D5C1
:104C4000ADB2D30702D520231A4322601027002DCE
:104C500003D1202322689A43226023000022433399
:104C60001A7002E00A274A4B03936368A360002B83
:104C700009DB0422216891432160002D05D1049EA7
:104C8000002B11D07BE0002D79D0049E2800390044
:104C9000FFF764FB039B013E5B5C28003370390027
:104CA000FFF7D6FA051EF1D1082F09D12368DB07DB
:104CB00006D563682269934202DC3023013E3370DB
:104CC000049B9B1B23612BE009681A68080607D424
:104CD000490605D5111D19601368A28A1A8004E0DF
:104CE000111D1960136862691A600023049E236114
:104CF00016E01A68111D19601668002162683000FC
:104D000000F048FC002801D0801B6060636803E06D
:104D1000260042363270012323610023049A137067
:104D2000079B09AA00932100069B0598FFF7A4FEA4
:104D3000431C02D10120404227E02369320006993A
:104D40000598079DA847431CF4D0236800259B07BE
:104D50000FD4099BE068984217DA180015E022008A
:104D60000123193206990598079EB047431CE1D0EC
:104D70000135E368099A9B1A9D42F0DBE9E72600BA
:104D8000039B42361B7833708EE70BB0F0BDC046F4
:104D9000296200003A620000154B10B51C68A36B35
:104DA000002B15D11820FFF761FC124BA063038084
:104DB000114B01224380114B8380114BC380114B57
:104DC000038105234381063383810023026143610C
:104DD000A46B0D4A206961690C4BFFF7AFFB012200
:104DE000002380185941206161614800400810BDCE
:104DF000B00000200E330000CDABFFFF34120000E6
:104E00006DE6FFFFECDEFFFF2D7F954C2DF4515832
:104E1000002370B5064C05000800236000F0ACFECE
:104E2000431C03D12368002B00D02B6070BDC0460B
:104E3000E01E00200CB430B5164B9DB00C1E1D6852
:104E400004DA8B2301202B6040421DE0822302A95B
:104E50009B008B810023029008619C4200D0631E5E
:104E60008B604B6101235B42CB81209A21AB2800F0
:104E7000019300F037FC431C01DA8B232B60002CDC
:104E800002D00023029A13701DB030BC08BC02B0DF
:104E90001847C046B00000200EB410B59DB002A95E
:104EA000029008610B4882248860486101204042DA
:104EB0001FABC881084804CBA400006801938C8113
:104EC00000F010FC0023029A13701DB010BC08BC47
:104ED00003B01847FFFFFF7FB0000020031C0A78D3
:104EE00001311A700133002AF9D170470023C25CE6
:104EF0000133002AFBD1581E70470000F0B51E0098
:104F0000454B87B01B680192029308220B00059065
:104F100003911C7802995D1C09194878104001D052
:104F20002B00F6E72D2C04D19D1C5C780123009307
:104F300004E000902B2C01D15C789D1C002E02D047
:104F4000102E0AD162E0302C5ED120222B789343C0
:104F5000582B54D110266C780235009F31007B1EEF
:104F60009F412E4BFF183800FFF7F8F938000491E5
:104F70003100FFF76DF90023032207009446180063
:104F8000029A121951780422114201D0303C07E0F4
:104F90006246114017D03722012900D02032A41ACE
:104FA000A64210DD5A1C0BD0B84207D802D1049B90
:104FB0009C4203DC70430123201801E001235B4283
:104FC0002C780135DCE75A1C0BD10098059A431E5A
:104FD0009841124BC01822231360019B002B0AD169
:104FE00017E0009A002A00D04042019A002A10D00F
:104FF000039A002B00D06A1E019B1A6009E030243E
:10500000002EAAD10826A8E70A26A6E7302C9CD0B5
:10501000A3E707B0F0BDC046B4000020FFFFFF7F4C
:1050200010B513000A00010002480068FFF766FF90
:1050300010BDC046B0000020F8B505000F001400F8
:10504000002804D08369002B01D100F0BDF9234B67
:105050009C4201D16C6808E0214B9C4201D1AC68B4
:1050600003E0204B9C4200D1EC68A369A360A389B4
:105070001B070AD52369002B07D023682269FEB2DB
:10508000981A636998420FDB08E02100280000F0BD
:105090002BF80028F1D0012040421DE0210028001B
:1050A00000F024F90028F6D1A3680130013BA36089
:1050B00023685A1C22601F706369984205D0A38937
:1050C0003000DB0708D50A2E06D12100280000F0A9
:1050D0000DF90028DFD13000F8BDC0464C63000058
:1050E0006C6300008C630000354B70B51D680600D2
:1050F0000C00002D05D0AB69002B02D1280000F078
:1051000063F9304B9C4201D16C6808E02E4B9C4205
:1051100001D1AC6803E02D4B9C4200D1EC68A3891F
:105120009AB2110723D4D10607D409220120326094
:1051300037321343A381404240E0530713D5616BDC
:10514000002908D023004433994202D03000FFF7F1
:10515000B3FA002363632422A3899343A38100232A
:105160006360236923600822A3891343A381236911
:10517000002B0BD1A023A2899B0013408022920018
:10518000934203D02100300000F0B2F90123A2893C
:10519000134005D00023A36063695B42A36103E071
:1051A000910700D46369A36000202369834205D17D
:1051B000130603D540231A43A281013870BDC046AF
:1051C000B00000204C6300006C6300008C630000A2
:1051D00010B5062000F0AEFB012000F0E3FC00005B
:1051E000F7B58A8905000C0013075AD44B68002BC9
:1051F00002DC0B6C002B19DDE76A002F16D00023B0
:105200002E682B6080235B011A4001D0606D14E092
:105210000123216A2800B847431C0ED12B68002BBC
:105220000BD01D2B01D0162B02D12E6000205AE08E
:105230004022A3891343A38155E0A3895B0706D5C8
:105240006368C01A636B002B01D0236CC01A002363
:105250000200216A2800E76AB847A389421C06D1E8
:1052600029681D293AD8204ACA40D20736D50022DB
:10527000626022692260DB0405D5431C02D12B68E1
:10528000002B00D16065616B2E600029CED0230019
:105290004433994202D02800FFF70EFA00206063E1
:1052A00021E00F69002FC1D00B680F60DB1B019359
:1052B0000023920700D14B69A36003E0019B3F18D4
:1052C0001B1A0193019B002BB0DD019B3A00216A60
:1052D0002800A66AB0470028F0DCA38940220120FC
:1052E0001343A3814042FEBD010040200B6970B50D
:1052F00005000C00002B01D100201CE0002804D088
:105300008369002B01D100F05FF80B4B9C4201D167
:105310006C6808E0094B9C4201D1AC6803E0084B83
:105320009C4200D1EC680C22A35E002BE4D021004B
:105330002800FFF755FF70BD4C6300006C63000050
:105340008C63000010B5024900F0B0F810BDC046F3
:10535000ED520000002310B5040003604360836039
:1053600081814366C2810361436183611900082220
:105370005C30FFF798F9054B24626362044BA3622B
:10538000044BE362044B236310BDC0467559000013
:105390009D590000D5590000015A000070B56825DC
:1053A0004B1E5D430E0029007431FFF7CBF9041E3C
:1053B00008D000212A00016046600C30A0606832ED
:1053C000FFF771F9200070BD836913B50400002B4D
:1053D00028D18364C3640365134B144A1B6882623B
:1053E0000193984201D101238361200000F020F84D
:1053F0006060200000F01CF8A060200000F018F8A9
:105400000022E06004216068FFF7A4FF0122092167
:10541000A068FFF79FFF02221221E068FFF79AFFC2
:105420000123A36113BDC046146200004553000070
:10543000F8B51D4B06001D68AB69002B02D1280092
:10544000FFF7C2FF4835AC686B68013B05D40C22FE
:10545000A75E002F10D06834F7E72B68002B01D02F
:105460002D68F0E704213000FFF798FF286000283E
:10547000F6D10C23336016E0012320005B42E38168
:105480000233A38167662760A76067602761676151
:10549000A7615C3008223900FFF705F92000676337
:1054A000A763A764E764F8BD14620000F7B50400C1
:1054B0000700002601914834002C16D06368A568C7
:1054C0000093009B013B00930DD4AB89012B08D9BD
:1054D0000E22AB5E013304D029003800019B9847AF
:1054E00006436835EDE72468E6E73000FEBD0000BE
:1054F000F0B58B8991B006000C009B0726D40E23D3
:10550000C95E002904DA8023A5891D4010D10CE072
:1055100001AA00F0A1FA0028F5DBF023029D1B028E
:105520001D401A4BED186B425D418027FF0001E0E2
:105530000025402739003000FFF704F900280CD17E
:10554000A3899A051FD402221343A3812300473362
:10555000236023610123636115E080220C4BB36259
:10556000A38920601343A38120616761002D0AD0C5
:105570000E23E15E300000F081FA002803D0012202
:10558000A3891343A38111B0F0BDC04600E0FFFF23
:1055900045530000C9B28218904204D003788B4270
:1055A00002D00130F8E70020704710B5884202D9D8
:1055B0008B18984201D3002305E09B1A013A08D3C7
:1055C000995C8154FAE7934203D0CC5CC454013314
:1055D000F9E710BDF8B506000C001500002904D14C
:1055E0001100FFF7AFF8040018E0002A03D1FFF71D
:1055F00063F82C0012E000F067FA85420ED929000A
:105600003000FFF79FF8071E07D021002A00FFF7A0
:1056100041F821003000FFF74FF83C002000F8BDB2
:10562000F0B58E6885B007000C00039201939E428E
:1056300043D890238A89DB001A423ED003250969AA
:10564000236801985B1A029363695D43EB0F5D1950
:10565000029B6D1001331B18AB4200D91D0053058E
:1056600010D529003800FFF76DF8061E14D0029AF5
:105670002169FFF70FF8A289194B134080221343C9
:10568000A38112E02A003800FFF7A4FF061E0CD108
:1056900021693800FFF710F80C23402201203B60FD
:1056A000A38940421343A38117E0029B2661F618A9
:1056B00026606561019EED1AA560019BB34200D290
:1056C0001E00320003992068FFF76FFF0020A368D7
:1056D0009B1BA36023689E19266005B0F0BDC046E1
:1056E0007FFBFFFFF0B59FB0029005938B890F0001
:1056F00016001B0610D50B69002B0DD14021FFF7BA
:1057000021F838603861002804D10C23029A01384E
:105710001360D8E040237B61002306AD6B6120332A
:105720006B761033AB7634002378002B03D1A31BA8
:10573000049312D003E0252BF9D00134F4E7A31B26
:10574000320039000298FFF76BFF431C00D1B4E030
:105750006A69049B944663446B612378002B00D1F3
:10576000ABE00122002352426A6002A9543252186F
:1057700001342B60EB60AB601370AB65534E217846
:1057800005223000FFF706FF002807D00123801B09
:1057900083402A68013413432B60EFE72B68DA0655
:1057A00004D55322202102A8121811701A0704D51B
:1057B00053222B2102A81218117022782A2A03D012
:1057C000099B00200A210EE0059A111D126805911F
:1057D000002A01DB099204E05242EA6002221343EC
:1057E0002B6001340BE02278303A092A04D84B436D
:1057F00001349B180120F6E7002800D00993237894
:105800002E2B1ED163782A2B0AD1059B02341A1D38
:105810001B680592002B01DA01235B42079310E01D
:1058200000230A201A0001346B60217830390929DD
:1058300004D84243013452180123F6E7002B00D06C
:105840000792234E217803223000FFF7A3FE0028A1
:1058500006D04023801B83402A68013413432B6009
:10586000217806221B48661C2976FFF793FE002844
:1058700012D0194B002B06D10722059B0733934307
:105880000833059314E005AB00933A00134B29004D
:10589000029800E000BF07E005AB00933A000F4B11
:1058A00029000298FFF756F90390039B013304D0B7
:1058B0006B69039A9B186B6135E7BB890B985B0694
:1058C00001D5012040421FB0F0BDC0461862000063
:1058D0001E6200002262000000000000215600004D
:1058E00070B504000D1E1F2D04D91623036001207E
:1058F00040421EE0426C002A04D08B00D21813688C
:10590000002B08D1200000F031F82A00010020000F
:1059100000F01AF80DE00020012B0AD0591C03D129
:1059200017332360013004E00024280014609847F6
:10593000200070BD10B5034B01001868FFF7D0FFC1
:1059400010BDC046B0000020002370B5064C050015
:1059500008001100236000F0F7F8431C03D123680E
:10596000002B00D02B6070BDE01E002010B500F0B1
:10597000DBF810BD70B50C000E25495F00F0B0F8E3
:10598000002803DB636D1B18636503E0A289024BEB
:105990001340A38170BDC046FFEFFFFFF8B51F00A5
:1059A0008B8905000C001600DB0505D50E23C95EAA
:1059B0000022022300F074F8A289054B280013404E
:1059C000A38132000E23E15E3B0000F01FF8F8BD1A
:1059D000FFEFFFFF70B50C000E25495F00F060F887
:1059E000A389421C03D1054A1340A38104E080220D
:1059F00052011343A381606570BDC046FFEFFFFFF6
:105A000010B50E23C95E00F015F810BD70B5050085
:105A1000080011000022064C22601A0000F0BAF8BB
:105A2000431C03D12368002B00D02B6070BDC046FF
:105A3000E01E0020002370B5064C0500080023601E
:105A400000F062F8431C03D12368002B00D02B60C8
:105A500070BDC046E01E0020002370B5064C050056
:105A600008001100236000F057F8431C03D123689D
:105A7000002B00D02B6070BDE01E0020002370B50D
:105A8000064C05000800236000F056F8431C03D1C3
:105A90002368002B00D02B6070BDC046E01E0020A4
:105AA00070B50500080011000022064C22601A00A3
:105AB00000F052F8431C03D12368002B00D02B6068
:105AC00070BDC046E01E00200B1F1A68101F002A80
:105AD00004DA891804390B68D018043870470000BC
